{
  "transactions": [
    {
      "hash": "0x068b88ecd0e5a54f155a63361129772a3f1dd9f743e1af95f03144a93400eed1",
      "transactionType": "CALL",
      "contractName": null,
      "contractAddress": "0x882d0ea767b2753c6e9e3c00d9c8d8471f4dcb92",
      "function": "approve(address,uint256)",
      "arguments": [
        "0x000000000022D473030F116dDEE9F6B43aC78BA3",
        "115792089237316195423570985008687907853269984665640564039457584007913129639935"
      ],
      "transaction": {
        "from": "0xf93e7518f79c2e1978d6862dbf161270040e623e",
        "to": "0x882d0ea767b2753c6e9e3c00d9c8d8471f4dcb92",
        "gas": "0x9681",
        "value": "0x0",
        "input": "0x095ea7b3000000000000000000000000000000000022d473030f116ddee9f6b43ac78ba3ffffffffffffffffffffffffffffffffffffffffffffffffffffffffffffffff",
        "nonce": "0x48f",
        "chainId": "0xaa36a7"
      },
      "additionalContracts": [],
      "isFixedGasLimit": false
    },
    {
      "hash": "0xf5e853bd4ccdd2ed484f8d00348d15745d18c7c0d36ac22fa1ccb03292cb72f8",
      "transactionType": "CALL",
      "contractName": null,
      "contractAddress": "0x000000000022d473030f116ddee9f6b43ac78ba3",
      "function": "approve(address,address,uint160,uint48)",
      "arguments": [
        "0x882D0eA767B2753C6E9e3C00D9c8d8471F4dCb92",
        "0x429ba70129df741B2Ca2a85BC3A2a3328e5c09b4",
        "1461501637330902918203684832716283019655932542975",
        "1781896848"
      ],
      "transaction": {
        "from": "0xf93e7518f79c2e1978d6862dbf161270040e623e",
        "to": "0x000000000022d473030f116ddee9f6b43ac78ba3",
        "gas": "0xaf48",
        "value": "0x0",
        "input": "0x87517c45000000000000000000000000882d0ea767b2753c6e9e3c00d9c8d8471f4dcb92000000000000000000000000429ba70129df741b2ca2a85bc3a2a3328e5c09b4000000000000000000000000ffffffffffffffffffffffffffffffffffffffff000000000000000000000000000000000000000000000000000000006a359690",
        "nonce": "0x490",
        "chainId": "0xaa36a7"
      },
      "additionalContracts": [],
      "isFixedGasLimit": false
    },
    {
      "hash": "0xce3987b9aca3a0099007f1f1ed98a552b675d48b553c2f4b487988ab81df08c8",
      "transactionType": "CALL",
      "contractName": null,
      "contractAddress": "0x000000000022d473030f116ddee9f6b43ac78ba3",
      "function": "approve(address,address,uint160,uint48)",
      "arguments": [
        "0x882D0eA767B2753C6E9e3C00D9c8d8471F4dCb92",
        "0x00000000000044a361Ae3cAc094c9D1b14Eece97",
        "1461501637330902918203684832716283019655932542975",
        "1781896848"
      ],
      "transaction": {
        "from": "0xf93e7518f79c2e1978d6862dbf161270040e623e",
        "to": "0x000000000022d473030f116ddee9f6b43ac78ba3",
        "gas": "0x1016a",
        "value": "0x0",
        "input": "0x87517c45000000000000000000000000882d0ea767b2753c6e9e3c00d9c8d8471f4dcb9200000000000000000000000000000000000044a361ae3cac094c9d1b14eece97000000000000000000000000ffffffffffffffffffffffffffffffffffffffff000000000000000000000000000000000000000000000000000000006a359690",
        "nonce": "0x491",
        "chainId": "0xaa36a7"
      },
      "additionalContracts": [],
      "isFixedGasLimit": false
    },
    {
      "hash": "0x3e5ec35cae00e120f96948c02e5624c12db78b96f560412b1cd8bdd2f5419082",
      "transactionType": "CALL",
      "contractName": null,
      "contractAddress": "0x882d0ea767b2753c6e9e3c00d9c8d8471f4dcb92",
      "function": "approve(address,uint256)",
      "arguments": [
        "0x00000000000044a361Ae3cAc094c9D1b14Eece97",
        "115792089237316195423570985008687907853269984665640564039457584007913129639935"
      ],
      "transaction": {
        "from": "0xf93e7518f79c2e1978d6862dbf161270040e623e",
        "to": "0x882d0ea767b2753c6e9e3c00d9c8d8471f4dcb92",
        "gas": "0x1081f",
        "value": "0x0",
        "input": "0x095ea7b300000000000000000000000000000000000044a361ae3cac094c9d1b14eece97ffffffffffffffffffffffffffffffffffffffffffffffffffffffffffffffff",
        "nonce": "0x492",
        "chainId": "0xaa36a7"
      },
      "additionalContracts": [],
      "isFixedGasLimit": false
    },
    {
      "hash": "0x772c3d962aff53cae055a2c27a31435a437a91a0e2e17c9efa26d83068592dd9",
      "transactionType": "CALL",
      "contractName": null,
      "contractAddress": "0x882d0ea767b2753c6e9e3c00d9c8d8471f4dcb92",
      "function": "approve(address,uint256)",
      "arguments": [
        "0x4CbefEF124053240A236d6378e3713A0e1490e7c",
        "115792089237316195423570985008687907853269984665640564039457584007913129639935"
      ],
      "transaction": {
        "from": "0xf93e7518f79c2e1978d6862dbf161270040e623e",
        "to": "0x882d0ea767b2753c6e9e3c00d9c8d8471f4dcb92",
        "gas": "0x10888",
        "value": "0x0",
        "input": "0x095ea7b30000000000000000000000004cbefef124053240a236d6378e3713a0e1490e7cffffffffffffffffffffffffffffffffffffffffffffffffffffffffffffffff",
        "nonce": "0x493",
        "chainId": "0xaa36a7"
      },
      "additionalContracts": [],
      "isFixedGasLimit": false
    },
    {
      "hash": "0x8e5fce12e35796c1d45733753f5500264319ce8ddcaee03ece8dcfadc8b95349",
      "transactionType": "CALL",
      "contractName": null,
      "contractAddress": "0x429ba70129df741b2ca2a85bc3a2a3328e5c09b4",
      "function": "modifyLiquidities(bytes,uint256)",
      "arguments": [
        "0x000000000000000000000000000000000000000000000000000000000000004000000000000000000000000000000000000000000000000000000000000000800000000000000000000000000000000000000000000000000000000000000002020d00000000000000000000000000000000000000000000000000000000000000000000000000000000000000000000000000000000000000000000000000020000000000000000000000000000000000000000000000000000000000000040000000000000000000000000000000000000000000000000000000000000020000000000000000000000000000000000000000000000000000000000000001a00000000000000000000000000000000000000000000000000000000000000000000000000000000000000000882d0ea767b2753c6e9e3c00d9c8d8471f4dcb920000000000000000000000000000000000000000000000000000000000000bb8000000000000000000000000000000000000000000000000000000000000003c0000000000000000000000001f36effa0d3dd5d6b471d049cda048ad923d7ff8fffffffffffffffffffffffffffffffffffffffffffffffffffffffffff2764c00000000000000000000000000000000000000000000000000000000000d89b400000000000000000000000000000000000000000000000006f05b59d3b2000000000000000000000000000000000000ffffffffffffffffffffffffffffffff00000000000000000000000000000000ffffffffffffffffffffffffffffffff000000000000000000000000f93e7518f79c2e1978d6862dbf161270040e623e0000000000000000000000000000000000000000000000000000000000000180000000000000000000000000000000000000000000000000000000000000000000000000000000000000000000000000000000000000000000000000000000400000000000000000000000000000000000000000000000000000000000000000000000000000000000000000882d0ea767b2753c6e9e3c00d9c8d8471f4dcb92",
        "1781810748"
      ],
      "transaction": {
        "from": "0xf93e7518f79c2e1978d6862dbf161270040e623e",
        "to": "0x429ba70129df741b2ca2a85bc3a2a3328e5c09b4",
        "gas": "0x516fb",
        "value": "0x11c37937e08000",
        "input": "0xdd46508f0000000000000000000000000000000000000000000000000000000000000040000000000000000000000000000000000000000000000000000000006a34463c0000000000000000000000000000000000000000000000000000000000000300000000000000000000000000000000000000000000000000000000000000004000000000000000000000000000000000000000000000000000000000000000800000000000000000000000000000000000000000000000000000000000000002020d00000000000000000000000000000000000000000000000000000000000000000000000000000000000000000000000000000000000000000000000000020000000000000000000000000000000000000000000000000000000000000040000000000000000000000000000000000000000000000000000000000000020000000000000000000000000000000000000000000000000000000000000001a00000000000000000000000000000000000000000000000000000000000000000000000000000000000000000882d0ea767b2753c6e9e3c00d9c8d8471f4dcb920000000000000000000000000000000000000000000000000000000000000bb8000000000000000000000000000000000000000000000000000000000000003c0000000000000000000000001f36effa0d3dd5d6b471d049cda048ad923d7ff8fffffffffffffffffffffffffffffffffffffffffffffffffffffffffff2764c00000000000000000000000000000000000000000000000000000000000d89b400000000000000000000000000000000000000000000000006f05b59d3b2000000000000000000000000000000000000ffffffffffffffffffffffffffffffff00000000000000000000000000000000ffffffffffffffffffffffffffffffff000000000000000000000000f93e7518f79c2e1978d6862dbf161270040e623e0000000000000000000000000000000000000000000000000000000000000180000000000000000000000000000000000000000000000000000000000000000000000000000000000000000000000000000000000000000000000000000000400000000000000000000000000000000000000000000000000000000000000000000000000000000000000000882d0ea767b2753c6e9e3c00d9c8d8471f4dcb92",
        "nonce": "0x494",
        "chainId": "0xaa36a7"
      },
      "additionalContracts": [],
      "isFixedGasLimit": false
    },
    {
      "hash": "0x8906c788d558a99420c5a8011545d4c465a59057e8fc74c167bf0881b04b896a",
      "transactionType": "CALL",
      "contractName": null,
      "contractAddress": "0x00000000000044a361ae3cac094c9d1b14eece97",
      "function": "swapExactTokensForTokens(uint256,uint256,bool,(address,address,uint24,int24,address),bytes,address,uint256)",
      "arguments": [
        "1000000000000",
        "0",
        "true",
        "(0x0000000000000000000000000000000000000000, 0x882D0eA767B2753C6E9e3C00D9c8d8471F4dCb92, 3000, 60, 0x1F36efFA0D3dD5D6B471d049cdA048ad923D7fF8)",
        "0x",
        "0xF93E7518F79C2E1978D6862Dbf161270040e623E",
        "1781810748"
      ],
      "transaction": {
        "from": "0xf93e7518f79c2e1978d6862dbf161270040e623e",
        "to": "0x00000000000044a361ae3cac094c9d1b14eece97",
        "gas": "0x4592e",
        "value": "0xe8d4a51000",
        "input": "0xb1a0d571000000000000000000000000000000000000000000000000000000e8d4a51000000000000000000000000000000000000000000000000000000000000000000000000000000000000000000000000000000000000000000000000000000000010000000000000000000000000000000000000000000000000000000000000000000000000000000000000000882d0ea767b2753c6e9e3c00d9c8d8471f4dcb920000000000000000000000000000000000000000000000000000000000000bb8000000000000000000000000000000000000000000000000000000000000003c0000000000000000000000001f36effa0d3dd5d6b471d049cda048ad923d7ff80000000000000000000000000000000000000000000000000000000000000160000000000000000000000000f93e7518f79c2e1978d6862dbf161270040e623e000000000000000000000000000000000000000000000000000000006a34463c0000000000000000000000000000000000000000000000000000000000000000",
        "nonce": "0x495",
        "chainId": "0xaa36a7"
      },
      "additionalContracts": [],
      "isFixedGasLimit": false
    },
    {
      "hash": "0xb8e4a77076f9f7c0e34d023abb8803599144105859a7ea09cc0c7341cbd74f91",
      "transactionType": "CALL",
      "contractName": null,
      "contractAddress": "0x1f36effa0d3dd5d6b471d049cda048ad923d7ff8",
      "function": "claimFees(bool)",
      "arguments": [
        "true"
      ],
      "transaction": {
        "from": "0xf93e7518f79c2e1978d6862dbf161270040e623e",
        "to": "0x1f36effa0d3dd5d6b471d049cda048ad923d7ff8",
        "gas": "0x4171d",
        "value": "0x0",
        "input": "0x1d4161650000000000000000000000000000000000000000000000000000000000000001",
        "nonce": "0x496",
        "chainId": "0xaa36a7"
      },
      "additionalContracts": [],
      "isFixedGasLimit": false
    },
    {
      "hash": "0x1c98ce8e67093cfb4666d46b27ef67ff3741949f10ee8bb3ffbcd56bfd6a6a6b",
      "transactionType": "CALL",
      "contractName": null,
      "contractAddress": "0x00000000000044a361ae3cac094c9d1b14eece97",
      "function": "swapExactTokensForTokens(uint256,uint256,bool,(address,address,uint24,int24,address),bytes,address,uint256)",
      "arguments": [
        "1000000000000000",
        "0",
        "false",
        "(0x0000000000000000000000000000000000000000, 0x882D0eA767B2753C6E9e3C00D9c8d8471F4dCb92, 3000, 60, 0x1F36efFA0D3dD5D6B471d049cdA048ad923D7fF8)",
        "0x",
        "0xF93E7518F79C2E1978D6862Dbf161270040e623E",
        "1781810748"
      ],
      "transaction": {
        "from": "0xf93e7518f79c2e1978d6862dbf161270040e623e",
        "to": "0x00000000000044a361ae3cac094c9d1b14eece97",
        "gas": "0x42058",
        "value": "0x0",
        "input": "0xb1a0d57100000000000000000000000000000000000000000000000000038d7ea4c68000000000000000000000000000000000000000000000000000000000000000000000000000000000000000000000000000000000000000000000000000000000000000000000000000000000000000000000000000000000000000000000000000000000000000000000000000882d0ea767b2753c6e9e3c00d9c8d8471f4dcb920000000000000000000000000000000000000000000000000000000000000bb8000000000000000000000000000000000000000000000000000000000000003c0000000000000000000000001f36effa0d3dd5d6b471d049cda048ad923d7ff80000000000000000000000000000000000000000000000000000000000000160000000000000000000000000f93e7518f79c2e1978d6862dbf161270040e623e000000000000000000000000000000000000000000000000000000006a34463c0000000000000000000000000000000000000000000000000000000000000000",
        "nonce": "0x497",
        "chainId": "0xaa36a7"
      },
      "additionalContracts": [],
      "isFixedGasLimit": false
    },
    {
      "hash": "0x823fc3c7fcda68f9f8cc664648e6c9e25597d625fd18ae6a4a9d39d4a0ca9886",
      "transactionType": "CALL",
      "contractName": null,
      "contractAddress": "0x1f36effa0d3dd5d6b471d049cda048ad923d7ff8",
      "function": "claimFees(bool)",
      "arguments": [
        "false"
      ],
      "transaction": {
        "from": "0xf93e7518f79c2e1978d6862dbf161270040e623e",
        "to": "0x1f36effa0d3dd5d6b471d049cda048ad923d7ff8",
        "gas": "0x31821",
        "value": "0x0",
        "input": "0x1d4161650000000000000000000000000000000000000000000000000000000000000000",
        "nonce": "0x498",
        "chainId": "0xaa36a7"
      },
      "additionalContracts": [],
      "isFixedGasLimit": false
    },
    {
      "hash": "0x37d1ba55354910c2a2ccad39a75d03b4aee4ce045c04d286e49a7feea867b1a2",
      "transactionType": "CALL",
      "contractName": null,
      "contractAddress": "0x4cbefef124053240a236d6378e3713a0e1490e7c",
      "function": "stake(uint256)",
      "arguments": [
        "100000000000000000000"
      ],
      "transaction": {
        "from": "0xf93e7518f79c2e1978d6862dbf161270040e623e",
        "to": "0x4cbefef124053240a236d6378e3713a0e1490e7c",
        "gas": "0x3dda6",
        "value": "0x0",
        "input": "0xa694fc3a0000000000000000000000000000000000000000000000056bc75e2d63100000",
        "nonce": "0x499",
        "chainId": "0xaa36a7"
      },
      "additionalContracts": [],
      "isFixedGasLimit": false
    },
    {
      "hash": "0x4aee40ae5bb61888853efbc0e084d125bad3897b10e91700747657475b893a27",
      "transactionType": "CALL",
      "contractName": null,
      "contractAddress": "0x00000000000044a361ae3cac094c9d1b14eece97",
      "function": "swapExactTokensForTokens(uint256,uint256,bool,(address,address,uint24,int24,address),bytes,address,uint256)",
      "arguments": [
        "1000000000000",
        "0",
        "true",
        "(0x0000000000000000000000000000000000000000, 0x882D0eA767B2753C6E9e3C00D9c8d8471F4dCb92, 3000, 60, 0x1F36efFA0D3dD5D6B471d049cdA048ad923D7fF8)",
        "0x",
        "0xF93E7518F79C2E1978D6862Dbf161270040e623E",
        "1781810748"
      ],
      "transaction": {
        "from": "0xf93e7518f79c2e1978d6862dbf161270040e623e",
        "to": "0x00000000000044a361ae3cac094c9d1b14eece97",
        "gas": "0x438f9",
        "value": "0xe8d4a51000",
        "input": "0xb1a0d571000000000000000000000000000000000000000000000000000000e8d4a51000000000000000000000000000000000000000000000000000000000000000000000000000000000000000000000000000000000000000000000000000000000010000000000000000000000000000000000000000000000000000000000000000000000000000000000000000882d0ea767b2753c6e9e3c00d9c8d8471f4dcb920000000000000000000000000000000000000000000000000000000000000bb8000000000000000000000000000000000000000000000000000000000000003c0000000000000000000000001f36effa0d3dd5d6b471d049cda048ad923d7ff80000000000000000000000000000000000000000000000000000000000000160000000000000000000000000f93e7518f79c2e1978d6862dbf161270040e623e000000000000000000000000000000000000000000000000000000006a34463c0000000000000000000000000000000000000000000000000000000000000000",
        "nonce": "0x49a",
        "chainId": "0xaa36a7"
      },
      "additionalContracts": [],
      "isFixedGasLimit": false
    },
    {
      "hash": "0xc83da1219a3587cbcba40b875b073a834bc2a308cf313a56a6db7ed0a0d2150b",
      "transactionType": "CALL",
      "contractName": null,
      "contractAddress": "0x1f36effa0d3dd5d6b471d049cda048ad923d7ff8",
      "function": "claimFees(bool)",
      "arguments": [
        "true"
      ],
      "transaction": {
        "from": "0xf93e7518f79c2e1978d6862dbf161270040e623e",
        "to": "0x1f36effa0d3dd5d6b471d049cda048ad923d7ff8",
        "gas": "0x25202",
        "value": "0x0",
        "input": "0x1d4161650000000000000000000000000000000000000000000000000000000000000001",
        "nonce": "0x49b",
        "chainId": "0xaa36a7"
      },
      "additionalContracts": [],
      "isFixedGasLimit": false
    },
    {
      "hash": "0xa44697f9973b4e243db3cdf89c58ebeaf0a7e85847c4323a2681a539b4d344d1",
      "transactionType": "CALL",
      "contractName": null,
      "contractAddress": "0x882d0ea767b2753c6e9e3c00d9c8d8471f4dcb92",
      "function": "burn(uint256)",
      "arguments": [
        "10000000000000000000000"
      ],
      "transaction": {
        "from": "0xf93e7518f79c2e1978d6862dbf161270040e623e",
        "to": "0x882d0ea767b2753c6e9e3c00d9c8d8471f4dcb92",
        "gas": "0x44c61",
        "value": "0x0",
        "input": "0x42966c6800000000000000000000000000000000000000000000021e19e0c9bab2400000",
        "nonce": "0x49c",
        "chainId": "0xaa36a7"
      },
      "additionalContracts": [],
      "isFixedGasLimit": false
    },
    {
      "hash": null,
      "transactionType": "CALL",
      "contractName": null,
      "contractAddress": "0x2c81ef53a093a8d9d30071e085df329cccf703da",
      "function": "flagLpBurner(address)",
      "arguments": [
        "0xF93E7518F79C2E1978D6862Dbf161270040e623E"
      ],
      "transaction": {
        "from": "0xf93e7518f79c2e1978d6862dbf161270040e623e",
        "to": "0x2c81ef53a093a8d9d30071e085df329cccf703da",
        "gas": "0x23163",
        "value": "0x0",
        "input": "0xafa2f4d6000000000000000000000000f93e7518f79c2e1978d6862dbf161270040e623e",
        "nonce": "0x49d",
        "chainId": "0xaa36a7"
      },
      "additionalContracts": [],
      "isFixedGasLimit": false
    },
    {
      "hash": null,
      "transactionType": "CALL",
      "contractName": null,
      "contractAddress": "0x00000000000044a361ae3cac094c9d1b14eece97",
      "function": "swapExactTokensForTokens(uint256,uint256,bool,(address,address,uint24,int24,address),bytes,address,uint256)",
      "arguments": [
        "1000000000000000",
        "0",
        "false",
        "(0x0000000000000000000000000000000000000000, 0x882D0eA767B2753C6E9e3C00D9c8d8471F4dCb92, 3000, 60, 0x1F36efFA0D3dD5D6B471d049cdA048ad923D7fF8)",
        "0x",
        "0xF93E7518F79C2E1978D6862Dbf161270040e623E",
        "1781810748"
      ],
      "transaction": {
        "from": "0xf93e7518f79c2e1978d6862dbf161270040e623e",
        "to": "0x00000000000044a361ae3cac094c9d1b14eece97",
        "gas": "0x3fccb",
        "value": "0x0",
        "input": "0xb1a0d57100000000000000000000000000000000000000000000000000038d7ea4c68000000000000000000000000000000000000000000000000000000000000000000000000000000000000000000000000000000000000000000000000000000000000000000000000000000000000000000000000000000000000000000000000000000000000000000000000000882d0ea767b2753c6e9e3c00d9c8d8471f4dcb920000000000000000000000000000000000000000000000000000000000000bb8000000000000000000000000000000000000000000000000000000000000003c0000000000000000000000001f36effa0d3dd5d6b471d049cda048ad923d7ff80000000000000000000000000000000000000000000000000000000000000160000000000000000000000000f93e7518f79c2e1978d6862dbf161270040e623e000000000000000000000000000000000000000000000000000000006a34463c0000000000000000000000000000000000000000000000000000000000000000",
        "nonce": "0x49e",
        "chainId": "0xaa36a7"
      },
      "additionalContracts": [],
      "isFixedGasLimit": false
    },
    {
      "hash": null,
      "transactionType": "CALL",
      "contractName": null,
      "contractAddress": "0x1f36effa0d3dd5d6b471d049cda048ad923d7ff8",
      "function": "claimFees(bool)",
      "arguments": [
        "false"
      ],
      "transaction": {
        "from": "0xf93e7518f79c2e1978d6862dbf161270040e623e",
        "to": "0x1f36effa0d3dd5d6b471d049cda048ad923d7ff8",
        "gas": "0x31b49",
        "value": "0x0",
        "input": "0x1d4161650000000000000000000000000000000000000000000000000000000000000000",
        "nonce": "0x49f",
        "chainId": "0xaa36a7"
      },
      "additionalContracts": [],
      "isFixedGasLimit": false
    }
  ],
  "receipts": [
    {
      "type": "0x2",
      "status": "0x1",
      "cumulativeGasUsed": "0xbd7566",
      "logs": [
        {
          "address": "0x882d0ea767b2753c6e9e3c00d9c8d8471f4dcb92",
          "topics": [
            "0x8c5be1e5ebec7d5bd14f71427d1e84f3dd0314c0f7b2291e5b200ac8c7c3b925",
            "0x000000000000000000000000f93e7518f79c2e1978d6862dbf161270040e623e",
            "0x000000000000000000000000000000000022d473030f116ddee9f6b43ac78ba3"
          ],
          "data": "0xffffffffffffffffffffffffffffffffffffffffffffffffffffffffffffffff",
          "blockHash": "0x28b6820a70eda701f1c9666267d552377a9f27e71294bb0a8827790e53597d19",
          "blockNumber": "0xa934ec",
          "blockTimestamp": "0x6a344540",
          "transactionHash": "0x068b88ecd0e5a54f155a63361129772a3f1dd9f743e1af95f03144a93400eed1",
          "transactionIndex": "0xa4",
          "logIndex": "0x10c",
          "removed": false
        }
      ],
      "logsBloom": "0x00000000000000000000200000000000000000000000000000000000800000000000000000004000000000000000000000000000800000200000000000200000000000000000000000004000000000000000000000000800000000000000000000000000000000000000000000000000000000000000000000000000000080000000000000000000000000000000000000000000000000000000000000100000020000000000000000000000000000000000000000000000000000000000000000000000000000000000000000000000000000000000000000000000000000000010000000000000000000000000000000000000000000000000000000000000",
      "transactionHash": "0x068b88ecd0e5a54f155a63361129772a3f1dd9f743e1af95f03144a93400eed1",
      "transactionIndex": "0xa4",
      "blockHash": "0x28b6820a70eda701f1c9666267d552377a9f27e71294bb0a8827790e53597d19",
      "blockNumber": "0xa934ec",
      "gasUsed": "0x66e9",
      "effectiveGasPrice": "0x3d21cc40",
      "from": "0xf93e7518f79c2e1978d6862dbf161270040e623e",
      "to": "0x882d0ea767b2753c6e9e3c00d9c8d8471f4dcb92",
      "contractAddress": null
    },
    {
      "type": "0x2",
      "status": "0x1",
      "cumulativeGasUsed": "0x38e3ef5",
      "logs": [
        {
          "address": "0x000000000022d473030f116ddee9f6b43ac78ba3",
          "topics": [
            "0xda9fa7c1b00402c17d0161b249b1ab8bbec047c5a52207b9c112deffd817036b",
            "0x000000000000000000000000f93e7518f79c2e1978d6862dbf161270040e623e",
            "0x000000000000000000000000882d0ea767b2753c6e9e3c00d9c8d8471f4dcb92",
            "0x000000000000000000000000429ba70129df741b2ca2a85bc3a2a3328e5c09b4"
          ],
          "data": "0x000000000000000000000000ffffffffffffffffffffffffffffffffffffffff000000000000000000000000000000000000000000000000000000006a359690",
          "blockHash": "0x26300d0b28401e474e337a2c2eef20cdbf1277219721ec7d96a7c9dd917bd759",
          "blockNumber": "0xa934ed",
          "blockTimestamp": "0x6a34454c",
          "transactionHash": "0xf5e853bd4ccdd2ed484f8d00348d15745d18c7c0d36ac22fa1ccb03292cb72f8",
          "transactionIndex": "0xc2",
          "logIndex": "0x14f",
          "removed": false
        }
      ],
      "logsBloom": "0x00010000000000000000000000000000000000000000000000000000c00000000000000000000040080000000000000000000000000000208000000000080000000000000000000000000000000000000000000000000000000000000000000000000000000000000000000000000000000000000000000000000800000000000020000000040000000000000000000000000000000000000000000000100000000000000000000000000000000000000000000000000000000000080000000000000000000000000000000000000000000000000000000040000000000000000000000000000000000000000000000000000000000000000000000000000400",
      "transactionHash": "0xf5e853bd4ccdd2ed484f8d00348d15745d18c7c0d36ac22fa1ccb03292cb72f8",
      "transactionIndex": "0xc2",
      "blockHash": "0x26300d0b28401e474e337a2c2eef20cdbf1277219721ec7d96a7c9dd917bd759",
      "blockNumber": "0xa934ed",
      "gasUsed": "0x77da",
      "effectiveGasPrice": "0x399c19d4",
      "from": "0xf93e7518f79c2e1978d6862dbf161270040e623e",
      "to": "0x000000000022d473030f116ddee9f6b43ac78ba3",
      "contractAddress": null
    },
    {
      "type": "0x2",
      "status": "0x1",
      "cumulativeGasUsed": "0xb0dcda",
      "logs": [
        {
          "address": "0x000000000022d473030f116ddee9f6b43ac78ba3",
          "topics": [
            "0xda9fa7c1b00402c17d0161b249b1ab8bbec047c5a52207b9c112deffd817036b",
            "0x000000000000000000000000f93e7518f79c2e1978d6862dbf161270040e623e",
            "0x000000000000000000000000882d0ea767b2753c6e9e3c00d9c8d8471f4dcb92",
            "0x00000000000000000000000000000000000044a361ae3cac094c9d1b14eece97"
          ],
          "data": "0x000000000000000000000000ffffffffffffffffffffffffffffffffffffffff000000000000000000000000000000000000000000000000000000006a359690",
          "blockHash": "0xa5048f5e374f697557e92585e0283ce6da79d7ea760f4afe05011f3c46e6ecbc",
          "blockNumber": "0xa934ee",
          "blockTimestamp": "0x6a344558",
          "transactionHash": "0xce3987b9aca3a0099007f1f1ed98a552b675d48b553c2f4b487988ab81df08c8",
          "transactionIndex": "0x91",
          "logIndex": "0xf7",
          "removed": false
        }
      ],
      "logsBloom": "0x00010000000000000000000000000000000000000000000000000000c00000000000000000000000000000000000000000000000000000208000000040080000000000000000000000000000000000000000000000000000000000000000000000000000000000000000000000000000000000000000000000000000000040000020000000040000000000000000000000000000000000000000000000100000000000000000000000000000000000000000000000000000000000080000000000000000000000000000000000000000000000000000000040000000000000010000000000000000000000000000000000000000000000000000000000000400",
      "transactionHash": "0xce3987b9aca3a0099007f1f1ed98a552b675d48b553c2f4b487988ab81df08c8",
      "transactionIndex": "0x91",
      "blockHash": "0xa5048f5e374f697557e92585e0283ce6da79d7ea760f4afe05011f3c46e6ecbc",
      "blockNumber": "0xa934ee",
      "gasUsed": "0xba5e",
      "effectiveGasPrice": "0x40cd1e9f",
      "from": "0xf93e7518f79c2e1978d6862dbf161270040e623e",
      "to": "0x000000000022d473030f116ddee9f6b43ac78ba3",
      "contractAddress": null
    },
    {
      "type": "0x2",
      "status": "0x1",
      "cumulativeGasUsed": "0xf2b05a",
      "logs": [
        {
          "address": "0x882d0ea767b2753c6e9e3c00d9c8d8471f4dcb92",
          "topics": [
            "0x8c5be1e5ebec7d5bd14f71427d1e84f3dd0314c0f7b2291e5b200ac8c7c3b925",
            "0x000000000000000000000000f93e7518f79c2e1978d6862dbf161270040e623e",
            "0x00000000000000000000000000000000000044a361ae3cac094c9d1b14eece97"
          ],
          "data": "0xffffffffffffffffffffffffffffffffffffffffffffffffffffffffffffffff",
          "blockHash": "0xa2cf07299d58fca9ec296d752350f2e9dbb4ed4360ec2644511e0e6bb21ff3c6",
          "blockNumber": "0xa934ef",
          "blockTimestamp": "0x6a344564",
          "transactionHash": "0x3e5ec35cae00e120f96948c02e5624c12db78b96f560412b1cd8bdd2f5419082",
          "transactionIndex": "0xb4",
          "logIndex": "0x182",
          "removed": false
        }
      ],
      "logsBloom": "0x000000000000000000002000000000000000000000000000000000008000000000000000000040000000000000000000000000000000002000000000402000000000000000000000000000000000000000000000000000000000000000000000000000000000000000000000000000000000000000000000000000000000c0000000000000000000000000000000000000000000000000000000000000100000020000000000000000000000000000000000000000000000000000000000000000000000000000000000000000000000000000000000000000000000000000010010000000000000000000000000000000000000000000000000000000000000",
      "transactionHash": "0x3e5ec35cae00e120f96948c02e5624c12db78b96f560412b1cd8bdd2f5419082",
      "transactionIndex": "0xb4",
      "blockHash": "0xa2cf07299d58fca9ec296d752350f2e9dbb4ed4360ec2644511e0e6bb21ff3c6",
      "blockNumber": "0xa934ef",
      "gasUsed": "0xb499",
      "effectiveGasPrice": "0x3d6dfd9d",
      "from": "0xf93e7518f79c2e1978d6862dbf161270040e623e",
      "to": "0x882d0ea767b2753c6e9e3c00d9c8d8471f4dcb92",
      "contractAddress": null
    },
    {
      "type": "0x2",
      "status": "0x1",
      "cumulativeGasUsed": "0xb340e1",
      "logs": [
        {
          "address": "0x882d0ea767b2753c6e9e3c00d9c8d8471f4dcb92",
          "topics": [
            "0x8c5be1e5ebec7d5bd14f71427d1e84f3dd0314c0f7b2291e5b200ac8c7c3b925",
            "0x000000000000000000000000f93e7518f79c2e1978d6862dbf161270040e623e",
            "0x0000000000000000000000004cbefef124053240a236d6378e3713a0e1490e7c"
          ],
          "data": "0xffffffffffffffffffffffffffffffffffffffffffffffffffffffffffffffff",
          "blockHash": "0x5a3b28ec97c111dbb1df3cc9add9780cbb954d7f73d8facb5a5d8d3d8c40094a",
          "blockNumber": "0xa934f1",
          "blockTimestamp": "0x6a34457c",
          "transactionHash": "0x772c3d962aff53cae055a2c27a31435a437a91a0e2e17c9efa26d83068592dd9",
          "transactionIndex": "0xca",
          "logIndex": "0x11c",
          "removed": false
        }
      ],
      "logsBloom": "0x00000000000000000000200000000000000000000000000000000000800000000000000000004000000000000000000000000000000000200000000000200000002004000000000000000000000000000000000000000000000000000000000000000000000000000000000000000000000000000000000000000000000080000000000000000000000000000000000000000000000000000000000000100000020000000000000000000000000000000000000000000000000000000000000000000000000000000000000000000000000000000000000000000000000008000010000000000000000000000000000000000000000000000000000000000000",
      "transactionHash": "0x772c3d962aff53cae055a2c27a31435a437a91a0e2e17c9efa26d83068592dd9",
      "transactionIndex": "0xca",
      "blockHash": "0x5a3b28ec97c111dbb1df3cc9add9780cbb954d7f73d8facb5a5d8d3d8c40094a",
      "blockNumber": "0xa934f1",
      "gasUsed": "0xb4e1",
      "effectiveGasPrice": "0x42838d41",
      "from": "0xf93e7518f79c2e1978d6862dbf161270040e623e",
      "to": "0x882d0ea767b2753c6e9e3c00d9c8d8471f4dcb92",
      "contractAddress": null
    },
    {
      "type": "0x2",
      "status": "0x1",
      "cumulativeGasUsed": "0xcae011",
      "logs": [
        {
          "address": "0x429ba70129df741b2ca2a85bc3a2a3328e5c09b4",
          "topics": [
            "0xddf252ad1be2c89b69c2b068fc378daa952ba7f163c4a11628f55a4df523b3ef",
            "0x0000000000000000000000000000000000000000000000000000000000000000",
            "0x000000000000000000000000f93e7518f79c2e1978d6862dbf161270040e623e",
            "0x0000000000000000000000000000000000000000000000000000000000008cf1"
          ],
          "data": "0x",
          "blockHash": "0xe4043037e6d5526ecb1d2fc1096c269ec7a234a679fbc745f51e693db93f9a78",
          "blockNumber": "0xa934f2",
          "blockTimestamp": "0x6a344588",
          "transactionHash": "0x8e5fce12e35796c1d45733753f5500264319ce8ddcaee03ece8dcfadc8b95349",
          "transactionIndex": "0xc8",
          "logIndex": "0x116",
          "removed": false
        },
        {
          "address": "0xe03a1074c86cfedd5c142c4f04f1a1536e203543",
          "topics": [
            "0xf208f4912782fd25c7f114ca3723a2d5dd6f3bcc3ac8db5af63baa85f711d5ec",
            "0x4589a9c508c98a154f00cfc2f9b4a6384dd86384d2f9706d2d810a33740379bb",
            "0x000000000000000000000000429ba70129df741b2ca2a85bc3a2a3328e5c09b4"
          ],
          "data": "0xfffffffffffffffffffffffffffffffffffffffffffffffffffffffffff2764c00000000000000000000000000000000000000000000000000000000000d89b400000000000000000000000000000000000000000000000006f05b59d3b200000000000000000000000000000000000000000000000000000000000000008cf1",
          "blockHash": "0xe4043037e6d5526ecb1d2fc1096c269ec7a234a679fbc745f51e693db93f9a78",
          "blockNumber": "0xa934f2",
          "blockTimestamp": "0x6a344588",
          "transactionHash": "0x8e5fce12e35796c1d45733753f5500264319ce8ddcaee03ece8dcfadc8b95349",
          "transactionIndex": "0xc8",
          "logIndex": "0x117",
          "removed": false
        },
        {
          "address": "0x882d0ea767b2753c6e9e3c00d9c8d8471f4dcb92",
          "topics": [
            "0xddf252ad1be2c89b69c2b068fc378daa952ba7f163c4a11628f55a4df523b3ef",
            "0x000000000000000000000000f93e7518f79c2e1978d6862dbf161270040e623e",
            "0x000000000000000000000000e03a1074c86cfedd5c142c4f04f1a1536e203543"
          ],
          "data": "0x00000000000000000000000000000000000000000000000892455adf767bec48",
          "blockHash": "0xe4043037e6d5526ecb1d2fc1096c269ec7a234a679fbc745f51e693db93f9a78",
          "blockNumber": "0xa934f2",
          "blockTimestamp": "0x6a344588",
          "transactionHash": "0x8e5fce12e35796c1d45733753f5500264319ce8ddcaee03ece8dcfadc8b95349",
          "transactionIndex": "0xc8",
          "logIndex": "0x118",
          "removed": false
        }
      ],
      "logsBloom": "0x00000000000000000000201000000000000000000000000000000000880000000000000000004040080000000000000000000100000000200000000000000000000000000000000000000008000000000000000000000004000000000000000000000000020000000000000080000800000000000000100000000810000080000000000001000000000012000000000000000000000000000000000000100000000004000000000000000000002000000000000000400000000000000000000000000002000100000000000000000000000200000000000000001000000020001000020000000000000000000000000004000000000000000000000000000000",
      "transactionHash": "0x8e5fce12e35796c1d45733753f5500264319ce8ddcaee03ece8dcfadc8b95349",
      "transactionIndex": "0xc8",
      "blockHash": "0xe4043037e6d5526ecb1d2fc1096c269ec7a234a679fbc745f51e693db93f9a78",
      "blockNumber": "0xa934f2",
      "gasUsed": "0x3af56",
      "effectiveGasPrice": "0x3f774992",
      "from": "0xf93e7518f79c2e1978d6862dbf161270040e623e",
      "to": "0x429ba70129df741b2ca2a85bc3a2a3328e5c09b4",
      "contractAddress": null
    },
    {
      "type": "0x2",
      "status": "0x1",
      "cumulativeGasUsed": "0xfd60e8",
      "logs": [
        {
          "address": "0x1f36effa0d3dd5d6b471d049cda048ad923d7ff8",
          "topics": [
            "0xeb18042c63a6494302e2e34ca89562fb59d5b25ded99d617905bdd7c4f891f03",
            "0x0000000000000000000000000000000000000000000000000000000000000001",
            "0x0000000000000000000000000000000000000000000000000000000000000001"
          ],
          "data": "0x000000000000000000000000000000000000000000000000000000171ebdc100",
          "blockHash": "0x172b8a8d8cb6a63056aaa09ea672ee75375290f64b9e10889a41dbb0472d2baf",
          "blockNumber": "0xa934f3",
          "blockTimestamp": "0x6a344594",
          "transactionHash": "0x8906c788d558a99420c5a8011545d4c465a59057e8fc74c167bf0881b04b896a",
          "transactionIndex": "0xdf",
          "logIndex": "0x148",
          "removed": false
        },
        {
          "address": "0xe03a1074c86cfedd5c142c4f04f1a1536e203543",
          "topics": [
            "0x40e9cecb9f5f1f1c5b9c97dec2917b7ee92e57ba5563708daca94dd84ad7112f",
            "0x4589a9c508c98a154f00cfc2f9b4a6384dd86384d2f9706d2d810a33740379bb",
            "0x00000000000000000000000000000000000044a361ae3cac094c9d1b14eece97"
          ],
          "data": "0xffffffffffffffffffffffffffffffffffffffffffffffffffffff2e4a18b100000000000000000000000000000000000000000000000000013f07b61338d973000000000000000000000000000000000000013c3997ab1293eee53dea9ffcbd000000000000000000000000000000000000000000000001bdcb07201e9795a7000000000000000000000000000000000000000000000000000000000001c1be0000000000000000000000000000000000000000000000000000000000000bb8",
          "blockHash": "0x172b8a8d8cb6a63056aaa09ea672ee75375290f64b9e10889a41dbb0472d2baf",
          "blockNumber": "0xa934f3",
          "blockTimestamp": "0x6a344594",
          "transactionHash": "0x8906c788d558a99420c5a8011545d4c465a59057e8fc74c167bf0881b04b896a",
          "transactionIndex": "0xdf",
          "logIndex": "0x149",
          "removed": false
        },
        {
          "address": "0xe03a1074c86cfedd5c142c4f04f1a1536e203543",
          "topics": [
            "0x1b3d7edb2e9c0b0e7c525b20aaaef0f5940d2ed71663c7d39266ecafac728859",
            "0x0000000000000000000000000000000000000000000000000000000000000000",
            "0x0000000000000000000000001f36effa0d3dd5d6b471d049cda048ad923d7ff8",
            "0x0000000000000000000000000000000000000000000000000000000000000000"
          ],
          "data": "0x0000000000000000000000001f36effa0d3dd5d6b471d049cda048ad923d7ff8000000000000000000000000000000000000000000000000000000171ebdc100",
          "blockHash": "0x172b8a8d8cb6a63056aaa09ea672ee75375290f64b9e10889a41dbb0472d2baf",
          "blockNumber": "0xa934f3",
          "blockTimestamp": "0x6a344594",
          "transactionHash": "0x8906c788d558a99420c5a8011545d4c465a59057e8fc74c167bf0881b04b896a",
          "transactionIndex": "0xdf",
          "logIndex": "0x14a",
          "removed": false
        },
        {
          "address": "0x882d0ea767b2753c6e9e3c00d9c8d8471f4dcb92",
          "topics": [
            "0xddf252ad1be2c89b69c2b068fc378daa952ba7f163c4a11628f55a4df523b3ef",
            "0x000000000000000000000000e03a1074c86cfedd5c142c4f04f1a1536e203543",
            "0x000000000000000000000000f93e7518f79c2e1978d6862dbf161270040e623e"
          ],
          "data": "0x000000000000000000000000000000000000000000000000013f07b61338d973",
          "blockHash": "0x172b8a8d8cb6a63056aaa09ea672ee75375290f64b9e10889a41dbb0472d2baf",
          "blockNumber": "0xa934f3",
          "blockTimestamp": "0x6a344594",
          "transactionHash": "0x8906c788d558a99420c5a8011545d4c465a59057e8fc74c167bf0881b04b896a",
          "transactionIndex": "0xdf",
          "logIndex": "0x14b",
          "removed": false
        }
      ],
      "logsBloom": "0x000000000000000000002000000000000000000000000010000000008000000000000000000040000040000000000000000001000400002000000000400400000000000000000000002000080000040000000000000400200000000000000000040000000200008000000000800008000000000000001000000000100000c0000000000000000000000012000000000000000000000000000000000000180000000000000000000000000000000020010000000000000000000000000000000000000002000100000000000000000000000200000000000000001000000068011000000000000000004000000000000000000000000000000000000004001000",
      "transactionHash": "0x8906c788d558a99420c5a8011545d4c465a59057e8fc74c167bf0881b04b896a",
      "transactionIndex": "0xdf",
      "blockHash": "0x172b8a8d8cb6a63056aaa09ea672ee75375290f64b9e10889a41dbb0472d2baf",
      "blockNumber": "0xa934f3",
      "gasUsed": "0x325ed",
      "effectiveGasPrice": "0x3be0f6dc",
      "from": "0xf93e7518f79c2e1978d6862dbf161270040e623e",
      "to": "0x00000000000044a361ae3cac094c9d1b14eece97",
      "contractAddress": null
    },
    {
      "type": "0x2",
      "status": "0x1",
      "cumulativeGasUsed": "0x3805ca9",
      "logs": [
        {
          "address": "0xe03a1074c86cfedd5c142c4f04f1a1536e203543",
          "topics": [
            "0x1b3d7edb2e9c0b0e7c525b20aaaef0f5940d2ed71663c7d39266ecafac728859",
            "0x0000000000000000000000001f36effa0d3dd5d6b471d049cda048ad923d7ff8",
            "0x0000000000000000000000000000000000000000000000000000000000000000",
            "0x0000000000000000000000000000000000000000000000000000000000000000"
          ],
          "data": "0x0000000000000000000000001f36effa0d3dd5d6b471d049cda048ad923d7ff8000000000000000000000000000000000000000000000000000000171ebdc100",
          "blockHash": "0x56b1e45e6b15b9c0620422c66ef9ca274a17a1a560bee9dcc02229e751bb31d2",
          "blockNumber": "0xa934f4",
          "blockTimestamp": "0x6a3445a0",
          "transactionHash": "0xb8e4a77076f9f7c0e34d023abb8803599144105859a7ea09cc0c7341cbd74f91",
          "transactionIndex": "0xcf",
          "logIndex": "0x12b",
          "removed": false
        },
        {
          "address": "0x4cbefef124053240a236d6378e3713a0e1490e7c",
          "topics": [
            "0x6c07ee05dcf262f13abf9d87b846ee789d2f90fe991d495acd7d7fc109ee1f55"
          ],
          "data": "0x000000000000000000000000000000000000000000000000000000127efe34000000000000000000000000000000000000000000000000000000000000093a80",
          "blockHash": "0x56b1e45e6b15b9c0620422c66ef9ca274a17a1a560bee9dcc02229e751bb31d2",
          "blockNumber": "0xa934f4",
          "blockTimestamp": "0x6a3445a0",
          "transactionHash": "0xb8e4a77076f9f7c0e34d023abb8803599144105859a7ea09cc0c7341cbd74f91",
          "transactionIndex": "0xcf",
          "logIndex": "0x12c",
          "removed": false
        },
        {
          "address": "0x1f36effa0d3dd5d6b471d049cda048ad923d7ff8",
          "topics": [
            "0xda378dba4f1dc8c7a566c70096e0389c466cb99cc2ec74173afd50c7b652ca09"
          ],
          "data": "0x000000000000000000000000000000000000000000000000000000127efe3400000000000000000000000000000000000000000000000000000000049fbf8d00",
          "blockHash": "0x56b1e45e6b15b9c0620422c66ef9ca274a17a1a560bee9dcc02229e751bb31d2",
          "blockNumber": "0xa934f4",
          "blockTimestamp": "0x6a3445a0",
          "transactionHash": "0xb8e4a77076f9f7c0e34d023abb8803599144105859a7ea09cc0c7341cbd74f91",
          "transactionIndex": "0xcf",
          "logIndex": "0x12d",
          "removed": false
        }
      ],
      "logsBloom": "0x00000000000000000000000000000000000000000000000000000000000000000000000000000000004000000000000000000100000000000000000000000000000000000000000000200000000004000000200000000000000000000000000005000000020000800000000000000800000800000000100000000000000000000000000000000000000000000000000000000000000000000000000000000000000000000000000000000000000020010000000000000000000000000008000000000000000040000001000000000000000000000000000000000100000028001000000000000000000000000000000000000200000000000000000004000010",
      "transactionHash": "0xb8e4a77076f9f7c0e34d023abb8803599144105859a7ea09cc0c7341cbd74f91",
      "transactionIndex": "0xcf",
      "blockHash": "0x56b1e45e6b15b9c0620422c66ef9ca274a17a1a560bee9dcc02229e751bb31d2",
      "blockNumber": "0xa934f4",
      "gasUsed": "0x2cbfa",
      "effectiveGasPrice": "0x3a4cc46a",
      "from": "0xf93e7518f79c2e1978d6862dbf161270040e623e",
      "to": "0x1f36effa0d3dd5d6b471d049cda048ad923d7ff8",
      "contractAddress": null
    },
    {
      "type": "0x2",
      "status": "0x1",
      "cumulativeGasUsed": "0xbe4bda",
      "logs": [
        {
          "address": "0x1f36effa0d3dd5d6b471d049cda048ad923d7ff8",
          "topics": [
            "0xeb18042c63a6494302e2e34ca89562fb59d5b25ded99d617905bdd7c4f891f03",
            "0x0000000000000000000000000000000000000000000000000000000000000000",
            "0x0000000000000000000000000000000000000000000000000000000000000000"
          ],
          "data": "0x0000000000000000000000000000000000000000000000000000ce8bd6d41800",
          "blockHash": "0x92bad442f84725adac0bb771dd6bc51e73289647cf898c093da3d04be787dd1b",
          "blockNumber": "0xa934f5",
          "blockTimestamp": "0x6a3445ac",
          "transactionHash": "0x1c98ce8e67093cfb4666d46b27ef67ff3741949f10ee8bb3ffbcd56bfd6a6a6b",
          "transactionIndex": "0xca",
          "logIndex": "0x14c",
          "removed": false
        },
        {
          "address": "0xe03a1074c86cfedd5c142c4f04f1a1536e203543",
          "topics": [
            "0x40e9cecb9f5f1f1c5b9c97dec2917b7ee92e57ba5563708daca94dd84ad7112f",
            "0x4589a9c508c98a154f00cfc2f9b4a6384dd86384d2f9706d2d810a33740379bb",
            "0x00000000000000000000000000000000000044a361ae3cac094c9d1b14eece97"
          ],
          "data": "0x00000000000000000000000000000000000000000000000000000001cb4f71f1fffffffffffffffffffffffffffffffffffffffffffffffffffd410d320d9800000000000000000000000000000000000000013c39993d88f20b9248e0c5b5dd000000000000000000000000000000000000000000000001bdcb07201e9795a7000000000000000000000000000000000000000000000000000000000001c1be0000000000000000000000000000000000000000000000000000000000000bb8",
          "blockHash": "0x92bad442f84725adac0bb771dd6bc51e73289647cf898c093da3d04be787dd1b",
          "blockNumber": "0xa934f5",
          "blockTimestamp": "0x6a3445ac",
          "transactionHash": "0x1c98ce8e67093cfb4666d46b27ef67ff3741949f10ee8bb3ffbcd56bfd6a6a6b",
          "transactionIndex": "0xca",
          "logIndex": "0x14d",
          "removed": false
        },
        {
          "address": "0xe03a1074c86cfedd5c142c4f04f1a1536e203543",
          "topics": [
            "0x1b3d7edb2e9c0b0e7c525b20aaaef0f5940d2ed71663c7d39266ecafac728859",
            "0x0000000000000000000000000000000000000000000000000000000000000000",
            "0x0000000000000000000000001f36effa0d3dd5d6b471d049cda048ad923d7ff8",
            "0x000000000000000000000000882d0ea767b2753c6e9e3c00d9c8d8471f4dcb92"
          ],
          "data": "0x0000000000000000000000001f36effa0d3dd5d6b471d049cda048ad923d7ff80000000000000000000000000000000000000000000000000000ce8bd6d41800",
          "blockHash": "0x92bad442f84725adac0bb771dd6bc51e73289647cf898c093da3d04be787dd1b",
          "blockNumber": "0xa934f5",
          "blockTimestamp": "0x6a3445ac",
          "transactionHash": "0x1c98ce8e67093cfb4666d46b27ef67ff3741949f10ee8bb3ffbcd56bfd6a6a6b",
          "transactionIndex": "0xca",
          "logIndex": "0x14e",
          "removed": false
        },
        {
          "address": "0x882d0ea767b2753c6e9e3c00d9c8d8471f4dcb92",
          "topics": [
            "0xddf252ad1be2c89b69c2b068fc378daa952ba7f163c4a11628f55a4df523b3ef",
            "0x000000000000000000000000f93e7518f79c2e1978d6862dbf161270040e623e",
            "0x000000000000000000000000e03a1074c86cfedd5c142c4f04f1a1536e203543"
          ],
          "data": "0x00000000000000000000000000000000000000000000000000038d7ea4c68000",
          "blockHash": "0x92bad442f84725adac0bb771dd6bc51e73289647cf898c093da3d04be787dd1b",
          "blockNumber": "0xa934f5",
          "blockTimestamp": "0x6a3445ac",
          "transactionHash": "0x1c98ce8e67093cfb4666d46b27ef67ff3741949f10ee8bb3ffbcd56bfd6a6a6b",
          "transactionIndex": "0xca",
          "logIndex": "0x14f",
          "removed": false
        }
      ],
      "logsBloom": "0x00000000000000000000200000000000000000000000001000000000c000000000000000000040000040000000000000000001000400002080000000400000000000000000000000002000080000040000000000000000200000000000000000040000000200008000000000800008000000000000001000000000100000c0000000000000040000000012000000000000000000000000000000000000180000000000000000000000000000000020010000000000000000000000000000000000000002000100000000000000000000000200000000000000001000000028011000000000000000004000000000000000000000000000000000000004001000",
      "transactionHash": "0x1c98ce8e67093cfb4666d46b27ef67ff3741949f10ee8bb3ffbcd56bfd6a6a6b",
      "transactionIndex": "0xca",
      "blockHash": "0x92bad442f84725adac0bb771dd6bc51e73289647cf898c093da3d04be787dd1b",
      "blockNumber": "0xa934f5",
      "gasUsed": "0x2fcc7",
      "effectiveGasPrice": "0x41939bc7",
      "from": "0xf93e7518f79c2e1978d6862dbf161270040e623e",
      "to": "0x00000000000044a361ae3cac094c9d1b14eece97",
      "contractAddress": null
    },
    {
      "type": "0x2",
      "status": "0x1",
      "cumulativeGasUsed": "0xec4c98",
      "logs": [
        {
          "address": "0xe03a1074c86cfedd5c142c4f04f1a1536e203543",
          "topics": [
            "0x40e9cecb9f5f1f1c5b9c97dec2917b7ee92e57ba5563708daca94dd84ad7112f",
            "0x4589a9c508c98a154f00cfc2f9b4a6384dd86384d2f9706d2d810a33740379bb",
            "0x0000000000000000000000001f36effa0d3dd5d6b471d049cda048ad923d7ff8"
          ],
          "data": "0x0000000000000000000000000000000000000000000000000000000086f55b4dffffffffffffffffffffffffffffffffffffffffffffffffffff3174292be800000000000000000000000000000000000000013c3999b3ca32901280a9d7b78f000000000000000000000000000000000000000000000001bdcb07201e9795a7000000000000000000000000000000000000000000000000000000000001c1be0000000000000000000000000000000000000000000000000000000000000bb8",
          "blockHash": "0xd96c458b063b41c8d46a57785df9310920ab488f9a9da7995b0ea2534dd80e45",
          "blockNumber": "0xa934f6",
          "blockTimestamp": "0x6a3445b8",
          "transactionHash": "0x823fc3c7fcda68f9f8cc664648e6c9e25597d625fd18ae6a4a9d39d4a0ca9886",
          "transactionIndex": "0xdd",
          "logIndex": "0x169",
          "removed": false
        },
        {
          "address": "0xe03a1074c86cfedd5c142c4f04f1a1536e203543",
          "topics": [
            "0x1b3d7edb2e9c0b0e7c525b20aaaef0f5940d2ed71663c7d39266ecafac728859",
            "0x0000000000000000000000001f36effa0d3dd5d6b471d049cda048ad923d7ff8",
            "0x0000000000000000000000000000000000000000000000000000000000000000",
            "0x000000000000000000000000882d0ea767b2753c6e9e3c00d9c8d8471f4dcb92"
          ],
          "data": "0x0000000000000000000000001f36effa0d3dd5d6b471d049cda048ad923d7ff80000000000000000000000000000000000000000000000000000ce8bd6d41800",
          "blockHash": "0xd96c458b063b41c8d46a57785df9310920ab488f9a9da7995b0ea2534dd80e45",
          "blockNumber": "0xa934f6",
          "blockTimestamp": "0x6a3445b8",
          "transactionHash": "0x823fc3c7fcda68f9f8cc664648e6c9e25597d625fd18ae6a4a9d39d4a0ca9886",
          "transactionIndex": "0xdd",
          "logIndex": "0x16a",
          "removed": false
        },
        {
          "address": "0x4cbefef124053240a236d6378e3713a0e1490e7c",
          "topics": [
            "0x6c07ee05dcf262f13abf9d87b846ee789d2f90fe991d495acd7d7fc109ee1f55"
          ],
          "data": "0x000000000000000000000000000000000000000000000000000000006bf77c3d0000000000000000000000000000000000000000000000000000000000093a80",
          "blockHash": "0xd96c458b063b41c8d46a57785df9310920ab488f9a9da7995b0ea2534dd80e45",
          "blockNumber": "0xa934f6",
          "blockTimestamp": "0x6a3445b8",
          "transactionHash": "0x823fc3c7fcda68f9f8cc664648e6c9e25597d625fd18ae6a4a9d39d4a0ca9886",
          "transactionIndex": "0xdd",
          "logIndex": "0x16b",
          "removed": false
        },
        {
          "address": "0x1f36effa0d3dd5d6b471d049cda048ad923d7ff8",
          "topics": [
            "0xda378dba4f1dc8c7a566c70096e0389c466cb99cc2ec74173afd50c7b652ca09"
          ],
          "data": "0x000000000000000000000000000000000000000000000000000000006bf77c3d000000000000000000000000000000000000000000000000000000001afddf10",
          "blockHash": "0xd96c458b063b41c8d46a57785df9310920ab488f9a9da7995b0ea2534dd80e45",
          "blockNumber": "0xa934f6",
          "blockTimestamp": "0x6a3445b8",
          "transactionHash": "0x823fc3c7fcda68f9f8cc664648e6c9e25597d625fd18ae6a4a9d39d4a0ca9886",
          "transactionIndex": "0xdd",
          "logIndex": "0x16c",
          "removed": false
        }
      ],
      "logsBloom": "0x00000000000000000000000000000000000000000000000000000000400000000000000000000000004000000000000000000100040000008000000000000000000000000000000000200000000004000000200000000020000000000000000005000000020000800000000000000800000800000000100000000000000000000000000000040000000002000000000000000000000000000000000000000000000000000000000000000000000020010000000000000000000000000008000000000000000140000001000000000000000200000000000000000100000028001000000000000000004000000000000000000200000000000000000004000010",
      "transactionHash": "0x823fc3c7fcda68f9f8cc664648e6c9e25597d625fd18ae6a4a9d39d4a0ca9886",
      "transactionIndex": "0xdd",
      "blockHash": "0xd96c458b063b41c8d46a57785df9310920ab488f9a9da7995b0ea2534dd80e45",
      "blockNumber": "0xa934f6",
      "gasUsed": "0x2535e",
      "effectiveGasPrice": "0x3e880ef1",
      "from": "0xf93e7518f79c2e1978d6862dbf161270040e623e",
      "to": "0x1f36effa0d3dd5d6b471d049cda048ad923d7ff8",
      "contractAddress": null
    },
    {
      "type": "0x2",
      "status": "0x1",
      "cumulativeGasUsed": "0x38ac8e4",
      "logs": [
        {
          "address": "0x882d0ea767b2753c6e9e3c00d9c8d8471f4dcb92",
          "topics": [
            "0x9e71bc8eea02a63969f509818f2dafb9254532904319f9dbda79b67bd34a5f3d",
            "0x000000000000000000000000f93e7518f79c2e1978d6862dbf161270040e623e"
          ],
          "data": "0x0000000000000000000000000000000000000000000000056bc75e2d63100000",
          "blockHash": "0x840c05c61145a6988de573a69a684388dee8c5ed4e899a769cf5a0a2a79446f8",
          "blockNumber": "0xa934f7",
          "blockTimestamp": "0x6a3445c4",
          "transactionHash": "0x37d1ba55354910c2a2ccad39a75d03b4aee4ce045c04d286e49a7feea867b1a2",
          "transactionIndex": "0xcd",
          "logIndex": "0xfd",
          "removed": false
        },
        {
          "address": "0x4cbefef124053240a236d6378e3713a0e1490e7c",
          "topics": [
            "0x1449c6dd7851abc30abf37f57715f492010519147cc2652fbc38202c18a6ee90",
            "0x000000000000000000000000f93e7518f79c2e1978d6862dbf161270040e623e"
          ],
          "data": "0x0000000000000000000000000000000000000000000000056bc75e2d631000000000000000000000000000000000000000000000000000056bc75e2d63100000",
          "blockHash": "0x840c05c61145a6988de573a69a684388dee8c5ed4e899a769cf5a0a2a79446f8",
          "blockNumber": "0xa934f7",
          "blockTimestamp": "0x6a3445c4",
          "transactionHash": "0x37d1ba55354910c2a2ccad39a75d03b4aee4ce045c04d286e49a7feea867b1a2",
          "transactionIndex": "0xcd",
          "logIndex": "0xfe",
          "removed": false
        }
      ],
      "logsBloom": "0x00000000000000000000200000000000000000000800000000100000800200000000000000004000000000000000000000000000000000200000000000000000000000000000000000000000000000000000000000000000000000000000000040000000000000000008000000000000000000000000000000000000000080000000100000000000000000000000000000000000000000000000000000100000000000000000000000000000000000000000000000000000000000000000000000000000000040000000000000000000000000000000000000000000000000000000000000000000000000000000000000000200000000000000000000000010",
      "transactionHash": "0x37d1ba55354910c2a2ccad39a75d03b4aee4ce045c04d286e49a7feea867b1a2",
      "transactionIndex": "0xcd",
      "blockHash": "0x840c05c61145a6988de573a69a684388dee8c5ed4e899a769cf5a0a2a79446f8",
      "blockNumber": "0xa934f7",
      "gasUsed": "0x2d76e",
      "effectiveGasPrice": "0x3b591a0e",
      "from": "0xf93e7518f79c2e1978d6862dbf161270040e623e",
      "to": "0x4cbefef124053240a236d6378e3713a0e1490e7c",
      "contractAddress": null
    },
    {
      "type": "0x2",
      "status": "0x1",
      "cumulativeGasUsed": "0xada053",
      "logs": [
        {
          "address": "0x1f36effa0d3dd5d6b471d049cda048ad923d7ff8",
          "topics": [
            "0xeb18042c63a6494302e2e34ca89562fb59d5b25ded99d617905bdd7c4f891f03",
            "0x0000000000000000000000000000000000000000000000000000000000000001",
            "0x0000000000000000000000000000000000000000000000000000000000000001"
          ],
          "data": "0x0000000000000000000000000000000000000000000000000000001718c7e000",
          "blockHash": "0xf9e91766985bdb938a251f2c8c7985ddf8cf3abea6864f2250ac67f6b0e6ced6",
          "blockNumber": "0xa934f8",
          "blockTimestamp": "0x6a3445d0",
          "transactionHash": "0x4aee40ae5bb61888853efbc0e084d125bad3897b10e91700747657475b893a27",
          "transactionIndex": "0xc4",
          "logIndex": "0x119",
          "removed": false
        },
        {
          "address": "0xe03a1074c86cfedd5c142c4f04f1a1536e203543",
          "topics": [
            "0x40e9cecb9f5f1f1c5b9c97dec2917b7ee92e57ba5563708daca94dd84ad7112f",
            "0x4589a9c508c98a154f00cfc2f9b4a6384dd86384d2f9706d2d810a33740379bb",
            "0x00000000000000000000000000000000000044a361ae3cac094c9d1b14eece97"
          ],
          "data": "0xffffffffffffffffffffffffffffffffffffffffffffffffffffff2e4422d000000000000000000000000000000000000000000000000000013f0f59c3b0f374000000000000000000000000000000000000013c38e27ad03f40972eb8a84414000000000000000000000000000000000000000000000001bdcb07201e9795a7000000000000000000000000000000000000000000000000000000000001c1be0000000000000000000000000000000000000000000000000000000000000bb8",
          "blockHash": "0xf9e91766985bdb938a251f2c8c7985ddf8cf3abea6864f2250ac67f6b0e6ced6",
          "blockNumber": "0xa934f8",
          "blockTimestamp": "0x6a3445d0",
          "transactionHash": "0x4aee40ae5bb61888853efbc0e084d125bad3897b10e91700747657475b893a27",
          "transactionIndex": "0xc4",
          "logIndex": "0x11a",
          "removed": false
        },
        {
          "address": "0xe03a1074c86cfedd5c142c4f04f1a1536e203543",
          "topics": [
            "0x1b3d7edb2e9c0b0e7c525b20aaaef0f5940d2ed71663c7d39266ecafac728859",
            "0x0000000000000000000000000000000000000000000000000000000000000000",
            "0x0000000000000000000000001f36effa0d3dd5d6b471d049cda048ad923d7ff8",
            "0x0000000000000000000000000000000000000000000000000000000000000000"
          ],
          "data": "0x0000000000000000000000001f36effa0d3dd5d6b471d049cda048ad923d7ff80000000000000000000000000000000000000000000000000000001718c7e000",
          "blockHash": "0xf9e91766985bdb938a251f2c8c7985ddf8cf3abea6864f2250ac67f6b0e6ced6",
          "blockNumber": "0xa934f8",
          "blockTimestamp": "0x6a3445d0",
          "transactionHash": "0x4aee40ae5bb61888853efbc0e084d125bad3897b10e91700747657475b893a27",
          "transactionIndex": "0xc4",
          "logIndex": "0x11b",
          "removed": false
        },
        {
          "address": "0x882d0ea767b2753c6e9e3c00d9c8d8471f4dcb92",
          "topics": [
            "0xddf252ad1be2c89b69c2b068fc378daa952ba7f163c4a11628f55a4df523b3ef",
            "0x000000000000000000000000e03a1074c86cfedd5c142c4f04f1a1536e203543",
            "0x000000000000000000000000f93e7518f79c2e1978d6862dbf161270040e623e"
          ],
          "data": "0x000000000000000000000000000000000000000000000000013f0f59c3b0f374",
          "blockHash": "0xf9e91766985bdb938a251f2c8c7985ddf8cf3abea6864f2250ac67f6b0e6ced6",
          "blockNumber": "0xa934f8",
          "blockTimestamp": "0x6a3445d0",
          "transactionHash": "0x4aee40ae5bb61888853efbc0e084d125bad3897b10e91700747657475b893a27",
          "transactionIndex": "0xc4",
          "logIndex": "0x11c",
          "removed": false
        }
      ],
      "logsBloom": "0x000000000000000000002000000000000000000000000010000000008000000000000000000040000040000000000000000001000400002000000000400400000000000000000000002000080000040000000000000400200000000000000000040000000200008000000000800008000000000000001000000000100000c0000000000000000000000012000000000000000000000000000000000000180000000000000000000000000000000020010000000000000000000000000000000000000002000100000000000000000000000200000000000000001000000068011000000000000000004000000000000000000000000000000000000004001000",
      "transactionHash": "0x4aee40ae5bb61888853efbc0e084d125bad3897b10e91700747657475b893a27",
      "transactionIndex": "0xc4",
      "blockHash": "0xf9e91766985bdb938a251f2c8c7985ddf8cf3abea6864f2250ac67f6b0e6ced6",
      "blockNumber": "0xa934f8",
      "gasUsed": "0x2e321",
      "effectiveGasPrice": "0x42c16d27",
      "from": "0xf93e7518f79c2e1978d6862dbf161270040e623e",
      "to": "0x00000000000044a361ae3cac094c9d1b14eece97",
      "contractAddress": null
    },
    {
      "type": "0x2",
      "status": "0x1",
      "cumulativeGasUsed": "0xda37e4",
      "logs": [
        {
          "address": "0xe03a1074c86cfedd5c142c4f04f1a1536e203543",
          "topics": [
            "0x1b3d7edb2e9c0b0e7c525b20aaaef0f5940d2ed71663c7d39266ecafac728859",
            "0x0000000000000000000000001f36effa0d3dd5d6b471d049cda048ad923d7ff8",
            "0x0000000000000000000000000000000000000000000000000000000000000000",
            "0x0000000000000000000000000000000000000000000000000000000000000000"
          ],
          "data": "0x0000000000000000000000001f36effa0d3dd5d6b471d049cda048ad923d7ff80000000000000000000000000000000000000000000000000000001718c7e000",
          "blockHash": "0xdccdbec44a60c4ad5a0d28cc5b2fd6c54514aae305c1318c8bc5a16764402f1d",
          "blockNumber": "0xa934f9",
          "blockTimestamp": "0x6a3445dc",
          "transactionHash": "0xc83da1219a3587cbcba40b875b073a834bc2a308cf313a56a6db7ed0a0d2150b",
          "transactionIndex": "0xed",
          "logIndex": "0x175",
          "removed": false
        },
        {
          "address": "0x4cbefef124053240a236d6378e3713a0e1490e7c",
          "topics": [
            "0x6c07ee05dcf262f13abf9d87b846ee789d2f90fe991d495acd7d7fc109ee1f55"
          ],
          "data": "0x000000000000000000000000000000000000000000000000000000127a3980000000000000000000000000000000000000000000000000000000000000093a80",
          "blockHash": "0xdccdbec44a60c4ad5a0d28cc5b2fd6c54514aae305c1318c8bc5a16764402f1d",
          "blockNumber": "0xa934f9",
          "blockTimestamp": "0x6a3445dc",
          "transactionHash": "0xc83da1219a3587cbcba40b875b073a834bc2a308cf313a56a6db7ed0a0d2150b",
          "transactionIndex": "0xed",
          "logIndex": "0x176",
          "removed": false
        },
        {
          "address": "0x1f36effa0d3dd5d6b471d049cda048ad923d7ff8",
          "topics": [
            "0xda378dba4f1dc8c7a566c70096e0389c466cb99cc2ec74173afd50c7b652ca09"
          ],
          "data": "0x000000000000000000000000000000000000000000000000000000127a398000000000000000000000000000000000000000000000000000000000049e8e6000",
          "blockHash": "0xdccdbec44a60c4ad5a0d28cc5b2fd6c54514aae305c1318c8bc5a16764402f1d",
          "blockNumber": "0xa934f9",
          "blockTimestamp": "0x6a3445dc",
          "transactionHash": "0xc83da1219a3587cbcba40b875b073a834bc2a308cf313a56a6db7ed0a0d2150b",
          "transactionIndex": "0xed",
          "logIndex": "0x177",
          "removed": false
        }
      ],
      "logsBloom": "0x00000000000000000000000000000000000000000000000000000000000000000000000000000000004000000000000000000100000000000000000000000000000000000000000000200000000004000000200000000000000000000000000005000000020000800000000000000800000800000000100000000000000000000000000000000000000000000000000000000000000000000000000000000000000000000000000000000000000020010000000000000000000000000008000000000000000040000001000000000000000000000000000000000100000028001000000000000000000000000000000000000200000000000000000004000010",
      "transactionHash": "0xc83da1219a3587cbcba40b875b073a834bc2a308cf313a56a6db7ed0a0d2150b",
      "transactionIndex": "0xed",
      "blockHash": "0xdccdbec44a60c4ad5a0d28cc5b2fd6c54514aae305c1318c8bc5a16764402f1d",
      "blockNumber": "0xa934f9",
      "gasUsed": "0x211aa",
      "effectiveGasPrice": "0x3f76d3c3",
      "from": "0xf93e7518f79c2e1978d6862dbf161270040e623e",
      "to": "0x1f36effa0d3dd5d6b471d049cda048ad923d7ff8",
      "contractAddress": null
    }
  ],
  "libraries": [],
  "pending": [],
  "returns": {},
  "timestamp": 1781810666047,
  "chain": 11155111,
  "commit": "2572d96"
}