{
  "transactions": [
    {
      "hash": "0x2eea0d95f6ca9fb5f2b2031d6bef65361181de568a0e9536925fa4e020c9fef4",
      "transactionType": "CALL",
      "contractName": null,
      "contractAddress": "0x8999eac3df09a3f46099130a56c5cb1e9d79ba2a",
      "function": "approve(address,uint256)",
      "arguments": [
        "0x000000000022D473030F116dDEE9F6B43aC78BA3",
        "115792089237316195423570985008687907853269984665640564039457584007913129639935"
      ],
      "transaction": {
        "from": "0xf93e7518f79c2e1978d6862dbf161270040e623e",
        "to": "0x8999eac3df09a3f46099130a56c5cb1e9d79ba2a",
        "gas": "0x9681",
        "value": "0x0",
        "input": "0x095ea7b3000000000000000000000000000000000022d473030f116ddee9f6b43ac78ba3ffffffffffffffffffffffffffffffffffffffffffffffffffffffffffffffff",
        "nonce": "0x4f7",
        "chainId": "0xaa36a7"
      },
      "additionalContracts": [],
      "isFixedGasLimit": false
    },
    {
      "hash": "0xc75c204c4548444f8fbd015af306c33342dd6f66104d8896411d964f7f8da0cf",
      "transactionType": "CALL",
      "contractName": null,
      "contractAddress": "0x000000000022d473030f116ddee9f6b43ac78ba3",
      "function": "approve(address,address,uint160,uint48)",
      "arguments": [
        "0x8999Eac3Df09a3f46099130a56c5CB1e9D79bA2a",
        "0x429ba70129df741B2Ca2a85BC3A2a3328e5c09b4",
        "1461501637330902918203684832716283019655932542975",
        "1781903568"
      ],
      "transaction": {
        "from": "0xf93e7518f79c2e1978d6862dbf161270040e623e",
        "to": "0x000000000022d473030f116ddee9f6b43ac78ba3",
        "gas": "0xa59b",
        "value": "0x0",
        "input": "0x87517c450000000000000000000000008999eac3df09a3f46099130a56c5cb1e9d79ba2a000000000000000000000000429ba70129df741b2ca2a85bc3a2a3328e5c09b4000000000000000000000000ffffffffffffffffffffffffffffffffffffffff000000000000000000000000000000000000000000000000000000006a35b0d0",
        "nonce": "0x4f8",
        "chainId": "0xaa36a7"
      },
      "additionalContracts": [],
      "isFixedGasLimit": false
    },
    {
      "hash": "0xa771b3c7c14514ad882f063a29b81a532c00b57fce722ce161f1d97dfba313f9",
      "transactionType": "CALL",
      "contractName": null,
      "contractAddress": "0x000000000022d473030f116ddee9f6b43ac78ba3",
      "function": "approve(address,address,uint160,uint48)",
      "arguments": [
        "0x8999Eac3Df09a3f46099130a56c5CB1e9D79bA2a",
        "0x00000000000044a361Ae3cAc094c9D1b14Eece97",
        "1461501637330902918203684832716283019655932542975",
        "1781903568"
      ],
      "transaction": {
        "from": "0xf93e7518f79c2e1978d6862dbf161270040e623e",
        "to": "0x000000000022d473030f116ddee9f6b43ac78ba3",
        "gas": "0xa537",
        "value": "0x0",
        "input": "0x87517c450000000000000000000000008999eac3df09a3f46099130a56c5cb1e9d79ba2a00000000000000000000000000000000000044a361ae3cac094c9d1b14eece97000000000000000000000000ffffffffffffffffffffffffffffffffffffffff000000000000000000000000000000000000000000000000000000006a35b0d0",
        "nonce": "0x4f9",
        "chainId": "0xaa36a7"
      },
      "additionalContracts": [],
      "isFixedGasLimit": false
    },
    {
      "hash": "0x5d81a5e7e97cdbedd9c4bb1f139d6e2c0eff43dfe6a047ad678ce1da087376fb",
      "transactionType": "CALL",
      "contractName": null,
      "contractAddress": "0x8999eac3df09a3f46099130a56c5cb1e9d79ba2a",
      "function": "approve(address,uint256)",
      "arguments": [
        "0x00000000000044a361Ae3cAc094c9D1b14Eece97",
        "115792089237316195423570985008687907853269984665640564039457584007913129639935"
      ],
      "transaction": {
        "from": "0xf93e7518f79c2e1978d6862dbf161270040e623e",
        "to": "0x8999eac3df09a3f46099130a56c5cb1e9d79ba2a",
        "gas": "0x8e13",
        "value": "0x0",
        "input": "0x095ea7b300000000000000000000000000000000000044a361ae3cac094c9d1b14eece97ffffffffffffffffffffffffffffffffffffffffffffffffffffffffffffffff",
        "nonce": "0x4fa",
        "chainId": "0xaa36a7"
      },
      "additionalContracts": [],
      "isFixedGasLimit": false
    },
    {
      "hash": "0x67543d9b3ab8de373b38e3219085e6f4a71a1833ba4143b5d2ab870cee30b9c2",
      "transactionType": "CALL",
      "contractName": null,
      "contractAddress": "0x8999eac3df09a3f46099130a56c5cb1e9d79ba2a",
      "function": "approve(address,uint256)",
      "arguments": [
        "0x55C6aeDC9d5384F00aEcd3515556A150e272168B",
        "115792089237316195423570985008687907853269984665640564039457584007913129639935"
      ],
      "transaction": {
        "from": "0xf93e7518f79c2e1978d6862dbf161270040e623e",
        "to": "0x8999eac3df09a3f46099130a56c5cb1e9d79ba2a",
        "gas": "0x8e77",
        "value": "0x0",
        "input": "0x095ea7b300000000000000000000000055c6aedc9d5384f00aecd3515556a150e272168bffffffffffffffffffffffffffffffffffffffffffffffffffffffffffffffff",
        "nonce": "0x4fb",
        "chainId": "0xaa36a7"
      },
      "additionalContracts": [],
      "isFixedGasLimit": false
    },
    {
      "hash": "0xd4554939c287b6e318a2902056bee4ddc5b6a31a8dce220e7f0f7187202b7738",
      "transactionType": "CALL",
      "contractName": null,
      "contractAddress": "0x429ba70129df741b2ca2a85bc3a2a3328e5c09b4",
      "function": "modifyLiquidities(bytes,uint256)",
      "arguments": [
        "0x000000000000000000000000000000000000000000000000000000000000004000000000000000000000000000000000000000000000000000000000000000800000000000000000000000000000000000000000000000000000000000000002020d00000000000000000000000000000000000000000000000000000000000000000000000000000000000000000000000000000000000000000000000000020000000000000000000000000000000000000000000000000000000000000040000000000000000000000000000000000000000000000000000000000000020000000000000000000000000000000000000000000000000000000000000001a000000000000000000000000000000000000000000000000000000000000000000000000000000000000000008999eac3df09a3f46099130a56c5cb1e9d79ba2a0000000000000000000000000000000000000000000000000000000000000bb8000000000000000000000000000000000000000000000000000000000000003c0000000000000000000000009952d25eda1f305fcdb6ca9029520e33a7263ff8fffffffffffffffffffffffffffffffffffffffffffffffffffffffffff2764c00000000000000000000000000000000000000000000000000000000000d89b400000000000000000000000000000000000000000000000006f05b59d3b2000000000000000000000000000000000000ffffffffffffffffffffffffffffffff00000000000000000000000000000000ffffffffffffffffffffffffffffffff000000000000000000000000f93e7518f79c2e1978d6862dbf161270040e623e00000000000000000000000000000000000000000000000000000000000001800000000000000000000000000000000000000000000000000000000000000000000000000000000000000000000000000000000000000000000000000000004000000000000000000000000000000000000000000000000000000000000000000000000000000000000000008999eac3df09a3f46099130a56c5cb1e9d79ba2a",
        "115792089237316195423570985008687907853269984665640564039457584007913129639935"
      ],
      "transaction": {
        "from": "0xf93e7518f79c2e1978d6862dbf161270040e623e",
        "to": "0x429ba70129df741b2ca2a85bc3a2a3328e5c09b4",
        "gas": "0x6905c",
        "value": "0x11c37937e08000",
        "input": "0xdd46508f0000000000000000000000000000000000000000000000000000000000000040ffffffffffffffffffffffffffffffffffffffffffffffffffffffffffffffff0000000000000000000000000000000000000000000000000000000000000300000000000000000000000000000000000000000000000000000000000000004000000000000000000000000000000000000000000000000000000000000000800000000000000000000000000000000000000000000000000000000000000002020d00000000000000000000000000000000000000000000000000000000000000000000000000000000000000000000000000000000000000000000000000020000000000000000000000000000000000000000000000000000000000000040000000000000000000000000000000000000000000000000000000000000020000000000000000000000000000000000000000000000000000000000000001a000000000000000000000000000000000000000000000000000000000000000000000000000000000000000008999eac3df09a3f46099130a56c5cb1e9d79ba2a0000000000000000000000000000000000000000000000000000000000000bb8000000000000000000000000000000000000000000000000000000000000003c0000000000000000000000009952d25eda1f305fcdb6ca9029520e33a7263ff8fffffffffffffffffffffffffffffffffffffffffffffffffffffffffff2764c00000000000000000000000000000000000000000000000000000000000d89b400000000000000000000000000000000000000000000000006f05b59d3b2000000000000000000000000000000000000ffffffffffffffffffffffffffffffff00000000000000000000000000000000ffffffffffffffffffffffffffffffff000000000000000000000000f93e7518f79c2e1978d6862dbf161270040e623e00000000000000000000000000000000000000000000000000000000000001800000000000000000000000000000000000000000000000000000000000000000000000000000000000000000000000000000000000000000000000000000004000000000000000000000000000000000000000000000000000000000000000000000000000000000000000008999eac3df09a3f46099130a56c5cb1e9d79ba2a",
        "nonce": "0x4fc",
        "chainId": "0xaa36a7"
      },
      "additionalContracts": [],
      "isFixedGasLimit": false
    },
    {
      "hash": "0x0308c12eb2ac99e8a9451c3d2ac4dfde0fd427a642961cf73ad98b9096c1babc",
      "transactionType": "CALL",
      "contractName": null,
      "contractAddress": "0x00000000000044a361ae3cac094c9d1b14eece97",
      "function": "swapExactTokensForTokens(uint256,uint256,bool,(address,address,uint24,int24,address),bytes,address,uint256)",
      "arguments": [
        "1000000000000",
        "0",
        "true",
        "(0x0000000000000000000000000000000000000000, 0x8999Eac3Df09a3f46099130a56c5CB1e9D79bA2a, 3000, 60, 0x9952d25eDA1f305fcDb6Ca9029520e33A7263Ff8)",
        "0x",
        "0xF93E7518F79C2E1978D6862Dbf161270040e623E",
        "115792089237316195423570985008687907853269984665640564039457584007913129639935"
      ],
      "transaction": {
        "from": "0xf93e7518f79c2e1978d6862dbf161270040e623e",
        "to": "0x00000000000044a361ae3cac094c9d1b14eece97",
        "gas": "0x3988c",
        "value": "0xe8d4a51000",
        "input": "0xb1a0d571000000000000000000000000000000000000000000000000000000e8d4a510000000000000000000000000000000000000000000000000000000000000000000000000000000000000000000000000000000000000000000000000000000000100000000000000000000000000000000000000000000000000000000000000000000000000000000000000008999eac3df09a3f46099130a56c5cb1e9d79ba2a0000000000000000000000000000000000000000000000000000000000000bb8000000000000000000000000000000000000000000000000000000000000003c0000000000000000000000009952d25eda1f305fcdb6ca9029520e33a7263ff80000000000000000000000000000000000000000000000000000000000000160000000000000000000000000f93e7518f79c2e1978d6862dbf161270040e623effffffffffffffffffffffffffffffffffffffffffffffffffffffffffffffff0000000000000000000000000000000000000000000000000000000000000000",
        "nonce": "0x4fd",
        "chainId": "0xaa36a7"
      },
      "additionalContracts": [],
      "isFixedGasLimit": false
    },
    {
      "hash": "0x0a9344e497c9523266fa9893226f9ada743cc49c79f83cd1f975185b83aa4055",
      "transactionType": "CALL",
      "contractName": null,
      "contractAddress": "0x9952d25eda1f305fcdb6ca9029520e33a7263ff8",
      "function": "claimFees(bool)",
      "arguments": [
        "true"
      ],
      "transaction": {
        "from": "0xf93e7518f79c2e1978d6862dbf161270040e623e",
        "to": "0x9952d25eda1f305fcdb6ca9029520e33a7263ff8",
        "gas": "0x27f54",
        "value": "0x0",
        "input": "0x1d4161650000000000000000000000000000000000000000000000000000000000000001",
        "nonce": "0x4fe",
        "chainId": "0xaa36a7"
      },
      "additionalContracts": [],
      "isFixedGasLimit": false
    },
    {
      "hash": "0x7a054eaf2fa83f2024ac342a3a85ac4ffa65881ec139b04c46cdec1e78bb76ca",
      "transactionType": "CALL",
      "contractName": null,
      "contractAddress": "0x00000000000044a361ae3cac094c9d1b14eece97",
      "function": "swapExactTokensForTokens(uint256,uint256,bool,(address,address,uint24,int24,address),bytes,address,uint256)",
      "arguments": [
        "1000000000000000",
        "0",
        "false",
        "(0x0000000000000000000000000000000000000000, 0x8999Eac3Df09a3f46099130a56c5CB1e9D79bA2a, 3000, 60, 0x9952d25eDA1f305fcDb6Ca9029520e33A7263Ff8)",
        "0x",
        "0xF93E7518F79C2E1978D6862Dbf161270040e623E",
        "115792089237316195423570985008687907853269984665640564039457584007913129639935"
      ],
      "transaction": {
        "from": "0xf93e7518f79c2e1978d6862dbf161270040e623e",
        "to": "0x00000000000044a361ae3cac094c9d1b14eece97",
        "gas": "0x3cb14",
        "value": "0x0",
        "input": "0xb1a0d57100000000000000000000000000000000000000000000000000038d7ea4c680000000000000000000000000000000000000000000000000000000000000000000000000000000000000000000000000000000000000000000000000000000000000000000000000000000000000000000000000000000000000000000000000000000000000000000000000008999eac3df09a3f46099130a56c5cb1e9d79ba2a0000000000000000000000000000000000000000000000000000000000000bb8000000000000000000000000000000000000000000000000000000000000003c0000000000000000000000009952d25eda1f305fcdb6ca9029520e33a7263ff80000000000000000000000000000000000000000000000000000000000000160000000000000000000000000f93e7518f79c2e1978d6862dbf161270040e623effffffffffffffffffffffffffffffffffffffffffffffffffffffffffffffff0000000000000000000000000000000000000000000000000000000000000000",
        "nonce": "0x4ff",
        "chainId": "0xaa36a7"
      },
      "additionalContracts": [],
      "isFixedGasLimit": false
    },
    {
      "hash": "0xf2b341310ceaeb8ebec5e8cbc9c650b4bca668cf84258bb4a951c468eef0c1c5",
      "transactionType": "CALL",
      "contractName": null,
      "contractAddress": "0x9952d25eda1f305fcdb6ca9029520e33a7263ff8",
      "function": "claimFees(bool)",
      "arguments": [
        "false"
      ],
      "transaction": {
        "from": "0xf93e7518f79c2e1978d6862dbf161270040e623e",
        "to": "0x9952d25eda1f305fcdb6ca9029520e33a7263ff8",
        "gas": "0x34f7d",
        "value": "0x0",
        "input": "0x1d4161650000000000000000000000000000000000000000000000000000000000000000",
        "nonce": "0x500",
        "chainId": "0xaa36a7"
      },
      "additionalContracts": [],
      "isFixedGasLimit": false
    },
    {
      "hash": "0xdb4cbf3990271da22eb7ec09a064ab635a39aed8f893ad68df955f84e5e1c981",
      "transactionType": "CALL",
      "contractName": null,
      "contractAddress": "0x55c6aedc9d5384f00aecd3515556a150e272168b",
      "function": "stake(uint256)",
      "arguments": [
        "100000000000000000000"
      ],
      "transaction": {
        "from": "0xf93e7518f79c2e1978d6862dbf161270040e623e",
        "to": "0x55c6aedc9d5384f00aecd3515556a150e272168b",
        "gas": "0x2a4da",
        "value": "0x0",
        "input": "0xa694fc3a0000000000000000000000000000000000000000000000056bc75e2d63100000",
        "nonce": "0x501",
        "chainId": "0xaa36a7"
      },
      "additionalContracts": [],
      "isFixedGasLimit": false
    },
    {
      "hash": "0x2f8454d8107856d0be97c80db8e66aef7a56fbf8104226e29865825f11d4a5f2",
      "transactionType": "CALL",
      "contractName": null,
      "contractAddress": "0x00000000000044a361ae3cac094c9d1b14eece97",
      "function": "swapExactTokensForTokens(uint256,uint256,bool,(address,address,uint24,int24,address),bytes,address,uint256)",
      "arguments": [
        "1000000000000",
        "0",
        "true",
        "(0x0000000000000000000000000000000000000000, 0x8999Eac3Df09a3f46099130a56c5CB1e9D79bA2a, 3000, 60, 0x9952d25eDA1f305fcDb6Ca9029520e33A7263Ff8)",
        "0x",
        "0xF93E7518F79C2E1978D6862Dbf161270040e623E",
        "115792089237316195423570985008687907853269984665640564039457584007913129639935"
      ],
      "transaction": {
        "from": "0xf93e7518f79c2e1978d6862dbf161270040e623e",
        "to": "0x00000000000044a361ae3cac094c9d1b14eece97",
        "gas": "0x44062",
        "value": "0xe8d4a51000",
        "input": "0xb1a0d571000000000000000000000000000000000000000000000000000000e8d4a510000000000000000000000000000000000000000000000000000000000000000000000000000000000000000000000000000000000000000000000000000000000100000000000000000000000000000000000000000000000000000000000000000000000000000000000000008999eac3df09a3f46099130a56c5cb1e9d79ba2a0000000000000000000000000000000000000000000000000000000000000bb8000000000000000000000000000000000000000000000000000000000000003c0000000000000000000000009952d25eda1f305fcdb6ca9029520e33a7263ff80000000000000000000000000000000000000000000000000000000000000160000000000000000000000000f93e7518f79c2e1978d6862dbf161270040e623effffffffffffffffffffffffffffffffffffffffffffffffffffffffffffffff0000000000000000000000000000000000000000000000000000000000000000",
        "nonce": "0x502",
        "chainId": "0xaa36a7"
      },
      "additionalContracts": [],
      "isFixedGasLimit": false
    },
    {
      "hash": "0x83c0e81b0025db3354014dfb7ec405fdc76646804691e73d7f55a5b9ff7fb021",
      "transactionType": "CALL",
      "contractName": null,
      "contractAddress": "0x9952d25eda1f305fcdb6ca9029520e33a7263ff8",
      "function": "claimFees(bool)",
      "arguments": [
        "true"
      ],
      "transaction": {
        "from": "0xf93e7518f79c2e1978d6862dbf161270040e623e",
        "to": "0x9952d25eda1f305fcdb6ca9029520e33a7263ff8",
        "gas": "0x25202",
        "value": "0x0",
        "input": "0x1d4161650000000000000000000000000000000000000000000000000000000000000001",
        "nonce": "0x503",
        "chainId": "0xaa36a7"
      },
      "additionalContracts": [],
      "isFixedGasLimit": false
    },
    {
      "hash": "0xa1f73c37572b0099d487018e2e68153a9656a315156817fa4c98ebc8578641f8",
      "transactionType": "CALL",
      "contractName": null,
      "contractAddress": "0x55c6aedc9d5384f00aecd3515556a150e272168b",
      "function": "claimReward()",
      "arguments": [],
      "transaction": {
        "from": "0xf93e7518f79c2e1978d6862dbf161270040e623e",
        "to": "0x55c6aedc9d5384f00aecd3515556a150e272168b",
        "gas": "0x10ee3",
        "value": "0x0",
        "input": "0xb88a802f",
        "nonce": "0x504",
        "chainId": "0xaa36a7"
      },
      "additionalContracts": [],
      "isFixedGasLimit": false
    },
    {
      "hash": "0xefa4ab7c5e1d125c93d48baf5cb4a5a8e0644dba4d759b76b2f7efaf728e85b7",
      "transactionType": "CALL",
      "contractName": null,
      "contractAddress": "0x8999eac3df09a3f46099130a56c5cb1e9d79ba2a",
      "function": "burn(uint256)",
      "arguments": [
        "10000000000000000000000"
      ],
      "transaction": {
        "from": "0xf93e7518f79c2e1978d6862dbf161270040e623e",
        "to": "0x8999eac3df09a3f46099130a56c5cb1e9d79ba2a",
        "gas": "0x21b44",
        "value": "0x0",
        "input": "0x42966c6800000000000000000000000000000000000000000000021e19e0c9bab2400000",
        "nonce": "0x505",
        "chainId": "0xaa36a7"
      },
      "additionalContracts": [],
      "isFixedGasLimit": false
    },
    {
      "hash": null,
      "transactionType": "CALL",
      "contractName": null,
      "contractAddress": "0x429ba70129df741b2ca2a85bc3a2a3328e5c09b4",
      "function": "approve(address,uint256)",
      "arguments": [
        "0x9952d25eDA1f305fcDb6Ca9029520e33A7263Ff8",
        "36090"
      ],
      "transaction": {
        "from": "0xf93e7518f79c2e1978d6862dbf161270040e623e",
        "to": "0x429ba70129df741b2ca2a85bc3a2a3328e5c09b4",
        "gas": "0x10489",
        "value": "0x0",
        "input": "0x095ea7b30000000000000000000000009952d25eda1f305fcdb6ca9029520e33a7263ff80000000000000000000000000000000000000000000000000000000000008cfa",
        "nonce": "0x506",
        "chainId": "0xaa36a7"
      },
      "additionalContracts": [],
      "isFixedGasLimit": false
    },
    {
      "hash": null,
      "transactionType": "CALL",
      "contractName": null,
      "contractAddress": "0x9952d25eda1f305fcdb6ca9029520e33a7263ff8",
      "function": "burnLpPosition(uint256)",
      "arguments": [
        "36090"
      ],
      "transaction": {
        "from": "0xf93e7518f79c2e1978d6862dbf161270040e623e",
        "to": "0x9952d25eda1f305fcdb6ca9029520e33a7263ff8",
        "gas": "0x3a51c",
        "value": "0x0",
        "input": "0x32803cbc0000000000000000000000000000000000000000000000000000000000008cfa",
        "nonce": "0x507",
        "chainId": "0xaa36a7"
      },
      "additionalContracts": [],
      "isFixedGasLimit": false
    },
    {
      "hash": null,
      "transactionType": "CALL",
      "contractName": null,
      "contractAddress": "0x00000000000044a361ae3cac094c9d1b14eece97",
      "function": "swapExactTokensForTokens(uint256,uint256,bool,(address,address,uint24,int24,address),bytes,address,uint256)",
      "arguments": [
        "1000000000000000",
        "0",
        "false",
        "(0x0000000000000000000000000000000000000000, 0x8999Eac3Df09a3f46099130a56c5CB1e9D79bA2a, 3000, 60, 0x9952d25eDA1f305fcDb6Ca9029520e33A7263Ff8)",
        "0x",
        "0xF93E7518F79C2E1978D6862Dbf161270040e623E",
        "115792089237316195423570985008687907853269984665640564039457584007913129639935"
      ],
      "transaction": {
        "from": "0xf93e7518f79c2e1978d6862dbf161270040e623e",
        "to": "0x00000000000044a361ae3cac094c9d1b14eece97",
        "gas": "0x3cb14",
        "value": "0x0",
        "input": "0xb1a0d57100000000000000000000000000000000000000000000000000038d7ea4c680000000000000000000000000000000000000000000000000000000000000000000000000000000000000000000000000000000000000000000000000000000000000000000000000000000000000000000000000000000000000000000000000000000000000000000000000008999eac3df09a3f46099130a56c5cb1e9d79ba2a0000000000000000000000000000000000000000000000000000000000000bb8000000000000000000000000000000000000000000000000000000000000003c0000000000000000000000009952d25eda1f305fcdb6ca9029520e33a7263ff80000000000000000000000000000000000000000000000000000000000000160000000000000000000000000f93e7518f79c2e1978d6862dbf161270040e623effffffffffffffffffffffffffffffffffffffffffffffffffffffffffffffff0000000000000000000000000000000000000000000000000000000000000000",
        "nonce": "0x508",
        "chainId": "0xaa36a7"
      },
      "additionalContracts": [],
      "isFixedGasLimit": false
    },
    {
      "hash": null,
      "transactionType": "CALL",
      "contractName": null,
      "contractAddress": "0x9952d25eda1f305fcdb6ca9029520e33a7263ff8",
      "function": "claimFees(bool)",
      "arguments": [
        "false"
      ],
      "transaction": {
        "from": "0xf93e7518f79c2e1978d6862dbf161270040e623e",
        "to": "0x9952d25eda1f305fcdb6ca9029520e33a7263ff8",
        "gas": "0x34f7d",
        "value": "0x0",
        "input": "0x1d4161650000000000000000000000000000000000000000000000000000000000000000",
        "nonce": "0x509",
        "chainId": "0xaa36a7"
      },
      "additionalContracts": [],
      "isFixedGasLimit": false
    }
  ],
  "receipts": [
    {
      "type": "0x2",
      "status": "0x1",
      "cumulativeGasUsed": "0x1339759",
      "logs": [
        {
          "address": "0x8999eac3df09a3f46099130a56c5cb1e9d79ba2a",
          "topics": [
            "0x8c5be1e5ebec7d5bd14f71427d1e84f3dd0314c0f7b2291e5b200ac8c7c3b925",
            "0x000000000000000000000000f93e7518f79c2e1978d6862dbf161270040e623e",
            "0x000000000000000000000000000000000022d473030f116ddee9f6b43ac78ba3"
          ],
          "data": "0xffffffffffffffffffffffffffffffffffffffffffffffffffffffffffffffff",
          "blockHash": "0x364ccaa8b64ee29b7609a726fd09cc4b43f2d5eeb5efa46de57aa2d5c89313d4",
          "blockNumber": "0xa9371b",
          "blockTimestamp": "0x6a345f80",
          "transactionHash": "0x2eea0d95f6ca9fb5f2b2031d6bef65361181de568a0e9536925fa4e020c9fef4",
          "transactionIndex": "0xc3",
          "logIndex": "0x542",
          "removed": false
        }
      ],
      "logsBloom": "0x00000000000000000000000000000000000000000000000000000000800000000000000000000000000000000000000000000000800000200000000000200000000000000000000000004000000000000000000000000800000000000000000000000000000000000000000000000000000000000000000400000000000000000000000000000000000000000000000000000000000000000000000000100001020000000000000000000000000000000000000000000000000000000000100000000000000000000000000000000000000000000000000000000000000000000010000000000000000000000000000000000000000000000000000000000000",
      "transactionHash": "0x2eea0d95f6ca9fb5f2b2031d6bef65361181de568a0e9536925fa4e020c9fef4",
      "transactionIndex": "0xc3",
      "blockHash": "0x364ccaa8b64ee29b7609a726fd09cc4b43f2d5eeb5efa46de57aa2d5c89313d4",
      "blockNumber": "0xa9371b",
      "gasUsed": "0x66e9",
      "effectiveGasPrice": "0x406dc62f",
      "from": "0xf93e7518f79c2e1978d6862dbf161270040e623e",
      "to": "0x8999eac3df09a3f46099130a56c5cb1e9d79ba2a",
      "contractAddress": null
    },
    {
      "type": "0x2",
      "status": "0x1",
      "cumulativeGasUsed": "0x130b04b",
      "logs": [
        {
          "address": "0x000000000022d473030f116ddee9f6b43ac78ba3",
          "topics": [
            "0xda9fa7c1b00402c17d0161b249b1ab8bbec047c5a52207b9c112deffd817036b",
            "0x000000000000000000000000f93e7518f79c2e1978d6862dbf161270040e623e",
            "0x0000000000000000000000008999eac3df09a3f46099130a56c5cb1e9d79ba2a",
            "0x000000000000000000000000429ba70129df741b2ca2a85bc3a2a3328e5c09b4"
          ],
          "data": "0x000000000000000000000000ffffffffffffffffffffffffffffffffffffffff000000000000000000000000000000000000000000000000000000006a35b0d0",
          "blockHash": "0xc704664dc3f27602d1236b5e670e6bcfb1795c0917e71df74b8781407832c23f",
          "blockNumber": "0xa9371c",
          "blockTimestamp": "0x6a345f8c",
          "transactionHash": "0xc75c204c4548444f8fbd015af306c33342dd6f66104d8896411d964f7f8da0cf",
          "transactionIndex": "0xd1",
          "logIndex": "0x525",
          "removed": false
        }
      ],
      "logsBloom": "0x00010000000000000000000000000008000000000000000000000000800000000000000000000040080000001000000000000000000000200000000000080000000000000000000000000000000000000000000000000000000000000000000000000000000000000000000000000000000000000000000000000800000000000020000000000000000000000000000000000000000000000000000000100000000000000000000000000000000000000000000000000000000000080000000000000000000000000000000000000000000000000000000040000000000000000000000000000000000000000000000000000004000000000000000000000400",
      "transactionHash": "0xc75c204c4548444f8fbd015af306c33342dd6f66104d8896411d964f7f8da0cf",
      "transactionIndex": "0xd1",
      "blockHash": "0xc704664dc3f27602d1236b5e670e6bcfb1795c0917e71df74b8781407832c23f",
      "blockNumber": "0xa9371c",
      "gasUsed": "0x77e6",
      "effectiveGasPrice": "0x3de88a2e",
      "from": "0xf93e7518f79c2e1978d6862dbf161270040e623e",
      "to": "0x000000000022d473030f116ddee9f6b43ac78ba3",
      "contractAddress": null
    },
    {
      "type": "0x2",
      "status": "0x1",
      "cumulativeGasUsed": "0x16ae324",
      "logs": [
        {
          "address": "0x000000000022d473030f116ddee9f6b43ac78ba3",
          "topics": [
            "0xda9fa7c1b00402c17d0161b249b1ab8bbec047c5a52207b9c112deffd817036b",
            "0x000000000000000000000000f93e7518f79c2e1978d6862dbf161270040e623e",
            "0x0000000000000000000000008999eac3df09a3f46099130a56c5cb1e9d79ba2a",
            "0x00000000000000000000000000000000000044a361ae3cac094c9d1b14eece97"
          ],
          "data": "0x000000000000000000000000ffffffffffffffffffffffffffffffffffffffff000000000000000000000000000000000000000000000000000000006a35b0d0",
          "blockHash": "0xc1c2451cb6b6c9a7a941fefac859c2e2727a0a18c3a1b184a7a71dc1e6d20102",
          "blockNumber": "0xa9371d",
          "blockTimestamp": "0x6a345f98",
          "transactionHash": "0xa771b3c7c14514ad882f063a29b81a532c00b57fce722ce161f1d97dfba313f9",
          "transactionIndex": "0xea",
          "logIndex": "0x548",
          "removed": false
        }
      ],
      "logsBloom": "0x00010000000000000000000000000008000000000000000000000000800000000000000000000000000000001000000000000000000000200000000040080000000000000000000000000000000000000000000000000000000000000000000000000000000000000000000000000000000000000000000000000000000040000020000000000000000000000000000000000000000000000000000000100000000000000000000000000000000000000000000000000000000000080000000000000000000000000000000000000000000000000000000040000000000000010000000000000000000000000000000000000004000000000000000000000400",
      "transactionHash": "0xa771b3c7c14514ad882f063a29b81a532c00b57fce722ce161f1d97dfba313f9",
      "transactionIndex": "0xea",
      "blockHash": "0xc1c2451cb6b6c9a7a941fefac859c2e2727a0a18c3a1b184a7a71dc1e6d20102",
      "blockNumber": "0xa9371d",
      "gasUsed": "0x779e",
      "effectiveGasPrice": "0x3c14f623",
      "from": "0xf93e7518f79c2e1978d6862dbf161270040e623e",
      "to": "0x000000000022d473030f116ddee9f6b43ac78ba3",
      "contractAddress": null
    },
    {
      "type": "0x2",
      "status": "0x1",
      "cumulativeGasUsed": "0x38c9c78",
      "logs": [
        {
          "address": "0x8999eac3df09a3f46099130a56c5cb1e9d79ba2a",
          "topics": [
            "0x8c5be1e5ebec7d5bd14f71427d1e84f3dd0314c0f7b2291e5b200ac8c7c3b925",
            "0x000000000000000000000000f93e7518f79c2e1978d6862dbf161270040e623e",
            "0x00000000000000000000000000000000000044a361ae3cac094c9d1b14eece97"
          ],
          "data": "0xffffffffffffffffffffffffffffffffffffffffffffffffffffffffffffffff",
          "blockHash": "0xfefb630e27e75bae9b4a5d0e50274db5f3325beccf8b6bf2165e6c688dff56de",
          "blockNumber": "0xa9371e",
          "blockTimestamp": "0x6a345fa4",
          "transactionHash": "0x5d81a5e7e97cdbedd9c4bb1f139d6e2c0eff43dfe6a047ad678ce1da087376fb",
          "transactionIndex": "0xc1",
          "logIndex": "0x162",
          "removed": false
        }
      ],
      "logsBloom": "0x00000000000000000000000000000000000000000000000000000000800000000000000000000000000000000000000000000000000000200000000040200000000000000000000000000000000000000000000000000000000000000000000000000000000000000000000000000000000000000000000400000000000040000000000000000000000000000000000000000000000000000000000000100001020000000000000000000000000000000000000000000000000000000000100000000000000000000000000000000000000000000000000000000000000000010010000000000000000000000000000000000000000000000000000000000000",
      "transactionHash": "0x5d81a5e7e97cdbedd9c4bb1f139d6e2c0eff43dfe6a047ad678ce1da087376fb",
      "transactionIndex": "0xc1",
      "blockHash": "0xfefb630e27e75bae9b4a5d0e50274db5f3325beccf8b6bf2165e6c688dff56de",
      "blockNumber": "0xa9371e",
      "gasUsed": "0x66dd",
      "effectiveGasPrice": "0x3b4a3ca1",
      "from": "0xf93e7518f79c2e1978d6862dbf161270040e623e",
      "to": "0x8999eac3df09a3f46099130a56c5cb1e9d79ba2a",
      "contractAddress": null
    },
    {
      "type": "0x2",
      "status": "0x1",
      "cumulativeGasUsed": "0x12ab819",
      "logs": [
        {
          "address": "0x8999eac3df09a3f46099130a56c5cb1e9d79ba2a",
          "topics": [
            "0x8c5be1e5ebec7d5bd14f71427d1e84f3dd0314c0f7b2291e5b200ac8c7c3b925",
            "0x000000000000000000000000f93e7518f79c2e1978d6862dbf161270040e623e",
            "0x00000000000000000000000055c6aedc9d5384f00aecd3515556a150e272168b"
          ],
          "data": "0xffffffffffffffffffffffffffffffffffffffffffffffffffffffffffffffff",
          "blockHash": "0xf9c5a5fb719175eee601f0b1931bb016ed0c38cc28bc584129c131a4d69634d8",
          "blockNumber": "0xa9371f",
          "blockTimestamp": "0x6a345fb0",
          "transactionHash": "0x67543d9b3ab8de373b38e3219085e6f4a71a1833ba4143b5d2ab870cee30b9c2",
          "transactionIndex": "0xb0",
          "logIndex": "0x506",
          "removed": false
        }
      ],
      "logsBloom": "0x00000000000000000000000000000000000000000000000000000000800000000000100000000000000000000000000000000000000000200000000000200000000000000000000000000000000000000000000000000000000000000000000000000000000000000000000000000000000000000000000400000000000000000000000000000000000000000000000000000000000000000000000000100001020000000000000000000000000000000002000000000000000000000000100000000000000000000000000000000000000000000000000000000000000000000010000000000000008000000000000000000000000000000000000000000000",
      "transactionHash": "0x67543d9b3ab8de373b38e3219085e6f4a71a1833ba4143b5d2ab870cee30b9c2",
      "transactionIndex": "0xb0",
      "blockHash": "0xf9c5a5fb719175eee601f0b1931bb016ed0c38cc28bc584129c131a4d69634d8",
      "blockNumber": "0xa9371f",
      "gasUsed": "0x6725",
      "effectiveGasPrice": "0x42b10c1b",
      "from": "0xf93e7518f79c2e1978d6862dbf161270040e623e",
      "to": "0x8999eac3df09a3f46099130a56c5cb1e9d79ba2a",
      "contractAddress": null
    },
    {
      "type": "0x2",
      "status": "0x1",
      "cumulativeGasUsed": "0x1797083",
      "logs": [
        {
          "address": "0x429ba70129df741b2ca2a85bc3a2a3328e5c09b4",
          "topics": [
            "0xddf252ad1be2c89b69c2b068fc378daa952ba7f163c4a11628f55a4df523b3ef",
            "0x0000000000000000000000000000000000000000000000000000000000000000",
            "0x000000000000000000000000f93e7518f79c2e1978d6862dbf161270040e623e",
            "0x0000000000000000000000000000000000000000000000000000000000008cfb"
          ],
          "data": "0x",
          "blockHash": "0x0135b51fa39296afe5b0d9c0c1d27aa497387e1676ac942a0573e9309856cf51",
          "blockNumber": "0xa93720",
          "blockTimestamp": "0x6a345fbc",
          "transactionHash": "0xd4554939c287b6e318a2902056bee4ddc5b6a31a8dce220e7f0f7187202b7738",
          "transactionIndex": "0xe7",
          "logIndex": "0x544",
          "removed": false
        },
        {
          "address": "0xe03a1074c86cfedd5c142c4f04f1a1536e203543",
          "topics": [
            "0xf208f4912782fd25c7f114ca3723a2d5dd6f3bcc3ac8db5af63baa85f711d5ec",
            "0x81d74c428ad55494ca858ba05cc806c16a7c196832d4b9885b8dd3d05457654a",
            "0x000000000000000000000000429ba70129df741b2ca2a85bc3a2a3328e5c09b4"
          ],
          "data": "0xfffffffffffffffffffffffffffffffffffffffffffffffffffffffffff2764c00000000000000000000000000000000000000000000000000000000000d89b400000000000000000000000000000000000000000000000006f05b59d3b200000000000000000000000000000000000000000000000000000000000000008cfb",
          "blockHash": "0x0135b51fa39296afe5b0d9c0c1d27aa497387e1676ac942a0573e9309856cf51",
          "blockNumber": "0xa93720",
          "blockTimestamp": "0x6a345fbc",
          "transactionHash": "0xd4554939c287b6e318a2902056bee4ddc5b6a31a8dce220e7f0f7187202b7738",
          "transactionIndex": "0xe7",
          "logIndex": "0x545",
          "removed": false
        },
        {
          "address": "0x8999eac3df09a3f46099130a56c5cb1e9d79ba2a",
          "topics": [
            "0xddf252ad1be2c89b69c2b068fc378daa952ba7f163c4a11628f55a4df523b3ef",
            "0x000000000000000000000000f93e7518f79c2e1978d6862dbf161270040e623e",
            "0x000000000000000000000000e03a1074c86cfedd5c142c4f04f1a1536e203543"
          ],
          "data": "0x000000000000000000000000000000000000000000000008922818f1257cc233",
          "blockHash": "0x0135b51fa39296afe5b0d9c0c1d27aa497387e1676ac942a0573e9309856cf51",
          "blockNumber": "0xa93720",
          "blockTimestamp": "0x6a345fbc",
          "transactionHash": "0xd4554939c287b6e318a2902056bee4ddc5b6a31a8dce220e7f0f7187202b7738",
          "transactionIndex": "0xe7",
          "logIndex": "0x546",
          "removed": false
        }
      ],
      "logsBloom": "0x00000000000000000000201000000000000000000000000000000000880000000000000000000040080000000000002000000100000000200000000000000000000000000000000000000008000000200000000000000000000000000000000000000000020000000000000082000800000000000000100400000810000000000000000001000000000010000000000000000000000000000000000000100001000004000000020000000000000000000000000000400000000000000000100000000002000000000000000000000000000000000000000000001000000020001000000000000000000000000010000004000000000000000000000000000000",
      "transactionHash": "0xd4554939c287b6e318a2902056bee4ddc5b6a31a8dce220e7f0f7187202b7738",
      "transactionIndex": "0xe7",
      "blockHash": "0x0135b51fa39296afe5b0d9c0c1d27aa497387e1676ac942a0573e9309856cf51",
      "blockNumber": "0xa93720",
      "gasUsed": "0x4c08e",
      "effectiveGasPrice": "0x419ee59d",
      "from": "0xf93e7518f79c2e1978d6862dbf161270040e623e",
      "to": "0x429ba70129df741b2ca2a85bc3a2a3328e5c09b4",
      "contractAddress": null
    },
    {
      "type": "0x2",
      "status": "0x1",
      "cumulativeGasUsed": "0xc19011",
      "logs": [
        {
          "address": "0x9952d25eda1f305fcdb6ca9029520e33a7263ff8",
          "topics": [
            "0xeb18042c63a6494302e2e34ca89562fb59d5b25ded99d617905bdd7c4f891f03",
            "0x0000000000000000000000000000000000000000000000000000000000000001",
            "0x0000000000000000000000000000000000000000000000000000000000000001"
          ],
          "data": "0x00000000000000000000000000000000000000000000000000000016482a1d00",
          "blockHash": "0x041ed4353f31349ae80c0f55a127c18f58e05cac7b935c5330070299e3eb75ea",
          "blockNumber": "0xa93721",
          "blockTimestamp": "0x6a345fc8",
          "transactionHash": "0x0308c12eb2ac99e8a9451c3d2ac4dfde0fd427a642961cf73ad98b9096c1babc",
          "transactionIndex": "0xbf",
          "logIndex": "0x126",
          "removed": false
        },
        {
          "address": "0xe03a1074c86cfedd5c142c4f04f1a1536e203543",
          "topics": [
            "0x40e9cecb9f5f1f1c5b9c97dec2917b7ee92e57ba5563708daca94dd84ad7112f",
            "0x81d74c428ad55494ca858ba05cc806c16a7c196832d4b9885b8dd3d05457654a",
            "0x00000000000000000000000000000000000044a361ae3cac094c9d1b14eece97"
          ],
          "data": "0xffffffffffffffffffffffffffffffffffffffffffffffffffffff2d73850d00000000000000000000000000000000000000000000000000014045a1e277baa2000000000000000000000000000000000000013c3567bf543d171cdfd22c4db4000000000000000000000000000000000000000000000001d29c192d99ad95a7000000000000000000000000000000000000000000000000000000000001c1bd0000000000000000000000000000000000000000000000000000000000000bb8",
          "blockHash": "0x041ed4353f31349ae80c0f55a127c18f58e05cac7b935c5330070299e3eb75ea",
          "blockNumber": "0xa93721",
          "blockTimestamp": "0x6a345fc8",
          "transactionHash": "0x0308c12eb2ac99e8a9451c3d2ac4dfde0fd427a642961cf73ad98b9096c1babc",
          "transactionIndex": "0xbf",
          "logIndex": "0x127",
          "removed": false
        },
        {
          "address": "0xe03a1074c86cfedd5c142c4f04f1a1536e203543",
          "topics": [
            "0x1b3d7edb2e9c0b0e7c525b20aaaef0f5940d2ed71663c7d39266ecafac728859",
            "0x0000000000000000000000000000000000000000000000000000000000000000",
            "0x0000000000000000000000009952d25eda1f305fcdb6ca9029520e33a7263ff8",
            "0x0000000000000000000000000000000000000000000000000000000000000000"
          ],
          "data": "0x0000000000000000000000009952d25eda1f305fcdb6ca9029520e33a7263ff800000000000000000000000000000000000000000000000000000016482a1d00",
          "blockHash": "0x041ed4353f31349ae80c0f55a127c18f58e05cac7b935c5330070299e3eb75ea",
          "blockNumber": "0xa93721",
          "blockTimestamp": "0x6a345fc8",
          "transactionHash": "0x0308c12eb2ac99e8a9451c3d2ac4dfde0fd427a642961cf73ad98b9096c1babc",
          "transactionIndex": "0xbf",
          "logIndex": "0x128",
          "removed": false
        },
        {
          "address": "0x8999eac3df09a3f46099130a56c5cb1e9d79ba2a",
          "topics": [
            "0xddf252ad1be2c89b69c2b068fc378daa952ba7f163c4a11628f55a4df523b3ef",
            "0x000000000000000000000000e03a1074c86cfedd5c142c4f04f1a1536e203543",
            "0x000000000000000000000000f93e7518f79c2e1978d6862dbf161270040e623e"
          ],
          "data": "0x000000000000000000000000000000000000000000000000014045a1e277baa2",
          "blockHash": "0x041ed4353f31349ae80c0f55a127c18f58e05cac7b935c5330070299e3eb75ea",
          "blockNumber": "0xa93721",
          "blockTimestamp": "0x6a345fc8",
          "transactionHash": "0x0308c12eb2ac99e8a9451c3d2ac4dfde0fd427a642961cf73ad98b9096c1babc",
          "transactionIndex": "0xbf",
          "logIndex": "0x129",
          "removed": false
        }
      ],
      "logsBloom": "0x00000000000000000000200000000000000000000000001000000000800000000000000000000000000000000000002000000100040000200000000040040000000000000000000000000008000004000000000000040020000000000000000000000000020100000000000080000800000000000000100400000010000040000000000000000000000010000000040000000000000000000000000000180001000002000000000000000000000020000000000000040000000000000000180000000002000000000000000000000000000000002000000000001000000060011000000000000000004000000010000000000000000000000000000004001000",
      "transactionHash": "0x0308c12eb2ac99e8a9451c3d2ac4dfde0fd427a642961cf73ad98b9096c1babc",
      "transactionIndex": "0xbf",
      "blockHash": "0x041ed4353f31349ae80c0f55a127c18f58e05cac7b935c5330070299e3eb75ea",
      "blockNumber": "0xa93721",
      "gasUsed": "0x29a76",
      "effectiveGasPrice": "0x40671b20",
      "from": "0xf93e7518f79c2e1978d6862dbf161270040e623e",
      "to": "0x00000000000044a361ae3cac094c9d1b14eece97",
      "contractAddress": null
    },
    {
      "type": "0x2",
      "status": "0x1",
      "cumulativeGasUsed": "0xa1bb01",
      "logs": [
        {
          "address": "0xe03a1074c86cfedd5c142c4f04f1a1536e203543",
          "topics": [
            "0x1b3d7edb2e9c0b0e7c525b20aaaef0f5940d2ed71663c7d39266ecafac728859",
            "0x0000000000000000000000009952d25eda1f305fcdb6ca9029520e33a7263ff8",
            "0x0000000000000000000000000000000000000000000000000000000000000000",
            "0x0000000000000000000000000000000000000000000000000000000000000000"
          ],
          "data": "0x0000000000000000000000009952d25eda1f305fcdb6ca9029520e33a7263ff800000000000000000000000000000000000000000000000000000016482a1d00",
          "blockHash": "0x2c92b0f58affb485ecf7210f9fbe41dba09b8bdec9e4ecf066f24f7855d18c18",
          "blockNumber": "0xa93722",
          "blockTimestamp": "0x6a345fd4",
          "transactionHash": "0x0a9344e497c9523266fa9893226f9ada743cc49c79f83cd1f975185b83aa4055",
          "transactionIndex": "0xa6",
          "logIndex": "0xff",
          "removed": false
        },
        {
          "address": "0x55c6aedc9d5384f00aecd3515556a150e272168b",
          "topics": [
            "0x6c07ee05dcf262f13abf9d87b846ee789d2f90fe991d495acd7d7fc109ee1f55"
          ],
          "data": "0x00000000000000000000000000000000000000000000000000000011d354e4000000000000000000000000000000000000000000000000000000000000093a80",
          "blockHash": "0x2c92b0f58affb485ecf7210f9fbe41dba09b8bdec9e4ecf066f24f7855d18c18",
          "blockNumber": "0xa93722",
          "blockTimestamp": "0x6a345fd4",
          "transactionHash": "0x0a9344e497c9523266fa9893226f9ada743cc49c79f83cd1f975185b83aa4055",
          "transactionIndex": "0xa6",
          "logIndex": "0x100",
          "removed": false
        },
        {
          "address": "0x9952d25eda1f305fcdb6ca9029520e33a7263ff8",
          "topics": [
            "0xda378dba4f1dc8c7a566c70096e0389c466cb99cc2ec74173afd50c7b652ca09"
          ],
          "data": "0x00000000000000000000000000000000000000000000000000000011d354e4000000000000000000000000000000000000000000000000000000000474d53900",
          "blockHash": "0x2c92b0f58affb485ecf7210f9fbe41dba09b8bdec9e4ecf066f24f7855d18c18",
          "blockNumber": "0xa93722",
          "blockTimestamp": "0x6a345fd4",
          "transactionHash": "0x0a9344e497c9523266fa9893226f9ada743cc49c79f83cd1f975185b83aa4055",
          "transactionIndex": "0xa6",
          "logIndex": "0x101",
          "removed": false
        }
      ],
      "logsBloom": "0x00000000000000000000000000000000000001000000000000000000000000000000000000000000000000000000000000000100000000000000000000000000000000000000000000000000000004000000200000000000000000000000000001000000020100000000000000000800000800000000100000000000000000000000000000000000000000000000040000000000000000000000000000000000000002000000000000000000000020000010000000040000000000000008080000000000000000000001000000000000020000002000000000000100000020001000000000000000000000000000000000000000000000000000000004000000",
      "transactionHash": "0x0a9344e497c9523266fa9893226f9ada743cc49c79f83cd1f975185b83aa4055",
      "transactionIndex": "0xa6",
      "blockHash": "0x2c92b0f58affb485ecf7210f9fbe41dba09b8bdec9e4ecf066f24f7855d18c18",
      "blockNumber": "0xa93722",
      "gasUsed": "0x1cede",
      "effectiveGasPrice": "0x3e83d291",
      "from": "0xf93e7518f79c2e1978d6862dbf161270040e623e",
      "to": "0x9952d25eda1f305fcdb6ca9029520e33a7263ff8",
      "contractAddress": null
    },
    {
      "type": "0x2",
      "status": "0x1",
      "cumulativeGasUsed": "0xe2ae56",
      "logs": [
        {
          "address": "0x9952d25eda1f305fcdb6ca9029520e33a7263ff8",
          "topics": [
            "0xeb18042c63a6494302e2e34ca89562fb59d5b25ded99d617905bdd7c4f891f03",
            "0x0000000000000000000000000000000000000000000000000000000000000000",
            "0x0000000000000000000000000000000000000000000000000000000000000000"
          ],
          "data": "0x0000000000000000000000000000000000000000000000000000c2d052e93000",
          "blockHash": "0x0a66c3e6986fcac9122a0db2b3c040887ef6f98b78e334eb935a3982add423db",
          "blockNumber": "0xa93723",
          "blockTimestamp": "0x6a345fe0",
          "transactionHash": "0x7a054eaf2fa83f2024ac342a3a85ac4ffa65881ec139b04c46cdec1e78bb76ca",
          "transactionIndex": "0xca",
          "logIndex": "0x11d",
          "removed": false
        },
        {
          "address": "0xe03a1074c86cfedd5c142c4f04f1a1536e203543",
          "topics": [
            "0x40e9cecb9f5f1f1c5b9c97dec2917b7ee92e57ba5563708daca94dd84ad7112f",
            "0x81d74c428ad55494ca858ba05cc806c16a7c196832d4b9885b8dd3d05457654a",
            "0x00000000000000000000000000000000000044a361ae3cac094c9d1b14eece97"
          ],
          "data": "0x00000000000000000000000000000000000000000000000000000001d306537dfffffffffffffffffffffffffffffffffffffffffffffffffffd3551ae22b000000000000000000000000000000000000000013c356946410d5c7f408a5464e2000000000000000000000000000000000000000000000001d29c192d99ad95a7000000000000000000000000000000000000000000000000000000000001c1bd0000000000000000000000000000000000000000000000000000000000000bb8",
          "blockHash": "0x0a66c3e6986fcac9122a0db2b3c040887ef6f98b78e334eb935a3982add423db",
          "blockNumber": "0xa93723",
          "blockTimestamp": "0x6a345fe0",
          "transactionHash": "0x7a054eaf2fa83f2024ac342a3a85ac4ffa65881ec139b04c46cdec1e78bb76ca",
          "transactionIndex": "0xca",
          "logIndex": "0x11e",
          "removed": false
        },
        {
          "address": "0xe03a1074c86cfedd5c142c4f04f1a1536e203543",
          "topics": [
            "0x1b3d7edb2e9c0b0e7c525b20aaaef0f5940d2ed71663c7d39266ecafac728859",
            "0x0000000000000000000000000000000000000000000000000000000000000000",
            "0x0000000000000000000000009952d25eda1f305fcdb6ca9029520e33a7263ff8",
            "0x0000000000000000000000008999eac3df09a3f46099130a56c5cb1e9d79ba2a"
          ],
          "data": "0x0000000000000000000000009952d25eda1f305fcdb6ca9029520e33a7263ff80000000000000000000000000000000000000000000000000000c2d052e93000",
          "blockHash": "0x0a66c3e6986fcac9122a0db2b3c040887ef6f98b78e334eb935a3982add423db",
          "blockNumber": "0xa93723",
          "blockTimestamp": "0x6a345fe0",
          "transactionHash": "0x7a054eaf2fa83f2024ac342a3a85ac4ffa65881ec139b04c46cdec1e78bb76ca",
          "transactionIndex": "0xca",
          "logIndex": "0x11f",
          "removed": false
        },
        {
          "address": "0x8999eac3df09a3f46099130a56c5cb1e9d79ba2a",
          "topics": [
            "0xddf252ad1be2c89b69c2b068fc378daa952ba7f163c4a11628f55a4df523b3ef",
            "0x000000000000000000000000f93e7518f79c2e1978d6862dbf161270040e623e",
            "0x000000000000000000000000e03a1074c86cfedd5c142c4f04f1a1536e203543"
          ],
          "data": "0x00000000000000000000000000000000000000000000000000038d7ea4c68000",
          "blockHash": "0x0a66c3e6986fcac9122a0db2b3c040887ef6f98b78e334eb935a3982add423db",
          "blockNumber": "0xa93723",
          "blockTimestamp": "0x6a345fe0",
          "transactionHash": "0x7a054eaf2fa83f2024ac342a3a85ac4ffa65881ec139b04c46cdec1e78bb76ca",
          "transactionIndex": "0xca",
          "logIndex": "0x120",
          "removed": false
        }
      ],
      "logsBloom": "0x00000000000000000000200000000008000000000000001000000000800000000000000000000000000000001000002000000100040000200000000040000000000000000000000000000008000004000000000000000020000000000000000000000000020100000000000080000800000000000000100400000010000040000000000000000000000010000000040000000000000000000000000000180001000002000000000000000000000020000000000000040000000000000000180000000002000000000000000000000000000000002000000000001000000020011000000000000000004000000010000000000004000000000000000004001000",
      "transactionHash": "0x7a054eaf2fa83f2024ac342a3a85ac4ffa65881ec139b04c46cdec1e78bb76ca",
      "transactionIndex": "0xca",
      "blockHash": "0x0a66c3e6986fcac9122a0db2b3c040887ef6f98b78e334eb935a3982add423db",
      "blockNumber": "0xa93723",
      "gasUsed": "0x2bf0c",
      "effectiveGasPrice": "0x3c5709a8",
      "from": "0xf93e7518f79c2e1978d6862dbf161270040e623e",
      "to": "0x00000000000044a361ae3cac094c9d1b14eece97",
      "contractAddress": null
    },
    {
      "type": "0x2",
      "status": "0x1",
      "cumulativeGasUsed": "0xeed8cc",
      "logs": [
        {
          "address": "0xe03a1074c86cfedd5c142c4f04f1a1536e203543",
          "topics": [
            "0x40e9cecb9f5f1f1c5b9c97dec2917b7ee92e57ba5563708daca94dd84ad7112f",
            "0x81d74c428ad55494ca858ba05cc806c16a7c196832d4b9885b8dd3d05457654a",
            "0x0000000000000000000000009952d25eda1f305fcdb6ca9029520e33a7263ff8"
          ],
          "data": "0x000000000000000000000000000000000000000000000000000000007f4e3713ffffffffffffffffffffffffffffffffffffffffffffffffffff3d2fad16d000000000000000000000000000000000000000013c3569b0d0d5cdc1d07282c477000000000000000000000000000000000000000000000001d29c192d99ad95a7000000000000000000000000000000000000000000000000000000000001c1bd0000000000000000000000000000000000000000000000000000000000000bb8",
          "blockHash": "0x2f5ff396804d1ac6db5771880fdbfeabe896358b30d42e6bc91cad78faa569c0",
          "blockNumber": "0xa93725",
          "blockTimestamp": "0x6a345ff8",
          "transactionHash": "0xf2b341310ceaeb8ebec5e8cbc9c650b4bca668cf84258bb4a951c468eef0c1c5",
          "transactionIndex": "0xd4",
          "logIndex": "0x13c",
          "removed": false
        },
        {
          "address": "0xe03a1074c86cfedd5c142c4f04f1a1536e203543",
          "topics": [
            "0x1b3d7edb2e9c0b0e7c525b20aaaef0f5940d2ed71663c7d39266ecafac728859",
            "0x0000000000000000000000009952d25eda1f305fcdb6ca9029520e33a7263ff8",
            "0x0000000000000000000000000000000000000000000000000000000000000000",
            "0x0000000000000000000000008999eac3df09a3f46099130a56c5cb1e9d79ba2a"
          ],
          "data": "0x0000000000000000000000009952d25eda1f305fcdb6ca9029520e33a7263ff80000000000000000000000000000000000000000000000000000c2d052e93000",
          "blockHash": "0x2f5ff396804d1ac6db5771880fdbfeabe896358b30d42e6bc91cad78faa569c0",
          "blockNumber": "0xa93725",
          "blockTimestamp": "0x6a345ff8",
          "transactionHash": "0xf2b341310ceaeb8ebec5e8cbc9c650b4bca668cf84258bb4a951c468eef0c1c5",
          "transactionIndex": "0xd4",
          "logIndex": "0x13d",
          "removed": false
        },
        {
          "address": "0x55c6aedc9d5384f00aecd3515556a150e272168b",
          "topics": [
            "0x6c07ee05dcf262f13abf9d87b846ee789d2f90fe991d495acd7d7fc109ee1f55"
          ],
          "data": "0x0000000000000000000000000000000000000000000000000000000065d82c0f0000000000000000000000000000000000000000000000000000000000093a80",
          "blockHash": "0x2f5ff396804d1ac6db5771880fdbfeabe896358b30d42e6bc91cad78faa569c0",
          "blockNumber": "0xa93725",
          "blockTimestamp": "0x6a345ff8",
          "transactionHash": "0xf2b341310ceaeb8ebec5e8cbc9c650b4bca668cf84258bb4a951c468eef0c1c5",
          "transactionIndex": "0xd4",
          "logIndex": "0x13e",
          "removed": false
        },
        {
          "address": "0x9952d25eda1f305fcdb6ca9029520e33a7263ff8",
          "topics": [
            "0xda378dba4f1dc8c7a566c70096e0389c466cb99cc2ec74173afd50c7b652ca09"
          ],
          "data": "0x0000000000000000000000000000000000000000000000000000000065d82c0f0000000000000000000000000000000000000000000000000000000019760b04",
          "blockHash": "0x2f5ff396804d1ac6db5771880fdbfeabe896358b30d42e6bc91cad78faa569c0",
          "blockNumber": "0xa93725",
          "blockTimestamp": "0x6a345ff8",
          "transactionHash": "0xf2b341310ceaeb8ebec5e8cbc9c650b4bca668cf84258bb4a951c468eef0c1c5",
          "transactionIndex": "0xd4",
          "logIndex": "0x13f",
          "removed": false
        }
      ],
      "logsBloom": "0x00000000000000000000200000000008000001000000000000000000000000000000000000000000000000001000002000000100040000000000000000000000000000000000000000000000000004000000200000000020000000000000000001000000020100000000000000000800000800000000100000000000000000000000000000000000000000000000040000000000000000000000000000000000000002000000000000000000000020000010000000040000000000000008080000000000000000000001000000000000020000002000000000000100000020001000000000000000004000000010000000000004000000000000000004000000",
      "transactionHash": "0xf2b341310ceaeb8ebec5e8cbc9c650b4bca668cf84258bb4a951c468eef0c1c5",
      "transactionIndex": "0xd4",
      "blockHash": "0x2f5ff396804d1ac6db5771880fdbfeabe896358b30d42e6bc91cad78faa569c0",
      "blockNumber": "0xa93725",
      "gasUsed": "0x2644b",
      "effectiveGasPrice": "0x42237db5",
      "from": "0xf93e7518f79c2e1978d6862dbf161270040e623e",
      "to": "0x9952d25eda1f305fcdb6ca9029520e33a7263ff8",
      "contractAddress": null
    },
    {
      "type": "0x2",
      "status": "0x1",
      "cumulativeGasUsed": "0xb0c096",
      "logs": [
        {
          "address": "0x8999eac3df09a3f46099130a56c5cb1e9d79ba2a",
          "topics": [
            "0x9e71bc8eea02a63969f509818f2dafb9254532904319f9dbda79b67bd34a5f3d",
            "0x000000000000000000000000f93e7518f79c2e1978d6862dbf161270040e623e"
          ],
          "data": "0x0000000000000000000000000000000000000000000000056bc75e2d63100000",
          "blockHash": "0x9ca1d5bc84cda4fe469a0b7c140d4d3b2bb3432f783f0d3c42f45893127b8e80",
          "blockNumber": "0xa93726",
          "blockTimestamp": "0x6a346004",
          "transactionHash": "0xdb4cbf3990271da22eb7ec09a064ab635a39aed8f893ad68df955f84e5e1c981",
          "transactionIndex": "0xa8",
          "logIndex": "0x119",
          "removed": false
        },
        {
          "address": "0x55c6aedc9d5384f00aecd3515556a150e272168b",
          "topics": [
            "0x1449c6dd7851abc30abf37f57715f492010519147cc2652fbc38202c18a6ee90",
            "0x000000000000000000000000f93e7518f79c2e1978d6862dbf161270040e623e"
          ],
          "data": "0x0000000000000000000000000000000000000000000000056bc75e2d63100000000000000000000000000000000000000000000000000015af1d78b58c400000",
          "blockHash": "0x9ca1d5bc84cda4fe469a0b7c140d4d3b2bb3432f783f0d3c42f45893127b8e80",
          "blockNumber": "0xa93726",
          "blockTimestamp": "0x6a346004",
          "transactionHash": "0xdb4cbf3990271da22eb7ec09a064ab635a39aed8f893ad68df955f84e5e1c981",
          "transactionIndex": "0xa8",
          "logIndex": "0x11a",
          "removed": false
        }
      ],
      "logsBloom": "0x00000000000000000000000000000000000001000800000000100000800200000000000000000000000000000000000000000000000000200000000000000000000000000000000000000000000000000000000000000000000000000000000040000000000000000008000000000000000000000000000400000000000000000000100000000000000000000000000000000000000000000000000000100001000000000000000000000000000000000010000000000000000000000000100000000000000000000000000000000000020000000000000000000000000000000000000000000000000000000000000000000000000000000000000000000000",
      "transactionHash": "0xdb4cbf3990271da22eb7ec09a064ab635a39aed8f893ad68df955f84e5e1c981",
      "transactionIndex": "0xa8",
      "blockHash": "0x9ca1d5bc84cda4fe469a0b7c140d4d3b2bb3432f783f0d3c42f45893127b8e80",
      "blockNumber": "0xa93726",
      "gasUsed": "0x1ffe8",
      "effectiveGasPrice": "0x402ba357",
      "from": "0xf93e7518f79c2e1978d6862dbf161270040e623e",
      "to": "0x55c6aedc9d5384f00aecd3515556a150e272168b",
      "contractAddress": null
    },
    {
      "type": "0x2",
      "status": "0x1",
      "cumulativeGasUsed": "0x152deb4",
      "logs": [
        {
          "address": "0x9952d25eda1f305fcdb6ca9029520e33a7263ff8",
          "topics": [
            "0xeb18042c63a6494302e2e34ca89562fb59d5b25ded99d617905bdd7c4f891f03",
            "0x0000000000000000000000000000000000000000000000000000000000000001",
            "0x0000000000000000000000000000000000000000000000000000000000000001"
          ],
          "data": "0x0000000000000000000000000000000000000000000000000000001642343c00",
          "blockHash": "0x0187cede46e2f24e98221739913ebe19f867ac8f3cc494186a542897db5aabcd",
          "blockNumber": "0xa93727",
          "blockTimestamp": "0x6a346010",
          "transactionHash": "0x2f8454d8107856d0be97c80db8e66aef7a56fbf8104226e29865825f11d4a5f2",
          "transactionIndex": "0xd7",
          "logIndex": "0x136",
          "removed": false
        },
        {
          "address": "0xe03a1074c86cfedd5c142c4f04f1a1536e203543",
          "topics": [
            "0x40e9cecb9f5f1f1c5b9c97dec2917b7ee92e57ba5563708daca94dd84ad7112f",
            "0x81d74c428ad55494ca858ba05cc806c16a7c196832d4b9885b8dd3d05457654a",
            "0x00000000000000000000000000000000000044a361ae3cac094c9d1b14eece97"
          ],
          "data": "0xffffffffffffffffffffffffffffffffffffffffffffffffffffff2d6d8f2c0000000000000000000000000000000000000000000000000001404d52e2b89ba7000000000000000000000000000000000000013c34b9f5f0d946e2739e8c8ceb000000000000000000000000000000000000000000000001d29c192d99ad95a7000000000000000000000000000000000000000000000000000000000001c1bd0000000000000000000000000000000000000000000000000000000000000bb8",
          "blockHash": "0x0187cede46e2f24e98221739913ebe19f867ac8f3cc494186a542897db5aabcd",
          "blockNumber": "0xa93727",
          "blockTimestamp": "0x6a346010",
          "transactionHash": "0x2f8454d8107856d0be97c80db8e66aef7a56fbf8104226e29865825f11d4a5f2",
          "transactionIndex": "0xd7",
          "logIndex": "0x137",
          "removed": false
        },
        {
          "address": "0xe03a1074c86cfedd5c142c4f04f1a1536e203543",
          "topics": [
            "0x1b3d7edb2e9c0b0e7c525b20aaaef0f5940d2ed71663c7d39266ecafac728859",
            "0x0000000000000000000000000000000000000000000000000000000000000000",
            "0x0000000000000000000000009952d25eda1f305fcdb6ca9029520e33a7263ff8",
            "0x0000000000000000000000000000000000000000000000000000000000000000"
          ],
          "data": "0x0000000000000000000000009952d25eda1f305fcdb6ca9029520e33a7263ff80000000000000000000000000000000000000000000000000000001642343c00",
          "blockHash": "0x0187cede46e2f24e98221739913ebe19f867ac8f3cc494186a542897db5aabcd",
          "blockNumber": "0xa93727",
          "blockTimestamp": "0x6a346010",
          "transactionHash": "0x2f8454d8107856d0be97c80db8e66aef7a56fbf8104226e29865825f11d4a5f2",
          "transactionIndex": "0xd7",
          "logIndex": "0x138",
          "removed": false
        },
        {
          "address": "0x8999eac3df09a3f46099130a56c5cb1e9d79ba2a",
          "topics": [
            "0xddf252ad1be2c89b69c2b068fc378daa952ba7f163c4a11628f55a4df523b3ef",
            "0x000000000000000000000000e03a1074c86cfedd5c142c4f04f1a1536e203543",
            "0x000000000000000000000000f93e7518f79c2e1978d6862dbf161270040e623e"
          ],
          "data": "0x00000000000000000000000000000000000000000000000001404d52e2b89ba7",
          "blockHash": "0x0187cede46e2f24e98221739913ebe19f867ac8f3cc494186a542897db5aabcd",
          "blockNumber": "0xa93727",
          "blockTimestamp": "0x6a346010",
          "transactionHash": "0x2f8454d8107856d0be97c80db8e66aef7a56fbf8104226e29865825f11d4a5f2",
          "transactionIndex": "0xd7",
          "logIndex": "0x139",
          "removed": false
        }
      ],
      "logsBloom": "0x00000000000000000000200000000000000000000000001000000000800000000000000000000000000000000000002000000100040000200000000040040000000000000000000000000008000004000000000000040020000000000000000000000000020100000000000080000800000000000000100400000010000040000000000000000000000010000000040000000000000000000000000000180001000002000000000000000000000020000000000000040000000000000000180000000002000000000000000000000000000000002000000000001000000060011000000000000000004000000010000000000000000000000000000004001000",
      "transactionHash": "0x2f8454d8107856d0be97c80db8e66aef7a56fbf8104226e29865825f11d4a5f2",
      "transactionIndex": "0xd7",
      "blockHash": "0x0187cede46e2f24e98221739913ebe19f867ac8f3cc494186a542897db5aabcd",
      "blockNumber": "0xa93727",
      "gasUsed": "0x2e832",
      "effectiveGasPrice": "0x3bde90ca",
      "from": "0xf93e7518f79c2e1978d6862dbf161270040e623e",
      "to": "0x00000000000044a361ae3cac094c9d1b14eece97",
      "contractAddress": null
    },
    {
      "type": "0x2",
      "status": "0x1",
      "cumulativeGasUsed": "0x1886418",
      "logs": [
        {
          "address": "0xe03a1074c86cfedd5c142c4f04f1a1536e203543",
          "topics": [
            "0x1b3d7edb2e9c0b0e7c525b20aaaef0f5940d2ed71663c7d39266ecafac728859",
            "0x0000000000000000000000009952d25eda1f305fcdb6ca9029520e33a7263ff8",
            "0x0000000000000000000000000000000000000000000000000000000000000000",
            "0x0000000000000000000000000000000000000000000000000000000000000000"
          ],
          "data": "0x0000000000000000000000009952d25eda1f305fcdb6ca9029520e33a7263ff80000000000000000000000000000000000000000000000000000001642343c00",
          "blockHash": "0xccbee3a62a97e8b60742da31f630f74db944b7ba8c8f4079ce19f4cc857875ea",
          "blockNumber": "0xa9372b",
          "blockTimestamp": "0x6a346040",
          "transactionHash": "0x83c0e81b0025db3354014dfb7ec405fdc76646804691e73d7f55a5b9ff7fb021",
          "transactionIndex": "0x112",
          "logIndex": "0x550",
          "removed": false
        },
        {
          "address": "0x55c6aedc9d5384f00aecd3515556a150e272168b",
          "topics": [
            "0x6c07ee05dcf262f13abf9d87b846ee789d2f90fe991d495acd7d7fc109ee1f55"
          ],
          "data": "0x00000000000000000000000000000000000000000000000000000011ce9030000000000000000000000000000000000000000000000000000000000000093a80",
          "blockHash": "0xccbee3a62a97e8b60742da31f630f74db944b7ba8c8f4079ce19f4cc857875ea",
          "blockNumber": "0xa9372b",
          "blockTimestamp": "0x6a346040",
          "transactionHash": "0x83c0e81b0025db3354014dfb7ec405fdc76646804691e73d7f55a5b9ff7fb021",
          "transactionIndex": "0x112",
          "logIndex": "0x551",
          "removed": false
        },
        {
          "address": "0x9952d25eda1f305fcdb6ca9029520e33a7263ff8",
          "topics": [
            "0xda378dba4f1dc8c7a566c70096e0389c466cb99cc2ec74173afd50c7b652ca09"
          ],
          "data": "0x00000000000000000000000000000000000000000000000000000011ce9030000000000000000000000000000000000000000000000000000000000473a40c00",
          "blockHash": "0xccbee3a62a97e8b60742da31f630f74db944b7ba8c8f4079ce19f4cc857875ea",
          "blockNumber": "0xa9372b",
          "blockTimestamp": "0x6a346040",
          "transactionHash": "0x83c0e81b0025db3354014dfb7ec405fdc76646804691e73d7f55a5b9ff7fb021",
          "transactionIndex": "0x112",
          "logIndex": "0x552",
          "removed": false
        }
      ],
      "logsBloom": "0x00000000000000000000000000000000000001000000000000000000000000000000000000000000000000000000000000000100000000000000000000000000000000000000000000000000000004000000200000000000000000000000000001000000020100000000000000000800000800000000100000000000000000000000000000000000000000000000040000000000000000000000000000000000000002000000000000000000000020000010000000040000000000000008080000000000000000000001000000000000020000002000000000000100000020001000000000000000000000000000000000000000000000000000000004000000",
      "transactionHash": "0x83c0e81b0025db3354014dfb7ec405fdc76646804691e73d7f55a5b9ff7fb021",
      "transactionIndex": "0x112",
      "blockHash": "0xccbee3a62a97e8b60742da31f630f74db944b7ba8c8f4079ce19f4cc857875ea",
      "blockNumber": "0xa9372b",
      "gasUsed": "0x1cede",
      "effectiveGasPrice": "0x3f1f20e8",
      "from": "0xf93e7518f79c2e1978d6862dbf161270040e623e",
      "to": "0x9952d25eda1f305fcdb6ca9029520e33a7263ff8",
      "contractAddress": null
    },
    {
      "type": "0x2",
      "status": "0x1",
      "cumulativeGasUsed": "0x1148e96",
      "logs": [
        {
          "address": "0x55c6aedc9d5384f00aecd3515556a150e272168b",
          "topics": [
            "0xe2403640ba68fed3a2f88b7557551d1993f84b99bb10ff833f0cf8db0c5e0486",
            "0x000000000000000000000000f93e7518f79c2e1978d6862dbf161270040e623e"
          ],
          "data": "0x000000000000000000000000000000000000000000000000000000001000467c",
          "blockHash": "0xef28e1c6a127f63abe7dc75c9653f713a8652687efbaba2aecd16b8ae23c1bfe",
          "blockNumber": "0xa9372c",
          "blockTimestamp": "0x6a34604c",
          "transactionHash": "0xa1f73c37572b0099d487018e2e68153a9656a315156817fa4c98ebc8578641f8",
          "transactionIndex": "0xa0",
          "logIndex": "0x4e1",
          "removed": false
        }
      ],
      "logsBloom": "0x00000000000000000000000000000000000001008000000000000000800000000000000000000000000000000000000000000000000000200000000000000000000000000000000000000000000000000000000000000000000000000000000000000000000000000000000000000000000000000000000000000000000000000000000100000000000000000800000000000000000000000000000000100000000000000000000000000000000000000010000000000000000000000000000000000000000000000000000000000000020000000000000000000000000000000000000000000000000000000000000000000000000000000000000000000000",
      "transactionHash": "0xa1f73c37572b0099d487018e2e68153a9656a315156817fa4c98ebc8578641f8",
      "transactionIndex": "0xa0",
      "blockHash": "0xef28e1c6a127f63abe7dc75c9653f713a8652687efbaba2aecd16b8ae23c1bfe",
      "blockNumber": "0xa9372c",
      "gasUsed": "0xe4ef",
      "effectiveGasPrice": "0x40526753",
      "from": "0xf93e7518f79c2e1978d6862dbf161270040e623e",
      "to": "0x55c6aedc9d5384f00aecd3515556a150e272168b",
      "contractAddress": null
    }
  ],
  "libraries": [],
  "pending": [],
  "returns": {},
  "timestamp": 1781817435751,
  "chain": 11155111,
  "commit": "2572d96"
}