{
  "transactions": [
    {
      "hash": "0xe94c80eb172294dde141876725c6587ca3d126b7cd4688d5bec3f4aaca2a787a",
      "transactionType": "CALL",
      "contractName": null,
      "contractAddress": "0xfc62b06914a59b5ce926da4c8051a5859eaff387",
      "function": "approve(address,uint256)",
      "arguments": [
        "0x000000000022D473030F116dDEE9F6B43aC78BA3",
        "115792089237316195423570985008687907853269984665640564039457584007913129639935"
      ],
      "transaction": {
        "from": "0xf93e7518f79c2e1978d6862dbf161270040e623e",
        "to": "0xfc62b06914a59b5ce926da4c8051a5859eaff387",
        "gas": "0x9681",
        "value": "0x0",
        "input": "0x095ea7b3000000000000000000000000000000000022d473030f116ddee9f6b43ac78ba3ffffffffffffffffffffffffffffffffffffffffffffffffffffffffffffffff",
        "nonce": "0x533",
        "chainId": "0xaa36a7"
      },
      "additionalContracts": [],
      "isFixedGasLimit": false
    },
    {
      "hash": "0x702bba22994487c055431c167f3f6e1c2200655dced16536d006941dafa3a0cd",
      "transactionType": "CALL",
      "contractName": null,
      "contractAddress": "0x000000000022d473030f116ddee9f6b43ac78ba3",
      "function": "approve(address,address,uint160,uint48)",
      "arguments": [
        "0xFC62b06914A59B5cE926DA4C8051A5859EAFf387",
        "0x429ba70129df741B2Ca2a85BC3A2a3328e5c09b4",
        "1461501637330902918203684832716283019655932542975",
        "1782066708"
      ],
      "transaction": {
        "from": "0xf93e7518f79c2e1978d6862dbf161270040e623e",
        "to": "0x000000000022d473030f116ddee9f6b43ac78ba3",
        "gas": "0xa59b",
        "value": "0x0",
        "input": "0x87517c45000000000000000000000000fc62b06914a59b5ce926da4c8051a5859eaff387000000000000000000000000429ba70129df741b2ca2a85bc3a2a3328e5c09b4000000000000000000000000ffffffffffffffffffffffffffffffffffffffff000000000000000000000000000000000000000000000000000000006a382e14",
        "nonce": "0x534",
        "chainId": "0xaa36a7"
      },
      "additionalContracts": [],
      "isFixedGasLimit": false
    },
    {
      "hash": "0xa165a5d0e6a9f93b42ef2ce4831cfc6033cfc0913ec8c487864446e2ab1aaab1",
      "transactionType": "CALL",
      "contractName": null,
      "contractAddress": "0x000000000022d473030f116ddee9f6b43ac78ba3",
      "function": "approve(address,address,uint160,uint48)",
      "arguments": [
        "0xFC62b06914A59B5cE926DA4C8051A5859EAFf387",
        "0x00000000000044a361Ae3cAc094c9D1b14Eece97",
        "1461501637330902918203684832716283019655932542975",
        "1782066708"
      ],
      "transaction": {
        "from": "0xf93e7518f79c2e1978d6862dbf161270040e623e",
        "to": "0x000000000022d473030f116ddee9f6b43ac78ba3",
        "gas": "0x110a1",
        "value": "0x0",
        "input": "0x87517c45000000000000000000000000fc62b06914a59b5ce926da4c8051a5859eaff38700000000000000000000000000000000000044a361ae3cac094c9d1b14eece97000000000000000000000000ffffffffffffffffffffffffffffffffffffffff000000000000000000000000000000000000000000000000000000006a382e14",
        "nonce": "0x535",
        "chainId": "0xaa36a7"
      },
      "additionalContracts": [],
      "isFixedGasLimit": false
    },
    {
      "hash": "0x300362c946b4b54e4f1eda68b414111cc405604dd732237ce18725212fab0d5e",
      "transactionType": "CALL",
      "contractName": null,
      "contractAddress": "0xfc62b06914a59b5ce926da4c8051a5859eaff387",
      "function": "approve(address,uint256)",
      "arguments": [
        "0x00000000000044a361Ae3cAc094c9D1b14Eece97",
        "115792089237316195423570985008687907853269984665640564039457584007913129639935"
      ],
      "transaction": {
        "from": "0xf93e7518f79c2e1978d6862dbf161270040e623e",
        "to": "0xfc62b06914a59b5ce926da4c8051a5859eaff387",
        "gas": "0x1081f",
        "value": "0x0",
        "input": "0x095ea7b300000000000000000000000000000000000044a361ae3cac094c9d1b14eece97ffffffffffffffffffffffffffffffffffffffffffffffffffffffffffffffff",
        "nonce": "0x536",
        "chainId": "0xaa36a7"
      },
      "additionalContracts": [],
      "isFixedGasLimit": false
    },
    {
      "hash": "0xe02b494deec7f0f00e0b0395e1f65ed525f29cf5ccebc169fc9f721eb3de1431",
      "transactionType": "CALL",
      "contractName": null,
      "contractAddress": "0xfc62b06914a59b5ce926da4c8051a5859eaff387",
      "function": "approve(address,uint256)",
      "arguments": [
        "0x2b1B0a50139c62b5387550b71005B2BBE1C83aE3",
        "115792089237316195423570985008687907853269984665640564039457584007913129639935"
      ],
      "transaction": {
        "from": "0xf93e7518f79c2e1978d6862dbf161270040e623e",
        "to": "0xfc62b06914a59b5ce926da4c8051a5859eaff387",
        "gas": "0x10888",
        "value": "0x0",
        "input": "0x095ea7b30000000000000000000000002b1b0a50139c62b5387550b71005b2bbe1c83ae3ffffffffffffffffffffffffffffffffffffffffffffffffffffffffffffffff",
        "nonce": "0x537",
        "chainId": "0xaa36a7"
      },
      "additionalContracts": [],
      "isFixedGasLimit": false
    },
    {
      "hash": "0x286b349b5031c05b72b9520dfc4c16d8b935d2ca3e76d269137ab594bd013f0d",
      "transactionType": "CALL",
      "contractName": null,
      "contractAddress": "0x00000000000044a361ae3cac094c9d1b14eece97",
      "function": "swapExactTokensForTokens(uint256,uint256,bool,(address,address,uint24,int24,address),bytes,address,uint256)",
      "arguments": [
        "1000000000000",
        "0",
        "true",
        "(0x0000000000000000000000000000000000000000, 0xFC62b06914A59B5cE926DA4C8051A5859EAFf387, 3000, 60, 0x04D15375DdC492C3DbfEe22FfB9Bfb4B08f4FFF8)",
        "0x",
        "0xF93E7518F79C2E1978D6862Dbf161270040e623E",
        "115792089237316195423570985008687907853269984665640564039457584007913129639935"
      ],
      "transaction": {
        "from": "0xf93e7518f79c2e1978d6862dbf161270040e623e",
        "to": "0x00000000000044a361ae3cac094c9d1b14eece97",
        "gas": "0x70c78",
        "value": "0xe8d4a51000",
        "input": "0xb1a0d571000000000000000000000000000000000000000000000000000000e8d4a51000000000000000000000000000000000000000000000000000000000000000000000000000000000000000000000000000000000000000000000000000000000010000000000000000000000000000000000000000000000000000000000000000000000000000000000000000fc62b06914a59b5ce926da4c8051a5859eaff3870000000000000000000000000000000000000000000000000000000000000bb8000000000000000000000000000000000000000000000000000000000000003c00000000000000000000000004d15375ddc492c3dbfee22ffb9bfb4b08f4fff80000000000000000000000000000000000000000000000000000000000000160000000000000000000000000f93e7518f79c2e1978d6862dbf161270040e623effffffffffffffffffffffffffffffffffffffffffffffffffffffffffffffff0000000000000000000000000000000000000000000000000000000000000000",
        "nonce": "0x538",
        "chainId": "0xaa36a7"
      },
      "additionalContracts": [],
      "isFixedGasLimit": false
    },
    {
      "hash": "0xf5d5f1b09d1eb5c892a90d8f62369e7c973e1e01368af9f28910df4ae2e877e2",
      "transactionType": "CALL",
      "contractName": null,
      "contractAddress": "0x00000000000044a361ae3cac094c9d1b14eece97",
      "function": "swapExactTokensForTokens(uint256,uint256,bool,(address,address,uint24,int24,address),bytes,address,uint256)",
      "arguments": [
        "1000000000000000",
        "0",
        "false",
        "(0x0000000000000000000000000000000000000000, 0xFC62b06914A59B5cE926DA4C8051A5859EAFf387, 3000, 60, 0x04D15375DdC492C3DbfEe22FfB9Bfb4B08f4FFF8)",
        "0x",
        "0xF93E7518F79C2E1978D6862Dbf161270040e623E",
        "115792089237316195423570985008687907853269984665640564039457584007913129639935"
      ],
      "transaction": {
        "from": "0xf93e7518f79c2e1978d6862dbf161270040e623e",
        "to": "0x00000000000044a361ae3cac094c9d1b14eece97",
        "gas": "0x5bb1f",
        "value": "0x0",
        "input": "0xb1a0d57100000000000000000000000000000000000000000000000000038d7ea4c68000000000000000000000000000000000000000000000000000000000000000000000000000000000000000000000000000000000000000000000000000000000000000000000000000000000000000000000000000000000000000000000000000000000000000000000000000fc62b06914a59b5ce926da4c8051a5859eaff3870000000000000000000000000000000000000000000000000000000000000bb8000000000000000000000000000000000000000000000000000000000000003c00000000000000000000000004d15375ddc492c3dbfee22ffb9bfb4b08f4fff80000000000000000000000000000000000000000000000000000000000000160000000000000000000000000f93e7518f79c2e1978d6862dbf161270040e623effffffffffffffffffffffffffffffffffffffffffffffffffffffffffffffff0000000000000000000000000000000000000000000000000000000000000000",
        "nonce": "0x539",
        "chainId": "0xaa36a7"
      },
      "additionalContracts": [],
      "isFixedGasLimit": false
    }
  ],
  "receipts": [
    {
      "type": "0x2",
      "status": "0x1",
      "cumulativeGasUsed": "0x1038e8a",
      "logs": [
        {
          "address": "0xfc62b06914a59b5ce926da4c8051a5859eaff387",
          "topics": [
            "0x8c5be1e5ebec7d5bd14f71427d1e84f3dd0314c0f7b2291e5b200ac8c7c3b925",
            "0x000000000000000000000000f93e7518f79c2e1978d6862dbf161270040e623e",
            "0x000000000000000000000000000000000022d473030f116ddee9f6b43ac78ba3"
          ],
          "data": "0xffffffffffffffffffffffffffffffffffffffffffffffffffffffffffffffff",
          "blockHash": "0x6a570a17ad31456b86074ea3506caf723cf6d8616cfbd45aea82df97f33bc6ea",
          "blockNumber": "0xa96c0d",
          "blockTimestamp": "0x6a36dcac",
          "transactionHash": "0x300362c946b4b54e4f1eda68b414111cc405604dd732237ce18725212fab0d5e",
          "transactionIndex": "0xd6",
          "logIndex": "0x1ab",
          "removed": false
        }
      ],
      "logsBloom": "0x00000000000000000000000800000000000000000000000000000000800000000000000000000000000000000000000000000000800000200000000000200000000000000000000000004000000000000000000000000800000000200000000000000000000000000000000000000000000000000000000000000000000200000000000000000000000000000000000000000000000000000000000000100000020000000000000000000000000000000000000000000000000000000000000000000000000000000000000000000000000000000000000000000000000000000010000000000000000000000000000000000000000000000000000000000000",
      "transactionHash": "0x300362c946b4b54e4f1eda68b414111cc405604dd732237ce18725212fab0d5e",
      "transactionIndex": "0xd6",
      "blockHash": "0x6a570a17ad31456b86074ea3506caf723cf6d8616cfbd45aea82df97f33bc6ea",
      "blockNumber": "0xa96c0d",
      "gasUsed": "0x66e9",
      "effectiveGasPrice": "0x3d9bed8b",
      "from": "0xf93e7518f79c2e1978d6862dbf161270040e623e",
      "to": "0xfc62b06914a59b5ce926da4c8051a5859eaff387",
      "contractAddress": null
    },
    {
      "type": "0x2",
      "status": "0x1",
      "cumulativeGasUsed": "0x1040670",
      "logs": [
        {
          "address": "0x000000000022d473030f116ddee9f6b43ac78ba3",
          "topics": [
            "0xda9fa7c1b00402c17d0161b249b1ab8bbec047c5a52207b9c112deffd817036b",
            "0x000000000000000000000000f93e7518f79c2e1978d6862dbf161270040e623e",
            "0x000000000000000000000000fc62b06914a59b5ce926da4c8051a5859eaff387",
            "0x000000000000000000000000429ba70129df741b2ca2a85bc3a2a3328e5c09b4"
          ],
          "data": "0x000000000000000000000000ffffffffffffffffffffffffffffffffffffffff000000000000000000000000000000000000000000000000000000006a382e14",
          "blockHash": "0x6a570a17ad31456b86074ea3506caf723cf6d8616cfbd45aea82df97f33bc6ea",
          "blockNumber": "0xa96c0d",
          "blockTimestamp": "0x6a36dcac",
          "transactionHash": "0x286b349b5031c05b72b9520dfc4c16d8b935d2ca3e76d269137ab594bd013f0d",
          "transactionIndex": "0xd7",
          "logIndex": "0x1ac",
          "removed": false
        }
      ],
      "logsBloom": "0x00010000000000000000000000000000000000000000000000000000800000000000000000000040080000000000000000000000000000200000000040080000000000000000000000000000000000000000000000000000000000000000000000000000000000000000000000000000000000000000000000000800000000000020000000000000000000000000004000000000000000000000000000100000000000000000008000000000000000000000000000000000000000080000000000000000000000000000000000000000000000000000000040000000000000000000000000000000000000000000000000000000000000000000000000000400",
      "transactionHash": "0x286b349b5031c05b72b9520dfc4c16d8b935d2ca3e76d269137ab594bd013f0d",
      "transactionIndex": "0xd7",
      "blockHash": "0x6a570a17ad31456b86074ea3506caf723cf6d8616cfbd45aea82df97f33bc6ea",
      "blockNumber": "0xa96c0d",
      "gasUsed": "0x77e6",
      "effectiveGasPrice": "0x3d9bed8b",
      "from": "0xf93e7518f79c2e1978d6862dbf161270040e623e",
      "to": "0x000000000022d473030f116ddee9f6b43ac78ba3",
      "contractAddress": null
    },
    {
      "type": "0x2",
      "status": "0x1",
      "cumulativeGasUsed": "0x104c0da",
      "logs": [
        {
          "address": "0x000000000022d473030f116ddee9f6b43ac78ba3",
          "topics": [
            "0xda9fa7c1b00402c17d0161b249b1ab8bbec047c5a52207b9c112deffd817036b",
            "0x000000000000000000000000f93e7518f79c2e1978d6862dbf161270040e623e",
            "0x000000000000000000000000fc62b06914a59b5ce926da4c8051a5859eaff387",
            "0x00000000000000000000000000000000000044a361ae3cac094c9d1b14eece97"
          ],
          "data": "0x000000000000000000000000ffffffffffffffffffffffffffffffffffffffff000000000000000000000000000000000000000000000000000000006a382e14",
          "blockHash": "0x6a570a17ad31456b86074ea3506caf723cf6d8616cfbd45aea82df97f33bc6ea",
          "blockNumber": "0xa96c0d",
          "blockTimestamp": "0x6a36dcac",
          "transactionHash": "0xe94c80eb172294dde141876725c6587ca3d126b7cd4688d5bec3f4aaca2a787a",
          "transactionIndex": "0xd8",
          "logIndex": "0x1ad",
          "removed": false
        }
      ],
      "logsBloom": "0x00010000000000000000000000000000000000000000000000000000800000000000000000000000000000000000000000000000000000200000000040080000000000000000000000000000000000000000000000000000000000000000000000000000000000000000000000000000000000000000000000000000000040000020000000000000000000000000004000000000000000000000000000100000000000000000008000000000000000000000000000000000000000080000000000000000000000000000000000000000000000000000000040000000000000010000000000000000000000000000000000000000000000000000000000000400",
      "transactionHash": "0xe94c80eb172294dde141876725c6587ca3d126b7cd4688d5bec3f4aaca2a787a",
      "transactionIndex": "0xd8",
      "blockHash": "0x6a570a17ad31456b86074ea3506caf723cf6d8616cfbd45aea82df97f33bc6ea",
      "blockNumber": "0xa96c0d",
      "gasUsed": "0xba6a",
      "effectiveGasPrice": "0x3d9bed8b",
      "from": "0xf93e7518f79c2e1978d6862dbf161270040e623e",
      "to": "0x000000000022d473030f116ddee9f6b43ac78ba3",
      "contractAddress": null
    },
    {
      "type": "0x2",
      "status": "0x1",
      "cumulativeGasUsed": "0x1057573",
      "logs": [
        {
          "address": "0xfc62b06914a59b5ce926da4c8051a5859eaff387",
          "topics": [
            "0x8c5be1e5ebec7d5bd14f71427d1e84f3dd0314c0f7b2291e5b200ac8c7c3b925",
            "0x000000000000000000000000f93e7518f79c2e1978d6862dbf161270040e623e",
            "0x00000000000000000000000000000000000044a361ae3cac094c9d1b14eece97"
          ],
          "data": "0xffffffffffffffffffffffffffffffffffffffffffffffffffffffffffffffff",
          "blockHash": "0x6a570a17ad31456b86074ea3506caf723cf6d8616cfbd45aea82df97f33bc6ea",
          "blockNumber": "0xa96c0d",
          "blockTimestamp": "0x6a36dcac",
          "transactionHash": "0xe02b494deec7f0f00e0b0395e1f65ed525f29cf5ccebc169fc9f721eb3de1431",
          "transactionIndex": "0xd9",
          "logIndex": "0x1ae",
          "removed": false
        }
      ],
      "logsBloom": "0x00000000000000000000000800000000000000000000000000000000800000000000000000000000000000000000000000000000000000200000000040200000000000000000000000000000000000000000000000000000000000200000000000000000000000000000000000000000000000000000000000000000000240000000000000000000000000000000000000000000000000000000000000100000020000000000000000000000000000000000000000000000000000000000000000000000000000000000000000000000000000000000000000000000000000010010000000000000000000000000000000000000000000000000000000000000",
      "transactionHash": "0xe02b494deec7f0f00e0b0395e1f65ed525f29cf5ccebc169fc9f721eb3de1431",
      "transactionIndex": "0xd9",
      "blockHash": "0x6a570a17ad31456b86074ea3506caf723cf6d8616cfbd45aea82df97f33bc6ea",
      "blockNumber": "0xa96c0d",
      "gasUsed": "0xb499",
      "effectiveGasPrice": "0x3d9bed8b",
      "from": "0xf93e7518f79c2e1978d6862dbf161270040e623e",
      "to": "0xfc62b06914a59b5ce926da4c8051a5859eaff387",
      "contractAddress": null
    },
    {
      "type": "0x2",
      "status": "0x1",
      "cumulativeGasUsed": "0x1062a54",
      "logs": [
        {
          "address": "0xfc62b06914a59b5ce926da4c8051a5859eaff387",
          "topics": [
            "0x8c5be1e5ebec7d5bd14f71427d1e84f3dd0314c0f7b2291e5b200ac8c7c3b925",
            "0x000000000000000000000000f93e7518f79c2e1978d6862dbf161270040e623e",
            "0x0000000000000000000000002b1b0a50139c62b5387550b71005b2bbe1c83ae3"
          ],
          "data": "0xffffffffffffffffffffffffffffffffffffffffffffffffffffffffffffffff",
          "blockHash": "0x6a570a17ad31456b86074ea3506caf723cf6d8616cfbd45aea82df97f33bc6ea",
          "blockNumber": "0xa96c0d",
          "blockTimestamp": "0x6a36dcac",
          "transactionHash": "0x702bba22994487c055431c167f3f6e1c2200655dced16536d006941dafa3a0cd",
          "transactionIndex": "0xda",
          "logIndex": "0x1af",
          "removed": false
        }
      ],
      "logsBloom": "0x00000000000000000000000800000000000000000000000000000000800000000000000000000000000000000000000000000000000000200000000000200000000000000000000008000000000000000000000000000000000002200000000000000000000000000000000000000000000000000000000000000000000200000000000000000000000000000000000000000000000000000000000000100000020000000000000000000000000000000000000000000000000000000000000000000000000000000000000000000000000000000000000000000000000001000010000000000000000000000000000000000000000000000000000000000000",
      "transactionHash": "0x702bba22994487c055431c167f3f6e1c2200655dced16536d006941dafa3a0cd",
      "transactionIndex": "0xda",
      "blockHash": "0x6a570a17ad31456b86074ea3506caf723cf6d8616cfbd45aea82df97f33bc6ea",
      "blockNumber": "0xa96c0d",
      "gasUsed": "0xb4e1",
      "effectiveGasPrice": "0x3d9bed8b",
      "from": "0xf93e7518f79c2e1978d6862dbf161270040e623e",
      "to": "0xfc62b06914a59b5ce926da4c8051a5859eaff387",
      "contractAddress": null
    },
    {
      "type": "0x2",
      "status": "0x1",
      "cumulativeGasUsed": "0x10b44bc",
      "logs": [
        {
          "address": "0x04d15375ddc492c3dbfee22ffb9bfb4b08f4fff8",
          "topics": [
            "0xeb18042c63a6494302e2e34ca89562fb59d5b25ded99d617905bdd7c4f891f03",
            "0x0000000000000000000000000000000000000000000000000000000000000001",
            "0x0000000000000000000000000000000000000000000000000000000000000001"
          ],
          "data": "0x0000000000000000000000000000000000000000000000000000001736954500",
          "blockHash": "0x6a570a17ad31456b86074ea3506caf723cf6d8616cfbd45aea82df97f33bc6ea",
          "blockNumber": "0xa96c0d",
          "blockTimestamp": "0x6a36dcac",
          "transactionHash": "0xf5d5f1b09d1eb5c892a90d8f62369e7c973e1e01368af9f28910df4ae2e877e2",
          "transactionIndex": "0xdb",
          "logIndex": "0x1b0",
          "removed": false
        },
        {
          "address": "0xe03a1074c86cfedd5c142c4f04f1a1536e203543",
          "topics": [
            "0x40e9cecb9f5f1f1c5b9c97dec2917b7ee92e57ba5563708daca94dd84ad7112f",
            "0x2420a29d7b2989c83b3cf8daadb689683ef532bdda0f60c6206b5fbb7005b472",
            "0x00000000000000000000000000000000000044a361ae3cac094c9d1b14eece97"
          ],
          "data": "0xffffffffffffffffffffffffffffffffffffffffffffffffffffff2e61f03500000000000000000000000000000000000000000000000000013ee36e0888ec43000000000000000000000000000000000000013c3994daac668ea4d6f00fd745000000000000000000000000000000000000000000000001b6daabc64ae595a7000000000000000000000000000000000000000000000000000000000001c1be0000000000000000000000000000000000000000000000000000000000000bb8",
          "blockHash": "0x6a570a17ad31456b86074ea3506caf723cf6d8616cfbd45aea82df97f33bc6ea",
          "blockNumber": "0xa96c0d",
          "blockTimestamp": "0x6a36dcac",
          "transactionHash": "0xf5d5f1b09d1eb5c892a90d8f62369e7c973e1e01368af9f28910df4ae2e877e2",
          "transactionIndex": "0xdb",
          "logIndex": "0x1b1",
          "removed": false
        },
        {
          "address": "0xe03a1074c86cfedd5c142c4f04f1a1536e203543",
          "topics": [
            "0x1b3d7edb2e9c0b0e7c525b20aaaef0f5940d2ed71663c7d39266ecafac728859",
            "0x0000000000000000000000000000000000000000000000000000000000000000",
            "0x00000000000000000000000004d15375ddc492c3dbfee22ffb9bfb4b08f4fff8",
            "0x0000000000000000000000000000000000000000000000000000000000000000"
          ],
          "data": "0x00000000000000000000000004d15375ddc492c3dbfee22ffb9bfb4b08f4fff80000000000000000000000000000000000000000000000000000001736954500",
          "blockHash": "0x6a570a17ad31456b86074ea3506caf723cf6d8616cfbd45aea82df97f33bc6ea",
          "blockNumber": "0xa96c0d",
          "blockTimestamp": "0x6a36dcac",
          "transactionHash": "0xf5d5f1b09d1eb5c892a90d8f62369e7c973e1e01368af9f28910df4ae2e877e2",
          "transactionIndex": "0xdb",
          "logIndex": "0x1b2",
          "removed": false
        },
        {
          "address": "0xe03a1074c86cfedd5c142c4f04f1a1536e203543",
          "topics": [
            "0x1b3d7edb2e9c0b0e7c525b20aaaef0f5940d2ed71663c7d39266ecafac728859",
            "0x00000000000000000000000004d15375ddc492c3dbfee22ffb9bfb4b08f4fff8",
            "0x0000000000000000000000000000000000000000000000000000000000000000",
            "0x0000000000000000000000000000000000000000000000000000000000000000"
          ],
          "data": "0x00000000000000000000000004d15375ddc492c3dbfee22ffb9bfb4b08f4fff80000000000000000000000000000000000000000000000000000001736954500",
          "blockHash": "0x6a570a17ad31456b86074ea3506caf723cf6d8616cfbd45aea82df97f33bc6ea",
          "blockNumber": "0xa96c0d",
          "blockTimestamp": "0x6a36dcac",
          "transactionHash": "0xf5d5f1b09d1eb5c892a90d8f62369e7c973e1e01368af9f28910df4ae2e877e2",
          "transactionIndex": "0xdb",
          "logIndex": "0x1b3",
          "removed": false
        },
        {
          "address": "0x2b1b0a50139c62b5387550b71005b2bbe1c83ae3",
          "topics": [
            "0x6c07ee05dcf262f13abf9d87b846ee789d2f90fe991d495acd7d7fc109ee1f55"
          ],
          "data": "0x00000000000000000000000000000000000000000000000000000012921104000000000000000000000000000000000000000000000000000000000000093a80",
          "blockHash": "0x6a570a17ad31456b86074ea3506caf723cf6d8616cfbd45aea82df97f33bc6ea",
          "blockNumber": "0xa96c0d",
          "blockTimestamp": "0x6a36dcac",
          "transactionHash": "0xf5d5f1b09d1eb5c892a90d8f62369e7c973e1e01368af9f28910df4ae2e877e2",
          "transactionIndex": "0xdb",
          "logIndex": "0x1b4",
          "removed": false
        },
        {
          "address": "0x04d15375ddc492c3dbfee22ffb9bfb4b08f4fff8",
          "topics": [
            "0xda378dba4f1dc8c7a566c70096e0389c466cb99cc2ec74173afd50c7b652ca09"
          ],
          "data": "0x000000000000000000000000000000000000000000000000000000129211040000000000000000000000000000000000000000000000000000000004a4844100",
          "blockHash": "0x6a570a17ad31456b86074ea3506caf723cf6d8616cfbd45aea82df97f33bc6ea",
          "blockNumber": "0xa96c0d",
          "blockTimestamp": "0x6a36dcac",
          "transactionHash": "0xf5d5f1b09d1eb5c892a90d8f62369e7c973e1e01368af9f28910df4ae2e877e2",
          "transactionIndex": "0xdb",
          "logIndex": "0x1b5",
          "removed": false
        },
        {
          "address": "0xfc62b06914a59b5ce926da4c8051a5859eaff387",
          "topics": [
            "0xddf252ad1be2c89b69c2b068fc378daa952ba7f163c4a11628f55a4df523b3ef",
            "0x000000000000000000000000e03a1074c86cfedd5c142c4f04f1a1536e203543",
            "0x000000000000000000000000f93e7518f79c2e1978d6862dbf161270040e623e"
          ],
          "data": "0x000000000000000000000000000000000000000000000000013ee36e0888ec43",
          "blockHash": "0x6a570a17ad31456b86074ea3506caf723cf6d8616cfbd45aea82df97f33bc6ea",
          "blockNumber": "0xa96c0d",
          "blockTimestamp": "0x6a36dcac",
          "transactionHash": "0xf5d5f1b09d1eb5c892a90d8f62369e7c973e1e01368af9f28910df4ae2e877e2",
          "transactionIndex": "0xdb",
          "logIndex": "0x1b6",
          "removed": false
        }
      ],
      "logsBloom": "0x0000040000000000080000080000000000000000010000100000000880000000000000000000000000000000000100000000010004000020000000004084000000000000000000000000000800000400000020000004002000000020002000000100000002000000000000008000080000080000000010000000001000024002000000000000000000001000000000000000000000000000000000000018000000000000000000000000000000002000000000010000000000000000000a000000000002000000000005000000000000000000000000000000001100000068011000000000000000004000000000000000000000000000000000000004001000",
      "transactionHash": "0xf5d5f1b09d1eb5c892a90d8f62369e7c973e1e01368af9f28910df4ae2e877e2",
      "transactionIndex": "0xdb",
      "blockHash": "0x6a570a17ad31456b86074ea3506caf723cf6d8616cfbd45aea82df97f33bc6ea",
      "blockNumber": "0xa96c0d",
      "gasUsed": "0x51a68",
      "effectiveGasPrice": "0x3d9bed8b",
      "from": "0xf93e7518f79c2e1978d6862dbf161270040e623e",
      "to": "0x00000000000044a361ae3cac094c9d1b14eece97",
      "contractAddress": null
    },
    {
      "type": "0x2",
      "status": "0x1",
      "cumulativeGasUsed": "0x10f6ae8",
      "logs": [
        {
          "address": "0x04d15375ddc492c3dbfee22ffb9bfb4b08f4fff8",
          "topics": [
            "0xeb18042c63a6494302e2e34ca89562fb59d5b25ded99d617905bdd7c4f891f03",
            "0x0000000000000000000000000000000000000000000000000000000000000000",
            "0x0000000000000000000000000000000000000000000000000000000000000000"
          ],
          "data": "0x0000000000000000000000000000000000000000000000000000d0005e429800",
          "blockHash": "0x6a570a17ad31456b86074ea3506caf723cf6d8616cfbd45aea82df97f33bc6ea",
          "blockNumber": "0xa96c0d",
          "blockTimestamp": "0x6a36dcac",
          "transactionHash": "0xa165a5d0e6a9f93b42ef2ce4831cfc6033cfc0913ec8c487864446e2ab1aaab1",
          "transactionIndex": "0xdc",
          "logIndex": "0x1b7",
          "removed": false
        },
        {
          "address": "0xe03a1074c86cfedd5c142c4f04f1a1536e203543",
          "topics": [
            "0x40e9cecb9f5f1f1c5b9c97dec2917b7ee92e57ba5563708daca94dd84ad7112f",
            "0x2420a29d7b2989c83b3cf8daadb689683ef532bdda0f60c6206b5fbb7005b472",
            "0x00000000000000000000000000000000000044a361ae3cac094c9d1b14eece97"
          ],
          "data": "0x00000000000000000000000000000000000000000000000000000001ca5c1079fffffffffffffffffffffffffffffffffffffffffffffffffffd4281b97c1800000000000000000000000000000000000000013c399672a729caeaf2cc29e49f000000000000000000000000000000000000000000000001b6daabc64ae595a7000000000000000000000000000000000000000000000000000000000001c1be0000000000000000000000000000000000000000000000000000000000000bb8",
          "blockHash": "0x6a570a17ad31456b86074ea3506caf723cf6d8616cfbd45aea82df97f33bc6ea",
          "blockNumber": "0xa96c0d",
          "blockTimestamp": "0x6a36dcac",
          "transactionHash": "0xa165a5d0e6a9f93b42ef2ce4831cfc6033cfc0913ec8c487864446e2ab1aaab1",
          "transactionIndex": "0xdc",
          "logIndex": "0x1b8",
          "removed": false
        },
        {
          "address": "0xe03a1074c86cfedd5c142c4f04f1a1536e203543",
          "topics": [
            "0x1b3d7edb2e9c0b0e7c525b20aaaef0f5940d2ed71663c7d39266ecafac728859",
            "0x0000000000000000000000000000000000000000000000000000000000000000",
            "0x00000000000000000000000004d15375ddc492c3dbfee22ffb9bfb4b08f4fff8",
            "0x000000000000000000000000fc62b06914a59b5ce926da4c8051a5859eaff387"
          ],
          "data": "0x00000000000000000000000004d15375ddc492c3dbfee22ffb9bfb4b08f4fff80000000000000000000000000000000000000000000000000000d0005e429800",
          "blockHash": "0x6a570a17ad31456b86074ea3506caf723cf6d8616cfbd45aea82df97f33bc6ea",
          "blockNumber": "0xa96c0d",
          "blockTimestamp": "0x6a36dcac",
          "transactionHash": "0xa165a5d0e6a9f93b42ef2ce4831cfc6033cfc0913ec8c487864446e2ab1aaab1",
          "transactionIndex": "0xdc",
          "logIndex": "0x1b9",
          "removed": false
        },
        {
          "address": "0xe03a1074c86cfedd5c142c4f04f1a1536e203543",
          "topics": [
            "0x40e9cecb9f5f1f1c5b9c97dec2917b7ee92e57ba5563708daca94dd84ad7112f",
            "0x2420a29d7b2989c83b3cf8daadb689683ef532bdda0f60c6206b5fbb7005b472",
            "0x00000000000000000000000004d15375ddc492c3dbfee22ffb9bfb4b08f4fff8"
          ],
          "data": "0x0000000000000000000000000000000000000000000000000000000087e8c74affffffffffffffffffffffffffffffffffffffffffffffffffff2fffa1bd6800000000000000000000000000000000000000013c3996eb9fbc4d34e878b2edca000000000000000000000000000000000000000000000001b6daabc64ae595a7000000000000000000000000000000000000000000000000000000000001c1be0000000000000000000000000000000000000000000000000000000000000bb8",
          "blockHash": "0x6a570a17ad31456b86074ea3506caf723cf6d8616cfbd45aea82df97f33bc6ea",
          "blockNumber": "0xa96c0d",
          "blockTimestamp": "0x6a36dcac",
          "transactionHash": "0xa165a5d0e6a9f93b42ef2ce4831cfc6033cfc0913ec8c487864446e2ab1aaab1",
          "transactionIndex": "0xdc",
          "logIndex": "0x1ba",
          "removed": false
        },
        {
          "address": "0xe03a1074c86cfedd5c142c4f04f1a1536e203543",
          "topics": [
            "0x1b3d7edb2e9c0b0e7c525b20aaaef0f5940d2ed71663c7d39266ecafac728859",
            "0x00000000000000000000000004d15375ddc492c3dbfee22ffb9bfb4b08f4fff8",
            "0x0000000000000000000000000000000000000000000000000000000000000000",
            "0x000000000000000000000000fc62b06914a59b5ce926da4c8051a5859eaff387"
          ],
          "data": "0x00000000000000000000000004d15375ddc492c3dbfee22ffb9bfb4b08f4fff80000000000000000000000000000000000000000000000000000d0005e429800",
          "blockHash": "0x6a570a17ad31456b86074ea3506caf723cf6d8616cfbd45aea82df97f33bc6ea",
          "blockNumber": "0xa96c0d",
          "blockTimestamp": "0x6a36dcac",
          "transactionHash": "0xa165a5d0e6a9f93b42ef2ce4831cfc6033cfc0913ec8c487864446e2ab1aaab1",
          "transactionIndex": "0xdc",
          "logIndex": "0x1bb",
          "removed": false
        },
        {
          "address": "0x2b1b0a50139c62b5387550b71005b2bbe1c83ae3",
          "topics": [
            "0x6c07ee05dcf262f13abf9d87b846ee789d2f90fe991d495acd7d7fc109ee1f55"
          ],
          "data": "0x000000000000000000000000000000000000000000000000000000006cba39080000000000000000000000000000000000000000000000000000000000093a80",
          "blockHash": "0x6a570a17ad31456b86074ea3506caf723cf6d8616cfbd45aea82df97f33bc6ea",
          "blockNumber": "0xa96c0d",
          "blockTimestamp": "0x6a36dcac",
          "transactionHash": "0xa165a5d0e6a9f93b42ef2ce4831cfc6033cfc0913ec8c487864446e2ab1aaab1",
          "transactionIndex": "0xdc",
          "logIndex": "0x1bc",
          "removed": false
        },
        {
          "address": "0x04d15375ddc492c3dbfee22ffb9bfb4b08f4fff8",
          "topics": [
            "0xda378dba4f1dc8c7a566c70096e0389c466cb99cc2ec74173afd50c7b652ca09"
          ],
          "data": "0x000000000000000000000000000000000000000000000000000000006cba3908000000000000000000000000000000000000000000000000000000001b2e8e42",
          "blockHash": "0x6a570a17ad31456b86074ea3506caf723cf6d8616cfbd45aea82df97f33bc6ea",
          "blockNumber": "0xa96c0d",
          "blockTimestamp": "0x6a36dcac",
          "transactionHash": "0xa165a5d0e6a9f93b42ef2ce4831cfc6033cfc0913ec8c487864446e2ab1aaab1",
          "transactionIndex": "0xdc",
          "logIndex": "0x1bd",
          "removed": false
        },
        {
          "address": "0xfc62b06914a59b5ce926da4c8051a5859eaff387",
          "topics": [
            "0xddf252ad1be2c89b69c2b068fc378daa952ba7f163c4a11628f55a4df523b3ef",
            "0x000000000000000000000000f93e7518f79c2e1978d6862dbf161270040e623e",
            "0x000000000000000000000000e03a1074c86cfedd5c142c4f04f1a1536e203543"
          ],
          "data": "0x00000000000000000000000000000000000000000000000000038d7ea4c68000",
          "blockHash": "0x6a570a17ad31456b86074ea3506caf723cf6d8616cfbd45aea82df97f33bc6ea",
          "blockNumber": "0xa96c0d",
          "blockTimestamp": "0x6a36dcac",
          "transactionHash": "0xa165a5d0e6a9f93b42ef2ce4831cfc6033cfc0913ec8c487864446e2ab1aaab1",
          "transactionIndex": "0xdc",
          "logIndex": "0x1be",
          "removed": false
        }
      ],
      "logsBloom": "0x0000040000000000080000080000000000000000010000100000000880000000000000000000000000000000000100000000010004000020000000004080000000000000000000000000000800000400000020000000002000000020002000000100000002000000000000008000080000080000000010000000001000024002000000000000000000001000000000400000000000000000000000000018000000000000000000800000000000002000000000010000000000000000000a000000000002000000000005000000000000000000000000000000001100000028011000000000000000004000000000000000000000000000000000000004001000",
      "transactionHash": "0xa165a5d0e6a9f93b42ef2ce4831cfc6033cfc0913ec8c487864446e2ab1aaab1",
      "transactionIndex": "0xdc",
      "blockHash": "0x6a570a17ad31456b86074ea3506caf723cf6d8616cfbd45aea82df97f33bc6ea",
      "blockNumber": "0xa96c0d",
      "gasUsed": "0x4262c",
      "effectiveGasPrice": "0x3d9bed8b",
      "from": "0xf93e7518f79c2e1978d6862dbf161270040e623e",
      "to": "0x00000000000044a361ae3cac094c9d1b14eece97",
      "contractAddress": null
    }
  ],
  "libraries": [],
  "pending": [],
  "returns": {},
  "timestamp": 1781980334873,
  "chain": 11155111,
  "commit": "e9509a8"
}