{
  "transactions": [
    {
      "hash": "0x6f0091b70d57636894eab5560cb6d40f5e3f0de2d7ac7a43617f41b544bbac12",
      "transactionType": "CALL",
      "contractName": null,
      "contractAddress": "0xfc62b06914a59b5ce926da4c8051a5859eaff387",
      "function": "approve(address,uint256)",
      "arguments": [
        "0x000000000022D473030F116dDEE9F6B43aC78BA3",
        "115792089237316195423570985008687907853269984665640564039457584007913129639935"
      ],
      "transaction": {
        "from": "0xf93e7518f79c2e1978d6862dbf161270040e623e",
        "to": "0xfc62b06914a59b5ce926da4c8051a5859eaff387",
        "gas": "0x9681",
        "value": "0x0",
        "input": "0x095ea7b3000000000000000000000000000000000022d473030f116ddee9f6b43ac78ba3ffffffffffffffffffffffffffffffffffffffffffffffffffffffffffffffff",
        "nonce": "0x53a",
        "chainId": "0xaa36a7"
      },
      "additionalContracts": [],
      "isFixedGasLimit": false
    },
    {
      "hash": "0x06231da43eb2a2dd28feb0715aeca044dca574f3e921ad5bebdf37f5a93be8e9",
      "transactionType": "CALL",
      "contractName": null,
      "contractAddress": "0x000000000022d473030f116ddee9f6b43ac78ba3",
      "function": "approve(address,address,uint160,uint48)",
      "arguments": [
        "0xFC62b06914A59B5cE926DA4C8051A5859EAFf387",
        "0x429ba70129df741B2Ca2a85BC3A2a3328e5c09b4",
        "1461501637330902918203684832716283019655932542975",
        "1782067728"
      ],
      "transaction": {
        "from": "0xf93e7518f79c2e1978d6862dbf161270040e623e",
        "to": "0x000000000022d473030f116ddee9f6b43ac78ba3",
        "gas": "0xa59b",
        "value": "0x0",
        "input": "0x87517c45000000000000000000000000fc62b06914a59b5ce926da4c8051a5859eaff387000000000000000000000000429ba70129df741b2ca2a85bc3a2a3328e5c09b4000000000000000000000000ffffffffffffffffffffffffffffffffffffffff000000000000000000000000000000000000000000000000000000006a383210",
        "nonce": "0x53b",
        "chainId": "0xaa36a7"
      },
      "additionalContracts": [],
      "isFixedGasLimit": false
    },
    {
      "hash": "0xf74ec36bb62532eff02d034fc93f5c65e96b255e92b227169f53731e26a511ea",
      "transactionType": "CALL",
      "contractName": null,
      "contractAddress": "0x000000000022d473030f116ddee9f6b43ac78ba3",
      "function": "approve(address,address,uint160,uint48)",
      "arguments": [
        "0xFC62b06914A59B5cE926DA4C8051A5859EAFf387",
        "0x00000000000044a361Ae3cAc094c9D1b14Eece97",
        "1461501637330902918203684832716283019655932542975",
        "1782067728"
      ],
      "transaction": {
        "from": "0xf93e7518f79c2e1978d6862dbf161270040e623e",
        "to": "0x000000000022d473030f116ddee9f6b43ac78ba3",
        "gas": "0xa537",
        "value": "0x0",
        "input": "0x87517c45000000000000000000000000fc62b06914a59b5ce926da4c8051a5859eaff38700000000000000000000000000000000000044a361ae3cac094c9d1b14eece97000000000000000000000000ffffffffffffffffffffffffffffffffffffffff000000000000000000000000000000000000000000000000000000006a383210",
        "nonce": "0x53c",
        "chainId": "0xaa36a7"
      },
      "additionalContracts": [],
      "isFixedGasLimit": false
    },
    {
      "hash": "0x1a375f005aafbbeea799f4beed7c58a97a95ab8cbb024ddb35c2b25cc209cf4a",
      "transactionType": "CALL",
      "contractName": null,
      "contractAddress": "0xfc62b06914a59b5ce926da4c8051a5859eaff387",
      "function": "approve(address,uint256)",
      "arguments": [
        "0x00000000000044a361Ae3cAc094c9D1b14Eece97",
        "115792089237316195423570985008687907853269984665640564039457584007913129639935"
      ],
      "transaction": {
        "from": "0xf93e7518f79c2e1978d6862dbf161270040e623e",
        "to": "0xfc62b06914a59b5ce926da4c8051a5859eaff387",
        "gas": "0x8e13",
        "value": "0x0",
        "input": "0x095ea7b300000000000000000000000000000000000044a361ae3cac094c9d1b14eece97ffffffffffffffffffffffffffffffffffffffffffffffffffffffffffffffff",
        "nonce": "0x53d",
        "chainId": "0xaa36a7"
      },
      "additionalContracts": [],
      "isFixedGasLimit": false
    },
    {
      "hash": "0x6e2ef4422e134bba30c371827bc2d919333ac28b927ff57ffa41173ae5062a38",
      "transactionType": "CALL",
      "contractName": null,
      "contractAddress": "0xfc62b06914a59b5ce926da4c8051a5859eaff387",
      "function": "approve(address,uint256)",
      "arguments": [
        "0x2b1B0a50139c62b5387550b71005B2BBE1C83aE3",
        "115792089237316195423570985008687907853269984665640564039457584007913129639935"
      ],
      "transaction": {
        "from": "0xf93e7518f79c2e1978d6862dbf161270040e623e",
        "to": "0xfc62b06914a59b5ce926da4c8051a5859eaff387",
        "gas": "0x8e77",
        "value": "0x0",
        "input": "0x095ea7b30000000000000000000000002b1b0a50139c62b5387550b71005b2bbe1c83ae3ffffffffffffffffffffffffffffffffffffffffffffffffffffffffffffffff",
        "nonce": "0x53e",
        "chainId": "0xaa36a7"
      },
      "additionalContracts": [],
      "isFixedGasLimit": false
    },
    {
      "hash": "0x9ef7478623962e9eb52c9f88c7e7bfe7da83ca1ba37f593ff9f31d7addfdbfbf",
      "transactionType": "CALL",
      "contractName": null,
      "contractAddress": "0x00000000000044a361ae3cac094c9d1b14eece97",
      "function": "swapExactTokensForTokens(uint256,uint256,bool,(address,address,uint24,int24,address),bytes,address,uint256)",
      "arguments": [
        "1000000000000",
        "0",
        "true",
        "(0x0000000000000000000000000000000000000000, 0xFC62b06914A59B5cE926DA4C8051A5859EAFf387, 3000, 60, 0x04D15375DdC492C3DbfEe22FfB9Bfb4B08f4FFF8)",
        "0x",
        "0xF93E7518F79C2E1978D6862Dbf161270040e623E",
        "115792089237316195423570985008687907853269984665640564039457584007913129639935"
      ],
      "transaction": {
        "from": "0xf93e7518f79c2e1978d6862dbf161270040e623e",
        "to": "0x00000000000044a361ae3cac094c9d1b14eece97",
        "gas": "0x54057",
        "value": "0xe8d4a51000",
        "input": "0xb1a0d571000000000000000000000000000000000000000000000000000000e8d4a51000000000000000000000000000000000000000000000000000000000000000000000000000000000000000000000000000000000000000000000000000000000010000000000000000000000000000000000000000000000000000000000000000000000000000000000000000fc62b06914a59b5ce926da4c8051a5859eaff3870000000000000000000000000000000000000000000000000000000000000bb8000000000000000000000000000000000000000000000000000000000000003c00000000000000000000000004d15375ddc492c3dbfee22ffb9bfb4b08f4fff80000000000000000000000000000000000000000000000000000000000000160000000000000000000000000f93e7518f79c2e1978d6862dbf161270040e623effffffffffffffffffffffffffffffffffffffffffffffffffffffffffffffff0000000000000000000000000000000000000000000000000000000000000000",
        "nonce": "0x53f",
        "chainId": "0xaa36a7"
      },
      "additionalContracts": [],
      "isFixedGasLimit": false
    },
    {
      "hash": "0x309bb4e878376391b8abcbce47f8baf73ed44e15a320abe4c3cc9e9bfb3045e7",
      "transactionType": "CALL",
      "contractName": null,
      "contractAddress": "0x00000000000044a361ae3cac094c9d1b14eece97",
      "function": "swapExactTokensForTokens(uint256,uint256,bool,(address,address,uint24,int24,address),bytes,address,uint256)",
      "arguments": [
        "10000000000000000000",
        "0",
        "false",
        "(0x0000000000000000000000000000000000000000, 0xFC62b06914A59B5cE926DA4C8051A5859EAFf387, 3000, 60, 0x04D15375DdC492C3DbfEe22FfB9Bfb4B08f4FFF8)",
        "0x",
        "0xF93E7518F79C2E1978D6862Dbf161270040e623E",
        "115792089237316195423570985008687907853269984665640564039457584007913129639935"
      ],
      "transaction": {
        "from": "0xf93e7518f79c2e1978d6862dbf161270040e623e",
        "to": "0x00000000000044a361ae3cac094c9d1b14eece97",
        "gas": "0x563a2",
        "value": "0x0",
        "input": "0xb1a0d5710000000000000000000000000000000000000000000000008ac7230489e80000000000000000000000000000000000000000000000000000000000000000000000000000000000000000000000000000000000000000000000000000000000000000000000000000000000000000000000000000000000000000000000000000000000000000000000000000fc62b06914a59b5ce926da4c8051a5859eaff3870000000000000000000000000000000000000000000000000000000000000bb8000000000000000000000000000000000000000000000000000000000000003c00000000000000000000000004d15375ddc492c3dbfee22ffb9bfb4b08f4fff80000000000000000000000000000000000000000000000000000000000000160000000000000000000000000f93e7518f79c2e1978d6862dbf161270040e623effffffffffffffffffffffffffffffffffffffffffffffffffffffffffffffff0000000000000000000000000000000000000000000000000000000000000000",
        "nonce": "0x540",
        "chainId": "0xaa36a7"
      },
      "additionalContracts": [],
      "isFixedGasLimit": false
    }
  ],
  "receipts": [
    {
      "type": "0x2",
      "status": "0x1",
      "cumulativeGasUsed": "0xef228d",
      "logs": [
        {
          "address": "0xfc62b06914a59b5ce926da4c8051a5859eaff387",
          "topics": [
            "0x8c5be1e5ebec7d5bd14f71427d1e84f3dd0314c0f7b2291e5b200ac8c7c3b925",
            "0x000000000000000000000000f93e7518f79c2e1978d6862dbf161270040e623e",
            "0x000000000000000000000000000000000022d473030f116ddee9f6b43ac78ba3"
          ],
          "data": "0xffffffffffffffffffffffffffffffffffffffffffffffffffffffffffffffff",
          "blockHash": "0xb30c9d92ee1e9222aec62c866eb7305fda89cf42a43da7f3445356b6193f48ae",
          "blockNumber": "0xa96c63",
          "blockTimestamp": "0x6a36e0b4",
          "transactionHash": "0x6f0091b70d57636894eab5560cb6d40f5e3f0de2d7ac7a43617f41b544bbac12",
          "transactionIndex": "0xa3",
          "logIndex": "0x178",
          "removed": false
        }
      ],
      "logsBloom": "0x00000000000000000000000800000000000000000000000000000000800000000000000000000000000000000000000000000000800000200000000000200000000000000000000000004000000000000000000000000800000000200000000000000000000000000000000000000000000000000000000000000000000200000000000000000000000000000000000000000000000000000000000000100000020000000000000000000000000000000000000000000000000000000000000000000000000000000000000000000000000000000000000000000000000000000010000000000000000000000000000000000000000000000000000000000000",
      "transactionHash": "0x6f0091b70d57636894eab5560cb6d40f5e3f0de2d7ac7a43617f41b544bbac12",
      "transactionIndex": "0xa3",
      "blockHash": "0xb30c9d92ee1e9222aec62c866eb7305fda89cf42a43da7f3445356b6193f48ae",
      "blockNumber": "0xa96c63",
      "gasUsed": "0x66e9",
      "effectiveGasPrice": "0x3ccd6255",
      "from": "0xf93e7518f79c2e1978d6862dbf161270040e623e",
      "to": "0xfc62b06914a59b5ce926da4c8051a5859eaff387",
      "contractAddress": null
    },
    {
      "type": "0x2",
      "status": "0x1",
      "cumulativeGasUsed": "0xef9a73",
      "logs": [
        {
          "address": "0x000000000022d473030f116ddee9f6b43ac78ba3",
          "topics": [
            "0xda9fa7c1b00402c17d0161b249b1ab8bbec047c5a52207b9c112deffd817036b",
            "0x000000000000000000000000f93e7518f79c2e1978d6862dbf161270040e623e",
            "0x000000000000000000000000fc62b06914a59b5ce926da4c8051a5859eaff387",
            "0x000000000000000000000000429ba70129df741b2ca2a85bc3a2a3328e5c09b4"
          ],
          "data": "0x000000000000000000000000ffffffffffffffffffffffffffffffffffffffff000000000000000000000000000000000000000000000000000000006a383210",
          "blockHash": "0xb30c9d92ee1e9222aec62c866eb7305fda89cf42a43da7f3445356b6193f48ae",
          "blockNumber": "0xa96c63",
          "blockTimestamp": "0x6a36e0b4",
          "transactionHash": "0x309bb4e878376391b8abcbce47f8baf73ed44e15a320abe4c3cc9e9bfb3045e7",
          "transactionIndex": "0xa4",
          "logIndex": "0x179",
          "removed": false
        }
      ],
      "logsBloom": "0x00010000000000000000000000000000000000000000000000000000800000000000000000000040080000000000000000000000000000200000000040080000000000000000000000000000000000000000000000000000000000000000000000000000000000000000000000000000000000000000000000000800000000000020000000000000000000000000004000000000000000000000000000100000000000000000008000000000000000000000000000000000000000080000000000000000000000000000000000000000000000000000000040000000000000000000000000000000000000000000000000000000000000000000000000000400",
      "transactionHash": "0x309bb4e878376391b8abcbce47f8baf73ed44e15a320abe4c3cc9e9bfb3045e7",
      "transactionIndex": "0xa4",
      "blockHash": "0xb30c9d92ee1e9222aec62c866eb7305fda89cf42a43da7f3445356b6193f48ae",
      "blockNumber": "0xa96c63",
      "gasUsed": "0x77e6",
      "effectiveGasPrice": "0x3ccd6255",
      "from": "0xf93e7518f79c2e1978d6862dbf161270040e623e",
      "to": "0x000000000022d473030f116ddee9f6b43ac78ba3",
      "contractAddress": null
    },
    {
      "type": "0x2",
      "status": "0x1",
      "cumulativeGasUsed": "0xf01211",
      "logs": [
        {
          "address": "0x000000000022d473030f116ddee9f6b43ac78ba3",
          "topics": [
            "0xda9fa7c1b00402c17d0161b249b1ab8bbec047c5a52207b9c112deffd817036b",
            "0x000000000000000000000000f93e7518f79c2e1978d6862dbf161270040e623e",
            "0x000000000000000000000000fc62b06914a59b5ce926da4c8051a5859eaff387",
            "0x00000000000000000000000000000000000044a361ae3cac094c9d1b14eece97"
          ],
          "data": "0x000000000000000000000000ffffffffffffffffffffffffffffffffffffffff000000000000000000000000000000000000000000000000000000006a383210",
          "blockHash": "0xb30c9d92ee1e9222aec62c866eb7305fda89cf42a43da7f3445356b6193f48ae",
          "blockNumber": "0xa96c63",
          "blockTimestamp": "0x6a36e0b4",
          "transactionHash": "0x6e2ef4422e134bba30c371827bc2d919333ac28b927ff57ffa41173ae5062a38",
          "transactionIndex": "0xa5",
          "logIndex": "0x17a",
          "removed": false
        }
      ],
      "logsBloom": "0x00010000000000000000000000000000000000000000000000000000800000000000000000000000000000000000000000000000000000200000000040080000000000000000000000000000000000000000000000000000000000000000000000000000000000000000000000000000000000000000000000000000000040000020000000000000000000000000004000000000000000000000000000100000000000000000008000000000000000000000000000000000000000080000000000000000000000000000000000000000000000000000000040000000000000010000000000000000000000000000000000000000000000000000000000000400",
      "transactionHash": "0x6e2ef4422e134bba30c371827bc2d919333ac28b927ff57ffa41173ae5062a38",
      "transactionIndex": "0xa5",
      "blockHash": "0xb30c9d92ee1e9222aec62c866eb7305fda89cf42a43da7f3445356b6193f48ae",
      "blockNumber": "0xa96c63",
      "gasUsed": "0x779e",
      "effectiveGasPrice": "0x3ccd6255",
      "from": "0xf93e7518f79c2e1978d6862dbf161270040e623e",
      "to": "0x000000000022d473030f116ddee9f6b43ac78ba3",
      "contractAddress": null
    },
    {
      "type": "0x2",
      "status": "0x1",
      "cumulativeGasUsed": "0xf078ee",
      "logs": [
        {
          "address": "0xfc62b06914a59b5ce926da4c8051a5859eaff387",
          "topics": [
            "0x8c5be1e5ebec7d5bd14f71427d1e84f3dd0314c0f7b2291e5b200ac8c7c3b925",
            "0x000000000000000000000000f93e7518f79c2e1978d6862dbf161270040e623e",
            "0x00000000000000000000000000000000000044a361ae3cac094c9d1b14eece97"
          ],
          "data": "0xffffffffffffffffffffffffffffffffffffffffffffffffffffffffffffffff",
          "blockHash": "0xb30c9d92ee1e9222aec62c866eb7305fda89cf42a43da7f3445356b6193f48ae",
          "blockNumber": "0xa96c63",
          "blockTimestamp": "0x6a36e0b4",
          "transactionHash": "0x9ef7478623962e9eb52c9f88c7e7bfe7da83ca1ba37f593ff9f31d7addfdbfbf",
          "transactionIndex": "0xa6",
          "logIndex": "0x17b",
          "removed": false
        }
      ],
      "logsBloom": "0x00000000000000000000000800000000000000000000000000000000800000000000000000000000000000000000000000000000000000200000000040200000000000000000000000000000000000000000000000000000000000200000000000000000000000000000000000000000000000000000000000000000000240000000000000000000000000000000000000000000000000000000000000100000020000000000000000000000000000000000000000000000000000000000000000000000000000000000000000000000000000000000000000000000000000010010000000000000000000000000000000000000000000000000000000000000",
      "transactionHash": "0x9ef7478623962e9eb52c9f88c7e7bfe7da83ca1ba37f593ff9f31d7addfdbfbf",
      "transactionIndex": "0xa6",
      "blockHash": "0xb30c9d92ee1e9222aec62c866eb7305fda89cf42a43da7f3445356b6193f48ae",
      "blockNumber": "0xa96c63",
      "gasUsed": "0x66dd",
      "effectiveGasPrice": "0x3ccd6255",
      "from": "0xf93e7518f79c2e1978d6862dbf161270040e623e",
      "to": "0xfc62b06914a59b5ce926da4c8051a5859eaff387",
      "contractAddress": null
    },
    {
      "type": "0x2",
      "status": "0x1",
      "cumulativeGasUsed": "0xf0e013",
      "logs": [
        {
          "address": "0xfc62b06914a59b5ce926da4c8051a5859eaff387",
          "topics": [
            "0x8c5be1e5ebec7d5bd14f71427d1e84f3dd0314c0f7b2291e5b200ac8c7c3b925",
            "0x000000000000000000000000f93e7518f79c2e1978d6862dbf161270040e623e",
            "0x0000000000000000000000002b1b0a50139c62b5387550b71005b2bbe1c83ae3"
          ],
          "data": "0xffffffffffffffffffffffffffffffffffffffffffffffffffffffffffffffff",
          "blockHash": "0xb30c9d92ee1e9222aec62c866eb7305fda89cf42a43da7f3445356b6193f48ae",
          "blockNumber": "0xa96c63",
          "blockTimestamp": "0x6a36e0b4",
          "transactionHash": "0x06231da43eb2a2dd28feb0715aeca044dca574f3e921ad5bebdf37f5a93be8e9",
          "transactionIndex": "0xa7",
          "logIndex": "0x17c",
          "removed": false
        }
      ],
      "logsBloom": "0x00000000000000000000000800000000000000000000000000000000800000000000000000000000000000000000000000000000000000200000000000200000000000000000000008000000000000000000000000000000000002200000000000000000000000000000000000000000000000000000000000000000000200000000000000000000000000000000000000000000000000000000000000100000020000000000000000000000000000000000000000000000000000000000000000000000000000000000000000000000000000000000000000000000000001000010000000000000000000000000000000000000000000000000000000000000",
      "transactionHash": "0x06231da43eb2a2dd28feb0715aeca044dca574f3e921ad5bebdf37f5a93be8e9",
      "transactionIndex": "0xa7",
      "blockHash": "0xb30c9d92ee1e9222aec62c866eb7305fda89cf42a43da7f3445356b6193f48ae",
      "blockNumber": "0xa96c63",
      "gasUsed": "0x6725",
      "effectiveGasPrice": "0x3ccd6255",
      "from": "0xf93e7518f79c2e1978d6862dbf161270040e623e",
      "to": "0xfc62b06914a59b5ce926da4c8051a5859eaff387",
      "contractAddress": null
    },
    {
      "type": "0x2",
      "status": "0x1",
      "cumulativeGasUsed": "0xf4ad5b",
      "logs": [
        {
          "address": "0x04d15375ddc492c3dbfee22ffb9bfb4b08f4fff8",
          "topics": [
            "0xeb18042c63a6494302e2e34ca89562fb59d5b25ded99d617905bdd7c4f891f03",
            "0x0000000000000000000000000000000000000000000000000000000000000001",
            "0x0000000000000000000000000000000000000000000000000000000000000001"
          ],
          "data": "0x00000000000000000000000000000000000000000000000000000016ef0eb900",
          "blockHash": "0xb30c9d92ee1e9222aec62c866eb7305fda89cf42a43da7f3445356b6193f48ae",
          "blockNumber": "0xa96c63",
          "blockTimestamp": "0x6a36e0b4",
          "transactionHash": "0xf74ec36bb62532eff02d034fc93f5c65e96b255e92b227169f53731e26a511ea",
          "transactionIndex": "0xa8",
          "logIndex": "0x17d",
          "removed": false
        },
        {
          "address": "0xe03a1074c86cfedd5c142c4f04f1a1536e203543",
          "topics": [
            "0x40e9cecb9f5f1f1c5b9c97dec2917b7ee92e57ba5563708daca94dd84ad7112f",
            "0x2420a29d7b2989c83b3cf8daadb689683ef532bdda0f60c6206b5fbb7005b472",
            "0x00000000000000000000000000000000000044a361ae3cac094c9d1b14eece97"
          ],
          "data": "0xffffffffffffffffffffffffffffffffffffffffffffffffffffff2e1a69a900000000000000000000000000000000000000000000000000013f4ec9e5e24507000000000000000000000000000000000000013c38dca8025087ea467a77edf9000000000000000000000000000000000000000000000001b6daabc64ae595a7000000000000000000000000000000000000000000000000000000000001c1be0000000000000000000000000000000000000000000000000000000000000bb8",
          "blockHash": "0xb30c9d92ee1e9222aec62c866eb7305fda89cf42a43da7f3445356b6193f48ae",
          "blockNumber": "0xa96c63",
          "blockTimestamp": "0x6a36e0b4",
          "transactionHash": "0xf74ec36bb62532eff02d034fc93f5c65e96b255e92b227169f53731e26a511ea",
          "transactionIndex": "0xa8",
          "logIndex": "0x17e",
          "removed": false
        },
        {
          "address": "0xe03a1074c86cfedd5c142c4f04f1a1536e203543",
          "topics": [
            "0x1b3d7edb2e9c0b0e7c525b20aaaef0f5940d2ed71663c7d39266ecafac728859",
            "0x0000000000000000000000000000000000000000000000000000000000000000",
            "0x00000000000000000000000004d15375ddc492c3dbfee22ffb9bfb4b08f4fff8",
            "0x0000000000000000000000000000000000000000000000000000000000000000"
          ],
          "data": "0x00000000000000000000000004d15375ddc492c3dbfee22ffb9bfb4b08f4fff800000000000000000000000000000000000000000000000000000016ef0eb900",
          "blockHash": "0xb30c9d92ee1e9222aec62c866eb7305fda89cf42a43da7f3445356b6193f48ae",
          "blockNumber": "0xa96c63",
          "blockTimestamp": "0x6a36e0b4",
          "transactionHash": "0xf74ec36bb62532eff02d034fc93f5c65e96b255e92b227169f53731e26a511ea",
          "transactionIndex": "0xa8",
          "logIndex": "0x17f",
          "removed": false
        },
        {
          "address": "0xe03a1074c86cfedd5c142c4f04f1a1536e203543",
          "topics": [
            "0x1b3d7edb2e9c0b0e7c525b20aaaef0f5940d2ed71663c7d39266ecafac728859",
            "0x00000000000000000000000004d15375ddc492c3dbfee22ffb9bfb4b08f4fff8",
            "0x0000000000000000000000000000000000000000000000000000000000000000",
            "0x0000000000000000000000000000000000000000000000000000000000000000"
          ],
          "data": "0x00000000000000000000000004d15375ddc492c3dbfee22ffb9bfb4b08f4fff800000000000000000000000000000000000000000000000000000016ef0eb900",
          "blockHash": "0xb30c9d92ee1e9222aec62c866eb7305fda89cf42a43da7f3445356b6193f48ae",
          "blockNumber": "0xa96c63",
          "blockTimestamp": "0x6a36e0b4",
          "transactionHash": "0xf74ec36bb62532eff02d034fc93f5c65e96b255e92b227169f53731e26a511ea",
          "transactionIndex": "0xa8",
          "logIndex": "0x180",
          "removed": false
        },
        {
          "address": "0x2b1b0a50139c62b5387550b71005b2bbe1c83ae3",
          "topics": [
            "0x6c07ee05dcf262f13abf9d87b846ee789d2f90fe991d495acd7d7fc109ee1f55"
          ],
          "data": "0x0000000000000000000000000000000000000000000000000000001258d894000000000000000000000000000000000000000000000000000000000000093a80",
          "blockHash": "0xb30c9d92ee1e9222aec62c866eb7305fda89cf42a43da7f3445356b6193f48ae",
          "blockNumber": "0xa96c63",
          "blockTimestamp": "0x6a36e0b4",
          "transactionHash": "0xf74ec36bb62532eff02d034fc93f5c65e96b255e92b227169f53731e26a511ea",
          "transactionIndex": "0xa8",
          "logIndex": "0x181",
          "removed": false
        },
        {
          "address": "0x04d15375ddc492c3dbfee22ffb9bfb4b08f4fff8",
          "topics": [
            "0xda378dba4f1dc8c7a566c70096e0389c466cb99cc2ec74173afd50c7b652ca09"
          ],
          "data": "0x0000000000000000000000000000000000000000000000000000001258d894000000000000000000000000000000000000000000000000000000000496362500",
          "blockHash": "0xb30c9d92ee1e9222aec62c866eb7305fda89cf42a43da7f3445356b6193f48ae",
          "blockNumber": "0xa96c63",
          "blockTimestamp": "0x6a36e0b4",
          "transactionHash": "0xf74ec36bb62532eff02d034fc93f5c65e96b255e92b227169f53731e26a511ea",
          "transactionIndex": "0xa8",
          "logIndex": "0x182",
          "removed": false
        },
        {
          "address": "0xfc62b06914a59b5ce926da4c8051a5859eaff387",
          "topics": [
            "0xddf252ad1be2c89b69c2b068fc378daa952ba7f163c4a11628f55a4df523b3ef",
            "0x000000000000000000000000e03a1074c86cfedd5c142c4f04f1a1536e203543",
            "0x000000000000000000000000f93e7518f79c2e1978d6862dbf161270040e623e"
          ],
          "data": "0x000000000000000000000000000000000000000000000000013f4ec9e5e24507",
          "blockHash": "0xb30c9d92ee1e9222aec62c866eb7305fda89cf42a43da7f3445356b6193f48ae",
          "blockNumber": "0xa96c63",
          "blockTimestamp": "0x6a36e0b4",
          "transactionHash": "0xf74ec36bb62532eff02d034fc93f5c65e96b255e92b227169f53731e26a511ea",
          "transactionIndex": "0xa8",
          "logIndex": "0x183",
          "removed": false
        }
      ],
      "logsBloom": "0x0000040000000000080000080000000000000000010000100000000880000000000000000000000000000000000100000000010004000020000000004084000000000000000000000000000800000400000020000004002000000020002000000100000002000000000000008000080000080000000010000000001000024002000000000000000000001000000000000000000000000000000000000018000000000000000000000000000000002000000000010000000000000000000a000000000002000000000005000000000000000000000000000000001100000068011000000000000000004000000000000000000000000000000000000004001000",
      "transactionHash": "0xf74ec36bb62532eff02d034fc93f5c65e96b255e92b227169f53731e26a511ea",
      "transactionIndex": "0xa8",
      "blockHash": "0xb30c9d92ee1e9222aec62c866eb7305fda89cf42a43da7f3445356b6193f48ae",
      "blockNumber": "0xa96c63",
      "gasUsed": "0x3cd48",
      "effectiveGasPrice": "0x3ccd6255",
      "from": "0xf93e7518f79c2e1978d6862dbf161270040e623e",
      "to": "0x00000000000044a361ae3cac094c9d1b14eece97",
      "contractAddress": null
    },
    {
      "type": "0x2",
      "status": "0x1",
      "cumulativeGasUsed": "0xf89430",
      "logs": [
        {
          "address": "0x04d15375ddc492c3dbfee22ffb9bfb4b08f4fff8",
          "topics": [
            "0xeb18042c63a6494302e2e34ca89562fb59d5b25ded99d617905bdd7c4f891f03",
            "0x0000000000000000000000000000000000000000000000000000000000000000",
            "0x0000000000000000000000000000000000000000000000000000000000000000"
          ],
          "data": "0x0000000000000000000000000000000000000000000000001f244a1c5bfa0000",
          "blockHash": "0xb30c9d92ee1e9222aec62c866eb7305fda89cf42a43da7f3445356b6193f48ae",
          "blockNumber": "0xa96c63",
          "blockTimestamp": "0x6a36e0b4",
          "transactionHash": "0x1a375f005aafbbeea799f4beed7c58a97a95ab8cbb024ddb35c2b25cc209cf4a",
          "transactionIndex": "0xa9",
          "logIndex": "0x184",
          "removed": false
        },
        {
          "address": "0xe03a1074c86cfedd5c142c4f04f1a1536e203543",
          "topics": [
            "0x40e9cecb9f5f1f1c5b9c97dec2917b7ee92e57ba5563708daca94dd84ad7112f",
            "0x2420a29d7b2989c83b3cf8daadb689683ef532bdda0f60c6206b5fbb7005b472",
            "0x00000000000000000000000000000000000044a361ae3cac094c9d1b14eece97"
          ],
          "data": "0x00000000000000000000000000000000000000000000000000004646e69c7a62ffffffffffffffffffffffffffffffffffffffffffffffff945d2717d2120000000000000000000000000000000000000000013c7776344c19fcbd7e27865455000000000000000000000000000000000000000000000001b6daabc64ae595a7000000000000000000000000000000000000000000000000000000000001c1ce0000000000000000000000000000000000000000000000000000000000000bb8",
          "blockHash": "0xb30c9d92ee1e9222aec62c866eb7305fda89cf42a43da7f3445356b6193f48ae",
          "blockNumber": "0xa96c63",
          "blockTimestamp": "0x6a36e0b4",
          "transactionHash": "0x1a375f005aafbbeea799f4beed7c58a97a95ab8cbb024ddb35c2b25cc209cf4a",
          "transactionIndex": "0xa9",
          "logIndex": "0x185",
          "removed": false
        },
        {
          "address": "0xe03a1074c86cfedd5c142c4f04f1a1536e203543",
          "topics": [
            "0x1b3d7edb2e9c0b0e7c525b20aaaef0f5940d2ed71663c7d39266ecafac728859",
            "0x0000000000000000000000000000000000000000000000000000000000000000",
            "0x00000000000000000000000004d15375ddc492c3dbfee22ffb9bfb4b08f4fff8",
            "0x000000000000000000000000fc62b06914a59b5ce926da4c8051a5859eaff387"
          ],
          "data": "0x00000000000000000000000004d15375ddc492c3dbfee22ffb9bfb4b08f4fff80000000000000000000000000000000000000000000000001f244a1c5bfa0000",
          "blockHash": "0xb30c9d92ee1e9222aec62c866eb7305fda89cf42a43da7f3445356b6193f48ae",
          "blockNumber": "0xa96c63",
          "blockTimestamp": "0x6a36e0b4",
          "transactionHash": "0x1a375f005aafbbeea799f4beed7c58a97a95ab8cbb024ddb35c2b25cc209cf4a",
          "transactionIndex": "0xa9",
          "logIndex": "0x186",
          "removed": false
        },
        {
          "address": "0xe03a1074c86cfedd5c142c4f04f1a1536e203543",
          "topics": [
            "0x40e9cecb9f5f1f1c5b9c97dec2917b7ee92e57ba5563708daca94dd84ad7112f",
            "0x2420a29d7b2989c83b3cf8daadb689683ef532bdda0f60c6206b5fbb7005b472",
            "0x00000000000000000000000004d15375ddc492c3dbfee22ffb9bfb4b08f4fff8"
          ],
          "data": "0x00000000000000000000000000000000000000000000000000001450059f781affffffffffffffffffffffffffffffffffffffffffffffffe0dbb5e3a4060000000000000000000000000000000000000000013c8992c947b463972fdd17c3ac000000000000000000000000000000000000000000000001b6daabc64ae595a7000000000000000000000000000000000000000000000000000000000001c1d20000000000000000000000000000000000000000000000000000000000000bb8",
          "blockHash": "0xb30c9d92ee1e9222aec62c866eb7305fda89cf42a43da7f3445356b6193f48ae",
          "blockNumber": "0xa96c63",
          "blockTimestamp": "0x6a36e0b4",
          "transactionHash": "0x1a375f005aafbbeea799f4beed7c58a97a95ab8cbb024ddb35c2b25cc209cf4a",
          "transactionIndex": "0xa9",
          "logIndex": "0x187",
          "removed": false
        },
        {
          "address": "0xe03a1074c86cfedd5c142c4f04f1a1536e203543",
          "topics": [
            "0x1b3d7edb2e9c0b0e7c525b20aaaef0f5940d2ed71663c7d39266ecafac728859",
            "0x00000000000000000000000004d15375ddc492c3dbfee22ffb9bfb4b08f4fff8",
            "0x0000000000000000000000000000000000000000000000000000000000000000",
            "0x000000000000000000000000fc62b06914a59b5ce926da4c8051a5859eaff387"
          ],
          "data": "0x00000000000000000000000004d15375ddc492c3dbfee22ffb9bfb4b08f4fff80000000000000000000000000000000000000000000000001f244a1c5bfa0000",
          "blockHash": "0xb30c9d92ee1e9222aec62c866eb7305fda89cf42a43da7f3445356b6193f48ae",
          "blockNumber": "0xa96c63",
          "blockTimestamp": "0x6a36e0b4",
          "transactionHash": "0x1a375f005aafbbeea799f4beed7c58a97a95ab8cbb024ddb35c2b25cc209cf4a",
          "transactionIndex": "0xa9",
          "logIndex": "0x188",
          "removed": false
        },
        {
          "address": "0x2b1b0a50139c62b5387550b71005b2bbe1c83ae3",
          "topics": [
            "0x6c07ee05dcf262f13abf9d87b846ee789d2f90fe991d495acd7d7fc109ee1f55"
          ],
          "data": "0x00000000000000000000000000000000000000000000000000001040047f93480000000000000000000000000000000000000000000000000000000000093a80",
          "blockHash": "0xb30c9d92ee1e9222aec62c866eb7305fda89cf42a43da7f3445356b6193f48ae",
          "blockNumber": "0xa96c63",
          "blockTimestamp": "0x6a36e0b4",
          "transactionHash": "0x1a375f005aafbbeea799f4beed7c58a97a95ab8cbb024ddb35c2b25cc209cf4a",
          "transactionIndex": "0xa9",
          "logIndex": "0x189",
          "removed": false
        },
        {
          "address": "0x04d15375ddc492c3dbfee22ffb9bfb4b08f4fff8",
          "topics": [
            "0xda378dba4f1dc8c7a566c70096e0389c466cb99cc2ec74173afd50c7b652ca09"
          ],
          "data": "0x00000000000000000000000000000000000000000000000000001040047f934800000000000000000000000000000000000000000000000000000410011fe4d2",
          "blockHash": "0xb30c9d92ee1e9222aec62c866eb7305fda89cf42a43da7f3445356b6193f48ae",
          "blockNumber": "0xa96c63",
          "blockTimestamp": "0x6a36e0b4",
          "transactionHash": "0x1a375f005aafbbeea799f4beed7c58a97a95ab8cbb024ddb35c2b25cc209cf4a",
          "transactionIndex": "0xa9",
          "logIndex": "0x18a",
          "removed": false
        },
        {
          "address": "0xfc62b06914a59b5ce926da4c8051a5859eaff387",
          "topics": [
            "0xddf252ad1be2c89b69c2b068fc378daa952ba7f163c4a11628f55a4df523b3ef",
            "0x000000000000000000000000f93e7518f79c2e1978d6862dbf161270040e623e",
            "0x000000000000000000000000e03a1074c86cfedd5c142c4f04f1a1536e203543"
          ],
          "data": "0x0000000000000000000000000000000000000000000000008ac7230489e80000",
          "blockHash": "0xb30c9d92ee1e9222aec62c866eb7305fda89cf42a43da7f3445356b6193f48ae",
          "blockNumber": "0xa96c63",
          "blockTimestamp": "0x6a36e0b4",
          "transactionHash": "0x1a375f005aafbbeea799f4beed7c58a97a95ab8cbb024ddb35c2b25cc209cf4a",
          "transactionIndex": "0xa9",
          "logIndex": "0x18b",
          "removed": false
        }
      ],
      "logsBloom": "0x0000040000000000080000080000000000000000010000100000000880000000000000000000000000000000000100000000010004000020000000004080000000000000000000000000000800000400000020000000002000000020002000000100000002000000000000008000080000080000000010000000001000024002000000000000000000001000000000400000000000000000000000000018000000000000000000800000000000002000000000010000000000000000000a000000000002000000000005000000000000000000000000000000001100000028011000000000000000004000000000000000000000000000000000000004001000",
      "transactionHash": "0x1a375f005aafbbeea799f4beed7c58a97a95ab8cbb024ddb35c2b25cc209cf4a",
      "transactionIndex": "0xa9",
      "blockHash": "0xb30c9d92ee1e9222aec62c866eb7305fda89cf42a43da7f3445356b6193f48ae",
      "blockNumber": "0xa96c63",
      "gasUsed": "0x3e6d5",
      "effectiveGasPrice": "0x3ccd6255",
      "from": "0xf93e7518f79c2e1978d6862dbf161270040e623e",
      "to": "0x00000000000044a361ae3cac094c9d1b14eece97",
      "contractAddress": null
    }
  ],
  "libraries": [],
  "pending": [],
  "returns": {},
  "timestamp": 1781981367059,
  "chain": 11155111,
  "commit": "e9509a8"
}