{
  "transactions": [
    {
      "hash": "0xaefac4a9a0c9551297d635934a57fc235e775b5138f6f4827ca97f0136770612",
      "transactionType": "CALL",
      "contractName": null,
      "contractAddress": "0xabd9bf9008090f091729290c4e898cb206edd785",
      "function": "approve(address,uint256)",
      "arguments": [
        "0x000000000022D473030F116dDEE9F6B43aC78BA3",
        "115792089237316195423570985008687907853269984665640564039457584007913129639935"
      ],
      "transaction": {
        "from": "0xf93e7518f79c2e1978d6862dbf161270040e623e",
        "to": "0xabd9bf9008090f091729290c4e898cb206edd785",
        "gas": "0x9681",
        "value": "0x0",
        "input": "0x095ea7b3000000000000000000000000000000000022d473030f116ddee9f6b43ac78ba3ffffffffffffffffffffffffffffffffffffffffffffffffffffffffffffffff",
        "nonce": "0x55d",
        "chainId": "0xaa36a7"
      },
      "additionalContracts": [],
      "isFixedGasLimit": false
    },
    {
      "hash": "0x191713f1402b28b832d0afed23e05907f601e56782ccaa6d39b48ee4475df84f",
      "transactionType": "CALL",
      "contractName": null,
      "contractAddress": "0x000000000022d473030f116ddee9f6b43ac78ba3",
      "function": "approve(address,address,uint160,uint48)",
      "arguments": [
        "0xaBd9bf9008090F091729290C4e898CB206eDD785",
        "0x429ba70129df741B2Ca2a85BC3A2a3328e5c09b4",
        "1461501637330902918203684832716283019655932542975",
        "1782068676"
      ],
      "transaction": {
        "from": "0xf93e7518f79c2e1978d6862dbf161270040e623e",
        "to": "0x000000000022d473030f116ddee9f6b43ac78ba3",
        "gas": "0xa59b",
        "value": "0x0",
        "input": "0x87517c45000000000000000000000000abd9bf9008090f091729290c4e898cb206edd785000000000000000000000000429ba70129df741b2ca2a85bc3a2a3328e5c09b4000000000000000000000000ffffffffffffffffffffffffffffffffffffffff000000000000000000000000000000000000000000000000000000006a3835c4",
        "nonce": "0x55e",
        "chainId": "0xaa36a7"
      },
      "additionalContracts": [],
      "isFixedGasLimit": false
    },
    {
      "hash": "0x4b87ba42352f465dc36fc055dc5d50620796eb4413af3f047a7521334f143fad",
      "transactionType": "CALL",
      "contractName": null,
      "contractAddress": "0x000000000022d473030f116ddee9f6b43ac78ba3",
      "function": "approve(address,address,uint160,uint48)",
      "arguments": [
        "0xaBd9bf9008090F091729290C4e898CB206eDD785",
        "0x00000000000044a361Ae3cAc094c9D1b14Eece97",
        "1461501637330902918203684832716283019655932542975",
        "1782068676"
      ],
      "transaction": {
        "from": "0xf93e7518f79c2e1978d6862dbf161270040e623e",
        "to": "0x000000000022d473030f116ddee9f6b43ac78ba3",
        "gas": "0x110a1",
        "value": "0x0",
        "input": "0x87517c45000000000000000000000000abd9bf9008090f091729290c4e898cb206edd78500000000000000000000000000000000000044a361ae3cac094c9d1b14eece97000000000000000000000000ffffffffffffffffffffffffffffffffffffffff000000000000000000000000000000000000000000000000000000006a3835c4",
        "nonce": "0x55f",
        "chainId": "0xaa36a7"
      },
      "additionalContracts": [],
      "isFixedGasLimit": false
    },
    {
      "hash": "0xcd218754b100952c11a0c58d97759abe599df84ad47626d129ca4363c1f02fa1",
      "transactionType": "CALL",
      "contractName": null,
      "contractAddress": "0xabd9bf9008090f091729290c4e898cb206edd785",
      "function": "approve(address,uint256)",
      "arguments": [
        "0x00000000000044a361Ae3cAc094c9D1b14Eece97",
        "115792089237316195423570985008687907853269984665640564039457584007913129639935"
      ],
      "transaction": {
        "from": "0xf93e7518f79c2e1978d6862dbf161270040e623e",
        "to": "0xabd9bf9008090f091729290c4e898cb206edd785",
        "gas": "0x1081f",
        "value": "0x0",
        "input": "0x095ea7b300000000000000000000000000000000000044a361ae3cac094c9d1b14eece97ffffffffffffffffffffffffffffffffffffffffffffffffffffffffffffffff",
        "nonce": "0x560",
        "chainId": "0xaa36a7"
      },
      "additionalContracts": [],
      "isFixedGasLimit": false
    },
    {
      "hash": "0x71f57780a19f9fff94dc2e0d3bb0e55156d719fda55c014f90cb91c7a577c66f",
      "transactionType": "CALL",
      "contractName": null,
      "contractAddress": "0xabd9bf9008090f091729290c4e898cb206edd785",
      "function": "approve(address,uint256)",
      "arguments": [
        "0xF690b15B4DDAb1f3927737d52088D7A0a75f3E42",
        "115792089237316195423570985008687907853269984665640564039457584007913129639935"
      ],
      "transaction": {
        "from": "0xf93e7518f79c2e1978d6862dbf161270040e623e",
        "to": "0xabd9bf9008090f091729290c4e898cb206edd785",
        "gas": "0x10888",
        "value": "0x0",
        "input": "0x095ea7b3000000000000000000000000f690b15b4ddab1f3927737d52088d7a0a75f3e42ffffffffffffffffffffffffffffffffffffffffffffffffffffffffffffffff",
        "nonce": "0x561",
        "chainId": "0xaa36a7"
      },
      "additionalContracts": [],
      "isFixedGasLimit": false
    },
    {
      "hash": "0xd20187edcea3762d0a9397adbb6c1bdc3489a74d449d769b1aa02f45db43540b",
      "transactionType": "CALL",
      "contractName": null,
      "contractAddress": "0x00000000000044a361ae3cac094c9d1b14eece97",
      "function": "swapExactTokensForTokens(uint256,uint256,bool,(address,address,uint24,int24,address),bytes,address,uint256)",
      "arguments": [
        "1000000000000",
        "0",
        "true",
        "(0x0000000000000000000000000000000000000000, 0xaBd9bf9008090F091729290C4e898CB206eDD785, 3000, 60, 0xCe9cD7eFF1156D566CFEBADA4C025597cF51BFF8)",
        "0x",
        "0xF93E7518F79C2E1978D6862Dbf161270040e623E",
        "115792089237316195423570985008687907853269984665640564039457584007913129639935"
      ],
      "transaction": {
        "from": "0xf93e7518f79c2e1978d6862dbf161270040e623e",
        "to": "0x00000000000044a361ae3cac094c9d1b14eece97",
        "gas": "0x51166",
        "value": "0xe8d4a51000",
        "input": "0xb1a0d571000000000000000000000000000000000000000000000000000000e8d4a51000000000000000000000000000000000000000000000000000000000000000000000000000000000000000000000000000000000000000000000000000000000010000000000000000000000000000000000000000000000000000000000000000000000000000000000000000abd9bf9008090f091729290c4e898cb206edd7850000000000000000000000000000000000000000000000000000000000000bb8000000000000000000000000000000000000000000000000000000000000003c000000000000000000000000ce9cd7eff1156d566cfebada4c025597cf51bff80000000000000000000000000000000000000000000000000000000000000160000000000000000000000000f93e7518f79c2e1978d6862dbf161270040e623effffffffffffffffffffffffffffffffffffffffffffffffffffffffffffffff0000000000000000000000000000000000000000000000000000000000000000",
        "nonce": "0x562",
        "chainId": "0xaa36a7"
      },
      "additionalContracts": [],
      "isFixedGasLimit": false
    },
    {
      "hash": "0xe06f33eb8eac762159fbe48c2805311e45ec0707116f1393220b1db4cf8c38de",
      "transactionType": "CALL",
      "contractName": null,
      "contractAddress": "0x00000000000044a361ae3cac094c9d1b14eece97",
      "function": "swapExactTokensForTokens(uint256,uint256,bool,(address,address,uint24,int24,address),bytes,address,uint256)",
      "arguments": [
        "10000000000000000000",
        "0",
        "false",
        "(0x0000000000000000000000000000000000000000, 0xaBd9bf9008090F091729290C4e898CB206eDD785, 3000, 60, 0xCe9cD7eFF1156D566CFEBADA4C025597cF51BFF8)",
        "0x",
        "0xF93E7518F79C2E1978D6862Dbf161270040e623E",
        "115792089237316195423570985008687907853269984665640564039457584007913129639935"
      ],
      "transaction": {
        "from": "0xf93e7518f79c2e1978d6862dbf161270040e623e",
        "to": "0x00000000000044a361ae3cac094c9d1b14eece97",
        "gas": "0x54152",
        "value": "0x0",
        "input": "0xb1a0d5710000000000000000000000000000000000000000000000008ac7230489e80000000000000000000000000000000000000000000000000000000000000000000000000000000000000000000000000000000000000000000000000000000000000000000000000000000000000000000000000000000000000000000000000000000000000000000000000000abd9bf9008090f091729290c4e898cb206edd7850000000000000000000000000000000000000000000000000000000000000bb8000000000000000000000000000000000000000000000000000000000000003c000000000000000000000000ce9cd7eff1156d566cfebada4c025597cf51bff80000000000000000000000000000000000000000000000000000000000000160000000000000000000000000f93e7518f79c2e1978d6862dbf161270040e623effffffffffffffffffffffffffffffffffffffffffffffffffffffffffffffff0000000000000000000000000000000000000000000000000000000000000000",
        "nonce": "0x563",
        "chainId": "0xaa36a7"
      },
      "additionalContracts": [],
      "isFixedGasLimit": false
    }
  ],
  "receipts": [
    {
      "type": "0x2",
      "status": "0x1",
      "cumulativeGasUsed": "0x176d5a3",
      "logs": [
        {
          "address": "0xabd9bf9008090f091729290c4e898cb206edd785",
          "topics": [
            "0x8c5be1e5ebec7d5bd14f71427d1e84f3dd0314c0f7b2291e5b200ac8c7c3b925",
            "0x000000000000000000000000f93e7518f79c2e1978d6862dbf161270040e623e",
            "0x000000000000000000000000000000000022d473030f116ddee9f6b43ac78ba3"
          ],
          "data": "0xffffffffffffffffffffffffffffffffffffffffffffffffffffffffffffffff",
          "blockHash": "0xc6665cc1442d0ff0a7b20b25ae1bffb62fbcabbce0063922f42fb890f6b1a509",
          "blockNumber": "0xa96cb1",
          "blockTimestamp": "0x6a36e45c",
          "transactionHash": "0xe06f33eb8eac762159fbe48c2805311e45ec0707116f1393220b1db4cf8c38de",
          "transactionIndex": "0xcd",
          "logIndex": "0x5c2",
          "removed": false
        }
      ],
      "logsBloom": "0x00000000000000000000000000000000000000000000000000000000800000000000020000000000000000000000000000000000800000200000000000200000000000000000000000004000000000000000000000000800000000000000000000000000000000000000000000000000000000000000000000000000000000000000000000000000000000000000000000000000000000000000020002100000020000000000000000000000000000000000000000000000000000000000000000000000000000000000000000000000000000000000000000000000000000000010000000000000000000000000000000000000000000000000000000000000",
      "transactionHash": "0xe06f33eb8eac762159fbe48c2805311e45ec0707116f1393220b1db4cf8c38de",
      "transactionIndex": "0xcd",
      "blockHash": "0xc6665cc1442d0ff0a7b20b25ae1bffb62fbcabbce0063922f42fb890f6b1a509",
      "blockNumber": "0xa96cb1",
      "gasUsed": "0x66e9",
      "effectiveGasPrice": "0x3beb2c67",
      "from": "0xf93e7518f79c2e1978d6862dbf161270040e623e",
      "to": "0xabd9bf9008090f091729290c4e898cb206edd785",
      "contractAddress": null
    },
    {
      "type": "0x2",
      "status": "0x1",
      "cumulativeGasUsed": "0x1774d89",
      "logs": [
        {
          "address": "0x000000000022d473030f116ddee9f6b43ac78ba3",
          "topics": [
            "0xda9fa7c1b00402c17d0161b249b1ab8bbec047c5a52207b9c112deffd817036b",
            "0x000000000000000000000000f93e7518f79c2e1978d6862dbf161270040e623e",
            "0x000000000000000000000000abd9bf9008090f091729290c4e898cb206edd785",
            "0x000000000000000000000000429ba70129df741b2ca2a85bc3a2a3328e5c09b4"
          ],
          "data": "0x000000000000000000000000ffffffffffffffffffffffffffffffffffffffff000000000000000000000000000000000000000000000000000000006a3835c4",
          "blockHash": "0xc6665cc1442d0ff0a7b20b25ae1bffb62fbcabbce0063922f42fb890f6b1a509",
          "blockNumber": "0xa96cb1",
          "blockTimestamp": "0x6a36e45c",
          "transactionHash": "0x191713f1402b28b832d0afed23e05907f601e56782ccaa6d39b48ee4475df84f",
          "transactionIndex": "0xce",
          "logIndex": "0x5c3",
          "removed": false
        }
      ],
      "logsBloom": "0x20010000000000000000000000000000000000000000000000000000800000000000000000000040080000000000000000000000000000200000000000080000000000000000000000000000000000000000000000000010000000000000000000000000000008000000000000000000000000000000000000000800000000000020000000000000000000000000000000000000000000000000000000100000000000000000000000000000000000000000000000000000000000080000000000000000000000000000000000000000000000000000000040000000000000000000000000000000000000000000000000000000000000000000000000000400",
      "transactionHash": "0x191713f1402b28b832d0afed23e05907f601e56782ccaa6d39b48ee4475df84f",
      "transactionIndex": "0xce",
      "blockHash": "0xc6665cc1442d0ff0a7b20b25ae1bffb62fbcabbce0063922f42fb890f6b1a509",
      "blockNumber": "0xa96cb1",
      "gasUsed": "0x77e6",
      "effectiveGasPrice": "0x3beb2c67",
      "from": "0xf93e7518f79c2e1978d6862dbf161270040e623e",
      "to": "0x000000000022d473030f116ddee9f6b43ac78ba3",
      "contractAddress": null
    },
    {
      "type": "0x2",
      "status": "0x1",
      "cumulativeGasUsed": "0x17807f3",
      "logs": [
        {
          "address": "0x000000000022d473030f116ddee9f6b43ac78ba3",
          "topics": [
            "0xda9fa7c1b00402c17d0161b249b1ab8bbec047c5a52207b9c112deffd817036b",
            "0x000000000000000000000000f93e7518f79c2e1978d6862dbf161270040e623e",
            "0x000000000000000000000000abd9bf9008090f091729290c4e898cb206edd785",
            "0x00000000000000000000000000000000000044a361ae3cac094c9d1b14eece97"
          ],
          "data": "0x000000000000000000000000ffffffffffffffffffffffffffffffffffffffff000000000000000000000000000000000000000000000000000000006a3835c4",
          "blockHash": "0xc6665cc1442d0ff0a7b20b25ae1bffb62fbcabbce0063922f42fb890f6b1a509",
          "blockNumber": "0xa96cb1",
          "blockTimestamp": "0x6a36e45c",
          "transactionHash": "0xaefac4a9a0c9551297d635934a57fc235e775b5138f6f4827ca97f0136770612",
          "transactionIndex": "0xcf",
          "logIndex": "0x5c4",
          "removed": false
        }
      ],
      "logsBloom": "0x20010000000000000000000000000000000000000000000000000000800000000000000000000000000000000000000000000000000000200000000040080000000000000000000000000000000000000000000000000010000000000000000000000000000008000000000000000000000000000000000000000000000040000020000000000000000000000000000000000000000000000000000000100000000000000000000000000000000000000000000000000000000000080000000000000000000000000000000000000000000000000000000040000000000000010000000000000000000000000000000000000000000000000000000000000400",
      "transactionHash": "0xaefac4a9a0c9551297d635934a57fc235e775b5138f6f4827ca97f0136770612",
      "transactionIndex": "0xcf",
      "blockHash": "0xc6665cc1442d0ff0a7b20b25ae1bffb62fbcabbce0063922f42fb890f6b1a509",
      "blockNumber": "0xa96cb1",
      "gasUsed": "0xba6a",
      "effectiveGasPrice": "0x3beb2c67",
      "from": "0xf93e7518f79c2e1978d6862dbf161270040e623e",
      "to": "0x000000000022d473030f116ddee9f6b43ac78ba3",
      "contractAddress": null
    },
    {
      "type": "0x2",
      "status": "0x1",
      "cumulativeGasUsed": "0x178bc8c",
      "logs": [
        {
          "address": "0xabd9bf9008090f091729290c4e898cb206edd785",
          "topics": [
            "0x8c5be1e5ebec7d5bd14f71427d1e84f3dd0314c0f7b2291e5b200ac8c7c3b925",
            "0x000000000000000000000000f93e7518f79c2e1978d6862dbf161270040e623e",
            "0x00000000000000000000000000000000000044a361ae3cac094c9d1b14eece97"
          ],
          "data": "0xffffffffffffffffffffffffffffffffffffffffffffffffffffffffffffffff",
          "blockHash": "0xc6665cc1442d0ff0a7b20b25ae1bffb62fbcabbce0063922f42fb890f6b1a509",
          "blockNumber": "0xa96cb1",
          "blockTimestamp": "0x6a36e45c",
          "transactionHash": "0xcd218754b100952c11a0c58d97759abe599df84ad47626d129ca4363c1f02fa1",
          "transactionIndex": "0xd0",
          "logIndex": "0x5c5",
          "removed": false
        }
      ],
      "logsBloom": "0x00000000000000000000000000000000000000000000000000000000800000000000020000000000000000000000000000000000000000200000000040200000000000000000000000000000000000000000000000000000000000000000000000000000000000000000000000000000000000000000000000000000000040000000000000000000000000000000000000000000000000000000020002100000020000000000000000000000000000000000000000000000000000000000000000000000000000000000000000000000000000000000000000000000000000010010000000000000000000000000000000000000000000000000000000000000",
      "transactionHash": "0xcd218754b100952c11a0c58d97759abe599df84ad47626d129ca4363c1f02fa1",
      "transactionIndex": "0xd0",
      "blockHash": "0xc6665cc1442d0ff0a7b20b25ae1bffb62fbcabbce0063922f42fb890f6b1a509",
      "blockNumber": "0xa96cb1",
      "gasUsed": "0xb499",
      "effectiveGasPrice": "0x3beb2c67",
      "from": "0xf93e7518f79c2e1978d6862dbf161270040e623e",
      "to": "0xabd9bf9008090f091729290c4e898cb206edd785",
      "contractAddress": null
    },
    {
      "type": "0x2",
      "status": "0x1",
      "cumulativeGasUsed": "0x179716d",
      "logs": [
        {
          "address": "0xabd9bf9008090f091729290c4e898cb206edd785",
          "topics": [
            "0x8c5be1e5ebec7d5bd14f71427d1e84f3dd0314c0f7b2291e5b200ac8c7c3b925",
            "0x000000000000000000000000f93e7518f79c2e1978d6862dbf161270040e623e",
            "0x000000000000000000000000f690b15b4ddab1f3927737d52088d7a0a75f3e42"
          ],
          "data": "0xffffffffffffffffffffffffffffffffffffffffffffffffffffffffffffffff",
          "blockHash": "0xc6665cc1442d0ff0a7b20b25ae1bffb62fbcabbce0063922f42fb890f6b1a509",
          "blockNumber": "0xa96cb1",
          "blockTimestamp": "0x6a36e45c",
          "transactionHash": "0x71f57780a19f9fff94dc2e0d3bb0e55156d719fda55c014f90cb91c7a577c66f",
          "transactionIndex": "0xd1",
          "logIndex": "0x5c6",
          "removed": false
        }
      ],
      "logsBloom": "0x00000000000400000000000000000000000000000000000001000000800000000000020000000000000000000000000000000000000000200000000000200000000000000000000000000000000000020000000000000000000000000000000000000000000000000000000000000000000000000000000000000000000000000000000000000000000000000000000000000000000000000000020002100000020000000000000000000000000000000000000000000000000000000000000000000000000000000000000000000000000000000000000000000000000000000010000000000000000000000000000000000000000000000000000000000000",
      "transactionHash": "0x71f57780a19f9fff94dc2e0d3bb0e55156d719fda55c014f90cb91c7a577c66f",
      "transactionIndex": "0xd1",
      "blockHash": "0xc6665cc1442d0ff0a7b20b25ae1bffb62fbcabbce0063922f42fb890f6b1a509",
      "blockNumber": "0xa96cb1",
      "gasUsed": "0xb4e1",
      "effectiveGasPrice": "0x3beb2c67",
      "from": "0xf93e7518f79c2e1978d6862dbf161270040e623e",
      "to": "0xabd9bf9008090f091729290c4e898cb206edd785",
      "contractAddress": null
    },
    {
      "type": "0x2",
      "status": "0x1",
      "cumulativeGasUsed": "0x17d1cb9",
      "logs": [
        {
          "address": "0xce9cd7eff1156d566cfebada4c025597cf51bff8",
          "topics": [
            "0xeb18042c63a6494302e2e34ca89562fb59d5b25ded99d617905bdd7c4f891f03",
            "0x0000000000000000000000000000000000000000000000000000000000000001",
            "0x0000000000000000000000000000000000000000000000000000000000000001"
          ],
          "data": "0x0000000000000000000000000000000000000000000000000000001700f05c00",
          "blockHash": "0xc6665cc1442d0ff0a7b20b25ae1bffb62fbcabbce0063922f42fb890f6b1a509",
          "blockNumber": "0xa96cb1",
          "blockTimestamp": "0x6a36e45c",
          "transactionHash": "0x4b87ba42352f465dc36fc055dc5d50620796eb4413af3f047a7521334f143fad",
          "transactionIndex": "0xd2",
          "logIndex": "0x5c7",
          "removed": false
        },
        {
          "address": "0xe03a1074c86cfedd5c142c4f04f1a1536e203543",
          "topics": [
            "0x40e9cecb9f5f1f1c5b9c97dec2917b7ee92e57ba5563708daca94dd84ad7112f",
            "0xd4553ec31490915f6a57a6e8283d5c03d694dd2a902d038a46c82b5e211060df",
            "0x00000000000000000000000000000000000044a361ae3cac094c9d1b14eece97"
          ],
          "data": "0xffffffffffffffffffffffffffffffffffffffffffffffffffffff2e2c4b4c00000000000000000000000000000000000000000000000000013f35098d403605000000000000000000000000000000000000013c3994ab11996f781b09e8cc87000000000000000000000000000000000000000000000001b6daabc64ae595a7000000000000000000000000000000000000000000000000000000000001c1be0000000000000000000000000000000000000000000000000000000000000bb8",
          "blockHash": "0xc6665cc1442d0ff0a7b20b25ae1bffb62fbcabbce0063922f42fb890f6b1a509",
          "blockNumber": "0xa96cb1",
          "blockTimestamp": "0x6a36e45c",
          "transactionHash": "0x4b87ba42352f465dc36fc055dc5d50620796eb4413af3f047a7521334f143fad",
          "transactionIndex": "0xd2",
          "logIndex": "0x5c8",
          "removed": false
        },
        {
          "address": "0xe03a1074c86cfedd5c142c4f04f1a1536e203543",
          "topics": [
            "0x1b3d7edb2e9c0b0e7c525b20aaaef0f5940d2ed71663c7d39266ecafac728859",
            "0x0000000000000000000000000000000000000000000000000000000000000000",
            "0x000000000000000000000000ce9cd7eff1156d566cfebada4c025597cf51bff8",
            "0x0000000000000000000000000000000000000000000000000000000000000000"
          ],
          "data": "0x000000000000000000000000ce9cd7eff1156d566cfebada4c025597cf51bff80000000000000000000000000000000000000000000000000000001700f05c00",
          "blockHash": "0xc6665cc1442d0ff0a7b20b25ae1bffb62fbcabbce0063922f42fb890f6b1a509",
          "blockNumber": "0xa96cb1",
          "blockTimestamp": "0x6a36e45c",
          "transactionHash": "0x4b87ba42352f465dc36fc055dc5d50620796eb4413af3f047a7521334f143fad",
          "transactionIndex": "0xd2",
          "logIndex": "0x5c9",
          "removed": false
        },
        {
          "address": "0xe03a1074c86cfedd5c142c4f04f1a1536e203543",
          "topics": [
            "0x1b3d7edb2e9c0b0e7c525b20aaaef0f5940d2ed71663c7d39266ecafac728859",
            "0x000000000000000000000000ce9cd7eff1156d566cfebada4c025597cf51bff8",
            "0x0000000000000000000000000000000000000000000000000000000000000000",
            "0x0000000000000000000000000000000000000000000000000000000000000000"
          ],
          "data": "0x000000000000000000000000ce9cd7eff1156d566cfebada4c025597cf51bff80000000000000000000000000000000000000000000000000000001700f05c00",
          "blockHash": "0xc6665cc1442d0ff0a7b20b25ae1bffb62fbcabbce0063922f42fb890f6b1a509",
          "blockNumber": "0xa96cb1",
          "blockTimestamp": "0x6a36e45c",
          "transactionHash": "0x4b87ba42352f465dc36fc055dc5d50620796eb4413af3f047a7521334f143fad",
          "transactionIndex": "0xd2",
          "logIndex": "0x5ca",
          "removed": false
        },
        {
          "address": "0xce9cd7eff1156d566cfebada4c025597cf51bff8",
          "topics": [
            "0xda378dba4f1dc8c7a566c70096e0389c466cb99cc2ec74173afd50c7b652ca09"
          ],
          "data": "0x00000000000000000000000000000000000000000000000000000000000000000000000000000000000000000000000000000000000000000000001700f05c00",
          "blockHash": "0xc6665cc1442d0ff0a7b20b25ae1bffb62fbcabbce0063922f42fb890f6b1a509",
          "blockNumber": "0xa96cb1",
          "blockTimestamp": "0x6a36e45c",
          "transactionHash": "0x4b87ba42352f465dc36fc055dc5d50620796eb4413af3f047a7521334f143fad",
          "transactionIndex": "0xd2",
          "logIndex": "0x5cb",
          "removed": false
        },
        {
          "address": "0xabd9bf9008090f091729290c4e898cb206edd785",
          "topics": [
            "0xddf252ad1be2c89b69c2b068fc378daa952ba7f163c4a11628f55a4df523b3ef",
            "0x000000000000000000000000e03a1074c86cfedd5c142c4f04f1a1536e203543",
            "0x000000000000000000000000f93e7518f79c2e1978d6862dbf161270040e623e"
          ],
          "data": "0x000000000000000000000000000000000000000000000000013f35098d403605",
          "blockHash": "0xc6665cc1442d0ff0a7b20b25ae1bffb62fbcabbce0063922f42fb890f6b1a509",
          "blockNumber": "0xa96cb1",
          "blockTimestamp": "0x6a36e45c",
          "transactionHash": "0x4b87ba42352f465dc36fc055dc5d50620796eb4413af3f047a7521334f143fad",
          "transactionIndex": "0xd2",
          "logIndex": "0x5cc",
          "removed": false
        }
      ],
      "logsBloom": "0x00000000000000000000000000000000000000020400001000000000800200000000020000000000000000000000000000000100040000200000000040044800000000000000000000000008000014000000000000040020000000000000000001000000020000000000000080000800000800000000100000000010000040000000000000000000000010000000000000000000000000000200020002180000000000000000000000000000000020000000000000000000400000000008000000000102000000000000000000000000000000000000000000001000000060011000000000000000004000000000000000000000000000000000000004001000",
      "transactionHash": "0x4b87ba42352f465dc36fc055dc5d50620796eb4413af3f047a7521334f143fad",
      "transactionIndex": "0xd2",
      "blockHash": "0xc6665cc1442d0ff0a7b20b25ae1bffb62fbcabbce0063922f42fb890f6b1a509",
      "blockNumber": "0xa96cb1",
      "gasUsed": "0x3ab4c",
      "effectiveGasPrice": "0x3beb2c67",
      "from": "0xf93e7518f79c2e1978d6862dbf161270040e623e",
      "to": "0x00000000000044a361ae3cac094c9d1b14eece97",
      "contractAddress": null
    },
    {
      "type": "0x2",
      "status": "0x1",
      "cumulativeGasUsed": "0x180b49a",
      "logs": [
        {
          "address": "0xce9cd7eff1156d566cfebada4c025597cf51bff8",
          "topics": [
            "0xeb18042c63a6494302e2e34ca89562fb59d5b25ded99d617905bdd7c4f891f03",
            "0x0000000000000000000000000000000000000000000000000000000000000000",
            "0x0000000000000000000000000000000000000000000000000000000000000000"
          ],
          "data": "0x0000000000000000000000000000000000000000000000001f4b5e8d70818000",
          "blockHash": "0xc6665cc1442d0ff0a7b20b25ae1bffb62fbcabbce0063922f42fb890f6b1a509",
          "blockNumber": "0xa96cb1",
          "blockTimestamp": "0x6a36e45c",
          "transactionHash": "0xd20187edcea3762d0a9397adbb6c1bdc3489a74d449d769b1aa02f45db43540b",
          "transactionIndex": "0xd3",
          "logIndex": "0x5cd",
          "removed": false
        },
        {
          "address": "0xe03a1074c86cfedd5c142c4f04f1a1536e203543",
          "topics": [
            "0x40e9cecb9f5f1f1c5b9c97dec2917b7ee92e57ba5563708daca94dd84ad7112f",
            "0xd4553ec31490915f6a57a6e8283d5c03d694dd2a902d038a46c82b5e211060df",
            "0x00000000000000000000000000000000000044a361ae3cac094c9d1b14eece97"
          ],
          "data": "0x0000000000000000000000000000000000000000000000000000462d15fc95b1ffffffffffffffffffffffffffffffffffffffffffffffff94843b88e6998000000000000000000000000000000000000000013c78177ce6b3b41a91d7f53b20000000000000000000000000000000000000000000000001b6daabc64ae595a7000000000000000000000000000000000000000000000000000000000001c1ce0000000000000000000000000000000000000000000000000000000000000bb8",
          "blockHash": "0xc6665cc1442d0ff0a7b20b25ae1bffb62fbcabbce0063922f42fb890f6b1a509",
          "blockNumber": "0xa96cb1",
          "blockTimestamp": "0x6a36e45c",
          "transactionHash": "0xd20187edcea3762d0a9397adbb6c1bdc3489a74d449d769b1aa02f45db43540b",
          "transactionIndex": "0xd3",
          "logIndex": "0x5ce",
          "removed": false
        },
        {
          "address": "0xe03a1074c86cfedd5c142c4f04f1a1536e203543",
          "topics": [
            "0x1b3d7edb2e9c0b0e7c525b20aaaef0f5940d2ed71663c7d39266ecafac728859",
            "0x0000000000000000000000000000000000000000000000000000000000000000",
            "0x000000000000000000000000ce9cd7eff1156d566cfebada4c025597cf51bff8",
            "0x000000000000000000000000abd9bf9008090f091729290c4e898cb206edd785"
          ],
          "data": "0x000000000000000000000000ce9cd7eff1156d566cfebada4c025597cf51bff80000000000000000000000000000000000000000000000001f4b5e8d70818000",
          "blockHash": "0xc6665cc1442d0ff0a7b20b25ae1bffb62fbcabbce0063922f42fb890f6b1a509",
          "blockNumber": "0xa96cb1",
          "blockTimestamp": "0x6a36e45c",
          "transactionHash": "0xd20187edcea3762d0a9397adbb6c1bdc3489a74d449d769b1aa02f45db43540b",
          "transactionIndex": "0xd3",
          "logIndex": "0x5cf",
          "removed": false
        },
        {
          "address": "0xe03a1074c86cfedd5c142c4f04f1a1536e203543",
          "topics": [
            "0x40e9cecb9f5f1f1c5b9c97dec2917b7ee92e57ba5563708daca94dd84ad7112f",
            "0xd4553ec31490915f6a57a6e8283d5c03d694dd2a902d038a46c82b5e211060df",
            "0x000000000000000000000000ce9cd7eff1156d566cfebada4c025597cf51bff8"
          ],
          "data": "0x000000000000000000000000000000000000000000000000000014696cdf3ab3ffffffffffffffffffffffffffffffffffffffffffffffffe0b4a1728f7e8000000000000000000000000000000000000000013c8a4acc56fd4b25046c88a239000000000000000000000000000000000000000000000001b6daabc64ae595a7000000000000000000000000000000000000000000000000000000000001c1d20000000000000000000000000000000000000000000000000000000000000bb8",
          "blockHash": "0xc6665cc1442d0ff0a7b20b25ae1bffb62fbcabbce0063922f42fb890f6b1a509",
          "blockNumber": "0xa96cb1",
          "blockTimestamp": "0x6a36e45c",
          "transactionHash": "0xd20187edcea3762d0a9397adbb6c1bdc3489a74d449d769b1aa02f45db43540b",
          "transactionIndex": "0xd3",
          "logIndex": "0x5d0",
          "removed": false
        },
        {
          "address": "0xe03a1074c86cfedd5c142c4f04f1a1536e203543",
          "topics": [
            "0x1b3d7edb2e9c0b0e7c525b20aaaef0f5940d2ed71663c7d39266ecafac728859",
            "0x000000000000000000000000ce9cd7eff1156d566cfebada4c025597cf51bff8",
            "0x0000000000000000000000000000000000000000000000000000000000000000",
            "0x000000000000000000000000abd9bf9008090f091729290c4e898cb206edd785"
          ],
          "data": "0x000000000000000000000000ce9cd7eff1156d566cfebada4c025597cf51bff80000000000000000000000000000000000000000000000001f4b5e8d70818000",
          "blockHash": "0xc6665cc1442d0ff0a7b20b25ae1bffb62fbcabbce0063922f42fb890f6b1a509",
          "blockNumber": "0xa96cb1",
          "blockTimestamp": "0x6a36e45c",
          "transactionHash": "0xd20187edcea3762d0a9397adbb6c1bdc3489a74d449d769b1aa02f45db43540b",
          "transactionIndex": "0xd3",
          "logIndex": "0x5d1",
          "removed": false
        },
        {
          "address": "0xce9cd7eff1156d566cfebada4c025597cf51bff8",
          "topics": [
            "0xda378dba4f1dc8c7a566c70096e0389c466cb99cc2ec74173afd50c7b652ca09"
          ],
          "data": "0x0000000000000000000000000000000000000000000000000000000000000000000000000000000000000000000000000000000000000000000014696cdf3ab3",
          "blockHash": "0xc6665cc1442d0ff0a7b20b25ae1bffb62fbcabbce0063922f42fb890f6b1a509",
          "blockNumber": "0xa96cb1",
          "blockTimestamp": "0x6a36e45c",
          "transactionHash": "0xd20187edcea3762d0a9397adbb6c1bdc3489a74d449d769b1aa02f45db43540b",
          "transactionIndex": "0xd3",
          "logIndex": "0x5d2",
          "removed": false
        },
        {
          "address": "0xabd9bf9008090f091729290c4e898cb206edd785",
          "topics": [
            "0xddf252ad1be2c89b69c2b068fc378daa952ba7f163c4a11628f55a4df523b3ef",
            "0x000000000000000000000000f93e7518f79c2e1978d6862dbf161270040e623e",
            "0x000000000000000000000000e03a1074c86cfedd5c142c4f04f1a1536e203543"
          ],
          "data": "0x0000000000000000000000000000000000000000000000008ac7230489e80000",
          "blockHash": "0xc6665cc1442d0ff0a7b20b25ae1bffb62fbcabbce0063922f42fb890f6b1a509",
          "blockNumber": "0xa96cb1",
          "blockTimestamp": "0x6a36e45c",
          "transactionHash": "0xd20187edcea3762d0a9397adbb6c1bdc3489a74d449d769b1aa02f45db43540b",
          "transactionIndex": "0xd3",
          "logIndex": "0x5d3",
          "removed": false
        }
      ],
      "logsBloom": "0x20000000000000000000000000000000000000020400001000000000800200000000020000000000000000000000000000000100040000200000000040004800000000000000000000000008000014000000000000000030000000000000000001000000020008000000000080000800000800000000100000000010000040000000000000000000000010000000000000000000000000000200020002180000000000000000000000000000000020000000000000000000400000000008000000000102000000000000000000000000000000000000000000001000000020011000000000000000004000000000000000000000000000000000000004001000",
      "transactionHash": "0xd20187edcea3762d0a9397adbb6c1bdc3489a74d449d769b1aa02f45db43540b",
      "transactionIndex": "0xd3",
      "blockHash": "0xc6665cc1442d0ff0a7b20b25ae1bffb62fbcabbce0063922f42fb890f6b1a509",
      "blockNumber": "0xa96cb1",
      "gasUsed": "0x397e1",
      "effectiveGasPrice": "0x3beb2c67",
      "from": "0xf93e7518f79c2e1978d6862dbf161270040e623e",
      "to": "0x00000000000044a361ae3cac094c9d1b14eece97",
      "contractAddress": null
    }
  ],
  "libraries": [],
  "pending": [],
  "returns": {},
  "timestamp": 1781982302209,
  "chain": 11155111,
  "commit": "e9509a8"
}