{
  "transactions": [
    {
      "hash": "0x5394df00f673091c7b487a10cf7d9b8591756314d2141e4afab9ac76960cf537",
      "transactionType": "CALL",
      "contractName": null,
      "contractAddress": "0xabd9bf9008090f091729290c4e898cb206edd785",
      "function": "approve(address,uint256)",
      "arguments": [
        "0x000000000022D473030F116dDEE9F6B43aC78BA3",
        "115792089237316195423570985008687907853269984665640564039457584007913129639935"
      ],
      "transaction": {
        "from": "0xf93e7518f79c2e1978d6862dbf161270040e623e",
        "to": "0xabd9bf9008090f091729290c4e898cb206edd785",
        "gas": "0x9681",
        "value": "0x0",
        "input": "0x095ea7b3000000000000000000000000000000000022d473030f116ddee9f6b43ac78ba3ffffffffffffffffffffffffffffffffffffffffffffffffffffffffffffffff",
        "nonce": "0x564",
        "chainId": "0xaa36a7"
      },
      "additionalContracts": [],
      "isFixedGasLimit": false
    },
    {
      "hash": "0x98ce707151dcaac73ef88428246ec4e6f1747b9889979c83eab9119d6fa40485",
      "transactionType": "CALL",
      "contractName": null,
      "contractAddress": "0x000000000022d473030f116ddee9f6b43ac78ba3",
      "function": "approve(address,address,uint160,uint48)",
      "arguments": [
        "0xaBd9bf9008090F091729290C4e898CB206eDD785",
        "0x429ba70129df741B2Ca2a85BC3A2a3328e5c09b4",
        "1461501637330902918203684832716283019655932542975",
        "1782069828"
      ],
      "transaction": {
        "from": "0xf93e7518f79c2e1978d6862dbf161270040e623e",
        "to": "0x000000000022d473030f116ddee9f6b43ac78ba3",
        "gas": "0xa59b",
        "value": "0x0",
        "input": "0x87517c45000000000000000000000000abd9bf9008090f091729290c4e898cb206edd785000000000000000000000000429ba70129df741b2ca2a85bc3a2a3328e5c09b4000000000000000000000000ffffffffffffffffffffffffffffffffffffffff000000000000000000000000000000000000000000000000000000006a383a44",
        "nonce": "0x565",
        "chainId": "0xaa36a7"
      },
      "additionalContracts": [],
      "isFixedGasLimit": false
    },
    {
      "hash": "0xbcf3d88a9b1f098a0fc8d889ee11df44ea850121914f1c209ec13bdadf026780",
      "transactionType": "CALL",
      "contractName": null,
      "contractAddress": "0x000000000022d473030f116ddee9f6b43ac78ba3",
      "function": "approve(address,address,uint160,uint48)",
      "arguments": [
        "0xaBd9bf9008090F091729290C4e898CB206eDD785",
        "0x00000000000044a361Ae3cAc094c9D1b14Eece97",
        "1461501637330902918203684832716283019655932542975",
        "1782069828"
      ],
      "transaction": {
        "from": "0xf93e7518f79c2e1978d6862dbf161270040e623e",
        "to": "0x000000000022d473030f116ddee9f6b43ac78ba3",
        "gas": "0xa537",
        "value": "0x0",
        "input": "0x87517c45000000000000000000000000abd9bf9008090f091729290c4e898cb206edd78500000000000000000000000000000000000044a361ae3cac094c9d1b14eece97000000000000000000000000ffffffffffffffffffffffffffffffffffffffff000000000000000000000000000000000000000000000000000000006a383a44",
        "nonce": "0x566",
        "chainId": "0xaa36a7"
      },
      "additionalContracts": [],
      "isFixedGasLimit": false
    },
    {
      "hash": "0xa2e794fadd0697c9cf31e7b728d0dbb6f981014b6d346767c97946f1bd574bb9",
      "transactionType": "CALL",
      "contractName": null,
      "contractAddress": "0xabd9bf9008090f091729290c4e898cb206edd785",
      "function": "approve(address,uint256)",
      "arguments": [
        "0x00000000000044a361Ae3cAc094c9D1b14Eece97",
        "115792089237316195423570985008687907853269984665640564039457584007913129639935"
      ],
      "transaction": {
        "from": "0xf93e7518f79c2e1978d6862dbf161270040e623e",
        "to": "0xabd9bf9008090f091729290c4e898cb206edd785",
        "gas": "0x8e13",
        "value": "0x0",
        "input": "0x095ea7b300000000000000000000000000000000000044a361ae3cac094c9d1b14eece97ffffffffffffffffffffffffffffffffffffffffffffffffffffffffffffffff",
        "nonce": "0x567",
        "chainId": "0xaa36a7"
      },
      "additionalContracts": [],
      "isFixedGasLimit": false
    },
    {
      "hash": "0xff4ab807e58c819dc8eab6e40bdea3536332b4de368ae78dc9792ceb824634a7",
      "transactionType": "CALL",
      "contractName": null,
      "contractAddress": "0xabd9bf9008090f091729290c4e898cb206edd785",
      "function": "approve(address,uint256)",
      "arguments": [
        "0xF690b15B4DDAb1f3927737d52088D7A0a75f3E42",
        "115792089237316195423570985008687907853269984665640564039457584007913129639935"
      ],
      "transaction": {
        "from": "0xf93e7518f79c2e1978d6862dbf161270040e623e",
        "to": "0xabd9bf9008090f091729290c4e898cb206edd785",
        "gas": "0x8e77",
        "value": "0x0",
        "input": "0x095ea7b3000000000000000000000000f690b15b4ddab1f3927737d52088d7a0a75f3e42ffffffffffffffffffffffffffffffffffffffffffffffffffffffffffffffff",
        "nonce": "0x568",
        "chainId": "0xaa36a7"
      },
      "additionalContracts": [],
      "isFixedGasLimit": false
    },
    {
      "hash": "0x59824b919ab30207e60e3413785896e6070978071decb9c4954345c479381504",
      "transactionType": "CALL",
      "contractName": null,
      "contractAddress": "0x00000000000044a361ae3cac094c9d1b14eece97",
      "function": "swapExactTokensForTokens(uint256,uint256,bool,(address,address,uint24,int24,address),bytes,address,uint256)",
      "arguments": [
        "1000000000000",
        "0",
        "true",
        "(0x0000000000000000000000000000000000000000, 0xaBd9bf9008090F091729290C4e898CB206eDD785, 3000, 60, 0xCe9cD7eFF1156D566CFEBADA4C025597cF51BFF8)",
        "0x",
        "0xF93E7518F79C2E1978D6862Dbf161270040e623E",
        "115792089237316195423570985008687907853269984665640564039457584007913129639935"
      ],
      "transaction": {
        "from": "0xf93e7518f79c2e1978d6862dbf161270040e623e",
        "to": "0x00000000000044a361ae3cac094c9d1b14eece97",
        "gas": "0x49f65",
        "value": "0xe8d4a51000",
        "input": "0xb1a0d571000000000000000000000000000000000000000000000000000000e8d4a51000000000000000000000000000000000000000000000000000000000000000000000000000000000000000000000000000000000000000000000000000000000010000000000000000000000000000000000000000000000000000000000000000000000000000000000000000abd9bf9008090f091729290c4e898cb206edd7850000000000000000000000000000000000000000000000000000000000000bb8000000000000000000000000000000000000000000000000000000000000003c000000000000000000000000ce9cd7eff1156d566cfebada4c025597cf51bff80000000000000000000000000000000000000000000000000000000000000160000000000000000000000000f93e7518f79c2e1978d6862dbf161270040e623effffffffffffffffffffffffffffffffffffffffffffffffffffffffffffffff0000000000000000000000000000000000000000000000000000000000000000",
        "nonce": "0x569",
        "chainId": "0xaa36a7"
      },
      "additionalContracts": [],
      "isFixedGasLimit": false
    },
    {
      "hash": "0x21dc92dd4cb665d4b448d989d3b36d4cbec7c5cd70291ca4407edb235fe6f25a",
      "transactionType": "CALL",
      "contractName": null,
      "contractAddress": "0x00000000000044a361ae3cac094c9d1b14eece97",
      "function": "swapExactTokensForTokens(uint256,uint256,bool,(address,address,uint24,int24,address),bytes,address,uint256)",
      "arguments": [
        "10000000000000000000",
        "0",
        "false",
        "(0x0000000000000000000000000000000000000000, 0xaBd9bf9008090F091729290C4e898CB206eDD785, 3000, 60, 0xCe9cD7eFF1156D566CFEBADA4C025597cF51BFF8)",
        "0x",
        "0xF93E7518F79C2E1978D6862Dbf161270040e623E",
        "115792089237316195423570985008687907853269984665640564039457584007913129639935"
      ],
      "transaction": {
        "from": "0xf93e7518f79c2e1978d6862dbf161270040e623e",
        "to": "0x00000000000044a361ae3cac094c9d1b14eece97",
        "gas": "0x49f3e",
        "value": "0x0",
        "input": "0xb1a0d5710000000000000000000000000000000000000000000000008ac7230489e80000000000000000000000000000000000000000000000000000000000000000000000000000000000000000000000000000000000000000000000000000000000000000000000000000000000000000000000000000000000000000000000000000000000000000000000000000abd9bf9008090f091729290c4e898cb206edd7850000000000000000000000000000000000000000000000000000000000000bb8000000000000000000000000000000000000000000000000000000000000003c000000000000000000000000ce9cd7eff1156d566cfebada4c025597cf51bff80000000000000000000000000000000000000000000000000000000000000160000000000000000000000000f93e7518f79c2e1978d6862dbf161270040e623effffffffffffffffffffffffffffffffffffffffffffffffffffffffffffffff0000000000000000000000000000000000000000000000000000000000000000",
        "nonce": "0x56a",
        "chainId": "0xaa36a7"
      },
      "additionalContracts": [],
      "isFixedGasLimit": false
    }
  ],
  "receipts": [
    {
      "type": "0x2",
      "status": "0x1",
      "cumulativeGasUsed": "0x10a1f3d",
      "logs": [
        {
          "address": "0xabd9bf9008090f091729290c4e898cb206edd785",
          "topics": [
            "0x8c5be1e5ebec7d5bd14f71427d1e84f3dd0314c0f7b2291e5b200ac8c7c3b925",
            "0x000000000000000000000000f93e7518f79c2e1978d6862dbf161270040e623e",
            "0x000000000000000000000000000000000022d473030f116ddee9f6b43ac78ba3"
          ],
          "data": "0xffffffffffffffffffffffffffffffffffffffffffffffffffffffffffffffff",
          "blockHash": "0x3377703129fd8ae235dd1850ce13dc09764fc05cd68eabd0d73858ddb7435339",
          "blockNumber": "0xa96d12",
          "blockTimestamp": "0x6a36e8e8",
          "transactionHash": "0x98ce707151dcaac73ef88428246ec4e6f1747b9889979c83eab9119d6fa40485",
          "transactionIndex": "0x89",
          "logIndex": "0x4d5",
          "removed": false
        }
      ],
      "logsBloom": "0x00000000000000000000000000000000000000000000000000000000800000000000020000000000000000000000000000000000800000200000000000200000000000000000000000004000000000000000000000000800000000000000000000000000000000000000000000000000000000000000000000000000000000000000000000000000000000000000000000000000000000000000020002100000020000000000000000000000000000000000000000000000000000000000000000000000000000000000000000000000000000000000000000000000000000000010000000000000000000000000000000000000000000000000000000000000",
      "transactionHash": "0x98ce707151dcaac73ef88428246ec4e6f1747b9889979c83eab9119d6fa40485",
      "transactionIndex": "0x89",
      "blockHash": "0x3377703129fd8ae235dd1850ce13dc09764fc05cd68eabd0d73858ddb7435339",
      "blockNumber": "0xa96d12",
      "gasUsed": "0x66e9",
      "effectiveGasPrice": "0x3fbebb36",
      "from": "0xf93e7518f79c2e1978d6862dbf161270040e623e",
      "to": "0xabd9bf9008090f091729290c4e898cb206edd785",
      "contractAddress": null
    },
    {
      "type": "0x2",
      "status": "0x1",
      "cumulativeGasUsed": "0x10d429f",
      "logs": [
        {
          "address": "0x000000000022d473030f116ddee9f6b43ac78ba3",
          "topics": [
            "0xda9fa7c1b00402c17d0161b249b1ab8bbec047c5a52207b9c112deffd817036b",
            "0x000000000000000000000000f93e7518f79c2e1978d6862dbf161270040e623e",
            "0x000000000000000000000000abd9bf9008090f091729290c4e898cb206edd785",
            "0x000000000000000000000000429ba70129df741b2ca2a85bc3a2a3328e5c09b4"
          ],
          "data": "0x000000000000000000000000ffffffffffffffffffffffffffffffffffffffff000000000000000000000000000000000000000000000000000000006a383a44",
          "blockHash": "0x3377703129fd8ae235dd1850ce13dc09764fc05cd68eabd0d73858ddb7435339",
          "blockNumber": "0xa96d12",
          "blockTimestamp": "0x6a36e8e8",
          "transactionHash": "0x21dc92dd4cb665d4b448d989d3b36d4cbec7c5cd70291ca4407edb235fe6f25a",
          "transactionIndex": "0x8c",
          "logIndex": "0x4d6",
          "removed": false
        }
      ],
      "logsBloom": "0x20010000000000000000000000000000000000000000000000000000800000000000000000000040080000000000000000000000000000200000000000080000000000000000000000000000000000000000000000000010000000000000000000000000000008000000000000000000000000000000000000000800000000000020000000000000000000000000000000000000000000000000000000100000000000000000000000000000000000000000000000000000000000080000000000000000000000000000000000000000000000000000000040000000000000000000000000000000000000000000000000000000000000000000000000000400",
      "transactionHash": "0x21dc92dd4cb665d4b448d989d3b36d4cbec7c5cd70291ca4407edb235fe6f25a",
      "transactionIndex": "0x8c",
      "blockHash": "0x3377703129fd8ae235dd1850ce13dc09764fc05cd68eabd0d73858ddb7435339",
      "blockNumber": "0xa96d12",
      "gasUsed": "0x77e6",
      "effectiveGasPrice": "0x3fbebb36",
      "from": "0xf93e7518f79c2e1978d6862dbf161270040e623e",
      "to": "0x000000000022d473030f116ddee9f6b43ac78ba3",
      "contractAddress": null
    },
    {
      "type": "0x2",
      "status": "0x1",
      "cumulativeGasUsed": "0x10dba3d",
      "logs": [
        {
          "address": "0x000000000022d473030f116ddee9f6b43ac78ba3",
          "topics": [
            "0xda9fa7c1b00402c17d0161b249b1ab8bbec047c5a52207b9c112deffd817036b",
            "0x000000000000000000000000f93e7518f79c2e1978d6862dbf161270040e623e",
            "0x000000000000000000000000abd9bf9008090f091729290c4e898cb206edd785",
            "0x00000000000000000000000000000000000044a361ae3cac094c9d1b14eece97"
          ],
          "data": "0x000000000000000000000000ffffffffffffffffffffffffffffffffffffffff000000000000000000000000000000000000000000000000000000006a383a44",
          "blockHash": "0x3377703129fd8ae235dd1850ce13dc09764fc05cd68eabd0d73858ddb7435339",
          "blockNumber": "0xa96d12",
          "blockTimestamp": "0x6a36e8e8",
          "transactionHash": "0x59824b919ab30207e60e3413785896e6070978071decb9c4954345c479381504",
          "transactionIndex": "0x8d",
          "logIndex": "0x4d7",
          "removed": false
        }
      ],
      "logsBloom": "0x20010000000000000000000000000000000000000000000000000000800000000000000000000000000000000000000000000000000000200000000040080000000000000000000000000000000000000000000000000010000000000000000000000000000008000000000000000000000000000000000000000000000040000020000000000000000000000000000000000000000000000000000000100000000000000000000000000000000000000000000000000000000000080000000000000000000000000000000000000000000000000000000040000000000000010000000000000000000000000000000000000000000000000000000000000400",
      "transactionHash": "0x59824b919ab30207e60e3413785896e6070978071decb9c4954345c479381504",
      "transactionIndex": "0x8d",
      "blockHash": "0x3377703129fd8ae235dd1850ce13dc09764fc05cd68eabd0d73858ddb7435339",
      "blockNumber": "0xa96d12",
      "gasUsed": "0x779e",
      "effectiveGasPrice": "0x3fbebb36",
      "from": "0xf93e7518f79c2e1978d6862dbf161270040e623e",
      "to": "0x000000000022d473030f116ddee9f6b43ac78ba3",
      "contractAddress": null
    },
    {
      "type": "0x2",
      "status": "0x1",
      "cumulativeGasUsed": "0x11200ee",
      "logs": [
        {
          "address": "0xabd9bf9008090f091729290c4e898cb206edd785",
          "topics": [
            "0x8c5be1e5ebec7d5bd14f71427d1e84f3dd0314c0f7b2291e5b200ac8c7c3b925",
            "0x000000000000000000000000f93e7518f79c2e1978d6862dbf161270040e623e",
            "0x00000000000000000000000000000000000044a361ae3cac094c9d1b14eece97"
          ],
          "data": "0xffffffffffffffffffffffffffffffffffffffffffffffffffffffffffffffff",
          "blockHash": "0x3377703129fd8ae235dd1850ce13dc09764fc05cd68eabd0d73858ddb7435339",
          "blockNumber": "0xa96d12",
          "blockTimestamp": "0x6a36e8e8",
          "transactionHash": "0xff4ab807e58c819dc8eab6e40bdea3536332b4de368ae78dc9792ceb824634a7",
          "transactionIndex": "0x90",
          "logIndex": "0x4e3",
          "removed": false
        }
      ],
      "logsBloom": "0x00000000000000000000000000000000000000000000000000000000800000000000020000000000000000000000000000000000000000200000000040200000000000000000000000000000000000000000000000000000000000000000000000000000000000000000000000000000000000000000000000000000000040000000000000000000000000000000000000000000000000000000020002100000020000000000000000000000000000000000000000000000000000000000000000000000000000000000000000000000000000000000000000000000000000010010000000000000000000000000000000000000000000000000000000000000",
      "transactionHash": "0xff4ab807e58c819dc8eab6e40bdea3536332b4de368ae78dc9792ceb824634a7",
      "transactionIndex": "0x90",
      "blockHash": "0x3377703129fd8ae235dd1850ce13dc09764fc05cd68eabd0d73858ddb7435339",
      "blockNumber": "0xa96d12",
      "gasUsed": "0x66dd",
      "effectiveGasPrice": "0x3fbebb36",
      "from": "0xf93e7518f79c2e1978d6862dbf161270040e623e",
      "to": "0xabd9bf9008090f091729290c4e898cb206edd785",
      "contractAddress": null
    },
    {
      "type": "0x2",
      "status": "0x1",
      "cumulativeGasUsed": "0x1126813",
      "logs": [
        {
          "address": "0xabd9bf9008090f091729290c4e898cb206edd785",
          "topics": [
            "0x8c5be1e5ebec7d5bd14f71427d1e84f3dd0314c0f7b2291e5b200ac8c7c3b925",
            "0x000000000000000000000000f93e7518f79c2e1978d6862dbf161270040e623e",
            "0x000000000000000000000000f690b15b4ddab1f3927737d52088d7a0a75f3e42"
          ],
          "data": "0xffffffffffffffffffffffffffffffffffffffffffffffffffffffffffffffff",
          "blockHash": "0x3377703129fd8ae235dd1850ce13dc09764fc05cd68eabd0d73858ddb7435339",
          "blockNumber": "0xa96d12",
          "blockTimestamp": "0x6a36e8e8",
          "transactionHash": "0xbcf3d88a9b1f098a0fc8d889ee11df44ea850121914f1c209ec13bdadf026780",
          "transactionIndex": "0x91",
          "logIndex": "0x4e4",
          "removed": false
        }
      ],
      "logsBloom": "0x00000000000400000000000000000000000000000000000001000000800000000000020000000000000000000000000000000000000000200000000000200000000000000000000000000000000000020000000000000000000000000000000000000000000000000000000000000000000000000000000000000000000000000000000000000000000000000000000000000000000000000000020002100000020000000000000000000000000000000000000000000000000000000000000000000000000000000000000000000000000000000000000000000000000000000010000000000000000000000000000000000000000000000000000000000000",
      "transactionHash": "0xbcf3d88a9b1f098a0fc8d889ee11df44ea850121914f1c209ec13bdadf026780",
      "transactionIndex": "0x91",
      "blockHash": "0x3377703129fd8ae235dd1850ce13dc09764fc05cd68eabd0d73858ddb7435339",
      "blockNumber": "0xa96d12",
      "gasUsed": "0x6725",
      "effectiveGasPrice": "0x3fbebb36",
      "from": "0xf93e7518f79c2e1978d6862dbf161270040e623e",
      "to": "0xabd9bf9008090f091729290c4e898cb206edd785",
      "contractAddress": null
    },
    {
      "type": "0x2",
      "status": "0x1",
      "cumulativeGasUsed": "0x11133f1",
      "logs": [
        {
          "address": "0xce9cd7eff1156d566cfebada4c025597cf51bff8",
          "topics": [
            "0xeb18042c63a6494302e2e34ca89562fb59d5b25ded99d617905bdd7c4f891f03",
            "0x0000000000000000000000000000000000000000000000000000000000000001",
            "0x0000000000000000000000000000000000000000000000000000000000000001"
          ],
          "data": "0x00000000000000000000000000000000000000000000000000000015182e4a00",
          "blockHash": "0x3d21eadbd57004c3df3048d3bb9c6d5252830fbab84e031be42f165052c5b5d3",
          "blockNumber": "0xa96d13",
          "blockTimestamp": "0x6a36e8f4",
          "transactionHash": "0x5394df00f673091c7b487a10cf7d9b8591756314d2141e4afab9ac76960cf537",
          "transactionIndex": "0x96",
          "logIndex": "0x515",
          "removed": false
        },
        {
          "address": "0xe03a1074c86cfedd5c142c4f04f1a1536e203543",
          "topics": [
            "0x40e9cecb9f5f1f1c5b9c97dec2917b7ee92e57ba5563708daca94dd84ad7112f",
            "0xd4553ec31490915f6a57a6e8283d5c03d694dd2a902d038a46c82b5e211060df",
            "0x00000000000000000000000000000000000044a361ae3cac094c9d1b14eece97"
          ],
          "data": "0xffffffffffffffffffffffffffffffffffffffffffffffffffffff2c43893a000000000000000000000000000000000000000000000000000142bf98b6047765000000000000000000000000000000000000013c898e86eab50cb2de25d150e0000000000000000000000000000000000000000000000001b6daabc64ae595a7000000000000000000000000000000000000000000000000000000000001c1d20000000000000000000000000000000000000000000000000000000000000bb8",
          "blockHash": "0x3d21eadbd57004c3df3048d3bb9c6d5252830fbab84e031be42f165052c5b5d3",
          "blockNumber": "0xa96d13",
          "blockTimestamp": "0x6a36e8f4",
          "transactionHash": "0x5394df00f673091c7b487a10cf7d9b8591756314d2141e4afab9ac76960cf537",
          "transactionIndex": "0x96",
          "logIndex": "0x516",
          "removed": false
        },
        {
          "address": "0xe03a1074c86cfedd5c142c4f04f1a1536e203543",
          "topics": [
            "0x1b3d7edb2e9c0b0e7c525b20aaaef0f5940d2ed71663c7d39266ecafac728859",
            "0x0000000000000000000000000000000000000000000000000000000000000000",
            "0x000000000000000000000000ce9cd7eff1156d566cfebada4c025597cf51bff8",
            "0x0000000000000000000000000000000000000000000000000000000000000000"
          ],
          "data": "0x000000000000000000000000ce9cd7eff1156d566cfebada4c025597cf51bff800000000000000000000000000000000000000000000000000000015182e4a00",
          "blockHash": "0x3d21eadbd57004c3df3048d3bb9c6d5252830fbab84e031be42f165052c5b5d3",
          "blockNumber": "0xa96d13",
          "blockTimestamp": "0x6a36e8f4",
          "transactionHash": "0x5394df00f673091c7b487a10cf7d9b8591756314d2141e4afab9ac76960cf537",
          "transactionIndex": "0x96",
          "logIndex": "0x517",
          "removed": false
        },
        {
          "address": "0xe03a1074c86cfedd5c142c4f04f1a1536e203543",
          "topics": [
            "0x1b3d7edb2e9c0b0e7c525b20aaaef0f5940d2ed71663c7d39266ecafac728859",
            "0x000000000000000000000000ce9cd7eff1156d566cfebada4c025597cf51bff8",
            "0x0000000000000000000000000000000000000000000000000000000000000000",
            "0x0000000000000000000000000000000000000000000000000000000000000000"
          ],
          "data": "0x000000000000000000000000ce9cd7eff1156d566cfebada4c025597cf51bff800000000000000000000000000000000000000000000000000000015182e4a00",
          "blockHash": "0x3d21eadbd57004c3df3048d3bb9c6d5252830fbab84e031be42f165052c5b5d3",
          "blockNumber": "0xa96d13",
          "blockTimestamp": "0x6a36e8f4",
          "transactionHash": "0x5394df00f673091c7b487a10cf7d9b8591756314d2141e4afab9ac76960cf537",
          "transactionIndex": "0x96",
          "logIndex": "0x518",
          "removed": false
        },
        {
          "address": "0xce9cd7eff1156d566cfebada4c025597cf51bff8",
          "topics": [
            "0xda378dba4f1dc8c7a566c70096e0389c466cb99cc2ec74173afd50c7b652ca09"
          ],
          "data": "0x000000000000000000000000000000000000000000000000000000000000000000000000000000000000000000000000000000000000000000000015182e4a00",
          "blockHash": "0x3d21eadbd57004c3df3048d3bb9c6d5252830fbab84e031be42f165052c5b5d3",
          "blockNumber": "0xa96d13",
          "blockTimestamp": "0x6a36e8f4",
          "transactionHash": "0x5394df00f673091c7b487a10cf7d9b8591756314d2141e4afab9ac76960cf537",
          "transactionIndex": "0x96",
          "logIndex": "0x519",
          "removed": false
        },
        {
          "address": "0xabd9bf9008090f091729290c4e898cb206edd785",
          "topics": [
            "0xddf252ad1be2c89b69c2b068fc378daa952ba7f163c4a11628f55a4df523b3ef",
            "0x000000000000000000000000e03a1074c86cfedd5c142c4f04f1a1536e203543",
            "0x000000000000000000000000f93e7518f79c2e1978d6862dbf161270040e623e"
          ],
          "data": "0x0000000000000000000000000000000000000000000000000142bf98b6047765",
          "blockHash": "0x3d21eadbd57004c3df3048d3bb9c6d5252830fbab84e031be42f165052c5b5d3",
          "blockNumber": "0xa96d13",
          "blockTimestamp": "0x6a36e8f4",
          "transactionHash": "0x5394df00f673091c7b487a10cf7d9b8591756314d2141e4afab9ac76960cf537",
          "transactionIndex": "0x96",
          "logIndex": "0x51a",
          "removed": false
        }
      ],
      "logsBloom": "0x00000000000000000000000000000000000000020400001000000000800200000000020000000000000000000000000000000100040000200000000040044800000000000000000000000008000014000000000000040020000000000000000001000000020000000000000080000800000800000000100000000010000040000000000000000000000010000000000000000000000000000200020002180000000000000000000000000000000020000000000000000000400000000008000000000102000000000000000000000000000000000000000000001000000060011000000000000000004000000000000000000000000000000000000004001000",
      "transactionHash": "0x5394df00f673091c7b487a10cf7d9b8591756314d2141e4afab9ac76960cf537",
      "transactionIndex": "0x96",
      "blockHash": "0x3d21eadbd57004c3df3048d3bb9c6d5252830fbab84e031be42f165052c5b5d3",
      "blockNumber": "0xa96d13",
      "gasUsed": "0x32929",
      "effectiveGasPrice": "0x3eaac7c1",
      "from": "0xf93e7518f79c2e1978d6862dbf161270040e623e",
      "to": "0x00000000000044a361ae3cac094c9d1b14eece97",
      "contractAddress": null
    },
    {
      "type": "0x2",
      "status": "0x1",
      "cumulativeGasUsed": "0x1148c97",
      "logs": [
        {
          "address": "0xce9cd7eff1156d566cfebada4c025597cf51bff8",
          "topics": [
            "0xeb18042c63a6494302e2e34ca89562fb59d5b25ded99d617905bdd7c4f891f03",
            "0x0000000000000000000000000000000000000000000000000000000000000000",
            "0x0000000000000000000000000000000000000000000000000000000000000000"
          ],
          "data": "0x0000000000000000000000000000000000000000000000001b36df1c348a8000",
          "blockHash": "0x3d21eadbd57004c3df3048d3bb9c6d5252830fbab84e031be42f165052c5b5d3",
          "blockNumber": "0xa96d13",
          "blockTimestamp": "0x6a36e8f4",
          "transactionHash": "0xa2e794fadd0697c9cf31e7b728d0dbb6f981014b6d346767c97946f1bd574bb9",
          "transactionIndex": "0x97",
          "logIndex": "0x51b",
          "removed": false
        },
        {
          "address": "0xe03a1074c86cfedd5c142c4f04f1a1536e203543",
          "topics": [
            "0x40e9cecb9f5f1f1c5b9c97dec2917b7ee92e57ba5563708daca94dd84ad7112f",
            "0xd4553ec31490915f6a57a6e8283d5c03d694dd2a902d038a46c82b5e211060df",
            "0x00000000000000000000000000000000000044a361ae3cac094c9d1b14eece97"
          ],
          "data": "0x000000000000000000000000000000000000000000000000000048b1b8740a0effffffffffffffffffffffffffffffffffffffffffffffff906fbc17aaa28000000000000000000000000000000000000000013cca70d034482ac977df299d76000000000000000000000000000000000000000000000001b6daabc64ae595a7000000000000000000000000000000000000000000000000000000000001c1e20000000000000000000000000000000000000000000000000000000000000bb8",
          "blockHash": "0x3d21eadbd57004c3df3048d3bb9c6d5252830fbab84e031be42f165052c5b5d3",
          "blockNumber": "0xa96d13",
          "blockTimestamp": "0x6a36e8f4",
          "transactionHash": "0xa2e794fadd0697c9cf31e7b728d0dbb6f981014b6d346767c97946f1bd574bb9",
          "transactionIndex": "0x97",
          "logIndex": "0x51c",
          "removed": false
        },
        {
          "address": "0xe03a1074c86cfedd5c142c4f04f1a1536e203543",
          "topics": [
            "0x1b3d7edb2e9c0b0e7c525b20aaaef0f5940d2ed71663c7d39266ecafac728859",
            "0x0000000000000000000000000000000000000000000000000000000000000000",
            "0x000000000000000000000000ce9cd7eff1156d566cfebada4c025597cf51bff8",
            "0x000000000000000000000000abd9bf9008090f091729290c4e898cb206edd785"
          ],
          "data": "0x000000000000000000000000ce9cd7eff1156d566cfebada4c025597cf51bff80000000000000000000000000000000000000000000000001b36df1c348a8000",
          "blockHash": "0x3d21eadbd57004c3df3048d3bb9c6d5252830fbab84e031be42f165052c5b5d3",
          "blockNumber": "0xa96d13",
          "blockTimestamp": "0x6a36e8f4",
          "transactionHash": "0xa2e794fadd0697c9cf31e7b728d0dbb6f981014b6d346767c97946f1bd574bb9",
          "transactionIndex": "0x97",
          "logIndex": "0x51d",
          "removed": false
        },
        {
          "address": "0xe03a1074c86cfedd5c142c4f04f1a1536e203543",
          "topics": [
            "0x40e9cecb9f5f1f1c5b9c97dec2917b7ee92e57ba5563708daca94dd84ad7112f",
            "0xd4553ec31490915f6a57a6e8283d5c03d694dd2a902d038a46c82b5e211060df",
            "0x000000000000000000000000ce9cd7eff1156d566cfebada4c025597cf51bff8"
          ],
          "data": "0x000000000000000000000000000000000000000000000000000011b70f6ddb69ffffffffffffffffffffffffffffffffffffffffffffffffe4c920e3cb758000000000000000000000000000000000000000013cda44a83018e85fc788712692000000000000000000000000000000000000000000000001b6daabc64ae595a7000000000000000000000000000000000000000000000000000000000001c1e60000000000000000000000000000000000000000000000000000000000000bb8",
          "blockHash": "0x3d21eadbd57004c3df3048d3bb9c6d5252830fbab84e031be42f165052c5b5d3",
          "blockNumber": "0xa96d13",
          "blockTimestamp": "0x6a36e8f4",
          "transactionHash": "0xa2e794fadd0697c9cf31e7b728d0dbb6f981014b6d346767c97946f1bd574bb9",
          "transactionIndex": "0x97",
          "logIndex": "0x51e",
          "removed": false
        },
        {
          "address": "0xe03a1074c86cfedd5c142c4f04f1a1536e203543",
          "topics": [
            "0x1b3d7edb2e9c0b0e7c525b20aaaef0f5940d2ed71663c7d39266ecafac728859",
            "0x000000000000000000000000ce9cd7eff1156d566cfebada4c025597cf51bff8",
            "0x0000000000000000000000000000000000000000000000000000000000000000",
            "0x000000000000000000000000abd9bf9008090f091729290c4e898cb206edd785"
          ],
          "data": "0x000000000000000000000000ce9cd7eff1156d566cfebada4c025597cf51bff80000000000000000000000000000000000000000000000001b36df1c348a8000",
          "blockHash": "0x3d21eadbd57004c3df3048d3bb9c6d5252830fbab84e031be42f165052c5b5d3",
          "blockNumber": "0xa96d13",
          "blockTimestamp": "0x6a36e8f4",
          "transactionHash": "0xa2e794fadd0697c9cf31e7b728d0dbb6f981014b6d346767c97946f1bd574bb9",
          "transactionIndex": "0x97",
          "logIndex": "0x51f",
          "removed": false
        },
        {
          "address": "0xce9cd7eff1156d566cfebada4c025597cf51bff8",
          "topics": [
            "0xda378dba4f1dc8c7a566c70096e0389c466cb99cc2ec74173afd50c7b652ca09"
          ],
          "data": "0x0000000000000000000000000000000000000000000000000000000000000000000000000000000000000000000000000000000000000000000011b70f6ddb69",
          "blockHash": "0x3d21eadbd57004c3df3048d3bb9c6d5252830fbab84e031be42f165052c5b5d3",
          "blockNumber": "0xa96d13",
          "blockTimestamp": "0x6a36e8f4",
          "transactionHash": "0xa2e794fadd0697c9cf31e7b728d0dbb6f981014b6d346767c97946f1bd574bb9",
          "transactionIndex": "0x97",
          "logIndex": "0x520",
          "removed": false
        },
        {
          "address": "0xabd9bf9008090f091729290c4e898cb206edd785",
          "topics": [
            "0xddf252ad1be2c89b69c2b068fc378daa952ba7f163c4a11628f55a4df523b3ef",
            "0x000000000000000000000000f93e7518f79c2e1978d6862dbf161270040e623e",
            "0x000000000000000000000000e03a1074c86cfedd5c142c4f04f1a1536e203543"
          ],
          "data": "0x0000000000000000000000000000000000000000000000008ac7230489e80000",
          "blockHash": "0x3d21eadbd57004c3df3048d3bb9c6d5252830fbab84e031be42f165052c5b5d3",
          "blockNumber": "0xa96d13",
          "blockTimestamp": "0x6a36e8f4",
          "transactionHash": "0xa2e794fadd0697c9cf31e7b728d0dbb6f981014b6d346767c97946f1bd574bb9",
          "transactionIndex": "0x97",
          "logIndex": "0x521",
          "removed": false
        }
      ],
      "logsBloom": "0x20000000000000000000000000000000000000020400001000000000800200000000020000000000000000000000000000000100040000200000000040004800000000000000000000000008000014000000000000000030000000000000000001000000020008000000000080000800000800000000100000000010000040000000000000000000000010000000000000000000000000000200020002180000000000000000000000000000000020000000000000000000400000000008000000000102000000000000000000000000000000000000000000001000000020011000000000000000004000000000000000000000000000000000000004001000",
      "transactionHash": "0xa2e794fadd0697c9cf31e7b728d0dbb6f981014b6d346767c97946f1bd574bb9",
      "transactionIndex": "0x97",
      "blockHash": "0x3d21eadbd57004c3df3048d3bb9c6d5252830fbab84e031be42f165052c5b5d3",
      "blockNumber": "0xa96d13",
      "gasUsed": "0x358a6",
      "effectiveGasPrice": "0x3eaac7c1",
      "from": "0xf93e7518f79c2e1978d6862dbf161270040e623e",
      "to": "0x00000000000044a361ae3cac094c9d1b14eece97",
      "contractAddress": null
    }
  ],
  "libraries": [],
  "pending": [],
  "returns": {},
  "timestamp": 1781983479689,
  "chain": 11155111,
  "commit": "e9509a8"
}