{
  "transactions": [
    {
      "hash": "0x93eb53b1402b381ed69059f2abc2bcc23d90e6f7bb96098f775e0bdfbcba584d",
      "transactionType": "CALL",
      "contractName": null,
      "contractAddress": "0x8999eac3df09a3f46099130a56c5cb1e9d79ba2a",
      "function": "approve(address,uint256)",
      "arguments": [
        "0x000000000022D473030F116dDEE9F6B43aC78BA3",
        "115792089237316195423570985008687907853269984665640564039457584007913129639935"
      ],
      "transaction": {
        "from": "0xf93e7518f79c2e1978d6862dbf161270040e623e",
        "to": "0x8999eac3df09a3f46099130a56c5cb1e9d79ba2a",
        "gas": "0x9681",
        "value": "0x0",
        "input": "0x095ea7b3000000000000000000000000000000000022d473030f116ddee9f6b43ac78ba3ffffffffffffffffffffffffffffffffffffffffffffffffffffffffffffffff",
        "nonce": "0x506",
        "chainId": "0xaa36a7"
      },
      "additionalContracts": [],
      "isFixedGasLimit": false
    },
    {
      "hash": "0xb3a55dd1cff37c23b84fa5f8335fd34e4dc47a8cde15087063e0c13337c2f0c7",
      "transactionType": "CALL",
      "contractName": null,
      "contractAddress": "0x000000000022d473030f116ddee9f6b43ac78ba3",
      "function": "approve(address,address,uint160,uint48)",
      "arguments": [
        "0x8999Eac3Df09a3f46099130a56c5CB1e9D79bA2a",
        "0x429ba70129df741B2Ca2a85BC3A2a3328e5c09b4",
        "1461501637330902918203684832716283019655932542975",
        "1781904000"
      ],
      "transaction": {
        "from": "0xf93e7518f79c2e1978d6862dbf161270040e623e",
        "to": "0x000000000022d473030f116ddee9f6b43ac78ba3",
        "gas": "0xa59b",
        "value": "0x0",
        "input": "0x87517c450000000000000000000000008999eac3df09a3f46099130a56c5cb1e9d79ba2a000000000000000000000000429ba70129df741b2ca2a85bc3a2a3328e5c09b4000000000000000000000000ffffffffffffffffffffffffffffffffffffffff000000000000000000000000000000000000000000000000000000006a35b280",
        "nonce": "0x507",
        "chainId": "0xaa36a7"
      },
      "additionalContracts": [],
      "isFixedGasLimit": false
    },
    {
      "hash": "0x3260f2f671144c0db6d13984cb052416c8d4bb6e96044b523a22cb45ce74e924",
      "transactionType": "CALL",
      "contractName": null,
      "contractAddress": "0x000000000022d473030f116ddee9f6b43ac78ba3",
      "function": "approve(address,address,uint160,uint48)",
      "arguments": [
        "0x8999Eac3Df09a3f46099130a56c5CB1e9D79bA2a",
        "0x00000000000044a361Ae3cAc094c9D1b14Eece97",
        "1461501637330902918203684832716283019655932542975",
        "1781904000"
      ],
      "transaction": {
        "from": "0xf93e7518f79c2e1978d6862dbf161270040e623e",
        "to": "0x000000000022d473030f116ddee9f6b43ac78ba3",
        "gas": "0xa537",
        "value": "0x0",
        "input": "0x87517c450000000000000000000000008999eac3df09a3f46099130a56c5cb1e9d79ba2a00000000000000000000000000000000000044a361ae3cac094c9d1b14eece97000000000000000000000000ffffffffffffffffffffffffffffffffffffffff000000000000000000000000000000000000000000000000000000006a35b280",
        "nonce": "0x508",
        "chainId": "0xaa36a7"
      },
      "additionalContracts": [],
      "isFixedGasLimit": false
    },
    {
      "hash": "0xf028612f4df0362c4e3e58a86b4dd3e2f5df0cebdbc086d95b7d58ac680f3c73",
      "transactionType": "CALL",
      "contractName": null,
      "contractAddress": "0x8999eac3df09a3f46099130a56c5cb1e9d79ba2a",
      "function": "approve(address,uint256)",
      "arguments": [
        "0x00000000000044a361Ae3cAc094c9D1b14Eece97",
        "115792089237316195423570985008687907853269984665640564039457584007913129639935"
      ],
      "transaction": {
        "from": "0xf93e7518f79c2e1978d6862dbf161270040e623e",
        "to": "0x8999eac3df09a3f46099130a56c5cb1e9d79ba2a",
        "gas": "0x8e13",
        "value": "0x0",
        "input": "0x095ea7b300000000000000000000000000000000000044a361ae3cac094c9d1b14eece97ffffffffffffffffffffffffffffffffffffffffffffffffffffffffffffffff",
        "nonce": "0x509",
        "chainId": "0xaa36a7"
      },
      "additionalContracts": [],
      "isFixedGasLimit": false
    },
    {
      "hash": "0x8f4134cabd512cd56c5434cce472ad0528587dfc692c7dd4d21fc1e1edec440f",
      "transactionType": "CALL",
      "contractName": null,
      "contractAddress": "0x8999eac3df09a3f46099130a56c5cb1e9d79ba2a",
      "function": "approve(address,uint256)",
      "arguments": [
        "0x55C6aeDC9d5384F00aEcd3515556A150e272168B",
        "115792089237316195423570985008687907853269984665640564039457584007913129639935"
      ],
      "transaction": {
        "from": "0xf93e7518f79c2e1978d6862dbf161270040e623e",
        "to": "0x8999eac3df09a3f46099130a56c5cb1e9d79ba2a",
        "gas": "0x8e77",
        "value": "0x0",
        "input": "0x095ea7b300000000000000000000000055c6aedc9d5384f00aecd3515556a150e272168bffffffffffffffffffffffffffffffffffffffffffffffffffffffffffffffff",
        "nonce": "0x50a",
        "chainId": "0xaa36a7"
      },
      "additionalContracts": [],
      "isFixedGasLimit": false
    },
    {
      "hash": "0xdceee9f79a8fbea5d72905f071da4eafb7402898be7f78873a3e981f3275f814",
      "transactionType": "CALL",
      "contractName": null,
      "contractAddress": "0x8999eac3df09a3f46099130a56c5cb1e9d79ba2a",
      "function": "burn(uint256)",
      "arguments": [
        "10000000000000000000000"
      ],
      "transaction": {
        "from": "0xf93e7518f79c2e1978d6862dbf161270040e623e",
        "to": "0x8999eac3df09a3f46099130a56c5cb1e9d79ba2a",
        "gas": "0x29b45",
        "value": "0x0",
        "input": "0x42966c6800000000000000000000000000000000000000000000021e19e0c9bab2400000",
        "nonce": "0x50b",
        "chainId": "0xaa36a7"
      },
      "additionalContracts": [],
      "isFixedGasLimit": false
    },
    {
      "hash": "0x04d0591d128d63d945b129d52c8742c5e993f0e8b789dce4cbdd99dac37f4e7a",
      "transactionType": "CALL",
      "contractName": null,
      "contractAddress": "0x429ba70129df741b2ca2a85bc3a2a3328e5c09b4",
      "function": "approve(address,uint256)",
      "arguments": [
        "0x9952d25eDA1f305fcDb6Ca9029520e33A7263Ff8",
        "36091"
      ],
      "transaction": {
        "from": "0xf93e7518f79c2e1978d6862dbf161270040e623e",
        "to": "0x429ba70129df741b2ca2a85bc3a2a3328e5c09b4",
        "gas": "0x10489",
        "value": "0x0",
        "input": "0x095ea7b30000000000000000000000009952d25eda1f305fcdb6ca9029520e33a7263ff80000000000000000000000000000000000000000000000000000000000008cfb",
        "nonce": "0x50c",
        "chainId": "0xaa36a7"
      },
      "additionalContracts": [],
      "isFixedGasLimit": false
    },
    {
      "hash": "0x80f060ba038fdea2faa208f8ecf23624e420774c1fa57ac66c0f921ac60455a2",
      "transactionType": "CALL",
      "contractName": null,
      "contractAddress": "0x9952d25eda1f305fcdb6ca9029520e33a7263ff8",
      "function": "burnLpPosition(uint256)",
      "arguments": [
        "36091"
      ],
      "transaction": {
        "from": "0xf93e7518f79c2e1978d6862dbf161270040e623e",
        "to": "0x9952d25eda1f305fcdb6ca9029520e33a7263ff8",
        "gas": "0x3a51c",
        "value": "0x0",
        "input": "0x32803cbc0000000000000000000000000000000000000000000000000000000000008cfb",
        "nonce": "0x50d",
        "chainId": "0xaa36a7"
      },
      "additionalContracts": [],
      "isFixedGasLimit": false
    },
    {
      "hash": "0xf5a3df7f3ea5088005bacfd0ac1a68528b17a8b0664a6ab76e2920aaf88936be",
      "transactionType": "CALL",
      "contractName": null,
      "contractAddress": "0x00000000000044a361ae3cac094c9d1b14eece97",
      "function": "swapExactTokensForTokens(uint256,uint256,bool,(address,address,uint24,int24,address),bytes,address,uint256)",
      "arguments": [
        "1000000000000000",
        "0",
        "false",
        "(0x0000000000000000000000000000000000000000, 0x8999Eac3Df09a3f46099130a56c5CB1e9D79bA2a, 3000, 60, 0x9952d25eDA1f305fcDb6Ca9029520e33A7263Ff8)",
        "0x",
        "0xF93E7518F79C2E1978D6862Dbf161270040e623E",
        "115792089237316195423570985008687907853269984665640564039457584007913129639935"
      ],
      "transaction": {
        "from": "0xf93e7518f79c2e1978d6862dbf161270040e623e",
        "to": "0x00000000000044a361ae3cac094c9d1b14eece97",
        "gas": "0x3cb14",
        "value": "0x0",
        "input": "0xb1a0d57100000000000000000000000000000000000000000000000000038d7ea4c680000000000000000000000000000000000000000000000000000000000000000000000000000000000000000000000000000000000000000000000000000000000000000000000000000000000000000000000000000000000000000000000000000000000000000000000000008999eac3df09a3f46099130a56c5cb1e9d79ba2a0000000000000000000000000000000000000000000000000000000000000bb8000000000000000000000000000000000000000000000000000000000000003c0000000000000000000000009952d25eda1f305fcdb6ca9029520e33a7263ff80000000000000000000000000000000000000000000000000000000000000160000000000000000000000000f93e7518f79c2e1978d6862dbf161270040e623effffffffffffffffffffffffffffffffffffffffffffffffffffffffffffffff0000000000000000000000000000000000000000000000000000000000000000",
        "nonce": "0x50e",
        "chainId": "0xaa36a7"
      },
      "additionalContracts": [],
      "isFixedGasLimit": false
    },
    {
      "hash": "0xcefa7886326f83c8f3caa7c7e082169056beb711d7af6417c1f58c8be15f6184",
      "transactionType": "CALL",
      "contractName": null,
      "contractAddress": "0x9952d25eda1f305fcdb6ca9029520e33a7263ff8",
      "function": "claimFees(bool)",
      "arguments": [
        "false"
      ],
      "transaction": {
        "from": "0xf93e7518f79c2e1978d6862dbf161270040e623e",
        "to": "0x9952d25eda1f305fcdb6ca9029520e33a7263ff8",
        "gas": "0x35f7c",
        "value": "0x0",
        "input": "0x1d4161650000000000000000000000000000000000000000000000000000000000000000",
        "nonce": "0x50f",
        "chainId": "0xaa36a7"
      },
      "additionalContracts": [],
      "isFixedGasLimit": false
    }
  ],
  "receipts": [
    {
      "type": "0x2",
      "status": "0x1",
      "cumulativeGasUsed": "0xeca833",
      "logs": [
        {
          "address": "0x8999eac3df09a3f46099130a56c5cb1e9d79ba2a",
          "topics": [
            "0x8c5be1e5ebec7d5bd14f71427d1e84f3dd0314c0f7b2291e5b200ac8c7c3b925",
            "0x000000000000000000000000f93e7518f79c2e1978d6862dbf161270040e623e",
            "0x000000000000000000000000000000000022d473030f116ddee9f6b43ac78ba3"
          ],
          "data": "0xffffffffffffffffffffffffffffffffffffffffffffffffffffffffffffffff",
          "blockHash": "0x5f8698d8fa3c524c868cf72d4832881b47a5a65427f2a8c82f08ffb11144fc47",
          "blockNumber": "0xa93740",
          "blockTimestamp": "0x6a34613c",
          "transactionHash": "0x93eb53b1402b381ed69059f2abc2bcc23d90e6f7bb96098f775e0bdfbcba584d",
          "transactionIndex": "0xa0",
          "logIndex": "0x466",
          "removed": false
        }
      ],
      "logsBloom": "0x00000000000000000000000000000000000000000000000000000000800000000000000000000000000000000000000000000000800000200000000000200000000000000000000000004000000000000000000000000800000000000000000000000000000000000000000000000000000000000000000400000000000000000000000000000000000000000000000000000000000000000000000000100001020000000000000000000000000000000000000000000000000000000000100000000000000000000000000000000000000000000000000000000000000000000010000000000000000000000000000000000000000000000000000000000000",
      "transactionHash": "0x93eb53b1402b381ed69059f2abc2bcc23d90e6f7bb96098f775e0bdfbcba584d",
      "transactionIndex": "0xa0",
      "blockHash": "0x5f8698d8fa3c524c868cf72d4832881b47a5a65427f2a8c82f08ffb11144fc47",
      "blockNumber": "0xa93740",
      "gasUsed": "0x66e9",
      "effectiveGasPrice": "0x3fad8afd",
      "from": "0xf93e7518f79c2e1978d6862dbf161270040e623e",
      "to": "0x8999eac3df09a3f46099130a56c5cb1e9d79ba2a",
      "contractAddress": null
    },
    {
      "type": "0x2",
      "status": "0x1",
      "cumulativeGasUsed": "0x15fe5ae",
      "logs": [
        {
          "address": "0x000000000022d473030f116ddee9f6b43ac78ba3",
          "topics": [
            "0xda9fa7c1b00402c17d0161b249b1ab8bbec047c5a52207b9c112deffd817036b",
            "0x000000000000000000000000f93e7518f79c2e1978d6862dbf161270040e623e",
            "0x0000000000000000000000008999eac3df09a3f46099130a56c5cb1e9d79ba2a",
            "0x000000000000000000000000429ba70129df741b2ca2a85bc3a2a3328e5c09b4"
          ],
          "data": "0x000000000000000000000000ffffffffffffffffffffffffffffffffffffffff000000000000000000000000000000000000000000000000000000006a35b280",
          "blockHash": "0x3e13d71d2e7a05030859860b9fe532b97018db4f470d0047d18887cac26b378e",
          "blockNumber": "0xa93741",
          "blockTimestamp": "0x6a346148",
          "transactionHash": "0xb3a55dd1cff37c23b84fa5f8335fd34e4dc47a8cde15087063e0c13337c2f0c7",
          "transactionIndex": "0xea",
          "logIndex": "0x595",
          "removed": false
        }
      ],
      "logsBloom": "0x00010000000000000000000000000008000000000000000000000000800000000000000000000040080000001000000000000000000000200000000000080000000000000000000000000000000000000000000000000000000000000000000000000000000000000000000000000000000000000000000000000800000000000020000000000000000000000000000000000000000000000000000000100000000000000000000000000000000000000000000000000000000000080000000000000000000000000000000000000000000000000000000040000000000000000000000000000000000000000000000000000004000000000000000000000400",
      "transactionHash": "0xb3a55dd1cff37c23b84fa5f8335fd34e4dc47a8cde15087063e0c13337c2f0c7",
      "transactionIndex": "0xea",
      "blockHash": "0x3e13d71d2e7a05030859860b9fe532b97018db4f470d0047d18887cac26b378e",
      "blockNumber": "0xa93741",
      "gasUsed": "0x77e6",
      "effectiveGasPrice": "0x3f03760c",
      "from": "0xf93e7518f79c2e1978d6862dbf161270040e623e",
      "to": "0x000000000022d473030f116ddee9f6b43ac78ba3",
      "contractAddress": null
    },
    {
      "type": "0x2",
      "status": "0x1",
      "cumulativeGasUsed": "0xa25f5d",
      "logs": [
        {
          "address": "0x000000000022d473030f116ddee9f6b43ac78ba3",
          "topics": [
            "0xda9fa7c1b00402c17d0161b249b1ab8bbec047c5a52207b9c112deffd817036b",
            "0x000000000000000000000000f93e7518f79c2e1978d6862dbf161270040e623e",
            "0x0000000000000000000000008999eac3df09a3f46099130a56c5cb1e9d79ba2a",
            "0x00000000000000000000000000000000000044a361ae3cac094c9d1b14eece97"
          ],
          "data": "0x000000000000000000000000ffffffffffffffffffffffffffffffffffffffff000000000000000000000000000000000000000000000000000000006a35b280",
          "blockHash": "0x3b4ba5d89e5f1f143a401f787454237e97c027ce064e1fc6b26f49caef43cbfe",
          "blockNumber": "0xa93742",
          "blockTimestamp": "0x6a346154",
          "transactionHash": "0x3260f2f671144c0db6d13984cb052416c8d4bb6e96044b523a22cb45ce74e924",
          "transactionIndex": "0xa2",
          "logIndex": "0xb3",
          "removed": false
        }
      ],
      "logsBloom": "0x00010000000000000000000000000008000000000000000000000000800000000000000000000000000000001000000000000000000000200000000040080000000000000000000000000000000000000000000000000000000000000000000000000000000000000000000000000000000000000000000000000000000040000020000000000000000000000000000000000000000000000000000000100000000000000000000000000000000000000000000000000000000000080000000000000000000000000000000000000000000000000000000040000000000000010000000000000000000000000000000000000004000000000000000000000400",
      "transactionHash": "0x3260f2f671144c0db6d13984cb052416c8d4bb6e96044b523a22cb45ce74e924",
      "transactionIndex": "0xa2",
      "blockHash": "0x3b4ba5d89e5f1f143a401f787454237e97c027ce064e1fc6b26f49caef43cbfe",
      "blockNumber": "0xa93742",
      "gasUsed": "0x779e",
      "effectiveGasPrice": "0x3d9e34b9",
      "from": "0xf93e7518f79c2e1978d6862dbf161270040e623e",
      "to": "0x000000000022d473030f116ddee9f6b43ac78ba3",
      "contractAddress": null
    },
    {
      "type": "0x2",
      "status": "0x1",
      "cumulativeGasUsed": "0x38520a3",
      "logs": [
        {
          "address": "0x8999eac3df09a3f46099130a56c5cb1e9d79ba2a",
          "topics": [
            "0x8c5be1e5ebec7d5bd14f71427d1e84f3dd0314c0f7b2291e5b200ac8c7c3b925",
            "0x000000000000000000000000f93e7518f79c2e1978d6862dbf161270040e623e",
            "0x00000000000000000000000000000000000044a361ae3cac094c9d1b14eece97"
          ],
          "data": "0xffffffffffffffffffffffffffffffffffffffffffffffffffffffffffffffff",
          "blockHash": "0x3b3581f4b665b23b727416066744c74decd0d64e5a3b0e66ba84522bc4bdffd8",
          "blockNumber": "0xa93743",
          "blockTimestamp": "0x6a346160",
          "transactionHash": "0xf028612f4df0362c4e3e58a86b4dd3e2f5df0cebdbc086d95b7d58ac680f3c73",
          "transactionIndex": "0xbf",
          "logIndex": "0x12c",
          "removed": false
        }
      ],
      "logsBloom": "0x00000000000000000000000000000000000000000000000000000000800000000000000000000000000000000000000000000000000000200000000040200000000000000000000000000000000000000000000000000000000000000000000000000000000000000000000000000000000000000000000400000000000040000000000000000000000000000000000000000000000000000000000000100001020000000000000000000000000000000000000000000000000000000000100000000000000000000000000000000000000000000000000000000000000000010010000000000000000000000000000000000000000000000000000000000000",
      "transactionHash": "0xf028612f4df0362c4e3e58a86b4dd3e2f5df0cebdbc086d95b7d58ac680f3c73",
      "transactionIndex": "0xbf",
      "blockHash": "0x3b3581f4b665b23b727416066744c74decd0d64e5a3b0e66ba84522bc4bdffd8",
      "blockNumber": "0xa93743",
      "gasUsed": "0x66dd",
      "effectiveGasPrice": "0x3983c1d9",
      "from": "0xf93e7518f79c2e1978d6862dbf161270040e623e",
      "to": "0x8999eac3df09a3f46099130a56c5cb1e9d79ba2a",
      "contractAddress": null
    },
    {
      "type": "0x2",
      "status": "0x1",
      "cumulativeGasUsed": "0xc53ccc",
      "logs": [
        {
          "address": "0x8999eac3df09a3f46099130a56c5cb1e9d79ba2a",
          "topics": [
            "0x8c5be1e5ebec7d5bd14f71427d1e84f3dd0314c0f7b2291e5b200ac8c7c3b925",
            "0x000000000000000000000000f93e7518f79c2e1978d6862dbf161270040e623e",
            "0x00000000000000000000000055c6aedc9d5384f00aecd3515556a150e272168b"
          ],
          "data": "0xffffffffffffffffffffffffffffffffffffffffffffffffffffffffffffffff",
          "blockHash": "0x1a3e6243cb9032db23d4bd16020544021a61a9533bc42b0a7c6401c734f74a04",
          "blockNumber": "0xa93744",
          "blockTimestamp": "0x6a34616c",
          "transactionHash": "0x8f4134cabd512cd56c5434cce472ad0528587dfc692c7dd4d21fc1e1edec440f",
          "transactionIndex": "0x96",
          "logIndex": "0xcf",
          "removed": false
        }
      ],
      "logsBloom": "0x00000000000000000000000000000000000000000000000000000000800000000000100000000000000000000000000000000000000000200000000000200000000000000000000000000000000000000000000000000000000000000000000000000000000000000000000000000000000000000000000400000000000000000000000000000000000000000000000000000000000000000000000000100001020000000000000000000000000000000002000000000000000000000000100000000000000000000000000000000000000000000000000000000000000000000010000000000000008000000000000000000000000000000000000000000000",
      "transactionHash": "0x8f4134cabd512cd56c5434cce472ad0528587dfc692c7dd4d21fc1e1edec440f",
      "transactionIndex": "0x96",
      "blockHash": "0x1a3e6243cb9032db23d4bd16020544021a61a9533bc42b0a7c6401c734f74a04",
      "blockNumber": "0xa93744",
      "gasUsed": "0x6725",
      "effectiveGasPrice": "0x40b1c5c1",
      "from": "0xf93e7518f79c2e1978d6862dbf161270040e623e",
      "to": "0x8999eac3df09a3f46099130a56c5cb1e9d79ba2a",
      "contractAddress": null
    },
    {
      "type": "0x2",
      "status": "0x1",
      "cumulativeGasUsed": "0xd12a05",
      "logs": [
        {
          "address": "0x8999eac3df09a3f46099130a56c5cb1e9d79ba2a",
          "topics": [
            "0xddf252ad1be2c89b69c2b068fc378daa952ba7f163c4a11628f55a4df523b3ef",
            "0x000000000000000000000000f93e7518f79c2e1978d6862dbf161270040e623e",
            "0x0000000000000000000000000000000000000000000000000000000000000000"
          ],
          "data": "0x00000000000000000000000000000000000000000000021e19e0c9bab2400000",
          "blockHash": "0xaf5d1b6febff0e58fcc5428cefc19fdd4495f65b6ffdbc3a35cb87132512bddd",
          "blockNumber": "0xa93745",
          "blockTimestamp": "0x6a346178",
          "transactionHash": "0xdceee9f79a8fbea5d72905f071da4eafb7402898be7f78873a3e981f3275f814",
          "transactionIndex": "0xb6",
          "logIndex": "0x115",
          "removed": false
        },
        {
          "address": "0x55c6aedc9d5384f00aecd3515556a150e272168b",
          "topics": [
            "0xe2403640ba68fed3a2f88b7557551d1993f84b99bb10ff833f0cf8db0c5e0486",
            "0x000000000000000000000000f93e7518f79c2e1978d6862dbf161270040e623e"
          ],
          "data": "0x0000000000000000000000000000000000000000000000000000000012734120",
          "blockHash": "0xaf5d1b6febff0e58fcc5428cefc19fdd4495f65b6ffdbc3a35cb87132512bddd",
          "blockNumber": "0xa93745",
          "blockTimestamp": "0x6a346178",
          "transactionHash": "0xdceee9f79a8fbea5d72905f071da4eafb7402898be7f78873a3e981f3275f814",
          "transactionIndex": "0xb6",
          "logIndex": "0x116",
          "removed": false
        }
      ],
      "logsBloom": "0x00000000000000000000000000000000000001008000000000000000800000000000000000000000000000000000000000000000000000200000000000000000000000000000000000000008000000000000000000000000000000000000000000000000020000000000000000000800000000000000000400000010000000000000000100000000000000000800000000000000000000000000000000100001000000000000000000000000000000000010000000000000000000000000100000000002000000000000000000000000020000000000000000000000000020000000000000000000000000000000000000000000000000000000000000000000",
      "transactionHash": "0xdceee9f79a8fbea5d72905f071da4eafb7402898be7f78873a3e981f3275f814",
      "transactionIndex": "0xb6",
      "blockHash": "0xaf5d1b6febff0e58fcc5428cefc19fdd4495f65b6ffdbc3a35cb87132512bddd",
      "blockNumber": "0xa93745",
      "gasUsed": "0x1c841",
      "effectiveGasPrice": "0x3db954b2",
      "from": "0xf93e7518f79c2e1978d6862dbf161270040e623e",
      "to": "0x8999eac3df09a3f46099130a56c5cb1e9d79ba2a",
      "contractAddress": null
    },
    {
      "type": "0x2",
      "status": "0x1",
      "cumulativeGasUsed": "0x28ed950",
      "logs": [
        {
          "address": "0x429ba70129df741b2ca2a85bc3a2a3328e5c09b4",
          "topics": [
            "0x8c5be1e5ebec7d5bd14f71427d1e84f3dd0314c0f7b2291e5b200ac8c7c3b925",
            "0x000000000000000000000000f93e7518f79c2e1978d6862dbf161270040e623e",
            "0x0000000000000000000000009952d25eda1f305fcdb6ca9029520e33a7263ff8",
            "0x0000000000000000000000000000000000000000000000000000000000008cfb"
          ],
          "data": "0x",
          "blockHash": "0xc0b3c340f4b7c3c6cc6f080620a9857bc0ef1405991c0b1722ff95576868ed02",
          "blockNumber": "0xa93746",
          "blockTimestamp": "0x6a346184",
          "transactionHash": "0x04d0591d128d63d945b129d52c8742c5e993f0e8b789dce4cbdd99dac37f4e7a",
          "transactionIndex": "0xeb",
          "logIndex": "0x106",
          "removed": false
        }
      ],
      "logsBloom": "0x00000000000000000000001000000000000000000000000000000000880000000000000000000000000000000000000000000000000000200000000000200000000000000000000000000000000000200000000000000000000000000000000000000000000000000000000002000000000000000000000000000000000000000000000000000000000000000000040000000000000000000000000000100000020002000000020000000000000000000000000000400000000000000000000000000000000000000000000000000000000000002000000000000000000000000010000000000000000000000000000000000000000000000000000000000000",
      "transactionHash": "0x04d0591d128d63d945b129d52c8742c5e993f0e8b789dce4cbdd99dac37f4e7a",
      "transactionIndex": "0xeb",
      "blockHash": "0xc0b3c340f4b7c3c6cc6f080620a9857bc0ef1405991c0b1722ff95576868ed02",
      "blockNumber": "0xa93746",
      "gasUsed": "0xbca0",
      "effectiveGasPrice": "0x3b7499ff",
      "from": "0xf93e7518f79c2e1978d6862dbf161270040e623e",
      "to": "0x429ba70129df741b2ca2a85bc3a2a3328e5c09b4",
      "contractAddress": null
    },
    {
      "type": "0x2",
      "status": "0x1",
      "cumulativeGasUsed": "0xde4614",
      "logs": [
        {
          "address": "0x429ba70129df741b2ca2a85bc3a2a3328e5c09b4",
          "topics": [
            "0xddf252ad1be2c89b69c2b068fc378daa952ba7f163c4a11628f55a4df523b3ef",
            "0x000000000000000000000000f93e7518f79c2e1978d6862dbf161270040e623e",
            "0x000000000000000000000000000000000000000000000000000000000000dead",
            "0x0000000000000000000000000000000000000000000000000000000000008cfb"
          ],
          "data": "0x",
          "blockHash": "0x9615cbdc0d57f81e6d751c445871b0825feda9cdd351548c22de4cf03d6a9f11",
          "blockNumber": "0xa93747",
          "blockTimestamp": "0x6a346190",
          "transactionHash": "0x80f060ba038fdea2faa208f8ecf23624e420774c1fa57ac66c0f921ac60455a2",
          "transactionIndex": "0x8f",
          "logIndex": "0xcf",
          "removed": false
        },
        {
          "address": "0x66e59002c557ec646dd81a9451f19a0332c61d0d",
          "topics": [
            "0x38f632823cd466741bc92f6765ad8071cfcb8c37463f2c668c9319df6a8b6228",
            "0x000000000000000000000000f93e7518f79c2e1978d6862dbf161270040e623e"
          ],
          "data": "0x",
          "blockHash": "0x9615cbdc0d57f81e6d751c445871b0825feda9cdd351548c22de4cf03d6a9f11",
          "blockNumber": "0xa93747",
          "blockTimestamp": "0x6a346190",
          "transactionHash": "0x80f060ba038fdea2faa208f8ecf23624e420774c1fa57ac66c0f921ac60455a2",
          "transactionIndex": "0x8f",
          "logIndex": "0xd0",
          "removed": false
        },
        {
          "address": "0x55c6aedc9d5384f00aecd3515556a150e272168b",
          "topics": [
            "0xe2403640ba68fed3a2f88b7557551d1993f84b99bb10ff833f0cf8db0c5e0486",
            "0x000000000000000000000000f93e7518f79c2e1978d6862dbf161270040e623e"
          ],
          "data": "0x000000000000000000000000000000000000000000000000000000000179db40",
          "blockHash": "0x9615cbdc0d57f81e6d751c445871b0825feda9cdd351548c22de4cf03d6a9f11",
          "blockNumber": "0xa93747",
          "blockTimestamp": "0x6a346190",
          "transactionHash": "0x80f060ba038fdea2faa208f8ecf23624e420774c1fa57ac66c0f921ac60455a2",
          "transactionIndex": "0x8f",
          "logIndex": "0xd1",
          "removed": false
        },
        {
          "address": "0x9952d25eda1f305fcdb6ca9029520e33a7263ff8",
          "topics": [
            "0x5afab8514b88248eda17bad822bb4426f0941363a9453d50bf36fd1d735f5982",
            "0x000000000000000000000000f93e7518f79c2e1978d6862dbf161270040e623e",
            "0x0000000000000000000000000000000000000000000000000000000000008cfb"
          ],
          "data": "0x",
          "blockHash": "0x9615cbdc0d57f81e6d751c445871b0825feda9cdd351548c22de4cf03d6a9f11",
          "blockNumber": "0xa93747",
          "blockTimestamp": "0x6a346190",
          "transactionHash": "0x80f060ba038fdea2faa208f8ecf23624e420774c1fa57ac66c0f921ac60455a2",
          "transactionIndex": "0x8f",
          "logIndex": "0xd2",
          "removed": false
        }
      ],
      "logsBloom": "0x00000000000010000000001000000000000001008000000000000000880000000000000000000000000000000000000000000000000000200000000000000000000000000000000000000008000000600000000000000000000000000000000000000020000100000000002002000000008000000000000000000010000000000000000100000000000004000802000000000000000000000000000000100000000000000000020000000000000000000010000000440000000000000001080000000402000000000000000000000000020000000000000002000000000000200000000000000000000000000800000000000000000000000000000000000000",
      "transactionHash": "0x80f060ba038fdea2faa208f8ecf23624e420774c1fa57ac66c0f921ac60455a2",
      "transactionIndex": "0x8f",
      "blockHash": "0x9615cbdc0d57f81e6d751c445871b0825feda9cdd351548c22de4cf03d6a9f11",
      "blockNumber": "0xa93747",
      "gasUsed": "0x2e564",
      "effectiveGasPrice": "0x3eac7cb9",
      "from": "0xf93e7518f79c2e1978d6862dbf161270040e623e",
      "to": "0x9952d25eda1f305fcdb6ca9029520e33a7263ff8",
      "contractAddress": null
    },
    {
      "type": "0x2",
      "status": "0x1",
      "cumulativeGasUsed": "0x183f2cb",
      "logs": [
        {
          "address": "0x9952d25eda1f305fcdb6ca9029520e33a7263ff8",
          "topics": [
            "0xeb18042c63a6494302e2e34ca89562fb59d5b25ded99d617905bdd7c4f891f03",
            "0x0000000000000000000000000000000000000000000000000000000000000000",
            "0x0000000000000000000000000000000000000000000000000000000000000000"
          ],
          "data": "0x0000000000000000000000000000000000000000000000000000c115f215f800",
          "blockHash": "0x04f5e5e8f0e246a52cf3a3e3e02f494a0ca1783de5ab93d7c74f32c7ae21cf8d",
          "blockNumber": "0xa93749",
          "blockTimestamp": "0x6a3461a8",
          "transactionHash": "0xf5a3df7f3ea5088005bacfd0ac1a68528b17a8b0664a6ab76e2920aaf88936be",
          "transactionIndex": "0xac",
          "logIndex": "0x1ca",
          "removed": false
        },
        {
          "address": "0xe03a1074c86cfedd5c142c4f04f1a1536e203543",
          "topics": [
            "0x40e9cecb9f5f1f1c5b9c97dec2917b7ee92e57ba5563708daca94dd84ad7112f",
            "0x81d74c428ad55494ca858ba05cc806c16a7c196832d4b9885b8dd3d05457654a",
            "0x00000000000000000000000000000000000044a361ae3cac094c9d1b14eece97"
          ],
          "data": "0x00000000000000000000000000000000000000000000000000000001d4296b22fffffffffffffffffffffffffffffffffffffffffffffffffffd33974d4f7800000000000000000000000000000000000000013c34bb7dcfa3cbe62ab5a0bc21000000000000000000000000000000000000000000000001d29c192d99ad95a7000000000000000000000000000000000000000000000000000000000001c1bd0000000000000000000000000000000000000000000000000000000000000bb8",
          "blockHash": "0x04f5e5e8f0e246a52cf3a3e3e02f494a0ca1783de5ab93d7c74f32c7ae21cf8d",
          "blockNumber": "0xa93749",
          "blockTimestamp": "0x6a3461a8",
          "transactionHash": "0xf5a3df7f3ea5088005bacfd0ac1a68528b17a8b0664a6ab76e2920aaf88936be",
          "transactionIndex": "0xac",
          "logIndex": "0x1cb",
          "removed": false
        },
        {
          "address": "0xe03a1074c86cfedd5c142c4f04f1a1536e203543",
          "topics": [
            "0x1b3d7edb2e9c0b0e7c525b20aaaef0f5940d2ed71663c7d39266ecafac728859",
            "0x0000000000000000000000000000000000000000000000000000000000000000",
            "0x0000000000000000000000009952d25eda1f305fcdb6ca9029520e33a7263ff8",
            "0x0000000000000000000000008999eac3df09a3f46099130a56c5cb1e9d79ba2a"
          ],
          "data": "0x0000000000000000000000009952d25eda1f305fcdb6ca9029520e33a7263ff80000000000000000000000000000000000000000000000000000c115f215f800",
          "blockHash": "0x04f5e5e8f0e246a52cf3a3e3e02f494a0ca1783de5ab93d7c74f32c7ae21cf8d",
          "blockNumber": "0xa93749",
          "blockTimestamp": "0x6a3461a8",
          "transactionHash": "0xf5a3df7f3ea5088005bacfd0ac1a68528b17a8b0664a6ab76e2920aaf88936be",
          "transactionIndex": "0xac",
          "logIndex": "0x1cc",
          "removed": false
        },
        {
          "address": "0x8999eac3df09a3f46099130a56c5cb1e9d79ba2a",
          "topics": [
            "0xddf252ad1be2c89b69c2b068fc378daa952ba7f163c4a11628f55a4df523b3ef",
            "0x000000000000000000000000f93e7518f79c2e1978d6862dbf161270040e623e",
            "0x000000000000000000000000e03a1074c86cfedd5c142c4f04f1a1536e203543"
          ],
          "data": "0x00000000000000000000000000000000000000000000000000038d7ea4c68000",
          "blockHash": "0x04f5e5e8f0e246a52cf3a3e3e02f494a0ca1783de5ab93d7c74f32c7ae21cf8d",
          "blockNumber": "0xa93749",
          "blockTimestamp": "0x6a3461a8",
          "transactionHash": "0xf5a3df7f3ea5088005bacfd0ac1a68528b17a8b0664a6ab76e2920aaf88936be",
          "transactionIndex": "0xac",
          "logIndex": "0x1cd",
          "removed": false
        }
      ],
      "logsBloom": "0x00000000000000000000200000000008000000000000001000000000800000000000000000000000000000001000002000000100040000200000000040000000000000000000000000000008000004000000000000000020000000000000000000000000020100000000000080000800000000000000100400000010000040000000000000000000000010000000040000000000000000000000000000180001000002000000000000000000000020000000000000040000000000000000180000000002000000000000000000000000000000002000000000001000000020011000000000000000004000000010000000000004000000000000000004001000",
      "transactionHash": "0xf5a3df7f3ea5088005bacfd0ac1a68528b17a8b0664a6ab76e2920aaf88936be",
      "transactionIndex": "0xac",
      "blockHash": "0x04f5e5e8f0e246a52cf3a3e3e02f494a0ca1783de5ab93d7c74f32c7ae21cf8d",
      "blockNumber": "0xa93749",
      "gasUsed": "0x2bf0c",
      "effectiveGasPrice": "0x42e499c0",
      "from": "0xf93e7518f79c2e1978d6862dbf161270040e623e",
      "to": "0x00000000000044a361ae3cac094c9d1b14eece97",
      "contractAddress": null
    },
    {
      "type": "0x2",
      "status": "0x1",
      "cumulativeGasUsed": "0x117d878",
      "logs": [
        {
          "address": "0xe03a1074c86cfedd5c142c4f04f1a1536e203543",
          "topics": [
            "0x40e9cecb9f5f1f1c5b9c97dec2917b7ee92e57ba5563708daca94dd84ad7112f",
            "0x81d74c428ad55494ca858ba05cc806c16a7c196832d4b9885b8dd3d05457654a",
            "0x0000000000000000000000009952d25eda1f305fcdb6ca9029520e33a7263ff8"
          ],
          "data": "0x000000000000000000000000000000000000000000000000000000007e2dacb9ffffffffffffffffffffffffffffffffffffffffffffffffffff3eea0dea0800000000000000000000000000000000000000013c34bbe76d71fd87643ee303ad000000000000000000000000000000000000000000000001d29c192d99ad95a7000000000000000000000000000000000000000000000000000000000001c1bd0000000000000000000000000000000000000000000000000000000000000bb8",
          "blockHash": "0x83031aa7fe9c939b2e9e9ed6563736bb51b891e5454feaecdded5c35a88c2ca0",
          "blockNumber": "0xa9374a",
          "blockTimestamp": "0x6a3461b4",
          "transactionHash": "0xcefa7886326f83c8f3caa7c7e082169056beb711d7af6417c1f58c8be15f6184",
          "transactionIndex": "0xd9",
          "logIndex": "0x19c",
          "removed": false
        },
        {
          "address": "0xe03a1074c86cfedd5c142c4f04f1a1536e203543",
          "topics": [
            "0x1b3d7edb2e9c0b0e7c525b20aaaef0f5940d2ed71663c7d39266ecafac728859",
            "0x0000000000000000000000009952d25eda1f305fcdb6ca9029520e33a7263ff8",
            "0x0000000000000000000000000000000000000000000000000000000000000000",
            "0x0000000000000000000000008999eac3df09a3f46099130a56c5cb1e9d79ba2a"
          ],
          "data": "0x0000000000000000000000009952d25eda1f305fcdb6ca9029520e33a7263ff80000000000000000000000000000000000000000000000000000c115f215f800",
          "blockHash": "0x83031aa7fe9c939b2e9e9ed6563736bb51b891e5454feaecdded5c35a88c2ca0",
          "blockNumber": "0xa9374a",
          "blockTimestamp": "0x6a3461b4",
          "transactionHash": "0xcefa7886326f83c8f3caa7c7e082169056beb711d7af6417c1f58c8be15f6184",
          "transactionIndex": "0xd9",
          "logIndex": "0x19d",
          "removed": false
        },
        {
          "address": "0x55c6aedc9d5384f00aecd3515556a150e272168b",
          "topics": [
            "0x6c07ee05dcf262f13abf9d87b846ee789d2f90fe991d495acd7d7fc109ee1f55"
          ],
          "data": "0x0000000000000000000000000000000000000000000000000000000064f156fa0000000000000000000000000000000000000000000000000000000000093a80",
          "blockHash": "0x83031aa7fe9c939b2e9e9ed6563736bb51b891e5454feaecdded5c35a88c2ca0",
          "blockNumber": "0xa9374a",
          "blockTimestamp": "0x6a3461b4",
          "transactionHash": "0xcefa7886326f83c8f3caa7c7e082169056beb711d7af6417c1f58c8be15f6184",
          "transactionIndex": "0xd9",
          "logIndex": "0x19e",
          "removed": false
        },
        {
          "address": "0x9952d25eda1f305fcdb6ca9029520e33a7263ff8",
          "topics": [
            "0xda378dba4f1dc8c7a566c70096e0389c466cb99cc2ec74173afd50c7b652ca09"
          ],
          "data": "0x0000000000000000000000000000000000000000000000000000000064f156fa00000000000000000000000000000000000000000000000000000000193c55bf",
          "blockHash": "0x83031aa7fe9c939b2e9e9ed6563736bb51b891e5454feaecdded5c35a88c2ca0",
          "blockNumber": "0xa9374a",
          "blockTimestamp": "0x6a3461b4",
          "transactionHash": "0xcefa7886326f83c8f3caa7c7e082169056beb711d7af6417c1f58c8be15f6184",
          "transactionIndex": "0xd9",
          "logIndex": "0x19f",
          "removed": false
        }
      ],
      "logsBloom": "0x00000000000000000000200000000008000001000000000000000000000000000000000000000000000000001000002000000100040000000000000000000000000000000000000000000000000004000000200000000020000000000000000001000000020100000000000000000800000800000000100000000000000000000000000000000000000000000000040000000000000000000000000000000000000002000000000000000000000020000010000000040000000000000008080000000000000000000001000000000000020000002000000000000100000020001000000000000000004000000010000000000004000000000000000004000000",
      "transactionHash": "0xcefa7886326f83c8f3caa7c7e082169056beb711d7af6417c1f58c8be15f6184",
      "transactionIndex": "0xd9",
      "blockHash": "0x83031aa7fe9c939b2e9e9ed6563736bb51b891e5454feaecdded5c35a88c2ca0",
      "blockNumber": "0xa9374a",
      "gasUsed": "0x2644b",
      "effectiveGasPrice": "0x42f8acdd",
      "from": "0xf93e7518f79c2e1978d6862dbf161270040e623e",
      "to": "0x9952d25eda1f305fcdb6ca9029520e33a7263ff8",
      "contractAddress": null
    }
  ],
  "libraries": [],
  "pending": [],
  "returns": {},
  "timestamp": 1781817782638,
  "chain": 11155111,
  "commit": "2572d96"
}