{
  "transactions": [
    {
      "hash": "0xc17f70a4d0a9ac9ab6f3b690ff6ed3442031656dba938f7007b28e03aa0d6407",
      "transactionType": "CALL",
      "contractName": null,
      "contractAddress": "0x8999eac3df09a3f46099130a56c5cb1e9d79ba2a",
      "function": "approve(address,uint256)",
      "arguments": [
        "0x000000000022D473030F116dDEE9F6B43aC78BA3",
        "115792089237316195423570985008687907853269984665640564039457584007913129639935"
      ],
      "transaction": {
        "from": "0xf93e7518f79c2e1978d6862dbf161270040e623e",
        "to": "0x8999eac3df09a3f46099130a56c5cb1e9d79ba2a",
        "gas": "0x9681",
        "value": "0x0",
        "input": "0x095ea7b3000000000000000000000000000000000022d473030f116ddee9f6b43ac78ba3ffffffffffffffffffffffffffffffffffffffffffffffffffffffffffffffff",
        "nonce": "0x4d8",
        "chainId": "0xaa36a7"
      },
      "additionalContracts": [],
      "isFixedGasLimit": false
    },
    {
      "hash": "0x5eb4642c81e37c43612c1a6aab94bc7875c639c41aa349284ea42e672dfb05fc",
      "transactionType": "CALL",
      "contractName": null,
      "contractAddress": "0x000000000022d473030f116ddee9f6b43ac78ba3",
      "function": "approve(address,address,uint160,uint48)",
      "arguments": [
        "0x8999Eac3Df09a3f46099130a56c5CB1e9D79bA2a",
        "0x429ba70129df741B2Ca2a85BC3A2a3328e5c09b4",
        "1461501637330902918203684832716283019655932542975",
        "1781902248"
      ],
      "transaction": {
        "from": "0xf93e7518f79c2e1978d6862dbf161270040e623e",
        "to": "0x000000000022d473030f116ddee9f6b43ac78ba3",
        "gas": "0xa59b",
        "value": "0x0",
        "input": "0x87517c450000000000000000000000008999eac3df09a3f46099130a56c5cb1e9d79ba2a000000000000000000000000429ba70129df741b2ca2a85bc3a2a3328e5c09b4000000000000000000000000ffffffffffffffffffffffffffffffffffffffff000000000000000000000000000000000000000000000000000000006a35aba8",
        "nonce": "0x4d9",
        "chainId": "0xaa36a7"
      },
      "additionalContracts": [],
      "isFixedGasLimit": false
    },
    {
      "hash": "0x1449b320c3da24ec1118e45647da4f89115f6cc69f5398c9fa4593796e0abce6",
      "transactionType": "CALL",
      "contractName": null,
      "contractAddress": "0x000000000022d473030f116ddee9f6b43ac78ba3",
      "function": "approve(address,address,uint160,uint48)",
      "arguments": [
        "0x8999Eac3Df09a3f46099130a56c5CB1e9D79bA2a",
        "0x00000000000044a361Ae3cAc094c9D1b14Eece97",
        "1461501637330902918203684832716283019655932542975",
        "1781902248"
      ],
      "transaction": {
        "from": "0xf93e7518f79c2e1978d6862dbf161270040e623e",
        "to": "0x000000000022d473030f116ddee9f6b43ac78ba3",
        "gas": "0xa537",
        "value": "0x0",
        "input": "0x87517c450000000000000000000000008999eac3df09a3f46099130a56c5cb1e9d79ba2a00000000000000000000000000000000000044a361ae3cac094c9d1b14eece97000000000000000000000000ffffffffffffffffffffffffffffffffffffffff000000000000000000000000000000000000000000000000000000006a35aba8",
        "nonce": "0x4da",
        "chainId": "0xaa36a7"
      },
      "additionalContracts": [],
      "isFixedGasLimit": false
    },
    {
      "hash": "0x1cd556f4aad40526dbaf1190e3a69238dfb69568810d04f86debd9ab7ad9ffce",
      "transactionType": "CALL",
      "contractName": null,
      "contractAddress": "0x8999eac3df09a3f46099130a56c5cb1e9d79ba2a",
      "function": "approve(address,uint256)",
      "arguments": [
        "0x00000000000044a361Ae3cAc094c9D1b14Eece97",
        "115792089237316195423570985008687907853269984665640564039457584007913129639935"
      ],
      "transaction": {
        "from": "0xf93e7518f79c2e1978d6862dbf161270040e623e",
        "to": "0x8999eac3df09a3f46099130a56c5cb1e9d79ba2a",
        "gas": "0x8e13",
        "value": "0x0",
        "input": "0x095ea7b300000000000000000000000000000000000044a361ae3cac094c9d1b14eece97ffffffffffffffffffffffffffffffffffffffffffffffffffffffffffffffff",
        "nonce": "0x4db",
        "chainId": "0xaa36a7"
      },
      "additionalContracts": [],
      "isFixedGasLimit": false
    },
    {
      "hash": "0x189d6d9e14d4efc1f57793a0cedd21fc333c50296ca23318d6342a48255c495e",
      "transactionType": "CALL",
      "contractName": null,
      "contractAddress": "0x8999eac3df09a3f46099130a56c5cb1e9d79ba2a",
      "function": "approve(address,uint256)",
      "arguments": [
        "0x55C6aeDC9d5384F00aEcd3515556A150e272168B",
        "115792089237316195423570985008687907853269984665640564039457584007913129639935"
      ],
      "transaction": {
        "from": "0xf93e7518f79c2e1978d6862dbf161270040e623e",
        "to": "0x8999eac3df09a3f46099130a56c5cb1e9d79ba2a",
        "gas": "0x8e77",
        "value": "0x0",
        "input": "0x095ea7b300000000000000000000000055c6aedc9d5384f00aecd3515556a150e272168bffffffffffffffffffffffffffffffffffffffffffffffffffffffffffffffff",
        "nonce": "0x4dc",
        "chainId": "0xaa36a7"
      },
      "additionalContracts": [],
      "isFixedGasLimit": false
    },
    {
      "hash": "0x933e848cf766c4697c64f8a7487e54916cddc46051199e7450ba195bbb909c3d",
      "transactionType": "CALL",
      "contractName": null,
      "contractAddress": "0x429ba70129df741b2ca2a85bc3a2a3328e5c09b4",
      "function": "modifyLiquidities(bytes,uint256)",
      "arguments": [
        "0x000000000000000000000000000000000000000000000000000000000000004000000000000000000000000000000000000000000000000000000000000000800000000000000000000000000000000000000000000000000000000000000002020d00000000000000000000000000000000000000000000000000000000000000000000000000000000000000000000000000000000000000000000000000020000000000000000000000000000000000000000000000000000000000000040000000000000000000000000000000000000000000000000000000000000020000000000000000000000000000000000000000000000000000000000000001a000000000000000000000000000000000000000000000000000000000000000000000000000000000000000008999eac3df09a3f46099130a56c5cb1e9d79ba2a0000000000000000000000000000000000000000000000000000000000000bb8000000000000000000000000000000000000000000000000000000000000003c0000000000000000000000009952d25eda1f305fcdb6ca9029520e33a7263ff8fffffffffffffffffffffffffffffffffffffffffffffffffffffffffff2764c00000000000000000000000000000000000000000000000000000000000d89b400000000000000000000000000000000000000000000000006f05b59d3b2000000000000000000000000000000000000ffffffffffffffffffffffffffffffff00000000000000000000000000000000ffffffffffffffffffffffffffffffff000000000000000000000000f93e7518f79c2e1978d6862dbf161270040e623e00000000000000000000000000000000000000000000000000000000000001800000000000000000000000000000000000000000000000000000000000000000000000000000000000000000000000000000000000000000000000000000004000000000000000000000000000000000000000000000000000000000000000000000000000000000000000008999eac3df09a3f46099130a56c5cb1e9d79ba2a",
        "115792089237316195423570985008687907853269984665640564039457584007913129639935"
      ],
      "transaction": {
        "from": "0xf93e7518f79c2e1978d6862dbf161270040e623e",
        "to": "0x429ba70129df741b2ca2a85bc3a2a3328e5c09b4",
        "gas": "0x5efaa",
        "value": "0x11c37937e08000",
        "input": "0xdd46508f0000000000000000000000000000000000000000000000000000000000000040ffffffffffffffffffffffffffffffffffffffffffffffffffffffffffffffff0000000000000000000000000000000000000000000000000000000000000300000000000000000000000000000000000000000000000000000000000000004000000000000000000000000000000000000000000000000000000000000000800000000000000000000000000000000000000000000000000000000000000002020d00000000000000000000000000000000000000000000000000000000000000000000000000000000000000000000000000000000000000000000000000020000000000000000000000000000000000000000000000000000000000000040000000000000000000000000000000000000000000000000000000000000020000000000000000000000000000000000000000000000000000000000000001a000000000000000000000000000000000000000000000000000000000000000000000000000000000000000008999eac3df09a3f46099130a56c5cb1e9d79ba2a0000000000000000000000000000000000000000000000000000000000000bb8000000000000000000000000000000000000000000000000000000000000003c0000000000000000000000009952d25eda1f305fcdb6ca9029520e33a7263ff8fffffffffffffffffffffffffffffffffffffffffffffffffffffffffff2764c00000000000000000000000000000000000000000000000000000000000d89b400000000000000000000000000000000000000000000000006f05b59d3b2000000000000000000000000000000000000ffffffffffffffffffffffffffffffff00000000000000000000000000000000ffffffffffffffffffffffffffffffff000000000000000000000000f93e7518f79c2e1978d6862dbf161270040e623e00000000000000000000000000000000000000000000000000000000000001800000000000000000000000000000000000000000000000000000000000000000000000000000000000000000000000000000000000000000000000000000004000000000000000000000000000000000000000000000000000000000000000000000000000000000000000008999eac3df09a3f46099130a56c5cb1e9d79ba2a",
        "nonce": "0x4dd",
        "chainId": "0xaa36a7"
      },
      "additionalContracts": [],
      "isFixedGasLimit": false
    },
    {
      "hash": "0x094a924a1c3f387a2a70a3a3305256ed90c0b65c1217175a38d13dfa162e2ea4",
      "transactionType": "CALL",
      "contractName": null,
      "contractAddress": "0x00000000000044a361ae3cac094c9d1b14eece97",
      "function": "swapExactTokensForTokens(uint256,uint256,bool,(address,address,uint24,int24,address),bytes,address,uint256)",
      "arguments": [
        "1000000000000",
        "0",
        "true",
        "(0x0000000000000000000000000000000000000000, 0x8999Eac3Df09a3f46099130a56c5CB1e9D79bA2a, 3000, 60, 0x9952d25eDA1f305fcDb6Ca9029520e33A7263Ff8)",
        "0x",
        "0xF93E7518F79C2E1978D6862Dbf161270040e623E",
        "115792089237316195423570985008687907853269984665640564039457584007913129639935"
      ],
      "transaction": {
        "from": "0xf93e7518f79c2e1978d6862dbf161270040e623e",
        "to": "0x00000000000044a361ae3cac094c9d1b14eece97",
        "gas": "0x3c946",
        "value": "0xe8d4a51000",
        "input": "0xb1a0d571000000000000000000000000000000000000000000000000000000e8d4a510000000000000000000000000000000000000000000000000000000000000000000000000000000000000000000000000000000000000000000000000000000000100000000000000000000000000000000000000000000000000000000000000000000000000000000000000008999eac3df09a3f46099130a56c5cb1e9d79ba2a0000000000000000000000000000000000000000000000000000000000000bb8000000000000000000000000000000000000000000000000000000000000003c0000000000000000000000009952d25eda1f305fcdb6ca9029520e33a7263ff80000000000000000000000000000000000000000000000000000000000000160000000000000000000000000f93e7518f79c2e1978d6862dbf161270040e623effffffffffffffffffffffffffffffffffffffffffffffffffffffffffffffff0000000000000000000000000000000000000000000000000000000000000000",
        "nonce": "0x4de",
        "chainId": "0xaa36a7"
      },
      "additionalContracts": [],
      "isFixedGasLimit": false
    },
    {
      "hash": "0x443ac9d0c995d6482cc892c0a266afa1a40ebc7ee4ee21b7e015f9c2ca060533",
      "transactionType": "CALL",
      "contractName": null,
      "contractAddress": "0x9952d25eda1f305fcdb6ca9029520e33a7263ff8",
      "function": "claimFees(bool)",
      "arguments": [
        "true"
      ],
      "transaction": {
        "from": "0xf93e7518f79c2e1978d6862dbf161270040e623e",
        "to": "0x9952d25eda1f305fcdb6ca9029520e33a7263ff8",
        "gas": "0x27f54",
        "value": "0x0",
        "input": "0x1d4161650000000000000000000000000000000000000000000000000000000000000001",
        "nonce": "0x4df",
        "chainId": "0xaa36a7"
      },
      "additionalContracts": [],
      "isFixedGasLimit": false
    },
    {
      "hash": "0xbd82f8eb29f104da6bb65ebf8bad6a4ec8ee1291873152830bc4f6d99a93db9d",
      "transactionType": "CALL",
      "contractName": null,
      "contractAddress": "0x00000000000044a361ae3cac094c9d1b14eece97",
      "function": "swapExactTokensForTokens(uint256,uint256,bool,(address,address,uint24,int24,address),bytes,address,uint256)",
      "arguments": [
        "1000000000000000",
        "0",
        "false",
        "(0x0000000000000000000000000000000000000000, 0x8999Eac3Df09a3f46099130a56c5CB1e9D79bA2a, 3000, 60, 0x9952d25eDA1f305fcDb6Ca9029520e33A7263Ff8)",
        "0x",
        "0xF93E7518F79C2E1978D6862Dbf161270040e623E",
        "115792089237316195423570985008687907853269984665640564039457584007913129639935"
      ],
      "transaction": {
        "from": "0xf93e7518f79c2e1978d6862dbf161270040e623e",
        "to": "0x00000000000044a361ae3cac094c9d1b14eece97",
        "gas": "0x3c5f6",
        "value": "0x0",
        "input": "0xb1a0d57100000000000000000000000000000000000000000000000000038d7ea4c680000000000000000000000000000000000000000000000000000000000000000000000000000000000000000000000000000000000000000000000000000000000000000000000000000000000000000000000000000000000000000000000000000000000000000000000000008999eac3df09a3f46099130a56c5cb1e9d79ba2a0000000000000000000000000000000000000000000000000000000000000bb8000000000000000000000000000000000000000000000000000000000000003c0000000000000000000000009952d25eda1f305fcdb6ca9029520e33a7263ff80000000000000000000000000000000000000000000000000000000000000160000000000000000000000000f93e7518f79c2e1978d6862dbf161270040e623effffffffffffffffffffffffffffffffffffffffffffffffffffffffffffffff0000000000000000000000000000000000000000000000000000000000000000",
        "nonce": "0x4e0",
        "chainId": "0xaa36a7"
      },
      "additionalContracts": [],
      "isFixedGasLimit": false
    },
    {
      "hash": "0x2e798c1ebe80fb040e29ce5d1494a5e16ec607e97bc11cbc1415e16cdcc9524d",
      "transactionType": "CALL",
      "contractName": null,
      "contractAddress": "0x9952d25eda1f305fcdb6ca9029520e33a7263ff8",
      "function": "claimFees(bool)",
      "arguments": [
        "false"
      ],
      "transaction": {
        "from": "0xf93e7518f79c2e1978d6862dbf161270040e623e",
        "to": "0x9952d25eda1f305fcdb6ca9029520e33a7263ff8",
        "gas": "0x31b49",
        "value": "0x0",
        "input": "0x1d4161650000000000000000000000000000000000000000000000000000000000000000",
        "nonce": "0x4e1",
        "chainId": "0xaa36a7"
      },
      "additionalContracts": [],
      "isFixedGasLimit": false
    },
    {
      "hash": "0x93566dfcbdb6957457db17547b49f64545f057b0fb4dc9d761603e43ecb32013",
      "transactionType": "CALL",
      "contractName": null,
      "contractAddress": "0x55c6aedc9d5384f00aecd3515556a150e272168b",
      "function": "stake(uint256)",
      "arguments": [
        "100000000000000000000"
      ],
      "transaction": {
        "from": "0xf93e7518f79c2e1978d6862dbf161270040e623e",
        "to": "0x55c6aedc9d5384f00aecd3515556a150e272168b",
        "gas": "0x2e8f6",
        "value": "0x0",
        "input": "0xa694fc3a0000000000000000000000000000000000000000000000056bc75e2d63100000",
        "nonce": "0x4e2",
        "chainId": "0xaa36a7"
      },
      "additionalContracts": [],
      "isFixedGasLimit": false
    },
    {
      "hash": "0xe99c36d4219506de7f01c4a6e7af136fbd9c5560ed274aadb02dc9df8efb56ed",
      "transactionType": "CALL",
      "contractName": null,
      "contractAddress": "0x00000000000044a361ae3cac094c9d1b14eece97",
      "function": "swapExactTokensForTokens(uint256,uint256,bool,(address,address,uint24,int24,address),bytes,address,uint256)",
      "arguments": [
        "1000000000000",
        "0",
        "true",
        "(0x0000000000000000000000000000000000000000, 0x8999Eac3Df09a3f46099130a56c5CB1e9D79bA2a, 3000, 60, 0x9952d25eDA1f305fcDb6Ca9029520e33A7263Ff8)",
        "0x",
        "0xF93E7518F79C2E1978D6862Dbf161270040e623E",
        "115792089237316195423570985008687907853269984665640564039457584007913129639935"
      ],
      "transaction": {
        "from": "0xf93e7518f79c2e1978d6862dbf161270040e623e",
        "to": "0x00000000000044a361ae3cac094c9d1b14eece97",
        "gas": "0x3fecb",
        "value": "0xe8d4a51000",
        "input": "0xb1a0d571000000000000000000000000000000000000000000000000000000e8d4a510000000000000000000000000000000000000000000000000000000000000000000000000000000000000000000000000000000000000000000000000000000000100000000000000000000000000000000000000000000000000000000000000000000000000000000000000008999eac3df09a3f46099130a56c5cb1e9d79ba2a0000000000000000000000000000000000000000000000000000000000000bb8000000000000000000000000000000000000000000000000000000000000003c0000000000000000000000009952d25eda1f305fcdb6ca9029520e33a7263ff80000000000000000000000000000000000000000000000000000000000000160000000000000000000000000f93e7518f79c2e1978d6862dbf161270040e623effffffffffffffffffffffffffffffffffffffffffffffffffffffffffffffff0000000000000000000000000000000000000000000000000000000000000000",
        "nonce": "0x4e3",
        "chainId": "0xaa36a7"
      },
      "additionalContracts": [],
      "isFixedGasLimit": false
    },
    {
      "hash": "0x23b34487ed0e0c0c5a1d31674186afb7d47054b683d426d0d534902e812bccd0",
      "transactionType": "CALL",
      "contractName": null,
      "contractAddress": "0x9952d25eda1f305fcdb6ca9029520e33a7263ff8",
      "function": "claimFees(bool)",
      "arguments": [
        "true"
      ],
      "transaction": {
        "from": "0xf93e7518f79c2e1978d6862dbf161270040e623e",
        "to": "0x9952d25eda1f305fcdb6ca9029520e33a7263ff8",
        "gas": "0x25202",
        "value": "0x0",
        "input": "0x1d4161650000000000000000000000000000000000000000000000000000000000000001",
        "nonce": "0x4e4",
        "chainId": "0xaa36a7"
      },
      "additionalContracts": [],
      "isFixedGasLimit": false
    },
    {
      "hash": "0x08e68d330bed0c0714961db3263a03eece685bf370c194bde7ed6c50dd203ef5",
      "transactionType": "CALL",
      "contractName": null,
      "contractAddress": "0x55c6aedc9d5384f00aecd3515556a150e272168b",
      "function": "claimReward()",
      "arguments": [],
      "transaction": {
        "from": "0xf93e7518f79c2e1978d6862dbf161270040e623e",
        "to": "0x55c6aedc9d5384f00aecd3515556a150e272168b",
        "gas": "0x10ee3",
        "value": "0x0",
        "input": "0xb88a802f",
        "nonce": "0x4e5",
        "chainId": "0xaa36a7"
      },
      "additionalContracts": [],
      "isFixedGasLimit": false
    },
    {
      "hash": "0xee0d644fa870db8c203cc47bcf378e77a07d4d616355123ec5ec58d5b996d5b4",
      "transactionType": "CALL",
      "contractName": null,
      "contractAddress": "0x8999eac3df09a3f46099130a56c5cb1e9d79ba2a",
      "function": "burn(uint256)",
      "arguments": [
        "10000000000000000000000"
      ],
      "transaction": {
        "from": "0xf93e7518f79c2e1978d6862dbf161270040e623e",
        "to": "0x8999eac3df09a3f46099130a56c5cb1e9d79ba2a",
        "gas": "0x44c61",
        "value": "0x0",
        "input": "0x42966c6800000000000000000000000000000000000000000000021e19e0c9bab2400000",
        "nonce": "0x4e6",
        "chainId": "0xaa36a7"
      },
      "additionalContracts": [],
      "isFixedGasLimit": false
    },
    {
      "hash": "0x3f23633ee63505e5b32d935759eef0808b7a120547798070f094fae473a06ccf",
      "transactionType": "CALL",
      "contractName": null,
      "contractAddress": "0x429ba70129df741b2ca2a85bc3a2a3328e5c09b4",
      "function": "approve(address,uint256)",
      "arguments": [
        "0x9952d25eDA1f305fcDb6Ca9029520e33A7263Ff8",
        "36088"
      ],
      "transaction": {
        "from": "0xf93e7518f79c2e1978d6862dbf161270040e623e",
        "to": "0x429ba70129df741b2ca2a85bc3a2a3328e5c09b4",
        "gas": "0x10489",
        "value": "0x0",
        "input": "0x095ea7b30000000000000000000000009952d25eda1f305fcdb6ca9029520e33a7263ff80000000000000000000000000000000000000000000000000000000000008cf8",
        "nonce": "0x4e7",
        "chainId": "0xaa36a7"
      },
      "additionalContracts": [],
      "isFixedGasLimit": false
    },
    {
      "hash": null,
      "transactionType": "CALL",
      "contractName": null,
      "contractAddress": "0x9952d25eda1f305fcdb6ca9029520e33a7263ff8",
      "function": "burnLpPosition(uint256)",
      "arguments": [
        "36088"
      ],
      "transaction": {
        "from": "0xf93e7518f79c2e1978d6862dbf161270040e623e",
        "to": "0x9952d25eda1f305fcdb6ca9029520e33a7263ff8",
        "gas": "0x3a51c",
        "value": "0x0",
        "input": "0x32803cbc0000000000000000000000000000000000000000000000000000000000008cf8",
        "nonce": "0x4e8",
        "chainId": "0xaa36a7"
      },
      "additionalContracts": [],
      "isFixedGasLimit": false
    },
    {
      "hash": null,
      "transactionType": "CALL",
      "contractName": null,
      "contractAddress": "0x00000000000044a361ae3cac094c9d1b14eece97",
      "function": "swapExactTokensForTokens(uint256,uint256,bool,(address,address,uint24,int24,address),bytes,address,uint256)",
      "arguments": [
        "1000000000000000",
        "0",
        "false",
        "(0x0000000000000000000000000000000000000000, 0x8999Eac3Df09a3f46099130a56c5CB1e9D79bA2a, 3000, 60, 0x9952d25eDA1f305fcDb6Ca9029520e33A7263Ff8)",
        "0x",
        "0xF93E7518F79C2E1978D6862Dbf161270040e623E",
        "115792089237316195423570985008687907853269984665640564039457584007913129639935"
      ],
      "transaction": {
        "from": "0xf93e7518f79c2e1978d6862dbf161270040e623e",
        "to": "0x00000000000044a361ae3cac094c9d1b14eece97",
        "gas": "0x3c5f6",
        "value": "0x0",
        "input": "0xb1a0d57100000000000000000000000000000000000000000000000000038d7ea4c680000000000000000000000000000000000000000000000000000000000000000000000000000000000000000000000000000000000000000000000000000000000000000000000000000000000000000000000000000000000000000000000000000000000000000000000000008999eac3df09a3f46099130a56c5cb1e9d79ba2a0000000000000000000000000000000000000000000000000000000000000bb8000000000000000000000000000000000000000000000000000000000000003c0000000000000000000000009952d25eda1f305fcdb6ca9029520e33a7263ff80000000000000000000000000000000000000000000000000000000000000160000000000000000000000000f93e7518f79c2e1978d6862dbf161270040e623effffffffffffffffffffffffffffffffffffffffffffffffffffffffffffffff0000000000000000000000000000000000000000000000000000000000000000",
        "nonce": "0x4e9",
        "chainId": "0xaa36a7"
      },
      "additionalContracts": [],
      "isFixedGasLimit": false
    },
    {
      "hash": null,
      "transactionType": "CALL",
      "contractName": null,
      "contractAddress": "0x9952d25eda1f305fcdb6ca9029520e33a7263ff8",
      "function": "claimFees(bool)",
      "arguments": [
        "false"
      ],
      "transaction": {
        "from": "0xf93e7518f79c2e1978d6862dbf161270040e623e",
        "to": "0x9952d25eda1f305fcdb6ca9029520e33a7263ff8",
        "gas": "0x31b49",
        "value": "0x0",
        "input": "0x1d4161650000000000000000000000000000000000000000000000000000000000000000",
        "nonce": "0x4ea",
        "chainId": "0xaa36a7"
      },
      "additionalContracts": [],
      "isFixedGasLimit": false
    }
  ],
  "receipts": [
    {
      "type": "0x2",
      "status": "0x1",
      "cumulativeGasUsed": "0x1048e9b",
      "logs": [
        {
          "address": "0x8999eac3df09a3f46099130a56c5cb1e9d79ba2a",
          "topics": [
            "0x8c5be1e5ebec7d5bd14f71427d1e84f3dd0314c0f7b2291e5b200ac8c7c3b925",
            "0x000000000000000000000000f93e7518f79c2e1978d6862dbf161270040e623e",
            "0x000000000000000000000000000000000022d473030f116ddee9f6b43ac78ba3"
          ],
          "data": "0xffffffffffffffffffffffffffffffffffffffffffffffffffffffffffffffff",
          "blockHash": "0x7c05536150e15d49370bfd238cff73f2412026d0c94899b344fbd21b7856ac9a",
          "blockNumber": "0xa936af",
          "blockTimestamp": "0x6a345a70",
          "transactionHash": "0xc17f70a4d0a9ac9ab6f3b690ff6ed3442031656dba938f7007b28e03aa0d6407",
          "transactionIndex": "0xe6",
          "logIndex": "0x1ce",
          "removed": false
        }
      ],
      "logsBloom": "0x00000000000000000000000000000000000000000000000000000000800000000000000000000000000000000000000000000000800000200000000000200000000000000000000000004000000000000000000000000800000000000000000000000000000000000000000000000000000000000000000400000000000000000000000000000000000000000000000000000000000000000000000000100001020000000000000000000000000000000000000000000000000000000000100000000000000000000000000000000000000000000000000000000000000000000010000000000000000000000000000000000000000000000000000000000000",
      "transactionHash": "0xc17f70a4d0a9ac9ab6f3b690ff6ed3442031656dba938f7007b28e03aa0d6407",
      "transactionIndex": "0xe6",
      "blockHash": "0x7c05536150e15d49370bfd238cff73f2412026d0c94899b344fbd21b7856ac9a",
      "blockNumber": "0xa936af",
      "gasUsed": "0x66e9",
      "effectiveGasPrice": "0x3c91ac30",
      "from": "0xf93e7518f79c2e1978d6862dbf161270040e623e",
      "to": "0x8999eac3df09a3f46099130a56c5cb1e9d79ba2a",
      "contractAddress": null
    },
    {
      "type": "0x2",
      "status": "0x1",
      "cumulativeGasUsed": "0x1a0627b",
      "logs": [
        {
          "address": "0x000000000022d473030f116ddee9f6b43ac78ba3",
          "topics": [
            "0xda9fa7c1b00402c17d0161b249b1ab8bbec047c5a52207b9c112deffd817036b",
            "0x000000000000000000000000f93e7518f79c2e1978d6862dbf161270040e623e",
            "0x0000000000000000000000008999eac3df09a3f46099130a56c5cb1e9d79ba2a",
            "0x000000000000000000000000429ba70129df741b2ca2a85bc3a2a3328e5c09b4"
          ],
          "data": "0x000000000000000000000000ffffffffffffffffffffffffffffffffffffffff000000000000000000000000000000000000000000000000000000006a35aba8",
          "blockHash": "0x42870185c67e3c1a032fe05460e791a923e89b4702bbdab0941f9f97100b27b0",
          "blockNumber": "0xa936b0",
          "blockTimestamp": "0x6a345a7c",
          "transactionHash": "0x5eb4642c81e37c43612c1a6aab94bc7875c639c41aa349284ea42e672dfb05fc",
          "transactionIndex": "0x100",
          "logIndex": "0x596",
          "removed": false
        }
      ],
      "logsBloom": "0x00010000000000000000000000000008000000000000000000000000800000000000000000000040080000001000000000000000000000200000000000080000000000000000000000000000000000000000000000000000000000000000000000000000000000000000000000000000000000000000000000000800000000000020000000000000000000000000000000000000000000000000000000100000000000000000000000000000000000000000000000000000000000080000000000000000000000000000000000000000000000000000000040000000000000000000000000000000000000000000000000000004000000000000000000000400",
      "transactionHash": "0x5eb4642c81e37c43612c1a6aab94bc7875c639c41aa349284ea42e672dfb05fc",
      "transactionIndex": "0x100",
      "blockHash": "0x42870185c67e3c1a032fe05460e791a923e89b4702bbdab0941f9f97100b27b0",
      "blockNumber": "0xa936b0",
      "gasUsed": "0x77e6",
      "effectiveGasPrice": "0x3c95a5a5",
      "from": "0xf93e7518f79c2e1978d6862dbf161270040e623e",
      "to": "0x000000000022d473030f116ddee9f6b43ac78ba3",
      "contractAddress": null
    },
    {
      "type": "0x2",
      "status": "0x1",
      "cumulativeGasUsed": "0xe472e2",
      "logs": [
        {
          "address": "0x000000000022d473030f116ddee9f6b43ac78ba3",
          "topics": [
            "0xda9fa7c1b00402c17d0161b249b1ab8bbec047c5a52207b9c112deffd817036b",
            "0x000000000000000000000000f93e7518f79c2e1978d6862dbf161270040e623e",
            "0x0000000000000000000000008999eac3df09a3f46099130a56c5cb1e9d79ba2a",
            "0x00000000000000000000000000000000000044a361ae3cac094c9d1b14eece97"
          ],
          "data": "0x000000000000000000000000ffffffffffffffffffffffffffffffffffffffff000000000000000000000000000000000000000000000000000000006a35aba8",
          "blockHash": "0x1d3cc355221fb4e8d0195562b41a89fb996b06fdd7f9236c1adedfe78d61a978",
          "blockNumber": "0xa936b1",
          "blockTimestamp": "0x6a345a88",
          "transactionHash": "0x1449b320c3da24ec1118e45647da4f89115f6cc69f5398c9fa4593796e0abce6",
          "transactionIndex": "0xbd",
          "logIndex": "0x173",
          "removed": false
        }
      ],
      "logsBloom": "0x00010000000000000000000000000008000000000000000000000000800000000000000000000000000000001000000000000000000000200000000040080000000000000000000000000000000000000000000000000000000000000000000000000000000000000000000000000000000000000000000000000000000040000020000000000000000000000000000000000000000000000000000000100000000000000000000000000000000000000000000000000000000000080000000000000000000000000000000000000000000000000000000040000000000000010000000000000000000000000000000000000004000000000000000000000400",
      "transactionHash": "0x1449b320c3da24ec1118e45647da4f89115f6cc69f5398c9fa4593796e0abce6",
      "transactionIndex": "0xbd",
      "blockHash": "0x1d3cc355221fb4e8d0195562b41a89fb996b06fdd7f9236c1adedfe78d61a978",
      "blockNumber": "0xa936b1",
      "gasUsed": "0x779e",
      "effectiveGasPrice": "0x3bfb76d6",
      "from": "0xf93e7518f79c2e1978d6862dbf161270040e623e",
      "to": "0x000000000022d473030f116ddee9f6b43ac78ba3",
      "contractAddress": null
    },
    {
      "type": "0x2",
      "status": "0x1",
      "cumulativeGasUsed": "0x38ad828",
      "logs": [
        {
          "address": "0x8999eac3df09a3f46099130a56c5cb1e9d79ba2a",
          "topics": [
            "0x8c5be1e5ebec7d5bd14f71427d1e84f3dd0314c0f7b2291e5b200ac8c7c3b925",
            "0x000000000000000000000000f93e7518f79c2e1978d6862dbf161270040e623e",
            "0x00000000000000000000000000000000000044a361ae3cac094c9d1b14eece97"
          ],
          "data": "0xffffffffffffffffffffffffffffffffffffffffffffffffffffffffffffffff",
          "blockHash": "0x04c0a541ec169c225c8c6add6235689edaced3102a6e7100f5fcef15bee6bf18",
          "blockNumber": "0xa936b2",
          "blockTimestamp": "0x6a345a94",
          "transactionHash": "0x1cd556f4aad40526dbaf1190e3a69238dfb69568810d04f86debd9ab7ad9ffce",
          "transactionIndex": "0xc3",
          "logIndex": "0x160",
          "removed": false
        }
      ],
      "logsBloom": "0x00000000000000000000000000000000000000000000000000000000800000000000000000000000000000000000000000000000000000200000000040200000000000000000000000000000000000000000000000000000000000000000000000000000000000000000000000000000000000000000000400000000000040000000000000000000000000000000000000000000000000000000000000100001020000000000000000000000000000000000000000000000000000000000100000000000000000000000000000000000000000000000000000000000000000010010000000000000000000000000000000000000000000000000000000000000",
      "transactionHash": "0x1cd556f4aad40526dbaf1190e3a69238dfb69568810d04f86debd9ab7ad9ffce",
      "transactionIndex": "0xc3",
      "blockHash": "0x04c0a541ec169c225c8c6add6235689edaced3102a6e7100f5fcef15bee6bf18",
      "blockNumber": "0xa936b2",
      "gasUsed": "0x66dd",
      "effectiveGasPrice": "0x3abb47a9",
      "from": "0xf93e7518f79c2e1978d6862dbf161270040e623e",
      "to": "0x8999eac3df09a3f46099130a56c5cb1e9d79ba2a",
      "contractAddress": null
    },
    {
      "type": "0x2",
      "status": "0x1",
      "cumulativeGasUsed": "0x1a6cebd",
      "logs": [
        {
          "address": "0x8999eac3df09a3f46099130a56c5cb1e9d79ba2a",
          "topics": [
            "0x8c5be1e5ebec7d5bd14f71427d1e84f3dd0314c0f7b2291e5b200ac8c7c3b925",
            "0x000000000000000000000000f93e7518f79c2e1978d6862dbf161270040e623e",
            "0x00000000000000000000000055c6aedc9d5384f00aecd3515556a150e272168b"
          ],
          "data": "0xffffffffffffffffffffffffffffffffffffffffffffffffffffffffffffffff",
          "blockHash": "0xc37349e0bf60fff6978754b8b65ab1df3542c3ee82a3d23d66bfb09b52dfb63c",
          "blockNumber": "0xa936b3",
          "blockTimestamp": "0x6a345aa0",
          "transactionHash": "0x189d6d9e14d4efc1f57793a0cedd21fc333c50296ca23318d6342a48255c495e",
          "transactionIndex": "0xd7",
          "logIndex": "0x5aa",
          "removed": false
        }
      ],
      "logsBloom": "0x00000000000000000000000000000000000000000000000000000000800000000000100000000000000000000000000000000000000000200000000000200000000000000000000000000000000000000000000000000000000000000000000000000000000000000000000000000000000000000000000400000000000000000000000000000000000000000000000000000000000000000000000000100001020000000000000000000000000000000002000000000000000000000000100000000000000000000000000000000000000000000000000000000000000000000010000000000000008000000000000000000000000000000000000000000000",
      "transactionHash": "0x189d6d9e14d4efc1f57793a0cedd21fc333c50296ca23318d6342a48255c495e",
      "transactionIndex": "0xd7",
      "blockHash": "0xc37349e0bf60fff6978754b8b65ab1df3542c3ee82a3d23d66bfb09b52dfb63c",
      "blockNumber": "0xa936b3",
      "gasUsed": "0x6725",
      "effectiveGasPrice": "0x42107fd6",
      "from": "0xf93e7518f79c2e1978d6862dbf161270040e623e",
      "to": "0x8999eac3df09a3f46099130a56c5cb1e9d79ba2a",
      "contractAddress": null
    },
    {
      "type": "0x2",
      "status": "0x1",
      "cumulativeGasUsed": "0x12e5073",
      "logs": [
        {
          "address": "0x429ba70129df741b2ca2a85bc3a2a3328e5c09b4",
          "topics": [
            "0xddf252ad1be2c89b69c2b068fc378daa952ba7f163c4a11628f55a4df523b3ef",
            "0x0000000000000000000000000000000000000000000000000000000000000000",
            "0x000000000000000000000000f93e7518f79c2e1978d6862dbf161270040e623e",
            "0x0000000000000000000000000000000000000000000000000000000000008cf9"
          ],
          "data": "0x",
          "blockHash": "0x2edd517d07cb36c6592f2b7f3662d8ae24fa1fcf9026a85a44f6f5f47e2e817e",
          "blockNumber": "0xa936b4",
          "blockTimestamp": "0x6a345aac",
          "transactionHash": "0x933e848cf766c4697c64f8a7487e54916cddc46051199e7450ba195bbb909c3d",
          "transactionIndex": "0xce",
          "logIndex": "0x17a",
          "removed": false
        },
        {
          "address": "0xe03a1074c86cfedd5c142c4f04f1a1536e203543",
          "topics": [
            "0xf208f4912782fd25c7f114ca3723a2d5dd6f3bcc3ac8db5af63baa85f711d5ec",
            "0x81d74c428ad55494ca858ba05cc806c16a7c196832d4b9885b8dd3d05457654a",
            "0x000000000000000000000000429ba70129df741b2ca2a85bc3a2a3328e5c09b4"
          ],
          "data": "0xfffffffffffffffffffffffffffffffffffffffffffffffffffffffffff2764c00000000000000000000000000000000000000000000000000000000000d89b400000000000000000000000000000000000000000000000006f05b59d3b200000000000000000000000000000000000000000000000000000000000000008cf9",
          "blockHash": "0x2edd517d07cb36c6592f2b7f3662d8ae24fa1fcf9026a85a44f6f5f47e2e817e",
          "blockNumber": "0xa936b4",
          "blockTimestamp": "0x6a345aac",
          "transactionHash": "0x933e848cf766c4697c64f8a7487e54916cddc46051199e7450ba195bbb909c3d",
          "transactionIndex": "0xce",
          "logIndex": "0x17b",
          "removed": false
        },
        {
          "address": "0x8999eac3df09a3f46099130a56c5cb1e9d79ba2a",
          "topics": [
            "0xddf252ad1be2c89b69c2b068fc378daa952ba7f163c4a11628f55a4df523b3ef",
            "0x000000000000000000000000f93e7518f79c2e1978d6862dbf161270040e623e",
            "0x000000000000000000000000e03a1074c86cfedd5c142c4f04f1a1536e203543"
          ],
          "data": "0x000000000000000000000000000000000000000000000008923b759559e0baac",
          "blockHash": "0x2edd517d07cb36c6592f2b7f3662d8ae24fa1fcf9026a85a44f6f5f47e2e817e",
          "blockNumber": "0xa936b4",
          "blockTimestamp": "0x6a345aac",
          "transactionHash": "0x933e848cf766c4697c64f8a7487e54916cddc46051199e7450ba195bbb909c3d",
          "transactionIndex": "0xce",
          "logIndex": "0x17c",
          "removed": false
        }
      ],
      "logsBloom": "0x00000000000000000000201000000000000000000000000000000000880000000000000000000040080000000000002000000100000000200000000000000000000000000000000000000008000000020000000000000000000000000000000000000000020000000000000080000800000000000000100400000810000000000000080001000000000210000000000000000000000000000000000000100001000004000000000000000000000000000000000000400000000000000000100000000002000000000000000000000000000000000000000000001000000020001000000000000000000000000010000004000000000000000000000000000000",
      "transactionHash": "0x933e848cf766c4697c64f8a7487e54916cddc46051199e7450ba195bbb909c3d",
      "transactionIndex": "0xce",
      "blockHash": "0x2edd517d07cb36c6592f2b7f3662d8ae24fa1fcf9026a85a44f6f5f47e2e817e",
      "blockNumber": "0xa936b4",
      "gasUsed": "0x44c36",
      "effectiveGasPrice": "0x41ade4f2",
      "from": "0xf93e7518f79c2e1978d6862dbf161270040e623e",
      "to": "0x429ba70129df741b2ca2a85bc3a2a3328e5c09b4",
      "contractAddress": null
    },
    {
      "type": "0x2",
      "status": "0x1",
      "cumulativeGasUsed": "0xf66bb6",
      "logs": [
        {
          "address": "0x9952d25eda1f305fcdb6ca9029520e33a7263ff8",
          "topics": [
            "0xeb18042c63a6494302e2e34ca89562fb59d5b25ded99d617905bdd7c4f891f03",
            "0x0000000000000000000000000000000000000000000000000000000000000001",
            "0x0000000000000000000000000000000000000000000000000000000000000001"
          ],
          "data": "0x00000000000000000000000000000000000000000000000000000016a1924c00",
          "blockHash": "0x5113443d947701f9fcb1c7683c63c3d0e2c7648764776a02f41d17f75e346ca8",
          "blockNumber": "0xa936b5",
          "blockTimestamp": "0x6a345ab8",
          "transactionHash": "0x094a924a1c3f387a2a70a3a3305256ed90c0b65c1217175a38d13dfa162e2ea4",
          "transactionIndex": "0xd4",
          "logIndex": "0xfb",
          "removed": false
        },
        {
          "address": "0xe03a1074c86cfedd5c142c4f04f1a1536e203543",
          "topics": [
            "0x40e9cecb9f5f1f1c5b9c97dec2917b7ee92e57ba5563708daca94dd84ad7112f",
            "0x81d74c428ad55494ca858ba05cc806c16a7c196832d4b9885b8dd3d05457654a",
            "0x00000000000000000000000000000000000044a361ae3cac094c9d1b14eece97"
          ],
          "data": "0xffffffffffffffffffffffffffffffffffffffffffffffffffffff2dcced3c00000000000000000000000000000000000000000000000000013fc34175ebe7d3000000000000000000000000000000000000013c382cf9f864c36598446927cb000000000000000000000000000000000000000000000001c4bb6279f24995a7000000000000000000000000000000000000000000000000000000000001c1be0000000000000000000000000000000000000000000000000000000000000bb8",
          "blockHash": "0x5113443d947701f9fcb1c7683c63c3d0e2c7648764776a02f41d17f75e346ca8",
          "blockNumber": "0xa936b5",
          "blockTimestamp": "0x6a345ab8",
          "transactionHash": "0x094a924a1c3f387a2a70a3a3305256ed90c0b65c1217175a38d13dfa162e2ea4",
          "transactionIndex": "0xd4",
          "logIndex": "0xfc",
          "removed": false
        },
        {
          "address": "0xe03a1074c86cfedd5c142c4f04f1a1536e203543",
          "topics": [
            "0x1b3d7edb2e9c0b0e7c525b20aaaef0f5940d2ed71663c7d39266ecafac728859",
            "0x0000000000000000000000000000000000000000000000000000000000000000",
            "0x0000000000000000000000009952d25eda1f305fcdb6ca9029520e33a7263ff8",
            "0x0000000000000000000000000000000000000000000000000000000000000000"
          ],
          "data": "0x0000000000000000000000009952d25eda1f305fcdb6ca9029520e33a7263ff800000000000000000000000000000000000000000000000000000016a1924c00",
          "blockHash": "0x5113443d947701f9fcb1c7683c63c3d0e2c7648764776a02f41d17f75e346ca8",
          "blockNumber": "0xa936b5",
          "blockTimestamp": "0x6a345ab8",
          "transactionHash": "0x094a924a1c3f387a2a70a3a3305256ed90c0b65c1217175a38d13dfa162e2ea4",
          "transactionIndex": "0xd4",
          "logIndex": "0xfd",
          "removed": false
        },
        {
          "address": "0x8999eac3df09a3f46099130a56c5cb1e9d79ba2a",
          "topics": [
            "0xddf252ad1be2c89b69c2b068fc378daa952ba7f163c4a11628f55a4df523b3ef",
            "0x000000000000000000000000e03a1074c86cfedd5c142c4f04f1a1536e203543",
            "0x000000000000000000000000f93e7518f79c2e1978d6862dbf161270040e623e"
          ],
          "data": "0x000000000000000000000000000000000000000000000000013fc34175ebe7d3",
          "blockHash": "0x5113443d947701f9fcb1c7683c63c3d0e2c7648764776a02f41d17f75e346ca8",
          "blockNumber": "0xa936b5",
          "blockTimestamp": "0x6a345ab8",
          "transactionHash": "0x094a924a1c3f387a2a70a3a3305256ed90c0b65c1217175a38d13dfa162e2ea4",
          "transactionIndex": "0xd4",
          "logIndex": "0xfe",
          "removed": false
        }
      ],
      "logsBloom": "0x00000000000000000000200000000000000000000000001000000000800000000000000000000000000000000000002000000100040000200000000040040000000000000000000000000008000004000000000000040020000000000000000000000000020100000000000080000800000000000000100400000010000040000000000000000000000010000000040000000000000000000000000000180001000002000000000000000000000020000000000000040000000000000000180000000002000000000000000000000000000000002000000000001000000060011000000000000000004000000010000000000000000000000000000004001000",
      "transactionHash": "0x094a924a1c3f387a2a70a3a3305256ed90c0b65c1217175a38d13dfa162e2ea4",
      "transactionIndex": "0xd4",
      "blockHash": "0x5113443d947701f9fcb1c7683c63c3d0e2c7648764776a02f41d17f75e346ca8",
      "blockNumber": "0xa936b5",
      "gasUsed": "0x296c1",
      "effectiveGasPrice": "0x420c141e",
      "from": "0xf93e7518f79c2e1978d6862dbf161270040e623e",
      "to": "0x00000000000044a361ae3cac094c9d1b14eece97",
      "contractAddress": null
    },
    {
      "type": "0x2",
      "status": "0x1",
      "cumulativeGasUsed": "0x9f0918",
      "logs": [
        {
          "address": "0xe03a1074c86cfedd5c142c4f04f1a1536e203543",
          "topics": [
            "0x1b3d7edb2e9c0b0e7c525b20aaaef0f5940d2ed71663c7d39266ecafac728859",
            "0x0000000000000000000000009952d25eda1f305fcdb6ca9029520e33a7263ff8",
            "0x0000000000000000000000000000000000000000000000000000000000000000",
            "0x0000000000000000000000000000000000000000000000000000000000000000"
          ],
          "data": "0x0000000000000000000000009952d25eda1f305fcdb6ca9029520e33a7263ff800000000000000000000000000000000000000000000000000000016a1924c00",
          "blockHash": "0x61897b8e5b1bb7fcdcc7b50a1aa8872a94d23be7384991a1dae86927bd737f33",
          "blockNumber": "0xa936b8",
          "blockTimestamp": "0x6a345adc",
          "transactionHash": "0x443ac9d0c995d6482cc892c0a266afa1a40ebc7ee4ee21b7e015f9c2ca060533",
          "transactionIndex": "0xa3",
          "logIndex": "0xe8",
          "removed": false
        },
        {
          "address": "0x55c6aedc9d5384f00aecd3515556a150e272168b",
          "topics": [
            "0x6c07ee05dcf262f13abf9d87b846ee789d2f90fe991d495acd7d7fc109ee1f55"
          ],
          "data": "0x000000000000000000000000000000000000000000000000000000121adb70000000000000000000000000000000000000000000000000000000000000093a80",
          "blockHash": "0x61897b8e5b1bb7fcdcc7b50a1aa8872a94d23be7384991a1dae86927bd737f33",
          "blockNumber": "0xa936b8",
          "blockTimestamp": "0x6a345adc",
          "transactionHash": "0x443ac9d0c995d6482cc892c0a266afa1a40ebc7ee4ee21b7e015f9c2ca060533",
          "transactionIndex": "0xa3",
          "logIndex": "0xe9",
          "removed": false
        },
        {
          "address": "0x9952d25eda1f305fcdb6ca9029520e33a7263ff8",
          "topics": [
            "0xda378dba4f1dc8c7a566c70096e0389c466cb99cc2ec74173afd50c7b652ca09"
          ],
          "data": "0x000000000000000000000000000000000000000000000000000000121adb70000000000000000000000000000000000000000000000000000000000486b6dc00",
          "blockHash": "0x61897b8e5b1bb7fcdcc7b50a1aa8872a94d23be7384991a1dae86927bd737f33",
          "blockNumber": "0xa936b8",
          "blockTimestamp": "0x6a345adc",
          "transactionHash": "0x443ac9d0c995d6482cc892c0a266afa1a40ebc7ee4ee21b7e015f9c2ca060533",
          "transactionIndex": "0xa3",
          "logIndex": "0xea",
          "removed": false
        }
      ],
      "logsBloom": "0x00000000000000000000000000000000000001000000000000000000000000000000000000000000000000000000000000000100000000000000000000000000000000000000000000000000000004000000200000000000000000000000000001000000020100000000000000000800000800000000100000000000000000000000000000000000000000000000040000000000000000000000000000000000000002000000000000000000000020000010000000040000000000000008080000000000000000000001000000000000020000002000000000000100000020001000000000000000000000000000000000000000000000000000000004000000",
      "transactionHash": "0x443ac9d0c995d6482cc892c0a266afa1a40ebc7ee4ee21b7e015f9c2ca060533",
      "transactionIndex": "0xa3",
      "blockHash": "0x61897b8e5b1bb7fcdcc7b50a1aa8872a94d23be7384991a1dae86927bd737f33",
      "blockNumber": "0xa936b8",
      "gasUsed": "0x1cede",
      "effectiveGasPrice": "0x3fb2ac22",
      "from": "0xf93e7518f79c2e1978d6862dbf161270040e623e",
      "to": "0x9952d25eda1f305fcdb6ca9029520e33a7263ff8",
      "contractAddress": null
    },
    {
      "type": "0x2",
      "status": "0x1",
      "cumulativeGasUsed": "0x98c2ef",
      "logs": [
        {
          "address": "0x9952d25eda1f305fcdb6ca9029520e33a7263ff8",
          "topics": [
            "0xeb18042c63a6494302e2e34ca89562fb59d5b25ded99d617905bdd7c4f891f03",
            "0x0000000000000000000000000000000000000000000000000000000000000000",
            "0x0000000000000000000000000000000000000000000000000000000000000000"
          ],
          "data": "0x0000000000000000000000000000000000000000000000000000c78b0b105000",
          "blockHash": "0xa180cda1a377dd619a70a646bf405616bea80dbf0e3157864172155c0d4130bc",
          "blockNumber": "0xa936bb",
          "blockTimestamp": "0x6a345b00",
          "transactionHash": "0xbd82f8eb29f104da6bb65ebf8bad6a4ec8ee1291873152830bc4f6d99a93db9d",
          "transactionIndex": "0xa3",
          "logIndex": "0xe6",
          "removed": false
        },
        {
          "address": "0xe03a1074c86cfedd5c142c4f04f1a1536e203543",
          "topics": [
            "0x40e9cecb9f5f1f1c5b9c97dec2917b7ee92e57ba5563708daca94dd84ad7112f",
            "0x81d74c428ad55494ca858ba05cc806c16a7c196832d4b9885b8dd3d05457654a",
            "0x00000000000000000000000000000000000044a361ae3cac094c9d1b14eece97"
          ],
          "data": "0x00000000000000000000000000000000000000000000000000000001cfe70645fffffffffffffffffffffffffffffffffffffffffffffffffffd3a0c6649d000000000000000000000000000000000000000013c382e8a3659a01fe5e5902991000000000000000000000000000000000000000000000001c4bb6279f24995a7000000000000000000000000000000000000000000000000000000000001c1be0000000000000000000000000000000000000000000000000000000000000bb8",
          "blockHash": "0xa180cda1a377dd619a70a646bf405616bea80dbf0e3157864172155c0d4130bc",
          "blockNumber": "0xa936bb",
          "blockTimestamp": "0x6a345b00",
          "transactionHash": "0xbd82f8eb29f104da6bb65ebf8bad6a4ec8ee1291873152830bc4f6d99a93db9d",
          "transactionIndex": "0xa3",
          "logIndex": "0xe7",
          "removed": false
        },
        {
          "address": "0xe03a1074c86cfedd5c142c4f04f1a1536e203543",
          "topics": [
            "0x1b3d7edb2e9c0b0e7c525b20aaaef0f5940d2ed71663c7d39266ecafac728859",
            "0x0000000000000000000000000000000000000000000000000000000000000000",
            "0x0000000000000000000000009952d25eda1f305fcdb6ca9029520e33a7263ff8",
            "0x0000000000000000000000008999eac3df09a3f46099130a56c5cb1e9d79ba2a"
          ],
          "data": "0x0000000000000000000000009952d25eda1f305fcdb6ca9029520e33a7263ff80000000000000000000000000000000000000000000000000000c78b0b105000",
          "blockHash": "0xa180cda1a377dd619a70a646bf405616bea80dbf0e3157864172155c0d4130bc",
          "blockNumber": "0xa936bb",
          "blockTimestamp": "0x6a345b00",
          "transactionHash": "0xbd82f8eb29f104da6bb65ebf8bad6a4ec8ee1291873152830bc4f6d99a93db9d",
          "transactionIndex": "0xa3",
          "logIndex": "0xe8",
          "removed": false
        },
        {
          "address": "0x8999eac3df09a3f46099130a56c5cb1e9d79ba2a",
          "topics": [
            "0xddf252ad1be2c89b69c2b068fc378daa952ba7f163c4a11628f55a4df523b3ef",
            "0x000000000000000000000000f93e7518f79c2e1978d6862dbf161270040e623e",
            "0x000000000000000000000000e03a1074c86cfedd5c142c4f04f1a1536e203543"
          ],
          "data": "0x00000000000000000000000000000000000000000000000000038d7ea4c68000",
          "blockHash": "0xa180cda1a377dd619a70a646bf405616bea80dbf0e3157864172155c0d4130bc",
          "blockNumber": "0xa936bb",
          "blockTimestamp": "0x6a345b00",
          "transactionHash": "0xbd82f8eb29f104da6bb65ebf8bad6a4ec8ee1291873152830bc4f6d99a93db9d",
          "transactionIndex": "0xa3",
          "logIndex": "0xe9",
          "removed": false
        }
      ],
      "logsBloom": "0x00000000000000000000200000000008000000000000001000000000800000000000000000000000000000001000002000000100040000200000000040000000000000000000000000000008000004000000000000000020000000000000000000000000020100000000000080000800000000000000100400000010000040000000000000000000000010000000040000000000000000000000000000180001000002000000000000000000000020000000000000040000000000000000180000000002000000000000000000000000000000002000000000001000000020011000000000000000004000000010000000000004000000000000000004001000",
      "transactionHash": "0xbd82f8eb29f104da6bb65ebf8bad6a4ec8ee1291873152830bc4f6d99a93db9d",
      "transactionIndex": "0xa3",
      "blockHash": "0xa180cda1a377dd619a70a646bf405616bea80dbf0e3157864172155c0d4130bc",
      "blockNumber": "0xa936bb",
      "gasUsed": "0x2bb57",
      "effectiveGasPrice": "0x3d7211e4",
      "from": "0xf93e7518f79c2e1978d6862dbf161270040e623e",
      "to": "0x00000000000044a361ae3cac094c9d1b14eece97",
      "contractAddress": null
    },
    {
      "type": "0x2",
      "status": "0x1",
      "cumulativeGasUsed": "0xf7cc97",
      "logs": [
        {
          "address": "0xe03a1074c86cfedd5c142c4f04f1a1536e203543",
          "topics": [
            "0x40e9cecb9f5f1f1c5b9c97dec2917b7ee92e57ba5563708daca94dd84ad7112f",
            "0x81d74c428ad55494ca858ba05cc806c16a7c196832d4b9885b8dd3d05457654a",
            "0x0000000000000000000000009952d25eda1f305fcdb6ca9029520e33a7263ff8"
          ],
          "data": "0x0000000000000000000000000000000000000000000000000000000082631a41ffffffffffffffffffffffffffffffffffffffffffffffffffff3874f4efb000000000000000000000000000000000000000013c382efab4e81b29b1779acc45000000000000000000000000000000000000000000000001c4bb6279f24995a7000000000000000000000000000000000000000000000000000000000001c1be0000000000000000000000000000000000000000000000000000000000000bb8",
          "blockHash": "0x41b188055791fb1b2adbe0d546fde1e446d1d3ac9db182eb65b4320192d5bc57",
          "blockNumber": "0xa936bc",
          "blockTimestamp": "0x6a345b0c",
          "transactionHash": "0x2e798c1ebe80fb040e29ce5d1494a5e16ec607e97bc11cbc1415e16cdcc9524d",
          "transactionIndex": "0xca",
          "logIndex": "0x195",
          "removed": false
        },
        {
          "address": "0xe03a1074c86cfedd5c142c4f04f1a1536e203543",
          "topics": [
            "0x1b3d7edb2e9c0b0e7c525b20aaaef0f5940d2ed71663c7d39266ecafac728859",
            "0x0000000000000000000000009952d25eda1f305fcdb6ca9029520e33a7263ff8",
            "0x0000000000000000000000000000000000000000000000000000000000000000",
            "0x0000000000000000000000008999eac3df09a3f46099130a56c5cb1e9d79ba2a"
          ],
          "data": "0x0000000000000000000000009952d25eda1f305fcdb6ca9029520e33a7263ff80000000000000000000000000000000000000000000000000000c78b0b105000",
          "blockHash": "0x41b188055791fb1b2adbe0d546fde1e446d1d3ac9db182eb65b4320192d5bc57",
          "blockNumber": "0xa936bc",
          "blockTimestamp": "0x6a345b0c",
          "transactionHash": "0x2e798c1ebe80fb040e29ce5d1494a5e16ec607e97bc11cbc1415e16cdcc9524d",
          "transactionIndex": "0xca",
          "logIndex": "0x196",
          "removed": false
        },
        {
          "address": "0x55c6aedc9d5384f00aecd3515556a150e272168b",
          "topics": [
            "0x6c07ee05dcf262f13abf9d87b846ee789d2f90fe991d495acd7d7fc109ee1f55"
          ],
          "data": "0x00000000000000000000000000000000000000000000000000000000684f48340000000000000000000000000000000000000000000000000000000000093a80",
          "blockHash": "0x41b188055791fb1b2adbe0d546fde1e446d1d3ac9db182eb65b4320192d5bc57",
          "blockNumber": "0xa936bc",
          "blockTimestamp": "0x6a345b0c",
          "transactionHash": "0x2e798c1ebe80fb040e29ce5d1494a5e16ec607e97bc11cbc1415e16cdcc9524d",
          "transactionIndex": "0xca",
          "logIndex": "0x197",
          "removed": false
        },
        {
          "address": "0x9952d25eda1f305fcdb6ca9029520e33a7263ff8",
          "topics": [
            "0xda378dba4f1dc8c7a566c70096e0389c466cb99cc2ec74173afd50c7b652ca09"
          ],
          "data": "0x00000000000000000000000000000000000000000000000000000000684f4834000000000000000000000000000000000000000000000000000000001a13d20d",
          "blockHash": "0x41b188055791fb1b2adbe0d546fde1e446d1d3ac9db182eb65b4320192d5bc57",
          "blockNumber": "0xa936bc",
          "blockTimestamp": "0x6a345b0c",
          "transactionHash": "0x2e798c1ebe80fb040e29ce5d1494a5e16ec607e97bc11cbc1415e16cdcc9524d",
          "transactionIndex": "0xca",
          "logIndex": "0x198",
          "removed": false
        }
      ],
      "logsBloom": "0x00000000000000000000200000000008000001000000000000000000000000000000000000000000000000001000002000000100040000000000000000000000000000000000000000000000000004000000200000000020000000000000000001000000020100000000000000000800000800000000100000000000000000000000000000000000000000000000040000000000000000000000000000000000000002000000000000000000000020000010000000040000000000000008080000000000000000000001000000000000020000002000000000000100000020001000000000000000004000000010000000000004000000000000000004000000",
      "transactionHash": "0x2e798c1ebe80fb040e29ce5d1494a5e16ec607e97bc11cbc1415e16cdcc9524d",
      "transactionIndex": "0xca",
      "blockHash": "0x41b188055791fb1b2adbe0d546fde1e446d1d3ac9db182eb65b4320192d5bc57",
      "blockNumber": "0xa936bc",
      "gasUsed": "0x26096",
      "effectiveGasPrice": "0x3bd8d178",
      "from": "0xf93e7518f79c2e1978d6862dbf161270040e623e",
      "to": "0x9952d25eda1f305fcdb6ca9029520e33a7263ff8",
      "contractAddress": null
    },
    {
      "type": "0x2",
      "status": "0x1",
      "cumulativeGasUsed": "0x159d9b0",
      "logs": [
        {
          "address": "0x8999eac3df09a3f46099130a56c5cb1e9d79ba2a",
          "topics": [
            "0x9e71bc8eea02a63969f509818f2dafb9254532904319f9dbda79b67bd34a5f3d",
            "0x000000000000000000000000f93e7518f79c2e1978d6862dbf161270040e623e"
          ],
          "data": "0x0000000000000000000000000000000000000000000000056bc75e2d63100000",
          "blockHash": "0xf72f034f0d62b4734b400d6747c1c5f9c7a8499ce1080df99327e3b964e170c4",
          "blockNumber": "0xa936be",
          "blockTimestamp": "0x6a345b24",
          "transactionHash": "0x93566dfcbdb6957457db17547b49f64545f057b0fb4dc9d761603e43ecb32013",
          "transactionIndex": "0xcd",
          "logIndex": "0x583",
          "removed": false
        },
        {
          "address": "0x55c6aedc9d5384f00aecd3515556a150e272168b",
          "topics": [
            "0x1449c6dd7851abc30abf37f57715f492010519147cc2652fbc38202c18a6ee90",
            "0x000000000000000000000000f93e7518f79c2e1978d6862dbf161270040e623e"
          ],
          "data": "0x0000000000000000000000000000000000000000000000056bc75e2d6310000000000000000000000000000000000000000000000000000ad78ebc5ac6200000",
          "blockHash": "0xf72f034f0d62b4734b400d6747c1c5f9c7a8499ce1080df99327e3b964e170c4",
          "blockNumber": "0xa936be",
          "blockTimestamp": "0x6a345b24",
          "transactionHash": "0x93566dfcbdb6957457db17547b49f64545f057b0fb4dc9d761603e43ecb32013",
          "transactionIndex": "0xcd",
          "logIndex": "0x584",
          "removed": false
        }
      ],
      "logsBloom": "0x00000000000000000000000000000000000001000800000000100000800200000000000000000000000000000000000000000000000000200000000000000000000000000000000000000000000000000000000000000000000000000000000040000000000000000008000000000000000000000000000400000000000000000000100000000000000000000000000000000000000000000000000000100001000000000000000000000000000000000010000000000000000000000000100000000000000000000000000000000000020000000000000000000000000000000000000000000000000000000000000000000000000000000000000000000000",
      "transactionHash": "0x93566dfcbdb6957457db17547b49f64545f057b0fb4dc9d761603e43ecb32013",
      "transactionIndex": "0xcd",
      "blockHash": "0xf72f034f0d62b4734b400d6747c1c5f9c7a8499ce1080df99327e3b964e170c4",
      "blockNumber": "0xa936be",
      "gasUsed": "0x23137",
      "effectiveGasPrice": "0x41f2896d",
      "from": "0xf93e7518f79c2e1978d6862dbf161270040e623e",
      "to": "0x55c6aedc9d5384f00aecd3515556a150e272168b",
      "contractAddress": null
    },
    {
      "type": "0x2",
      "status": "0x1",
      "cumulativeGasUsed": "0xc43850",
      "logs": [
        {
          "address": "0x9952d25eda1f305fcdb6ca9029520e33a7263ff8",
          "topics": [
            "0xeb18042c63a6494302e2e34ca89562fb59d5b25ded99d617905bdd7c4f891f03",
            "0x0000000000000000000000000000000000000000000000000000000000000001",
            "0x0000000000000000000000000000000000000000000000000000000000000001"
          ],
          "data": "0x0000000000000000000000000000000000000000000000000000001695a68a00",
          "blockHash": "0xfa97d1432916b38bbfdd21b40af225c9f9e57ca9e38792bbadf18ef0deeb3d56",
          "blockNumber": "0xa936bf",
          "blockTimestamp": "0x6a345b30",
          "transactionHash": "0xe99c36d4219506de7f01c4a6e7af136fbd9c5560ed274aadb02dc9df8efb56ed",
          "transactionIndex": "0xb2",
          "logIndex": "0x168",
          "removed": false
        },
        {
          "address": "0xe03a1074c86cfedd5c142c4f04f1a1536e203543",
          "topics": [
            "0x40e9cecb9f5f1f1c5b9c97dec2917b7ee92e57ba5563708daca94dd84ad7112f",
            "0x81d74c428ad55494ca858ba05cc806c16a7c196832d4b9885b8dd3d05457654a",
            "0x00000000000000000000000000000000000044a361ae3cac094c9d1b14eece97"
          ],
          "data": "0xffffffffffffffffffffffffffffffffffffffffffffffffffffff2dc1017a00000000000000000000000000000000000000000000000000013fd3fa290e7a5b000000000000000000000000000000000000013c377a217223074771fc825b90000000000000000000000000000000000000000000000001c4bb6279f24995a7000000000000000000000000000000000000000000000000000000000001c1be0000000000000000000000000000000000000000000000000000000000000bb8",
          "blockHash": "0xfa97d1432916b38bbfdd21b40af225c9f9e57ca9e38792bbadf18ef0deeb3d56",
          "blockNumber": "0xa936bf",
          "blockTimestamp": "0x6a345b30",
          "transactionHash": "0xe99c36d4219506de7f01c4a6e7af136fbd9c5560ed274aadb02dc9df8efb56ed",
          "transactionIndex": "0xb2",
          "logIndex": "0x169",
          "removed": false
        },
        {
          "address": "0xe03a1074c86cfedd5c142c4f04f1a1536e203543",
          "topics": [
            "0x1b3d7edb2e9c0b0e7c525b20aaaef0f5940d2ed71663c7d39266ecafac728859",
            "0x0000000000000000000000000000000000000000000000000000000000000000",
            "0x0000000000000000000000009952d25eda1f305fcdb6ca9029520e33a7263ff8",
            "0x0000000000000000000000000000000000000000000000000000000000000000"
          ],
          "data": "0x0000000000000000000000009952d25eda1f305fcdb6ca9029520e33a7263ff80000000000000000000000000000000000000000000000000000001695a68a00",
          "blockHash": "0xfa97d1432916b38bbfdd21b40af225c9f9e57ca9e38792bbadf18ef0deeb3d56",
          "blockNumber": "0xa936bf",
          "blockTimestamp": "0x6a345b30",
          "transactionHash": "0xe99c36d4219506de7f01c4a6e7af136fbd9c5560ed274aadb02dc9df8efb56ed",
          "transactionIndex": "0xb2",
          "logIndex": "0x16a",
          "removed": false
        },
        {
          "address": "0x8999eac3df09a3f46099130a56c5cb1e9d79ba2a",
          "topics": [
            "0xddf252ad1be2c89b69c2b068fc378daa952ba7f163c4a11628f55a4df523b3ef",
            "0x000000000000000000000000e03a1074c86cfedd5c142c4f04f1a1536e203543",
            "0x000000000000000000000000f93e7518f79c2e1978d6862dbf161270040e623e"
          ],
          "data": "0x000000000000000000000000000000000000000000000000013fd3fa290e7a5b",
          "blockHash": "0xfa97d1432916b38bbfdd21b40af225c9f9e57ca9e38792bbadf18ef0deeb3d56",
          "blockNumber": "0xa936bf",
          "blockTimestamp": "0x6a345b30",
          "transactionHash": "0xe99c36d4219506de7f01c4a6e7af136fbd9c5560ed274aadb02dc9df8efb56ed",
          "transactionIndex": "0xb2",
          "logIndex": "0x16b",
          "removed": false
        }
      ],
      "logsBloom": "0x00000000000000000000200000000000000000000000001000000000800000000000000000000000000000000000002000000100040000200000000040040000000000000000000000000008000004000000000000040020000000000000000000000000020100000000000080000800000000000000100400000010000040000000000000000000000010000000040000000000000000000000000000180001000002000000000000000000000020000000000000040000000000000000180000000002000000000000000000000000000000002000000000001000000060011000000000000000004000000010000000000000000000000000000004001000",
      "transactionHash": "0xe99c36d4219506de7f01c4a6e7af136fbd9c5560ed274aadb02dc9df8efb56ed",
      "transactionIndex": "0xb2",
      "blockHash": "0xfa97d1432916b38bbfdd21b40af225c9f9e57ca9e38792bbadf18ef0deeb3d56",
      "blockNumber": "0xa936bf",
      "gasUsed": "0x2e47d",
      "effectiveGasPrice": "0x4100cb04",
      "from": "0xf93e7518f79c2e1978d6862dbf161270040e623e",
      "to": "0x00000000000044a361ae3cac094c9d1b14eece97",
      "contractAddress": null
    },
    {
      "type": "0x2",
      "status": "0x1",
      "cumulativeGasUsed": "0x1d6638d",
      "logs": [
        {
          "address": "0xe03a1074c86cfedd5c142c4f04f1a1536e203543",
          "topics": [
            "0x1b3d7edb2e9c0b0e7c525b20aaaef0f5940d2ed71663c7d39266ecafac728859",
            "0x0000000000000000000000009952d25eda1f305fcdb6ca9029520e33a7263ff8",
            "0x0000000000000000000000000000000000000000000000000000000000000000",
            "0x0000000000000000000000000000000000000000000000000000000000000000"
          ],
          "data": "0x0000000000000000000000009952d25eda1f305fcdb6ca9029520e33a7263ff80000000000000000000000000000000000000000000000000000001695a68a00",
          "blockHash": "0xaf161e3a259ae22954017401ad893f96f1f517d01632ac826ffde960729aec11",
          "blockNumber": "0xa936c0",
          "blockTimestamp": "0x6a345b3c",
          "transactionHash": "0x23b34487ed0e0c0c5a1d31674186afb7d47054b683d426d0d534902e812bccd0",
          "transactionIndex": "0x113",
          "logIndex": "0x627",
          "removed": false
        },
        {
          "address": "0x55c6aedc9d5384f00aecd3515556a150e272168b",
          "topics": [
            "0x6c07ee05dcf262f13abf9d87b846ee789d2f90fe991d495acd7d7fc109ee1f55"
          ],
          "data": "0x00000000000000000000000000000000000000000000000000000012115208000000000000000000000000000000000000000000000000000000000000093a80",
          "blockHash": "0xaf161e3a259ae22954017401ad893f96f1f517d01632ac826ffde960729aec11",
          "blockNumber": "0xa936c0",
          "blockTimestamp": "0x6a345b3c",
          "transactionHash": "0x23b34487ed0e0c0c5a1d31674186afb7d47054b683d426d0d534902e812bccd0",
          "transactionIndex": "0x113",
          "logIndex": "0x628",
          "removed": false
        },
        {
          "address": "0x9952d25eda1f305fcdb6ca9029520e33a7263ff8",
          "topics": [
            "0xda378dba4f1dc8c7a566c70096e0389c466cb99cc2ec74173afd50c7b652ca09"
          ],
          "data": "0x00000000000000000000000000000000000000000000000000000012115208000000000000000000000000000000000000000000000000000000000484548200",
          "blockHash": "0xaf161e3a259ae22954017401ad893f96f1f517d01632ac826ffde960729aec11",
          "blockNumber": "0xa936c0",
          "blockTimestamp": "0x6a345b3c",
          "transactionHash": "0x23b34487ed0e0c0c5a1d31674186afb7d47054b683d426d0d534902e812bccd0",
          "transactionIndex": "0x113",
          "logIndex": "0x629",
          "removed": false
        }
      ],
      "logsBloom": "0x00000000000000000000000000000000000001000000000000000000000000000000000000000000000000000000000000000100000000000000000000000000000000000000000000000000000004000000200000000000000000000000000001000000020100000000000000000800000800000000100000000000000000000000000000000000000000000000040000000000000000000000000000000000000002000000000000000000000020000010000000040000000000000008080000000000000000000001000000000000020000002000000000000100000020001000000000000000000000000000000000000000000000000000000004000000",
      "transactionHash": "0x23b34487ed0e0c0c5a1d31674186afb7d47054b683d426d0d534902e812bccd0",
      "transactionIndex": "0x113",
      "blockHash": "0xaf161e3a259ae22954017401ad893f96f1f517d01632ac826ffde960729aec11",
      "blockNumber": "0xa936c0",
      "gasUsed": "0x1cede",
      "effectiveGasPrice": "0x3f896fef",
      "from": "0xf93e7518f79c2e1978d6862dbf161270040e623e",
      "to": "0x9952d25eda1f305fcdb6ca9029520e33a7263ff8",
      "contractAddress": null
    },
    {
      "type": "0x2",
      "status": "0x1",
      "cumulativeGasUsed": "0x9eea1c",
      "logs": [
        {
          "address": "0x55c6aedc9d5384f00aecd3515556a150e272168b",
          "topics": [
            "0xe2403640ba68fed3a2f88b7557551d1993f84b99bb10ff833f0cf8db0c5e0486",
            "0x000000000000000000000000f93e7518f79c2e1978d6862dbf161270040e623e"
          ],
          "data": "0x00000000000000000000000000000000000000000000000000000000072f6140",
          "blockHash": "0xf9ab3897d87b103b5da7c3c3923bcb17c1b897840053a47cee32dcdc7a12180e",
          "blockNumber": "0xa936c1",
          "blockTimestamp": "0x6a345b48",
          "transactionHash": "0x08e68d330bed0c0714961db3263a03eece685bf370c194bde7ed6c50dd203ef5",
          "transactionIndex": "0xa2",
          "logIndex": "0x10b",
          "removed": false
        }
      ],
      "logsBloom": "0x00000000000000000000000000000000000001008000000000000000800000000000000000000000000000000000000000000000000000200000000000000000000000000000000000000000000000000000000000000000000000000000000000000000000000000000000000000000000000000000000000000000000000000000000100000000000000000800000000000000000000000000000000100000000000000000000000000000000000000010000000000000000000000000000000000000000000000000000000000000020000000000000000000000000000000000000000000000000000000000000000000000000000000000000000000000",
      "transactionHash": "0x08e68d330bed0c0714961db3263a03eece685bf370c194bde7ed6c50dd203ef5",
      "transactionIndex": "0xa2",
      "blockHash": "0xf9ab3897d87b103b5da7c3c3923bcb17c1b897840053a47cee32dcdc7a12180e",
      "blockNumber": "0xa936c1",
      "gasUsed": "0xe4ef",
      "effectiveGasPrice": "0x3fc5208b",
      "from": "0xf93e7518f79c2e1978d6862dbf161270040e623e",
      "to": "0x55c6aedc9d5384f00aecd3515556a150e272168b",
      "contractAddress": null
    },
    {
      "type": "0x2",
      "status": "0x1",
      "cumulativeGasUsed": "0x390c34c",
      "logs": [
        {
          "address": "0x8999eac3df09a3f46099130a56c5cb1e9d79ba2a",
          "topics": [
            "0xddf252ad1be2c89b69c2b068fc378daa952ba7f163c4a11628f55a4df523b3ef",
            "0x000000000000000000000000f93e7518f79c2e1978d6862dbf161270040e623e",
            "0x0000000000000000000000000000000000000000000000000000000000000000"
          ],
          "data": "0x00000000000000000000000000000000000000000000021e19e0c9bab2400000",
          "blockHash": "0x481abc238234178109567f059716f63d8baf5d986d8c08264820da2d85984526",
          "blockNumber": "0xa936c2",
          "blockTimestamp": "0x6a345b54",
          "transactionHash": "0xee0d644fa870db8c203cc47bcf378e77a07d4d616355123ec5ec58d5b996d5b4",
          "transactionIndex": "0xd3",
          "logIndex": "0x158",
          "removed": false
        },
        {
          "address": "0x66e59002c557ec646dd81a9451f19a0332c61d0d",
          "topics": [
            "0xddf252ad1be2c89b69c2b068fc378daa952ba7f163c4a11628f55a4df523b3ef",
            "0x0000000000000000000000000000000000000000000000000000000000000000",
            "0x000000000000000000000000f93e7518f79c2e1978d6862dbf161270040e623e",
            "0x0000000000000000000000000000000000000000000000000000000000000001"
          ],
          "data": "0x",
          "blockHash": "0x481abc238234178109567f059716f63d8baf5d986d8c08264820da2d85984526",
          "blockNumber": "0xa936c2",
          "blockTimestamp": "0x6a345b54",
          "transactionHash": "0xee0d644fa870db8c203cc47bcf378e77a07d4d616355123ec5ec58d5b996d5b4",
          "transactionIndex": "0xd3",
          "logIndex": "0x159",
          "removed": false
        },
        {
          "address": "0x55c6aedc9d5384f00aecd3515556a150e272168b",
          "topics": [
            "0xe2403640ba68fed3a2f88b7557551d1993f84b99bb10ff833f0cf8db0c5e0486",
            "0x000000000000000000000000f93e7518f79c2e1978d6862dbf161270040e623e"
          ],
          "data": "0x00000000000000000000000000000000000000000000000000000000005f50c8",
          "blockHash": "0x481abc238234178109567f059716f63d8baf5d986d8c08264820da2d85984526",
          "blockNumber": "0xa936c2",
          "blockTimestamp": "0x6a345b54",
          "transactionHash": "0xee0d644fa870db8c203cc47bcf378e77a07d4d616355123ec5ec58d5b996d5b4",
          "transactionIndex": "0xd3",
          "logIndex": "0x15a",
          "removed": false
        },
        {
          "address": "0x66e59002c557ec646dd81a9451f19a0332c61d0d",
          "topics": [
            "0xb777c4047eece94c0532443cd79bae696825d7bcc0de9d0acffe551bb875c3ec",
            "0x000000000000000000000000f93e7518f79c2e1978d6862dbf161270040e623e",
            "0x0000000000000000000000000000000000000000000000000000000000000001"
          ],
          "data": "0x000000000000000000000000000000000000000000000000000000000000000000000000000000000000000000000000000000000000021e19e0c9bab2400000",
          "blockHash": "0x481abc238234178109567f059716f63d8baf5d986d8c08264820da2d85984526",
          "blockNumber": "0xa936c2",
          "blockTimestamp": "0x6a345b54",
          "transactionHash": "0xee0d644fa870db8c203cc47bcf378e77a07d4d616355123ec5ec58d5b996d5b4",
          "transactionIndex": "0xd3",
          "logIndex": "0x15b",
          "removed": false
        }
      ],
      "logsBloom": "0x00000000000000000000000000000000000001008000000000000000800000000000000000000000000000000080000000000000000000200000000000040000000000000000000000000008000000400000000000040000000000000000000000000000020000000000000000000800000200000000000400000010000000000000000100000000000000000800000000000000000000000000000000100001000000000000000000000000000000000010000000000000000000000000100000000002000000000000000000000000020000000000000000000000000060200000000000000000000000000800000000000000000000000000100000000000",
      "transactionHash": "0xee0d644fa870db8c203cc47bcf378e77a07d4d616355123ec5ec58d5b996d5b4",
      "transactionIndex": "0xd3",
      "blockHash": "0x481abc238234178109567f059716f63d8baf5d986d8c08264820da2d85984526",
      "blockNumber": "0xa936c2",
      "gasUsed": "0x35e7d",
      "effectiveGasPrice": "0x3b615a56",
      "from": "0xf93e7518f79c2e1978d6862dbf161270040e623e",
      "to": "0x8999eac3df09a3f46099130a56c5cb1e9d79ba2a",
      "contractAddress": null
    }
  ],
  "libraries": [],
  "pending": [],
  "returns": {},
  "timestamp": 1781816164428,
  "chain": 11155111,
  "commit": "2572d96"
}