{
  "transactions": [
    {
      "hash": "0xf7079282c6ed100f83afbba95f809906bb2b07c5c5ed29700adaab3693c525bf",
      "transactionType": "CALL",
      "contractName": null,
      "contractAddress": "0x8999eac3df09a3f46099130a56c5cb1e9d79ba2a",
      "function": "approve(address,uint256)",
      "arguments": [
        "0x000000000022D473030F116dDEE9F6B43aC78BA3",
        "115792089237316195423570985008687907853269984665640564039457584007913129639935"
      ],
      "transaction": {
        "from": "0xf93e7518f79c2e1978d6862dbf161270040e623e",
        "to": "0x8999eac3df09a3f46099130a56c5cb1e9d79ba2a",
        "gas": "0x9681",
        "value": "0x0",
        "input": "0x095ea7b3000000000000000000000000000000000022d473030f116ddee9f6b43ac78ba3ffffffffffffffffffffffffffffffffffffffffffffffffffffffffffffffff",
        "nonce": "0x4e8",
        "chainId": "0xaa36a7"
      },
      "additionalContracts": [],
      "isFixedGasLimit": false
    },
    {
      "hash": "0xbf5fea8a30dd69d192316ca85e174c2f46499e658fe5d9bbc16d375c49a6702e",
      "transactionType": "CALL",
      "contractName": null,
      "contractAddress": "0x000000000022d473030f116ddee9f6b43ac78ba3",
      "function": "approve(address,address,uint160,uint48)",
      "arguments": [
        "0x8999Eac3Df09a3f46099130a56c5CB1e9D79bA2a",
        "0x429ba70129df741B2Ca2a85BC3A2a3328e5c09b4",
        "1461501637330902918203684832716283019655932542975",
        "1781903244"
      ],
      "transaction": {
        "from": "0xf93e7518f79c2e1978d6862dbf161270040e623e",
        "to": "0x000000000022d473030f116ddee9f6b43ac78ba3",
        "gas": "0xa59b",
        "value": "0x0",
        "input": "0x87517c450000000000000000000000008999eac3df09a3f46099130a56c5cb1e9d79ba2a000000000000000000000000429ba70129df741b2ca2a85bc3a2a3328e5c09b4000000000000000000000000ffffffffffffffffffffffffffffffffffffffff000000000000000000000000000000000000000000000000000000006a35af8c",
        "nonce": "0x4e9",
        "chainId": "0xaa36a7"
      },
      "additionalContracts": [],
      "isFixedGasLimit": false
    },
    {
      "hash": "0x01d51a138a07dbad9d4fc4aad17e372165edec7aec76ba8b9e0b19bbff698296",
      "transactionType": "CALL",
      "contractName": null,
      "contractAddress": "0x000000000022d473030f116ddee9f6b43ac78ba3",
      "function": "approve(address,address,uint160,uint48)",
      "arguments": [
        "0x8999Eac3Df09a3f46099130a56c5CB1e9D79bA2a",
        "0x00000000000044a361Ae3cAc094c9D1b14Eece97",
        "1461501637330902918203684832716283019655932542975",
        "1781903244"
      ],
      "transaction": {
        "from": "0xf93e7518f79c2e1978d6862dbf161270040e623e",
        "to": "0x000000000022d473030f116ddee9f6b43ac78ba3",
        "gas": "0xa537",
        "value": "0x0",
        "input": "0x87517c450000000000000000000000008999eac3df09a3f46099130a56c5cb1e9d79ba2a00000000000000000000000000000000000044a361ae3cac094c9d1b14eece97000000000000000000000000ffffffffffffffffffffffffffffffffffffffff000000000000000000000000000000000000000000000000000000006a35af8c",
        "nonce": "0x4ea",
        "chainId": "0xaa36a7"
      },
      "additionalContracts": [],
      "isFixedGasLimit": false
    },
    {
      "hash": "0x70e7673f2b4cdd5810abd71542bf317d8ff9d833f4598049bdfb18592d45c34a",
      "transactionType": "CALL",
      "contractName": null,
      "contractAddress": "0x8999eac3df09a3f46099130a56c5cb1e9d79ba2a",
      "function": "approve(address,uint256)",
      "arguments": [
        "0x00000000000044a361Ae3cAc094c9D1b14Eece97",
        "115792089237316195423570985008687907853269984665640564039457584007913129639935"
      ],
      "transaction": {
        "from": "0xf93e7518f79c2e1978d6862dbf161270040e623e",
        "to": "0x8999eac3df09a3f46099130a56c5cb1e9d79ba2a",
        "gas": "0x8e13",
        "value": "0x0",
        "input": "0x095ea7b300000000000000000000000000000000000044a361ae3cac094c9d1b14eece97ffffffffffffffffffffffffffffffffffffffffffffffffffffffffffffffff",
        "nonce": "0x4eb",
        "chainId": "0xaa36a7"
      },
      "additionalContracts": [],
      "isFixedGasLimit": false
    },
    {
      "hash": "0xddf28803e28add35da02aa04636e5d7ad353b4147fc574fee1674f7ae521d922",
      "transactionType": "CALL",
      "contractName": null,
      "contractAddress": "0x8999eac3df09a3f46099130a56c5cb1e9d79ba2a",
      "function": "approve(address,uint256)",
      "arguments": [
        "0x55C6aeDC9d5384F00aEcd3515556A150e272168B",
        "115792089237316195423570985008687907853269984665640564039457584007913129639935"
      ],
      "transaction": {
        "from": "0xf93e7518f79c2e1978d6862dbf161270040e623e",
        "to": "0x8999eac3df09a3f46099130a56c5cb1e9d79ba2a",
        "gas": "0x8e77",
        "value": "0x0",
        "input": "0x095ea7b300000000000000000000000055c6aedc9d5384f00aecd3515556a150e272168bffffffffffffffffffffffffffffffffffffffffffffffffffffffffffffffff",
        "nonce": "0x4ec",
        "chainId": "0xaa36a7"
      },
      "additionalContracts": [],
      "isFixedGasLimit": false
    },
    {
      "hash": "0x025e97d92c7a72dadea6aa2266045328487efaa2e3718fb1470a55df303793d7",
      "transactionType": "CALL",
      "contractName": null,
      "contractAddress": "0x429ba70129df741b2ca2a85bc3a2a3328e5c09b4",
      "function": "modifyLiquidities(bytes,uint256)",
      "arguments": [
        "0x000000000000000000000000000000000000000000000000000000000000004000000000000000000000000000000000000000000000000000000000000000800000000000000000000000000000000000000000000000000000000000000002020d00000000000000000000000000000000000000000000000000000000000000000000000000000000000000000000000000000000000000000000000000020000000000000000000000000000000000000000000000000000000000000040000000000000000000000000000000000000000000000000000000000000020000000000000000000000000000000000000000000000000000000000000001a000000000000000000000000000000000000000000000000000000000000000000000000000000000000000008999eac3df09a3f46099130a56c5cb1e9d79ba2a0000000000000000000000000000000000000000000000000000000000000bb8000000000000000000000000000000000000000000000000000000000000003c0000000000000000000000009952d25eda1f305fcdb6ca9029520e33a7263ff8fffffffffffffffffffffffffffffffffffffffffffffffffffffffffff2764c00000000000000000000000000000000000000000000000000000000000d89b400000000000000000000000000000000000000000000000006f05b59d3b2000000000000000000000000000000000000ffffffffffffffffffffffffffffffff00000000000000000000000000000000ffffffffffffffffffffffffffffffff000000000000000000000000f93e7518f79c2e1978d6862dbf161270040e623e00000000000000000000000000000000000000000000000000000000000001800000000000000000000000000000000000000000000000000000000000000000000000000000000000000000000000000000000000000000000000000000004000000000000000000000000000000000000000000000000000000000000000000000000000000000000000008999eac3df09a3f46099130a56c5cb1e9d79ba2a",
        "115792089237316195423570985008687907853269984665640564039457584007913129639935"
      ],
      "transaction": {
        "from": "0xf93e7518f79c2e1978d6862dbf161270040e623e",
        "to": "0x429ba70129df741b2ca2a85bc3a2a3328e5c09b4",
        "gas": "0x5efaa",
        "value": "0x11c37937e08000",
        "input": "0xdd46508f0000000000000000000000000000000000000000000000000000000000000040ffffffffffffffffffffffffffffffffffffffffffffffffffffffffffffffff0000000000000000000000000000000000000000000000000000000000000300000000000000000000000000000000000000000000000000000000000000004000000000000000000000000000000000000000000000000000000000000000800000000000000000000000000000000000000000000000000000000000000002020d00000000000000000000000000000000000000000000000000000000000000000000000000000000000000000000000000000000000000000000000000020000000000000000000000000000000000000000000000000000000000000040000000000000000000000000000000000000000000000000000000000000020000000000000000000000000000000000000000000000000000000000000001a000000000000000000000000000000000000000000000000000000000000000000000000000000000000000008999eac3df09a3f46099130a56c5cb1e9d79ba2a0000000000000000000000000000000000000000000000000000000000000bb8000000000000000000000000000000000000000000000000000000000000003c0000000000000000000000009952d25eda1f305fcdb6ca9029520e33a7263ff8fffffffffffffffffffffffffffffffffffffffffffffffffffffffffff2764c00000000000000000000000000000000000000000000000000000000000d89b400000000000000000000000000000000000000000000000006f05b59d3b2000000000000000000000000000000000000ffffffffffffffffffffffffffffffff00000000000000000000000000000000ffffffffffffffffffffffffffffffff000000000000000000000000f93e7518f79c2e1978d6862dbf161270040e623e00000000000000000000000000000000000000000000000000000000000001800000000000000000000000000000000000000000000000000000000000000000000000000000000000000000000000000000000000000000000000000000004000000000000000000000000000000000000000000000000000000000000000000000000000000000000000008999eac3df09a3f46099130a56c5cb1e9d79ba2a",
        "nonce": "0x4ed",
        "chainId": "0xaa36a7"
      },
      "additionalContracts": [],
      "isFixedGasLimit": false
    },
    {
      "hash": "0xd5bd7520640f26d291742fa32de6e13c8a65cafc63bee5bb3c59a631f048fa5e",
      "transactionType": "CALL",
      "contractName": null,
      "contractAddress": "0x00000000000044a361ae3cac094c9d1b14eece97",
      "function": "swapExactTokensForTokens(uint256,uint256,bool,(address,address,uint24,int24,address),bytes,address,uint256)",
      "arguments": [
        "1000000000000",
        "0",
        "true",
        "(0x0000000000000000000000000000000000000000, 0x8999Eac3Df09a3f46099130a56c5CB1e9D79bA2a, 3000, 60, 0x9952d25eDA1f305fcDb6Ca9029520e33A7263Ff8)",
        "0x",
        "0xF93E7518F79C2E1978D6862Dbf161270040e623E",
        "115792089237316195423570985008687907853269984665640564039457584007913129639935"
      ],
      "transaction": {
        "from": "0xf93e7518f79c2e1978d6862dbf161270040e623e",
        "to": "0x00000000000044a361ae3cac094c9d1b14eece97",
        "gas": "0x3c946",
        "value": "0xe8d4a51000",
        "input": "0xb1a0d571000000000000000000000000000000000000000000000000000000e8d4a510000000000000000000000000000000000000000000000000000000000000000000000000000000000000000000000000000000000000000000000000000000000100000000000000000000000000000000000000000000000000000000000000000000000000000000000000008999eac3df09a3f46099130a56c5cb1e9d79ba2a0000000000000000000000000000000000000000000000000000000000000bb8000000000000000000000000000000000000000000000000000000000000003c0000000000000000000000009952d25eda1f305fcdb6ca9029520e33a7263ff80000000000000000000000000000000000000000000000000000000000000160000000000000000000000000f93e7518f79c2e1978d6862dbf161270040e623effffffffffffffffffffffffffffffffffffffffffffffffffffffffffffffff0000000000000000000000000000000000000000000000000000000000000000",
        "nonce": "0x4ee",
        "chainId": "0xaa36a7"
      },
      "additionalContracts": [],
      "isFixedGasLimit": false
    },
    {
      "hash": "0x14cec19dabc810849770ba22e380e895bfbabcdf55d048596f85cb59f41d982c",
      "transactionType": "CALL",
      "contractName": null,
      "contractAddress": "0x9952d25eda1f305fcdb6ca9029520e33a7263ff8",
      "function": "claimFees(bool)",
      "arguments": [
        "true"
      ],
      "transaction": {
        "from": "0xf93e7518f79c2e1978d6862dbf161270040e623e",
        "to": "0x9952d25eda1f305fcdb6ca9029520e33a7263ff8",
        "gas": "0x27f54",
        "value": "0x0",
        "input": "0x1d4161650000000000000000000000000000000000000000000000000000000000000001",
        "nonce": "0x4ef",
        "chainId": "0xaa36a7"
      },
      "additionalContracts": [],
      "isFixedGasLimit": false
    },
    {
      "hash": "0xf8f1a13f8f610ba6704223be843ee709458f2fb7d63427fd86c0c347f51f7cc4",
      "transactionType": "CALL",
      "contractName": null,
      "contractAddress": "0x00000000000044a361ae3cac094c9d1b14eece97",
      "function": "swapExactTokensForTokens(uint256,uint256,bool,(address,address,uint24,int24,address),bytes,address,uint256)",
      "arguments": [
        "1000000000000000",
        "0",
        "false",
        "(0x0000000000000000000000000000000000000000, 0x8999Eac3Df09a3f46099130a56c5CB1e9D79bA2a, 3000, 60, 0x9952d25eDA1f305fcDb6Ca9029520e33A7263Ff8)",
        "0x",
        "0xF93E7518F79C2E1978D6862Dbf161270040e623E",
        "115792089237316195423570985008687907853269984665640564039457584007913129639935"
      ],
      "transaction": {
        "from": "0xf93e7518f79c2e1978d6862dbf161270040e623e",
        "to": "0x00000000000044a361ae3cac094c9d1b14eece97",
        "gas": "0x3c5f6",
        "value": "0x0",
        "input": "0xb1a0d57100000000000000000000000000000000000000000000000000038d7ea4c680000000000000000000000000000000000000000000000000000000000000000000000000000000000000000000000000000000000000000000000000000000000000000000000000000000000000000000000000000000000000000000000000000000000000000000000000008999eac3df09a3f46099130a56c5cb1e9d79ba2a0000000000000000000000000000000000000000000000000000000000000bb8000000000000000000000000000000000000000000000000000000000000003c0000000000000000000000009952d25eda1f305fcdb6ca9029520e33a7263ff80000000000000000000000000000000000000000000000000000000000000160000000000000000000000000f93e7518f79c2e1978d6862dbf161270040e623effffffffffffffffffffffffffffffffffffffffffffffffffffffffffffffff0000000000000000000000000000000000000000000000000000000000000000",
        "nonce": "0x4f0",
        "chainId": "0xaa36a7"
      },
      "additionalContracts": [],
      "isFixedGasLimit": false
    },
    {
      "hash": "0xfb0ecbc1f0517043582603951e319aee6bb2101255c658cf76ed683cd98f0d2b",
      "transactionType": "CALL",
      "contractName": null,
      "contractAddress": "0x9952d25eda1f305fcdb6ca9029520e33a7263ff8",
      "function": "claimFees(bool)",
      "arguments": [
        "false"
      ],
      "transaction": {
        "from": "0xf93e7518f79c2e1978d6862dbf161270040e623e",
        "to": "0x9952d25eda1f305fcdb6ca9029520e33a7263ff8",
        "gas": "0x31b49",
        "value": "0x0",
        "input": "0x1d4161650000000000000000000000000000000000000000000000000000000000000000",
        "nonce": "0x4f1",
        "chainId": "0xaa36a7"
      },
      "additionalContracts": [],
      "isFixedGasLimit": false
    },
    {
      "hash": "0x06b5a64c3a0d963cc7e5877d28da05460e1f8bb1a70f0733b716be036ed3feb5",
      "transactionType": "CALL",
      "contractName": null,
      "contractAddress": "0x55c6aedc9d5384f00aecd3515556a150e272168b",
      "function": "stake(uint256)",
      "arguments": [
        "100000000000000000000"
      ],
      "transaction": {
        "from": "0xf93e7518f79c2e1978d6862dbf161270040e623e",
        "to": "0x55c6aedc9d5384f00aecd3515556a150e272168b",
        "gas": "0x2a4da",
        "value": "0x0",
        "input": "0xa694fc3a0000000000000000000000000000000000000000000000056bc75e2d63100000",
        "nonce": "0x4f2",
        "chainId": "0xaa36a7"
      },
      "additionalContracts": [],
      "isFixedGasLimit": false
    },
    {
      "hash": "0x007ad69ee9c3ee81258b09152353e07170a0e5eda1789752c6122ce30aecb841",
      "transactionType": "CALL",
      "contractName": null,
      "contractAddress": "0x00000000000044a361ae3cac094c9d1b14eece97",
      "function": "swapExactTokensForTokens(uint256,uint256,bool,(address,address,uint24,int24,address),bytes,address,uint256)",
      "arguments": [
        "1000000000000",
        "0",
        "true",
        "(0x0000000000000000000000000000000000000000, 0x8999Eac3Df09a3f46099130a56c5CB1e9D79bA2a, 3000, 60, 0x9952d25eDA1f305fcDb6Ca9029520e33A7263Ff8)",
        "0x",
        "0xF93E7518F79C2E1978D6862Dbf161270040e623E",
        "115792089237316195423570985008687907853269984665640564039457584007913129639935"
      ],
      "transaction": {
        "from": "0xf93e7518f79c2e1978d6862dbf161270040e623e",
        "to": "0x00000000000044a361ae3cac094c9d1b14eece97",
        "gas": "0x44062",
        "value": "0xe8d4a51000",
        "input": "0xb1a0d571000000000000000000000000000000000000000000000000000000e8d4a510000000000000000000000000000000000000000000000000000000000000000000000000000000000000000000000000000000000000000000000000000000000100000000000000000000000000000000000000000000000000000000000000000000000000000000000000008999eac3df09a3f46099130a56c5cb1e9d79ba2a0000000000000000000000000000000000000000000000000000000000000bb8000000000000000000000000000000000000000000000000000000000000003c0000000000000000000000009952d25eda1f305fcdb6ca9029520e33a7263ff80000000000000000000000000000000000000000000000000000000000000160000000000000000000000000f93e7518f79c2e1978d6862dbf161270040e623effffffffffffffffffffffffffffffffffffffffffffffffffffffffffffffff0000000000000000000000000000000000000000000000000000000000000000",
        "nonce": "0x4f3",
        "chainId": "0xaa36a7"
      },
      "additionalContracts": [],
      "isFixedGasLimit": false
    },
    {
      "hash": "0xbc4dac15bbfe909975982777d6a4f1890b67052572d399f7cb9277ee5dc41e07",
      "transactionType": "CALL",
      "contractName": null,
      "contractAddress": "0x9952d25eda1f305fcdb6ca9029520e33a7263ff8",
      "function": "claimFees(bool)",
      "arguments": [
        "true"
      ],
      "transaction": {
        "from": "0xf93e7518f79c2e1978d6862dbf161270040e623e",
        "to": "0x9952d25eda1f305fcdb6ca9029520e33a7263ff8",
        "gas": "0x25202",
        "value": "0x0",
        "input": "0x1d4161650000000000000000000000000000000000000000000000000000000000000001",
        "nonce": "0x4f4",
        "chainId": "0xaa36a7"
      },
      "additionalContracts": [],
      "isFixedGasLimit": false
    },
    {
      "hash": "0xb47994353ad8379a8bffb254b9c5b0e2a59c2c07941e112be6c21e2a7bc56bdb",
      "transactionType": "CALL",
      "contractName": null,
      "contractAddress": "0x55c6aedc9d5384f00aecd3515556a150e272168b",
      "function": "claimReward()",
      "arguments": [],
      "transaction": {
        "from": "0xf93e7518f79c2e1978d6862dbf161270040e623e",
        "to": "0x55c6aedc9d5384f00aecd3515556a150e272168b",
        "gas": "0x10ee3",
        "value": "0x0",
        "input": "0xb88a802f",
        "nonce": "0x4f5",
        "chainId": "0xaa36a7"
      },
      "additionalContracts": [],
      "isFixedGasLimit": false
    },
    {
      "hash": "0xde06479d77bdd3c367cd2bbc0eee7907ccf39e621f2e465d02695c070c4a442f",
      "transactionType": "CALL",
      "contractName": null,
      "contractAddress": "0x8999eac3df09a3f46099130a56c5cb1e9d79ba2a",
      "function": "burn(uint256)",
      "arguments": [
        "10000000000000000000000"
      ],
      "transaction": {
        "from": "0xf93e7518f79c2e1978d6862dbf161270040e623e",
        "to": "0x8999eac3df09a3f46099130a56c5cb1e9d79ba2a",
        "gas": "0x21b44",
        "value": "0x0",
        "input": "0x42966c6800000000000000000000000000000000000000000000021e19e0c9bab2400000",
        "nonce": "0x4f6",
        "chainId": "0xaa36a7"
      },
      "additionalContracts": [],
      "isFixedGasLimit": false
    },
    {
      "hash": null,
      "transactionType": "CALL",
      "contractName": null,
      "contractAddress": "0x429ba70129df741b2ca2a85bc3a2a3328e5c09b4",
      "function": "approve(address,uint256)",
      "arguments": [
        "0x9952d25eDA1f305fcDb6Ca9029520e33A7263Ff8",
        "36089"
      ],
      "transaction": {
        "from": "0xf93e7518f79c2e1978d6862dbf161270040e623e",
        "to": "0x429ba70129df741b2ca2a85bc3a2a3328e5c09b4",
        "gas": "0x10489",
        "value": "0x0",
        "input": "0x095ea7b30000000000000000000000009952d25eda1f305fcdb6ca9029520e33a7263ff80000000000000000000000000000000000000000000000000000000000008cf9",
        "nonce": "0x4f7",
        "chainId": "0xaa36a7"
      },
      "additionalContracts": [],
      "isFixedGasLimit": false
    },
    {
      "hash": null,
      "transactionType": "CALL",
      "contractName": null,
      "contractAddress": "0x9952d25eda1f305fcdb6ca9029520e33a7263ff8",
      "function": "burnLpPosition(uint256)",
      "arguments": [
        "36089"
      ],
      "transaction": {
        "from": "0xf93e7518f79c2e1978d6862dbf161270040e623e",
        "to": "0x9952d25eda1f305fcdb6ca9029520e33a7263ff8",
        "gas": "0x3a51c",
        "value": "0x0",
        "input": "0x32803cbc0000000000000000000000000000000000000000000000000000000000008cf9",
        "nonce": "0x4f8",
        "chainId": "0xaa36a7"
      },
      "additionalContracts": [],
      "isFixedGasLimit": false
    },
    {
      "hash": null,
      "transactionType": "CALL",
      "contractName": null,
      "contractAddress": "0x00000000000044a361ae3cac094c9d1b14eece97",
      "function": "swapExactTokensForTokens(uint256,uint256,bool,(address,address,uint24,int24,address),bytes,address,uint256)",
      "arguments": [
        "1000000000000000",
        "0",
        "false",
        "(0x0000000000000000000000000000000000000000, 0x8999Eac3Df09a3f46099130a56c5CB1e9D79bA2a, 3000, 60, 0x9952d25eDA1f305fcDb6Ca9029520e33A7263Ff8)",
        "0x",
        "0xF93E7518F79C2E1978D6862Dbf161270040e623E",
        "115792089237316195423570985008687907853269984665640564039457584007913129639935"
      ],
      "transaction": {
        "from": "0xf93e7518f79c2e1978d6862dbf161270040e623e",
        "to": "0x00000000000044a361ae3cac094c9d1b14eece97",
        "gas": "0x3cb14",
        "value": "0x0",
        "input": "0xb1a0d57100000000000000000000000000000000000000000000000000038d7ea4c680000000000000000000000000000000000000000000000000000000000000000000000000000000000000000000000000000000000000000000000000000000000000000000000000000000000000000000000000000000000000000000000000000000000000000000000000008999eac3df09a3f46099130a56c5cb1e9d79ba2a0000000000000000000000000000000000000000000000000000000000000bb8000000000000000000000000000000000000000000000000000000000000003c0000000000000000000000009952d25eda1f305fcdb6ca9029520e33a7263ff80000000000000000000000000000000000000000000000000000000000000160000000000000000000000000f93e7518f79c2e1978d6862dbf161270040e623effffffffffffffffffffffffffffffffffffffffffffffffffffffffffffffff0000000000000000000000000000000000000000000000000000000000000000",
        "nonce": "0x4f9",
        "chainId": "0xaa36a7"
      },
      "additionalContracts": [],
      "isFixedGasLimit": false
    },
    {
      "hash": null,
      "transactionType": "CALL",
      "contractName": null,
      "contractAddress": "0x9952d25eda1f305fcdb6ca9029520e33a7263ff8",
      "function": "claimFees(bool)",
      "arguments": [
        "false"
      ],
      "transaction": {
        "from": "0xf93e7518f79c2e1978d6862dbf161270040e623e",
        "to": "0x9952d25eda1f305fcdb6ca9029520e33a7263ff8",
        "gas": "0x34f7d",
        "value": "0x0",
        "input": "0x1d4161650000000000000000000000000000000000000000000000000000000000000000",
        "nonce": "0x4fa",
        "chainId": "0xaa36a7"
      },
      "additionalContracts": [],
      "isFixedGasLimit": false
    }
  ],
  "receipts": [
    {
      "type": "0x2",
      "status": "0x1",
      "cumulativeGasUsed": "0x1a33c7d",
      "logs": [
        {
          "address": "0x8999eac3df09a3f46099130a56c5cb1e9d79ba2a",
          "topics": [
            "0x8c5be1e5ebec7d5bd14f71427d1e84f3dd0314c0f7b2291e5b200ac8c7c3b925",
            "0x000000000000000000000000f93e7518f79c2e1978d6862dbf161270040e623e",
            "0x000000000000000000000000000000000022d473030f116ddee9f6b43ac78ba3"
          ],
          "data": "0xffffffffffffffffffffffffffffffffffffffffffffffffffffffffffffffff",
          "blockHash": "0xf87c07b3d728fd26b7893949a49060a51fb3424cbc969cda11dff3bace230050",
          "blockNumber": "0xa93700",
          "blockTimestamp": "0x6a345e3c",
          "transactionHash": "0xf7079282c6ed100f83afbba95f809906bb2b07c5c5ed29700adaab3693c525bf",
          "transactionIndex": "0x122",
          "logIndex": "0x5d8",
          "removed": false
        }
      ],
      "logsBloom": "0x00000000000000000000000000000000000000000000000000000000800000000000000000000000000000000000000000000000800000200000000000200000000000000000000000004000000000000000000000000800000000000000000000000000000000000000000000000000000000000000000400000000000000000000000000000000000000000000000000000000000000000000000000100001020000000000000000000000000000000000000000000000000000000000100000000000000000000000000000000000000000000000000000000000000000000010000000000000000000000000000000000000000000000000000000000000",
      "transactionHash": "0xf7079282c6ed100f83afbba95f809906bb2b07c5c5ed29700adaab3693c525bf",
      "transactionIndex": "0x122",
      "blockHash": "0xf87c07b3d728fd26b7893949a49060a51fb3424cbc969cda11dff3bace230050",
      "blockNumber": "0xa93700",
      "gasUsed": "0x66e9",
      "effectiveGasPrice": "0x420ec0d2",
      "from": "0xf93e7518f79c2e1978d6862dbf161270040e623e",
      "to": "0x8999eac3df09a3f46099130a56c5cb1e9d79ba2a",
      "contractAddress": null
    },
    {
      "type": "0x2",
      "status": "0x1",
      "cumulativeGasUsed": "0xbe0fe9",
      "logs": [
        {
          "address": "0x000000000022d473030f116ddee9f6b43ac78ba3",
          "topics": [
            "0xda9fa7c1b00402c17d0161b249b1ab8bbec047c5a52207b9c112deffd817036b",
            "0x000000000000000000000000f93e7518f79c2e1978d6862dbf161270040e623e",
            "0x0000000000000000000000008999eac3df09a3f46099130a56c5cb1e9d79ba2a",
            "0x000000000000000000000000429ba70129df741b2ca2a85bc3a2a3328e5c09b4"
          ],
          "data": "0x000000000000000000000000ffffffffffffffffffffffffffffffffffffffff000000000000000000000000000000000000000000000000000000006a35af8c",
          "blockHash": "0x7813c2ebd7a06446c32591f4412ba4ec592ee0bd6a4d620e50a634a6e6d58380",
          "blockNumber": "0xa93701",
          "blockTimestamp": "0x6a345e48",
          "transactionHash": "0xbf5fea8a30dd69d192316ca85e174c2f46499e658fe5d9bbc16d375c49a6702e",
          "transactionIndex": "0xa4",
          "logIndex": "0x130",
          "removed": false
        }
      ],
      "logsBloom": "0x00010000000000000000000000000008000000000000000000000000800000000000000000000040080000001000000000000000000000200000000000080000000000000000000000000000000000000000000000000000000000000000000000000000000000000000000000000000000000000000000000000800000000000020000000000000000000000000000000000000000000000000000000100000000000000000000000000000000000000000000000000000000000080000000000000000000000000000000000000000000000000000000040000000000000000000000000000000000000000000000000000004000000000000000000000400",
      "transactionHash": "0xbf5fea8a30dd69d192316ca85e174c2f46499e658fe5d9bbc16d375c49a6702e",
      "transactionIndex": "0xa4",
      "blockHash": "0x7813c2ebd7a06446c32591f4412ba4ec592ee0bd6a4d620e50a634a6e6d58380",
      "blockNumber": "0xa93701",
      "gasUsed": "0x77e6",
      "effectiveGasPrice": "0x41b44a6c",
      "from": "0xf93e7518f79c2e1978d6862dbf161270040e623e",
      "to": "0x000000000022d473030f116ddee9f6b43ac78ba3",
      "contractAddress": null
    },
    {
      "type": "0x2",
      "status": "0x1",
      "cumulativeGasUsed": "0xf98c83",
      "logs": [
        {
          "address": "0x000000000022d473030f116ddee9f6b43ac78ba3",
          "topics": [
            "0xda9fa7c1b00402c17d0161b249b1ab8bbec047c5a52207b9c112deffd817036b",
            "0x000000000000000000000000f93e7518f79c2e1978d6862dbf161270040e623e",
            "0x0000000000000000000000008999eac3df09a3f46099130a56c5cb1e9d79ba2a",
            "0x00000000000000000000000000000000000044a361ae3cac094c9d1b14eece97"
          ],
          "data": "0x000000000000000000000000ffffffffffffffffffffffffffffffffffffffff000000000000000000000000000000000000000000000000000000006a35af8c",
          "blockHash": "0x32a384a172cbb3264de7de42f6a4c7a782825600d95e7991954334418467b6d8",
          "blockNumber": "0xa93702",
          "blockTimestamp": "0x6a345e54",
          "transactionHash": "0x01d51a138a07dbad9d4fc4aad17e372165edec7aec76ba8b9e0b19bbff698296",
          "transactionIndex": "0xf8",
          "logIndex": "0x188",
          "removed": false
        }
      ],
      "logsBloom": "0x00010000000000000000000000000008000000000000000000000000800000000000000000000000000000001000000000000000000000200000000040080000000000000000000000000000000000000000000000000000000000000000000000000000000000000000000000000000000000000000000000000000000040000020000000000000000000000000000000000000000000000000000000100000000000000000000000000000000000000000000000000000000000080000000000000000000000000000000000000000000000000000000040000000000000010000000000000000000000000000000000000004000000000000000000000400",
      "transactionHash": "0x01d51a138a07dbad9d4fc4aad17e372165edec7aec76ba8b9e0b19bbff698296",
      "transactionIndex": "0xf8",
      "blockHash": "0x32a384a172cbb3264de7de42f6a4c7a782825600d95e7991954334418467b6d8",
      "blockNumber": "0xa93702",
      "gasUsed": "0x779e",
      "effectiveGasPrice": "0x40114d58",
      "from": "0xf93e7518f79c2e1978d6862dbf161270040e623e",
      "to": "0x000000000022d473030f116ddee9f6b43ac78ba3",
      "contractAddress": null
    },
    {
      "type": "0x2",
      "status": "0x1",
      "cumulativeGasUsed": "0xbf0f6a",
      "logs": [
        {
          "address": "0x8999eac3df09a3f46099130a56c5cb1e9d79ba2a",
          "topics": [
            "0x8c5be1e5ebec7d5bd14f71427d1e84f3dd0314c0f7b2291e5b200ac8c7c3b925",
            "0x000000000000000000000000f93e7518f79c2e1978d6862dbf161270040e623e",
            "0x00000000000000000000000000000000000044a361ae3cac094c9d1b14eece97"
          ],
          "data": "0xffffffffffffffffffffffffffffffffffffffffffffffffffffffffffffffff",
          "blockHash": "0x2cc39487a8cc4f343f1ebd4a25f29165df954cc3bd2f7335cbe165412d3f5a4c",
          "blockNumber": "0xa93703",
          "blockTimestamp": "0x6a345e60",
          "transactionHash": "0x70e7673f2b4cdd5810abd71542bf317d8ff9d833f4598049bdfb18592d45c34a",
          "transactionIndex": "0xb2",
          "logIndex": "0xf1",
          "removed": false
        }
      ],
      "logsBloom": "0x00000000000000000000000000000000000000000000000000000000800000000000000000000000000000000000000000000000000000200000000040200000000000000000000000000000000000000000000000000000000000000000000000000000000000000000000000000000000000000000000400000000000040000000000000000000000000000000000000000000000000000000000000100001020000000000000000000000000000000000000000000000000000000000100000000000000000000000000000000000000000000000000000000000000000010010000000000000000000000000000000000000000000000000000000000000",
      "transactionHash": "0x70e7673f2b4cdd5810abd71542bf317d8ff9d833f4598049bdfb18592d45c34a",
      "transactionIndex": "0xb2",
      "blockHash": "0x2cc39487a8cc4f343f1ebd4a25f29165df954cc3bd2f7335cbe165412d3f5a4c",
      "blockNumber": "0xa93703",
      "gasUsed": "0x66dd",
      "effectiveGasPrice": "0x3ef667d3",
      "from": "0xf93e7518f79c2e1978d6862dbf161270040e623e",
      "to": "0x8999eac3df09a3f46099130a56c5cb1e9d79ba2a",
      "contractAddress": null
    },
    {
      "type": "0x2",
      "status": "0x1",
      "cumulativeGasUsed": "0xcc299a",
      "logs": [
        {
          "address": "0x8999eac3df09a3f46099130a56c5cb1e9d79ba2a",
          "topics": [
            "0x8c5be1e5ebec7d5bd14f71427d1e84f3dd0314c0f7b2291e5b200ac8c7c3b925",
            "0x000000000000000000000000f93e7518f79c2e1978d6862dbf161270040e623e",
            "0x00000000000000000000000055c6aedc9d5384f00aecd3515556a150e272168b"
          ],
          "data": "0xffffffffffffffffffffffffffffffffffffffffffffffffffffffffffffffff",
          "blockHash": "0xebdbc4d500a96586c495b2e03589c094e79fe0efdf0ad3df3a237baf836c1388",
          "blockNumber": "0xa93704",
          "blockTimestamp": "0x6a345e6c",
          "transactionHash": "0xddf28803e28add35da02aa04636e5d7ad353b4147fc574fee1674f7ae521d922",
          "transactionIndex": "0xbe",
          "logIndex": "0x120",
          "removed": false
        }
      ],
      "logsBloom": "0x00000000000000000000000000000000000000000000000000000000800000000000100000000000000000000000000000000000000000200000000000200000000000000000000000000000000000000000000000000000000000000000000000000000000000000000000000000000000000000000000400000000000000000000000000000000000000000000000000000000000000000000000000100001020000000000000000000000000000000002000000000000000000000000100000000000000000000000000000000000000000000000000000000000000000000010000000000000008000000000000000000000000000000000000000000000",
      "transactionHash": "0xddf28803e28add35da02aa04636e5d7ad353b4147fc574fee1674f7ae521d922",
      "transactionIndex": "0xbe",
      "blockHash": "0xebdbc4d500a96586c495b2e03589c094e79fe0efdf0ad3df3a237baf836c1388",
      "blockNumber": "0xa93704",
      "gasUsed": "0x6725",
      "effectiveGasPrice": "0x3d37e514",
      "from": "0xf93e7518f79c2e1978d6862dbf161270040e623e",
      "to": "0x8999eac3df09a3f46099130a56c5cb1e9d79ba2a",
      "contractAddress": null
    },
    {
      "type": "0x2",
      "status": "0x1",
      "cumulativeGasUsed": "0x15eb2c7",
      "logs": [
        {
          "address": "0x429ba70129df741b2ca2a85bc3a2a3328e5c09b4",
          "topics": [
            "0xddf252ad1be2c89b69c2b068fc378daa952ba7f163c4a11628f55a4df523b3ef",
            "0x0000000000000000000000000000000000000000000000000000000000000000",
            "0x000000000000000000000000f93e7518f79c2e1978d6862dbf161270040e623e",
            "0x0000000000000000000000000000000000000000000000000000000000008cfa"
          ],
          "data": "0x",
          "blockHash": "0xb7e08bdd97aa15cdb8604b42f5a9bd747fcd6d57c565afc20f5808d5f949538a",
          "blockNumber": "0xa93705",
          "blockTimestamp": "0x6a345e78",
          "transactionHash": "0x025e97d92c7a72dadea6aa2266045328487efaa2e3718fb1470a55df303793d7",
          "transactionIndex": "0x130",
          "logIndex": "0x1d1",
          "removed": false
        },
        {
          "address": "0xe03a1074c86cfedd5c142c4f04f1a1536e203543",
          "topics": [
            "0xf208f4912782fd25c7f114ca3723a2d5dd6f3bcc3ac8db5af63baa85f711d5ec",
            "0x81d74c428ad55494ca858ba05cc806c16a7c196832d4b9885b8dd3d05457654a",
            "0x000000000000000000000000429ba70129df741b2ca2a85bc3a2a3328e5c09b4"
          ],
          "data": "0xfffffffffffffffffffffffffffffffffffffffffffffffffffffffffff2764c00000000000000000000000000000000000000000000000000000000000d89b400000000000000000000000000000000000000000000000006f05b59d3b200000000000000000000000000000000000000000000000000000000000000008cfa",
          "blockHash": "0xb7e08bdd97aa15cdb8604b42f5a9bd747fcd6d57c565afc20f5808d5f949538a",
          "blockNumber": "0xa93705",
          "blockTimestamp": "0x6a345e78",
          "transactionHash": "0x025e97d92c7a72dadea6aa2266045328487efaa2e3718fb1470a55df303793d7",
          "transactionIndex": "0x130",
          "logIndex": "0x1d2",
          "removed": false
        },
        {
          "address": "0x8999eac3df09a3f46099130a56c5cb1e9d79ba2a",
          "topics": [
            "0xddf252ad1be2c89b69c2b068fc378daa952ba7f163c4a11628f55a4df523b3ef",
            "0x000000000000000000000000f93e7518f79c2e1978d6862dbf161270040e623e",
            "0x000000000000000000000000e03a1074c86cfedd5c142c4f04f1a1536e203543"
          ],
          "data": "0x0000000000000000000000000000000000000000000000089231b5f538c4721e",
          "blockHash": "0xb7e08bdd97aa15cdb8604b42f5a9bd747fcd6d57c565afc20f5808d5f949538a",
          "blockNumber": "0xa93705",
          "blockTimestamp": "0x6a345e78",
          "transactionHash": "0x025e97d92c7a72dadea6aa2266045328487efaa2e3718fb1470a55df303793d7",
          "transactionIndex": "0x130",
          "logIndex": "0x1d3",
          "removed": false
        }
      ],
      "logsBloom": "0x00000000000000000000201000000000000000000000000000000000880000000000008000000040080000000000002000000100000000200000000000000000000001000000000000000008000000000000000000000000000000000000000000000000020000000000000080000800000000000000100400000810000000000000000001000000000010000000000000000000000000000000000000100001000004000000000000000000000000000000000000400000000000000000100000000002000000000000000000000000000000000000200000001000000020001000000000000000000000000010000004000000000000000000000000000000",
      "transactionHash": "0x025e97d92c7a72dadea6aa2266045328487efaa2e3718fb1470a55df303793d7",
      "transactionIndex": "0x130",
      "blockHash": "0xb7e08bdd97aa15cdb8604b42f5a9bd747fcd6d57c565afc20f5808d5f949538a",
      "blockNumber": "0xa93705",
      "gasUsed": "0x44c36",
      "effectiveGasPrice": "0x3bae3edf",
      "from": "0xf93e7518f79c2e1978d6862dbf161270040e623e",
      "to": "0x429ba70129df741b2ca2a85bc3a2a3328e5c09b4",
      "contractAddress": null
    },
    {
      "type": "0x2",
      "status": "0x1",
      "cumulativeGasUsed": "0xbca281",
      "logs": [
        {
          "address": "0x9952d25eda1f305fcdb6ca9029520e33a7263ff8",
          "topics": [
            "0xeb18042c63a6494302e2e34ca89562fb59d5b25ded99d617905bdd7c4f891f03",
            "0x0000000000000000000000000000000000000000000000000000000000000001",
            "0x0000000000000000000000000000000000000000000000000000000000000001"
          ],
          "data": "0x000000000000000000000000000000000000000000000000000000165a0bc000",
          "blockHash": "0xe444e1dc5bb6395ed206a58d8fafcc7cb47e81e64f7d3f3013b87899a9682421",
          "blockNumber": "0xa93707",
          "blockTimestamp": "0x6a345e90",
          "transactionHash": "0xd5bd7520640f26d291742fa32de6e13c8a65cafc63bee5bb3c59a631f048fa5e",
          "transactionIndex": "0x9a",
          "logIndex": "0x10a",
          "removed": false
        },
        {
          "address": "0xe03a1074c86cfedd5c142c4f04f1a1536e203543",
          "topics": [
            "0x40e9cecb9f5f1f1c5b9c97dec2917b7ee92e57ba5563708daca94dd84ad7112f",
            "0x81d74c428ad55494ca858ba05cc806c16a7c196832d4b9885b8dd3d05457654a",
            "0x00000000000000000000000000000000000044a361ae3cac094c9d1b14eece97"
          ],
          "data": "0xffffffffffffffffffffffffffffffffffffffffffffffffffffff2d8566b00000000000000000000000000000000000000000000000000001402d3a4aca4aff000000000000000000000000000000000000013c36c7d15a64ada6bb2816ef72000000000000000000000000000000000000000000000001cbabbdd3c5fb95a7000000000000000000000000000000000000000000000000000000000001c1be0000000000000000000000000000000000000000000000000000000000000bb8",
          "blockHash": "0xe444e1dc5bb6395ed206a58d8fafcc7cb47e81e64f7d3f3013b87899a9682421",
          "blockNumber": "0xa93707",
          "blockTimestamp": "0x6a345e90",
          "transactionHash": "0xd5bd7520640f26d291742fa32de6e13c8a65cafc63bee5bb3c59a631f048fa5e",
          "transactionIndex": "0x9a",
          "logIndex": "0x10b",
          "removed": false
        },
        {
          "address": "0xe03a1074c86cfedd5c142c4f04f1a1536e203543",
          "topics": [
            "0x1b3d7edb2e9c0b0e7c525b20aaaef0f5940d2ed71663c7d39266ecafac728859",
            "0x0000000000000000000000000000000000000000000000000000000000000000",
            "0x0000000000000000000000009952d25eda1f305fcdb6ca9029520e33a7263ff8",
            "0x0000000000000000000000000000000000000000000000000000000000000000"
          ],
          "data": "0x0000000000000000000000009952d25eda1f305fcdb6ca9029520e33a7263ff8000000000000000000000000000000000000000000000000000000165a0bc000",
          "blockHash": "0xe444e1dc5bb6395ed206a58d8fafcc7cb47e81e64f7d3f3013b87899a9682421",
          "blockNumber": "0xa93707",
          "blockTimestamp": "0x6a345e90",
          "transactionHash": "0xd5bd7520640f26d291742fa32de6e13c8a65cafc63bee5bb3c59a631f048fa5e",
          "transactionIndex": "0x9a",
          "logIndex": "0x10c",
          "removed": false
        },
        {
          "address": "0x8999eac3df09a3f46099130a56c5cb1e9d79ba2a",
          "topics": [
            "0xddf252ad1be2c89b69c2b068fc378daa952ba7f163c4a11628f55a4df523b3ef",
            "0x000000000000000000000000e03a1074c86cfedd5c142c4f04f1a1536e203543",
            "0x000000000000000000000000f93e7518f79c2e1978d6862dbf161270040e623e"
          ],
          "data": "0x00000000000000000000000000000000000000000000000001402d3a4aca4aff",
          "blockHash": "0xe444e1dc5bb6395ed206a58d8fafcc7cb47e81e64f7d3f3013b87899a9682421",
          "blockNumber": "0xa93707",
          "blockTimestamp": "0x6a345e90",
          "transactionHash": "0xd5bd7520640f26d291742fa32de6e13c8a65cafc63bee5bb3c59a631f048fa5e",
          "transactionIndex": "0x9a",
          "logIndex": "0x10d",
          "removed": false
        }
      ],
      "logsBloom": "0x00000000000000000000200000000000000000000000001000000000800000000000000000000000000000000000002000000100040000200000000040040000000000000000000000000008000004000000000000040020000000000000000000000000020100000000000080000800000000000000100400000010000040000000000000000000000010000000040000000000000000000000000000180001000002000000000000000000000020000000000000040000000000000000180000000002000000000000000000000000000000002000000000001000000060011000000000000000004000000010000000000000000000000000000004001000",
      "transactionHash": "0xd5bd7520640f26d291742fa32de6e13c8a65cafc63bee5bb3c59a631f048fa5e",
      "transactionIndex": "0x9a",
      "blockHash": "0xe444e1dc5bb6395ed206a58d8fafcc7cb47e81e64f7d3f3013b87899a9682421",
      "blockNumber": "0xa93707",
      "gasUsed": "0x296c1",
      "effectiveGasPrice": "0x4189c1af",
      "from": "0xf93e7518f79c2e1978d6862dbf161270040e623e",
      "to": "0x00000000000044a361ae3cac094c9d1b14eece97",
      "contractAddress": null
    },
    {
      "type": "0x2",
      "status": "0x1",
      "cumulativeGasUsed": "0x138e2bc",
      "logs": [
        {
          "address": "0xe03a1074c86cfedd5c142c4f04f1a1536e203543",
          "topics": [
            "0x1b3d7edb2e9c0b0e7c525b20aaaef0f5940d2ed71663c7d39266ecafac728859",
            "0x0000000000000000000000009952d25eda1f305fcdb6ca9029520e33a7263ff8",
            "0x0000000000000000000000000000000000000000000000000000000000000000",
            "0x0000000000000000000000000000000000000000000000000000000000000000"
          ],
          "data": "0x0000000000000000000000009952d25eda1f305fcdb6ca9029520e33a7263ff8000000000000000000000000000000000000000000000000000000165a0bc000",
          "blockHash": "0x494f5dc98e25f9ba5fa5915b7fb185cd54ccd983f9322bd44904ba5d904a7144",
          "blockNumber": "0xa93708",
          "blockTimestamp": "0x6a345e9c",
          "transactionHash": "0x14cec19dabc810849770ba22e380e895bfbabcdf55d048596f85cb59f41d982c",
          "transactionIndex": "0x122",
          "logIndex": "0x1a4",
          "removed": false
        },
        {
          "address": "0x55c6aedc9d5384f00aecd3515556a150e272168b",
          "topics": [
            "0x6c07ee05dcf262f13abf9d87b846ee789d2f90fe991d495acd7d7fc109ee1f55"
          ],
          "data": "0x00000000000000000000000000000000000000000000000000000011e1a300000000000000000000000000000000000000000000000000000000000000093a80",
          "blockHash": "0x494f5dc98e25f9ba5fa5915b7fb185cd54ccd983f9322bd44904ba5d904a7144",
          "blockNumber": "0xa93708",
          "blockTimestamp": "0x6a345e9c",
          "transactionHash": "0x14cec19dabc810849770ba22e380e895bfbabcdf55d048596f85cb59f41d982c",
          "transactionIndex": "0x122",
          "logIndex": "0x1a5",
          "removed": false
        },
        {
          "address": "0x9952d25eda1f305fcdb6ca9029520e33a7263ff8",
          "topics": [
            "0xda378dba4f1dc8c7a566c70096e0389c466cb99cc2ec74173afd50c7b652ca09"
          ],
          "data": "0x00000000000000000000000000000000000000000000000000000011e1a30000000000000000000000000000000000000000000000000000000000047868c000",
          "blockHash": "0x494f5dc98e25f9ba5fa5915b7fb185cd54ccd983f9322bd44904ba5d904a7144",
          "blockNumber": "0xa93708",
          "blockTimestamp": "0x6a345e9c",
          "transactionHash": "0x14cec19dabc810849770ba22e380e895bfbabcdf55d048596f85cb59f41d982c",
          "transactionIndex": "0x122",
          "logIndex": "0x1a6",
          "removed": false
        }
      ],
      "logsBloom": "0x00000000000000000000000000000000000001000000000000000000000000000000000000000000000000000000000000000100000000000000000000000000000000000000000000000000000004000000200000000000000000000000000001000000020100000000000000000800000800000000100000000000000000000000000000000000000000000000040000000000000000000000000000000000000002000000000000000000000020000010000000040000000000000008080000000000000000000001000000000000020000002000000000000100000020001000000000000000000000000000000000000000000000000000000004000000",
      "transactionHash": "0x14cec19dabc810849770ba22e380e895bfbabcdf55d048596f85cb59f41d982c",
      "transactionIndex": "0x122",
      "blockHash": "0x494f5dc98e25f9ba5fa5915b7fb185cd54ccd983f9322bd44904ba5d904a7144",
      "blockNumber": "0xa93708",
      "gasUsed": "0x1cede",
      "effectiveGasPrice": "0x3e46b66b",
      "from": "0xf93e7518f79c2e1978d6862dbf161270040e623e",
      "to": "0x9952d25eda1f305fcdb6ca9029520e33a7263ff8",
      "contractAddress": null
    },
    {
      "type": "0x2",
      "status": "0x1",
      "cumulativeGasUsed": "0xb0d564",
      "logs": [
        {
          "address": "0x9952d25eda1f305fcdb6ca9029520e33a7263ff8",
          "topics": [
            "0xeb18042c63a6494302e2e34ca89562fb59d5b25ded99d617905bdd7c4f891f03",
            "0x0000000000000000000000000000000000000000000000000000000000000000",
            "0x0000000000000000000000000000000000000000000000000000000000000000"
          ],
          "data": "0x0000000000000000000000000000000000000000000000000000c3ff00f2f800",
          "blockHash": "0x9945de9e472139ac57c87e2d23fcb76a8158b45e77c37502b38c60534b151c6b",
          "blockNumber": "0xa93709",
          "blockTimestamp": "0x6a345ea8",
          "transactionHash": "0xf8f1a13f8f610ba6704223be843ee709458f2fb7d63427fd86c0c347f51f7cc4",
          "transactionIndex": "0xb6",
          "logIndex": "0xfd",
          "removed": false
        },
        {
          "address": "0xe03a1074c86cfedd5c142c4f04f1a1536e203543",
          "topics": [
            "0x40e9cecb9f5f1f1c5b9c97dec2917b7ee92e57ba5563708daca94dd84ad7112f",
            "0x81d74c428ad55494ca858ba05cc806c16a7c196832d4b9885b8dd3d05457654a",
            "0x00000000000000000000000000000000000044a361ae3cac094c9d1b14eece97"
          ],
          "data": "0x00000000000000000000000000000000000000000000000000000001d23c7a30fffffffffffffffffffffffffffffffffffffffffffffffffffd36805c2c7800000000000000000000000000000000000000013c36c95d85d6bd8929b90e14ed000000000000000000000000000000000000000000000001cbabbdd3c5fb95a7000000000000000000000000000000000000000000000000000000000001c1be0000000000000000000000000000000000000000000000000000000000000bb8",
          "blockHash": "0x9945de9e472139ac57c87e2d23fcb76a8158b45e77c37502b38c60534b151c6b",
          "blockNumber": "0xa93709",
          "blockTimestamp": "0x6a345ea8",
          "transactionHash": "0xf8f1a13f8f610ba6704223be843ee709458f2fb7d63427fd86c0c347f51f7cc4",
          "transactionIndex": "0xb6",
          "logIndex": "0xfe",
          "removed": false
        },
        {
          "address": "0xe03a1074c86cfedd5c142c4f04f1a1536e203543",
          "topics": [
            "0x1b3d7edb2e9c0b0e7c525b20aaaef0f5940d2ed71663c7d39266ecafac728859",
            "0x0000000000000000000000000000000000000000000000000000000000000000",
            "0x0000000000000000000000009952d25eda1f305fcdb6ca9029520e33a7263ff8",
            "0x0000000000000000000000008999eac3df09a3f46099130a56c5cb1e9d79ba2a"
          ],
          "data": "0x0000000000000000000000009952d25eda1f305fcdb6ca9029520e33a7263ff80000000000000000000000000000000000000000000000000000c3ff00f2f800",
          "blockHash": "0x9945de9e472139ac57c87e2d23fcb76a8158b45e77c37502b38c60534b151c6b",
          "blockNumber": "0xa93709",
          "blockTimestamp": "0x6a345ea8",
          "transactionHash": "0xf8f1a13f8f610ba6704223be843ee709458f2fb7d63427fd86c0c347f51f7cc4",
          "transactionIndex": "0xb6",
          "logIndex": "0xff",
          "removed": false
        },
        {
          "address": "0x8999eac3df09a3f46099130a56c5cb1e9d79ba2a",
          "topics": [
            "0xddf252ad1be2c89b69c2b068fc378daa952ba7f163c4a11628f55a4df523b3ef",
            "0x000000000000000000000000f93e7518f79c2e1978d6862dbf161270040e623e",
            "0x000000000000000000000000e03a1074c86cfedd5c142c4f04f1a1536e203543"
          ],
          "data": "0x00000000000000000000000000000000000000000000000000038d7ea4c68000",
          "blockHash": "0x9945de9e472139ac57c87e2d23fcb76a8158b45e77c37502b38c60534b151c6b",
          "blockNumber": "0xa93709",
          "blockTimestamp": "0x6a345ea8",
          "transactionHash": "0xf8f1a13f8f610ba6704223be843ee709458f2fb7d63427fd86c0c347f51f7cc4",
          "transactionIndex": "0xb6",
          "logIndex": "0x100",
          "removed": false
        }
      ],
      "logsBloom": "0x00000000000000000000200000000008000000000000001000000000800000000000000000000000000000001000002000000100040000200000000040000000000000000000000000000008000004000000000000000020000000000000000000000000020100000000000080000800000000000000100400000010000040000000000000000000000010000000040000000000000000000000000000180001000002000000000000000000000020000000000000040000000000000000180000000002000000000000000000000000000000002000000000001000000020011000000000000000004000000010000000000004000000000000000004001000",
      "transactionHash": "0xf8f1a13f8f610ba6704223be843ee709458f2fb7d63427fd86c0c347f51f7cc4",
      "transactionIndex": "0xb6",
      "blockHash": "0x9945de9e472139ac57c87e2d23fcb76a8158b45e77c37502b38c60534b151c6b",
      "blockNumber": "0xa93709",
      "gasUsed": "0x2bb57",
      "effectiveGasPrice": "0x3beb46f4",
      "from": "0xf93e7518f79c2e1978d6862dbf161270040e623e",
      "to": "0x00000000000044a361ae3cac094c9d1b14eece97",
      "contractAddress": null
    },
    {
      "type": "0x2",
      "status": "0x1",
      "cumulativeGasUsed": "0x19a94c3",
      "logs": [
        {
          "address": "0xe03a1074c86cfedd5c142c4f04f1a1536e203543",
          "topics": [
            "0x40e9cecb9f5f1f1c5b9c97dec2917b7ee92e57ba5563708daca94dd84ad7112f",
            "0x81d74c428ad55494ca858ba05cc806c16a7c196832d4b9885b8dd3d05457654a",
            "0x0000000000000000000000009952d25eda1f305fcdb6ca9029520e33a7263ff8"
          ],
          "data": "0x000000000000000000000000000000000000000000000000000000008012e4e2ffffffffffffffffffffffffffffffffffffffffffffffffffff3c00ff0d0800000000000000000000000000000000000000013c36c9ca597b89ef56740c4d65000000000000000000000000000000000000000000000001cbabbdd3c5fb95a7000000000000000000000000000000000000000000000000000000000001c1be0000000000000000000000000000000000000000000000000000000000000bb8",
          "blockHash": "0x74af94961fff6aa7a93db2b53834a2aad4aa4421085989ae1c32162292fdb01c",
          "blockNumber": "0xa9370d",
          "blockTimestamp": "0x6a345ed8",
          "transactionHash": "0xfb0ecbc1f0517043582603951e319aee6bb2101255c658cf76ed683cd98f0d2b",
          "transactionIndex": "0x10b",
          "logIndex": "0x5c3",
          "removed": false
        },
        {
          "address": "0xe03a1074c86cfedd5c142c4f04f1a1536e203543",
          "topics": [
            "0x1b3d7edb2e9c0b0e7c525b20aaaef0f5940d2ed71663c7d39266ecafac728859",
            "0x0000000000000000000000009952d25eda1f305fcdb6ca9029520e33a7263ff8",
            "0x0000000000000000000000000000000000000000000000000000000000000000",
            "0x0000000000000000000000008999eac3df09a3f46099130a56c5cb1e9d79ba2a"
          ],
          "data": "0x0000000000000000000000009952d25eda1f305fcdb6ca9029520e33a7263ff80000000000000000000000000000000000000000000000000000c3ff00f2f800",
          "blockHash": "0x74af94961fff6aa7a93db2b53834a2aad4aa4421085989ae1c32162292fdb01c",
          "blockNumber": "0xa9370d",
          "blockTimestamp": "0x6a345ed8",
          "transactionHash": "0xfb0ecbc1f0517043582603951e319aee6bb2101255c658cf76ed683cd98f0d2b",
          "transactionIndex": "0x10b",
          "logIndex": "0x5c4",
          "removed": false
        },
        {
          "address": "0x55c6aedc9d5384f00aecd3515556a150e272168b",
          "topics": [
            "0x6c07ee05dcf262f13abf9d87b846ee789d2f90fe991d495acd7d7fc109ee1f55"
          ],
          "data": "0x00000000000000000000000000000000000000000000000000000000667583e80000000000000000000000000000000000000000000000000000000000093a80",
          "blockHash": "0x74af94961fff6aa7a93db2b53834a2aad4aa4421085989ae1c32162292fdb01c",
          "blockNumber": "0xa9370d",
          "blockTimestamp": "0x6a345ed8",
          "transactionHash": "0xfb0ecbc1f0517043582603951e319aee6bb2101255c658cf76ed683cd98f0d2b",
          "transactionIndex": "0x10b",
          "logIndex": "0x5c5",
          "removed": false
        },
        {
          "address": "0x9952d25eda1f305fcdb6ca9029520e33a7263ff8",
          "topics": [
            "0xda378dba4f1dc8c7a566c70096e0389c466cb99cc2ec74173afd50c7b652ca09"
          ],
          "data": "0x00000000000000000000000000000000000000000000000000000000667583e800000000000000000000000000000000000000000000000000000000199d60fa",
          "blockHash": "0x74af94961fff6aa7a93db2b53834a2aad4aa4421085989ae1c32162292fdb01c",
          "blockNumber": "0xa9370d",
          "blockTimestamp": "0x6a345ed8",
          "transactionHash": "0xfb0ecbc1f0517043582603951e319aee6bb2101255c658cf76ed683cd98f0d2b",
          "transactionIndex": "0x10b",
          "logIndex": "0x5c6",
          "removed": false
        }
      ],
      "logsBloom": "0x00000000000000000000200000000008000001000000000000000000000000000000000000000000000000001000002000000100040000000000000000000000000000000000000000000000000004000000200000000020000000000000000001000000020100000000000000000800000800000000100000000000000000000000000000000000000000000000040000000000000000000000000000000000000002000000000000000000000020000010000000040000000000000008080000000000000000000001000000000000020000002000000000000100000020001000000000000000004000000010000000000004000000000000000004000000",
      "transactionHash": "0xfb0ecbc1f0517043582603951e319aee6bb2101255c658cf76ed683cd98f0d2b",
      "transactionIndex": "0x10b",
      "blockHash": "0x74af94961fff6aa7a93db2b53834a2aad4aa4421085989ae1c32162292fdb01c",
      "blockNumber": "0xa9370d",
      "gasUsed": "0x26096",
      "effectiveGasPrice": "0x3e448c54",
      "from": "0xf93e7518f79c2e1978d6862dbf161270040e623e",
      "to": "0x9952d25eda1f305fcdb6ca9029520e33a7263ff8",
      "contractAddress": null
    },
    {
      "type": "0x2",
      "status": "0x1",
      "cumulativeGasUsed": "0xa0ee95",
      "logs": [
        {
          "address": "0x8999eac3df09a3f46099130a56c5cb1e9d79ba2a",
          "topics": [
            "0x9e71bc8eea02a63969f509818f2dafb9254532904319f9dbda79b67bd34a5f3d",
            "0x000000000000000000000000f93e7518f79c2e1978d6862dbf161270040e623e"
          ],
          "data": "0x0000000000000000000000000000000000000000000000056bc75e2d63100000",
          "blockHash": "0x6515a402777bfffdbed69c3a69ed832b2f4eccb6e99bc0d1e17e93ae7f79753a",
          "blockNumber": "0xa9370e",
          "blockTimestamp": "0x6a345ee4",
          "transactionHash": "0x06b5a64c3a0d963cc7e5877d28da05460e1f8bb1a70f0733b716be036ed3feb5",
          "transactionIndex": "0xa9",
          "logIndex": "0xed",
          "removed": false
        },
        {
          "address": "0x55c6aedc9d5384f00aecd3515556a150e272168b",
          "topics": [
            "0x1449c6dd7851abc30abf37f57715f492010519147cc2652fbc38202c18a6ee90",
            "0x000000000000000000000000f93e7518f79c2e1978d6862dbf161270040e623e"
          ],
          "data": "0x0000000000000000000000000000000000000000000000056bc75e2d6310000000000000000000000000000000000000000000000000001043561a8829300000",
          "blockHash": "0x6515a402777bfffdbed69c3a69ed832b2f4eccb6e99bc0d1e17e93ae7f79753a",
          "blockNumber": "0xa9370e",
          "blockTimestamp": "0x6a345ee4",
          "transactionHash": "0x06b5a64c3a0d963cc7e5877d28da05460e1f8bb1a70f0733b716be036ed3feb5",
          "transactionIndex": "0xa9",
          "logIndex": "0xee",
          "removed": false
        }
      ],
      "logsBloom": "0x00000000000000000000000000000000000001000800000000100000800200000000000000000000000000000000000000000000000000200000000000000000000000000000000000000000000000000000000000000000000000000000000040000000000000000008000000000000000000000000000400000000000000000000100000000000000000000000000000000000000000000000000000100001000000000000000000000000000000000010000000000000000000000000100000000000000000000000000000000000020000000000000000000000000000000000000000000000000000000000000000000000000000000000000000000000",
      "transactionHash": "0x06b5a64c3a0d963cc7e5877d28da05460e1f8bb1a70f0733b716be036ed3feb5",
      "transactionIndex": "0xa9",
      "blockHash": "0x6515a402777bfffdbed69c3a69ed832b2f4eccb6e99bc0d1e17e93ae7f79753a",
      "blockNumber": "0xa9370e",
      "gasUsed": "0x1ffe8",
      "effectiveGasPrice": "0x41d6b9e7",
      "from": "0xf93e7518f79c2e1978d6862dbf161270040e623e",
      "to": "0x55c6aedc9d5384f00aecd3515556a150e272168b",
      "contractAddress": null
    },
    {
      "type": "0x2",
      "status": "0x1",
      "cumulativeGasUsed": "0xd94870",
      "logs": [
        {
          "address": "0x9952d25eda1f305fcdb6ca9029520e33a7263ff8",
          "topics": [
            "0xeb18042c63a6494302e2e34ca89562fb59d5b25ded99d617905bdd7c4f891f03",
            "0x0000000000000000000000000000000000000000000000000000000000000001",
            "0x0000000000000000000000000000000000000000000000000000000000000001"
          ],
          "data": "0x000000000000000000000000000000000000000000000000000000165415df00",
          "blockHash": "0x98b7e6c9d514ff88bd0ca10797c11bc02e972dd2021e51e19cbe9aa740cd804c",
          "blockNumber": "0xa9370f",
          "blockTimestamp": "0x6a345ef0",
          "transactionHash": "0x007ad69ee9c3ee81258b09152353e07170a0e5eda1789752c6122ce30aecb841",
          "transactionIndex": "0xcd",
          "logIndex": "0x124",
          "removed": false
        },
        {
          "address": "0xe03a1074c86cfedd5c142c4f04f1a1536e203543",
          "topics": [
            "0x40e9cecb9f5f1f1c5b9c97dec2917b7ee92e57ba5563708daca94dd84ad7112f",
            "0x81d74c428ad55494ca858ba05cc806c16a7c196832d4b9885b8dd3d05457654a",
            "0x00000000000000000000000000000000000044a361ae3cac094c9d1b14eece97"
          ],
          "data": "0xffffffffffffffffffffffffffffffffffffffffffffffffffffff2d7f70cf00000000000000000000000000000000000000000000000000014034e647237547000000000000000000000000000000000000013c361775fbf4a55856ad2ec502000000000000000000000000000000000000000000000001cbabbdd3c5fb95a7000000000000000000000000000000000000000000000000000000000001c1bd0000000000000000000000000000000000000000000000000000000000000bb8",
          "blockHash": "0x98b7e6c9d514ff88bd0ca10797c11bc02e972dd2021e51e19cbe9aa740cd804c",
          "blockNumber": "0xa9370f",
          "blockTimestamp": "0x6a345ef0",
          "transactionHash": "0x007ad69ee9c3ee81258b09152353e07170a0e5eda1789752c6122ce30aecb841",
          "transactionIndex": "0xcd",
          "logIndex": "0x125",
          "removed": false
        },
        {
          "address": "0xe03a1074c86cfedd5c142c4f04f1a1536e203543",
          "topics": [
            "0x1b3d7edb2e9c0b0e7c525b20aaaef0f5940d2ed71663c7d39266ecafac728859",
            "0x0000000000000000000000000000000000000000000000000000000000000000",
            "0x0000000000000000000000009952d25eda1f305fcdb6ca9029520e33a7263ff8",
            "0x0000000000000000000000000000000000000000000000000000000000000000"
          ],
          "data": "0x0000000000000000000000009952d25eda1f305fcdb6ca9029520e33a7263ff8000000000000000000000000000000000000000000000000000000165415df00",
          "blockHash": "0x98b7e6c9d514ff88bd0ca10797c11bc02e972dd2021e51e19cbe9aa740cd804c",
          "blockNumber": "0xa9370f",
          "blockTimestamp": "0x6a345ef0",
          "transactionHash": "0x007ad69ee9c3ee81258b09152353e07170a0e5eda1789752c6122ce30aecb841",
          "transactionIndex": "0xcd",
          "logIndex": "0x126",
          "removed": false
        },
        {
          "address": "0x8999eac3df09a3f46099130a56c5cb1e9d79ba2a",
          "topics": [
            "0xddf252ad1be2c89b69c2b068fc378daa952ba7f163c4a11628f55a4df523b3ef",
            "0x000000000000000000000000e03a1074c86cfedd5c142c4f04f1a1536e203543",
            "0x000000000000000000000000f93e7518f79c2e1978d6862dbf161270040e623e"
          ],
          "data": "0x000000000000000000000000000000000000000000000000014034e647237547",
          "blockHash": "0x98b7e6c9d514ff88bd0ca10797c11bc02e972dd2021e51e19cbe9aa740cd804c",
          "blockNumber": "0xa9370f",
          "blockTimestamp": "0x6a345ef0",
          "transactionHash": "0x007ad69ee9c3ee81258b09152353e07170a0e5eda1789752c6122ce30aecb841",
          "transactionIndex": "0xcd",
          "logIndex": "0x127",
          "removed": false
        }
      ],
      "logsBloom": "0x00000000000000000000200000000000000000000000001000000000800000000000000000000000000000000000002000000100040000200000000040040000000000000000000000000008000004000000000000040020000000000000000000000000020100000000000080000800000000000000100400000010000040000000000000000000000010000000040000000000000000000000000000180001000002000000000000000000000020000000000000040000000000000000180000000002000000000000000000000000000000002000000000001000000060011000000000000000004000000010000000000000000000000000000004001000",
      "transactionHash": "0x007ad69ee9c3ee81258b09152353e07170a0e5eda1789752c6122ce30aecb841",
      "transactionIndex": "0xcd",
      "blockHash": "0x98b7e6c9d514ff88bd0ca10797c11bc02e972dd2021e51e19cbe9aa740cd804c",
      "blockNumber": "0xa9370f",
      "gasUsed": "0x2e832",
      "effectiveGasPrice": "0x3f9ac983",
      "from": "0xf93e7518f79c2e1978d6862dbf161270040e623e",
      "to": "0x00000000000044a361ae3cac094c9d1b14eece97",
      "contractAddress": null
    },
    {
      "type": "0x2",
      "status": "0x1",
      "cumulativeGasUsed": "0x11fdf3d",
      "logs": [
        {
          "address": "0xe03a1074c86cfedd5c142c4f04f1a1536e203543",
          "topics": [
            "0x1b3d7edb2e9c0b0e7c525b20aaaef0f5940d2ed71663c7d39266ecafac728859",
            "0x0000000000000000000000009952d25eda1f305fcdb6ca9029520e33a7263ff8",
            "0x0000000000000000000000000000000000000000000000000000000000000000",
            "0x0000000000000000000000000000000000000000000000000000000000000000"
          ],
          "data": "0x0000000000000000000000009952d25eda1f305fcdb6ca9029520e33a7263ff8000000000000000000000000000000000000000000000000000000165415df00",
          "blockHash": "0xe04ccb36d046e98463877a7cc5f2ae0c74c788bbd3f50b9e7cb575100d2c06ce",
          "blockNumber": "0xa93710",
          "blockTimestamp": "0x6a345efc",
          "transactionHash": "0xbc4dac15bbfe909975982777d6a4f1890b67052572d399f7cb9277ee5dc41e07",
          "transactionIndex": "0xc9",
          "logIndex": "0x526",
          "removed": false
        },
        {
          "address": "0x55c6aedc9d5384f00aecd3515556a150e272168b",
          "topics": [
            "0x6c07ee05dcf262f13abf9d87b846ee789d2f90fe991d495acd7d7fc109ee1f55"
          ],
          "data": "0x00000000000000000000000000000000000000000000000000000011dcde4c000000000000000000000000000000000000000000000000000000000000093a80",
          "blockHash": "0xe04ccb36d046e98463877a7cc5f2ae0c74c788bbd3f50b9e7cb575100d2c06ce",
          "blockNumber": "0xa93710",
          "blockTimestamp": "0x6a345efc",
          "transactionHash": "0xbc4dac15bbfe909975982777d6a4f1890b67052572d399f7cb9277ee5dc41e07",
          "transactionIndex": "0xc9",
          "logIndex": "0x527",
          "removed": false
        },
        {
          "address": "0x9952d25eda1f305fcdb6ca9029520e33a7263ff8",
          "topics": [
            "0xda378dba4f1dc8c7a566c70096e0389c466cb99cc2ec74173afd50c7b652ca09"
          ],
          "data": "0x00000000000000000000000000000000000000000000000000000011dcde4c000000000000000000000000000000000000000000000000000000000477379300",
          "blockHash": "0xe04ccb36d046e98463877a7cc5f2ae0c74c788bbd3f50b9e7cb575100d2c06ce",
          "blockNumber": "0xa93710",
          "blockTimestamp": "0x6a345efc",
          "transactionHash": "0xbc4dac15bbfe909975982777d6a4f1890b67052572d399f7cb9277ee5dc41e07",
          "transactionIndex": "0xc9",
          "logIndex": "0x528",
          "removed": false
        }
      ],
      "logsBloom": "0x00000000000000000000000000000000000001000000000000000000000000000000000000000000000000000000000000000100000000000000000000000000000000000000000000000000000004000000200000000000000000000000000001000000020100000000000000000800000800000000100000000000000000000000000000000000000000000000040000000000000000000000000000000000000002000000000000000000000020000010000000040000000000000008080000000000000000000001000000000000020000002000000000000100000020001000000000000000000000000000000000000000000000000000000004000000",
      "transactionHash": "0xbc4dac15bbfe909975982777d6a4f1890b67052572d399f7cb9277ee5dc41e07",
      "transactionIndex": "0xc9",
      "blockHash": "0xe04ccb36d046e98463877a7cc5f2ae0c74c788bbd3f50b9e7cb575100d2c06ce",
      "blockNumber": "0xa93710",
      "gasUsed": "0x1cede",
      "effectiveGasPrice": "0x3dca711b",
      "from": "0xf93e7518f79c2e1978d6862dbf161270040e623e",
      "to": "0x9952d25eda1f305fcdb6ca9029520e33a7263ff8",
      "contractAddress": null
    },
    {
      "type": "0x2",
      "status": "0x1",
      "cumulativeGasUsed": "0x166a5a1",
      "logs": [
        {
          "address": "0x55c6aedc9d5384f00aecd3515556a150e272168b",
          "topics": [
            "0xe2403640ba68fed3a2f88b7557551d1993f84b99bb10ff833f0cf8db0c5e0486",
            "0x000000000000000000000000f93e7518f79c2e1978d6862dbf161270040e623e"
          ],
          "data": "0x000000000000000000000000000000000000000000000000000000001e533dd8",
          "blockHash": "0xc5899656efd44871b0308d3aa2d9dd62a0579e563242863c2fb68b6e7d4c1b80",
          "blockNumber": "0xa93711",
          "blockTimestamp": "0x6a345f08",
          "transactionHash": "0xb47994353ad8379a8bffb254b9c5b0e2a59c2c07941e112be6c21e2a7bc56bdb",
          "transactionIndex": "0xe4",
          "logIndex": "0x572",
          "removed": false
        }
      ],
      "logsBloom": "0x00000000000000000000000000000000000001008000000000000000800000000000000000000000000000000000000000000000000000200000000000000000000000000000000000000000000000000000000000000000000000000000000000000000000000000000000000000000000000000000000000000000000000000000000100000000000000000800000000000000000000000000000000100000000000000000000000000000000000000010000000000000000000000000000000000000000000000000000000000000020000000000000000000000000000000000000000000000000000000000000000000000000000000000000000000000",
      "transactionHash": "0xb47994353ad8379a8bffb254b9c5b0e2a59c2c07941e112be6c21e2a7bc56bdb",
      "transactionIndex": "0xe4",
      "blockHash": "0xc5899656efd44871b0308d3aa2d9dd62a0579e563242863c2fb68b6e7d4c1b80",
      "blockNumber": "0xa93711",
      "gasUsed": "0xe4ef",
      "effectiveGasPrice": "0x3c0d71cd",
      "from": "0xf93e7518f79c2e1978d6862dbf161270040e623e",
      "to": "0x55c6aedc9d5384f00aecd3515556a150e272168b",
      "contractAddress": null
    }
  ],
  "libraries": [],
  "pending": [],
  "returns": {},
  "timestamp": 1781817122531,
  "chain": 11155111,
  "commit": "2572d96"
}