{
  "transactions": [
    {
      "hash": "0x91a501790af315c3ca3cf6f12daf78ab0146b9a1ee1e43fa10be02615afe6a0d",
      "transactionType": "CALL",
      "contractName": null,
      "contractAddress": "0x8999eac3df09a3f46099130a56c5cb1e9d79ba2a",
      "function": "approve(address,uint256)",
      "arguments": [
        "0x000000000022D473030F116dDEE9F6B43aC78BA3",
        "115792089237316195423570985008687907853269984665640564039457584007913129639935"
      ],
      "transaction": {
        "from": "0xf93e7518f79c2e1978d6862dbf161270040e623e",
        "to": "0x8999eac3df09a3f46099130a56c5cb1e9d79ba2a",
        "gas": "0x9681",
        "value": "0x0",
        "input": "0x095ea7b3000000000000000000000000000000000022d473030f116ddee9f6b43ac78ba3ffffffffffffffffffffffffffffffffffffffffffffffffffffffffffffffff",
        "nonce": "0x4ca",
        "chainId": "0xaa36a7"
      },
      "additionalContracts": [],
      "isFixedGasLimit": false
    },
    {
      "hash": "0x73f2087310d8a506e8423da0a238c3d4e6502395a7b5c0b88565bd3ea95b2af6",
      "transactionType": "CALL",
      "contractName": null,
      "contractAddress": "0x000000000022d473030f116ddee9f6b43ac78ba3",
      "function": "approve(address,address,uint160,uint48)",
      "arguments": [
        "0x8999Eac3Df09a3f46099130a56c5CB1e9D79bA2a",
        "0x429ba70129df741B2Ca2a85BC3A2a3328e5c09b4",
        "1461501637330902918203684832716283019655932542975",
        "1781901924"
      ],
      "transaction": {
        "from": "0xf93e7518f79c2e1978d6862dbf161270040e623e",
        "to": "0x000000000022d473030f116ddee9f6b43ac78ba3",
        "gas": "0xa59b",
        "value": "0x0",
        "input": "0x87517c450000000000000000000000008999eac3df09a3f46099130a56c5cb1e9d79ba2a000000000000000000000000429ba70129df741b2ca2a85bc3a2a3328e5c09b4000000000000000000000000ffffffffffffffffffffffffffffffffffffffff000000000000000000000000000000000000000000000000000000006a35aa64",
        "nonce": "0x4cb",
        "chainId": "0xaa36a7"
      },
      "additionalContracts": [],
      "isFixedGasLimit": false
    },
    {
      "hash": "0x1201cb0efd762df6af37156771808c58b9665ef2990263cd7e8e97cffd0bef1d",
      "transactionType": "CALL",
      "contractName": null,
      "contractAddress": "0x000000000022d473030f116ddee9f6b43ac78ba3",
      "function": "approve(address,address,uint160,uint48)",
      "arguments": [
        "0x8999Eac3Df09a3f46099130a56c5CB1e9D79bA2a",
        "0x00000000000044a361Ae3cAc094c9D1b14Eece97",
        "1461501637330902918203684832716283019655932542975",
        "1781901924"
      ],
      "transaction": {
        "from": "0xf93e7518f79c2e1978d6862dbf161270040e623e",
        "to": "0x000000000022d473030f116ddee9f6b43ac78ba3",
        "gas": "0x110a1",
        "value": "0x0",
        "input": "0x87517c450000000000000000000000008999eac3df09a3f46099130a56c5cb1e9d79ba2a00000000000000000000000000000000000044a361ae3cac094c9d1b14eece97000000000000000000000000ffffffffffffffffffffffffffffffffffffffff000000000000000000000000000000000000000000000000000000006a35aa64",
        "nonce": "0x4cc",
        "chainId": "0xaa36a7"
      },
      "additionalContracts": [],
      "isFixedGasLimit": false
    },
    {
      "hash": "0xc06354b8043faafed9f93ebbf7e9413102375a671cf4da8eeadca8b2288dfefc",
      "transactionType": "CALL",
      "contractName": null,
      "contractAddress": "0x8999eac3df09a3f46099130a56c5cb1e9d79ba2a",
      "function": "approve(address,uint256)",
      "arguments": [
        "0x00000000000044a361Ae3cAc094c9D1b14Eece97",
        "115792089237316195423570985008687907853269984665640564039457584007913129639935"
      ],
      "transaction": {
        "from": "0xf93e7518f79c2e1978d6862dbf161270040e623e",
        "to": "0x8999eac3df09a3f46099130a56c5cb1e9d79ba2a",
        "gas": "0x1081f",
        "value": "0x0",
        "input": "0x095ea7b300000000000000000000000000000000000044a361ae3cac094c9d1b14eece97ffffffffffffffffffffffffffffffffffffffffffffffffffffffffffffffff",
        "nonce": "0x4cd",
        "chainId": "0xaa36a7"
      },
      "additionalContracts": [],
      "isFixedGasLimit": false
    },
    {
      "hash": "0x66749b1bdd992968621ec5121ab13c06530da17e0891cb65ec800e2f5c9cb2b5",
      "transactionType": "CALL",
      "contractName": null,
      "contractAddress": "0x8999eac3df09a3f46099130a56c5cb1e9d79ba2a",
      "function": "approve(address,uint256)",
      "arguments": [
        "0x55C6aeDC9d5384F00aEcd3515556A150e272168B",
        "115792089237316195423570985008687907853269984665640564039457584007913129639935"
      ],
      "transaction": {
        "from": "0xf93e7518f79c2e1978d6862dbf161270040e623e",
        "to": "0x8999eac3df09a3f46099130a56c5cb1e9d79ba2a",
        "gas": "0x10888",
        "value": "0x0",
        "input": "0x095ea7b300000000000000000000000055c6aedc9d5384f00aecd3515556a150e272168bffffffffffffffffffffffffffffffffffffffffffffffffffffffffffffffff",
        "nonce": "0x4ce",
        "chainId": "0xaa36a7"
      },
      "additionalContracts": [],
      "isFixedGasLimit": false
    },
    {
      "hash": "0xdca0d3323a6bd4397f4eb763dd628ed048e71c82489b39d174ac084f744f1af8",
      "transactionType": "CALL",
      "contractName": null,
      "contractAddress": "0x429ba70129df741b2ca2a85bc3a2a3328e5c09b4",
      "function": "modifyLiquidities(bytes,uint256)",
      "arguments": [
        "0x000000000000000000000000000000000000000000000000000000000000004000000000000000000000000000000000000000000000000000000000000000800000000000000000000000000000000000000000000000000000000000000002020d00000000000000000000000000000000000000000000000000000000000000000000000000000000000000000000000000000000000000000000000000020000000000000000000000000000000000000000000000000000000000000040000000000000000000000000000000000000000000000000000000000000020000000000000000000000000000000000000000000000000000000000000001a000000000000000000000000000000000000000000000000000000000000000000000000000000000000000008999eac3df09a3f46099130a56c5cb1e9d79ba2a0000000000000000000000000000000000000000000000000000000000000bb8000000000000000000000000000000000000000000000000000000000000003c0000000000000000000000009952d25eda1f305fcdb6ca9029520e33a7263ff8fffffffffffffffffffffffffffffffffffffffffffffffffffffffffff2764c00000000000000000000000000000000000000000000000000000000000d89b400000000000000000000000000000000000000000000000006f05b59d3b2000000000000000000000000000000000000ffffffffffffffffffffffffffffffff00000000000000000000000000000000ffffffffffffffffffffffffffffffff000000000000000000000000f93e7518f79c2e1978d6862dbf161270040e623e00000000000000000000000000000000000000000000000000000000000001800000000000000000000000000000000000000000000000000000000000000000000000000000000000000000000000000000000000000000000000000000004000000000000000000000000000000000000000000000000000000000000000000000000000000000000000008999eac3df09a3f46099130a56c5cb1e9d79ba2a",
        "115792089237316195423570985008687907853269984665640564039457584007913129639935"
      ],
      "transaction": {
        "from": "0xf93e7518f79c2e1978d6862dbf161270040e623e",
        "to": "0x429ba70129df741b2ca2a85bc3a2a3328e5c09b4",
        "gas": "0x518eb",
        "value": "0x11c37937e08000",
        "input": "0xdd46508f0000000000000000000000000000000000000000000000000000000000000040ffffffffffffffffffffffffffffffffffffffffffffffffffffffffffffffff0000000000000000000000000000000000000000000000000000000000000300000000000000000000000000000000000000000000000000000000000000004000000000000000000000000000000000000000000000000000000000000000800000000000000000000000000000000000000000000000000000000000000002020d00000000000000000000000000000000000000000000000000000000000000000000000000000000000000000000000000000000000000000000000000020000000000000000000000000000000000000000000000000000000000000040000000000000000000000000000000000000000000000000000000000000020000000000000000000000000000000000000000000000000000000000000001a000000000000000000000000000000000000000000000000000000000000000000000000000000000000000008999eac3df09a3f46099130a56c5cb1e9d79ba2a0000000000000000000000000000000000000000000000000000000000000bb8000000000000000000000000000000000000000000000000000000000000003c0000000000000000000000009952d25eda1f305fcdb6ca9029520e33a7263ff8fffffffffffffffffffffffffffffffffffffffffffffffffffffffffff2764c00000000000000000000000000000000000000000000000000000000000d89b400000000000000000000000000000000000000000000000006f05b59d3b2000000000000000000000000000000000000ffffffffffffffffffffffffffffffff00000000000000000000000000000000ffffffffffffffffffffffffffffffff000000000000000000000000f93e7518f79c2e1978d6862dbf161270040e623e00000000000000000000000000000000000000000000000000000000000001800000000000000000000000000000000000000000000000000000000000000000000000000000000000000000000000000000000000000000000000000000004000000000000000000000000000000000000000000000000000000000000000000000000000000000000000008999eac3df09a3f46099130a56c5cb1e9d79ba2a",
        "nonce": "0x4cf",
        "chainId": "0xaa36a7"
      },
      "additionalContracts": [],
      "isFixedGasLimit": false
    },
    {
      "hash": "0x11ee101fff2b98bb7a16ac5d308c975e0da5846f2d644bb9a9bf9a3a08501a11",
      "transactionType": "CALL",
      "contractName": null,
      "contractAddress": "0x00000000000044a361ae3cac094c9d1b14eece97",
      "function": "swapExactTokensForTokens(uint256,uint256,bool,(address,address,uint24,int24,address),bytes,address,uint256)",
      "arguments": [
        "1000000000000",
        "0",
        "true",
        "(0x0000000000000000000000000000000000000000, 0x8999Eac3Df09a3f46099130a56c5CB1e9D79bA2a, 3000, 60, 0x9952d25eDA1f305fcDb6Ca9029520e33A7263Ff8)",
        "0x",
        "0xF93E7518F79C2E1978D6862Dbf161270040e623E",
        "115792089237316195423570985008687907853269984665640564039457584007913129639935"
      ],
      "transaction": {
        "from": "0xf93e7518f79c2e1978d6862dbf161270040e623e",
        "to": "0x00000000000044a361ae3cac094c9d1b14eece97",
        "gas": "0x49ca7",
        "value": "0xe8d4a51000",
        "input": "0xb1a0d571000000000000000000000000000000000000000000000000000000e8d4a510000000000000000000000000000000000000000000000000000000000000000000000000000000000000000000000000000000000000000000000000000000000100000000000000000000000000000000000000000000000000000000000000000000000000000000000000008999eac3df09a3f46099130a56c5cb1e9d79ba2a0000000000000000000000000000000000000000000000000000000000000bb8000000000000000000000000000000000000000000000000000000000000003c0000000000000000000000009952d25eda1f305fcdb6ca9029520e33a7263ff80000000000000000000000000000000000000000000000000000000000000160000000000000000000000000f93e7518f79c2e1978d6862dbf161270040e623effffffffffffffffffffffffffffffffffffffffffffffffffffffffffffffff0000000000000000000000000000000000000000000000000000000000000000",
        "nonce": "0x4d0",
        "chainId": "0xaa36a7"
      },
      "additionalContracts": [],
      "isFixedGasLimit": false
    },
    {
      "hash": "0x37b723956049aa5aae94fbcd714cc08bcf6b39bebc8ff3bb0c3cd69a9ca3d3dc",
      "transactionType": "CALL",
      "contractName": null,
      "contractAddress": "0x9952d25eda1f305fcdb6ca9029520e33a7263ff8",
      "function": "claimFees(bool)",
      "arguments": [
        "true"
      ],
      "transaction": {
        "from": "0xf93e7518f79c2e1978d6862dbf161270040e623e",
        "to": "0x9952d25eda1f305fcdb6ca9029520e33a7263ff8",
        "gas": "0x4171d",
        "value": "0x0",
        "input": "0x1d4161650000000000000000000000000000000000000000000000000000000000000001",
        "nonce": "0x4d1",
        "chainId": "0xaa36a7"
      },
      "additionalContracts": [],
      "isFixedGasLimit": false
    },
    {
      "hash": "0x6acabf198398d11be49d9d63eab4dec469f0ac5e0c5b8952126707f3de1423d6",
      "transactionType": "CALL",
      "contractName": null,
      "contractAddress": "0x00000000000044a361ae3cac094c9d1b14eece97",
      "function": "swapExactTokensForTokens(uint256,uint256,bool,(address,address,uint24,int24,address),bytes,address,uint256)",
      "arguments": [
        "1000000000000000",
        "0",
        "false",
        "(0x0000000000000000000000000000000000000000, 0x8999Eac3Df09a3f46099130a56c5CB1e9D79bA2a, 3000, 60, 0x9952d25eDA1f305fcDb6Ca9029520e33A7263Ff8)",
        "0x",
        "0xF93E7518F79C2E1978D6862Dbf161270040e623E",
        "115792089237316195423570985008687907853269984665640564039457584007913129639935"
      ],
      "transaction": {
        "from": "0xf93e7518f79c2e1978d6862dbf161270040e623e",
        "to": "0x00000000000044a361ae3cac094c9d1b14eece97",
        "gas": "0x46079",
        "value": "0x0",
        "input": "0xb1a0d57100000000000000000000000000000000000000000000000000038d7ea4c680000000000000000000000000000000000000000000000000000000000000000000000000000000000000000000000000000000000000000000000000000000000000000000000000000000000000000000000000000000000000000000000000000000000000000000000000008999eac3df09a3f46099130a56c5cb1e9d79ba2a0000000000000000000000000000000000000000000000000000000000000bb8000000000000000000000000000000000000000000000000000000000000003c0000000000000000000000009952d25eda1f305fcdb6ca9029520e33a7263ff80000000000000000000000000000000000000000000000000000000000000160000000000000000000000000f93e7518f79c2e1978d6862dbf161270040e623effffffffffffffffffffffffffffffffffffffffffffffffffffffffffffffff0000000000000000000000000000000000000000000000000000000000000000",
        "nonce": "0x4d2",
        "chainId": "0xaa36a7"
      },
      "additionalContracts": [],
      "isFixedGasLimit": false
    },
    {
      "hash": "0x14b5c7e1c0832a0c2ea6b56e873d0080ca57e2e325b1f8b985c509cede3db6e9",
      "transactionType": "CALL",
      "contractName": null,
      "contractAddress": "0x9952d25eda1f305fcdb6ca9029520e33a7263ff8",
      "function": "claimFees(bool)",
      "arguments": [
        "false"
      ],
      "transaction": {
        "from": "0xf93e7518f79c2e1978d6862dbf161270040e623e",
        "to": "0x9952d25eda1f305fcdb6ca9029520e33a7263ff8",
        "gas": "0x31821",
        "value": "0x0",
        "input": "0x1d4161650000000000000000000000000000000000000000000000000000000000000000",
        "nonce": "0x4d3",
        "chainId": "0xaa36a7"
      },
      "additionalContracts": [],
      "isFixedGasLimit": false
    },
    {
      "hash": "0x4dd1280d63c6dca78af96bdd253eb0e92b7e1f1023ec69edf35b801194ac237e",
      "transactionType": "CALL",
      "contractName": null,
      "contractAddress": "0x55c6aedc9d5384f00aecd3515556a150e272168b",
      "function": "stake(uint256)",
      "arguments": [
        "100000000000000000000"
      ],
      "transaction": {
        "from": "0xf93e7518f79c2e1978d6862dbf161270040e623e",
        "to": "0x55c6aedc9d5384f00aecd3515556a150e272168b",
        "gas": "0x3dda6",
        "value": "0x0",
        "input": "0xa694fc3a0000000000000000000000000000000000000000000000056bc75e2d63100000",
        "nonce": "0x4d4",
        "chainId": "0xaa36a7"
      },
      "additionalContracts": [],
      "isFixedGasLimit": false
    },
    {
      "hash": "0xa58cef4367408d40c5481b74132e6d18f93c29cf2b10c6078d40770618d82b7a",
      "transactionType": "CALL",
      "contractName": null,
      "contractAddress": "0x00000000000044a361ae3cac094c9d1b14eece97",
      "function": "swapExactTokensForTokens(uint256,uint256,bool,(address,address,uint24,int24,address),bytes,address,uint256)",
      "arguments": [
        "1000000000000",
        "0",
        "true",
        "(0x0000000000000000000000000000000000000000, 0x8999Eac3Df09a3f46099130a56c5CB1e9D79bA2a, 3000, 60, 0x9952d25eDA1f305fcDb6Ca9029520e33A7263Ff8)",
        "0x",
        "0xF93E7518F79C2E1978D6862Dbf161270040e623E",
        "115792089237316195423570985008687907853269984665640564039457584007913129639935"
      ],
      "transaction": {
        "from": "0xf93e7518f79c2e1978d6862dbf161270040e623e",
        "to": "0x00000000000044a361ae3cac094c9d1b14eece97",
        "gas": "0x3fecb",
        "value": "0xe8d4a51000",
        "input": "0xb1a0d571000000000000000000000000000000000000000000000000000000e8d4a510000000000000000000000000000000000000000000000000000000000000000000000000000000000000000000000000000000000000000000000000000000000100000000000000000000000000000000000000000000000000000000000000000000000000000000000000008999eac3df09a3f46099130a56c5cb1e9d79ba2a0000000000000000000000000000000000000000000000000000000000000bb8000000000000000000000000000000000000000000000000000000000000003c0000000000000000000000009952d25eda1f305fcdb6ca9029520e33a7263ff80000000000000000000000000000000000000000000000000000000000000160000000000000000000000000f93e7518f79c2e1978d6862dbf161270040e623effffffffffffffffffffffffffffffffffffffffffffffffffffffffffffffff0000000000000000000000000000000000000000000000000000000000000000",
        "nonce": "0x4d5",
        "chainId": "0xaa36a7"
      },
      "additionalContracts": [],
      "isFixedGasLimit": false
    },
    {
      "hash": "0xd8be1f2c636348108eff41dcd3caa7a1749f01b3e85c939c78580a21cf2f3514",
      "transactionType": "CALL",
      "contractName": null,
      "contractAddress": "0x9952d25eda1f305fcdb6ca9029520e33a7263ff8",
      "function": "claimFees(bool)",
      "arguments": [
        "true"
      ],
      "transaction": {
        "from": "0xf93e7518f79c2e1978d6862dbf161270040e623e",
        "to": "0x9952d25eda1f305fcdb6ca9029520e33a7263ff8",
        "gas": "0x25202",
        "value": "0x0",
        "input": "0x1d4161650000000000000000000000000000000000000000000000000000000000000001",
        "nonce": "0x4d6",
        "chainId": "0xaa36a7"
      },
      "additionalContracts": [],
      "isFixedGasLimit": false
    },
    {
      "hash": "0xb0dbe82a129b48438d4f523b8e810a661e6d4a5488df4aa78323048114977f36",
      "transactionType": "CALL",
      "contractName": null,
      "contractAddress": "0x8999eac3df09a3f46099130a56c5cb1e9d79ba2a",
      "function": "burn(uint256)",
      "arguments": [
        "10000000000000000000000"
      ],
      "transaction": {
        "from": "0xf93e7518f79c2e1978d6862dbf161270040e623e",
        "to": "0x8999eac3df09a3f46099130a56c5cb1e9d79ba2a",
        "gas": "0x44c61",
        "value": "0x0",
        "input": "0x42966c6800000000000000000000000000000000000000000000021e19e0c9bab2400000",
        "nonce": "0x4d7",
        "chainId": "0xaa36a7"
      },
      "additionalContracts": [],
      "isFixedGasLimit": false
    },
    {
      "hash": null,
      "transactionType": "CALL",
      "contractName": null,
      "contractAddress": "0x429ba70129df741b2ca2a85bc3a2a3328e5c09b4",
      "function": "approve(address,uint256)",
      "arguments": [
        "0x9952d25eDA1f305fcDb6Ca9029520e33A7263Ff8",
        "36087"
      ],
      "transaction": {
        "from": "0xf93e7518f79c2e1978d6862dbf161270040e623e",
        "to": "0x429ba70129df741b2ca2a85bc3a2a3328e5c09b4",
        "gas": "0x10489",
        "value": "0x0",
        "input": "0x095ea7b30000000000000000000000009952d25eda1f305fcdb6ca9029520e33a7263ff80000000000000000000000000000000000000000000000000000000000008cf7",
        "nonce": "0x4d8",
        "chainId": "0xaa36a7"
      },
      "additionalContracts": [],
      "isFixedGasLimit": false
    },
    {
      "hash": null,
      "transactionType": "CALL",
      "contractName": null,
      "contractAddress": "0x9952d25eda1f305fcdb6ca9029520e33a7263ff8",
      "function": "burnLpPosition(uint256)",
      "arguments": [
        "36087"
      ],
      "transaction": {
        "from": "0xf93e7518f79c2e1978d6862dbf161270040e623e",
        "to": "0x9952d25eda1f305fcdb6ca9029520e33a7263ff8",
        "gas": "0x3a51c",
        "value": "0x0",
        "input": "0x32803cbc0000000000000000000000000000000000000000000000000000000000008cf7",
        "nonce": "0x4d9",
        "chainId": "0xaa36a7"
      },
      "additionalContracts": [],
      "isFixedGasLimit": false
    },
    {
      "hash": null,
      "transactionType": "CALL",
      "contractName": null,
      "contractAddress": "0x00000000000044a361ae3cac094c9d1b14eece97",
      "function": "swapExactTokensForTokens(uint256,uint256,bool,(address,address,uint24,int24,address),bytes,address,uint256)",
      "arguments": [
        "1000000000000000",
        "0",
        "false",
        "(0x0000000000000000000000000000000000000000, 0x8999Eac3Df09a3f46099130a56c5CB1e9D79bA2a, 3000, 60, 0x9952d25eDA1f305fcDb6Ca9029520e33A7263Ff8)",
        "0x",
        "0xF93E7518F79C2E1978D6862Dbf161270040e623E",
        "115792089237316195423570985008687907853269984665640564039457584007913129639935"
      ],
      "transaction": {
        "from": "0xf93e7518f79c2e1978d6862dbf161270040e623e",
        "to": "0x00000000000044a361ae3cac094c9d1b14eece97",
        "gas": "0x3c5f6",
        "value": "0x0",
        "input": "0xb1a0d57100000000000000000000000000000000000000000000000000038d7ea4c680000000000000000000000000000000000000000000000000000000000000000000000000000000000000000000000000000000000000000000000000000000000000000000000000000000000000000000000000000000000000000000000000000000000000000000000000008999eac3df09a3f46099130a56c5cb1e9d79ba2a0000000000000000000000000000000000000000000000000000000000000bb8000000000000000000000000000000000000000000000000000000000000003c0000000000000000000000009952d25eda1f305fcdb6ca9029520e33a7263ff80000000000000000000000000000000000000000000000000000000000000160000000000000000000000000f93e7518f79c2e1978d6862dbf161270040e623effffffffffffffffffffffffffffffffffffffffffffffffffffffffffffffff0000000000000000000000000000000000000000000000000000000000000000",
        "nonce": "0x4da",
        "chainId": "0xaa36a7"
      },
      "additionalContracts": [],
      "isFixedGasLimit": false
    },
    {
      "hash": null,
      "transactionType": "CALL",
      "contractName": null,
      "contractAddress": "0x9952d25eda1f305fcdb6ca9029520e33a7263ff8",
      "function": "claimFees(bool)",
      "arguments": [
        "false"
      ],
      "transaction": {
        "from": "0xf93e7518f79c2e1978d6862dbf161270040e623e",
        "to": "0x9952d25eda1f305fcdb6ca9029520e33a7263ff8",
        "gas": "0x31b49",
        "value": "0x0",
        "input": "0x1d4161650000000000000000000000000000000000000000000000000000000000000000",
        "nonce": "0x4db",
        "chainId": "0xaa36a7"
      },
      "additionalContracts": [],
      "isFixedGasLimit": false
    }
  ],
  "receipts": [
    {
      "type": "0x2",
      "status": "0x1",
      "cumulativeGasUsed": "0x16c157f",
      "logs": [
        {
          "address": "0x8999eac3df09a3f46099130a56c5cb1e9d79ba2a",
          "topics": [
            "0x8c5be1e5ebec7d5bd14f71427d1e84f3dd0314c0f7b2291e5b200ac8c7c3b925",
            "0x000000000000000000000000f93e7518f79c2e1978d6862dbf161270040e623e",
            "0x000000000000000000000000000000000022d473030f116ddee9f6b43ac78ba3"
          ],
          "data": "0xffffffffffffffffffffffffffffffffffffffffffffffffffffffffffffffff",
          "blockHash": "0x0735ed5991df3c1797fdba5bcf62538bcf735419add42ccf9bd1d40fc00133e0",
          "blockNumber": "0xa93693",
          "blockTimestamp": "0x6a345914",
          "transactionHash": "0x91a501790af315c3ca3cf6f12daf78ab0146b9a1ee1e43fa10be02615afe6a0d",
          "transactionIndex": "0xf4",
          "logIndex": "0x16d",
          "removed": false
        }
      ],
      "logsBloom": "0x00000000000000000000000000000000000000000000000000000000800000000000000000000000000000000000000000000000800000200000000000200000000000000000000000004000000000000000000000000800000000000000000000000000000000000000000000000000000000000000000400000000000000000000000000000000000000000000000000000000000000000000000000100001020000000000000000000000000000000000000000000000000000000000100000000000000000000000000000000000000000000000000000000000000000000010000000000000000000000000000000000000000000000000000000000000",
      "transactionHash": "0x91a501790af315c3ca3cf6f12daf78ab0146b9a1ee1e43fa10be02615afe6a0d",
      "transactionIndex": "0xf4",
      "blockHash": "0x0735ed5991df3c1797fdba5bcf62538bcf735419add42ccf9bd1d40fc00133e0",
      "blockNumber": "0xa93693",
      "gasUsed": "0x66e9",
      "effectiveGasPrice": "0x406e5205",
      "from": "0xf93e7518f79c2e1978d6862dbf161270040e623e",
      "to": "0x8999eac3df09a3f46099130a56c5cb1e9d79ba2a",
      "contractAddress": null
    },
    {
      "type": "0x2",
      "status": "0x1",
      "cumulativeGasUsed": "0xad4dfc",
      "logs": [
        {
          "address": "0x000000000022d473030f116ddee9f6b43ac78ba3",
          "topics": [
            "0xda9fa7c1b00402c17d0161b249b1ab8bbec047c5a52207b9c112deffd817036b",
            "0x000000000000000000000000f93e7518f79c2e1978d6862dbf161270040e623e",
            "0x0000000000000000000000008999eac3df09a3f46099130a56c5cb1e9d79ba2a",
            "0x000000000000000000000000429ba70129df741b2ca2a85bc3a2a3328e5c09b4"
          ],
          "data": "0x000000000000000000000000ffffffffffffffffffffffffffffffffffffffff000000000000000000000000000000000000000000000000000000006a35aa64",
          "blockHash": "0x04e5eb3d47eb31e2104af9bc682576d73e09922ae1e74bcc8e04c608c67e462d",
          "blockNumber": "0xa93694",
          "blockTimestamp": "0x6a345920",
          "transactionHash": "0x73f2087310d8a506e8423da0a238c3d4e6502395a7b5c0b88565bd3ea95b2af6",
          "transactionIndex": "0x9f",
          "logIndex": "0xe8",
          "removed": false
        }
      ],
      "logsBloom": "0x00010000000000000000000000000008000000000000000000000000800000000000000000000040080000001000000000000000000000200000000000080000000000000000000000000000000000000000000000000000000000000000000000000000000000000000000000000000000000000000000000000800000000000020000000000000000000000000000000000000000000000000000000100000000000000000000000000000000000000000000000000000000000080000000000000000000000000000000000000000000000000000000040000000000000000000000000000000000000000000000000000004000000000000000000000400",
      "transactionHash": "0x73f2087310d8a506e8423da0a238c3d4e6502395a7b5c0b88565bd3ea95b2af6",
      "transactionIndex": "0x9f",
      "blockHash": "0x04e5eb3d47eb31e2104af9bc682576d73e09922ae1e74bcc8e04c608c67e462d",
      "blockNumber": "0xa93694",
      "gasUsed": "0x77e6",
      "effectiveGasPrice": "0x3f026b7d",
      "from": "0xf93e7518f79c2e1978d6862dbf161270040e623e",
      "to": "0x000000000022d473030f116ddee9f6b43ac78ba3",
      "contractAddress": null
    },
    {
      "type": "0x2",
      "status": "0x1",
      "cumulativeGasUsed": "0xd4e543",
      "logs": [
        {
          "address": "0x000000000022d473030f116ddee9f6b43ac78ba3",
          "topics": [
            "0xda9fa7c1b00402c17d0161b249b1ab8bbec047c5a52207b9c112deffd817036b",
            "0x000000000000000000000000f93e7518f79c2e1978d6862dbf161270040e623e",
            "0x0000000000000000000000008999eac3df09a3f46099130a56c5cb1e9d79ba2a",
            "0x00000000000000000000000000000000000044a361ae3cac094c9d1b14eece97"
          ],
          "data": "0x000000000000000000000000ffffffffffffffffffffffffffffffffffffffff000000000000000000000000000000000000000000000000000000006a35aa64",
          "blockHash": "0xeb9e7a6fad4e331c6c0fb479118267483011b3e790f9c6f01f905270ef08ba6c",
          "blockNumber": "0xa93695",
          "blockTimestamp": "0x6a34592c",
          "transactionHash": "0x1201cb0efd762df6af37156771808c58b9665ef2990263cd7e8e97cffd0bef1d",
          "transactionIndex": "0xb1",
          "logIndex": "0x175",
          "removed": false
        }
      ],
      "logsBloom": "0x00010000000000000000000000000008000000000000000000000000800000000000000000000000000000001000000000000000000000200000000040080000000000000000000000000000000000000000000000000000000000000000000000000000000000000000000000000000000000000000000000000000000040000020000000000000000000000000000000000000000000000000000000100000000000000000000000000000000000000000000000000000000000080000000000000000000000000000000000000000000000000000000040000000000000010000000000000000000000000000000000000004000000000000000000000400",
      "transactionHash": "0x1201cb0efd762df6af37156771808c58b9665ef2990263cd7e8e97cffd0bef1d",
      "transactionIndex": "0xb1",
      "blockHash": "0xeb9e7a6fad4e331c6c0fb479118267483011b3e790f9c6f01f905270ef08ba6c",
      "blockNumber": "0xa93695",
      "gasUsed": "0xba6a",
      "effectiveGasPrice": "0x3c67b415",
      "from": "0xf93e7518f79c2e1978d6862dbf161270040e623e",
      "to": "0x000000000022d473030f116ddee9f6b43ac78ba3",
      "contractAddress": null
    },
    {
      "type": "0x2",
      "status": "0x1",
      "cumulativeGasUsed": "0x171a654",
      "logs": [
        {
          "address": "0x8999eac3df09a3f46099130a56c5cb1e9d79ba2a",
          "topics": [
            "0x8c5be1e5ebec7d5bd14f71427d1e84f3dd0314c0f7b2291e5b200ac8c7c3b925",
            "0x000000000000000000000000f93e7518f79c2e1978d6862dbf161270040e623e",
            "0x00000000000000000000000000000000000044a361ae3cac094c9d1b14eece97"
          ],
          "data": "0xffffffffffffffffffffffffffffffffffffffffffffffffffffffffffffffff",
          "blockHash": "0xb35580c09ffeb6ee72c2baf8957c8c28049fb7520b60ed5836d8958a2d4fb16c",
          "blockNumber": "0xa93697",
          "blockTimestamp": "0x6a345944",
          "transactionHash": "0xc06354b8043faafed9f93ebbf7e9413102375a671cf4da8eeadca8b2288dfefc",
          "transactionIndex": "0xa6",
          "logIndex": "0x16f",
          "removed": false
        }
      ],
      "logsBloom": "0x00000000000000000000000000000000000000000000000000000000800000000000000000000000000000000000000000000000000000200000000040200000000000000000000000000000000000000000000000000000000000000000000000000000000000000000000000000000000000000000000400000000000040000000000000000000000000000000000000000000000000000000000000100001020000000000000000000000000000000000000000000000000000000000100000000000000000000000000000000000000000000000000000000000000000010010000000000000000000000000000000000000000000000000000000000000",
      "transactionHash": "0xc06354b8043faafed9f93ebbf7e9413102375a671cf4da8eeadca8b2288dfefc",
      "transactionIndex": "0xa6",
      "blockHash": "0xb35580c09ffeb6ee72c2baf8957c8c28049fb7520b60ed5836d8958a2d4fb16c",
      "blockNumber": "0xa93697",
      "gasUsed": "0xb499",
      "effectiveGasPrice": "0x3f6fe3ce",
      "from": "0xf93e7518f79c2e1978d6862dbf161270040e623e",
      "to": "0x8999eac3df09a3f46099130a56c5cb1e9d79ba2a",
      "contractAddress": null
    },
    {
      "type": "0x2",
      "status": "0x1",
      "cumulativeGasUsed": "0xa501a8",
      "logs": [
        {
          "address": "0x8999eac3df09a3f46099130a56c5cb1e9d79ba2a",
          "topics": [
            "0x8c5be1e5ebec7d5bd14f71427d1e84f3dd0314c0f7b2291e5b200ac8c7c3b925",
            "0x000000000000000000000000f93e7518f79c2e1978d6862dbf161270040e623e",
            "0x00000000000000000000000055c6aedc9d5384f00aecd3515556a150e272168b"
          ],
          "data": "0xffffffffffffffffffffffffffffffffffffffffffffffffffffffffffffffff",
          "blockHash": "0xe221986581423200c9c059b4e52124ff9985f83032bb4ee42bf40a4f83d805f1",
          "blockNumber": "0xa93698",
          "blockTimestamp": "0x6a345950",
          "transactionHash": "0x66749b1bdd992968621ec5121ab13c06530da17e0891cb65ec800e2f5c9cb2b5",
          "transactionIndex": "0x9a",
          "logIndex": "0xcb",
          "removed": false
        }
      ],
      "logsBloom": "0x00000000000000000000000000000000000000000000000000000000800000000000100000000000000000000000000000000000000000200000000000200000000000000000000000000000000000000000000000000000000000000000000000000000000000000000000000000000000000000000000400000000000000000000000000000000000000000000000000000000000000000000000000100001020000000000000000000000000000000002000000000000000000000000100000000000000000000000000000000000000000000000000000000000000000000010000000000000008000000000000000000000000000000000000000000000",
      "transactionHash": "0x66749b1bdd992968621ec5121ab13c06530da17e0891cb65ec800e2f5c9cb2b5",
      "transactionIndex": "0x9a",
      "blockHash": "0xe221986581423200c9c059b4e52124ff9985f83032bb4ee42bf40a4f83d805f1",
      "blockNumber": "0xa93698",
      "gasUsed": "0xb4e1",
      "effectiveGasPrice": "0x3f9ed2fa",
      "from": "0xf93e7518f79c2e1978d6862dbf161270040e623e",
      "to": "0x8999eac3df09a3f46099130a56c5cb1e9d79ba2a",
      "contractAddress": null
    },
    {
      "type": "0x2",
      "status": "0x1",
      "cumulativeGasUsed": "0x38ea190",
      "logs": [
        {
          "address": "0x429ba70129df741b2ca2a85bc3a2a3328e5c09b4",
          "topics": [
            "0xddf252ad1be2c89b69c2b068fc378daa952ba7f163c4a11628f55a4df523b3ef",
            "0x0000000000000000000000000000000000000000000000000000000000000000",
            "0x000000000000000000000000f93e7518f79c2e1978d6862dbf161270040e623e",
            "0x0000000000000000000000000000000000000000000000000000000000008cf7"
          ],
          "data": "0x",
          "blockHash": "0x9fdb274f131c71201b5d23eda2f0d03d932a787b2bdb0a7b8c994bbbe696c2da",
          "blockNumber": "0xa93699",
          "blockTimestamp": "0x6a34595c",
          "transactionHash": "0xdca0d3323a6bd4397f4eb763dd628ed048e71c82489b39d174ac084f744f1af8",
          "transactionIndex": "0xd4",
          "logIndex": "0x13f",
          "removed": false
        },
        {
          "address": "0xe03a1074c86cfedd5c142c4f04f1a1536e203543",
          "topics": [
            "0xf208f4912782fd25c7f114ca3723a2d5dd6f3bcc3ac8db5af63baa85f711d5ec",
            "0x81d74c428ad55494ca858ba05cc806c16a7c196832d4b9885b8dd3d05457654a",
            "0x000000000000000000000000429ba70129df741b2ca2a85bc3a2a3328e5c09b4"
          ],
          "data": "0xfffffffffffffffffffffffffffffffffffffffffffffffffffffffffff2764c00000000000000000000000000000000000000000000000000000000000d89b400000000000000000000000000000000000000000000000006f05b59d3b200000000000000000000000000000000000000000000000000000000000000008cf7",
          "blockHash": "0x9fdb274f131c71201b5d23eda2f0d03d932a787b2bdb0a7b8c994bbbe696c2da",
          "blockNumber": "0xa93699",
          "blockTimestamp": "0x6a34595c",
          "transactionHash": "0xdca0d3323a6bd4397f4eb763dd628ed048e71c82489b39d174ac084f744f1af8",
          "transactionIndex": "0xd4",
          "logIndex": "0x140",
          "removed": false
        },
        {
          "address": "0x8999eac3df09a3f46099130a56c5cb1e9d79ba2a",
          "topics": [
            "0xddf252ad1be2c89b69c2b068fc378daa952ba7f163c4a11628f55a4df523b3ef",
            "0x000000000000000000000000f93e7518f79c2e1978d6862dbf161270040e623e",
            "0x000000000000000000000000e03a1074c86cfedd5c142c4f04f1a1536e203543"
          ],
          "data": "0x00000000000000000000000000000000000000000000000892455adf767bec48",
          "blockHash": "0x9fdb274f131c71201b5d23eda2f0d03d932a787b2bdb0a7b8c994bbbe696c2da",
          "blockNumber": "0xa93699",
          "blockTimestamp": "0x6a34595c",
          "transactionHash": "0xdca0d3323a6bd4397f4eb763dd628ed048e71c82489b39d174ac084f744f1af8",
          "transactionIndex": "0xd4",
          "logIndex": "0x141",
          "removed": false
        }
      ],
      "logsBloom": "0x00000000000000000000201000000000000000000000000000000000880000000000000000000040080000000000002000000100000000200000000000000000000000000000000000000008000000000000000000000000000000000000000000000000020000000000000080000800000000000000100400000810000000000000000001000000000010000000000000001000000004000000000000100001000004000000000000000000000000000000000000400000000000000000100000000002000000000000000000000000000000000000000000001000000020001002000000000000000000000010000004000000000000000000000000000000",
      "transactionHash": "0xdca0d3323a6bd4397f4eb763dd628ed048e71c82489b39d174ac084f744f1af8",
      "transactionIndex": "0xd4",
      "blockHash": "0x9fdb274f131c71201b5d23eda2f0d03d932a787b2bdb0a7b8c994bbbe696c2da",
      "blockNumber": "0xa93699",
      "gasUsed": "0x3b0be",
      "effectiveGasPrice": "0x3b677efa",
      "from": "0xf93e7518f79c2e1978d6862dbf161270040e623e",
      "to": "0x429ba70129df741b2ca2a85bc3a2a3328e5c09b4",
      "contractAddress": null
    },
    {
      "type": "0x2",
      "status": "0x1",
      "cumulativeGasUsed": "0x1811384",
      "logs": [
        {
          "address": "0x9952d25eda1f305fcdb6ca9029520e33a7263ff8",
          "topics": [
            "0xeb18042c63a6494302e2e34ca89562fb59d5b25ded99d617905bdd7c4f891f03",
            "0x0000000000000000000000000000000000000000000000000000000000000001",
            "0x0000000000000000000000000000000000000000000000000000000000000001"
          ],
          "data": "0x00000000000000000000000000000000000000000000000000000016b969d000",
          "blockHash": "0xb06d60f26d9b5a21eb893498e2cc3c9c2bb3864c514c0d4a5f5f64fb72ef9558",
          "blockNumber": "0xa9369a",
          "blockTimestamp": "0x6a345968",
          "transactionHash": "0x11ee101fff2b98bb7a16ac5d308c975e0da5846f2d644bb9a9bf9a3a08501a11",
          "transactionIndex": "0xf9",
          "logIndex": "0x560",
          "removed": false
        },
        {
          "address": "0xe03a1074c86cfedd5c142c4f04f1a1536e203543",
          "topics": [
            "0x40e9cecb9f5f1f1c5b9c97dec2917b7ee92e57ba5563708daca94dd84ad7112f",
            "0x81d74c428ad55494ca858ba05cc806c16a7c196832d4b9885b8dd3d05457654a",
            "0x00000000000000000000000000000000000044a361ae3cac094c9d1b14eece97"
          ],
          "data": "0xffffffffffffffffffffffffffffffffffffffffffffffffffffff2de4c4c000000000000000000000000000000000000000000000000000013fa1dbd7af3a1e000000000000000000000000000000000000013c3997528d5d127d98d9f2a3ff000000000000000000000000000000000000000000000001bdcb07201e9795a7000000000000000000000000000000000000000000000000000000000001c1be0000000000000000000000000000000000000000000000000000000000000bb8",
          "blockHash": "0xb06d60f26d9b5a21eb893498e2cc3c9c2bb3864c514c0d4a5f5f64fb72ef9558",
          "blockNumber": "0xa9369a",
          "blockTimestamp": "0x6a345968",
          "transactionHash": "0x11ee101fff2b98bb7a16ac5d308c975e0da5846f2d644bb9a9bf9a3a08501a11",
          "transactionIndex": "0xf9",
          "logIndex": "0x561",
          "removed": false
        },
        {
          "address": "0xe03a1074c86cfedd5c142c4f04f1a1536e203543",
          "topics": [
            "0x1b3d7edb2e9c0b0e7c525b20aaaef0f5940d2ed71663c7d39266ecafac728859",
            "0x0000000000000000000000000000000000000000000000000000000000000000",
            "0x0000000000000000000000009952d25eda1f305fcdb6ca9029520e33a7263ff8",
            "0x0000000000000000000000000000000000000000000000000000000000000000"
          ],
          "data": "0x0000000000000000000000009952d25eda1f305fcdb6ca9029520e33a7263ff800000000000000000000000000000000000000000000000000000016b969d000",
          "blockHash": "0xb06d60f26d9b5a21eb893498e2cc3c9c2bb3864c514c0d4a5f5f64fb72ef9558",
          "blockNumber": "0xa9369a",
          "blockTimestamp": "0x6a345968",
          "transactionHash": "0x11ee101fff2b98bb7a16ac5d308c975e0da5846f2d644bb9a9bf9a3a08501a11",
          "transactionIndex": "0xf9",
          "logIndex": "0x562",
          "removed": false
        },
        {
          "address": "0x8999eac3df09a3f46099130a56c5cb1e9d79ba2a",
          "topics": [
            "0xddf252ad1be2c89b69c2b068fc378daa952ba7f163c4a11628f55a4df523b3ef",
            "0x000000000000000000000000e03a1074c86cfedd5c142c4f04f1a1536e203543",
            "0x000000000000000000000000f93e7518f79c2e1978d6862dbf161270040e623e"
          ],
          "data": "0x000000000000000000000000000000000000000000000000013fa1dbd7af3a1e",
          "blockHash": "0xb06d60f26d9b5a21eb893498e2cc3c9c2bb3864c514c0d4a5f5f64fb72ef9558",
          "blockNumber": "0xa9369a",
          "blockTimestamp": "0x6a345968",
          "transactionHash": "0x11ee101fff2b98bb7a16ac5d308c975e0da5846f2d644bb9a9bf9a3a08501a11",
          "transactionIndex": "0xf9",
          "logIndex": "0x563",
          "removed": false
        }
      ],
      "logsBloom": "0x00000000000000000000200000000000000000000000001000000000800000000000000000000000000000000000002000000100040000200000000040040000000000000000000000000008000004000000000000040020000000000000000000000000020100000000000080000800000000000000100400000010000040000000000000000000000010000000040000000000000000000000000000180001000002000000000000000000000020000000000000040000000000000000180000000002000000000000000000000000000000002000000000001000000060011000000000000000004000000010000000000000000000000000000004001000",
      "transactionHash": "0x11ee101fff2b98bb7a16ac5d308c975e0da5846f2d644bb9a9bf9a3a08501a11",
      "transactionIndex": "0xf9",
      "blockHash": "0xb06d60f26d9b5a21eb893498e2cc3c9c2bb3864c514c0d4a5f5f64fb72ef9558",
      "blockNumber": "0xa9369a",
      "gasUsed": "0x32749",
      "effectiveGasPrice": "0x42d258d2",
      "from": "0xf93e7518f79c2e1978d6862dbf161270040e623e",
      "to": "0x00000000000044a361ae3cac094c9d1b14eece97",
      "contractAddress": null
    },
    {
      "type": "0x2",
      "status": "0x1",
      "cumulativeGasUsed": "0xb2388a",
      "logs": [
        {
          "address": "0xe03a1074c86cfedd5c142c4f04f1a1536e203543",
          "topics": [
            "0x1b3d7edb2e9c0b0e7c525b20aaaef0f5940d2ed71663c7d39266ecafac728859",
            "0x0000000000000000000000009952d25eda1f305fcdb6ca9029520e33a7263ff8",
            "0x0000000000000000000000000000000000000000000000000000000000000000",
            "0x0000000000000000000000000000000000000000000000000000000000000000"
          ],
          "data": "0x0000000000000000000000009952d25eda1f305fcdb6ca9029520e33a7263ff800000000000000000000000000000000000000000000000000000016b969d000",
          "blockHash": "0x59f8e703b72226eec52f12de91f610bf7cd836aa0a8a9b37369c1b6ae275c822",
          "blockNumber": "0xa9369b",
          "blockTimestamp": "0x6a345974",
          "transactionHash": "0x37b723956049aa5aae94fbcd714cc08bcf6b39bebc8ff3bb0c3cd69a9ca3d3dc",
          "transactionIndex": "0xbf",
          "logIndex": "0x123",
          "removed": false
        },
        {
          "address": "0x55c6aedc9d5384f00aecd3515556a150e272168b",
          "topics": [
            "0x6c07ee05dcf262f13abf9d87b846ee789d2f90fe991d495acd7d7fc109ee1f55"
          ],
          "data": "0x000000000000000000000000000000000000000000000000000000122dee40000000000000000000000000000000000000000000000000000000000000093a80",
          "blockHash": "0x59f8e703b72226eec52f12de91f610bf7cd836aa0a8a9b37369c1b6ae275c822",
          "blockNumber": "0xa9369b",
          "blockTimestamp": "0x6a345974",
          "transactionHash": "0x37b723956049aa5aae94fbcd714cc08bcf6b39bebc8ff3bb0c3cd69a9ca3d3dc",
          "transactionIndex": "0xbf",
          "logIndex": "0x124",
          "removed": false
        },
        {
          "address": "0x9952d25eda1f305fcdb6ca9029520e33a7263ff8",
          "topics": [
            "0xda378dba4f1dc8c7a566c70096e0389c466cb99cc2ec74173afd50c7b652ca09"
          ],
          "data": "0x000000000000000000000000000000000000000000000000000000122dee4000000000000000000000000000000000000000000000000000000000048b7b9000",
          "blockHash": "0x59f8e703b72226eec52f12de91f610bf7cd836aa0a8a9b37369c1b6ae275c822",
          "blockNumber": "0xa9369b",
          "blockTimestamp": "0x6a345974",
          "transactionHash": "0x37b723956049aa5aae94fbcd714cc08bcf6b39bebc8ff3bb0c3cd69a9ca3d3dc",
          "transactionIndex": "0xbf",
          "logIndex": "0x125",
          "removed": false
        }
      ],
      "logsBloom": "0x00000000000000000000000000000000000001000000000000000000000000000000000000000000000000000000000000000100000000000000000000000000000000000000000000000000000004000000200000000000000000000000000001000000020100000000000000000800000800000000100000000000000000000000000000000000000000000000040000000000000000000000000000000000000002000000000000000000000020000010000000040000000000000008080000000000000000000001000000000000020000002000000000000100000020001000000000000000000000000000000000000000000000000000000004000000",
      "transactionHash": "0x37b723956049aa5aae94fbcd714cc08bcf6b39bebc8ff3bb0c3cd69a9ca3d3dc",
      "transactionIndex": "0xbf",
      "blockHash": "0x59f8e703b72226eec52f12de91f610bf7cd836aa0a8a9b37369c1b6ae275c822",
      "blockNumber": "0xa9369b",
      "gasUsed": "0x2cbfa",
      "effectiveGasPrice": "0x420f710e",
      "from": "0xf93e7518f79c2e1978d6862dbf161270040e623e",
      "to": "0x9952d25eda1f305fcdb6ca9029520e33a7263ff8",
      "contractAddress": null
    },
    {
      "type": "0x2",
      "status": "0x1",
      "cumulativeGasUsed": "0xce0ad2",
      "logs": [
        {
          "address": "0x9952d25eda1f305fcdb6ca9029520e33a7263ff8",
          "topics": [
            "0xeb18042c63a6494302e2e34ca89562fb59d5b25ded99d617905bdd7c4f891f03",
            "0x0000000000000000000000000000000000000000000000000000000000000000",
            "0x0000000000000000000000000000000000000000000000000000000000000000"
          ],
          "data": "0x0000000000000000000000000000000000000000000000000000c8ff927ed000",
          "blockHash": "0xc204eee06d0eafae2ceaaf110f688e2da63151bf169ad4a2ad5618b4f233c5e1",
          "blockNumber": "0xa9369c",
          "blockTimestamp": "0x6a345980",
          "transactionHash": "0x6acabf198398d11be49d9d63eab4dec469f0ac5e0c5b8952126707f3de1423d6",
          "transactionIndex": "0xab",
          "logIndex": "0x18b",
          "removed": false
        },
        {
          "address": "0xe03a1074c86cfedd5c142c4f04f1a1536e203543",
          "topics": [
            "0x40e9cecb9f5f1f1c5b9c97dec2917b7ee92e57ba5563708daca94dd84ad7112f",
            "0x81d74c428ad55494ca858ba05cc806c16a7c196832d4b9885b8dd3d05457654a",
            "0x00000000000000000000000000000000000044a361ae3cac094c9d1b14eece97"
          ],
          "data": "0x00000000000000000000000000000000000000000000000000000001ceef7587fffffffffffffffffffffffffffffffffffffffffffffffffffd3b80edb85000000000000000000000000000000000000000013c3998e830e21ddf102cdbc007000000000000000000000000000000000000000000000001bdcb07201e9795a7000000000000000000000000000000000000000000000000000000000001c1be0000000000000000000000000000000000000000000000000000000000000bb8",
          "blockHash": "0xc204eee06d0eafae2ceaaf110f688e2da63151bf169ad4a2ad5618b4f233c5e1",
          "blockNumber": "0xa9369c",
          "blockTimestamp": "0x6a345980",
          "transactionHash": "0x6acabf198398d11be49d9d63eab4dec469f0ac5e0c5b8952126707f3de1423d6",
          "transactionIndex": "0xab",
          "logIndex": "0x18c",
          "removed": false
        },
        {
          "address": "0xe03a1074c86cfedd5c142c4f04f1a1536e203543",
          "topics": [
            "0x1b3d7edb2e9c0b0e7c525b20aaaef0f5940d2ed71663c7d39266ecafac728859",
            "0x0000000000000000000000000000000000000000000000000000000000000000",
            "0x0000000000000000000000009952d25eda1f305fcdb6ca9029520e33a7263ff8",
            "0x0000000000000000000000008999eac3df09a3f46099130a56c5cb1e9d79ba2a"
          ],
          "data": "0x0000000000000000000000009952d25eda1f305fcdb6ca9029520e33a7263ff80000000000000000000000000000000000000000000000000000c8ff927ed000",
          "blockHash": "0xc204eee06d0eafae2ceaaf110f688e2da63151bf169ad4a2ad5618b4f233c5e1",
          "blockNumber": "0xa9369c",
          "blockTimestamp": "0x6a345980",
          "transactionHash": "0x6acabf198398d11be49d9d63eab4dec469f0ac5e0c5b8952126707f3de1423d6",
          "transactionIndex": "0xab",
          "logIndex": "0x18d",
          "removed": false
        },
        {
          "address": "0x8999eac3df09a3f46099130a56c5cb1e9d79ba2a",
          "topics": [
            "0xddf252ad1be2c89b69c2b068fc378daa952ba7f163c4a11628f55a4df523b3ef",
            "0x000000000000000000000000f93e7518f79c2e1978d6862dbf161270040e623e",
            "0x000000000000000000000000e03a1074c86cfedd5c142c4f04f1a1536e203543"
          ],
          "data": "0x00000000000000000000000000000000000000000000000000038d7ea4c68000",
          "blockHash": "0xc204eee06d0eafae2ceaaf110f688e2da63151bf169ad4a2ad5618b4f233c5e1",
          "blockNumber": "0xa9369c",
          "blockTimestamp": "0x6a345980",
          "transactionHash": "0x6acabf198398d11be49d9d63eab4dec469f0ac5e0c5b8952126707f3de1423d6",
          "transactionIndex": "0xab",
          "logIndex": "0x18e",
          "removed": false
        }
      ],
      "logsBloom": "0x00000000000000000000200000000008000000000000001000000000800000000000000000000000000000001000002000000100040000200000000040000000000000000000000000000008000004000000000000000020000000000000000000000000020100000000000080000800000000000000100400000010000040000000000000000000000010000000040000000000000000000000000000180001000002000000000000000000000020000000000000040000000000000000180000000002000000000000000000000000000000002000000000001000000020011000000000000000004000000010000000000004000000000000000004001000",
      "transactionHash": "0x6acabf198398d11be49d9d63eab4dec469f0ac5e0c5b8952126707f3de1423d6",
      "transactionIndex": "0xab",
      "blockHash": "0xc204eee06d0eafae2ceaaf110f688e2da63151bf169ad4a2ad5618b4f233c5e1",
      "blockNumber": "0xa9369c",
      "gasUsed": "0x2fe23",
      "effectiveGasPrice": "0x40649965",
      "from": "0xf93e7518f79c2e1978d6862dbf161270040e623e",
      "to": "0x00000000000044a361ae3cac094c9d1b14eece97",
      "contractAddress": null
    },
    {
      "type": "0x2",
      "status": "0x1",
      "cumulativeGasUsed": "0x1881262",
      "logs": [
        {
          "address": "0xe03a1074c86cfedd5c142c4f04f1a1536e203543",
          "topics": [
            "0x40e9cecb9f5f1f1c5b9c97dec2917b7ee92e57ba5563708daca94dd84ad7112f",
            "0x81d74c428ad55494ca858ba05cc806c16a7c196832d4b9885b8dd3d05457654a",
            "0x0000000000000000000000009952d25eda1f305fcdb6ca9029520e33a7263ff8"
          ],
          "data": "0x0000000000000000000000000000000000000000000000000000000083555905ffffffffffffffffffffffffffffffffffffffffffffffffffff37006d813000000000000000000000000000000000000000013c39995b44fbb3aadb992a5ed1000000000000000000000000000000000000000000000001bdcb07201e9795a7000000000000000000000000000000000000000000000000000000000001c1be0000000000000000000000000000000000000000000000000000000000000bb8",
          "blockHash": "0xf9e0923401df1b112ad5c2be57a01287e3639027b182f46ea0e85c7f8b85d798",
          "blockNumber": "0xa9369d",
          "blockTimestamp": "0x6a345998",
          "transactionHash": "0x14b5c7e1c0832a0c2ea6b56e873d0080ca57e2e325b1f8b985c509cede3db6e9",
          "transactionIndex": "0x139",
          "logIndex": "0x1c1",
          "removed": false
        },
        {
          "address": "0xe03a1074c86cfedd5c142c4f04f1a1536e203543",
          "topics": [
            "0x1b3d7edb2e9c0b0e7c525b20aaaef0f5940d2ed71663c7d39266ecafac728859",
            "0x0000000000000000000000009952d25eda1f305fcdb6ca9029520e33a7263ff8",
            "0x0000000000000000000000000000000000000000000000000000000000000000",
            "0x0000000000000000000000008999eac3df09a3f46099130a56c5cb1e9d79ba2a"
          ],
          "data": "0x0000000000000000000000009952d25eda1f305fcdb6ca9029520e33a7263ff80000000000000000000000000000000000000000000000000000c8ff927ed000",
          "blockHash": "0xf9e0923401df1b112ad5c2be57a01287e3639027b182f46ea0e85c7f8b85d798",
          "blockNumber": "0xa9369d",
          "blockTimestamp": "0x6a345998",
          "transactionHash": "0x14b5c7e1c0832a0c2ea6b56e873d0080ca57e2e325b1f8b985c509cede3db6e9",
          "transactionIndex": "0x139",
          "logIndex": "0x1c2",
          "removed": false
        },
        {
          "address": "0x55c6aedc9d5384f00aecd3515556a150e272168b",
          "topics": [
            "0x6c07ee05dcf262f13abf9d87b846ee789d2f90fe991d495acd7d7fc109ee1f55"
          ],
          "data": "0x00000000000000000000000000000000000000000000000000000000691114040000000000000000000000000000000000000000000000000000000000093a80",
          "blockHash": "0xf9e0923401df1b112ad5c2be57a01287e3639027b182f46ea0e85c7f8b85d798",
          "blockNumber": "0xa9369d",
          "blockTimestamp": "0x6a345998",
          "transactionHash": "0x14b5c7e1c0832a0c2ea6b56e873d0080ca57e2e325b1f8b985c509cede3db6e9",
          "transactionIndex": "0x139",
          "logIndex": "0x1c3",
          "removed": false
        },
        {
          "address": "0x9952d25eda1f305fcdb6ca9029520e33a7263ff8",
          "topics": [
            "0xda378dba4f1dc8c7a566c70096e0389c466cb99cc2ec74173afd50c7b652ca09"
          ],
          "data": "0x0000000000000000000000000000000000000000000000000000000069111404000000000000000000000000000000000000000000000000000000001a444501",
          "blockHash": "0xf9e0923401df1b112ad5c2be57a01287e3639027b182f46ea0e85c7f8b85d798",
          "blockNumber": "0xa9369d",
          "blockTimestamp": "0x6a345998",
          "transactionHash": "0x14b5c7e1c0832a0c2ea6b56e873d0080ca57e2e325b1f8b985c509cede3db6e9",
          "transactionIndex": "0x139",
          "logIndex": "0x1c4",
          "removed": false
        }
      ],
      "logsBloom": "0x00000000000000000000200000000008000001000000000000000000000000000000000000000000000000001000002000000100040000000000000000000000000000000000000000000000000004000000200000000020000000000000000001000000020100000000000000000800000800000000100000000000000000000000000000000000000000000000040000000000000000000000000000000000000002000000000000000000000020000010000000040000000000000008080000000000000000000001000000000000020000002000000000000100000020001000000000000000004000000010000000000004000000000000000004000000",
      "transactionHash": "0x14b5c7e1c0832a0c2ea6b56e873d0080ca57e2e325b1f8b985c509cede3db6e9",
      "transactionIndex": "0x139",
      "blockHash": "0xf9e0923401df1b112ad5c2be57a01287e3639027b182f46ea0e85c7f8b85d798",
      "blockNumber": "0xa9369d",
      "gasUsed": "0x2535e",
      "effectiveGasPrice": "0x3d87c2a7",
      "from": "0xf93e7518f79c2e1978d6862dbf161270040e623e",
      "to": "0x9952d25eda1f305fcdb6ca9029520e33a7263ff8",
      "contractAddress": null
    },
    {
      "type": "0x2",
      "status": "0x1",
      "cumulativeGasUsed": "0x9c4a25",
      "logs": [
        {
          "address": "0x8999eac3df09a3f46099130a56c5cb1e9d79ba2a",
          "topics": [
            "0x9e71bc8eea02a63969f509818f2dafb9254532904319f9dbda79b67bd34a5f3d",
            "0x000000000000000000000000f93e7518f79c2e1978d6862dbf161270040e623e"
          ],
          "data": "0x0000000000000000000000000000000000000000000000056bc75e2d63100000",
          "blockHash": "0x38bf7bee351374c5afaca1c64441c81394798633b0d5b1f021d2776c9d5af628",
          "blockNumber": "0xa9369e",
          "blockTimestamp": "0x6a3459a4",
          "transactionHash": "0x4dd1280d63c6dca78af96bdd253eb0e92b7e1f1023ec69edf35b801194ac237e",
          "transactionIndex": "0xb3",
          "logIndex": "0xbb",
          "removed": false
        },
        {
          "address": "0x55c6aedc9d5384f00aecd3515556a150e272168b",
          "topics": [
            "0x1449c6dd7851abc30abf37f57715f492010519147cc2652fbc38202c18a6ee90",
            "0x000000000000000000000000f93e7518f79c2e1978d6862dbf161270040e623e"
          ],
          "data": "0x0000000000000000000000000000000000000000000000056bc75e2d631000000000000000000000000000000000000000000000000000056bc75e2d63100000",
          "blockHash": "0x38bf7bee351374c5afaca1c64441c81394798633b0d5b1f021d2776c9d5af628",
          "blockNumber": "0xa9369e",
          "blockTimestamp": "0x6a3459a4",
          "transactionHash": "0x4dd1280d63c6dca78af96bdd253eb0e92b7e1f1023ec69edf35b801194ac237e",
          "transactionIndex": "0xb3",
          "logIndex": "0xbc",
          "removed": false
        }
      ],
      "logsBloom": "0x00000000000000000000000000000000000001000800000000100000800200000000000000000000000000000000000000000000000000200000000000000000000000000000000000000000000000000000000000000000000000000000000040000000000000000008000000000000000000000000000400000000000000000000100000000000000000000000000000000000000000000000000000100001000000000000000000000000000000000010000000000000000000000000100000000000000000000000000000000000020000000000000000000000000000000000000000000000000000000000000000000000000000000000000000000000",
      "transactionHash": "0x4dd1280d63c6dca78af96bdd253eb0e92b7e1f1023ec69edf35b801194ac237e",
      "transactionIndex": "0xb3",
      "blockHash": "0x38bf7bee351374c5afaca1c64441c81394798633b0d5b1f021d2776c9d5af628",
      "blockNumber": "0xa9369e",
      "gasUsed": "0x2d76e",
      "effectiveGasPrice": "0x3e9890c6",
      "from": "0xf93e7518f79c2e1978d6862dbf161270040e623e",
      "to": "0x55c6aedc9d5384f00aecd3515556a150e272168b",
      "contractAddress": null
    },
    {
      "type": "0x2",
      "status": "0x1",
      "cumulativeGasUsed": "0xa89466",
      "logs": [
        {
          "address": "0x9952d25eda1f305fcdb6ca9029520e33a7263ff8",
          "topics": [
            "0xeb18042c63a6494302e2e34ca89562fb59d5b25ded99d617905bdd7c4f891f03",
            "0x0000000000000000000000000000000000000000000000000000000000000001",
            "0x0000000000000000000000000000000000000000000000000000000000000001"
          ],
          "data": "0x00000000000000000000000000000000000000000000000000000016b373ef00",
          "blockHash": "0xd560a32c160b7172027bbca929ba44b366c9d9ab3c5fd84c6acb2352dad90010",
          "blockNumber": "0xa936a0",
          "blockTimestamp": "0x6a3459bc",
          "transactionHash": "0xa58cef4367408d40c5481b74132e6d18f93c29cf2b10c6078d40770618d82b7a",
          "transactionIndex": "0xac",
          "logIndex": "0xee",
          "removed": false
        },
        {
          "address": "0xe03a1074c86cfedd5c142c4f04f1a1536e203543",
          "topics": [
            "0x40e9cecb9f5f1f1c5b9c97dec2917b7ee92e57ba5563708daca94dd84ad7112f",
            "0x81d74c428ad55494ca858ba05cc806c16a7c196832d4b9885b8dd3d05457654a",
            "0x00000000000000000000000000000000000044a361ae3cac094c9d1b14eece97"
          ],
          "data": "0xffffffffffffffffffffffffffffffffffffffffffffffffffffff2ddecedf00000000000000000000000000000000000000000000000000013fa97e248b9897000000000000000000000000000000000000013c38e1c9c69dbdbab39d7e4f56000000000000000000000000000000000000000000000001bdcb07201e9795a7000000000000000000000000000000000000000000000000000000000001c1be0000000000000000000000000000000000000000000000000000000000000bb8",
          "blockHash": "0xd560a32c160b7172027bbca929ba44b366c9d9ab3c5fd84c6acb2352dad90010",
          "blockNumber": "0xa936a0",
          "blockTimestamp": "0x6a3459bc",
          "transactionHash": "0xa58cef4367408d40c5481b74132e6d18f93c29cf2b10c6078d40770618d82b7a",
          "transactionIndex": "0xac",
          "logIndex": "0xef",
          "removed": false
        },
        {
          "address": "0xe03a1074c86cfedd5c142c4f04f1a1536e203543",
          "topics": [
            "0x1b3d7edb2e9c0b0e7c525b20aaaef0f5940d2ed71663c7d39266ecafac728859",
            "0x0000000000000000000000000000000000000000000000000000000000000000",
            "0x0000000000000000000000009952d25eda1f305fcdb6ca9029520e33a7263ff8",
            "0x0000000000000000000000000000000000000000000000000000000000000000"
          ],
          "data": "0x0000000000000000000000009952d25eda1f305fcdb6ca9029520e33a7263ff800000000000000000000000000000000000000000000000000000016b373ef00",
          "blockHash": "0xd560a32c160b7172027bbca929ba44b366c9d9ab3c5fd84c6acb2352dad90010",
          "blockNumber": "0xa936a0",
          "blockTimestamp": "0x6a3459bc",
          "transactionHash": "0xa58cef4367408d40c5481b74132e6d18f93c29cf2b10c6078d40770618d82b7a",
          "transactionIndex": "0xac",
          "logIndex": "0xf0",
          "removed": false
        },
        {
          "address": "0x8999eac3df09a3f46099130a56c5cb1e9d79ba2a",
          "topics": [
            "0xddf252ad1be2c89b69c2b068fc378daa952ba7f163c4a11628f55a4df523b3ef",
            "0x000000000000000000000000e03a1074c86cfedd5c142c4f04f1a1536e203543",
            "0x000000000000000000000000f93e7518f79c2e1978d6862dbf161270040e623e"
          ],
          "data": "0x000000000000000000000000000000000000000000000000013fa97e248b9897",
          "blockHash": "0xd560a32c160b7172027bbca929ba44b366c9d9ab3c5fd84c6acb2352dad90010",
          "blockNumber": "0xa936a0",
          "blockTimestamp": "0x6a3459bc",
          "transactionHash": "0xa58cef4367408d40c5481b74132e6d18f93c29cf2b10c6078d40770618d82b7a",
          "transactionIndex": "0xac",
          "logIndex": "0xf1",
          "removed": false
        }
      ],
      "logsBloom": "0x00000000000000000000200000000000000000000000001000000000800000000000000000000000000000000000002000000100040000200000000040040000000000000000000000000008000004000000000000040020000000000000000000000000020100000000000080000800000000000000100400000010000040000000000000000000000010000000040000000000000000000000000000180001000002000000000000000000000020000000000000040000000000000000180000000002000000000000000000000000000000002000000000001000000060011000000000000000004000000010000000000000000000000000000004001000",
      "transactionHash": "0xa58cef4367408d40c5481b74132e6d18f93c29cf2b10c6078d40770618d82b7a",
      "transactionIndex": "0xac",
      "blockHash": "0xd560a32c160b7172027bbca929ba44b366c9d9ab3c5fd84c6acb2352dad90010",
      "blockNumber": "0xa936a0",
      "gasUsed": "0x2e47d",
      "effectiveGasPrice": "0x41746021",
      "from": "0xf93e7518f79c2e1978d6862dbf161270040e623e",
      "to": "0x00000000000044a361ae3cac094c9d1b14eece97",
      "contractAddress": null
    },
    {
      "type": "0x2",
      "status": "0x1",
      "cumulativeGasUsed": "0x1176c27",
      "logs": [
        {
          "address": "0xe03a1074c86cfedd5c142c4f04f1a1536e203543",
          "topics": [
            "0x1b3d7edb2e9c0b0e7c525b20aaaef0f5940d2ed71663c7d39266ecafac728859",
            "0x0000000000000000000000009952d25eda1f305fcdb6ca9029520e33a7263ff8",
            "0x0000000000000000000000000000000000000000000000000000000000000000",
            "0x0000000000000000000000000000000000000000000000000000000000000000"
          ],
          "data": "0x0000000000000000000000009952d25eda1f305fcdb6ca9029520e33a7263ff800000000000000000000000000000000000000000000000000000016b373ef00",
          "blockHash": "0x643ce93f8209939bd07af940030290077582d47bf50a2b8f84d2baffba73d6ec",
          "blockNumber": "0xa936a1",
          "blockTimestamp": "0x6a3459c8",
          "transactionHash": "0xd8be1f2c636348108eff41dcd3caa7a1749f01b3e85c939c78580a21cf2f3514",
          "transactionIndex": "0xcf",
          "logIndex": "0x1a5",
          "removed": false
        },
        {
          "address": "0x55c6aedc9d5384f00aecd3515556a150e272168b",
          "topics": [
            "0x6c07ee05dcf262f13abf9d87b846ee789d2f90fe991d495acd7d7fc109ee1f55"
          ],
          "data": "0x0000000000000000000000000000000000000000000000000000001229298c000000000000000000000000000000000000000000000000000000000000093a80",
          "blockHash": "0x643ce93f8209939bd07af940030290077582d47bf50a2b8f84d2baffba73d6ec",
          "blockNumber": "0xa936a1",
          "blockTimestamp": "0x6a3459c8",
          "transactionHash": "0xd8be1f2c636348108eff41dcd3caa7a1749f01b3e85c939c78580a21cf2f3514",
          "transactionIndex": "0xcf",
          "logIndex": "0x1a6",
          "removed": false
        },
        {
          "address": "0x9952d25eda1f305fcdb6ca9029520e33a7263ff8",
          "topics": [
            "0xda378dba4f1dc8c7a566c70096e0389c466cb99cc2ec74173afd50c7b652ca09"
          ],
          "data": "0x0000000000000000000000000000000000000000000000000000001229298c00000000000000000000000000000000000000000000000000000000048a4a6300",
          "blockHash": "0x643ce93f8209939bd07af940030290077582d47bf50a2b8f84d2baffba73d6ec",
          "blockNumber": "0xa936a1",
          "blockTimestamp": "0x6a3459c8",
          "transactionHash": "0xd8be1f2c636348108eff41dcd3caa7a1749f01b3e85c939c78580a21cf2f3514",
          "transactionIndex": "0xcf",
          "logIndex": "0x1a7",
          "removed": false
        }
      ],
      "logsBloom": "0x00000000000000000000000000000000000001000000000000000000000000000000000000000000000000000000000000000100000000000000000000000000000000000000000000000000000004000000200000000000000000000000000001000000020100000000000000000800000800000000100000000000000000000000000000000000000000000000040000000000000000000000000000000000000002000000000000000000000020000010000000040000000000000008080000000000000000000001000000000000020000002000000000000100000020001000000000000000000000000000000000000000000000000000000004000000",
      "transactionHash": "0xd8be1f2c636348108eff41dcd3caa7a1749f01b3e85c939c78580a21cf2f3514",
      "transactionIndex": "0xcf",
      "blockHash": "0x643ce93f8209939bd07af940030290077582d47bf50a2b8f84d2baffba73d6ec",
      "blockNumber": "0xa936a1",
      "gasUsed": "0x211aa",
      "effectiveGasPrice": "0x3dff61c9",
      "from": "0xf93e7518f79c2e1978d6862dbf161270040e623e",
      "to": "0x9952d25eda1f305fcdb6ca9029520e33a7263ff8",
      "contractAddress": null
    }
  ],
  "libraries": [],
  "pending": [],
  "returns": {},
  "timestamp": 1781815767206,
  "chain": 11155111,
  "commit": "2572d96"
}