{
  "transactions": [
    {
      "hash": "0x2b3abd399595425272df59f23cfe66c6aa3800267bec5d82624d094ad371b253",
      "transactionType": "CALL",
      "contractName": null,
      "contractAddress": "0x882d0ea767b2753c6e9e3c00d9c8d8471f4dcb92",
      "function": "approve(address,uint256)",
      "arguments": [
        "0x000000000022D473030F116dDEE9F6B43aC78BA3",
        "115792089237316195423570985008687907853269984665640564039457584007913129639935"
      ],
      "transaction": {
        "from": "0xf93e7518f79c2e1978d6862dbf161270040e623e",
        "to": "0x882d0ea767b2753c6e9e3c00d9c8d8471f4dcb92",
        "gas": "0x9681",
        "value": "0x0",
        "input": "0x095ea7b3000000000000000000000000000000000022d473030f116ddee9f6b43ac78ba3ffffffffffffffffffffffffffffffffffffffffffffffffffffffffffffffff",
        "nonce": "0x49d",
        "chainId": "0xaa36a7"
      },
      "additionalContracts": [],
      "isFixedGasLimit": false
    },
    {
      "hash": "0x9d998bb1a41aa4f9829b9b2b0c9386d765f41460dba763389ca8f3f458c36ba3",
      "transactionType": "CALL",
      "contractName": null,
      "contractAddress": "0x000000000022d473030f116ddee9f6b43ac78ba3",
      "function": "approve(address,address,uint160,uint48)",
      "arguments": [
        "0x882D0eA767B2753C6E9e3C00D9c8d8471F4dCb92",
        "0x429ba70129df741B2Ca2a85BC3A2a3328e5c09b4",
        "1461501637330902918203684832716283019655932542975",
        "1781897928"
      ],
      "transaction": {
        "from": "0xf93e7518f79c2e1978d6862dbf161270040e623e",
        "to": "0x000000000022d473030f116ddee9f6b43ac78ba3",
        "gas": "0xaf48",
        "value": "0x0",
        "input": "0x87517c45000000000000000000000000882d0ea767b2753c6e9e3c00d9c8d8471f4dcb92000000000000000000000000429ba70129df741b2ca2a85bc3a2a3328e5c09b4000000000000000000000000ffffffffffffffffffffffffffffffffffffffff000000000000000000000000000000000000000000000000000000006a359ac8",
        "nonce": "0x49e",
        "chainId": "0xaa36a7"
      },
      "additionalContracts": [],
      "isFixedGasLimit": false
    },
    {
      "hash": "0xa43d02153e87ca0fc803ec96a32acd411db1267d2c68dcac71efa4d879cb71eb",
      "transactionType": "CALL",
      "contractName": null,
      "contractAddress": "0x000000000022d473030f116ddee9f6b43ac78ba3",
      "function": "approve(address,address,uint160,uint48)",
      "arguments": [
        "0x882D0eA767B2753C6E9e3C00D9c8d8471F4dCb92",
        "0x00000000000044a361Ae3cAc094c9D1b14Eece97",
        "1461501637330902918203684832716283019655932542975",
        "1781897928"
      ],
      "transaction": {
        "from": "0xf93e7518f79c2e1978d6862dbf161270040e623e",
        "to": "0x000000000022d473030f116ddee9f6b43ac78ba3",
        "gas": "0xaede",
        "value": "0x0",
        "input": "0x87517c45000000000000000000000000882d0ea767b2753c6e9e3c00d9c8d8471f4dcb9200000000000000000000000000000000000044a361ae3cac094c9d1b14eece97000000000000000000000000ffffffffffffffffffffffffffffffffffffffff000000000000000000000000000000000000000000000000000000006a359ac8",
        "nonce": "0x49f",
        "chainId": "0xaa36a7"
      },
      "additionalContracts": [],
      "isFixedGasLimit": false
    },
    {
      "hash": "0x2efd890152dca6fc0327ffefa6205306c0f8b2937cc257ee30fc328c0d0ac1ca",
      "transactionType": "CALL",
      "contractName": null,
      "contractAddress": "0x882d0ea767b2753c6e9e3c00d9c8d8471f4dcb92",
      "function": "approve(address,uint256)",
      "arguments": [
        "0x00000000000044a361Ae3cAc094c9D1b14Eece97",
        "115792089237316195423570985008687907853269984665640564039457584007913129639935"
      ],
      "transaction": {
        "from": "0xf93e7518f79c2e1978d6862dbf161270040e623e",
        "to": "0x882d0ea767b2753c6e9e3c00d9c8d8471f4dcb92",
        "gas": "0x8e13",
        "value": "0x0",
        "input": "0x095ea7b300000000000000000000000000000000000044a361ae3cac094c9d1b14eece97ffffffffffffffffffffffffffffffffffffffffffffffffffffffffffffffff",
        "nonce": "0x4a0",
        "chainId": "0xaa36a7"
      },
      "additionalContracts": [],
      "isFixedGasLimit": false
    },
    {
      "hash": "0x3d3964d37e73784d0ccffef9e2cdc2ee0577a22eb722a29089b79c4445d2ceac",
      "transactionType": "CALL",
      "contractName": null,
      "contractAddress": "0x882d0ea767b2753c6e9e3c00d9c8d8471f4dcb92",
      "function": "approve(address,uint256)",
      "arguments": [
        "0x4CbefEF124053240A236d6378e3713A0e1490e7c",
        "115792089237316195423570985008687907853269984665640564039457584007913129639935"
      ],
      "transaction": {
        "from": "0xf93e7518f79c2e1978d6862dbf161270040e623e",
        "to": "0x882d0ea767b2753c6e9e3c00d9c8d8471f4dcb92",
        "gas": "0x8e77",
        "value": "0x0",
        "input": "0x095ea7b30000000000000000000000004cbefef124053240a236d6378e3713a0e1490e7cffffffffffffffffffffffffffffffffffffffffffffffffffffffffffffffff",
        "nonce": "0x4a1",
        "chainId": "0xaa36a7"
      },
      "additionalContracts": [],
      "isFixedGasLimit": false
    },
    {
      "hash": "0x7d1557317833ada3f65e1bde847189038b50f73990351d69e6e18aaa8be69e7d",
      "transactionType": "CALL",
      "contractName": null,
      "contractAddress": "0x429ba70129df741b2ca2a85bc3a2a3328e5c09b4",
      "function": "modifyLiquidities(bytes,uint256)",
      "arguments": [
        "0x000000000000000000000000000000000000000000000000000000000000004000000000000000000000000000000000000000000000000000000000000000800000000000000000000000000000000000000000000000000000000000000002020d00000000000000000000000000000000000000000000000000000000000000000000000000000000000000000000000000000000000000000000000000020000000000000000000000000000000000000000000000000000000000000040000000000000000000000000000000000000000000000000000000000000020000000000000000000000000000000000000000000000000000000000000001a00000000000000000000000000000000000000000000000000000000000000000000000000000000000000000882d0ea767b2753c6e9e3c00d9c8d8471f4dcb920000000000000000000000000000000000000000000000000000000000000bb8000000000000000000000000000000000000000000000000000000000000003c0000000000000000000000001f36effa0d3dd5d6b471d049cda048ad923d7ff8fffffffffffffffffffffffffffffffffffffffffffffffffffffffffff2764c00000000000000000000000000000000000000000000000000000000000d89b400000000000000000000000000000000000000000000000006f05b59d3b2000000000000000000000000000000000000ffffffffffffffffffffffffffffffff00000000000000000000000000000000ffffffffffffffffffffffffffffffff000000000000000000000000f93e7518f79c2e1978d6862dbf161270040e623e0000000000000000000000000000000000000000000000000000000000000180000000000000000000000000000000000000000000000000000000000000000000000000000000000000000000000000000000000000000000000000000000400000000000000000000000000000000000000000000000000000000000000000000000000000000000000000882d0ea767b2753c6e9e3c00d9c8d8471f4dcb92",
        "1781811828"
      ],
      "transaction": {
        "from": "0xf93e7518f79c2e1978d6862dbf161270040e623e",
        "to": "0x429ba70129df741b2ca2a85bc3a2a3328e5c09b4",
        "gas": "0x5edb8",
        "value": "0x11c37937e08000",
        "input": "0xdd46508f0000000000000000000000000000000000000000000000000000000000000040000000000000000000000000000000000000000000000000000000006a344a740000000000000000000000000000000000000000000000000000000000000300000000000000000000000000000000000000000000000000000000000000004000000000000000000000000000000000000000000000000000000000000000800000000000000000000000000000000000000000000000000000000000000002020d00000000000000000000000000000000000000000000000000000000000000000000000000000000000000000000000000000000000000000000000000020000000000000000000000000000000000000000000000000000000000000040000000000000000000000000000000000000000000000000000000000000020000000000000000000000000000000000000000000000000000000000000001a00000000000000000000000000000000000000000000000000000000000000000000000000000000000000000882d0ea767b2753c6e9e3c00d9c8d8471f4dcb920000000000000000000000000000000000000000000000000000000000000bb8000000000000000000000000000000000000000000000000000000000000003c0000000000000000000000001f36effa0d3dd5d6b471d049cda048ad923d7ff8fffffffffffffffffffffffffffffffffffffffffffffffffffffffffff2764c00000000000000000000000000000000000000000000000000000000000d89b400000000000000000000000000000000000000000000000006f05b59d3b2000000000000000000000000000000000000ffffffffffffffffffffffffffffffff00000000000000000000000000000000ffffffffffffffffffffffffffffffff000000000000000000000000f93e7518f79c2e1978d6862dbf161270040e623e0000000000000000000000000000000000000000000000000000000000000180000000000000000000000000000000000000000000000000000000000000000000000000000000000000000000000000000000000000000000000000000000400000000000000000000000000000000000000000000000000000000000000000000000000000000000000000882d0ea767b2753c6e9e3c00d9c8d8471f4dcb92",
        "nonce": "0x4a2",
        "chainId": "0xaa36a7"
      },
      "additionalContracts": [],
      "isFixedGasLimit": false
    },
    {
      "hash": "0x0c11676eae92a736fc5f0187fecd08611b6a742c83f4c84d5583c238da2a05c7",
      "transactionType": "CALL",
      "contractName": null,
      "contractAddress": "0x00000000000044a361ae3cac094c9d1b14eece97",
      "function": "swapExactTokensForTokens(uint256,uint256,bool,(address,address,uint24,int24,address),bytes,address,uint256)",
      "arguments": [
        "1000000000000",
        "0",
        "true",
        "(0x0000000000000000000000000000000000000000, 0x882D0eA767B2753C6E9e3C00D9c8d8471F4dCb92, 3000, 60, 0x1F36efFA0D3dD5D6B471d049cdA048ad923D7fF8)",
        "0x",
        "0xF93E7518F79C2E1978D6862Dbf161270040e623E",
        "1781811828"
      ],
      "transaction": {
        "from": "0xf93e7518f79c2e1978d6862dbf161270040e623e",
        "to": "0x00000000000044a361ae3cac094c9d1b14eece97",
        "gas": "0x3918c",
        "value": "0xe8d4a51000",
        "input": "0xb1a0d571000000000000000000000000000000000000000000000000000000e8d4a51000000000000000000000000000000000000000000000000000000000000000000000000000000000000000000000000000000000000000000000000000000000010000000000000000000000000000000000000000000000000000000000000000000000000000000000000000882d0ea767b2753c6e9e3c00d9c8d8471f4dcb920000000000000000000000000000000000000000000000000000000000000bb8000000000000000000000000000000000000000000000000000000000000003c0000000000000000000000001f36effa0d3dd5d6b471d049cda048ad923d7ff80000000000000000000000000000000000000000000000000000000000000160000000000000000000000000f93e7518f79c2e1978d6862dbf161270040e623e000000000000000000000000000000000000000000000000000000006a344a740000000000000000000000000000000000000000000000000000000000000000",
        "nonce": "0x4a3",
        "chainId": "0xaa36a7"
      },
      "additionalContracts": [],
      "isFixedGasLimit": false
    },
    {
      "hash": "0xcc1a253e35ae6ae00a930befddbeac2a53b6637cc4932453b25b4fef263fb271",
      "transactionType": "CALL",
      "contractName": null,
      "contractAddress": "0x1f36effa0d3dd5d6b471d049cda048ad923d7ff8",
      "function": "claimFees(bool)",
      "arguments": [
        "true"
      ],
      "transaction": {
        "from": "0xf93e7518f79c2e1978d6862dbf161270040e623e",
        "to": "0x1f36effa0d3dd5d6b471d049cda048ad923d7ff8",
        "gas": "0x27f54",
        "value": "0x0",
        "input": "0x1d4161650000000000000000000000000000000000000000000000000000000000000001",
        "nonce": "0x4a4",
        "chainId": "0xaa36a7"
      },
      "additionalContracts": [],
      "isFixedGasLimit": false
    },
    {
      "hash": "0xa8fda10b2499d7360298abba3c93fd7d6e29457c8bb83c088273bc52ed0072d7",
      "transactionType": "CALL",
      "contractName": null,
      "contractAddress": "0x00000000000044a361ae3cac094c9d1b14eece97",
      "function": "swapExactTokensForTokens(uint256,uint256,bool,(address,address,uint24,int24,address),bytes,address,uint256)",
      "arguments": [
        "1000000000000000",
        "0",
        "false",
        "(0x0000000000000000000000000000000000000000, 0x882D0eA767B2753C6E9e3C00D9c8d8471F4dCb92, 3000, 60, 0x1F36efFA0D3dD5D6B471d049cdA048ad923D7fF8)",
        "0x",
        "0xF93E7518F79C2E1978D6862Dbf161270040e623E",
        "1781811828"
      ],
      "transaction": {
        "from": "0xf93e7518f79c2e1978d6862dbf161270040e623e",
        "to": "0x00000000000044a361ae3cac094c9d1b14eece97",
        "gas": "0x3fccb",
        "value": "0x0",
        "input": "0xb1a0d57100000000000000000000000000000000000000000000000000038d7ea4c68000000000000000000000000000000000000000000000000000000000000000000000000000000000000000000000000000000000000000000000000000000000000000000000000000000000000000000000000000000000000000000000000000000000000000000000000000882d0ea767b2753c6e9e3c00d9c8d8471f4dcb920000000000000000000000000000000000000000000000000000000000000bb8000000000000000000000000000000000000000000000000000000000000003c0000000000000000000000001f36effa0d3dd5d6b471d049cda048ad923d7ff80000000000000000000000000000000000000000000000000000000000000160000000000000000000000000f93e7518f79c2e1978d6862dbf161270040e623e000000000000000000000000000000000000000000000000000000006a344a740000000000000000000000000000000000000000000000000000000000000000",
        "nonce": "0x4a5",
        "chainId": "0xaa36a7"
      },
      "additionalContracts": [],
      "isFixedGasLimit": false
    },
    {
      "hash": "0x40fbeea715985d7db7459bf1fc5333ada5a464bcc7363173b5d1cac41e58f7bd",
      "transactionType": "CALL",
      "contractName": null,
      "contractAddress": "0x1f36effa0d3dd5d6b471d049cda048ad923d7ff8",
      "function": "claimFees(bool)",
      "arguments": [
        "false"
      ],
      "transaction": {
        "from": "0xf93e7518f79c2e1978d6862dbf161270040e623e",
        "to": "0x1f36effa0d3dd5d6b471d049cda048ad923d7ff8",
        "gas": "0x31b49",
        "value": "0x0",
        "input": "0x1d4161650000000000000000000000000000000000000000000000000000000000000000",
        "nonce": "0x4a6",
        "chainId": "0xaa36a7"
      },
      "additionalContracts": [],
      "isFixedGasLimit": false
    },
    {
      "hash": "0x0446344e949862e127ab50579d10e541676e8a0c7c4bc8d80e853dbbd10dc36d",
      "transactionType": "CALL",
      "contractName": null,
      "contractAddress": "0x4cbefef124053240a236d6378e3713a0e1490e7c",
      "function": "stake(uint256)",
      "arguments": [
        "100000000000000000000"
      ],
      "transaction": {
        "from": "0xf93e7518f79c2e1978d6862dbf161270040e623e",
        "to": "0x4cbefef124053240a236d6378e3713a0e1490e7c",
        "gas": "0x2e8f6",
        "value": "0x0",
        "input": "0xa694fc3a0000000000000000000000000000000000000000000000056bc75e2d63100000",
        "nonce": "0x4a7",
        "chainId": "0xaa36a7"
      },
      "additionalContracts": [],
      "isFixedGasLimit": false
    },
    {
      "hash": "0x82b4063534d267bb7624775989da2dd7fa7e24a60c941f608950497ccc91c202",
      "transactionType": "CALL",
      "contractName": null,
      "contractAddress": "0x00000000000044a361ae3cac094c9d1b14eece97",
      "function": "swapExactTokensForTokens(uint256,uint256,bool,(address,address,uint24,int24,address),bytes,address,uint256)",
      "arguments": [
        "1000000000000",
        "0",
        "true",
        "(0x0000000000000000000000000000000000000000, 0x882D0eA767B2753C6E9e3C00D9c8d8471F4dCb92, 3000, 60, 0x1F36efFA0D3dD5D6B471d049cdA048ad923D7fF8)",
        "0x",
        "0xF93E7518F79C2E1978D6862Dbf161270040e623E",
        "1781811828"
      ],
      "transaction": {
        "from": "0xf93e7518f79c2e1978d6862dbf161270040e623e",
        "to": "0x00000000000044a361ae3cac094c9d1b14eece97",
        "gas": "0x438f9",
        "value": "0xe8d4a51000",
        "input": "0xb1a0d571000000000000000000000000000000000000000000000000000000e8d4a51000000000000000000000000000000000000000000000000000000000000000000000000000000000000000000000000000000000000000000000000000000000010000000000000000000000000000000000000000000000000000000000000000000000000000000000000000882d0ea767b2753c6e9e3c00d9c8d8471f4dcb920000000000000000000000000000000000000000000000000000000000000bb8000000000000000000000000000000000000000000000000000000000000003c0000000000000000000000001f36effa0d3dd5d6b471d049cda048ad923d7ff80000000000000000000000000000000000000000000000000000000000000160000000000000000000000000f93e7518f79c2e1978d6862dbf161270040e623e000000000000000000000000000000000000000000000000000000006a344a740000000000000000000000000000000000000000000000000000000000000000",
        "nonce": "0x4a8",
        "chainId": "0xaa36a7"
      },
      "additionalContracts": [],
      "isFixedGasLimit": false
    },
    {
      "hash": "0x476121f5c73891d90599a61fb21d7ab2810c4138dd41e9815dc98de9e9852cba",
      "transactionType": "CALL",
      "contractName": null,
      "contractAddress": "0x1f36effa0d3dd5d6b471d049cda048ad923d7ff8",
      "function": "claimFees(bool)",
      "arguments": [
        "true"
      ],
      "transaction": {
        "from": "0xf93e7518f79c2e1978d6862dbf161270040e623e",
        "to": "0x1f36effa0d3dd5d6b471d049cda048ad923d7ff8",
        "gas": "0x25202",
        "value": "0x0",
        "input": "0x1d4161650000000000000000000000000000000000000000000000000000000000000001",
        "nonce": "0x4a9",
        "chainId": "0xaa36a7"
      },
      "additionalContracts": [],
      "isFixedGasLimit": false
    },
    {
      "hash": "0x90652339dbb952fc509a034ee1148e3c1c2b59babd351f5cfbaaf2296d6d6a7e",
      "transactionType": "CALL",
      "contractName": null,
      "contractAddress": "0x4cbefef124053240a236d6378e3713a0e1490e7c",
      "function": "claimReward()",
      "arguments": [],
      "transaction": {
        "from": "0xf93e7518f79c2e1978d6862dbf161270040e623e",
        "to": "0x4cbefef124053240a236d6378e3713a0e1490e7c",
        "gas": "0x10ee3",
        "value": "0x0",
        "input": "0xb88a802f",
        "nonce": "0x4aa",
        "chainId": "0xaa36a7"
      },
      "additionalContracts": [],
      "isFixedGasLimit": false
    },
    {
      "hash": "0x24656d234815d78fa604b564225512401add38f1976f4d0a0c515d821f1273aa",
      "transactionType": "CALL",
      "contractName": null,
      "contractAddress": "0x882d0ea767b2753c6e9e3c00d9c8d8471f4dcb92",
      "function": "burn(uint256)",
      "arguments": [
        "10000000000000000000000"
      ],
      "transaction": {
        "from": "0xf93e7518f79c2e1978d6862dbf161270040e623e",
        "to": "0x882d0ea767b2753c6e9e3c00d9c8d8471f4dcb92",
        "gas": "0x44c61",
        "value": "0x0",
        "input": "0x42966c6800000000000000000000000000000000000000000000021e19e0c9bab2400000",
        "nonce": "0x4ab",
        "chainId": "0xaa36a7"
      },
      "additionalContracts": [],
      "isFixedGasLimit": false
    },
    {
      "hash": "0x9a518f5304a16bdbea443fdc474d095de3913743125568c69feb67b996abdd2b",
      "transactionType": "CALL",
      "contractName": null,
      "contractAddress": "0x2c81ef53a093a8d9d30071e085df329cccf703da",
      "function": "flagLpBurner(address)",
      "arguments": [
        "0xF93E7518F79C2E1978D6862Dbf161270040e623E"
      ],
      "transaction": {
        "from": "0xf93e7518f79c2e1978d6862dbf161270040e623e",
        "to": "0x2c81ef53a093a8d9d30071e085df329cccf703da",
        "gas": "0x23163",
        "value": "0x0",
        "input": "0xafa2f4d6000000000000000000000000f93e7518f79c2e1978d6862dbf161270040e623e",
        "nonce": "0x4ac",
        "chainId": "0xaa36a7"
      },
      "additionalContracts": [],
      "isFixedGasLimit": false
    },
    {
      "hash": "0x04c209006d4496650b45c504b028bd0b811c5727ceaa9dbca0d7e80daa913f67",
      "transactionType": "CALL",
      "contractName": null,
      "contractAddress": "0x00000000000044a361ae3cac094c9d1b14eece97",
      "function": "swapExactTokensForTokens(uint256,uint256,bool,(address,address,uint24,int24,address),bytes,address,uint256)",
      "arguments": [
        "1000000000000000",
        "0",
        "false",
        "(0x0000000000000000000000000000000000000000, 0x882D0eA767B2753C6E9e3C00D9c8d8471F4dCb92, 3000, 60, 0x1F36efFA0D3dD5D6B471d049cdA048ad923D7fF8)",
        "0x",
        "0xF93E7518F79C2E1978D6862Dbf161270040e623E",
        "1781811828"
      ],
      "transaction": {
        "from": "0xf93e7518f79c2e1978d6862dbf161270040e623e",
        "to": "0x00000000000044a361ae3cac094c9d1b14eece97",
        "gas": "0x3fccb",
        "value": "0x0",
        "input": "0xb1a0d57100000000000000000000000000000000000000000000000000038d7ea4c68000000000000000000000000000000000000000000000000000000000000000000000000000000000000000000000000000000000000000000000000000000000000000000000000000000000000000000000000000000000000000000000000000000000000000000000000000882d0ea767b2753c6e9e3c00d9c8d8471f4dcb920000000000000000000000000000000000000000000000000000000000000bb8000000000000000000000000000000000000000000000000000000000000003c0000000000000000000000001f36effa0d3dd5d6b471d049cda048ad923d7ff80000000000000000000000000000000000000000000000000000000000000160000000000000000000000000f93e7518f79c2e1978d6862dbf161270040e623e000000000000000000000000000000000000000000000000000000006a344a740000000000000000000000000000000000000000000000000000000000000000",
        "nonce": "0x4ad",
        "chainId": "0xaa36a7"
      },
      "additionalContracts": [],
      "isFixedGasLimit": false
    },
    {
      "hash": null,
      "transactionType": "CALL",
      "contractName": null,
      "contractAddress": "0x1f36effa0d3dd5d6b471d049cda048ad923d7ff8",
      "function": "claimFees(bool)",
      "arguments": [
        "false"
      ],
      "transaction": {
        "from": "0xf93e7518f79c2e1978d6862dbf161270040e623e",
        "to": "0x1f36effa0d3dd5d6b471d049cda048ad923d7ff8",
        "gas": "0x31b49",
        "value": "0x0",
        "input": "0x1d4161650000000000000000000000000000000000000000000000000000000000000000",
        "nonce": "0x4ae",
        "chainId": "0xaa36a7"
      },
      "additionalContracts": [],
      "isFixedGasLimit": false
    }
  ],
  "receipts": [
    {
      "type": "0x2",
      "status": "0x1",
      "cumulativeGasUsed": "0x152f652",
      "logs": [
        {
          "address": "0x882d0ea767b2753c6e9e3c00d9c8d8471f4dcb92",
          "topics": [
            "0x8c5be1e5ebec7d5bd14f71427d1e84f3dd0314c0f7b2291e5b200ac8c7c3b925",
            "0x000000000000000000000000f93e7518f79c2e1978d6862dbf161270040e623e",
            "0x000000000000000000000000000000000022d473030f116ddee9f6b43ac78ba3"
          ],
          "data": "0xffffffffffffffffffffffffffffffffffffffffffffffffffffffffffffffff",
          "blockHash": "0x234749c60ca48d9c03cba20e795ae8a93925ed563a9ddc11470b5e507499bc09",
          "blockNumber": "0xa93546",
          "blockTimestamp": "0x6a344978",
          "transactionHash": "0x2b3abd399595425272df59f23cfe66c6aa3800267bec5d82624d094ad371b253",
          "transactionIndex": "0x11b",
          "logIndex": "0x1d7",
          "removed": false
        }
      ],
      "logsBloom": "0x00000000000000000000200000000000000000000000000000000000800000000000000000004000000000000000000000000000800000200000000000200000000000000000000000004000000000000000000000000800000000000000000000000000000000000000000000000000000000000000000000000000000080000000000000000000000000000000000000000000000000000000000000100000020000000000000000000000000000000000000000000000000000000000000000000000000000000000000000000000000000000000000000000000000000000010000000000000000000000000000000000000000000000000000000000000",
      "transactionHash": "0x2b3abd399595425272df59f23cfe66c6aa3800267bec5d82624d094ad371b253",
      "transactionIndex": "0x11b",
      "blockHash": "0x234749c60ca48d9c03cba20e795ae8a93925ed563a9ddc11470b5e507499bc09",
      "blockNumber": "0xa93546",
      "gasUsed": "0x66e9",
      "effectiveGasPrice": "0x3fea71d4",
      "from": "0xf93e7518f79c2e1978d6862dbf161270040e623e",
      "to": "0x882d0ea767b2753c6e9e3c00d9c8d8471f4dcb92",
      "contractAddress": null
    },
    {
      "type": "0x2",
      "status": "0x1",
      "cumulativeGasUsed": "0xf82c74",
      "logs": [
        {
          "address": "0x000000000022d473030f116ddee9f6b43ac78ba3",
          "topics": [
            "0xda9fa7c1b00402c17d0161b249b1ab8bbec047c5a52207b9c112deffd817036b",
            "0x000000000000000000000000f93e7518f79c2e1978d6862dbf161270040e623e",
            "0x000000000000000000000000882d0ea767b2753c6e9e3c00d9c8d8471f4dcb92",
            "0x000000000000000000000000429ba70129df741b2ca2a85bc3a2a3328e5c09b4"
          ],
          "data": "0x000000000000000000000000ffffffffffffffffffffffffffffffffffffffff000000000000000000000000000000000000000000000000000000006a359ac8",
          "blockHash": "0xd5f4d661e16a8c8911042fb33efebdfa2fe4036515cd021d71cade69f92b3b54",
          "blockNumber": "0xa93547",
          "blockTimestamp": "0x6a344984",
          "transactionHash": "0x9d998bb1a41aa4f9829b9b2b0c9386d765f41460dba763389ca8f3f458c36ba3",
          "transactionIndex": "0xcf",
          "logIndex": "0x22f",
          "removed": false
        }
      ],
      "logsBloom": "0x00010000000000000000000000000000000000000000000000000000c00000000000000000000040080000000000000000000000000000208000000000080000000000000000000000000000000000000000000000000000000000000000000000000000000000000000000000000000000000000000000000000800000000000020000000040000000000000000000000000000000000000000000000100000000000000000000000000000000000000000000000000000000000080000000000000000000000000000000000000000000000000000000040000000000000000000000000000000000000000000000000000000000000000000000000000400",
      "transactionHash": "0x9d998bb1a41aa4f9829b9b2b0c9386d765f41460dba763389ca8f3f458c36ba3",
      "transactionIndex": "0xcf",
      "blockHash": "0xd5f4d661e16a8c8911042fb33efebdfa2fe4036515cd021d71cade69f92b3b54",
      "blockNumber": "0xa93547",
      "gasUsed": "0x77da",
      "effectiveGasPrice": "0x3e3ad656",
      "from": "0xf93e7518f79c2e1978d6862dbf161270040e623e",
      "to": "0x000000000022d473030f116ddee9f6b43ac78ba3",
      "contractAddress": null
    },
    {
      "type": "0x2",
      "status": "0x1",
      "cumulativeGasUsed": "0x16f41fd",
      "logs": [
        {
          "address": "0x000000000022d473030f116ddee9f6b43ac78ba3",
          "topics": [
            "0xda9fa7c1b00402c17d0161b249b1ab8bbec047c5a52207b9c112deffd817036b",
            "0x000000000000000000000000f93e7518f79c2e1978d6862dbf161270040e623e",
            "0x000000000000000000000000882d0ea767b2753c6e9e3c00d9c8d8471f4dcb92",
            "0x00000000000000000000000000000000000044a361ae3cac094c9d1b14eece97"
          ],
          "data": "0x000000000000000000000000ffffffffffffffffffffffffffffffffffffffff000000000000000000000000000000000000000000000000000000006a359ac8",
          "blockHash": "0x9471991173e6db4e72b244e946a2e2065e128a0cbf74fc60c91efc800436ae39",
          "blockNumber": "0xa9354b",
          "blockTimestamp": "0x6a3449b4",
          "transactionHash": "0xa43d02153e87ca0fc803ec96a32acd411db1267d2c68dcac71efa4d879cb71eb",
          "transactionIndex": "0x13e",
          "logIndex": "0x230",
          "removed": false
        }
      ],
      "logsBloom": "0x00010000000000000000000000000000000000000000000000000000c00000000000000000000000000000000000000000000000000000208000000040080000000000000000000000000000000000000000000000000000000000000000000000000000000000000000000000000000000000000000000000000000000040000020000000040000000000000000000000000000000000000000000000100000000000000000000000000000000000000000000000000000000000080000000000000000000000000000000000000000000000000000000040000000000000010000000000000000000000000000000000000000000000000000000000000400",
      "transactionHash": "0xa43d02153e87ca0fc803ec96a32acd411db1267d2c68dcac71efa4d879cb71eb",
      "transactionIndex": "0x13e",
      "blockHash": "0x9471991173e6db4e72b244e946a2e2065e128a0cbf74fc60c91efc800436ae39",
      "blockNumber": "0xa9354b",
      "gasUsed": "0x7792",
      "effectiveGasPrice": "0x42906ab1",
      "from": "0xf93e7518f79c2e1978d6862dbf161270040e623e",
      "to": "0x000000000022d473030f116ddee9f6b43ac78ba3",
      "contractAddress": null
    },
    {
      "type": "0x2",
      "status": "0x1",
      "cumulativeGasUsed": "0xe71d67",
      "logs": [
        {
          "address": "0x882d0ea767b2753c6e9e3c00d9c8d8471f4dcb92",
          "topics": [
            "0x8c5be1e5ebec7d5bd14f71427d1e84f3dd0314c0f7b2291e5b200ac8c7c3b925",
            "0x000000000000000000000000f93e7518f79c2e1978d6862dbf161270040e623e",
            "0x00000000000000000000000000000000000044a361ae3cac094c9d1b14eece97"
          ],
          "data": "0xffffffffffffffffffffffffffffffffffffffffffffffffffffffffffffffff",
          "blockHash": "0x6dc318f38762523071a156a9519960e502afc697b9c3205f3cc80a1d288531ad",
          "blockNumber": "0xa9354c",
          "blockTimestamp": "0x6a3449c0",
          "transactionHash": "0x2efd890152dca6fc0327ffefa6205306c0f8b2937cc257ee30fc328c0d0ac1ca",
          "transactionIndex": "0xc8",
          "logIndex": "0x1a7",
          "removed": false
        }
      ],
      "logsBloom": "0x000000000000000000002000000000000000000000000000000000008000000000000000000040000000000000000000000000000000002000000000402000000000000000000000000000000000000000000000000000000000000000000000000000000000000000000000000000000000000000000000000000000000c0000000000000000000000000000000000000000000000000000000000000100000020000000000000000000000000000000000000000000000000000000000000000000000000000000000000000000000000000000000000000000000000000010010000000000000000000000000000000000000000000000000000000000000",
      "transactionHash": "0x2efd890152dca6fc0327ffefa6205306c0f8b2937cc257ee30fc328c0d0ac1ca",
      "transactionIndex": "0xc8",
      "blockHash": "0x6dc318f38762523071a156a9519960e502afc697b9c3205f3cc80a1d288531ad",
      "blockNumber": "0xa9354c",
      "gasUsed": "0x66dd",
      "effectiveGasPrice": "0x418de8fd",
      "from": "0xf93e7518f79c2e1978d6862dbf161270040e623e",
      "to": "0x882d0ea767b2753c6e9e3c00d9c8d8471f4dcb92",
      "contractAddress": null
    },
    {
      "type": "0x2",
      "status": "0x1",
      "cumulativeGasUsed": "0x15494bc",
      "logs": [
        {
          "address": "0x882d0ea767b2753c6e9e3c00d9c8d8471f4dcb92",
          "topics": [
            "0x8c5be1e5ebec7d5bd14f71427d1e84f3dd0314c0f7b2291e5b200ac8c7c3b925",
            "0x000000000000000000000000f93e7518f79c2e1978d6862dbf161270040e623e",
            "0x0000000000000000000000004cbefef124053240a236d6378e3713a0e1490e7c"
          ],
          "data": "0xffffffffffffffffffffffffffffffffffffffffffffffffffffffffffffffff",
          "blockHash": "0x7766511d147fdec01af259f6fe09aae584c38076a94951425de69af141b7a0f7",
          "blockNumber": "0xa9354d",
          "blockTimestamp": "0x6a3449cc",
          "transactionHash": "0x3d3964d37e73784d0ccffef9e2cdc2ee0577a22eb722a29089b79c4445d2ceac",
          "transactionIndex": "0x143",
          "logIndex": "0x227",
          "removed": false
        }
      ],
      "logsBloom": "0x00000000000000000000200000000000000000000000000000000000800000000000000000004000000000000000000000000000000000200000000000200000002004000000000000000000000000000000000000000000000000000000000000000000000000000000000000000000000000000000000000000000000080000000000000000000000000000000000000000000000000000000000000100000020000000000000000000000000000000000000000000000000000000000000000000000000000000000000000000000000000000000000000000000000008000010000000000000000000000000000000000000000000000000000000000000",
      "transactionHash": "0x3d3964d37e73784d0ccffef9e2cdc2ee0577a22eb722a29089b79c4445d2ceac",
      "transactionIndex": "0x143",
      "blockHash": "0x7766511d147fdec01af259f6fe09aae584c38076a94951425de69af141b7a0f7",
      "blockNumber": "0xa9354d",
      "gasUsed": "0x6725",
      "effectiveGasPrice": "0x3e4a9322",
      "from": "0xf93e7518f79c2e1978d6862dbf161270040e623e",
      "to": "0x882d0ea767b2753c6e9e3c00d9c8d8471f4dcb92",
      "contractAddress": null
    },
    {
      "type": "0x2",
      "status": "0x1",
      "cumulativeGasUsed": "0x129edb1",
      "logs": [
        {
          "address": "0x429ba70129df741b2ca2a85bc3a2a3328e5c09b4",
          "topics": [
            "0xddf252ad1be2c89b69c2b068fc378daa952ba7f163c4a11628f55a4df523b3ef",
            "0x0000000000000000000000000000000000000000000000000000000000000000",
            "0x000000000000000000000000f93e7518f79c2e1978d6862dbf161270040e623e",
            "0x0000000000000000000000000000000000000000000000000000000000008cf3"
          ],
          "data": "0x",
          "blockHash": "0xd353b03ca86294015d7aa5f92c5c814c4ce061bf7a7e7086cb453637e8a2b3f2",
          "blockNumber": "0xa9354e",
          "blockTimestamp": "0x6a3449d8",
          "transactionHash": "0x7d1557317833ada3f65e1bde847189038b50f73990351d69e6e18aaa8be69e7d",
          "transactionIndex": "0xd7",
          "logIndex": "0x1bb",
          "removed": false
        },
        {
          "address": "0xe03a1074c86cfedd5c142c4f04f1a1536e203543",
          "topics": [
            "0xf208f4912782fd25c7f114ca3723a2d5dd6f3bcc3ac8db5af63baa85f711d5ec",
            "0x4589a9c508c98a154f00cfc2f9b4a6384dd86384d2f9706d2d810a33740379bb",
            "0x000000000000000000000000429ba70129df741b2ca2a85bc3a2a3328e5c09b4"
          ],
          "data": "0xfffffffffffffffffffffffffffffffffffffffffffffffffffffffffff2764c00000000000000000000000000000000000000000000000000000000000d89b400000000000000000000000000000000000000000000000006f05b59d3b200000000000000000000000000000000000000000000000000000000000000008cf3",
          "blockHash": "0xd353b03ca86294015d7aa5f92c5c814c4ce061bf7a7e7086cb453637e8a2b3f2",
          "blockNumber": "0xa9354e",
          "blockTimestamp": "0x6a3449d8",
          "transactionHash": "0x7d1557317833ada3f65e1bde847189038b50f73990351d69e6e18aaa8be69e7d",
          "transactionIndex": "0xd7",
          "logIndex": "0x1bc",
          "removed": false
        },
        {
          "address": "0x882d0ea767b2753c6e9e3c00d9c8d8471f4dcb92",
          "topics": [
            "0xddf252ad1be2c89b69c2b068fc378daa952ba7f163c4a11628f55a4df523b3ef",
            "0x000000000000000000000000f93e7518f79c2e1978d6862dbf161270040e623e",
            "0x000000000000000000000000e03a1074c86cfedd5c142c4f04f1a1536e203543"
          ],
          "data": "0x000000000000000000000000000000000000000000000008923b7a61cbddc1ae",
          "blockHash": "0xd353b03ca86294015d7aa5f92c5c814c4ce061bf7a7e7086cb453637e8a2b3f2",
          "blockNumber": "0xa9354e",
          "blockTimestamp": "0x6a3449d8",
          "transactionHash": "0x7d1557317833ada3f65e1bde847189038b50f73990351d69e6e18aaa8be69e7d",
          "transactionIndex": "0xd7",
          "logIndex": "0x1bd",
          "removed": false
        }
      ],
      "logsBloom": "0x00000000000000000000201000000000000000000000000000000000880000000000000000004040080000000000000000000100000000200000000000000000000000001000000000000008000000000000000000000000000000000000000000000000020000000000000080000800000000000000100000000810000080000000000001000000000012400000000000000000000000000000000000100000000004000000000000000000000000000000000000400000000000000000000000000002000100000000000000000800000200000000000000001000000020001000000000000000000000000000000004000000000000000000000000000000",
      "transactionHash": "0x7d1557317833ada3f65e1bde847189038b50f73990351d69e6e18aaa8be69e7d",
      "transactionIndex": "0xd7",
      "blockHash": "0xd353b03ca86294015d7aa5f92c5c814c4ce061bf7a7e7086cb453637e8a2b3f2",
      "blockNumber": "0xa9354e",
      "gasUsed": "0x44ace",
      "effectiveGasPrice": "0x3d67d0c9",
      "from": "0xf93e7518f79c2e1978d6862dbf161270040e623e",
      "to": "0x429ba70129df741b2ca2a85bc3a2a3328e5c09b4",
      "contractAddress": null
    },
    {
      "type": "0x2",
      "status": "0x1",
      "cumulativeGasUsed": "0x1525813",
      "logs": [
        {
          "address": "0x1f36effa0d3dd5d6b471d049cda048ad923d7ff8",
          "topics": [
            "0xeb18042c63a6494302e2e34ca89562fb59d5b25ded99d617905bdd7c4f891f03",
            "0x0000000000000000000000000000000000000000000000000000000000000001",
            "0x0000000000000000000000000000000000000000000000000000000000000001"
          ],
          "data": "0x00000000000000000000000000000000000000000000000000000016d1415400",
          "blockHash": "0x09d658c7c2138ebaea9c7c9d1a18c3ede25f1ceaad1dcb240efe6f1b62aa7f69",
          "blockNumber": "0xa9354f",
          "blockTimestamp": "0x6a3449e4",
          "transactionHash": "0x0c11676eae92a736fc5f0187fecd08611b6a742c83f4c84d5583c238da2a05c7",
          "transactionIndex": "0xc5",
          "logIndex": "0x1aa",
          "removed": false
        },
        {
          "address": "0xe03a1074c86cfedd5c142c4f04f1a1536e203543",
          "topics": [
            "0x40e9cecb9f5f1f1c5b9c97dec2917b7ee92e57ba5563708daca94dd84ad7112f",
            "0x4589a9c508c98a154f00cfc2f9b4a6384dd86384d2f9706d2d810a33740379bb",
            "0x00000000000000000000000000000000000044a361ae3cac094c9d1b14eece97"
          ],
          "data": "0xffffffffffffffffffffffffffffffffffffffffffffffffffffff2dfc9c4400000000000000000000000000000000000000000000000000013f7ab943968134000000000000000000000000000000000000013c382dd40585b583d4656a7541000000000000000000000000000000000000000000000001c4bb6279f24995a7000000000000000000000000000000000000000000000000000000000001c1be0000000000000000000000000000000000000000000000000000000000000bb8",
          "blockHash": "0x09d658c7c2138ebaea9c7c9d1a18c3ede25f1ceaad1dcb240efe6f1b62aa7f69",
          "blockNumber": "0xa9354f",
          "blockTimestamp": "0x6a3449e4",
          "transactionHash": "0x0c11676eae92a736fc5f0187fecd08611b6a742c83f4c84d5583c238da2a05c7",
          "transactionIndex": "0xc5",
          "logIndex": "0x1ab",
          "removed": false
        },
        {
          "address": "0xe03a1074c86cfedd5c142c4f04f1a1536e203543",
          "topics": [
            "0x1b3d7edb2e9c0b0e7c525b20aaaef0f5940d2ed71663c7d39266ecafac728859",
            "0x0000000000000000000000000000000000000000000000000000000000000000",
            "0x0000000000000000000000001f36effa0d3dd5d6b471d049cda048ad923d7ff8",
            "0x0000000000000000000000000000000000000000000000000000000000000000"
          ],
          "data": "0x0000000000000000000000001f36effa0d3dd5d6b471d049cda048ad923d7ff800000000000000000000000000000000000000000000000000000016d1415400",
          "blockHash": "0x09d658c7c2138ebaea9c7c9d1a18c3ede25f1ceaad1dcb240efe6f1b62aa7f69",
          "blockNumber": "0xa9354f",
          "blockTimestamp": "0x6a3449e4",
          "transactionHash": "0x0c11676eae92a736fc5f0187fecd08611b6a742c83f4c84d5583c238da2a05c7",
          "transactionIndex": "0xc5",
          "logIndex": "0x1ac",
          "removed": false
        },
        {
          "address": "0x882d0ea767b2753c6e9e3c00d9c8d8471f4dcb92",
          "topics": [
            "0xddf252ad1be2c89b69c2b068fc378daa952ba7f163c4a11628f55a4df523b3ef",
            "0x000000000000000000000000e03a1074c86cfedd5c142c4f04f1a1536e203543",
            "0x000000000000000000000000f93e7518f79c2e1978d6862dbf161270040e623e"
          ],
          "data": "0x000000000000000000000000000000000000000000000000013f7ab943968134",
          "blockHash": "0x09d658c7c2138ebaea9c7c9d1a18c3ede25f1ceaad1dcb240efe6f1b62aa7f69",
          "blockNumber": "0xa9354f",
          "blockTimestamp": "0x6a3449e4",
          "transactionHash": "0x0c11676eae92a736fc5f0187fecd08611b6a742c83f4c84d5583c238da2a05c7",
          "transactionIndex": "0xc5",
          "logIndex": "0x1ad",
          "removed": false
        }
      ],
      "logsBloom": "0x000000000000000000002000000000000000000000000010000000008000000000000000000040000040000000000000000001000400002000000000400400000000000000000000002000080000040000000000000400200000000000000000040000000200008000000000800008000000000000001000000000100000c0000000000000000000000012000000000000000000000000000000000000180000000000000000000000000000000020010000000000000000000000000000000000000002000100000000000000000000000200000000000000001000000068011000000000000000004000000000000000000000000000000000000004001000",
      "transactionHash": "0x0c11676eae92a736fc5f0187fecd08611b6a742c83f4c84d5583c238da2a05c7",
      "transactionIndex": "0xc5",
      "blockHash": "0x09d658c7c2138ebaea9c7c9d1a18c3ede25f1ceaad1dcb240efe6f1b62aa7f69",
      "blockNumber": "0xa9354f",
      "gasUsed": "0x29565",
      "effectiveGasPrice": "0x3bac18ab",
      "from": "0xf93e7518f79c2e1978d6862dbf161270040e623e",
      "to": "0x00000000000044a361ae3cac094c9d1b14eece97",
      "contractAddress": null
    },
    {
      "type": "0x2",
      "status": "0x1",
      "cumulativeGasUsed": "0x389fe11",
      "logs": [
        {
          "address": "0xe03a1074c86cfedd5c142c4f04f1a1536e203543",
          "topics": [
            "0x1b3d7edb2e9c0b0e7c525b20aaaef0f5940d2ed71663c7d39266ecafac728859",
            "0x0000000000000000000000001f36effa0d3dd5d6b471d049cda048ad923d7ff8",
            "0x0000000000000000000000000000000000000000000000000000000000000000",
            "0x0000000000000000000000000000000000000000000000000000000000000000"
          ],
          "data": "0x0000000000000000000000001f36effa0d3dd5d6b471d049cda048ad923d7ff800000000000000000000000000000000000000000000000000000016d1415400",
          "blockHash": "0x58c3acfdc84d9827de28fbe67e8b0dc3d619e96bf9a03494e6fb0194b4cda821",
          "blockNumber": "0xa93550",
          "blockTimestamp": "0x6a3449f0",
          "transactionHash": "0xcc1a253e35ae6ae00a930befddbeac2a53b6637cc4932453b25b4fef263fb271",
          "transactionIndex": "0xd1",
          "logIndex": "0x1c1",
          "removed": false
        },
        {
          "address": "0x4cbefef124053240a236d6378e3713a0e1490e7c",
          "topics": [
            "0x6c07ee05dcf262f13abf9d87b846ee789d2f90fe991d495acd7d7fc109ee1f55"
          ],
          "data": "0x00000000000000000000000000000000000000000000000000000012410110000000000000000000000000000000000000000000000000000000000000093a80",
          "blockHash": "0x58c3acfdc84d9827de28fbe67e8b0dc3d619e96bf9a03494e6fb0194b4cda821",
          "blockNumber": "0xa93550",
          "blockTimestamp": "0x6a3449f0",
          "transactionHash": "0xcc1a253e35ae6ae00a930befddbeac2a53b6637cc4932453b25b4fef263fb271",
          "transactionIndex": "0xd1",
          "logIndex": "0x1c2",
          "removed": false
        },
        {
          "address": "0x1f36effa0d3dd5d6b471d049cda048ad923d7ff8",
          "topics": [
            "0xda378dba4f1dc8c7a566c70096e0389c466cb99cc2ec74173afd50c7b652ca09"
          ],
          "data": "0x00000000000000000000000000000000000000000000000000000012410110000000000000000000000000000000000000000000000000000000000490404400",
          "blockHash": "0x58c3acfdc84d9827de28fbe67e8b0dc3d619e96bf9a03494e6fb0194b4cda821",
          "blockNumber": "0xa93550",
          "blockTimestamp": "0x6a3449f0",
          "transactionHash": "0xcc1a253e35ae6ae00a930befddbeac2a53b6637cc4932453b25b4fef263fb271",
          "transactionIndex": "0xd1",
          "logIndex": "0x1c3",
          "removed": false
        }
      ],
      "logsBloom": "0x00000000000000000000000000000000000000000000000000000000000000000000000000000000004000000000000000000100000000000000000000000000000000000000000000200000000004000000200000000000000000000000000005000000020000800000000000000800000800000000100000000000000000000000000000000000000000000000000000000000000000000000000000000000000000000000000000000000000020010000000000000000000000000008000000000000000040000001000000000000000000000000000000000100000028001000000000000000000000000000000000000200000000000000000004000010",
      "transactionHash": "0xcc1a253e35ae6ae00a930befddbeac2a53b6637cc4932453b25b4fef263fb271",
      "transactionIndex": "0xd1",
      "blockHash": "0x58c3acfdc84d9827de28fbe67e8b0dc3d619e96bf9a03494e6fb0194b4cda821",
      "blockNumber": "0xa93550",
      "gasUsed": "0x1cede",
      "effectiveGasPrice": "0x3a83949b",
      "from": "0xf93e7518f79c2e1978d6862dbf161270040e623e",
      "to": "0x1f36effa0d3dd5d6b471d049cda048ad923d7ff8",
      "contractAddress": null
    },
    {
      "type": "0x2",
      "status": "0x1",
      "cumulativeGasUsed": "0x172a2f9",
      "logs": [
        {
          "address": "0x1f36effa0d3dd5d6b471d049cda048ad923d7ff8",
          "topics": [
            "0xeb18042c63a6494302e2e34ca89562fb59d5b25ded99d617905bdd7c4f891f03",
            "0x0000000000000000000000000000000000000000000000000000000000000000",
            "0x0000000000000000000000000000000000000000000000000000000000000000"
          ],
          "data": "0x0000000000000000000000000000000000000000000000000000ca5cd1766800",
          "blockHash": "0xa9af11bc165c3bf807ef2ed2475f190b2611b97d671494a80751becb81fdb163",
          "blockNumber": "0xa93551",
          "blockTimestamp": "0x6a3449fc",
          "transactionHash": "0xa8fda10b2499d7360298abba3c93fd7d6e29457c8bb83c088273bc52ed0072d7",
          "transactionIndex": "0x125",
          "logIndex": "0x240",
          "removed": false
        },
        {
          "address": "0xe03a1074c86cfedd5c142c4f04f1a1536e203543",
          "topics": [
            "0x40e9cecb9f5f1f1c5b9c97dec2917b7ee92e57ba5563708daca94dd84ad7112f",
            "0x4589a9c508c98a154f00cfc2f9b4a6384dd86384d2f9706d2d810a33740379bb",
            "0x00000000000000000000000000000000000044a361ae3cac094c9d1b14eece97"
          ],
          "data": "0x00000000000000000000000000000000000000000000000000000001ce0f62f8fffffffffffffffffffffffffffffffffffffffffffffffffffd3cde2cafe800000000000000000000000000000000000000013c382f62ac923a649dbfc7747e000000000000000000000000000000000000000000000001c4bb6279f24995a7000000000000000000000000000000000000000000000000000000000001c1be0000000000000000000000000000000000000000000000000000000000000bb8",
          "blockHash": "0xa9af11bc165c3bf807ef2ed2475f190b2611b97d671494a80751becb81fdb163",
          "blockNumber": "0xa93551",
          "blockTimestamp": "0x6a3449fc",
          "transactionHash": "0xa8fda10b2499d7360298abba3c93fd7d6e29457c8bb83c088273bc52ed0072d7",
          "transactionIndex": "0x125",
          "logIndex": "0x241",
          "removed": false
        },
        {
          "address": "0xe03a1074c86cfedd5c142c4f04f1a1536e203543",
          "topics": [
            "0x1b3d7edb2e9c0b0e7c525b20aaaef0f5940d2ed71663c7d39266ecafac728859",
            "0x0000000000000000000000000000000000000000000000000000000000000000",
            "0x0000000000000000000000001f36effa0d3dd5d6b471d049cda048ad923d7ff8",
            "0x000000000000000000000000882d0ea767b2753c6e9e3c00d9c8d8471f4dcb92"
          ],
          "data": "0x0000000000000000000000001f36effa0d3dd5d6b471d049cda048ad923d7ff80000000000000000000000000000000000000000000000000000ca5cd1766800",
          "blockHash": "0xa9af11bc165c3bf807ef2ed2475f190b2611b97d671494a80751becb81fdb163",
          "blockNumber": "0xa93551",
          "blockTimestamp": "0x6a3449fc",
          "transactionHash": "0xa8fda10b2499d7360298abba3c93fd7d6e29457c8bb83c088273bc52ed0072d7",
          "transactionIndex": "0x125",
          "logIndex": "0x242",
          "removed": false
        },
        {
          "address": "0x882d0ea767b2753c6e9e3c00d9c8d8471f4dcb92",
          "topics": [
            "0xddf252ad1be2c89b69c2b068fc378daa952ba7f163c4a11628f55a4df523b3ef",
            "0x000000000000000000000000f93e7518f79c2e1978d6862dbf161270040e623e",
            "0x000000000000000000000000e03a1074c86cfedd5c142c4f04f1a1536e203543"
          ],
          "data": "0x00000000000000000000000000000000000000000000000000038d7ea4c68000",
          "blockHash": "0xa9af11bc165c3bf807ef2ed2475f190b2611b97d671494a80751becb81fdb163",
          "blockNumber": "0xa93551",
          "blockTimestamp": "0x6a3449fc",
          "transactionHash": "0xa8fda10b2499d7360298abba3c93fd7d6e29457c8bb83c088273bc52ed0072d7",
          "transactionIndex": "0x125",
          "logIndex": "0x243",
          "removed": false
        }
      ],
      "logsBloom": "0x00000000000000000000200000000000000000000000001000000000c000000000000000000040000040000000000000000001000400002080000000400000000000000000000000002000080000040000000000000000200000000000000000040000000200008000000000800008000000000000001000000000100000c0000000000000040000000012000000000000000000000000000000000000180000000000000000000000000000000020010000000000000000000000000000000000000002000100000000000000000000000200000000000000001000000028011000000000000000004000000000000000000000000000000000000004001000",
      "transactionHash": "0xa8fda10b2499d7360298abba3c93fd7d6e29457c8bb83c088273bc52ed0072d7",
      "transactionIndex": "0x125",
      "blockHash": "0xa9af11bc165c3bf807ef2ed2475f190b2611b97d671494a80751becb81fdb163",
      "blockNumber": "0xa93551",
      "gasUsed": "0x2b9fb",
      "effectiveGasPrice": "0x41d16ab4",
      "from": "0xf93e7518f79c2e1978d6862dbf161270040e623e",
      "to": "0x00000000000044a361ae3cac094c9d1b14eece97",
      "contractAddress": null
    },
    {
      "type": "0x2",
      "status": "0x1",
      "cumulativeGasUsed": "0xfb7fd8",
      "logs": [
        {
          "address": "0xe03a1074c86cfedd5c142c4f04f1a1536e203543",
          "topics": [
            "0x40e9cecb9f5f1f1c5b9c97dec2917b7ee92e57ba5563708daca94dd84ad7112f",
            "0x4589a9c508c98a154f00cfc2f9b4a6384dd86384d2f9706d2d810a33740379bb",
            "0x0000000000000000000000001f36effa0d3dd5d6b471d049cda048ad923d7ff8"
          ],
          "data": "0x00000000000000000000000000000000000000000000000000000000843aba5affffffffffffffffffffffffffffffffffffffffffffffffffff35a32e899800000000000000000000000000000000000000013c382fd4c2090d47ed989c19ba000000000000000000000000000000000000000000000001c4bb6279f24995a7000000000000000000000000000000000000000000000000000000000001c1be0000000000000000000000000000000000000000000000000000000000000bb8",
          "blockHash": "0x2aebc7f2d051ace2736b8cbb2aed3505d54621376c306deec781391d74ccc00a",
          "blockNumber": "0xa93552",
          "blockTimestamp": "0x6a344a08",
          "transactionHash": "0x40fbeea715985d7db7459bf1fc5333ada5a464bcc7363173b5d1cac41e58f7bd",
          "transactionIndex": "0xce",
          "logIndex": "0x1f9",
          "removed": false
        },
        {
          "address": "0xe03a1074c86cfedd5c142c4f04f1a1536e203543",
          "topics": [
            "0x1b3d7edb2e9c0b0e7c525b20aaaef0f5940d2ed71663c7d39266ecafac728859",
            "0x0000000000000000000000001f36effa0d3dd5d6b471d049cda048ad923d7ff8",
            "0x0000000000000000000000000000000000000000000000000000000000000000",
            "0x000000000000000000000000882d0ea767b2753c6e9e3c00d9c8d8471f4dcb92"
          ],
          "data": "0x0000000000000000000000001f36effa0d3dd5d6b471d049cda048ad923d7ff80000000000000000000000000000000000000000000000000000ca5cd1766800",
          "blockHash": "0x2aebc7f2d051ace2736b8cbb2aed3505d54621376c306deec781391d74ccc00a",
          "blockNumber": "0xa93552",
          "blockTimestamp": "0x6a344a08",
          "transactionHash": "0x40fbeea715985d7db7459bf1fc5333ada5a464bcc7363173b5d1cac41e58f7bd",
          "transactionIndex": "0xce",
          "logIndex": "0x1fa",
          "removed": false
        },
        {
          "address": "0x4cbefef124053240a236d6378e3713a0e1490e7c",
          "topics": [
            "0x6c07ee05dcf262f13abf9d87b846ee789d2f90fe991d495acd7d7fc109ee1f55"
          ],
          "data": "0x0000000000000000000000000000000000000000000000000000000069c895140000000000000000000000000000000000000000000000000000000000093a80",
          "blockHash": "0x2aebc7f2d051ace2736b8cbb2aed3505d54621376c306deec781391d74ccc00a",
          "blockNumber": "0xa93552",
          "blockTimestamp": "0x6a344a08",
          "transactionHash": "0x40fbeea715985d7db7459bf1fc5333ada5a464bcc7363173b5d1cac41e58f7bd",
          "transactionIndex": "0xce",
          "logIndex": "0x1fb",
          "removed": false
        },
        {
          "address": "0x1f36effa0d3dd5d6b471d049cda048ad923d7ff8",
          "topics": [
            "0xda378dba4f1dc8c7a566c70096e0389c466cb99cc2ec74173afd50c7b652ca09"
          ],
          "data": "0x0000000000000000000000000000000000000000000000000000000069c89514000000000000000000000000000000000000000000000000000000001a722546",
          "blockHash": "0x2aebc7f2d051ace2736b8cbb2aed3505d54621376c306deec781391d74ccc00a",
          "blockNumber": "0xa93552",
          "blockTimestamp": "0x6a344a08",
          "transactionHash": "0x40fbeea715985d7db7459bf1fc5333ada5a464bcc7363173b5d1cac41e58f7bd",
          "transactionIndex": "0xce",
          "logIndex": "0x1fc",
          "removed": false
        }
      ],
      "logsBloom": "0x00000000000000000000000000000000000000000000000000000000400000000000000000000000004000000000000000000100040000008000000000000000000000000000000000200000000004000000200000000020000000000000000005000000020000800000000000000800000800000000100000000000000000000000000000040000000002000000000000000000000000000000000000000000000000000000000000000000000020010000000000000000000000000008000000000000000140000001000000000000000200000000000000000100000028001000000000000000004000000000000000000200000000000000000004000010",
      "transactionHash": "0x40fbeea715985d7db7459bf1fc5333ada5a464bcc7363173b5d1cac41e58f7bd",
      "transactionIndex": "0xce",
      "blockHash": "0x2aebc7f2d051ace2736b8cbb2aed3505d54621376c306deec781391d74ccc00a",
      "blockNumber": "0xa93552",
      "gasUsed": "0x26096",
      "effectiveGasPrice": "0x40d041c8",
      "from": "0xf93e7518f79c2e1978d6862dbf161270040e623e",
      "to": "0x1f36effa0d3dd5d6b471d049cda048ad923d7ff8",
      "contractAddress": null
    },
    {
      "type": "0x2",
      "status": "0x1",
      "cumulativeGasUsed": "0x17c97e2",
      "logs": [
        {
          "address": "0x882d0ea767b2753c6e9e3c00d9c8d8471f4dcb92",
          "topics": [
            "0x9e71bc8eea02a63969f509818f2dafb9254532904319f9dbda79b67bd34a5f3d",
            "0x000000000000000000000000f93e7518f79c2e1978d6862dbf161270040e623e"
          ],
          "data": "0x0000000000000000000000000000000000000000000000056bc75e2d63100000",
          "blockHash": "0x2805c4559a533c579d0d581102b51d31afc698728c6a204ca25d275365580bec",
          "blockNumber": "0xa93553",
          "blockTimestamp": "0x6a344a14",
          "transactionHash": "0x0446344e949862e127ab50579d10e541676e8a0c7c4bc8d80e853dbbd10dc36d",
          "transactionIndex": "0x134",
          "logIndex": "0x287",
          "removed": false
        },
        {
          "address": "0x4cbefef124053240a236d6378e3713a0e1490e7c",
          "topics": [
            "0x1449c6dd7851abc30abf37f57715f492010519147cc2652fbc38202c18a6ee90",
            "0x000000000000000000000000f93e7518f79c2e1978d6862dbf161270040e623e"
          ],
          "data": "0x0000000000000000000000000000000000000000000000056bc75e2d6310000000000000000000000000000000000000000000000000000ad78ebc5ac6200000",
          "blockHash": "0x2805c4559a533c579d0d581102b51d31afc698728c6a204ca25d275365580bec",
          "blockNumber": "0xa93553",
          "blockTimestamp": "0x6a344a14",
          "transactionHash": "0x0446344e949862e127ab50579d10e541676e8a0c7c4bc8d80e853dbbd10dc36d",
          "transactionIndex": "0x134",
          "logIndex": "0x288",
          "removed": false
        }
      ],
      "logsBloom": "0x00000000000000000000200000000000000000000800000000100000800200000000000000004000000000000000000000000000000000200000000000000000000000000000000000000000000000000000000000000000000000000000000040000000000000000008000000000000000000000000000000000000000080000000100000000000000000000000000000000000000000000000000000100000000000000000000000000000000000000000000000000000000000000000000000000000000040000000000000000000000000000000000000000000000000000000000000000000000000000000000000000200000000000000000000000010",
      "transactionHash": "0x0446344e949862e127ab50579d10e541676e8a0c7c4bc8d80e853dbbd10dc36d",
      "transactionIndex": "0x134",
      "blockHash": "0x2805c4559a533c579d0d581102b51d31afc698728c6a204ca25d275365580bec",
      "blockNumber": "0xa93553",
      "gasUsed": "0x23137",
      "effectiveGasPrice": "0x3f3b1138",
      "from": "0xf93e7518f79c2e1978d6862dbf161270040e623e",
      "to": "0x4cbefef124053240a236d6378e3713a0e1490e7c",
      "contractAddress": null
    },
    {
      "type": "0x2",
      "status": "0x1",
      "cumulativeGasUsed": "0x12e3c59",
      "logs": [
        {
          "address": "0x1f36effa0d3dd5d6b471d049cda048ad923d7ff8",
          "topics": [
            "0xeb18042c63a6494302e2e34ca89562fb59d5b25ded99d617905bdd7c4f891f03",
            "0x0000000000000000000000000000000000000000000000000000000000000001",
            "0x0000000000000000000000000000000000000000000000000000000000000001"
          ],
          "data": "0x00000000000000000000000000000000000000000000000000000016cb4b7300",
          "blockHash": "0x57a3699bcf7c1dc1b035b6db3726f0727ac242921ad6a41b5996b35f1f9e091d",
          "blockNumber": "0xa93554",
          "blockTimestamp": "0x6a344a20",
          "transactionHash": "0x82b4063534d267bb7624775989da2dd7fa7e24a60c941f608950497ccc91c202",
          "transactionIndex": "0xdc",
          "logIndex": "0x1ed",
          "removed": false
        },
        {
          "address": "0xe03a1074c86cfedd5c142c4f04f1a1536e203543",
          "topics": [
            "0x40e9cecb9f5f1f1c5b9c97dec2917b7ee92e57ba5563708daca94dd84ad7112f",
            "0x4589a9c508c98a154f00cfc2f9b4a6384dd86384d2f9706d2d810a33740379bb",
            "0x00000000000000000000000000000000000044a361ae3cac094c9d1b14eece97"
          ],
          "data": "0xffffffffffffffffffffffffffffffffffffffffffffffffffffff2df6a66300000000000000000000000000000000000000000000000000013f826172ef433e000000000000000000000000000000000000013c377b29a2e98b5235bc8c063d000000000000000000000000000000000000000000000001c4bb6279f24995a7000000000000000000000000000000000000000000000000000000000001c1be0000000000000000000000000000000000000000000000000000000000000bb8",
          "blockHash": "0x57a3699bcf7c1dc1b035b6db3726f0727ac242921ad6a41b5996b35f1f9e091d",
          "blockNumber": "0xa93554",
          "blockTimestamp": "0x6a344a20",
          "transactionHash": "0x82b4063534d267bb7624775989da2dd7fa7e24a60c941f608950497ccc91c202",
          "transactionIndex": "0xdc",
          "logIndex": "0x1ee",
          "removed": false
        },
        {
          "address": "0xe03a1074c86cfedd5c142c4f04f1a1536e203543",
          "topics": [
            "0x1b3d7edb2e9c0b0e7c525b20aaaef0f5940d2ed71663c7d39266ecafac728859",
            "0x0000000000000000000000000000000000000000000000000000000000000000",
            "0x0000000000000000000000001f36effa0d3dd5d6b471d049cda048ad923d7ff8",
            "0x0000000000000000000000000000000000000000000000000000000000000000"
          ],
          "data": "0x0000000000000000000000001f36effa0d3dd5d6b471d049cda048ad923d7ff800000000000000000000000000000000000000000000000000000016cb4b7300",
          "blockHash": "0x57a3699bcf7c1dc1b035b6db3726f0727ac242921ad6a41b5996b35f1f9e091d",
          "blockNumber": "0xa93554",
          "blockTimestamp": "0x6a344a20",
          "transactionHash": "0x82b4063534d267bb7624775989da2dd7fa7e24a60c941f608950497ccc91c202",
          "transactionIndex": "0xdc",
          "logIndex": "0x1ef",
          "removed": false
        },
        {
          "address": "0x882d0ea767b2753c6e9e3c00d9c8d8471f4dcb92",
          "topics": [
            "0xddf252ad1be2c89b69c2b068fc378daa952ba7f163c4a11628f55a4df523b3ef",
            "0x000000000000000000000000e03a1074c86cfedd5c142c4f04f1a1536e203543",
            "0x000000000000000000000000f93e7518f79c2e1978d6862dbf161270040e623e"
          ],
          "data": "0x000000000000000000000000000000000000000000000000013f826172ef433e",
          "blockHash": "0x57a3699bcf7c1dc1b035b6db3726f0727ac242921ad6a41b5996b35f1f9e091d",
          "blockNumber": "0xa93554",
          "blockTimestamp": "0x6a344a20",
          "transactionHash": "0x82b4063534d267bb7624775989da2dd7fa7e24a60c941f608950497ccc91c202",
          "transactionIndex": "0xdc",
          "logIndex": "0x1f0",
          "removed": false
        }
      ],
      "logsBloom": "0x000000000000000000002000000000000000000000000010000000008000000000000000000040000040000000000000000001000400002000000000400400000000000000000000002000080000040000000000000400200000000000000000040000000200008000000000800008000000000000001000000000100000c0000000000000000000000012000000000000000000000000000000000000180000000000000000000000000000000020010000000000000000000000000000000000000002000100000000000000000000000200000000000000001000000068011000000000000000004000000000000000000000000000000000000004001000",
      "transactionHash": "0x82b4063534d267bb7624775989da2dd7fa7e24a60c941f608950497ccc91c202",
      "transactionIndex": "0xdc",
      "blockHash": "0x57a3699bcf7c1dc1b035b6db3726f0727ac242921ad6a41b5996b35f1f9e091d",
      "blockNumber": "0xa93554",
      "gasUsed": "0x2e321",
      "effectiveGasPrice": "0x3df0572c",
      "from": "0xf93e7518f79c2e1978d6862dbf161270040e623e",
      "to": "0x00000000000044a361ae3cac094c9d1b14eece97",
      "contractAddress": null
    },
    {
      "type": "0x2",
      "status": "0x1",
      "cumulativeGasUsed": "0x1be53df",
      "logs": [
        {
          "address": "0xe03a1074c86cfedd5c142c4f04f1a1536e203543",
          "topics": [
            "0x1b3d7edb2e9c0b0e7c525b20aaaef0f5940d2ed71663c7d39266ecafac728859",
            "0x0000000000000000000000001f36effa0d3dd5d6b471d049cda048ad923d7ff8",
            "0x0000000000000000000000000000000000000000000000000000000000000000",
            "0x0000000000000000000000000000000000000000000000000000000000000000"
          ],
          "data": "0x0000000000000000000000001f36effa0d3dd5d6b471d049cda048ad923d7ff800000000000000000000000000000000000000000000000000000016cb4b7300",
          "blockHash": "0x5bf6d63b31582899a4f32441a7df9fe4b4e75546e1e56b73411f9e9558480950",
          "blockNumber": "0xa93558",
          "blockTimestamp": "0x6a344a50",
          "transactionHash": "0x476121f5c73891d90599a61fb21d7ab2810c4138dd41e9815dc98de9e9852cba",
          "transactionIndex": "0x18b",
          "logIndex": "0x28c",
          "removed": false
        },
        {
          "address": "0x4cbefef124053240a236d6378e3713a0e1490e7c",
          "topics": [
            "0x6c07ee05dcf262f13abf9d87b846ee789d2f90fe991d495acd7d7fc109ee1f55"
          ],
          "data": "0x000000000000000000000000000000000000000000000000000000123c3c5c000000000000000000000000000000000000000000000000000000000000093a80",
          "blockHash": "0x5bf6d63b31582899a4f32441a7df9fe4b4e75546e1e56b73411f9e9558480950",
          "blockNumber": "0xa93558",
          "blockTimestamp": "0x6a344a50",
          "transactionHash": "0x476121f5c73891d90599a61fb21d7ab2810c4138dd41e9815dc98de9e9852cba",
          "transactionIndex": "0x18b",
          "logIndex": "0x28d",
          "removed": false
        },
        {
          "address": "0x1f36effa0d3dd5d6b471d049cda048ad923d7ff8",
          "topics": [
            "0xda378dba4f1dc8c7a566c70096e0389c466cb99cc2ec74173afd50c7b652ca09"
          ],
          "data": "0x000000000000000000000000000000000000000000000000000000123c3c5c00000000000000000000000000000000000000000000000000000000048f0f1700",
          "blockHash": "0x5bf6d63b31582899a4f32441a7df9fe4b4e75546e1e56b73411f9e9558480950",
          "blockNumber": "0xa93558",
          "blockTimestamp": "0x6a344a50",
          "transactionHash": "0x476121f5c73891d90599a61fb21d7ab2810c4138dd41e9815dc98de9e9852cba",
          "transactionIndex": "0x18b",
          "logIndex": "0x28e",
          "removed": false
        }
      ],
      "logsBloom": "0x00000000000000000000000000000000000000000000000000000000000000000000000000000000004000000000000000000100000000000000000000000000000000000000000000200000000004000000200000000000000000000000000005000000020000800000000000000800000800000000100000000000000000000000000000000000000000000000000000000000000000000000000000000000000000000000000000000000000020010000000000000000000000000008000000000000000040000001000000000000000000000000000000000100000028001000000000000000000000000000000000000200000000000000000004000010",
      "transactionHash": "0x476121f5c73891d90599a61fb21d7ab2810c4138dd41e9815dc98de9e9852cba",
      "transactionIndex": "0x18b",
      "blockHash": "0x5bf6d63b31582899a4f32441a7df9fe4b4e75546e1e56b73411f9e9558480950",
      "blockNumber": "0xa93558",
      "gasUsed": "0x1cede",
      "effectiveGasPrice": "0x429d5347",
      "from": "0xf93e7518f79c2e1978d6862dbf161270040e623e",
      "to": "0x1f36effa0d3dd5d6b471d049cda048ad923d7ff8",
      "contractAddress": null
    },
    {
      "type": "0x2",
      "status": "0x1",
      "cumulativeGasUsed": "0x118c54c",
      "logs": [
        {
          "address": "0x4cbefef124053240a236d6378e3713a0e1490e7c",
          "topics": [
            "0xe2403640ba68fed3a2f88b7557551d1993f84b99bb10ff833f0cf8db0c5e0486",
            "0x000000000000000000000000f93e7518f79c2e1978d6862dbf161270040e623e"
          ],
          "data": "0x00000000000000000000000000000000000000000000000000000000135d4dec",
          "blockHash": "0xb6d8f8ee2b12f152c12db5f9c93cadb07c8aebc5a276f975a83181e9c5d97179",
          "blockNumber": "0xa93559",
          "blockTimestamp": "0x6a344a5c",
          "transactionHash": "0x90652339dbb952fc509a034ee1148e3c1c2b59babd351f5cfbaaf2296d6d6a7e",
          "transactionIndex": "0xd2",
          "logIndex": "0x1c1",
          "removed": false
        }
      ],
      "logsBloom": "0x00000000000000000000000000000000000000008000000000000000800000000000000000000000000000000000000000000000000000200000000000000000000000000000000000000000000000000000000000000000000000000000000000000000000000000000000000000000000000000000000000000000000000000000000100000000000000000800000000000000000000000000000000100000000000000000000000000000000000000000000000000000000000000000000000000000000040000000000000000000000000000000000000000000000000000000000000000000000000000000000000000200000000000000000000000010",
      "transactionHash": "0x90652339dbb952fc509a034ee1148e3c1c2b59babd351f5cfbaaf2296d6d6a7e",
      "transactionIndex": "0xd2",
      "blockHash": "0xb6d8f8ee2b12f152c12db5f9c93cadb07c8aebc5a276f975a83181e9c5d97179",
      "blockNumber": "0xa93559",
      "gasUsed": "0xe4ef",
      "effectiveGasPrice": "0x430cd4a9",
      "from": "0xf93e7518f79c2e1978d6862dbf161270040e623e",
      "to": "0x4cbefef124053240a236d6378e3713a0e1490e7c",
      "contractAddress": null
    },
    {
      "type": "0x2",
      "status": "0x1",
      "cumulativeGasUsed": "0x14eeb38",
      "logs": [
        {
          "address": "0x882d0ea767b2753c6e9e3c00d9c8d8471f4dcb92",
          "topics": [
            "0xddf252ad1be2c89b69c2b068fc378daa952ba7f163c4a11628f55a4df523b3ef",
            "0x000000000000000000000000f93e7518f79c2e1978d6862dbf161270040e623e",
            "0x0000000000000000000000000000000000000000000000000000000000000000"
          ],
          "data": "0x00000000000000000000000000000000000000000000021e19e0c9bab2400000",
          "blockHash": "0x033c6926664c7a37fade8163c63b3f3efb940e8754a4e557a84b60bd021ffa21",
          "blockNumber": "0xa9355c",
          "blockTimestamp": "0x6a344a80",
          "transactionHash": "0x24656d234815d78fa604b564225512401add38f1976f4d0a0c515d821f1273aa",
          "transactionIndex": "0x126",
          "logIndex": "0x1dd",
          "removed": false
        },
        {
          "address": "0x2c81ef53a093a8d9d30071e085df329cccf703da",
          "topics": [
            "0xddf252ad1be2c89b69c2b068fc378daa952ba7f163c4a11628f55a4df523b3ef",
            "0x0000000000000000000000000000000000000000000000000000000000000000",
            "0x000000000000000000000000f93e7518f79c2e1978d6862dbf161270040e623e",
            "0x0000000000000000000000000000000000000000000000000000000000000001"
          ],
          "data": "0x",
          "blockHash": "0x033c6926664c7a37fade8163c63b3f3efb940e8754a4e557a84b60bd021ffa21",
          "blockNumber": "0xa9355c",
          "blockTimestamp": "0x6a344a80",
          "transactionHash": "0x24656d234815d78fa604b564225512401add38f1976f4d0a0c515d821f1273aa",
          "transactionIndex": "0x126",
          "logIndex": "0x1de",
          "removed": false
        },
        {
          "address": "0x4cbefef124053240a236d6378e3713a0e1490e7c",
          "topics": [
            "0xe2403640ba68fed3a2f88b7557551d1993f84b99bb10ff833f0cf8db0c5e0486",
            "0x000000000000000000000000f93e7518f79c2e1978d6862dbf161270040e623e"
          ],
          "data": "0x0000000000000000000000000000000000000000000000000000000001218918",
          "blockHash": "0x033c6926664c7a37fade8163c63b3f3efb940e8754a4e557a84b60bd021ffa21",
          "blockNumber": "0xa9355c",
          "blockTimestamp": "0x6a344a80",
          "transactionHash": "0x24656d234815d78fa604b564225512401add38f1976f4d0a0c515d821f1273aa",
          "transactionIndex": "0x126",
          "logIndex": "0x1df",
          "removed": false
        },
        {
          "address": "0x2c81ef53a093a8d9d30071e085df329cccf703da",
          "topics": [
            "0xb777c4047eece94c0532443cd79bae696825d7bcc0de9d0acffe551bb875c3ec",
            "0x000000000000000000000000f93e7518f79c2e1978d6862dbf161270040e623e",
            "0x0000000000000000000000000000000000000000000000000000000000000001"
          ],
          "data": "0x000000000000000000000000000000000000000000000000000000000000000000000000000000000000000000000000000000000000021e19e0c9bab2400000",
          "blockHash": "0x033c6926664c7a37fade8163c63b3f3efb940e8754a4e557a84b60bd021ffa21",
          "blockNumber": "0xa9355c",
          "blockTimestamp": "0x6a344a80",
          "transactionHash": "0x24656d234815d78fa604b564225512401add38f1976f4d0a0c515d821f1273aa",
          "transactionIndex": "0x126",
          "logIndex": "0x1e0",
          "removed": false
        }
      ],
      "logsBloom": "0x00000000000000000000200000000000000000008000000000000000800000000000000000004000000000000080000000000000000000200000000000040000000000000010000000000008000000000000000000040000001000000000000000000000020000000000000000000800000200000000000000100010000080000000000100000000000000000800000000000000000000000000000000100000000000000000000000000000000000000000000000000000000000000000000000000002000040000000000000000000000000000000000000000000000060000000000000000000000000000000000000000200000000000000100000000010",
      "transactionHash": "0x24656d234815d78fa604b564225512401add38f1976f4d0a0c515d821f1273aa",
      "transactionIndex": "0x126",
      "blockHash": "0x033c6926664c7a37fade8163c63b3f3efb940e8754a4e557a84b60bd021ffa21",
      "blockNumber": "0xa9355c",
      "gasUsed": "0x35e7d",
      "effectiveGasPrice": "0x3f6b855f",
      "from": "0xf93e7518f79c2e1978d6862dbf161270040e623e",
      "to": "0x882d0ea767b2753c6e9e3c00d9c8d8471f4dcb92",
      "contractAddress": null
    },
    {
      "type": "0x2",
      "status": "0x1",
      "cumulativeGasUsed": "0x10250c2",
      "logs": [
        {
          "address": "0x2c81ef53a093a8d9d30071e085df329cccf703da",
          "topics": [
            "0x38f632823cd466741bc92f6765ad8071cfcb8c37463f2c668c9319df6a8b6228",
            "0x000000000000000000000000f93e7518f79c2e1978d6862dbf161270040e623e"
          ],
          "data": "0x",
          "blockHash": "0x11864e9724dde2eae3a6ade1c9d2c8c6af1d93f18874fd227d22792cc0773620",
          "blockNumber": "0xa9355d",
          "blockTimestamp": "0x6a344a8c",
          "transactionHash": "0x9a518f5304a16bdbea443fdc474d095de3913743125568c69feb67b996abdd2b",
          "transactionIndex": "0xdf",
          "logIndex": "0x19c",
          "removed": false
        },
        {
          "address": "0x4cbefef124053240a236d6378e3713a0e1490e7c",
          "topics": [
            "0xe2403640ba68fed3a2f88b7557551d1993f84b99bb10ff833f0cf8db0c5e0486",
            "0x000000000000000000000000f93e7518f79c2e1978d6862dbf161270040e623e"
          ],
          "data": "0x0000000000000000000000000000000000000000000000000000000000608308",
          "blockHash": "0x11864e9724dde2eae3a6ade1c9d2c8c6af1d93f18874fd227d22792cc0773620",
          "blockNumber": "0xa9355d",
          "blockTimestamp": "0x6a344a8c",
          "transactionHash": "0x9a518f5304a16bdbea443fdc474d095de3913743125568c69feb67b996abdd2b",
          "transactionIndex": "0xdf",
          "logIndex": "0x19d",
          "removed": false
        }
      ],
      "logsBloom": "0x00000000000000000000000000000000000000008000000000000000800000000000000000000000000000000000000000000000000000200000000000000000000000000010000000000000000000000000000000000000001000000000000000000000000000000000002000000000008000000000000000100000000000000000000100000000000000000800000000000000000000000000000000100000000000000000000000000000000000000000000000000000000000000000000000000000000040000000000000000000000000000000000002000000000000000000000000000000000000000000000000000200000000000000000000000010",
      "transactionHash": "0x9a518f5304a16bdbea443fdc474d095de3913743125568c69feb67b996abdd2b",
      "transactionIndex": "0xdf",
      "blockHash": "0x11864e9724dde2eae3a6ade1c9d2c8c6af1d93f18874fd227d22792cc0773620",
      "blockNumber": "0xa9355d",
      "gasUsed": "0x1c1b0",
      "effectiveGasPrice": "0x3fa6bb90",
      "from": "0xf93e7518f79c2e1978d6862dbf161270040e623e",
      "to": "0x2c81ef53a093a8d9d30071e085df329cccf703da",
      "contractAddress": null
    }
  ],
  "libraries": [],
  "pending": [],
  "returns": {},
  "timestamp": 1781811889590,
  "chain": 11155111,
  "commit": "2572d96"
}