{
  "transactions": [
    {
      "hash": "0x8153e43d1be457b5d951ecba937e71e2131c54e7dadd1d305f94c1cf2a6e15f2",
      "transactionType": "CALL",
      "contractName": null,
      "contractAddress": "0x8999eac3df09a3f46099130a56c5cb1e9d79ba2a",
      "function": "approve(address,uint256)",
      "arguments": [
        "0x000000000022D473030F116dDEE9F6B43aC78BA3",
        "115792089237316195423570985008687907853269984665640564039457584007913129639935"
      ],
      "transaction": {
        "from": "0xf93e7518f79c2e1978d6862dbf161270040e623e",
        "to": "0x8999eac3df09a3f46099130a56c5cb1e9d79ba2a",
        "gas": "0x9681",
        "value": "0x0",
        "input": "0x095ea7b3000000000000000000000000000000000022d473030f116ddee9f6b43ac78ba3ffffffffffffffffffffffffffffffffffffffffffffffffffffffffffffffff",
        "nonce": "0x510",
        "chainId": "0xaa36a7"
      },
      "additionalContracts": [],
      "isFixedGasLimit": false
    },
    {
      "hash": "0xad18a733d0df045a187f037d745bf74fb45f85eaa0ac0e8d63a529eae305fd5f",
      "transactionType": "CALL",
      "contractName": null,
      "contractAddress": "0x000000000022d473030f116ddee9f6b43ac78ba3",
      "function": "approve(address,address,uint160,uint48)",
      "arguments": [
        "0x8999Eac3Df09a3f46099130a56c5CB1e9D79bA2a",
        "0x429ba70129df741B2Ca2a85BC3A2a3328e5c09b4",
        "1461501637330902918203684832716283019655932542975",
        "1782037776"
      ],
      "transaction": {
        "from": "0xf93e7518f79c2e1978d6862dbf161270040e623e",
        "to": "0x000000000022d473030f116ddee9f6b43ac78ba3",
        "gas": "0xa59b",
        "value": "0x0",
        "input": "0x87517c450000000000000000000000008999eac3df09a3f46099130a56c5cb1e9d79ba2a000000000000000000000000429ba70129df741b2ca2a85bc3a2a3328e5c09b4000000000000000000000000ffffffffffffffffffffffffffffffffffffffff000000000000000000000000000000000000000000000000000000006a37bd10",
        "nonce": "0x511",
        "chainId": "0xaa36a7"
      },
      "additionalContracts": [],
      "isFixedGasLimit": false
    },
    {
      "hash": "0xe19a028ffa1620772181e3dba0c1649193848f6dbc14e74d99807c09d182f9cb",
      "transactionType": "CALL",
      "contractName": null,
      "contractAddress": "0x000000000022d473030f116ddee9f6b43ac78ba3",
      "function": "approve(address,address,uint160,uint48)",
      "arguments": [
        "0x8999Eac3Df09a3f46099130a56c5CB1e9D79bA2a",
        "0x00000000000044a361Ae3cAc094c9D1b14Eece97",
        "1461501637330902918203684832716283019655932542975",
        "1782037776"
      ],
      "transaction": {
        "from": "0xf93e7518f79c2e1978d6862dbf161270040e623e",
        "to": "0x000000000022d473030f116ddee9f6b43ac78ba3",
        "gas": "0xa537",
        "value": "0x0",
        "input": "0x87517c450000000000000000000000008999eac3df09a3f46099130a56c5cb1e9d79ba2a00000000000000000000000000000000000044a361ae3cac094c9d1b14eece97000000000000000000000000ffffffffffffffffffffffffffffffffffffffff000000000000000000000000000000000000000000000000000000006a37bd10",
        "nonce": "0x512",
        "chainId": "0xaa36a7"
      },
      "additionalContracts": [],
      "isFixedGasLimit": false
    },
    {
      "hash": "0x7f3f5f9f13acf573576a409c360480c1c338c4b20b724e92ace4e8d8564c95e6",
      "transactionType": "CALL",
      "contractName": null,
      "contractAddress": "0x8999eac3df09a3f46099130a56c5cb1e9d79ba2a",
      "function": "approve(address,uint256)",
      "arguments": [
        "0x00000000000044a361Ae3cAc094c9D1b14Eece97",
        "115792089237316195423570985008687907853269984665640564039457584007913129639935"
      ],
      "transaction": {
        "from": "0xf93e7518f79c2e1978d6862dbf161270040e623e",
        "to": "0x8999eac3df09a3f46099130a56c5cb1e9d79ba2a",
        "gas": "0x8e13",
        "value": "0x0",
        "input": "0x095ea7b300000000000000000000000000000000000044a361ae3cac094c9d1b14eece97ffffffffffffffffffffffffffffffffffffffffffffffffffffffffffffffff",
        "nonce": "0x513",
        "chainId": "0xaa36a7"
      },
      "additionalContracts": [],
      "isFixedGasLimit": false
    },
    {
      "hash": "0x81e1e90ec43cc1d474fb4d9959aedfa5a140f84957a961ddd3f38fcca30bbfa5",
      "transactionType": "CALL",
      "contractName": null,
      "contractAddress": "0x8999eac3df09a3f46099130a56c5cb1e9d79ba2a",
      "function": "approve(address,uint256)",
      "arguments": [
        "0x55C6aeDC9d5384F00aEcd3515556A150e272168B",
        "115792089237316195423570985008687907853269984665640564039457584007913129639935"
      ],
      "transaction": {
        "from": "0xf93e7518f79c2e1978d6862dbf161270040e623e",
        "to": "0x8999eac3df09a3f46099130a56c5cb1e9d79ba2a",
        "gas": "0x8e77",
        "value": "0x0",
        "input": "0x095ea7b300000000000000000000000055c6aedc9d5384f00aecd3515556a150e272168bffffffffffffffffffffffffffffffffffffffffffffffffffffffffffffffff",
        "nonce": "0x514",
        "chainId": "0xaa36a7"
      },
      "additionalContracts": [],
      "isFixedGasLimit": false
    },
    {
      "hash": "0x8420ee9f1d4681428e52e204b0ff6b482fc104a7ee0b93068b259d025f603cbf",
      "transactionType": "CALL",
      "contractName": null,
      "contractAddress": "0x00000000000044a361ae3cac094c9d1b14eece97",
      "function": "swapExactTokensForTokens(uint256,uint256,bool,(address,address,uint24,int24,address),bytes,address,uint256)",
      "arguments": [
        "1000000000000000",
        "0",
        "false",
        "(0x0000000000000000000000000000000000000000, 0x8999Eac3Df09a3f46099130a56c5CB1e9D79bA2a, 3000, 60, 0x9952d25eDA1f305fcDb6Ca9029520e33A7263Ff8)",
        "0x",
        "0xF93E7518F79C2E1978D6862Dbf161270040e623E",
        "115792089237316195423570985008687907853269984665640564039457584007913129639935"
      ],
      "transaction": {
        "from": "0xf93e7518f79c2e1978d6862dbf161270040e623e",
        "to": "0x00000000000044a361ae3cac094c9d1b14eece97",
        "gas": "0x461fb",
        "value": "0x0",
        "input": "0xb1a0d57100000000000000000000000000000000000000000000000000038d7ea4c680000000000000000000000000000000000000000000000000000000000000000000000000000000000000000000000000000000000000000000000000000000000000000000000000000000000000000000000000000000000000000000000000000000000000000000000000008999eac3df09a3f46099130a56c5cb1e9d79ba2a0000000000000000000000000000000000000000000000000000000000000bb8000000000000000000000000000000000000000000000000000000000000003c0000000000000000000000009952d25eda1f305fcdb6ca9029520e33a7263ff80000000000000000000000000000000000000000000000000000000000000160000000000000000000000000f93e7518f79c2e1978d6862dbf161270040e623effffffffffffffffffffffffffffffffffffffffffffffffffffffffffffffff0000000000000000000000000000000000000000000000000000000000000000",
        "nonce": "0x515",
        "chainId": "0xaa36a7"
      },
      "additionalContracts": [],
      "isFixedGasLimit": false
    },
    {
      "hash": "0x845c1fe8d94bc89ffecf3968695767e4ef1720f2b53dde6b7c62c4dab1674dc7",
      "transactionType": "CALL",
      "contractName": null,
      "contractAddress": "0x9952d25eda1f305fcdb6ca9029520e33a7263ff8",
      "function": "claimFees(bool)",
      "arguments": [
        "false"
      ],
      "transaction": {
        "from": "0xf93e7518f79c2e1978d6862dbf161270040e623e",
        "to": "0x9952d25eda1f305fcdb6ca9029520e33a7263ff8",
        "gas": "0x37f7a",
        "value": "0x0",
        "input": "0x1d4161650000000000000000000000000000000000000000000000000000000000000000",
        "nonce": "0x516",
        "chainId": "0xaa36a7"
      },
      "additionalContracts": [],
      "isFixedGasLimit": false
    }
  ],
  "receipts": [
    {
      "type": "0x2",
      "status": "0x1",
      "cumulativeGasUsed": "0x190b9d2",
      "logs": [
        {
          "address": "0x8999eac3df09a3f46099130a56c5cb1e9d79ba2a",
          "topics": [
            "0x8c5be1e5ebec7d5bd14f71427d1e84f3dd0314c0f7b2291e5b200ac8c7c3b925",
            "0x000000000000000000000000f93e7518f79c2e1978d6862dbf161270040e623e",
            "0x000000000000000000000000000000000022d473030f116ddee9f6b43ac78ba3"
          ],
          "data": "0xffffffffffffffffffffffffffffffffffffffffffffffffffffffffffffffff",
          "blockHash": "0x9ba6acf9bc127fc41a30ae1507ce21161fb03b9078d69e326ab14a0d360c6b4e",
          "blockNumber": "0xa962ab",
          "blockTimestamp": "0x6a366ba8",
          "transactionHash": "0xad18a733d0df045a187f037d745bf74fb45f85eaa0ac0e8d63a529eae305fd5f",
          "transactionIndex": "0xc4",
          "logIndex": "0x228",
          "removed": false
        }
      ],
      "logsBloom": "0x00000000000000000000000000000000000000000000000000000000800000000000000000000000000000000000000000000000800000200000000000200000000000000000000000004000000000000000000000000800000000000000000000000000000000000000000000000000000000000000000400000000000000000000000000000000000000000000000000000000000000000000000000100001020000000000000000000000000000000000000000000000000000000000100000000000000000000000000000000000000000000000000000000000000000000010000000000000000000000000000000000000000000000000000000000000",
      "transactionHash": "0xad18a733d0df045a187f037d745bf74fb45f85eaa0ac0e8d63a529eae305fd5f",
      "transactionIndex": "0xc4",
      "blockHash": "0x9ba6acf9bc127fc41a30ae1507ce21161fb03b9078d69e326ab14a0d360c6b4e",
      "blockNumber": "0xa962ab",
      "gasUsed": "0x66e9",
      "effectiveGasPrice": "0x4067c3af",
      "from": "0xf93e7518f79c2e1978d6862dbf161270040e623e",
      "to": "0x8999eac3df09a3f46099130a56c5cb1e9d79ba2a",
      "contractAddress": null
    },
    {
      "type": "0x2",
      "status": "0x1",
      "cumulativeGasUsed": "0x19131b8",
      "logs": [
        {
          "address": "0x000000000022d473030f116ddee9f6b43ac78ba3",
          "topics": [
            "0xda9fa7c1b00402c17d0161b249b1ab8bbec047c5a52207b9c112deffd817036b",
            "0x000000000000000000000000f93e7518f79c2e1978d6862dbf161270040e623e",
            "0x0000000000000000000000008999eac3df09a3f46099130a56c5cb1e9d79ba2a",
            "0x000000000000000000000000429ba70129df741b2ca2a85bc3a2a3328e5c09b4"
          ],
          "data": "0x000000000000000000000000ffffffffffffffffffffffffffffffffffffffff000000000000000000000000000000000000000000000000000000006a37bd10",
          "blockHash": "0x9ba6acf9bc127fc41a30ae1507ce21161fb03b9078d69e326ab14a0d360c6b4e",
          "blockNumber": "0xa962ab",
          "blockTimestamp": "0x6a366ba8",
          "transactionHash": "0xe19a028ffa1620772181e3dba0c1649193848f6dbc14e74d99807c09d182f9cb",
          "transactionIndex": "0xc5",
          "logIndex": "0x229",
          "removed": false
        }
      ],
      "logsBloom": "0x00010000000000000000000000000008000000000000000000000000800000000000000000000040080000001000000000000000000000200000000000080000000000000000000000000000000000000000000000000000000000000000000000000000000000000000000000000000000000000000000000000800000000000020000000000000000000000000000000000000000000000000000000100000000000000000000000000000000000000000000000000000000000080000000000000000000000000000000000000000000000000000000040000000000000000000000000000000000000000000000000000004000000000000000000000400",
      "transactionHash": "0xe19a028ffa1620772181e3dba0c1649193848f6dbc14e74d99807c09d182f9cb",
      "transactionIndex": "0xc5",
      "blockHash": "0x9ba6acf9bc127fc41a30ae1507ce21161fb03b9078d69e326ab14a0d360c6b4e",
      "blockNumber": "0xa962ab",
      "gasUsed": "0x77e6",
      "effectiveGasPrice": "0x4067c3af",
      "from": "0xf93e7518f79c2e1978d6862dbf161270040e623e",
      "to": "0x000000000022d473030f116ddee9f6b43ac78ba3",
      "contractAddress": null
    },
    {
      "type": "0x2",
      "status": "0x1",
      "cumulativeGasUsed": "0x191a956",
      "logs": [
        {
          "address": "0x000000000022d473030f116ddee9f6b43ac78ba3",
          "topics": [
            "0xda9fa7c1b00402c17d0161b249b1ab8bbec047c5a52207b9c112deffd817036b",
            "0x000000000000000000000000f93e7518f79c2e1978d6862dbf161270040e623e",
            "0x0000000000000000000000008999eac3df09a3f46099130a56c5cb1e9d79ba2a",
            "0x00000000000000000000000000000000000044a361ae3cac094c9d1b14eece97"
          ],
          "data": "0x000000000000000000000000ffffffffffffffffffffffffffffffffffffffff000000000000000000000000000000000000000000000000000000006a37bd10",
          "blockHash": "0x9ba6acf9bc127fc41a30ae1507ce21161fb03b9078d69e326ab14a0d360c6b4e",
          "blockNumber": "0xa962ab",
          "blockTimestamp": "0x6a366ba8",
          "transactionHash": "0x81e1e90ec43cc1d474fb4d9959aedfa5a140f84957a961ddd3f38fcca30bbfa5",
          "transactionIndex": "0xc6",
          "logIndex": "0x22a",
          "removed": false
        }
      ],
      "logsBloom": "0x00010000000000000000000000000008000000000000000000000000800000000000000000000000000000001000000000000000000000200000000040080000000000000000000000000000000000000000000000000000000000000000000000000000000000000000000000000000000000000000000000000000000040000020000000000000000000000000000000000000000000000000000000100000000000000000000000000000000000000000000000000000000000080000000000000000000000000000000000000000000000000000000040000000000000010000000000000000000000000000000000000004000000000000000000000400",
      "transactionHash": "0x81e1e90ec43cc1d474fb4d9959aedfa5a140f84957a961ddd3f38fcca30bbfa5",
      "transactionIndex": "0xc6",
      "blockHash": "0x9ba6acf9bc127fc41a30ae1507ce21161fb03b9078d69e326ab14a0d360c6b4e",
      "blockNumber": "0xa962ab",
      "gasUsed": "0x779e",
      "effectiveGasPrice": "0x4067c3af",
      "from": "0xf93e7518f79c2e1978d6862dbf161270040e623e",
      "to": "0x000000000022d473030f116ddee9f6b43ac78ba3",
      "contractAddress": null
    },
    {
      "type": "0x2",
      "status": "0x1",
      "cumulativeGasUsed": "0xfebffd",
      "logs": [
        {
          "address": "0x8999eac3df09a3f46099130a56c5cb1e9d79ba2a",
          "topics": [
            "0x8c5be1e5ebec7d5bd14f71427d1e84f3dd0314c0f7b2291e5b200ac8c7c3b925",
            "0x000000000000000000000000f93e7518f79c2e1978d6862dbf161270040e623e",
            "0x00000000000000000000000000000000000044a361ae3cac094c9d1b14eece97"
          ],
          "data": "0xffffffffffffffffffffffffffffffffffffffffffffffffffffffffffffffff",
          "blockHash": "0x95546626fc8c3d97f1ffb09ebb6d06bb89e147439fa3eee11819454e672e341c",
          "blockNumber": "0xa962ac",
          "blockTimestamp": "0x6a366bb4",
          "transactionHash": "0x8420ee9f1d4681428e52e204b0ff6b482fc104a7ee0b93068b259d025f603cbf",
          "transactionIndex": "0xaf",
          "logIndex": "0x175",
          "removed": false
        }
      ],
      "logsBloom": "0x00000000000000000000000000000000000000000000000000000000800000000000000000000000000000000000000000000000000000200000000040200000000000000000000000000000000000000000000000000000000000000000000000000000000000000000000000000000000000000000000400000000000040000000000000000000000000000000000000000000000000000000000000100001020000000000000000000000000000000000000000000000000000000000100000000000000000000000000000000000000000000000000000000000000000010010000000000000000000000000000000000000000000000000000000000000",
      "transactionHash": "0x8420ee9f1d4681428e52e204b0ff6b482fc104a7ee0b93068b259d025f603cbf",
      "transactionIndex": "0xaf",
      "blockHash": "0x95546626fc8c3d97f1ffb09ebb6d06bb89e147439fa3eee11819454e672e341c",
      "blockNumber": "0xa962ac",
      "gasUsed": "0x66dd",
      "effectiveGasPrice": "0x3f9ace4c",
      "from": "0xf93e7518f79c2e1978d6862dbf161270040e623e",
      "to": "0x8999eac3df09a3f46099130a56c5cb1e9d79ba2a",
      "contractAddress": null
    },
    {
      "type": "0x2",
      "status": "0x1",
      "cumulativeGasUsed": "0xff2722",
      "logs": [
        {
          "address": "0x8999eac3df09a3f46099130a56c5cb1e9d79ba2a",
          "topics": [
            "0x8c5be1e5ebec7d5bd14f71427d1e84f3dd0314c0f7b2291e5b200ac8c7c3b925",
            "0x000000000000000000000000f93e7518f79c2e1978d6862dbf161270040e623e",
            "0x00000000000000000000000055c6aedc9d5384f00aecd3515556a150e272168b"
          ],
          "data": "0xffffffffffffffffffffffffffffffffffffffffffffffffffffffffffffffff",
          "blockHash": "0x95546626fc8c3d97f1ffb09ebb6d06bb89e147439fa3eee11819454e672e341c",
          "blockNumber": "0xa962ac",
          "blockTimestamp": "0x6a366bb4",
          "transactionHash": "0x8153e43d1be457b5d951ecba937e71e2131c54e7dadd1d305f94c1cf2a6e15f2",
          "transactionIndex": "0xb0",
          "logIndex": "0x176",
          "removed": false
        }
      ],
      "logsBloom": "0x00000000000000000000000000000000000000000000000000000000800000000000100000000000000000000000000000000000000000200000000000200000000000000000000000000000000000000000000000000000000000000000000000000000000000000000000000000000000000000000000400000000000000000000000000000000000000000000000000000000000000000000000000100001020000000000000000000000000000000002000000000000000000000000100000000000000000000000000000000000000000000000000000000000000000000010000000000000008000000000000000000000000000000000000000000000",
      "transactionHash": "0x8153e43d1be457b5d951ecba937e71e2131c54e7dadd1d305f94c1cf2a6e15f2",
      "transactionIndex": "0xb0",
      "blockHash": "0x95546626fc8c3d97f1ffb09ebb6d06bb89e147439fa3eee11819454e672e341c",
      "blockNumber": "0xa962ac",
      "gasUsed": "0x6725",
      "effectiveGasPrice": "0x3f9ace4c",
      "from": "0xf93e7518f79c2e1978d6862dbf161270040e623e",
      "to": "0x8999eac3df09a3f46099130a56c5cb1e9d79ba2a",
      "contractAddress": null
    },
    {
      "type": "0x2",
      "status": "0x1",
      "cumulativeGasUsed": "0x102264d",
      "logs": [
        {
          "address": "0x9952d25eda1f305fcdb6ca9029520e33a7263ff8",
          "topics": [
            "0xeb18042c63a6494302e2e34ca89562fb59d5b25ded99d617905bdd7c4f891f03",
            "0x0000000000000000000000000000000000000000000000000000000000000000",
            "0x0000000000000000000000000000000000000000000000000000000000000000"
          ],
          "data": "0x00000000000000000000000000000000000000000000000000002d79883d2000",
          "blockHash": "0x95546626fc8c3d97f1ffb09ebb6d06bb89e147439fa3eee11819454e672e341c",
          "blockNumber": "0xa962ac",
          "blockTimestamp": "0x6a366bb4",
          "transactionHash": "0x7f3f5f9f13acf573576a409c360480c1c338c4b20b724e92ace4e8d8564c95e6",
          "transactionIndex": "0xb1",
          "logIndex": "0x177",
          "removed": false
        },
        {
          "address": "0xe03a1074c86cfedd5c142c4f04f1a1536e203543",
          "topics": [
            "0x40e9cecb9f5f1f1c5b9c97dec2917b7ee92e57ba5563708daca94dd84ad7112f",
            "0x81d74c428ad55494ca858ba05cc806c16a7c196832d4b9885b8dd3d05457654a",
            "0x00000000000000000000000000000000000044a361ae3cac094c9d1b14eece97"
          ],
          "data": "0x00000000000000000000000000000000000000000000000000000002349f8319fffffffffffffffffffffffffffffffffffffffffffffffffffc9ffae376a000000000000000000000000000000000000000013c34bdc00a3644a415a401f480000000000000000000000000000000000000000000000001d29c192d99ad95a7000000000000000000000000000000000000000000000000000000000001c1bd0000000000000000000000000000000000000000000000000000000000000bb8",
          "blockHash": "0x95546626fc8c3d97f1ffb09ebb6d06bb89e147439fa3eee11819454e672e341c",
          "blockNumber": "0xa962ac",
          "blockTimestamp": "0x6a366bb4",
          "transactionHash": "0x7f3f5f9f13acf573576a409c360480c1c338c4b20b724e92ace4e8d8564c95e6",
          "transactionIndex": "0xb1",
          "logIndex": "0x178",
          "removed": false
        },
        {
          "address": "0xe03a1074c86cfedd5c142c4f04f1a1536e203543",
          "topics": [
            "0x1b3d7edb2e9c0b0e7c525b20aaaef0f5940d2ed71663c7d39266ecafac728859",
            "0x0000000000000000000000000000000000000000000000000000000000000000",
            "0x0000000000000000000000009952d25eda1f305fcdb6ca9029520e33a7263ff8",
            "0x0000000000000000000000008999eac3df09a3f46099130a56c5cb1e9d79ba2a"
          ],
          "data": "0x0000000000000000000000009952d25eda1f305fcdb6ca9029520e33a7263ff800000000000000000000000000000000000000000000000000002d79883d2000",
          "blockHash": "0x95546626fc8c3d97f1ffb09ebb6d06bb89e147439fa3eee11819454e672e341c",
          "blockNumber": "0xa962ac",
          "blockTimestamp": "0x6a366bb4",
          "transactionHash": "0x7f3f5f9f13acf573576a409c360480c1c338c4b20b724e92ace4e8d8564c95e6",
          "transactionIndex": "0xb1",
          "logIndex": "0x179",
          "removed": false
        },
        {
          "address": "0x8999eac3df09a3f46099130a56c5cb1e9d79ba2a",
          "topics": [
            "0xddf252ad1be2c89b69c2b068fc378daa952ba7f163c4a11628f55a4df523b3ef",
            "0x000000000000000000000000f93e7518f79c2e1978d6862dbf161270040e623e",
            "0x000000000000000000000000e03a1074c86cfedd5c142c4f04f1a1536e203543"
          ],
          "data": "0x00000000000000000000000000000000000000000000000000038d7ea4c68000",
          "blockHash": "0x95546626fc8c3d97f1ffb09ebb6d06bb89e147439fa3eee11819454e672e341c",
          "blockNumber": "0xa962ac",
          "blockTimestamp": "0x6a366bb4",
          "transactionHash": "0x7f3f5f9f13acf573576a409c360480c1c338c4b20b724e92ace4e8d8564c95e6",
          "transactionIndex": "0xb1",
          "logIndex": "0x17a",
          "removed": false
        }
      ],
      "logsBloom": "0x00000000000000000000200000000008000000000000001000000000800000000000000000000000000000001000002000000100040000200000000040000000000000000000000000000008000004000000000000000020000000000000000000000000020100000000000080000800000000000000100400000010000040000000000000000000000010000000040000000000000000000000000000180001000002000000000000000000000020000000000000040000000000000000180000000002000000000000000000000000000000002000000000001000000020011000000000000000004000000010000000000004000000000000000004001000",
      "transactionHash": "0x7f3f5f9f13acf573576a409c360480c1c338c4b20b724e92ace4e8d8564c95e6",
      "transactionIndex": "0xb1",
      "blockHash": "0x95546626fc8c3d97f1ffb09ebb6d06bb89e147439fa3eee11819454e672e341c",
      "blockNumber": "0xa962ac",
      "gasUsed": "0x2ff2b",
      "effectiveGasPrice": "0x3f9ace4c",
      "from": "0xf93e7518f79c2e1978d6862dbf161270040e623e",
      "to": "0x00000000000044a361ae3cac094c9d1b14eece97",
      "contractAddress": null
    },
    {
      "type": "0x2",
      "status": "0x1",
      "cumulativeGasUsed": "0x1048a98",
      "logs": [
        {
          "address": "0xe03a1074c86cfedd5c142c4f04f1a1536e203543",
          "topics": [
            "0x40e9cecb9f5f1f1c5b9c97dec2917b7ee92e57ba5563708daca94dd84ad7112f",
            "0x81d74c428ad55494ca858ba05cc806c16a7c196832d4b9885b8dd3d05457654a",
            "0x0000000000000000000000009952d25eda1f305fcdb6ca9029520e33a7263ff8"
          ],
          "data": "0x000000000000000000000000000000000000000000000000000000001db78d74ffffffffffffffffffffffffffffffffffffffffffffffffffffd28677c2e000000000000000000000000000000000000000013c34bdd8ea0ab42c54df397a70000000000000000000000000000000000000000000000001d29c192d99ad95a7000000000000000000000000000000000000000000000000000000000001c1bd0000000000000000000000000000000000000000000000000000000000000bb8",
          "blockHash": "0x95546626fc8c3d97f1ffb09ebb6d06bb89e147439fa3eee11819454e672e341c",
          "blockNumber": "0xa962ac",
          "blockTimestamp": "0x6a366bb4",
          "transactionHash": "0x845c1fe8d94bc89ffecf3968695767e4ef1720f2b53dde6b7c62c4dab1674dc7",
          "transactionIndex": "0xb2",
          "logIndex": "0x17b",
          "removed": false
        },
        {
          "address": "0xe03a1074c86cfedd5c142c4f04f1a1536e203543",
          "topics": [
            "0x1b3d7edb2e9c0b0e7c525b20aaaef0f5940d2ed71663c7d39266ecafac728859",
            "0x0000000000000000000000009952d25eda1f305fcdb6ca9029520e33a7263ff8",
            "0x0000000000000000000000000000000000000000000000000000000000000000",
            "0x0000000000000000000000008999eac3df09a3f46099130a56c5cb1e9d79ba2a"
          ],
          "data": "0x0000000000000000000000009952d25eda1f305fcdb6ca9029520e33a7263ff800000000000000000000000000000000000000000000000000002d79883d2000",
          "blockHash": "0x95546626fc8c3d97f1ffb09ebb6d06bb89e147439fa3eee11819454e672e341c",
          "blockNumber": "0xa962ac",
          "blockTimestamp": "0x6a366bb4",
          "transactionHash": "0x845c1fe8d94bc89ffecf3968695767e4ef1720f2b53dde6b7c62c4dab1674dc7",
          "transactionIndex": "0xb2",
          "logIndex": "0x17c",
          "removed": false
        },
        {
          "address": "0x55c6aedc9d5384f00aecd3515556a150e272168b",
          "topics": [
            "0x6c07ee05dcf262f13abf9d87b846ee789d2f90fe991d495acd7d7fc109ee1f55"
          ],
          "data": "0x0000000000000000000000000000000000000000000000000000000017c60ac30000000000000000000000000000000000000000000000000000000000093a80",
          "blockHash": "0x95546626fc8c3d97f1ffb09ebb6d06bb89e147439fa3eee11819454e672e341c",
          "blockNumber": "0xa962ac",
          "blockTimestamp": "0x6a366bb4",
          "transactionHash": "0x845c1fe8d94bc89ffecf3968695767e4ef1720f2b53dde6b7c62c4dab1674dc7",
          "transactionIndex": "0xb2",
          "logIndex": "0x17d",
          "removed": false
        },
        {
          "address": "0x9952d25eda1f305fcdb6ca9029520e33a7263ff8",
          "topics": [
            "0xda378dba4f1dc8c7a566c70096e0389c466cb99cc2ec74173afd50c7b652ca09"
          ],
          "data": "0x0000000000000000000000000000000000000000000000000000000017c60ac30000000000000000000000000000000000000000000000000000000005f182b1",
          "blockHash": "0x95546626fc8c3d97f1ffb09ebb6d06bb89e147439fa3eee11819454e672e341c",
          "blockNumber": "0xa962ac",
          "blockTimestamp": "0x6a366bb4",
          "transactionHash": "0x845c1fe8d94bc89ffecf3968695767e4ef1720f2b53dde6b7c62c4dab1674dc7",
          "transactionIndex": "0xb2",
          "logIndex": "0x17e",
          "removed": false
        }
      ],
      "logsBloom": "0x00000000000000000000200000000008000001000000000000000000000000000000000000000000000000001000002000000100040000000000000000000000000000000000000000000000000004000000200000000020000000000000000001000000020100000000000000000800000800000000100000000000000000000000000000000000000000000000040000000000000000000000000000000000000002000000000000000000000020000010000000040000000000000008080000000000000000000001000000000000020000002000000000000100000020001000000000000000004000000010000000000004000000000000000004000000",
      "transactionHash": "0x845c1fe8d94bc89ffecf3968695767e4ef1720f2b53dde6b7c62c4dab1674dc7",
      "transactionIndex": "0xb2",
      "blockHash": "0x95546626fc8c3d97f1ffb09ebb6d06bb89e147439fa3eee11819454e672e341c",
      "blockNumber": "0xa962ac",
      "gasUsed": "0x2644b",
      "effectiveGasPrice": "0x3f9ace4c",
      "from": "0xf93e7518f79c2e1978d6862dbf161270040e623e",
      "to": "0x9952d25eda1f305fcdb6ca9029520e33a7263ff8",
      "contractAddress": null
    }
  ],
  "libraries": [],
  "pending": [],
  "returns": {},
  "timestamp": 1781951414037,
  "chain": 11155111,
  "commit": "e9509a8"
}