{
  "transactions": [
    {
      "hash": "0x06d6612e0f09fffc50fcefcfb1b8b09a2609608d6ac734dbc505323c14fd947f",
      "transactionType": "CALL",
      "contractName": null,
      "contractAddress": "0xaa46dd2434de4b06da8d4f7f0ace4e152eecbba6",
      "function": "approve(address,uint256)",
      "arguments": [
        "0x000000000022D473030F116dDEE9F6B43aC78BA3",
        "115792089237316195423570985008687907853269984665640564039457584007913129639935"
      ],
      "transaction": {
        "from": "0xf93e7518f79c2e1978d6862dbf161270040e623e",
        "to": "0xaa46dd2434de4b06da8d4f7f0ace4e152eecbba6",
        "gas": "0x9681",
        "value": "0x0",
        "input": "0x095ea7b3000000000000000000000000000000000022d473030f116ddee9f6b43ac78ba3ffffffffffffffffffffffffffffffffffffffffffffffffffffffffffffffff",
        "nonce": "0x30",
        "chainId": "0x14a34"
      },
      "additionalContracts": [],
      "isFixedGasLimit": false
    },
    {
      "hash": "0x6471bfe44214b3b0cf1f6bf9c95621cfd1e5e791d8180dd171abf9faa6397290",
      "transactionType": "CALL",
      "contractName": null,
      "contractAddress": "0x000000000022d473030f116ddee9f6b43ac78ba3",
      "function": "approve(address,address,uint160,uint48)",
      "arguments": [
        "0xaA46dd2434dE4b06Da8D4F7f0Ace4e152EecbbA6",
        "0x4B2C77d209D3405F41a037Ec6c77F7F5b8e2ca80",
        "1461501637330902918203684832716283019655932542975",
        "1781719594"
      ],
      "transaction": {
        "from": "0xf93e7518f79c2e1978d6862dbf161270040e623e",
        "to": "0x000000000022d473030f116ddee9f6b43ac78ba3",
        "gas": "0xa59b",
        "value": "0x0",
        "input": "0x87517c45000000000000000000000000aa46dd2434de4b06da8d4f7f0ace4e152eecbba60000000000000000000000004b2c77d209d3405f41a037ec6c77f7f5b8e2ca80000000000000000000000000ffffffffffffffffffffffffffffffffffffffff000000000000000000000000000000000000000000000000000000006a32e22a",
        "nonce": "0x31",
        "chainId": "0x14a34"
      },
      "additionalContracts": [],
      "isFixedGasLimit": false
    },
    {
      "hash": "0x5cac6ce5cb75bf76a8fa3e90ceab77a70ebfeb9f61bb5a529b6d88be3e295e1b",
      "transactionType": "CALL",
      "contractName": null,
      "contractAddress": "0x000000000022d473030f116ddee9f6b43ac78ba3",
      "function": "approve(address,address,uint160,uint48)",
      "arguments": [
        "0xaA46dd2434dE4b06Da8D4F7f0Ace4e152EecbbA6",
        "0x00000000000044a361Ae3cAc094c9D1b14Eece97",
        "1461501637330902918203684832716283019655932542975",
        "1781719594"
      ],
      "transaction": {
        "from": "0xf93e7518f79c2e1978d6862dbf161270040e623e",
        "to": "0x000000000022d473030f116ddee9f6b43ac78ba3",
        "gas": "0xa537",
        "value": "0x0",
        "input": "0x87517c45000000000000000000000000aa46dd2434de4b06da8d4f7f0ace4e152eecbba600000000000000000000000000000000000044a361ae3cac094c9d1b14eece97000000000000000000000000ffffffffffffffffffffffffffffffffffffffff000000000000000000000000000000000000000000000000000000006a32e22a",
        "nonce": "0x32",
        "chainId": "0x14a34"
      },
      "additionalContracts": [],
      "isFixedGasLimit": false
    },
    {
      "hash": "0xa8662f6f2f5d917a978ed6bd98bbcc07184302dacf64ca17c7591a3716db7c3a",
      "transactionType": "CALL",
      "contractName": null,
      "contractAddress": "0xaa46dd2434de4b06da8d4f7f0ace4e152eecbba6",
      "function": "approve(address,uint256)",
      "arguments": [
        "0x00000000000044a361Ae3cAc094c9D1b14Eece97",
        "115792089237316195423570985008687907853269984665640564039457584007913129639935"
      ],
      "transaction": {
        "from": "0xf93e7518f79c2e1978d6862dbf161270040e623e",
        "to": "0xaa46dd2434de4b06da8d4f7f0ace4e152eecbba6",
        "gas": "0x8e13",
        "value": "0x0",
        "input": "0x095ea7b300000000000000000000000000000000000044a361ae3cac094c9d1b14eece97ffffffffffffffffffffffffffffffffffffffffffffffffffffffffffffffff",
        "nonce": "0x33",
        "chainId": "0x14a34"
      },
      "additionalContracts": [],
      "isFixedGasLimit": false
    },
    {
      "hash": "0x346bcf25aa28ff1ad932c5c2c53235e955ae8e4af42a3abee83222a141481401",
      "transactionType": "CALL",
      "contractName": null,
      "contractAddress": "0xaa46dd2434de4b06da8d4f7f0ace4e152eecbba6",
      "function": "approve(address,uint256)",
      "arguments": [
        "0x61564EE98d9eFDc198AE6a48dFCd864C7F06A3B3",
        "115792089237316195423570985008687907853269984665640564039457584007913129639935"
      ],
      "transaction": {
        "from": "0xf93e7518f79c2e1978d6862dbf161270040e623e",
        "to": "0xaa46dd2434de4b06da8d4f7f0ace4e152eecbba6",
        "gas": "0x10888",
        "value": "0x0",
        "input": "0x095ea7b300000000000000000000000061564ee98d9efdc198ae6a48dfcd864c7f06a3b3ffffffffffffffffffffffffffffffffffffffffffffffffffffffffffffffff",
        "nonce": "0x34",
        "chainId": "0x14a34"
      },
      "additionalContracts": [],
      "isFixedGasLimit": false
    },
    {
      "hash": "0xe1ad762af51c2b3f4a49c660b73f764fe9c3ff11f6795e2b7fc2da76bf4f3206",
      "transactionType": "CALL",
      "contractName": null,
      "contractAddress": "0x4b2c77d209d3405f41a037ec6c77f7f5b8e2ca80",
      "function": "modifyLiquidities(bytes,uint256)",
      "arguments": [
        "0x000000000000000000000000000000000000000000000000000000000000004000000000000000000000000000000000000000000000000000000000000000800000000000000000000000000000000000000000000000000000000000000002020d00000000000000000000000000000000000000000000000000000000000000000000000000000000000000000000000000000000000000000000000000020000000000000000000000000000000000000000000000000000000000000040000000000000000000000000000000000000000000000000000000000000020000000000000000000000000000000000000000000000000000000000000001a00000000000000000000000000000000000000000000000000000000000000000000000000000000000000000aa46dd2434de4b06da8d4f7f0ace4e152eecbba60000000000000000000000000000000000000000000000000000000000000bb8000000000000000000000000000000000000000000000000000000000000003c000000000000000000000000ab0ae552ee5933935e39393d32b4034e75fd3ff8fffffffffffffffffffffffffffffffffffffffffffffffffffffffffff2764c00000000000000000000000000000000000000000000000000000000000d89b400000000000000000000000000000000000000000000000006f05b59d3b2000000000000000000000000000000000000ffffffffffffffffffffffffffffffff00000000000000000000000000000000ffffffffffffffffffffffffffffffff000000000000000000000000f93e7518f79c2e1978d6862dbf161270040e623e0000000000000000000000000000000000000000000000000000000000000180000000000000000000000000000000000000000000000000000000000000000000000000000000000000000000000000000000000000000000000000000000400000000000000000000000000000000000000000000000000000000000000000000000000000000000000000aa46dd2434de4b06da8d4f7f0ace4e152eecbba6",
        "1781633494"
      ],
      "transaction": {
        "from": "0xf93e7518f79c2e1978d6862dbf161270040e623e",
        "to": "0x4b2c77d209d3405f41a037ec6c77f7f5b8e2ca80",
        "gas": "0x63c89",
        "value": "0x11c37937e08000",
        "input": "0xdd46508f0000000000000000000000000000000000000000000000000000000000000040000000000000000000000000000000000000000000000000000000006a3191d60000000000000000000000000000000000000000000000000000000000000300000000000000000000000000000000000000000000000000000000000000004000000000000000000000000000000000000000000000000000000000000000800000000000000000000000000000000000000000000000000000000000000002020d00000000000000000000000000000000000000000000000000000000000000000000000000000000000000000000000000000000000000000000000000020000000000000000000000000000000000000000000000000000000000000040000000000000000000000000000000000000000000000000000000000000020000000000000000000000000000000000000000000000000000000000000001a00000000000000000000000000000000000000000000000000000000000000000000000000000000000000000aa46dd2434de4b06da8d4f7f0ace4e152eecbba60000000000000000000000000000000000000000000000000000000000000bb8000000000000000000000000000000000000000000000000000000000000003c000000000000000000000000ab0ae552ee5933935e39393d32b4034e75fd3ff8fffffffffffffffffffffffffffffffffffffffffffffffffffffffffff2764c00000000000000000000000000000000000000000000000000000000000d89b400000000000000000000000000000000000000000000000006f05b59d3b2000000000000000000000000000000000000ffffffffffffffffffffffffffffffff00000000000000000000000000000000ffffffffffffffffffffffffffffffff000000000000000000000000f93e7518f79c2e1978d6862dbf161270040e623e0000000000000000000000000000000000000000000000000000000000000180000000000000000000000000000000000000000000000000000000000000000000000000000000000000000000000000000000000000000000000000000000400000000000000000000000000000000000000000000000000000000000000000000000000000000000000000aa46dd2434de4b06da8d4f7f0ace4e152eecbba6",
        "nonce": "0x35",
        "chainId": "0x14a34"
      },
      "additionalContracts": [],
      "isFixedGasLimit": false
    },
    {
      "hash": "0x0f383e9eb13e8ba2855a4656a1b9e215244d76dba179a0262c03c4407fc947d8",
      "transactionType": "CALL",
      "contractName": null,
      "contractAddress": "0x00000000000044a361ae3cac094c9d1b14eece97",
      "function": "swapExactTokensForTokens(uint256,uint256,bool,(address,address,uint24,int24,address),bytes,address,uint256)",
      "arguments": [
        "1000000000000",
        "0",
        "true",
        "(0x0000000000000000000000000000000000000000, 0xaA46dd2434dE4b06Da8D4F7f0Ace4e152EecbbA6, 3000, 60, 0xaB0Ae552Ee5933935e39393D32b4034E75fD3Ff8)",
        "0x",
        "0xF93E7518F79C2E1978D6862Dbf161270040e623E",
        "1781633494"
      ],
      "transaction": {
        "from": "0xf93e7518f79c2e1978d6862dbf161270040e623e",
        "to": "0x00000000000044a361ae3cac094c9d1b14eece97",
        "gas": "0x42040",
        "value": "0xe8d4a51000",
        "input": "0xb1a0d571000000000000000000000000000000000000000000000000000000e8d4a51000000000000000000000000000000000000000000000000000000000000000000000000000000000000000000000000000000000000000000000000000000000010000000000000000000000000000000000000000000000000000000000000000000000000000000000000000aa46dd2434de4b06da8d4f7f0ace4e152eecbba60000000000000000000000000000000000000000000000000000000000000bb8000000000000000000000000000000000000000000000000000000000000003c000000000000000000000000ab0ae552ee5933935e39393d32b4034e75fd3ff80000000000000000000000000000000000000000000000000000000000000160000000000000000000000000f93e7518f79c2e1978d6862dbf161270040e623e000000000000000000000000000000000000000000000000000000006a3191d60000000000000000000000000000000000000000000000000000000000000000",
        "nonce": "0x36",
        "chainId": "0x14a34"
      },
      "additionalContracts": [],
      "isFixedGasLimit": false
    },
    {
      "hash": "0x82b5283b6473b7aaca4f38bbeef054ad67b836b46280df92e62652a2b9009e82",
      "transactionType": "CALL",
      "contractName": null,
      "contractAddress": "0xab0ae552ee5933935e39393d32b4034e75fd3ff8",
      "function": "claimFees(bool)",
      "arguments": [
        "true"
      ],
      "transaction": {
        "from": "0xf93e7518f79c2e1978d6862dbf161270040e623e",
        "to": "0xab0ae552ee5933935e39393d32b4034e75fd3ff8",
        "gas": "0x2912c",
        "value": "0x0",
        "input": "0x1d4161650000000000000000000000000000000000000000000000000000000000000001",
        "nonce": "0x37",
        "chainId": "0x14a34"
      },
      "additionalContracts": [],
      "isFixedGasLimit": false
    },
    {
      "hash": "0x95aafb91205a475a9c1107c6f44e7b91df4cfabcfcb16401a087cb8a4048b6f4",
      "transactionType": "CALL",
      "contractName": null,
      "contractAddress": "0x00000000000044a361ae3cac094c9d1b14eece97",
      "function": "swapExactTokensForTokens(uint256,uint256,bool,(address,address,uint24,int24,address),bytes,address,uint256)",
      "arguments": [
        "1000000000000000",
        "0",
        "false",
        "(0x0000000000000000000000000000000000000000, 0xaA46dd2434dE4b06Da8D4F7f0Ace4e152EecbbA6, 3000, 60, 0xaB0Ae552Ee5933935e39393D32b4034E75fD3Ff8)",
        "0x",
        "0xF93E7518F79C2E1978D6862Dbf161270040e623E",
        "1781633494"
      ],
      "transaction": {
        "from": "0xf93e7518f79c2e1978d6862dbf161270040e623e",
        "to": "0x00000000000044a361ae3cac094c9d1b14eece97",
        "gas": "0x400e8",
        "value": "0x0",
        "input": "0xb1a0d57100000000000000000000000000000000000000000000000000038d7ea4c68000000000000000000000000000000000000000000000000000000000000000000000000000000000000000000000000000000000000000000000000000000000000000000000000000000000000000000000000000000000000000000000000000000000000000000000000000aa46dd2434de4b06da8d4f7f0ace4e152eecbba60000000000000000000000000000000000000000000000000000000000000bb8000000000000000000000000000000000000000000000000000000000000003c000000000000000000000000ab0ae552ee5933935e39393d32b4034e75fd3ff80000000000000000000000000000000000000000000000000000000000000160000000000000000000000000f93e7518f79c2e1978d6862dbf161270040e623e000000000000000000000000000000000000000000000000000000006a3191d60000000000000000000000000000000000000000000000000000000000000000",
        "nonce": "0x38",
        "chainId": "0x14a34"
      },
      "additionalContracts": [],
      "isFixedGasLimit": false
    },
    {
      "hash": "0x5af9a550ddeaba9e8324801a6655984793cdf94b079d0b2a3e591d98e5b50c70",
      "transactionType": "CALL",
      "contractName": null,
      "contractAddress": "0xab0ae552ee5933935e39393d32b4034e75fd3ff8",
      "function": "claimFees(bool)",
      "arguments": [
        "false"
      ],
      "transaction": {
        "from": "0xf93e7518f79c2e1978d6862dbf161270040e623e",
        "to": "0xab0ae552ee5933935e39393d32b4034e75fd3ff8",
        "gas": "0x25773",
        "value": "0x0",
        "input": "0x1d4161650000000000000000000000000000000000000000000000000000000000000000",
        "nonce": "0x39",
        "chainId": "0x14a34"
      },
      "additionalContracts": [],
      "isFixedGasLimit": false
    },
    {
      "hash": "0x5e6c249bf0f0d78b217dff81303a9ca09fff5975bd93e4b6f31a293bbed1ec2c",
      "transactionType": "CALL",
      "contractName": null,
      "contractAddress": "0x61564ee98d9efdc198ae6a48dfcd864c7f06a3b3",
      "function": "stake(uint256)",
      "arguments": [
        "100000000000000000000"
      ],
      "transaction": {
        "from": "0xf93e7518f79c2e1978d6862dbf161270040e623e",
        "to": "0x61564ee98d9efdc198ae6a48dfcd864c7f06a3b3",
        "gas": "0x3dda6",
        "value": "0x0",
        "input": "0xa694fc3a0000000000000000000000000000000000000000000000056bc75e2d63100000",
        "nonce": "0x3a",
        "chainId": "0x14a34"
      },
      "additionalContracts": [],
      "isFixedGasLimit": false
    },
    {
      "hash": "0x5a2b5c41b2d4c412b0eb80877dccaaf11660eda018f513b9a4eaff265409a72d",
      "transactionType": "CALL",
      "contractName": null,
      "contractAddress": "0x00000000000044a361ae3cac094c9d1b14eece97",
      "function": "swapExactTokensForTokens(uint256,uint256,bool,(address,address,uint24,int24,address),bytes,address,uint256)",
      "arguments": [
        "1000000000000",
        "0",
        "true",
        "(0x0000000000000000000000000000000000000000, 0xaA46dd2434dE4b06Da8D4F7f0Ace4e152EecbbA6, 3000, 60, 0xaB0Ae552Ee5933935e39393D32b4034E75fD3Ff8)",
        "0x",
        "0xF93E7518F79C2E1978D6862Dbf161270040e623E",
        "1781633494"
      ],
      "transaction": {
        "from": "0xf93e7518f79c2e1978d6862dbf161270040e623e",
        "to": "0x00000000000044a361ae3cac094c9d1b14eece97",
        "gas": "0x45d20",
        "value": "0xe8d4a51000",
        "input": "0xb1a0d571000000000000000000000000000000000000000000000000000000e8d4a51000000000000000000000000000000000000000000000000000000000000000000000000000000000000000000000000000000000000000000000000000000000010000000000000000000000000000000000000000000000000000000000000000000000000000000000000000aa46dd2434de4b06da8d4f7f0ace4e152eecbba60000000000000000000000000000000000000000000000000000000000000bb8000000000000000000000000000000000000000000000000000000000000003c000000000000000000000000ab0ae552ee5933935e39393d32b4034e75fd3ff80000000000000000000000000000000000000000000000000000000000000160000000000000000000000000f93e7518f79c2e1978d6862dbf161270040e623e000000000000000000000000000000000000000000000000000000006a3191d60000000000000000000000000000000000000000000000000000000000000000",
        "nonce": "0x3b",
        "chainId": "0x14a34"
      },
      "additionalContracts": [],
      "isFixedGasLimit": false
    },
    {
      "hash": "0x28b30a4f8c428845603828f85a1a39a53f81fd85c5da8b645d82f3d2b7328455",
      "transactionType": "CALL",
      "contractName": null,
      "contractAddress": "0xab0ae552ee5933935e39393d32b4034e75fd3ff8",
      "function": "claimFees(bool)",
      "arguments": [
        "true"
      ],
      "transaction": {
        "from": "0xf93e7518f79c2e1978d6862dbf161270040e623e",
        "to": "0xab0ae552ee5933935e39393d32b4034e75fd3ff8",
        "gas": "0x27485",
        "value": "0x0",
        "input": "0x1d4161650000000000000000000000000000000000000000000000000000000000000001",
        "nonce": "0x3c",
        "chainId": "0x14a34"
      },
      "additionalContracts": [],
      "isFixedGasLimit": false
    },
    {
      "hash": "0xb2abf19e1b6be50718c5b3ad6dd6bb4f0f15986b25aefb61895dec150087ea23",
      "transactionType": "CALL",
      "contractName": null,
      "contractAddress": "0xaa46dd2434de4b06da8d4f7f0ace4e152eecbba6",
      "function": "burn(uint256)",
      "arguments": [
        "50000000000000000000"
      ],
      "transaction": {
        "from": "0xf93e7518f79c2e1978d6862dbf161270040e623e",
        "to": "0xaa46dd2434de4b06da8d4f7f0ace4e152eecbba6",
        "gas": "0x183e5",
        "value": "0x0",
        "input": "0x42966c68000000000000000000000000000000000000000000000002b5e3af16b1880000",
        "nonce": "0x3d",
        "chainId": "0x14a34"
      },
      "additionalContracts": [],
      "isFixedGasLimit": false
    },
    {
      "hash": "0xdf03399ff0d74e9ec85f856def71ca1948cec337c6b1a2153cc51b60c8879193",
      "transactionType": "CALL",
      "contractName": null,
      "contractAddress": "0xb14fe355e67a2c6f08a8b0291aa188b62718264a",
      "function": "flagLpBurner(address)",
      "arguments": [
        "0xF93E7518F79C2E1978D6862Dbf161270040e623E"
      ],
      "transaction": {
        "from": "0xf93e7518f79c2e1978d6862dbf161270040e623e",
        "to": "0xb14fe355e67a2c6f08a8b0291aa188b62718264a",
        "gas": "0x1fa0a",
        "value": "0x0",
        "input": "0xafa2f4d6000000000000000000000000f93e7518f79c2e1978d6862dbf161270040e623e",
        "nonce": "0x3e",
        "chainId": "0x14a34"
      },
      "additionalContracts": [],
      "isFixedGasLimit": false
    },
    {
      "hash": "0x9e0dcc7cab751873a07cfb512681e63ddf9bdaba977b438ce67388d40bf4b5d6",
      "transactionType": "CALL",
      "contractName": null,
      "contractAddress": "0x00000000000044a361ae3cac094c9d1b14eece97",
      "function": "swapExactTokensForTokens(uint256,uint256,bool,(address,address,uint24,int24,address),bytes,address,uint256)",
      "arguments": [
        "1000000000000000",
        "0",
        "false",
        "(0x0000000000000000000000000000000000000000, 0xaA46dd2434dE4b06Da8D4F7f0Ace4e152EecbbA6, 3000, 60, 0xaB0Ae552Ee5933935e39393D32b4034E75fD3Ff8)",
        "0x",
        "0xF93E7518F79C2E1978D6862Dbf161270040e623E",
        "1781633494"
      ],
      "transaction": {
        "from": "0xf93e7518f79c2e1978d6862dbf161270040e623e",
        "to": "0x00000000000044a361ae3cac094c9d1b14eece97",
        "gas": "0x3c778",
        "value": "0x0",
        "input": "0xb1a0d57100000000000000000000000000000000000000000000000000038d7ea4c68000000000000000000000000000000000000000000000000000000000000000000000000000000000000000000000000000000000000000000000000000000000000000000000000000000000000000000000000000000000000000000000000000000000000000000000000000aa46dd2434de4b06da8d4f7f0ace4e152eecbba60000000000000000000000000000000000000000000000000000000000000bb8000000000000000000000000000000000000000000000000000000000000003c000000000000000000000000ab0ae552ee5933935e39393d32b4034e75fd3ff80000000000000000000000000000000000000000000000000000000000000160000000000000000000000000f93e7518f79c2e1978d6862dbf161270040e623e000000000000000000000000000000000000000000000000000000006a3191d60000000000000000000000000000000000000000000000000000000000000000",
        "nonce": "0x3f",
        "chainId": "0x14a34"
      },
      "additionalContracts": [],
      "isFixedGasLimit": false
    },
    {
      "hash": "0xda782c8fe3451164238aaeae20f0766d9dd594526d0dc1397fed2268ebf9eb92",
      "transactionType": "CALL",
      "contractName": null,
      "contractAddress": "0xab0ae552ee5933935e39393d32b4034e75fd3ff8",
      "function": "claimFees(bool)",
      "arguments": [
        "false"
      ],
      "transaction": {
        "from": "0xf93e7518f79c2e1978d6862dbf161270040e623e",
        "to": "0xab0ae552ee5933935e39393d32b4034e75fd3ff8",
        "gas": "0x24774",
        "value": "0x0",
        "input": "0x1d4161650000000000000000000000000000000000000000000000000000000000000000",
        "nonce": "0x40",
        "chainId": "0x14a34"
      },
      "additionalContracts": [],
      "isFixedGasLimit": false
    }
  ],
  "receipts": [
    {
      "type": "0x2",
      "status": "0x1",
      "cumulativeGasUsed": "0x2177c9",
      "logs": [
        {
          "address": "0xaa46dd2434de4b06da8d4f7f0ace4e152eecbba6",
          "topics": [
            "0x8c5be1e5ebec7d5bd14f71427d1e84f3dd0314c0f7b2291e5b200ac8c7c3b925",
            "0x000000000000000000000000f93e7518f79c2e1978d6862dbf161270040e623e",
            "0x000000000000000000000000000000000022d473030f116ddee9f6b43ac78ba3"
          ],
          "data": "0xffffffffffffffffffffffffffffffffffffffffffffffffffffffffffffffff",
          "blockHash": "0x4f3fade4cb95a5d239178429f80f0c5740d64c81ef86a38a61dc7755ec6d6884",
          "blockNumber": "0x28f192c",
          "blockTimestamp": "0x6a319138",
          "transactionHash": "0xe1ad762af51c2b3f4a49c660b73f764fe9c3ff11f6795e2b7fc2da76bf4f3206",
          "transactionIndex": "0x15",
          "logIndex": "0x32",
          "removed": false
        }
      ],
      "logsBloom": "0x00000000000000000000000000000000000000000000000000000000800000000000000000000000000000000000000000000000800000200000000000200000000000000000000000004000000000000000000000000800000000000000000000000000000000000000000000000000000000000000000000000000800000000000000000000000000000000000000000000000000000000000000000100000020000000000000000000000000000000000000000000000000000000000000400000000000000000000000000000000000000000000000000000000000000000010000000000000004000000000000000000000000000000000000000000000",
      "transactionHash": "0xe1ad762af51c2b3f4a49c660b73f764fe9c3ff11f6795e2b7fc2da76bf4f3206",
      "transactionIndex": "0x15",
      "blockHash": "0x4f3fade4cb95a5d239178429f80f0c5740d64c81ef86a38a61dc7755ec6d6884",
      "blockNumber": "0x28f192c",
      "gasUsed": "0x66e9",
      "effectiveGasPrice": "0x5b8d80",
      "blobGasUsed": "0xae38",
      "from": "0xf93e7518f79c2e1978d6862dbf161270040e623e",
      "to": "0xaa46dd2434de4b06da8d4f7f0ace4e152eecbba6",
      "contractAddress": null,
      "l1GasPrice": "0x3ac8f639",
      "l1GasUsed": "0x640",
      "l1Fee": "0x1623d2277",
      "l1BaseFeeScalar": "0x44d",
      "l1BlobBaseFee": "0x3cc90f8",
      "l1BlobBaseFeeScalar": "0xa118b",
      "daFootprintGasScalar": "0x1be"
    },
    {
      "type": "0x2",
      "status": "0x1",
      "cumulativeGasUsed": "0x1346b8",
      "logs": [
        {
          "address": "0x000000000022d473030f116ddee9f6b43ac78ba3",
          "topics": [
            "0xda9fa7c1b00402c17d0161b249b1ab8bbec047c5a52207b9c112deffd817036b",
            "0x000000000000000000000000f93e7518f79c2e1978d6862dbf161270040e623e",
            "0x000000000000000000000000aa46dd2434de4b06da8d4f7f0ace4e152eecbba6",
            "0x0000000000000000000000004b2c77d209d3405f41a037ec6c77f7f5b8e2ca80"
          ],
          "data": "0x000000000000000000000000ffffffffffffffffffffffffffffffffffffffff000000000000000000000000000000000000000000000000000000006a32e22a",
          "blockHash": "0x50e1684f17efe26dbd07fbf16b5226b3c5c95cd3c6da4ab1e4f44f867183e491",
          "blockNumber": "0x28f192e",
          "blockTimestamp": "0x6a31913c",
          "transactionHash": "0x5a2b5c41b2d4c412b0eb80877dccaaf11660eda018f513b9a4eaff265409a72d",
          "transactionIndex": "0x8",
          "logIndex": "0x40",
          "removed": false
        }
      ],
      "logsBloom": "0x00010000000000010000000000000000000000000000000000000000800000000000000000000000000000000000000000000000000000200008000010480000000000000000000000000000000000000000000000040000000000000000000000000000000000000000000800000000000000000000000000000000000000000020000000000000000000000000000000000000000000000000000000100000000000000000000000000000000000000000000000000000000000080000000000000000000000000000000000000000000000000000000040000000000000000000000000000000000000000000000000000000000000000000000000000400",
      "transactionHash": "0x5a2b5c41b2d4c412b0eb80877dccaaf11660eda018f513b9a4eaff265409a72d",
      "transactionIndex": "0x8",
      "blockHash": "0x50e1684f17efe26dbd07fbf16b5226b3c5c95cd3c6da4ab1e4f44f867183e491",
      "blockNumber": "0x28f192e",
      "gasUsed": "0x77e6",
      "effectiveGasPrice": "0x5b8d80",
      "blobGasUsed": "0xc4de",
      "from": "0xf93e7518f79c2e1978d6862dbf161270040e623e",
      "to": "0x000000000022d473030f116ddee9f6b43ac78ba3",
      "contractAddress": null,
      "l1GasPrice": "0x3ac8f639",
      "l1GasUsed": "0x710",
      "l1Fee": "0x1904d4912",
      "l1BaseFeeScalar": "0x44d",
      "l1BlobBaseFee": "0x3cc90f8",
      "l1BlobBaseFeeScalar": "0xa118b",
      "daFootprintGasScalar": "0x1be"
    },
    {
      "type": "0x2",
      "status": "0x1",
      "cumulativeGasUsed": "0x13be56",
      "logs": [
        {
          "address": "0x000000000022d473030f116ddee9f6b43ac78ba3",
          "topics": [
            "0xda9fa7c1b00402c17d0161b249b1ab8bbec047c5a52207b9c112deffd817036b",
            "0x000000000000000000000000f93e7518f79c2e1978d6862dbf161270040e623e",
            "0x000000000000000000000000aa46dd2434de4b06da8d4f7f0ace4e152eecbba6",
            "0x00000000000000000000000000000000000044a361ae3cac094c9d1b14eece97"
          ],
          "data": "0x000000000000000000000000ffffffffffffffffffffffffffffffffffffffff000000000000000000000000000000000000000000000000000000006a32e22a",
          "blockHash": "0x50e1684f17efe26dbd07fbf16b5226b3c5c95cd3c6da4ab1e4f44f867183e491",
          "blockNumber": "0x28f192e",
          "blockTimestamp": "0x6a31913c",
          "transactionHash": "0x82b5283b6473b7aaca4f38bbeef054ad67b836b46280df92e62652a2b9009e82",
          "transactionIndex": "0x9",
          "logIndex": "0x41",
          "removed": false
        }
      ],
      "logsBloom": "0x00010000000000000000000000000000000000000000000000000000800000000000000000000000000000000000000000000000000000200000000040480000000000000000000000000000000000000000000000040000000000000000000000000000000000000000000800000000000000000000000000000000000040000020000000000000000000000000000000000000000000000000000000100000000000000000000000000000000000000000000000000000000000080000000000000000000000000000000000000000000000000000000040000000000000010000000000000000000000000000000000000000000000000000000000000400",
      "transactionHash": "0x82b5283b6473b7aaca4f38bbeef054ad67b836b46280df92e62652a2b9009e82",
      "transactionIndex": "0x9",
      "blockHash": "0x50e1684f17efe26dbd07fbf16b5226b3c5c95cd3c6da4ab1e4f44f867183e491",
      "blockNumber": "0x28f192e",
      "gasUsed": "0x779e",
      "effectiveGasPrice": "0x5b8d80",
      "blobGasUsed": "0xbde6",
      "from": "0xf93e7518f79c2e1978d6862dbf161270040e623e",
      "to": "0x000000000022d473030f116ddee9f6b43ac78ba3",
      "contractAddress": null,
      "l1GasPrice": "0x3ac8f639",
      "l1GasUsed": "0x6da",
      "l1Fee": "0x18472f5f8",
      "l1BaseFeeScalar": "0x44d",
      "l1BlobBaseFee": "0x3cc90f8",
      "l1BlobBaseFeeScalar": "0xa118b",
      "daFootprintGasScalar": "0x1be"
    },
    {
      "type": "0x2",
      "status": "0x1",
      "cumulativeGasUsed": "0x142533",
      "logs": [
        {
          "address": "0xaa46dd2434de4b06da8d4f7f0ace4e152eecbba6",
          "topics": [
            "0x8c5be1e5ebec7d5bd14f71427d1e84f3dd0314c0f7b2291e5b200ac8c7c3b925",
            "0x000000000000000000000000f93e7518f79c2e1978d6862dbf161270040e623e",
            "0x00000000000000000000000000000000000044a361ae3cac094c9d1b14eece97"
          ],
          "data": "0xffffffffffffffffffffffffffffffffffffffffffffffffffffffffffffffff",
          "blockHash": "0x50e1684f17efe26dbd07fbf16b5226b3c5c95cd3c6da4ab1e4f44f867183e491",
          "blockNumber": "0x28f192e",
          "blockTimestamp": "0x6a31913c",
          "transactionHash": "0xa8662f6f2f5d917a978ed6bd98bbcc07184302dacf64ca17c7591a3716db7c3a",
          "transactionIndex": "0xa",
          "logIndex": "0x42",
          "removed": false
        }
      ],
      "logsBloom": "0x00000000000000000000000000000000000000000000000000000000800000000000000000000000000000000000000000000000000000200000000040200000000000000000000000000000000000000000000000000000000000000000000000000000000000000000000000000000000000000000000000000000800040000000000000000000000000000000000000000000000000000000000000100000020000000000000000000000000000000000000000000000000000000000000400000000000000000000000000000000000000000000000000000000000000010010000000000000004000000000000000000000000000000000000000000000",
      "transactionHash": "0xa8662f6f2f5d917a978ed6bd98bbcc07184302dacf64ca17c7591a3716db7c3a",
      "transactionIndex": "0xa",
      "blockHash": "0x50e1684f17efe26dbd07fbf16b5226b3c5c95cd3c6da4ab1e4f44f867183e491",
      "blockNumber": "0x28f192e",
      "gasUsed": "0x66dd",
      "effectiveGasPrice": "0x5b8d80",
      "blobGasUsed": "0xae38",
      "from": "0xf93e7518f79c2e1978d6862dbf161270040e623e",
      "to": "0xaa46dd2434de4b06da8d4f7f0ace4e152eecbba6",
      "contractAddress": null,
      "l1GasPrice": "0x3ac8f639",
      "l1GasUsed": "0x640",
      "l1Fee": "0x1623d2277",
      "l1BaseFeeScalar": "0x44d",
      "l1BlobBaseFee": "0x3cc90f8",
      "l1BlobBaseFeeScalar": "0xa118b",
      "daFootprintGasScalar": "0x1be"
    },
    {
      "type": "0x2",
      "status": "0x1",
      "cumulativeGasUsed": "0x14da14",
      "logs": [
        {
          "address": "0xaa46dd2434de4b06da8d4f7f0ace4e152eecbba6",
          "topics": [
            "0x8c5be1e5ebec7d5bd14f71427d1e84f3dd0314c0f7b2291e5b200ac8c7c3b925",
            "0x000000000000000000000000f93e7518f79c2e1978d6862dbf161270040e623e",
            "0x00000000000000000000000061564ee98d9efdc198ae6a48dfcd864c7f06a3b3"
          ],
          "data": "0xffffffffffffffffffffffffffffffffffffffffffffffffffffffffffffffff",
          "blockHash": "0x50e1684f17efe26dbd07fbf16b5226b3c5c95cd3c6da4ab1e4f44f867183e491",
          "blockNumber": "0x28f192e",
          "blockTimestamp": "0x6a31913c",
          "transactionHash": "0x06d6612e0f09fffc50fcefcfb1b8b09a2609608d6ac734dbc505323c14fd947f",
          "transactionIndex": "0xb",
          "logIndex": "0x43",
          "removed": false
        }
      ],
      "logsBloom": "0x00000000000000000000000000000000000000000000000000000000800000000000000000000000000000000000000000000000000000200000000000200000000000000000000000000000000000000000000000000000000000000000000000000000000000000000001000000000000000000000000000000800800000000000000000000000000000000000000000000000000000000002000000100000020000000000000000000000000000000000000000000000000000000000000400000000000000000000000000000000000000000000000000000000000000000010000000000000004000000000000000000000000000000000000000000000",
      "transactionHash": "0x06d6612e0f09fffc50fcefcfb1b8b09a2609608d6ac734dbc505323c14fd947f",
      "transactionIndex": "0xb",
      "blockHash": "0x50e1684f17efe26dbd07fbf16b5226b3c5c95cd3c6da4ab1e4f44f867183e491",
      "blockNumber": "0x28f192e",
      "gasUsed": "0xb4e1",
      "effectiveGasPrice": "0x5b8d80",
      "blobGasUsed": "0xae38",
      "from": "0xf93e7518f79c2e1978d6862dbf161270040e623e",
      "to": "0xaa46dd2434de4b06da8d4f7f0ace4e152eecbba6",
      "contractAddress": null,
      "l1GasPrice": "0x3ac8f639",
      "l1GasUsed": "0x640",
      "l1Fee": "0x1623d2277",
      "l1BaseFeeScalar": "0x44d",
      "l1BlobBaseFee": "0x3cc90f8",
      "l1BlobBaseFeeScalar": "0xa118b",
      "daFootprintGasScalar": "0x1be"
    },
    {
      "type": "0x2",
      "status": "0x1",
      "cumulativeGasUsed": "0x195df2",
      "logs": [
        {
          "address": "0x4b2c77d209d3405f41a037ec6c77f7f5b8e2ca80",
          "topics": [
            "0xddf252ad1be2c89b69c2b068fc378daa952ba7f163c4a11628f55a4df523b3ef",
            "0x0000000000000000000000000000000000000000000000000000000000000000",
            "0x000000000000000000000000f93e7518f79c2e1978d6862dbf161270040e623e",
            "0x0000000000000000000000000000000000000000000000000000000000006183"
          ],
          "data": "0x",
          "blockHash": "0x50e1684f17efe26dbd07fbf16b5226b3c5c95cd3c6da4ab1e4f44f867183e491",
          "blockNumber": "0x28f192e",
          "blockTimestamp": "0x6a31913c",
          "transactionHash": "0x5af9a550ddeaba9e8324801a6655984793cdf94b079d0b2a3e591d98e5b50c70",
          "transactionIndex": "0xc",
          "logIndex": "0x44",
          "removed": false
        },
        {
          "address": "0x05e73354cfdd6745c338b50bcfdfa3aa6fa03408",
          "topics": [
            "0xf208f4912782fd25c7f114ca3723a2d5dd6f3bcc3ac8db5af63baa85f711d5ec",
            "0xdee57bc03bcf10854c85eff8b22a0c9619f304cf00c6ead952f5a82ec8950b9a",
            "0x0000000000000000000000004b2c77d209d3405f41a037ec6c77f7f5b8e2ca80"
          ],
          "data": "0xfffffffffffffffffffffffffffffffffffffffffffffffffffffffffff2764c00000000000000000000000000000000000000000000000000000000000d89b400000000000000000000000000000000000000000000000006f05b59d3b200000000000000000000000000000000000000000000000000000000000000006183",
          "blockHash": "0x50e1684f17efe26dbd07fbf16b5226b3c5c95cd3c6da4ab1e4f44f867183e491",
          "blockNumber": "0x28f192e",
          "blockTimestamp": "0x6a31913c",
          "transactionHash": "0x5af9a550ddeaba9e8324801a6655984793cdf94b079d0b2a3e591d98e5b50c70",
          "transactionIndex": "0xc",
          "logIndex": "0x45",
          "removed": false
        },
        {
          "address": "0xaa46dd2434de4b06da8d4f7f0ace4e152eecbba6",
          "topics": [
            "0xddf252ad1be2c89b69c2b068fc378daa952ba7f163c4a11628f55a4df523b3ef",
            "0x000000000000000000000000f93e7518f79c2e1978d6862dbf161270040e623e",
            "0x00000000000000000000000005e73354cfdd6745c338b50bcfdfa3aa6fa03408"
          ],
          "data": "0x0000000000000000000000000000000000000000000051866fbbeadcd1ebd5e5",
          "blockHash": "0x50e1684f17efe26dbd07fbf16b5226b3c5c95cd3c6da4ab1e4f44f867183e491",
          "blockNumber": "0x28f192e",
          "blockTimestamp": "0x6a31913c",
          "transactionHash": "0x5af9a550ddeaba9e8324801a6655984793cdf94b079d0b2a3e591d98e5b50c70",
          "transactionIndex": "0xc",
          "logIndex": "0x46",
          "removed": false
        }
      ],
      "logsBloom": "0x00000000000000010000000000000000000000000000000000000000800000000100000100000000000000000000000000000000000000200008000010000800000000000010000000000008000000200000000000100000000000008804000000000000020008000000000000000800000000000000000000000010800000000000000005000000000000000000000000000000000000000000000000100000000004000000000000000000000000000000000000000000000000000000000400000002001400000000000000000000000000000000000000000000000020000000000100000000004000000800000004000000000000000000000000000000",
      "transactionHash": "0x5af9a550ddeaba9e8324801a6655984793cdf94b079d0b2a3e591d98e5b50c70",
      "transactionIndex": "0xc",
      "blockHash": "0x50e1684f17efe26dbd07fbf16b5226b3c5c95cd3c6da4ab1e4f44f867183e491",
      "blockNumber": "0x28f192e",
      "gasUsed": "0x483de",
      "effectiveGasPrice": "0x5b8d80",
      "blobGasUsed": "0x1b1ce",
      "from": "0xf93e7518f79c2e1978d6862dbf161270040e623e",
      "to": "0x4b2c77d209d3405f41a037ec6c77f7f5b8e2ca80",
      "contractAddress": null,
      "l1GasPrice": "0x3ac8f639",
      "l1GasUsed": "0xf95",
      "l1Fee": "0x3734e0359",
      "l1BaseFeeScalar": "0x44d",
      "l1BlobBaseFee": "0x3cc90f8",
      "l1BlobBaseFeeScalar": "0xa118b",
      "daFootprintGasScalar": "0x1be"
    },
    {
      "type": "0x2",
      "status": "0x1",
      "cumulativeGasUsed": "0x2c2509",
      "logs": [
        {
          "address": "0xab0ae552ee5933935e39393d32b4034e75fd3ff8",
          "topics": [
            "0xeb18042c63a6494302e2e34ca89562fb59d5b25ded99d617905bdd7c4f891f03",
            "0x0000000000000000000000000000000000000000000000000000000000000001",
            "0x0000000000000000000000000000000000000000000000000000000000000001"
          ],
          "data": "0x0000000000000000000000000000000000000000000000000000000ba43b7400",
          "blockHash": "0xca257182e5b6d83cc763ac58424d54b6eab5e3ecba5a22728e0abcc38f2f85ff",
          "blockNumber": "0x28f192f",
          "blockTimestamp": "0x6a31913e",
          "transactionHash": "0xda782c8fe3451164238aaeae20f0766d9dd594526d0dc1397fed2268ebf9eb92",
          "transactionIndex": "0x15",
          "logIndex": "0x55",
          "removed": false
        },
        {
          "address": "0x05e73354cfdd6745c338b50bcfdfa3aa6fa03408",
          "topics": [
            "0x40e9cecb9f5f1f1c5b9c97dec2917b7ee92e57ba5563708daca94dd84ad7112f",
            "0xdee57bc03bcf10854c85eff8b22a0c9619f304cf00c6ead952f5a82ec8950b9a",
            "0x00000000000000000000000000000000000044a361ae3cac094c9d1b14eece97"
          ],
          "data": "0xffffffffffffffffffffffffffffffffffffffffffffffffffffff22cf96640000000000000000000000000000000000000000000000305da1891666fbbd3974000000000000000000000000000000000004c75e8eadd5fe62e728c2052a231000000000000000000000000000000000000000000000000006f05c42a8571000000000000000000000000000000000000000000000000000000000000003dcaf0000000000000000000000000000000000000000000000000000000000000bb8",
          "blockHash": "0xca257182e5b6d83cc763ac58424d54b6eab5e3ecba5a22728e0abcc38f2f85ff",
          "blockNumber": "0x28f192f",
          "blockTimestamp": "0x6a31913e",
          "transactionHash": "0xda782c8fe3451164238aaeae20f0766d9dd594526d0dc1397fed2268ebf9eb92",
          "transactionIndex": "0x15",
          "logIndex": "0x56",
          "removed": false
        },
        {
          "address": "0x05e73354cfdd6745c338b50bcfdfa3aa6fa03408",
          "topics": [
            "0x1b3d7edb2e9c0b0e7c525b20aaaef0f5940d2ed71663c7d39266ecafac728859",
            "0x0000000000000000000000000000000000000000000000000000000000000000",
            "0x000000000000000000000000ab0ae552ee5933935e39393d32b4034e75fd3ff8",
            "0x0000000000000000000000000000000000000000000000000000000000000000"
          ],
          "data": "0x000000000000000000000000ab0ae552ee5933935e39393d32b4034e75fd3ff80000000000000000000000000000000000000000000000000000000ba43b7400",
          "blockHash": "0xca257182e5b6d83cc763ac58424d54b6eab5e3ecba5a22728e0abcc38f2f85ff",
          "blockNumber": "0x28f192f",
          "blockTimestamp": "0x6a31913e",
          "transactionHash": "0xda782c8fe3451164238aaeae20f0766d9dd594526d0dc1397fed2268ebf9eb92",
          "transactionIndex": "0x15",
          "logIndex": "0x57",
          "removed": false
        },
        {
          "address": "0xaa46dd2434de4b06da8d4f7f0ace4e152eecbba6",
          "topics": [
            "0xddf252ad1be2c89b69c2b068fc378daa952ba7f163c4a11628f55a4df523b3ef",
            "0x00000000000000000000000005e73354cfdd6745c338b50bcfdfa3aa6fa03408",
            "0x000000000000000000000000f93e7518f79c2e1978d6862dbf161270040e623e"
          ],
          "data": "0x00000000000000000000000000000000000000000000305da1891666fbbd3974",
          "blockHash": "0xca257182e5b6d83cc763ac58424d54b6eab5e3ecba5a22728e0abcc38f2f85ff",
          "blockNumber": "0x28f192f",
          "blockTimestamp": "0x6a31913e",
          "transactionHash": "0xda782c8fe3451164238aaeae20f0766d9dd594526d0dc1397fed2268ebf9eb92",
          "transactionIndex": "0x15",
          "logIndex": "0x58",
          "removed": false
        }
      ],
      "logsBloom": "0x00000000000000000000000000000000000000000000001000000000800000000000002100000000000000000000000000000000040000200000000040040000000000000010000000000008000004200000000000140020000000000800000000000000020000000000000000000800000000000000000000000090800040000000000004000000000000000000000000000000000000000000000000180000000000000000000000000000000020000000000000000000000000000000000400000002001440000000000008000000000000000000000000000000000060010000000001000000004000000800000000000000000000008000000004001000",
      "transactionHash": "0xda782c8fe3451164238aaeae20f0766d9dd594526d0dc1397fed2268ebf9eb92",
      "transactionIndex": "0x15",
      "blockHash": "0xca257182e5b6d83cc763ac58424d54b6eab5e3ecba5a22728e0abcc38f2f85ff",
      "blockNumber": "0x28f192f",
      "gasUsed": "0x2fcb5",
      "effectiveGasPrice": "0x5b8d80",
      "blobGasUsed": "0x11f76",
      "from": "0xf93e7518f79c2e1978d6862dbf161270040e623e",
      "to": "0x00000000000044a361ae3cac094c9d1b14eece97",
      "contractAddress": null,
      "l1GasPrice": "0x3ac8f639",
      "l1GasUsed": "0xa5b",
      "l1Fee": "0x24afbe5e0",
      "l1BaseFeeScalar": "0x44d",
      "l1BlobBaseFee": "0x3cc90f8",
      "l1BlobBaseFeeScalar": "0xa118b",
      "daFootprintGasScalar": "0x1be"
    },
    {
      "type": "0x2",
      "status": "0x1",
      "cumulativeGasUsed": "0x2de663",
      "logs": [
        {
          "address": "0x05e73354cfdd6745c338b50bcfdfa3aa6fa03408",
          "topics": [
            "0x1b3d7edb2e9c0b0e7c525b20aaaef0f5940d2ed71663c7d39266ecafac728859",
            "0x000000000000000000000000ab0ae552ee5933935e39393d32b4034e75fd3ff8",
            "0x0000000000000000000000000000000000000000000000000000000000000000",
            "0x0000000000000000000000000000000000000000000000000000000000000000"
          ],
          "data": "0x000000000000000000000000ab0ae552ee5933935e39393d32b4034e75fd3ff80000000000000000000000000000000000000000000000000000000ba43b7400",
          "blockHash": "0xca257182e5b6d83cc763ac58424d54b6eab5e3ecba5a22728e0abcc38f2f85ff",
          "blockNumber": "0x28f192f",
          "blockTimestamp": "0x6a31913e",
          "transactionHash": "0xdf03399ff0d74e9ec85f856def71ca1948cec337c6b1a2153cc51b60c8879193",
          "transactionIndex": "0x16",
          "logIndex": "0x59",
          "removed": false
        },
        {
          "address": "0x61564ee98d9efdc198ae6a48dfcd864c7f06a3b3",
          "topics": [
            "0x6c07ee05dcf262f13abf9d87b846ee789d2f90fe991d495acd7d7fc109ee1f55"
          ],
          "data": "0x00000000000000000000000000000000000000000000000000000009502f90000000000000000000000000000000000000000000000000000000000000093a80",
          "blockHash": "0xca257182e5b6d83cc763ac58424d54b6eab5e3ecba5a22728e0abcc38f2f85ff",
          "blockNumber": "0x28f192f",
          "blockTimestamp": "0x6a31913e",
          "transactionHash": "0xdf03399ff0d74e9ec85f856def71ca1948cec337c6b1a2153cc51b60c8879193",
          "transactionIndex": "0x16",
          "logIndex": "0x5a",
          "removed": false
        },
        {
          "address": "0xab0ae552ee5933935e39393d32b4034e75fd3ff8",
          "topics": [
            "0xda378dba4f1dc8c7a566c70096e0389c466cb99cc2ec74173afd50c7b652ca09"
          ],
          "data": "0x00000000000000000000000000000000000000000000000000000009502f900000000000000000000000000000000000000000000000000000000002540be400",
          "blockHash": "0xca257182e5b6d83cc763ac58424d54b6eab5e3ecba5a22728e0abcc38f2f85ff",
          "blockNumber": "0x28f192f",
          "blockTimestamp": "0x6a31913e",
          "transactionHash": "0xdf03399ff0d74e9ec85f856def71ca1948cec337c6b1a2153cc51b60c8879193",
          "transactionIndex": "0x16",
          "logIndex": "0x5b",
          "removed": false
        }
      ],
      "logsBloom": "0x00000000000000000000000000000000000000000000000000000000000000000000002100000000000000000000000000000000000000000000000000000000000000080000000000000000000004000000200000000000000000000000000001000000020000000000000000000800000800000000000000000080000000000000000004000000000000000000000000000000000000000000000000000000020000000000000000000000000020000000000000000000000000000008000000000000001040000001000008000000000000000000000000001100000020000000000001000000000000000000000000000000000000008000000004000000",
      "transactionHash": "0xdf03399ff0d74e9ec85f856def71ca1948cec337c6b1a2153cc51b60c8879193",
      "transactionIndex": "0x16",
      "blockHash": "0xca257182e5b6d83cc763ac58424d54b6eab5e3ecba5a22728e0abcc38f2f85ff",
      "blockNumber": "0x28f192f",
      "gasUsed": "0x1c15a",
      "effectiveGasPrice": "0x5b8d80",
      "blobGasUsed": "0xae38",
      "from": "0xf93e7518f79c2e1978d6862dbf161270040e623e",
      "to": "0xab0ae552ee5933935e39393d32b4034e75fd3ff8",
      "contractAddress": null,
      "l1GasPrice": "0x3ac8f639",
      "l1GasUsed": "0x640",
      "l1Fee": "0x1623d2277",
      "l1BaseFeeScalar": "0x44d",
      "l1BlobBaseFee": "0x3cc90f8",
      "l1BlobBaseFeeScalar": "0xa118b",
      "daFootprintGasScalar": "0x1be"
    },
    {
      "type": "0x2",
      "status": "0x1",
      "cumulativeGasUsed": "0x30a32e",
      "logs": [
        {
          "address": "0xab0ae552ee5933935e39393d32b4034e75fd3ff8",
          "topics": [
            "0xeb18042c63a6494302e2e34ca89562fb59d5b25ded99d617905bdd7c4f891f03",
            "0x0000000000000000000000000000000000000000000000000000000000000000",
            "0x0000000000000000000000000000000000000000000000000000000000000000"
          ],
          "data": "0x00000000000000000000000000000000000000000000000000002d79883d2000",
          "blockHash": "0xca257182e5b6d83cc763ac58424d54b6eab5e3ecba5a22728e0abcc38f2f85ff",
          "blockNumber": "0x28f192f",
          "blockTimestamp": "0x6a31913e",
          "transactionHash": "0x5e6c249bf0f0d78b217dff81303a9ca09fff5975bd93e4b6f31a293bbed1ec2c",
          "transactionIndex": "0x17",
          "logIndex": "0x5c",
          "removed": false
        },
        {
          "address": "0x05e73354cfdd6745c338b50bcfdfa3aa6fa03408",
          "topics": [
            "0x40e9cecb9f5f1f1c5b9c97dec2917b7ee92e57ba5563708daca94dd84ad7112f",
            "0xdee57bc03bcf10854c85eff8b22a0c9619f304cf00c6ead952f5a82ec8950b9a",
            "0x00000000000000000000000000000000000044a361ae3cac094c9d1b14eece97"
          ],
          "data": "0x00000000000000000000000000000000000000000000000000000000000025b8fffffffffffffffffffffffffffffffffffffffffffffffffffc9ffae376a000000000000000000000000000000000000004c75e8f29fb02a9cc30de6147d47d00000000000000000000000000000000000000000000000006f05c42a8571000000000000000000000000000000000000000000000000000000000000003dcaf0000000000000000000000000000000000000000000000000000000000000bb8",
          "blockHash": "0xca257182e5b6d83cc763ac58424d54b6eab5e3ecba5a22728e0abcc38f2f85ff",
          "blockNumber": "0x28f192f",
          "blockTimestamp": "0x6a31913e",
          "transactionHash": "0x5e6c249bf0f0d78b217dff81303a9ca09fff5975bd93e4b6f31a293bbed1ec2c",
          "transactionIndex": "0x17",
          "logIndex": "0x5d",
          "removed": false
        },
        {
          "address": "0x05e73354cfdd6745c338b50bcfdfa3aa6fa03408",
          "topics": [
            "0x1b3d7edb2e9c0b0e7c525b20aaaef0f5940d2ed71663c7d39266ecafac728859",
            "0x0000000000000000000000000000000000000000000000000000000000000000",
            "0x000000000000000000000000ab0ae552ee5933935e39393d32b4034e75fd3ff8",
            "0x000000000000000000000000aa46dd2434de4b06da8d4f7f0ace4e152eecbba6"
          ],
          "data": "0x000000000000000000000000ab0ae552ee5933935e39393d32b4034e75fd3ff800000000000000000000000000000000000000000000000000002d79883d2000",
          "blockHash": "0xca257182e5b6d83cc763ac58424d54b6eab5e3ecba5a22728e0abcc38f2f85ff",
          "blockNumber": "0x28f192f",
          "blockTimestamp": "0x6a31913e",
          "transactionHash": "0x5e6c249bf0f0d78b217dff81303a9ca09fff5975bd93e4b6f31a293bbed1ec2c",
          "transactionIndex": "0x17",
          "logIndex": "0x5e",
          "removed": false
        },
        {
          "address": "0xaa46dd2434de4b06da8d4f7f0ace4e152eecbba6",
          "topics": [
            "0xddf252ad1be2c89b69c2b068fc378daa952ba7f163c4a11628f55a4df523b3ef",
            "0x000000000000000000000000f93e7518f79c2e1978d6862dbf161270040e623e",
            "0x00000000000000000000000005e73354cfdd6745c338b50bcfdfa3aa6fa03408"
          ],
          "data": "0x00000000000000000000000000000000000000000000000000038d7ea4c68000",
          "blockHash": "0xca257182e5b6d83cc763ac58424d54b6eab5e3ecba5a22728e0abcc38f2f85ff",
          "blockNumber": "0x28f192f",
          "blockTimestamp": "0x6a31913e",
          "transactionHash": "0x5e6c249bf0f0d78b217dff81303a9ca09fff5975bd93e4b6f31a293bbed1ec2c",
          "transactionIndex": "0x17",
          "logIndex": "0x5f",
          "removed": false
        }
      ],
      "logsBloom": "0x00000000000000000000000000000000000000000000001000000000800000000000002100000000000000000000000000000000040000200000000040400000000000000010000000000008000004200000000000140020000000000800000000000000020000000000000800000800000000000000000000000090800040000000000004000000000000000000000000000000000000000000000000180000000000000000000000000000000020000000000000000000000000000000000400000002001440000000000008000000000000000000000000000000000020010000000001000000004000000800000000000000000000008000000004001000",
      "transactionHash": "0x5e6c249bf0f0d78b217dff81303a9ca09fff5975bd93e4b6f31a293bbed1ec2c",
      "transactionIndex": "0x17",
      "blockHash": "0xca257182e5b6d83cc763ac58424d54b6eab5e3ecba5a22728e0abcc38f2f85ff",
      "blockNumber": "0x28f192f",
      "gasUsed": "0x2bccb",
      "effectiveGasPrice": "0x5b8d80",
      "blobGasUsed": "0x11db8",
      "from": "0xf93e7518f79c2e1978d6862dbf161270040e623e",
      "to": "0x00000000000044a361ae3cac094c9d1b14eece97",
      "contractAddress": null,
      "l1GasPrice": "0x3ac8f639",
      "l1GasUsed": "0xa40",
      "l1Fee": "0x2450ebc54",
      "l1BaseFeeScalar": "0x44d",
      "l1BlobBaseFee": "0x3cc90f8",
      "l1BlobBaseFeeScalar": "0xa118b",
      "daFootprintGasScalar": "0x1be"
    },
    {
      "type": "0x2",
      "status": "0x1",
      "cumulativeGasUsed": "0x323d10",
      "logs": [
        {
          "address": "0x05e73354cfdd6745c338b50bcfdfa3aa6fa03408",
          "topics": [
            "0x1b3d7edb2e9c0b0e7c525b20aaaef0f5940d2ed71663c7d39266ecafac728859",
            "0x000000000000000000000000ab0ae552ee5933935e39393d32b4034e75fd3ff8",
            "0x0000000000000000000000000000000000000000000000000000000000000000",
            "0x000000000000000000000000aa46dd2434de4b06da8d4f7f0ace4e152eecbba6"
          ],
          "data": "0x000000000000000000000000ab0ae552ee5933935e39393d32b4034e75fd3ff800000000000000000000000000000000000000000000000000002d79883d2000",
          "blockHash": "0xca257182e5b6d83cc763ac58424d54b6eab5e3ecba5a22728e0abcc38f2f85ff",
          "blockNumber": "0x28f192f",
          "blockTimestamp": "0x6a31913e",
          "transactionHash": "0x9e0dcc7cab751873a07cfb512681e63ddf9bdaba977b438ce67388d40bf4b5d6",
          "transactionIndex": "0x18",
          "logIndex": "0x60",
          "removed": false
        },
        {
          "address": "0xaa46dd2434de4b06da8d4f7f0ace4e152eecbba6",
          "topics": [
            "0xddf252ad1be2c89b69c2b068fc378daa952ba7f163c4a11628f55a4df523b3ef",
            "0x00000000000000000000000005e73354cfdd6745c338b50bcfdfa3aa6fa03408",
            "0x000000000000000000000000ab0ae552ee5933935e39393d32b4034e75fd3ff8"
          ],
          "data": "0x00000000000000000000000000000000000000000000000000002d79883d2000",
          "blockHash": "0xca257182e5b6d83cc763ac58424d54b6eab5e3ecba5a22728e0abcc38f2f85ff",
          "blockNumber": "0x28f192f",
          "blockTimestamp": "0x6a31913e",
          "transactionHash": "0x9e0dcc7cab751873a07cfb512681e63ddf9bdaba977b438ce67388d40bf4b5d6",
          "transactionIndex": "0x18",
          "logIndex": "0x61",
          "removed": false
        },
        {
          "address": "0xaa46dd2434de4b06da8d4f7f0ace4e152eecbba6",
          "topics": [
            "0xddf252ad1be2c89b69c2b068fc378daa952ba7f163c4a11628f55a4df523b3ef",
            "0x000000000000000000000000ab0ae552ee5933935e39393d32b4034e75fd3ff8",
            "0x0000000000000000000000000000000000000000000000000000000000000000"
          ],
          "data": "0x00000000000000000000000000000000000000000000000000002d79883d2000",
          "blockHash": "0xca257182e5b6d83cc763ac58424d54b6eab5e3ecba5a22728e0abcc38f2f85ff",
          "blockNumber": "0x28f192f",
          "blockTimestamp": "0x6a31913e",
          "transactionHash": "0x9e0dcc7cab751873a07cfb512681e63ddf9bdaba977b438ce67388d40bf4b5d6",
          "transactionIndex": "0x18",
          "logIndex": "0x62",
          "removed": false
        },
        {
          "address": "0xab0ae552ee5933935e39393d32b4034e75fd3ff8",
          "topics": [
            "0x6062168399e4fe8eaa1a9b7d0dcf3041cd29463a04b771c059c5a7328f753634"
          ],
          "data": "0x00000000000000000000000000000000000000000000000000002d79883d2000",
          "blockHash": "0xca257182e5b6d83cc763ac58424d54b6eab5e3ecba5a22728e0abcc38f2f85ff",
          "blockNumber": "0x28f192f",
          "blockTimestamp": "0x6a31913e",
          "transactionHash": "0x9e0dcc7cab751873a07cfb512681e63ddf9bdaba977b438ce67388d40bf4b5d6",
          "transactionIndex": "0x18",
          "logIndex": "0x63",
          "removed": false
        }
      ],
      "logsBloom": "0x00000000000000000000000000000000000000000000000000000000000000000000082100000000000000000000000000000000000000000000000000400000000000000010000000000008000004000000000000140000000000000000000000000000020000000000000800000800000000000000000000000090800000000000000004004000000000000000000000000000000000000000000000000000000000000000000000000000000020000000000000000000000000000000000400000002009040000000000008000000000000000000000000000000000020000000000001000000004000000800000000000000000000008000000004000000",
      "transactionHash": "0x9e0dcc7cab751873a07cfb512681e63ddf9bdaba977b438ce67388d40bf4b5d6",
      "transactionIndex": "0x18",
      "blockHash": "0xca257182e5b6d83cc763ac58424d54b6eab5e3ecba5a22728e0abcc38f2f85ff",
      "blockNumber": "0x28f192f",
      "gasUsed": "0x199e2",
      "effectiveGasPrice": "0x5b8d80",
      "blobGasUsed": "0xae38",
      "from": "0xf93e7518f79c2e1978d6862dbf161270040e623e",
      "to": "0xab0ae552ee5933935e39393d32b4034e75fd3ff8",
      "contractAddress": null,
      "l1GasPrice": "0x3ac8f639",
      "l1GasUsed": "0x640",
      "l1Fee": "0x1623d2277",
      "l1BaseFeeScalar": "0x44d",
      "l1BlobBaseFee": "0x3cc90f8",
      "l1BlobBaseFeeScalar": "0xa118b",
      "daFootprintGasScalar": "0x1be"
    },
    {
      "type": "0x2",
      "status": "0x1",
      "cumulativeGasUsed": "0x35098e",
      "logs": [
        {
          "address": "0xaa46dd2434de4b06da8d4f7f0ace4e152eecbba6",
          "topics": [
            "0x9e71bc8eea02a63969f509818f2dafb9254532904319f9dbda79b67bd34a5f3d",
            "0x000000000000000000000000f93e7518f79c2e1978d6862dbf161270040e623e"
          ],
          "data": "0x0000000000000000000000000000000000000000000000056bc75e2d63100000",
          "blockHash": "0xca257182e5b6d83cc763ac58424d54b6eab5e3ecba5a22728e0abcc38f2f85ff",
          "blockNumber": "0x28f192f",
          "blockTimestamp": "0x6a31913e",
          "transactionHash": "0x28b30a4f8c428845603828f85a1a39a53f81fd85c5da8b645d82f3d2b7328455",
          "transactionIndex": "0x19",
          "logIndex": "0x64",
          "removed": false
        },
        {
          "address": "0x61564ee98d9efdc198ae6a48dfcd864c7f06a3b3",
          "topics": [
            "0x1449c6dd7851abc30abf37f57715f492010519147cc2652fbc38202c18a6ee90",
            "0x000000000000000000000000f93e7518f79c2e1978d6862dbf161270040e623e"
          ],
          "data": "0x0000000000000000000000000000000000000000000000056bc75e2d631000000000000000000000000000000000000000000000000000056bc75e2d63100000",
          "blockHash": "0xca257182e5b6d83cc763ac58424d54b6eab5e3ecba5a22728e0abcc38f2f85ff",
          "blockNumber": "0x28f192f",
          "blockTimestamp": "0x6a31913e",
          "transactionHash": "0x28b30a4f8c428845603828f85a1a39a53f81fd85c5da8b645d82f3d2b7328455",
          "transactionIndex": "0x19",
          "logIndex": "0x65",
          "removed": false
        }
      ],
      "logsBloom": "0x00000000000000000000000000000000000000000800000000100000800200000000000000000000000000000000000000000000000000200000000000000000000000080000000000000000000000000000000000000000000000000000000040000000000000000008000000000000000000000000000000000000800000000000100000000000000000000000000000000000000000000000000000100000020000000000000000000000000000000000000000000000000000000000000400000000000000000000000000000000000000000000000000001000000000000000000000000000004000000000000000000000000000000000000000000000",
      "transactionHash": "0x28b30a4f8c428845603828f85a1a39a53f81fd85c5da8b645d82f3d2b7328455",
      "transactionIndex": "0x19",
      "blockHash": "0xca257182e5b6d83cc763ac58424d54b6eab5e3ecba5a22728e0abcc38f2f85ff",
      "blockNumber": "0x28f192f",
      "gasUsed": "0x2cc7e",
      "effectiveGasPrice": "0x5b8d80",
      "blobGasUsed": "0xae38",
      "from": "0xf93e7518f79c2e1978d6862dbf161270040e623e",
      "to": "0x61564ee98d9efdc198ae6a48dfcd864c7f06a3b3",
      "contractAddress": null,
      "l1GasPrice": "0x3ac8f639",
      "l1GasUsed": "0x640",
      "l1Fee": "0x1623d2277",
      "l1BaseFeeScalar": "0x44d",
      "l1BlobBaseFee": "0x3cc90f8",
      "l1BlobBaseFeeScalar": "0xa118b",
      "daFootprintGasScalar": "0x1be"
    },
    {
      "type": "0x2",
      "status": "0x1",
      "cumulativeGasUsed": "0x380567",
      "logs": [
        {
          "address": "0xab0ae552ee5933935e39393d32b4034e75fd3ff8",
          "topics": [
            "0xeb18042c63a6494302e2e34ca89562fb59d5b25ded99d617905bdd7c4f891f03",
            "0x0000000000000000000000000000000000000000000000000000000000000001",
            "0x0000000000000000000000000000000000000000000000000000000000000001"
          ],
          "data": "0x0000000000000000000000000000000000000000000000000000000ba43b7400",
          "blockHash": "0xca257182e5b6d83cc763ac58424d54b6eab5e3ecba5a22728e0abcc38f2f85ff",
          "blockNumber": "0x28f192f",
          "blockTimestamp": "0x6a31913e",
          "transactionHash": "0x346bcf25aa28ff1ad932c5c2c53235e955ae8e4af42a3abee83222a141481401",
          "transactionIndex": "0x1a",
          "logIndex": "0x66",
          "removed": false
        },
        {
          "address": "0x05e73354cfdd6745c338b50bcfdfa3aa6fa03408",
          "topics": [
            "0x40e9cecb9f5f1f1c5b9c97dec2917b7ee92e57ba5563708daca94dd84ad7112f",
            "0xdee57bc03bcf10854c85eff8b22a0c9619f304cf00c6ead952f5a82ec8950b9a",
            "0x00000000000000000000000000000000000044a361ae3cac094c9d1b14eece97"
          ],
          "data": "0xffffffffffffffffffffffffffffffffffffffffffffffffffffff22cf966400000000000000000000000000000000000000000000000c58e01bae85600c17b7000000000000000000000000000000000002ffd7129194dcc9767730b505d05200000000000000000000000000000000000000000000000006f05c42a8571000000000000000000000000000000000000000000000000000000000000003b84b0000000000000000000000000000000000000000000000000000000000000bb8",
          "blockHash": "0xca257182e5b6d83cc763ac58424d54b6eab5e3ecba5a22728e0abcc38f2f85ff",
          "blockNumber": "0x28f192f",
          "blockTimestamp": "0x6a31913e",
          "transactionHash": "0x346bcf25aa28ff1ad932c5c2c53235e955ae8e4af42a3abee83222a141481401",
          "transactionIndex": "0x1a",
          "logIndex": "0x67",
          "removed": false
        },
        {
          "address": "0x05e73354cfdd6745c338b50bcfdfa3aa6fa03408",
          "topics": [
            "0x1b3d7edb2e9c0b0e7c525b20aaaef0f5940d2ed71663c7d39266ecafac728859",
            "0x0000000000000000000000000000000000000000000000000000000000000000",
            "0x000000000000000000000000ab0ae552ee5933935e39393d32b4034e75fd3ff8",
            "0x0000000000000000000000000000000000000000000000000000000000000000"
          ],
          "data": "0x000000000000000000000000ab0ae552ee5933935e39393d32b4034e75fd3ff80000000000000000000000000000000000000000000000000000000ba43b7400",
          "blockHash": "0xca257182e5b6d83cc763ac58424d54b6eab5e3ecba5a22728e0abcc38f2f85ff",
          "blockNumber": "0x28f192f",
          "blockTimestamp": "0x6a31913e",
          "transactionHash": "0x346bcf25aa28ff1ad932c5c2c53235e955ae8e4af42a3abee83222a141481401",
          "transactionIndex": "0x1a",
          "logIndex": "0x68",
          "removed": false
        },
        {
          "address": "0xaa46dd2434de4b06da8d4f7f0ace4e152eecbba6",
          "topics": [
            "0xddf252ad1be2c89b69c2b068fc378daa952ba7f163c4a11628f55a4df523b3ef",
            "0x00000000000000000000000005e73354cfdd6745c338b50bcfdfa3aa6fa03408",
            "0x000000000000000000000000f93e7518f79c2e1978d6862dbf161270040e623e"
          ],
          "data": "0x000000000000000000000000000000000000000000000c58e01bae85600c17b7",
          "blockHash": "0xca257182e5b6d83cc763ac58424d54b6eab5e3ecba5a22728e0abcc38f2f85ff",
          "blockNumber": "0x28f192f",
          "blockTimestamp": "0x6a31913e",
          "transactionHash": "0x346bcf25aa28ff1ad932c5c2c53235e955ae8e4af42a3abee83222a141481401",
          "transactionIndex": "0x1a",
          "logIndex": "0x69",
          "removed": false
        }
      ],
      "logsBloom": "0x00000000000000000000000000000000000000000000001000000000800000000000002100000000000000000000000000000000040000200000000040040000000000000010000000000008000004200000000000140020000000000800000000000000020000000000000000000800000000000000000000000090800040000000000004000000000000000000000000000000000000000000000000180000000000000000000000000000000020000000000000000000000000000000000400000002001440000000000008000000000000000000000000000000000060010000000001000000004000000800000000000000000000008000000004001000",
      "transactionHash": "0x346bcf25aa28ff1ad932c5c2c53235e955ae8e4af42a3abee83222a141481401",
      "transactionIndex": "0x1a",
      "blockHash": "0xca257182e5b6d83cc763ac58424d54b6eab5e3ecba5a22728e0abcc38f2f85ff",
      "blockNumber": "0x28f192f",
      "gasUsed": "0x2fbd9",
      "effectiveGasPrice": "0x5b8d80",
      "blobGasUsed": "0x11f76",
      "from": "0xf93e7518f79c2e1978d6862dbf161270040e623e",
      "to": "0x00000000000044a361ae3cac094c9d1b14eece97",
      "contractAddress": null,
      "l1GasPrice": "0x3ac8f639",
      "l1GasUsed": "0xa5b",
      "l1Fee": "0x24afbe5e0",
      "l1BaseFeeScalar": "0x44d",
      "l1BlobBaseFee": "0x3cc90f8",
      "l1BlobBaseFeeScalar": "0xa118b",
      "daFootprintGasScalar": "0x1be"
    },
    {
      "type": "0x2",
      "status": "0x1",
      "cumulativeGasUsed": "0x39b329",
      "logs": [
        {
          "address": "0x05e73354cfdd6745c338b50bcfdfa3aa6fa03408",
          "topics": [
            "0x1b3d7edb2e9c0b0e7c525b20aaaef0f5940d2ed71663c7d39266ecafac728859",
            "0x000000000000000000000000ab0ae552ee5933935e39393d32b4034e75fd3ff8",
            "0x0000000000000000000000000000000000000000000000000000000000000000",
            "0x0000000000000000000000000000000000000000000000000000000000000000"
          ],
          "data": "0x000000000000000000000000ab0ae552ee5933935e39393d32b4034e75fd3ff80000000000000000000000000000000000000000000000000000000ba43b7400",
          "blockHash": "0xca257182e5b6d83cc763ac58424d54b6eab5e3ecba5a22728e0abcc38f2f85ff",
          "blockNumber": "0x28f192f",
          "blockTimestamp": "0x6a31913e",
          "transactionHash": "0x5cac6ce5cb75bf76a8fa3e90ceab77a70ebfeb9f61bb5a529b6d88be3e295e1b",
          "transactionIndex": "0x1b",
          "logIndex": "0x6a",
          "removed": false
        },
        {
          "address": "0x61564ee98d9efdc198ae6a48dfcd864c7f06a3b3",
          "topics": [
            "0x6c07ee05dcf262f13abf9d87b846ee789d2f90fe991d495acd7d7fc109ee1f55"
          ],
          "data": "0x00000000000000000000000000000000000000000000000000000009502f90000000000000000000000000000000000000000000000000000000000000093a80",
          "blockHash": "0xca257182e5b6d83cc763ac58424d54b6eab5e3ecba5a22728e0abcc38f2f85ff",
          "blockNumber": "0x28f192f",
          "blockTimestamp": "0x6a31913e",
          "transactionHash": "0x5cac6ce5cb75bf76a8fa3e90ceab77a70ebfeb9f61bb5a529b6d88be3e295e1b",
          "transactionIndex": "0x1b",
          "logIndex": "0x6b",
          "removed": false
        },
        {
          "address": "0xab0ae552ee5933935e39393d32b4034e75fd3ff8",
          "topics": [
            "0xda378dba4f1dc8c7a566c70096e0389c466cb99cc2ec74173afd50c7b652ca09"
          ],
          "data": "0x00000000000000000000000000000000000000000000000000000009502f900000000000000000000000000000000000000000000000000000000002540be400",
          "blockHash": "0xca257182e5b6d83cc763ac58424d54b6eab5e3ecba5a22728e0abcc38f2f85ff",
          "blockNumber": "0x28f192f",
          "blockTimestamp": "0x6a31913e",
          "transactionHash": "0x5cac6ce5cb75bf76a8fa3e90ceab77a70ebfeb9f61bb5a529b6d88be3e295e1b",
          "transactionIndex": "0x1b",
          "logIndex": "0x6c",
          "removed": false
        }
      ],
      "logsBloom": "0x00000000000000000000000000000000000000000000000000000000000000000000002100000000000000000000000000000000000000000000000000000000000000080000000000000000000004000000200000000000000000000000000001000000020000000000000000000800000800000000000000000080000000000000000004000000000000000000000000000000000000000000000000000000020000000000000000000000000020000000000000000000000000000008000000000000001040000001000008000000000000000000000000001100000020000000000001000000000000000000000000000000000000008000000004000000",
      "transactionHash": "0x5cac6ce5cb75bf76a8fa3e90ceab77a70ebfeb9f61bb5a529b6d88be3e295e1b",
      "transactionIndex": "0x1b",
      "blockHash": "0xca257182e5b6d83cc763ac58424d54b6eab5e3ecba5a22728e0abcc38f2f85ff",
      "blockNumber": "0x28f192f",
      "gasUsed": "0x1adc2",
      "effectiveGasPrice": "0x5b8d80",
      "blobGasUsed": "0xae38",
      "from": "0xf93e7518f79c2e1978d6862dbf161270040e623e",
      "to": "0xab0ae552ee5933935e39393d32b4034e75fd3ff8",
      "contractAddress": null,
      "l1GasPrice": "0x3ac8f639",
      "l1GasUsed": "0x640",
      "l1Fee": "0x1623d2277",
      "l1BaseFeeScalar": "0x44d",
      "l1BlobBaseFee": "0x3cc90f8",
      "l1BlobBaseFeeScalar": "0xa118b",
      "daFootprintGasScalar": "0x1be"
    },
    {
      "type": "0x2",
      "status": "0x1",
      "cumulativeGasUsed": "0x3acbfe",
      "logs": [
        {
          "address": "0xaa46dd2434de4b06da8d4f7f0ace4e152eecbba6",
          "topics": [
            "0xddf252ad1be2c89b69c2b068fc378daa952ba7f163c4a11628f55a4df523b3ef",
            "0x000000000000000000000000f93e7518f79c2e1978d6862dbf161270040e623e",
            "0x0000000000000000000000000000000000000000000000000000000000000000"
          ],
          "data": "0x000000000000000000000000000000000000000000000002b5e3af16b1880000",
          "blockHash": "0xca257182e5b6d83cc763ac58424d54b6eab5e3ecba5a22728e0abcc38f2f85ff",
          "blockNumber": "0x28f192f",
          "blockTimestamp": "0x6a31913e",
          "transactionHash": "0xb2abf19e1b6be50718c5b3ad6dd6bb4f0f15986b25aefb61895dec150087ea23",
          "transactionIndex": "0x1c",
          "logIndex": "0x6d",
          "removed": false
        }
      ],
      "logsBloom": "0x00000000000000000000000000000000000000000000000000000000800000000000000000000000000000000000000000000000000000200000000000000000000000000000000000000008000000000000000000000000000000000000000000000000020000000000000000000800000000000000000000000010800000000000000000000000000000000000000000000000000000000000000000100000000000000000000000000000000000000000000000000000000000000000000400000002000000000000000000000000000000000000000000000000000020000000000000000000004000000000000000000000000000000000000000000000",
      "transactionHash": "0xb2abf19e1b6be50718c5b3ad6dd6bb4f0f15986b25aefb61895dec150087ea23",
      "transactionIndex": "0x1c",
      "blockHash": "0xca257182e5b6d83cc763ac58424d54b6eab5e3ecba5a22728e0abcc38f2f85ff",
      "blockNumber": "0x28f192f",
      "gasUsed": "0x118d5",
      "effectiveGasPrice": "0x5b8d80",
      "blobGasUsed": "0xae38",
      "from": "0xf93e7518f79c2e1978d6862dbf161270040e623e",
      "to": "0xaa46dd2434de4b06da8d4f7f0ace4e152eecbba6",
      "contractAddress": null,
      "l1GasPrice": "0x3ac8f639",
      "l1GasUsed": "0x640",
      "l1Fee": "0x1623d2277",
      "l1BaseFeeScalar": "0x44d",
      "l1BlobBaseFee": "0x3cc90f8",
      "l1BlobBaseFeeScalar": "0xa118b",
      "daFootprintGasScalar": "0x1be"
    },
    {
      "type": "0x2",
      "status": "0x1",
      "cumulativeGasUsed": "0x3c3a5c",
      "logs": [
        {
          "address": "0xb14fe355e67a2c6f08a8b0291aa188b62718264a",
          "topics": [
            "0x38f632823cd466741bc92f6765ad8071cfcb8c37463f2c668c9319df6a8b6228",
            "0x000000000000000000000000f93e7518f79c2e1978d6862dbf161270040e623e"
          ],
          "data": "0x",
          "blockHash": "0x0000000000000000000000000000000000000000000000000000000000000000",
          "blockNumber": "0x28f192f",
          "blockTimestamp": "0x6a31913e",
          "transactionHash": "0x6471bfe44214b3b0cf1f6bf9c95621cfd1e5e791d8180dd171abf9faa6397290",
          "transactionIndex": "0x1d",
          "logIndex": "0x6e",
          "removed": false
        }
      ],
      "logsBloom": "0x00000000000000000000000000000000000000000000000000000000800000000000000000000000000000000000000000000000000000200000000000000000000000000000000000000000000000000000000000000000000000000000000000000000000000000000002000000000008000000000000000000000000000000000000000000000000000000000000000000000000000000000000000100000000000000000000000000000000000020000800000000000000000000000000000000000000000000000000000000000000000000000000002000000000000000000000000000000000000000000000000200000000000000000000000000000",
      "transactionHash": "0x6471bfe44214b3b0cf1f6bf9c95621cfd1e5e791d8180dd171abf9faa6397290",
      "transactionIndex": "0x1d",
      "blockHash": "0x0000000000000000000000000000000000000000000000000000000000000000",
      "blockNumber": "0x28f192f",
      "gasUsed": "0x16e5e",
      "effectiveGasPrice": "0x5b8d80",
      "blobGasUsed": "0xae38",
      "from": "0xf93e7518f79c2e1978d6862dbf161270040e623e",
      "to": "0xb14fe355e67a2c6f08a8b0291aa188b62718264a",
      "contractAddress": null,
      "l1GasPrice": "0x3ac8f639",
      "l1GasUsed": "0x640",
      "l1Fee": "0x23934693a",
      "l1BaseFeeScalar": "0x44d",
      "l1BlobBaseFee": "0x3cc90f8",
      "l1BlobBaseFeeScalar": "0xa118b",
      "daFootprintGasScalar": "0x1be"
    },
    {
      "type": "0x2",
      "status": "0x1",
      "cumulativeGasUsed": "0x3ef6cb",
      "logs": [
        {
          "address": "0xab0ae552ee5933935e39393d32b4034e75fd3ff8",
          "topics": [
            "0xeb18042c63a6494302e2e34ca89562fb59d5b25ded99d617905bdd7c4f891f03",
            "0x0000000000000000000000000000000000000000000000000000000000000000",
            "0x0000000000000000000000000000000000000000000000000000000000000000"
          ],
          "data": "0x00000000000000000000000000000000000000000000000000002d79883d2000",
          "blockHash": "0xca257182e5b6d83cc763ac58424d54b6eab5e3ecba5a22728e0abcc38f2f85ff",
          "blockNumber": "0x28f192f",
          "blockTimestamp": "0x6a31913e",
          "transactionHash": "0x95aafb91205a475a9c1107c6f44e7b91df4cfabcfcb16401a087cb8a4048b6f4",
          "transactionIndex": "0x1e",
          "logIndex": "0x6f",
          "removed": false
        },
        {
          "address": "0x05e73354cfdd6745c338b50bcfdfa3aa6fa03408",
          "topics": [
            "0x40e9cecb9f5f1f1c5b9c97dec2917b7ee92e57ba5563708daca94dd84ad7112f",
            "0xdee57bc03bcf10854c85eff8b22a0c9619f304cf00c6ead952f5a82ec8950b9a",
            "0x00000000000000000000000000000000000044a361ae3cac094c9d1b14eece97"
          ],
          "data": "0x0000000000000000000000000000000000000000000000000000000000005fc1fffffffffffffffffffffffffffffffffffffffffffffffffffc9ffae376a000000000000000000000000000000000000002ffd7130db9e1105b7f4d112381bf00000000000000000000000000000000000000000000000006f05c42a8571000000000000000000000000000000000000000000000000000000000000003b84b0000000000000000000000000000000000000000000000000000000000000bb8",
          "blockHash": "0xca257182e5b6d83cc763ac58424d54b6eab5e3ecba5a22728e0abcc38f2f85ff",
          "blockNumber": "0x28f192f",
          "blockTimestamp": "0x6a31913e",
          "transactionHash": "0x95aafb91205a475a9c1107c6f44e7b91df4cfabcfcb16401a087cb8a4048b6f4",
          "transactionIndex": "0x1e",
          "logIndex": "0x70",
          "removed": false
        },
        {
          "address": "0x05e73354cfdd6745c338b50bcfdfa3aa6fa03408",
          "topics": [
            "0x1b3d7edb2e9c0b0e7c525b20aaaef0f5940d2ed71663c7d39266ecafac728859",
            "0x0000000000000000000000000000000000000000000000000000000000000000",
            "0x000000000000000000000000ab0ae552ee5933935e39393d32b4034e75fd3ff8",
            "0x000000000000000000000000aa46dd2434de4b06da8d4f7f0ace4e152eecbba6"
          ],
          "data": "0x000000000000000000000000ab0ae552ee5933935e39393d32b4034e75fd3ff800000000000000000000000000000000000000000000000000002d79883d2000",
          "blockHash": "0xca257182e5b6d83cc763ac58424d54b6eab5e3ecba5a22728e0abcc38f2f85ff",
          "blockNumber": "0x28f192f",
          "blockTimestamp": "0x6a31913e",
          "transactionHash": "0x95aafb91205a475a9c1107c6f44e7b91df4cfabcfcb16401a087cb8a4048b6f4",
          "transactionIndex": "0x1e",
          "logIndex": "0x71",
          "removed": false
        },
        {
          "address": "0xaa46dd2434de4b06da8d4f7f0ace4e152eecbba6",
          "topics": [
            "0xddf252ad1be2c89b69c2b068fc378daa952ba7f163c4a11628f55a4df523b3ef",
            "0x000000000000000000000000f93e7518f79c2e1978d6862dbf161270040e623e",
            "0x00000000000000000000000005e73354cfdd6745c338b50bcfdfa3aa6fa03408"
          ],
          "data": "0x00000000000000000000000000000000000000000000000000038d7ea4c68000",
          "blockHash": "0xca257182e5b6d83cc763ac58424d54b6eab5e3ecba5a22728e0abcc38f2f85ff",
          "blockNumber": "0x28f192f",
          "blockTimestamp": "0x6a31913e",
          "transactionHash": "0x95aafb91205a475a9c1107c6f44e7b91df4cfabcfcb16401a087cb8a4048b6f4",
          "transactionIndex": "0x1e",
          "logIndex": "0x72",
          "removed": false
        }
      ],
      "logsBloom": "0x00000000000000000000000000000000000000000000001000000000800000000000002100000000000000000000000000000000040000200000000040400000000000000010000000000008000004200000000000140020000000000800000000000000020000000000000800000800000000000000000000000090800040000000000004000000000000000000000000000000000000000000000000180000000000000000000000000000000020000000000000000000000000000000000400000002001440000000000008000000000000000000000000000000000020010000000001000000004000000800000000000000000000008000000004001000",
      "transactionHash": "0x95aafb91205a475a9c1107c6f44e7b91df4cfabcfcb16401a087cb8a4048b6f4",
      "transactionIndex": "0x1e",
      "blockHash": "0xca257182e5b6d83cc763ac58424d54b6eab5e3ecba5a22728e0abcc38f2f85ff",
      "blockNumber": "0x28f192f",
      "gasUsed": "0x2bc6f",
      "effectiveGasPrice": "0x5b8d80",
      "blobGasUsed": "0x11db8",
      "from": "0xf93e7518f79c2e1978d6862dbf161270040e623e",
      "to": "0x00000000000044a361ae3cac094c9d1b14eece97",
      "contractAddress": null,
      "l1GasPrice": "0x3ac8f639",
      "l1GasUsed": "0xa40",
      "l1Fee": "0x2450ebc54",
      "l1BaseFeeScalar": "0x44d",
      "l1BlobBaseFee": "0x3cc90f8",
      "l1BlobBaseFeeScalar": "0xa118b",
      "daFootprintGasScalar": "0x1be"
    },
    {
      "type": "0x2",
      "status": "0x1",
      "cumulativeGasUsed": "0x4085bd",
      "logs": [
        {
          "address": "0x05e73354cfdd6745c338b50bcfdfa3aa6fa03408",
          "topics": [
            "0x1b3d7edb2e9c0b0e7c525b20aaaef0f5940d2ed71663c7d39266ecafac728859",
            "0x000000000000000000000000ab0ae552ee5933935e39393d32b4034e75fd3ff8",
            "0x0000000000000000000000000000000000000000000000000000000000000000",
            "0x000000000000000000000000aa46dd2434de4b06da8d4f7f0ace4e152eecbba6"
          ],
          "data": "0x000000000000000000000000ab0ae552ee5933935e39393d32b4034e75fd3ff800000000000000000000000000000000000000000000000000002d79883d2000",
          "blockHash": "0xca257182e5b6d83cc763ac58424d54b6eab5e3ecba5a22728e0abcc38f2f85ff",
          "blockNumber": "0x28f192f",
          "blockTimestamp": "0x6a31913e",
          "transactionHash": "0x0f383e9eb13e8ba2855a4656a1b9e215244d76dba179a0262c03c4407fc947d8",
          "transactionIndex": "0x1f",
          "logIndex": "0x73",
          "removed": false
        },
        {
          "address": "0xaa46dd2434de4b06da8d4f7f0ace4e152eecbba6",
          "topics": [
            "0xddf252ad1be2c89b69c2b068fc378daa952ba7f163c4a11628f55a4df523b3ef",
            "0x00000000000000000000000005e73354cfdd6745c338b50bcfdfa3aa6fa03408",
            "0x000000000000000000000000ab0ae552ee5933935e39393d32b4034e75fd3ff8"
          ],
          "data": "0x00000000000000000000000000000000000000000000000000002d79883d2000",
          "blockHash": "0xca257182e5b6d83cc763ac58424d54b6eab5e3ecba5a22728e0abcc38f2f85ff",
          "blockNumber": "0x28f192f",
          "blockTimestamp": "0x6a31913e",
          "transactionHash": "0x0f383e9eb13e8ba2855a4656a1b9e215244d76dba179a0262c03c4407fc947d8",
          "transactionIndex": "0x1f",
          "logIndex": "0x74",
          "removed": false
        },
        {
          "address": "0xaa46dd2434de4b06da8d4f7f0ace4e152eecbba6",
          "topics": [
            "0xddf252ad1be2c89b69c2b068fc378daa952ba7f163c4a11628f55a4df523b3ef",
            "0x000000000000000000000000ab0ae552ee5933935e39393d32b4034e75fd3ff8",
            "0x0000000000000000000000000000000000000000000000000000000000000000"
          ],
          "data": "0x00000000000000000000000000000000000000000000000000002d79883d2000",
          "blockHash": "0xca257182e5b6d83cc763ac58424d54b6eab5e3ecba5a22728e0abcc38f2f85ff",
          "blockNumber": "0x28f192f",
          "blockTimestamp": "0x6a31913e",
          "transactionHash": "0x0f383e9eb13e8ba2855a4656a1b9e215244d76dba179a0262c03c4407fc947d8",
          "transactionIndex": "0x1f",
          "logIndex": "0x75",
          "removed": false
        },
        {
          "address": "0xab0ae552ee5933935e39393d32b4034e75fd3ff8",
          "topics": [
            "0x6062168399e4fe8eaa1a9b7d0dcf3041cd29463a04b771c059c5a7328f753634"
          ],
          "data": "0x00000000000000000000000000000000000000000000000000002d79883d2000",
          "blockHash": "0xca257182e5b6d83cc763ac58424d54b6eab5e3ecba5a22728e0abcc38f2f85ff",
          "blockNumber": "0x28f192f",
          "blockTimestamp": "0x6a31913e",
          "transactionHash": "0x0f383e9eb13e8ba2855a4656a1b9e215244d76dba179a0262c03c4407fc947d8",
          "transactionIndex": "0x1f",
          "logIndex": "0x76",
          "removed": false
        }
      ],
      "logsBloom": "0x00000000000000000000000000000000000000000000000000000000000000000000082100000000000000000000000000000000000000000000000000400000000000000010000000000008000004000000000000140000000000000000000000000000020000000000000800000800000000000000000000000090800000000000000004004000000000000000000000000000000000000000000000000000000000000000000000000000000020000000000000000000000000000000000400000002009040000000000008000000000000000000000000000000000020000000000001000000004000000800000000000000000000008000000004000000",
      "transactionHash": "0x0f383e9eb13e8ba2855a4656a1b9e215244d76dba179a0262c03c4407fc947d8",
      "transactionIndex": "0x1f",
      "blockHash": "0xca257182e5b6d83cc763ac58424d54b6eab5e3ecba5a22728e0abcc38f2f85ff",
      "blockNumber": "0x28f192f",
      "gasUsed": "0x18ef2",
      "effectiveGasPrice": "0x5b8d80",
      "blobGasUsed": "0xae38",
      "from": "0xf93e7518f79c2e1978d6862dbf161270040e623e",
      "to": "0xab0ae552ee5933935e39393d32b4034e75fd3ff8",
      "contractAddress": null,
      "l1GasPrice": "0x3ac8f639",
      "l1GasUsed": "0x640",
      "l1Fee": "0x1623d2277",
      "l1BaseFeeScalar": "0x44d",
      "l1BlobBaseFee": "0x3cc90f8",
      "l1BlobBaseFeeScalar": "0xa118b",
      "daFootprintGasScalar": "0x1be"
    }
  ],
  "libraries": [],
  "pending": [],
  "returns": {},
  "timestamp": 1781633351664,
  "chain": 84532,
  "commit": "6418441"
}