{
  "transactions": [
    {
      "hash": "0x91f4ef5d42978a3aab5b6dd4866f8054e8329f44acea2b3292ad8431073f66bc",
      "transactionType": "CALL",
      "contractName": null,
      "contractAddress": "0xaa46dd2434de4b06da8d4f7f0ace4e152eecbba6",
      "function": "approve(address,uint256)",
      "arguments": [
        "0x000000000022D473030F116dDEE9F6B43aC78BA3",
        "115792089237316195423570985008687907853269984665640564039457584007913129639935"
      ],
      "transaction": {
        "from": "0xf93e7518f79c2e1978d6862dbf161270040e623e",
        "to": "0xaa46dd2434de4b06da8d4f7f0ace4e152eecbba6",
        "gas": "0x9681",
        "value": "0x0",
        "input": "0x095ea7b3000000000000000000000000000000000022d473030f116ddee9f6b43ac78ba3ffffffffffffffffffffffffffffffffffffffffffffffffffffffffffffffff",
        "nonce": "0x41",
        "chainId": "0x14a34"
      },
      "additionalContracts": [],
      "isFixedGasLimit": false
    },
    {
      "hash": "0x6f18f413c23f9e38ec1b5060465428e9d3ea89feefe72b0e456e46b5e3163911",
      "transactionType": "CALL",
      "contractName": null,
      "contractAddress": "0x000000000022d473030f116ddee9f6b43ac78ba3",
      "function": "approve(address,address,uint160,uint48)",
      "arguments": [
        "0xaA46dd2434dE4b06Da8D4F7f0Ace4e152EecbbA6",
        "0x4B2C77d209D3405F41a037Ec6c77F7F5b8e2ca80",
        "1461501637330902918203684832716283019655932542975",
        "1781720272"
      ],
      "transaction": {
        "from": "0xf93e7518f79c2e1978d6862dbf161270040e623e",
        "to": "0x000000000022d473030f116ddee9f6b43ac78ba3",
        "gas": "0xa59b",
        "value": "0x0",
        "input": "0x87517c45000000000000000000000000aa46dd2434de4b06da8d4f7f0ace4e152eecbba60000000000000000000000004b2c77d209d3405f41a037ec6c77f7f5b8e2ca80000000000000000000000000ffffffffffffffffffffffffffffffffffffffff000000000000000000000000000000000000000000000000000000006a32e4d0",
        "nonce": "0x42",
        "chainId": "0x14a34"
      },
      "additionalContracts": [],
      "isFixedGasLimit": false
    },
    {
      "hash": "0xd43bed4f4c1fb4bc62d14f88f9b11c7ac8e3cf35a5d02ee4ec045fa5d21a7604",
      "transactionType": "CALL",
      "contractName": null,
      "contractAddress": "0x000000000022d473030f116ddee9f6b43ac78ba3",
      "function": "approve(address,address,uint160,uint48)",
      "arguments": [
        "0xaA46dd2434dE4b06Da8D4F7f0Ace4e152EecbbA6",
        "0x00000000000044a361Ae3cAc094c9D1b14Eece97",
        "1461501637330902918203684832716283019655932542975",
        "1781720272"
      ],
      "transaction": {
        "from": "0xf93e7518f79c2e1978d6862dbf161270040e623e",
        "to": "0x000000000022d473030f116ddee9f6b43ac78ba3",
        "gas": "0xa537",
        "value": "0x0",
        "input": "0x87517c45000000000000000000000000aa46dd2434de4b06da8d4f7f0ace4e152eecbba600000000000000000000000000000000000044a361ae3cac094c9d1b14eece97000000000000000000000000ffffffffffffffffffffffffffffffffffffffff000000000000000000000000000000000000000000000000000000006a32e4d0",
        "nonce": "0x43",
        "chainId": "0x14a34"
      },
      "additionalContracts": [],
      "isFixedGasLimit": false
    },
    {
      "hash": "0x66a6e4b470f4b9113e3d48c1dccf270d550c713cc49df5d60f91720ed42041ac",
      "transactionType": "CALL",
      "contractName": null,
      "contractAddress": "0xaa46dd2434de4b06da8d4f7f0ace4e152eecbba6",
      "function": "approve(address,uint256)",
      "arguments": [
        "0x00000000000044a361Ae3cAc094c9D1b14Eece97",
        "115792089237316195423570985008687907853269984665640564039457584007913129639935"
      ],
      "transaction": {
        "from": "0xf93e7518f79c2e1978d6862dbf161270040e623e",
        "to": "0xaa46dd2434de4b06da8d4f7f0ace4e152eecbba6",
        "gas": "0x8e13",
        "value": "0x0",
        "input": "0x095ea7b300000000000000000000000000000000000044a361ae3cac094c9d1b14eece97ffffffffffffffffffffffffffffffffffffffffffffffffffffffffffffffff",
        "nonce": "0x44",
        "chainId": "0x14a34"
      },
      "additionalContracts": [],
      "isFixedGasLimit": false
    },
    {
      "hash": "0xaa79d3574a8a5a524fc7bd801fa62af87c8617d3884cb52b6a3a9af9fda089fa",
      "transactionType": "CALL",
      "contractName": null,
      "contractAddress": "0xaa46dd2434de4b06da8d4f7f0ace4e152eecbba6",
      "function": "approve(address,uint256)",
      "arguments": [
        "0x61564EE98d9eFDc198AE6a48dFCd864C7F06A3B3",
        "115792089237316195423570985008687907853269984665640564039457584007913129639935"
      ],
      "transaction": {
        "from": "0xf93e7518f79c2e1978d6862dbf161270040e623e",
        "to": "0xaa46dd2434de4b06da8d4f7f0ace4e152eecbba6",
        "gas": "0x8e77",
        "value": "0x0",
        "input": "0x095ea7b300000000000000000000000061564ee98d9efdc198ae6a48dfcd864c7f06a3b3ffffffffffffffffffffffffffffffffffffffffffffffffffffffffffffffff",
        "nonce": "0x45",
        "chainId": "0x14a34"
      },
      "additionalContracts": [],
      "isFixedGasLimit": false
    },
    {
      "hash": "0xcc0c1b406221430522e7e39c7f91bc48e5d45048c2df557978645dd3340755ff",
      "transactionType": "CALL",
      "contractName": null,
      "contractAddress": "0x4b2c77d209d3405f41a037ec6c77f7f5b8e2ca80",
      "function": "modifyLiquidities(bytes,uint256)",
      "arguments": [
        "0x000000000000000000000000000000000000000000000000000000000000004000000000000000000000000000000000000000000000000000000000000000800000000000000000000000000000000000000000000000000000000000000002020d00000000000000000000000000000000000000000000000000000000000000000000000000000000000000000000000000000000000000000000000000020000000000000000000000000000000000000000000000000000000000000040000000000000000000000000000000000000000000000000000000000000020000000000000000000000000000000000000000000000000000000000000001a00000000000000000000000000000000000000000000000000000000000000000000000000000000000000000aa46dd2434de4b06da8d4f7f0ace4e152eecbba60000000000000000000000000000000000000000000000000000000000000bb8000000000000000000000000000000000000000000000000000000000000003c000000000000000000000000ab0ae552ee5933935e39393d32b4034e75fd3ff8fffffffffffffffffffffffffffffffffffffffffffffffffffffffffff2764c00000000000000000000000000000000000000000000000000000000000d89b400000000000000000000000000000000000000000000000006f05b59d3b2000000000000000000000000000000000000ffffffffffffffffffffffffffffffff00000000000000000000000000000000ffffffffffffffffffffffffffffffff000000000000000000000000f93e7518f79c2e1978d6862dbf161270040e623e0000000000000000000000000000000000000000000000000000000000000180000000000000000000000000000000000000000000000000000000000000000000000000000000000000000000000000000000000000000000000000000000400000000000000000000000000000000000000000000000000000000000000000000000000000000000000000aa46dd2434de4b06da8d4f7f0ace4e152eecbba6",
        "1781634172"
      ],
      "transaction": {
        "from": "0xf93e7518f79c2e1978d6862dbf161270040e623e",
        "to": "0x4b2c77d209d3405f41a037ec6c77f7f5b8e2ca80",
        "gas": "0x5ed5f",
        "value": "0x11c37937e08000",
        "input": "0xdd46508f0000000000000000000000000000000000000000000000000000000000000040000000000000000000000000000000000000000000000000000000006a31947c0000000000000000000000000000000000000000000000000000000000000300000000000000000000000000000000000000000000000000000000000000004000000000000000000000000000000000000000000000000000000000000000800000000000000000000000000000000000000000000000000000000000000002020d00000000000000000000000000000000000000000000000000000000000000000000000000000000000000000000000000000000000000000000000000020000000000000000000000000000000000000000000000000000000000000040000000000000000000000000000000000000000000000000000000000000020000000000000000000000000000000000000000000000000000000000000001a00000000000000000000000000000000000000000000000000000000000000000000000000000000000000000aa46dd2434de4b06da8d4f7f0ace4e152eecbba60000000000000000000000000000000000000000000000000000000000000bb8000000000000000000000000000000000000000000000000000000000000003c000000000000000000000000ab0ae552ee5933935e39393d32b4034e75fd3ff8fffffffffffffffffffffffffffffffffffffffffffffffffffffffffff2764c00000000000000000000000000000000000000000000000000000000000d89b400000000000000000000000000000000000000000000000006f05b59d3b2000000000000000000000000000000000000ffffffffffffffffffffffffffffffff00000000000000000000000000000000ffffffffffffffffffffffffffffffff000000000000000000000000f93e7518f79c2e1978d6862dbf161270040e623e0000000000000000000000000000000000000000000000000000000000000180000000000000000000000000000000000000000000000000000000000000000000000000000000000000000000000000000000000000000000000000000000400000000000000000000000000000000000000000000000000000000000000000000000000000000000000000aa46dd2434de4b06da8d4f7f0ace4e152eecbba6",
        "nonce": "0x46",
        "chainId": "0x14a34"
      },
      "additionalContracts": [],
      "isFixedGasLimit": false
    },
    {
      "hash": "0xf470e60cf5ec2449327c04437e0443791d5619216d87c41a8bcb1f9f2f381e6b",
      "transactionType": "CALL",
      "contractName": null,
      "contractAddress": "0x00000000000044a361ae3cac094c9d1b14eece97",
      "function": "swapExactTokensForTokens(uint256,uint256,bool,(address,address,uint24,int24,address),bytes,address,uint256)",
      "arguments": [
        "1000000000000",
        "0",
        "true",
        "(0x0000000000000000000000000000000000000000, 0xaA46dd2434dE4b06Da8D4F7f0Ace4e152EecbbA6, 3000, 60, 0xaB0Ae552Ee5933935e39393D32b4034E75fD3Ff8)",
        "0x",
        "0xF93E7518F79C2E1978D6862Dbf161270040e623E",
        "1781634172"
      ],
      "transaction": {
        "from": "0xf93e7518f79c2e1978d6862dbf161270040e623e",
        "to": "0x00000000000044a361ae3cac094c9d1b14eece97",
        "gas": "0x3fb7c",
        "value": "0xe8d4a51000",
        "input": "0xb1a0d571000000000000000000000000000000000000000000000000000000e8d4a51000000000000000000000000000000000000000000000000000000000000000000000000000000000000000000000000000000000000000000000000000000000010000000000000000000000000000000000000000000000000000000000000000000000000000000000000000aa46dd2434de4b06da8d4f7f0ace4e152eecbba60000000000000000000000000000000000000000000000000000000000000bb8000000000000000000000000000000000000000000000000000000000000003c000000000000000000000000ab0ae552ee5933935e39393d32b4034e75fd3ff80000000000000000000000000000000000000000000000000000000000000160000000000000000000000000f93e7518f79c2e1978d6862dbf161270040e623e000000000000000000000000000000000000000000000000000000006a31947c0000000000000000000000000000000000000000000000000000000000000000",
        "nonce": "0x47",
        "chainId": "0x14a34"
      },
      "additionalContracts": [],
      "isFixedGasLimit": false
    },
    {
      "hash": "0x4fd36edf1097ae2fd6ca9e16e3f3fa2b87c74e263aaa1c0546ab7e7c6a880ea6",
      "transactionType": "CALL",
      "contractName": null,
      "contractAddress": "0xab0ae552ee5933935e39393d32b4034e75fd3ff8",
      "function": "claimFees(bool)",
      "arguments": [
        "true"
      ],
      "transaction": {
        "from": "0xf93e7518f79c2e1978d6862dbf161270040e623e",
        "to": "0xab0ae552ee5933935e39393d32b4034e75fd3ff8",
        "gas": "0x2db2f",
        "value": "0x0",
        "input": "0x1d4161650000000000000000000000000000000000000000000000000000000000000001",
        "nonce": "0x48",
        "chainId": "0x14a34"
      },
      "additionalContracts": [],
      "isFixedGasLimit": false
    },
    {
      "hash": "0x25bf832d4de55d6451e823d74288a40db53167aa2924f8c1576fc633d6df2778",
      "transactionType": "CALL",
      "contractName": null,
      "contractAddress": "0x00000000000044a361ae3cac094c9d1b14eece97",
      "function": "swapExactTokensForTokens(uint256,uint256,bool,(address,address,uint24,int24,address),bytes,address,uint256)",
      "arguments": [
        "1000000000000000",
        "0",
        "false",
        "(0x0000000000000000000000000000000000000000, 0xaA46dd2434dE4b06Da8D4F7f0Ace4e152EecbbA6, 3000, 60, 0xaB0Ae552Ee5933935e39393D32b4034E75fD3Ff8)",
        "0x",
        "0xF93E7518F79C2E1978D6862Dbf161270040e623E",
        "1781634172"
      ],
      "transaction": {
        "from": "0xf93e7518f79c2e1978d6862dbf161270040e623e",
        "to": "0x00000000000044a361ae3cac094c9d1b14eece97",
        "gas": "0x3fb24",
        "value": "0x0",
        "input": "0xb1a0d57100000000000000000000000000000000000000000000000000038d7ea4c68000000000000000000000000000000000000000000000000000000000000000000000000000000000000000000000000000000000000000000000000000000000000000000000000000000000000000000000000000000000000000000000000000000000000000000000000000aa46dd2434de4b06da8d4f7f0ace4e152eecbba60000000000000000000000000000000000000000000000000000000000000bb8000000000000000000000000000000000000000000000000000000000000003c000000000000000000000000ab0ae552ee5933935e39393d32b4034e75fd3ff80000000000000000000000000000000000000000000000000000000000000160000000000000000000000000f93e7518f79c2e1978d6862dbf161270040e623e000000000000000000000000000000000000000000000000000000006a31947c0000000000000000000000000000000000000000000000000000000000000000",
        "nonce": "0x49",
        "chainId": "0x14a34"
      },
      "additionalContracts": [],
      "isFixedGasLimit": false
    },
    {
      "hash": "0xc2a91c13d5292ba223f3b00a8f3d198fdabb6b510879b2055ba71119139d1aca",
      "transactionType": "CALL",
      "contractName": null,
      "contractAddress": "0xab0ae552ee5933935e39393d32b4034e75fd3ff8",
      "function": "claimFees(bool)",
      "arguments": [
        "false"
      ],
      "transaction": {
        "from": "0xf93e7518f79c2e1978d6862dbf161270040e623e",
        "to": "0xab0ae552ee5933935e39393d32b4034e75fd3ff8",
        "gas": "0x24774",
        "value": "0x0",
        "input": "0x1d4161650000000000000000000000000000000000000000000000000000000000000000",
        "nonce": "0x4a",
        "chainId": "0x14a34"
      },
      "additionalContracts": [],
      "isFixedGasLimit": false
    },
    {
      "hash": "0x7fadb9fe7e170755d76dc2acba4e6730bda1ac16901db03e3c0fc6fe1b78756c",
      "transactionType": "CALL",
      "contractName": null,
      "contractAddress": "0x61564ee98d9efdc198ae6a48dfcd864c7f06a3b3",
      "function": "stake(uint256)",
      "arguments": [
        "100000000000000000000"
      ],
      "transaction": {
        "from": "0xf93e7518f79c2e1978d6862dbf161270040e623e",
        "to": "0x61564ee98d9efdc198ae6a48dfcd864c7f06a3b3",
        "gas": "0x314b6",
        "value": "0x0",
        "input": "0xa694fc3a0000000000000000000000000000000000000000000000056bc75e2d63100000",
        "nonce": "0x4b",
        "chainId": "0x14a34"
      },
      "additionalContracts": [],
      "isFixedGasLimit": false
    },
    {
      "hash": "0x0655a3923c4054796d7359e5918f372f3e6dcbb085f2afed6afc1a63de822e46",
      "transactionType": "CALL",
      "contractName": null,
      "contractAddress": "0x00000000000044a361ae3cac094c9d1b14eece97",
      "function": "swapExactTokensForTokens(uint256,uint256,bool,(address,address,uint24,int24,address),bytes,address,uint256)",
      "arguments": [
        "1000000000000",
        "0",
        "true",
        "(0x0000000000000000000000000000000000000000, 0xaA46dd2434dE4b06Da8D4F7f0Ace4e152EecbbA6, 3000, 60, 0xaB0Ae552Ee5933935e39393D32b4034E75fD3Ff8)",
        "0x",
        "0xF93E7518F79C2E1978D6862Dbf161270040e623E",
        "1781634172"
      ],
      "transaction": {
        "from": "0xf93e7518f79c2e1978d6862dbf161270040e623e",
        "to": "0x00000000000044a361ae3cac094c9d1b14eece97",
        "gas": "0x4009a",
        "value": "0xe8d4a51000",
        "input": "0xb1a0d571000000000000000000000000000000000000000000000000000000e8d4a51000000000000000000000000000000000000000000000000000000000000000000000000000000000000000000000000000000000000000000000000000000000010000000000000000000000000000000000000000000000000000000000000000000000000000000000000000aa46dd2434de4b06da8d4f7f0ace4e152eecbba60000000000000000000000000000000000000000000000000000000000000bb8000000000000000000000000000000000000000000000000000000000000003c000000000000000000000000ab0ae552ee5933935e39393d32b4034e75fd3ff80000000000000000000000000000000000000000000000000000000000000160000000000000000000000000f93e7518f79c2e1978d6862dbf161270040e623e000000000000000000000000000000000000000000000000000000006a31947c0000000000000000000000000000000000000000000000000000000000000000",
        "nonce": "0x4c",
        "chainId": "0x14a34"
      },
      "additionalContracts": [],
      "isFixedGasLimit": false
    },
    {
      "hash": "0x5bd4c2bf54c2c464f87f3e7f7195526fa97d62cd4a4aa2d3530382995cf2b38b",
      "transactionType": "CALL",
      "contractName": null,
      "contractAddress": "0xab0ae552ee5933935e39393d32b4034e75fd3ff8",
      "function": "claimFees(bool)",
      "arguments": [
        "true"
      ],
      "transaction": {
        "from": "0xf93e7518f79c2e1978d6862dbf161270040e623e",
        "to": "0xab0ae552ee5933935e39393d32b4034e75fd3ff8",
        "gas": "0x27485",
        "value": "0x0",
        "input": "0x1d4161650000000000000000000000000000000000000000000000000000000000000001",
        "nonce": "0x4d",
        "chainId": "0x14a34"
      },
      "additionalContracts": [],
      "isFixedGasLimit": false
    },
    {
      "hash": "0x548aba2cc8c6f3169948bd292dc8f09e1bde5d34ce093335a393971a0d648c36",
      "transactionType": "CALL",
      "contractName": null,
      "contractAddress": "0x61564ee98d9efdc198ae6a48dfcd864c7f06a3b3",
      "function": "claimReward()",
      "arguments": [],
      "transaction": {
        "from": "0xf93e7518f79c2e1978d6862dbf161270040e623e",
        "to": "0x61564ee98d9efdc198ae6a48dfcd864c7f06a3b3",
        "gas": "0x10ee3",
        "value": "0x0",
        "input": "0xb88a802f",
        "nonce": "0x4e",
        "chainId": "0x14a34"
      },
      "additionalContracts": [],
      "isFixedGasLimit": false
    },
    {
      "hash": "0xb919516c309463166edfc83398fe4e9221348544a032cd53e7e340a5b5c6ebd0",
      "transactionType": "CALL",
      "contractName": null,
      "contractAddress": "0xaa46dd2434de4b06da8d4f7f0ace4e152eecbba6",
      "function": "burn(uint256)",
      "arguments": [
        "50000000000000000000"
      ],
      "transaction": {
        "from": "0xf93e7518f79c2e1978d6862dbf161270040e623e",
        "to": "0xaa46dd2434de4b06da8d4f7f0ace4e152eecbba6",
        "gas": "0x13906",
        "value": "0x0",
        "input": "0x42966c68000000000000000000000000000000000000000000000002b5e3af16b1880000",
        "nonce": "0x4f",
        "chainId": "0x14a34"
      },
      "additionalContracts": [],
      "isFixedGasLimit": false
    },
    {
      "hash": "0xd1cce3c689d0a011119312f752b5af6a95358b0cee96d0e38a65c379f8b4cc9e",
      "transactionType": "CALL",
      "contractName": null,
      "contractAddress": "0x00000000000044a361ae3cac094c9d1b14eece97",
      "function": "swapExactTokensForTokens(uint256,uint256,bool,(address,address,uint24,int24,address),bytes,address,uint256)",
      "arguments": [
        "1000000000000000",
        "0",
        "false",
        "(0x0000000000000000000000000000000000000000, 0xaA46dd2434dE4b06Da8D4F7f0Ace4e152EecbbA6, 3000, 60, 0xaB0Ae552Ee5933935e39393D32b4034E75fD3Ff8)",
        "0x",
        "0xF93E7518F79C2E1978D6862Dbf161270040e623E",
        "1781634172"
      ],
      "transaction": {
        "from": "0xf93e7518f79c2e1978d6862dbf161270040e623e",
        "to": "0x00000000000044a361ae3cac094c9d1b14eece97",
        "gas": "0x3c7a4",
        "value": "0x0",
        "input": "0xb1a0d57100000000000000000000000000000000000000000000000000038d7ea4c68000000000000000000000000000000000000000000000000000000000000000000000000000000000000000000000000000000000000000000000000000000000000000000000000000000000000000000000000000000000000000000000000000000000000000000000000000aa46dd2434de4b06da8d4f7f0ace4e152eecbba60000000000000000000000000000000000000000000000000000000000000bb8000000000000000000000000000000000000000000000000000000000000003c000000000000000000000000ab0ae552ee5933935e39393d32b4034e75fd3ff80000000000000000000000000000000000000000000000000000000000000160000000000000000000000000f93e7518f79c2e1978d6862dbf161270040e623e000000000000000000000000000000000000000000000000000000006a31947c0000000000000000000000000000000000000000000000000000000000000000",
        "nonce": "0x50",
        "chainId": "0x14a34"
      },
      "additionalContracts": [],
      "isFixedGasLimit": false
    },
    {
      "hash": "0x2db1d2b07e7920b842ba6ca02a5137c5c10aa6a8eb079bcbfe30e9f4f4e5b0a9",
      "transactionType": "CALL",
      "contractName": null,
      "contractAddress": "0xab0ae552ee5933935e39393d32b4034e75fd3ff8",
      "function": "claimFees(bool)",
      "arguments": [
        "false"
      ],
      "transaction": {
        "from": "0xf93e7518f79c2e1978d6862dbf161270040e623e",
        "to": "0xab0ae552ee5933935e39393d32b4034e75fd3ff8",
        "gas": "0x24774",
        "value": "0x0",
        "input": "0x1d4161650000000000000000000000000000000000000000000000000000000000000000",
        "nonce": "0x51",
        "chainId": "0x14a34"
      },
      "additionalContracts": [],
      "isFixedGasLimit": false
    }
  ],
  "receipts": [
    {
      "type": "0x2",
      "status": "0x1",
      "cumulativeGasUsed": "0x129d8e",
      "logs": [
        {
          "address": "0xaa46dd2434de4b06da8d4f7f0ace4e152eecbba6",
          "topics": [
            "0x8c5be1e5ebec7d5bd14f71427d1e84f3dd0314c0f7b2291e5b200ac8c7c3b925",
            "0x000000000000000000000000f93e7518f79c2e1978d6862dbf161270040e623e",
            "0x000000000000000000000000000000000022d473030f116ddee9f6b43ac78ba3"
          ],
          "data": "0xffffffffffffffffffffffffffffffffffffffffffffffffffffffffffffffff",
          "blockHash": "0x31f158f6598344188f9797a3438ae9c19e192cdd5db2c367edad082e5e93427b",
          "blockNumber": "0x28f1a5e",
          "blockTimestamp": "0x6a31939c",
          "transactionHash": "0xc2a91c13d5292ba223f3b00a8f3d198fdabb6b510879b2055ba71119139d1aca",
          "transactionIndex": "0xc",
          "logIndex": "0x19",
          "removed": false
        }
      ],
      "logsBloom": "0x00000000000000000000000000000000000000000000000000000000800000000000000000000000000000000000000000000000800000200000000000200000000000000000000000004000000000000000000000000800000000000000000000000000000000000000000000000000000000000000000000000000800000000000000000000000000000000000000000000000000000000000000000100000020000000000000000000000000000000000000000000000000000000000000400000000000000000000000000000000000000000000000000000000000000000010000000000000004000000000000000000000000000000000000000000000",
      "transactionHash": "0xc2a91c13d5292ba223f3b00a8f3d198fdabb6b510879b2055ba71119139d1aca",
      "transactionIndex": "0xc",
      "blockHash": "0x31f158f6598344188f9797a3438ae9c19e192cdd5db2c367edad082e5e93427b",
      "blockNumber": "0x28f1a5e",
      "gasUsed": "0x66e9",
      "effectiveGasPrice": "0x5b8d80",
      "blobGasUsed": "0xae38",
      "from": "0xf93e7518f79c2e1978d6862dbf161270040e623e",
      "to": "0xaa46dd2434de4b06da8d4f7f0ace4e152eecbba6",
      "contractAddress": null,
      "l1GasPrice": "0x4158b95d",
      "l1GasUsed": "0x640",
      "l1Fee": "0x16cdca19c",
      "l1BaseFeeScalar": "0x44d",
      "l1BlobBaseFee": "0x3c8ef82",
      "l1BlobBaseFeeScalar": "0xa118b",
      "daFootprintGasScalar": "0x1be"
    },
    {
      "type": "0x2",
      "status": "0x1",
      "cumulativeGasUsed": "0x42fbba",
      "logs": [
        {
          "address": "0x000000000022d473030f116ddee9f6b43ac78ba3",
          "topics": [
            "0xda9fa7c1b00402c17d0161b249b1ab8bbec047c5a52207b9c112deffd817036b",
            "0x000000000000000000000000f93e7518f79c2e1978d6862dbf161270040e623e",
            "0x000000000000000000000000aa46dd2434de4b06da8d4f7f0ace4e152eecbba6",
            "0x0000000000000000000000004b2c77d209d3405f41a037ec6c77f7f5b8e2ca80"
          ],
          "data": "0x000000000000000000000000ffffffffffffffffffffffffffffffffffffffff000000000000000000000000000000000000000000000000000000006a32e4d0",
          "blockHash": "0xfb3cc48214a0ad56f30824e4014411af13a8e55f822520a56ca8f9fe8b2fda0a",
          "blockNumber": "0x28f1a5f",
          "blockTimestamp": "0x6a31939e",
          "transactionHash": "0x2db1d2b07e7920b842ba6ca02a5137c5c10aa6a8eb079bcbfe30e9f4f4e5b0a9",
          "transactionIndex": "0x13",
          "logIndex": "0x5a",
          "removed": false
        }
      ],
      "logsBloom": "0x00010000000000010000000000000000000000000000000000000000800000000000000000000000000000000000000000000000000000200008000010480000000000000000000000000000000000000000000000040000000000000000000000000000000000000000000800000000000000000000000000000000000000000020000000000000000000000000000000000000000000000000000000100000000000000000000000000000000000000000000000000000000000080000000000000000000000000000000000000000000000000000000040000000000000000000000000000000000000000000000000000000000000000000000000000400",
      "transactionHash": "0x2db1d2b07e7920b842ba6ca02a5137c5c10aa6a8eb079bcbfe30e9f4f4e5b0a9",
      "transactionIndex": "0x13",
      "blockHash": "0xfb3cc48214a0ad56f30824e4014411af13a8e55f822520a56ca8f9fe8b2fda0a",
      "blockNumber": "0x28f1a5f",
      "gasUsed": "0x77e6",
      "effectiveGasPrice": "0x5b8d80",
      "blobGasUsed": "0xc4de",
      "from": "0xf93e7518f79c2e1978d6862dbf161270040e623e",
      "to": "0x000000000022d473030f116ddee9f6b43ac78ba3",
      "contractAddress": null,
      "l1GasPrice": "0x4158b95d",
      "l1GasUsed": "0x710",
      "l1Fee": "0x19c4e68bc",
      "l1BaseFeeScalar": "0x44d",
      "l1BlobBaseFee": "0x3c8ef82",
      "l1BlobBaseFeeScalar": "0xa118b",
      "daFootprintGasScalar": "0x1be"
    },
    {
      "type": "0x2",
      "status": "0x1",
      "cumulativeGasUsed": "0x437358",
      "logs": [
        {
          "address": "0x000000000022d473030f116ddee9f6b43ac78ba3",
          "topics": [
            "0xda9fa7c1b00402c17d0161b249b1ab8bbec047c5a52207b9c112deffd817036b",
            "0x000000000000000000000000f93e7518f79c2e1978d6862dbf161270040e623e",
            "0x000000000000000000000000aa46dd2434de4b06da8d4f7f0ace4e152eecbba6",
            "0x00000000000000000000000000000000000044a361ae3cac094c9d1b14eece97"
          ],
          "data": "0x000000000000000000000000ffffffffffffffffffffffffffffffffffffffff000000000000000000000000000000000000000000000000000000006a32e4d0",
          "blockHash": "0xfb3cc48214a0ad56f30824e4014411af13a8e55f822520a56ca8f9fe8b2fda0a",
          "blockNumber": "0x28f1a5f",
          "blockTimestamp": "0x6a31939e",
          "transactionHash": "0x91f4ef5d42978a3aab5b6dd4866f8054e8329f44acea2b3292ad8431073f66bc",
          "transactionIndex": "0x14",
          "logIndex": "0x5b",
          "removed": false
        }
      ],
      "logsBloom": "0x00010000000000000000000000000000000000000000000000000000800000000000000000000000000000000000000000000000000000200000000040480000000000000000000000000000000000000000000000040000000000000000000000000000000000000000000800000000000000000000000000000000000040000020000000000000000000000000000000000000000000000000000000100000000000000000000000000000000000000000000000000000000000080000000000000000000000000000000000000000000000000000000040000000000000010000000000000000000000000000000000000000000000000000000000000400",
      "transactionHash": "0x91f4ef5d42978a3aab5b6dd4866f8054e8329f44acea2b3292ad8431073f66bc",
      "transactionIndex": "0x14",
      "blockHash": "0xfb3cc48214a0ad56f30824e4014411af13a8e55f822520a56ca8f9fe8b2fda0a",
      "blockNumber": "0x28f1a5f",
      "gasUsed": "0x779e",
      "effectiveGasPrice": "0x5b8d80",
      "blobGasUsed": "0xbde6",
      "from": "0xf93e7518f79c2e1978d6862dbf161270040e623e",
      "to": "0x000000000022d473030f116ddee9f6b43ac78ba3",
      "contractAddress": null,
      "l1GasPrice": "0x4158b95d",
      "l1GasUsed": "0x6da",
      "l1Fee": "0x190191714",
      "l1BaseFeeScalar": "0x44d",
      "l1BlobBaseFee": "0x3c8ef82",
      "l1BlobBaseFeeScalar": "0xa118b",
      "daFootprintGasScalar": "0x1be"
    },
    {
      "type": "0x2",
      "status": "0x1",
      "cumulativeGasUsed": "0x43da35",
      "logs": [
        {
          "address": "0xaa46dd2434de4b06da8d4f7f0ace4e152eecbba6",
          "topics": [
            "0x8c5be1e5ebec7d5bd14f71427d1e84f3dd0314c0f7b2291e5b200ac8c7c3b925",
            "0x000000000000000000000000f93e7518f79c2e1978d6862dbf161270040e623e",
            "0x00000000000000000000000000000000000044a361ae3cac094c9d1b14eece97"
          ],
          "data": "0xffffffffffffffffffffffffffffffffffffffffffffffffffffffffffffffff",
          "blockHash": "0xfb3cc48214a0ad56f30824e4014411af13a8e55f822520a56ca8f9fe8b2fda0a",
          "blockNumber": "0x28f1a5f",
          "blockTimestamp": "0x6a31939e",
          "transactionHash": "0xd1cce3c689d0a011119312f752b5af6a95358b0cee96d0e38a65c379f8b4cc9e",
          "transactionIndex": "0x15",
          "logIndex": "0x5c",
          "removed": false
        }
      ],
      "logsBloom": "0x00000000000000000000000000000000000000000000000000000000800000000000000000000000000000000000000000000000000000200000000040200000000000000000000000000000000000000000000000000000000000000000000000000000000000000000000000000000000000000000000000000000800040000000000000000000000000000000000000000000000000000000000000100000020000000000000000000000000000000000000000000000000000000000000400000000000000000000000000000000000000000000000000000000000000010010000000000000004000000000000000000000000000000000000000000000",
      "transactionHash": "0xd1cce3c689d0a011119312f752b5af6a95358b0cee96d0e38a65c379f8b4cc9e",
      "transactionIndex": "0x15",
      "blockHash": "0xfb3cc48214a0ad56f30824e4014411af13a8e55f822520a56ca8f9fe8b2fda0a",
      "blockNumber": "0x28f1a5f",
      "gasUsed": "0x66dd",
      "effectiveGasPrice": "0x5b8d80",
      "blobGasUsed": "0xae38",
      "from": "0xf93e7518f79c2e1978d6862dbf161270040e623e",
      "to": "0xaa46dd2434de4b06da8d4f7f0ace4e152eecbba6",
      "contractAddress": null,
      "l1GasPrice": "0x4158b95d",
      "l1GasUsed": "0x640",
      "l1Fee": "0x16cdca19c",
      "l1BaseFeeScalar": "0x44d",
      "l1BlobBaseFee": "0x3c8ef82",
      "l1BlobBaseFeeScalar": "0xa118b",
      "daFootprintGasScalar": "0x1be"
    },
    {
      "type": "0x2",
      "status": "0x1",
      "cumulativeGasUsed": "0x44415a",
      "logs": [
        {
          "address": "0xaa46dd2434de4b06da8d4f7f0ace4e152eecbba6",
          "topics": [
            "0x8c5be1e5ebec7d5bd14f71427d1e84f3dd0314c0f7b2291e5b200ac8c7c3b925",
            "0x000000000000000000000000f93e7518f79c2e1978d6862dbf161270040e623e",
            "0x00000000000000000000000061564ee98d9efdc198ae6a48dfcd864c7f06a3b3"
          ],
          "data": "0xffffffffffffffffffffffffffffffffffffffffffffffffffffffffffffffff",
          "blockHash": "0xfb3cc48214a0ad56f30824e4014411af13a8e55f822520a56ca8f9fe8b2fda0a",
          "blockNumber": "0x28f1a5f",
          "blockTimestamp": "0x6a31939e",
          "transactionHash": "0x6f18f413c23f9e38ec1b5060465428e9d3ea89feefe72b0e456e46b5e3163911",
          "transactionIndex": "0x16",
          "logIndex": "0x5d",
          "removed": false
        }
      ],
      "logsBloom": "0x00000000000000000000000000000000000000000000000000000000800000000000000000000000000000000000000000000000000000200000000000200000000000000000000000000000000000000000000000000000000000000000000000000000000000000000001000000000000000000000000000000800800000000000000000000000000000000000000000000000000000000002000000100000020000000000000000000000000000000000000000000000000000000000000400000000000000000000000000000000000000000000000000000000000000000010000000000000004000000000000000000000000000000000000000000000",
      "transactionHash": "0x6f18f413c23f9e38ec1b5060465428e9d3ea89feefe72b0e456e46b5e3163911",
      "transactionIndex": "0x16",
      "blockHash": "0xfb3cc48214a0ad56f30824e4014411af13a8e55f822520a56ca8f9fe8b2fda0a",
      "blockNumber": "0x28f1a5f",
      "gasUsed": "0x6725",
      "effectiveGasPrice": "0x5b8d80",
      "blobGasUsed": "0xae38",
      "from": "0xf93e7518f79c2e1978d6862dbf161270040e623e",
      "to": "0xaa46dd2434de4b06da8d4f7f0ace4e152eecbba6",
      "contractAddress": null,
      "l1GasPrice": "0x4158b95d",
      "l1GasUsed": "0x640",
      "l1Fee": "0x16cdca19c",
      "l1BaseFeeScalar": "0x44d",
      "l1BlobBaseFee": "0x3c8ef82",
      "l1BlobBaseFeeScalar": "0xa118b",
      "daFootprintGasScalar": "0x1be"
    },
    {
      "type": "0x2",
      "status": "0x1",
      "cumulativeGasUsed": "0x488be8",
      "logs": [
        {
          "address": "0x4b2c77d209d3405f41a037ec6c77f7f5b8e2ca80",
          "topics": [
            "0xddf252ad1be2c89b69c2b068fc378daa952ba7f163c4a11628f55a4df523b3ef",
            "0x0000000000000000000000000000000000000000000000000000000000000000",
            "0x000000000000000000000000f93e7518f79c2e1978d6862dbf161270040e623e",
            "0x0000000000000000000000000000000000000000000000000000000000006184"
          ],
          "data": "0x",
          "blockHash": "0xfb3cc48214a0ad56f30824e4014411af13a8e55f822520a56ca8f9fe8b2fda0a",
          "blockNumber": "0x28f1a5f",
          "blockTimestamp": "0x6a31939e",
          "transactionHash": "0xb919516c309463166edfc83398fe4e9221348544a032cd53e7e340a5b5c6ebd0",
          "transactionIndex": "0x17",
          "logIndex": "0x5e",
          "removed": false
        },
        {
          "address": "0x05e73354cfdd6745c338b50bcfdfa3aa6fa03408",
          "topics": [
            "0xf208f4912782fd25c7f114ca3723a2d5dd6f3bcc3ac8db5af63baa85f711d5ec",
            "0xdee57bc03bcf10854c85eff8b22a0c9619f304cf00c6ead952f5a82ec8950b9a",
            "0x0000000000000000000000004b2c77d209d3405f41a037ec6c77f7f5b8e2ca80"
          ],
          "data": "0xfffffffffffffffffffffffffffffffffffffffffffffffffffffffffff2764c00000000000000000000000000000000000000000000000000000000000d89b400000000000000000000000000000000000000000000000006f05b59d3b200000000000000000000000000000000000000000000000000000000000000006184",
          "blockHash": "0xfb3cc48214a0ad56f30824e4014411af13a8e55f822520a56ca8f9fe8b2fda0a",
          "blockNumber": "0x28f1a5f",
          "blockTimestamp": "0x6a31939e",
          "transactionHash": "0xb919516c309463166edfc83398fe4e9221348544a032cd53e7e340a5b5c6ebd0",
          "transactionIndex": "0x17",
          "logIndex": "0x5f",
          "removed": false
        },
        {
          "address": "0xaa46dd2434de4b06da8d4f7f0ace4e152eecbba6",
          "topics": [
            "0xddf252ad1be2c89b69c2b068fc378daa952ba7f163c4a11628f55a4df523b3ef",
            "0x000000000000000000000000f93e7518f79c2e1978d6862dbf161270040e623e",
            "0x00000000000000000000000005e73354cfdd6745c338b50bcfdfa3aa6fa03408"
          ],
          "data": "0x0000000000000000000000000000000000000000000014cff6130fb93279aa93",
          "blockHash": "0xfb3cc48214a0ad56f30824e4014411af13a8e55f822520a56ca8f9fe8b2fda0a",
          "blockNumber": "0x28f1a5f",
          "blockTimestamp": "0x6a31939e",
          "transactionHash": "0xb919516c309463166edfc83398fe4e9221348544a032cd53e7e340a5b5c6ebd0",
          "transactionIndex": "0x17",
          "logIndex": "0x60",
          "removed": false
        }
      ],
      "logsBloom": "0x00000000000000010000000000000000000000000000000000000000800000000100000100000000000000000000000000000000000000200008000010000800000000000010000000000008000000200000000000100000000000008800000000000000020000000000000000000800000000000000000000000010800000000000000805000000000000000000000000000000000000000000000000100000000004004000000000000000000000000000000000000000000000000000000400000002001440000000000000000000000000000000000000000000000020000000000000000000004000000800000004000000000000000000000000000000",
      "transactionHash": "0xb919516c309463166edfc83398fe4e9221348544a032cd53e7e340a5b5c6ebd0",
      "transactionIndex": "0x17",
      "blockHash": "0xfb3cc48214a0ad56f30824e4014411af13a8e55f822520a56ca8f9fe8b2fda0a",
      "blockNumber": "0x28f1a5f",
      "gasUsed": "0x44a8e",
      "effectiveGasPrice": "0x5b8d80",
      "blobGasUsed": "0x1b1ce",
      "from": "0xf93e7518f79c2e1978d6862dbf161270040e623e",
      "to": "0x4b2c77d209d3405f41a037ec6c77f7f5b8e2ca80",
      "contractAddress": null,
      "l1GasPrice": "0x4158b95d",
      "l1GasUsed": "0xf95",
      "l1Fee": "0x38dcb2829",
      "l1BaseFeeScalar": "0x44d",
      "l1BlobBaseFee": "0x3c8ef82",
      "l1BlobBaseFeeScalar": "0xa118b",
      "daFootprintGasScalar": "0x1be"
    },
    {
      "type": "0x2",
      "status": "0x1",
      "cumulativeGasUsed": "0x4b6dff",
      "logs": [
        {
          "address": "0xab0ae552ee5933935e39393d32b4034e75fd3ff8",
          "topics": [
            "0xeb18042c63a6494302e2e34ca89562fb59d5b25ded99d617905bdd7c4f891f03",
            "0x0000000000000000000000000000000000000000000000000000000000000001",
            "0x0000000000000000000000000000000000000000000000000000000000000001"
          ],
          "data": "0x0000000000000000000000000000000000000000000000000000000ba43b7400",
          "blockHash": "0xfb3cc48214a0ad56f30824e4014411af13a8e55f822520a56ca8f9fe8b2fda0a",
          "blockNumber": "0x28f1a5f",
          "blockTimestamp": "0x6a31939e",
          "transactionHash": "0xaa79d3574a8a5a524fc7bd801fa62af87c8617d3884cb52b6a3a9af9fda089fa",
          "transactionIndex": "0x18",
          "logIndex": "0x61",
          "removed": false
        },
        {
          "address": "0x05e73354cfdd6745c338b50bcfdfa3aa6fa03408",
          "topics": [
            "0x40e9cecb9f5f1f1c5b9c97dec2917b7ee92e57ba5563708daca94dd84ad7112f",
            "0xdee57bc03bcf10854c85eff8b22a0c9619f304cf00c6ead952f5a82ec8950b9a",
            "0x00000000000000000000000000000000000044a361ae3cac094c9d1b14eece97"
          ],
          "data": "0xffffffffffffffffffffffffffffffffffffffffffffffffffffff22cf966400000000000000000000000000000000000000000000000688846af70f63c9aa1b00000000000000000000000000000000000287529b83be99edf3b442fafc33870000000000000000000000000000000000000000000000000de0b79c7c091000000000000000000000000000000000000000000000000000000000000003aaf40000000000000000000000000000000000000000000000000000000000000bb8",
          "blockHash": "0xfb3cc48214a0ad56f30824e4014411af13a8e55f822520a56ca8f9fe8b2fda0a",
          "blockNumber": "0x28f1a5f",
          "blockTimestamp": "0x6a31939e",
          "transactionHash": "0xaa79d3574a8a5a524fc7bd801fa62af87c8617d3884cb52b6a3a9af9fda089fa",
          "transactionIndex": "0x18",
          "logIndex": "0x62",
          "removed": false
        },
        {
          "address": "0x05e73354cfdd6745c338b50bcfdfa3aa6fa03408",
          "topics": [
            "0x1b3d7edb2e9c0b0e7c525b20aaaef0f5940d2ed71663c7d39266ecafac728859",
            "0x0000000000000000000000000000000000000000000000000000000000000000",
            "0x000000000000000000000000ab0ae552ee5933935e39393d32b4034e75fd3ff8",
            "0x0000000000000000000000000000000000000000000000000000000000000000"
          ],
          "data": "0x000000000000000000000000ab0ae552ee5933935e39393d32b4034e75fd3ff80000000000000000000000000000000000000000000000000000000ba43b7400",
          "blockHash": "0xfb3cc48214a0ad56f30824e4014411af13a8e55f822520a56ca8f9fe8b2fda0a",
          "blockNumber": "0x28f1a5f",
          "blockTimestamp": "0x6a31939e",
          "transactionHash": "0xaa79d3574a8a5a524fc7bd801fa62af87c8617d3884cb52b6a3a9af9fda089fa",
          "transactionIndex": "0x18",
          "logIndex": "0x63",
          "removed": false
        },
        {
          "address": "0xaa46dd2434de4b06da8d4f7f0ace4e152eecbba6",
          "topics": [
            "0xddf252ad1be2c89b69c2b068fc378daa952ba7f163c4a11628f55a4df523b3ef",
            "0x00000000000000000000000005e73354cfdd6745c338b50bcfdfa3aa6fa03408",
            "0x000000000000000000000000f93e7518f79c2e1978d6862dbf161270040e623e"
          ],
          "data": "0x000000000000000000000000000000000000000000000688846af70f63c9aa1b",
          "blockHash": "0xfb3cc48214a0ad56f30824e4014411af13a8e55f822520a56ca8f9fe8b2fda0a",
          "blockNumber": "0x28f1a5f",
          "blockTimestamp": "0x6a31939e",
          "transactionHash": "0xaa79d3574a8a5a524fc7bd801fa62af87c8617d3884cb52b6a3a9af9fda089fa",
          "transactionIndex": "0x18",
          "logIndex": "0x64",
          "removed": false
        }
      ],
      "logsBloom": "0x00000000000000000000000000000000000000000000001000000000800000000000002100000000000000000000000000000000040000200000000040040000000000000010000000000008000004200000000000140020000000000800000000000000020000000000000000000800000000000000000000000090800040000000000004000000000000000000000000000000000000000000000000180000000000000000000000000000000020000000000000000000000000000000000400000002001440000000000008000000000000000000000000000000000060010000000001000000004000000800000000000000000000008000000004001000",
      "transactionHash": "0xaa79d3574a8a5a524fc7bd801fa62af87c8617d3884cb52b6a3a9af9fda089fa",
      "transactionIndex": "0x18",
      "blockHash": "0xfb3cc48214a0ad56f30824e4014411af13a8e55f822520a56ca8f9fe8b2fda0a",
      "blockNumber": "0x28f1a5f",
      "gasUsed": "0x2e217",
      "effectiveGasPrice": "0x5b8d80",
      "blobGasUsed": "0x11f76",
      "from": "0xf93e7518f79c2e1978d6862dbf161270040e623e",
      "to": "0x00000000000044a361ae3cac094c9d1b14eece97",
      "contractAddress": null,
      "l1GasPrice": "0x4158b95d",
      "l1GasUsed": "0xa5b",
      "l1Fee": "0x25c962ecb",
      "l1BaseFeeScalar": "0x44d",
      "l1BlobBaseFee": "0x3c8ef82",
      "l1BlobBaseFeeScalar": "0xa118b",
      "daFootprintGasScalar": "0x1be"
    },
    {
      "type": "0x2",
      "status": "0x1",
      "cumulativeGasUsed": "0x4d7f5d",
      "logs": [
        {
          "address": "0x05e73354cfdd6745c338b50bcfdfa3aa6fa03408",
          "topics": [
            "0x1b3d7edb2e9c0b0e7c525b20aaaef0f5940d2ed71663c7d39266ecafac728859",
            "0x000000000000000000000000ab0ae552ee5933935e39393d32b4034e75fd3ff8",
            "0x0000000000000000000000000000000000000000000000000000000000000000",
            "0x0000000000000000000000000000000000000000000000000000000000000000"
          ],
          "data": "0x000000000000000000000000ab0ae552ee5933935e39393d32b4034e75fd3ff80000000000000000000000000000000000000000000000000000000ba43b7400",
          "blockHash": "0xfb3cc48214a0ad56f30824e4014411af13a8e55f822520a56ca8f9fe8b2fda0a",
          "blockNumber": "0x28f1a5f",
          "blockTimestamp": "0x6a31939e",
          "transactionHash": "0x25bf832d4de55d6451e823d74288a40db53167aa2924f8c1576fc633d6df2778",
          "transactionIndex": "0x19",
          "logIndex": "0x65",
          "removed": false
        },
        {
          "address": "0x61564ee98d9efdc198ae6a48dfcd864c7f06a3b3",
          "topics": [
            "0x6c07ee05dcf262f13abf9d87b846ee789d2f90fe991d495acd7d7fc109ee1f55"
          ],
          "data": "0x00000000000000000000000000000000000000000000000000000009502f90000000000000000000000000000000000000000000000000000000000000093a80",
          "blockHash": "0xfb3cc48214a0ad56f30824e4014411af13a8e55f822520a56ca8f9fe8b2fda0a",
          "blockNumber": "0x28f1a5f",
          "blockTimestamp": "0x6a31939e",
          "transactionHash": "0x25bf832d4de55d6451e823d74288a40db53167aa2924f8c1576fc633d6df2778",
          "transactionIndex": "0x19",
          "logIndex": "0x66",
          "removed": false
        },
        {
          "address": "0xab0ae552ee5933935e39393d32b4034e75fd3ff8",
          "topics": [
            "0xda378dba4f1dc8c7a566c70096e0389c466cb99cc2ec74173afd50c7b652ca09"
          ],
          "data": "0x00000000000000000000000000000000000000000000000000000009502f900000000000000000000000000000000000000000000000000000000002540be400",
          "blockHash": "0xfb3cc48214a0ad56f30824e4014411af13a8e55f822520a56ca8f9fe8b2fda0a",
          "blockNumber": "0x28f1a5f",
          "blockTimestamp": "0x6a31939e",
          "transactionHash": "0x25bf832d4de55d6451e823d74288a40db53167aa2924f8c1576fc633d6df2778",
          "transactionIndex": "0x19",
          "logIndex": "0x67",
          "removed": false
        }
      ],
      "logsBloom": "0x00000000000000000000000000000000000000000000000000000000000000000000002100000000000000000000000000000000000000000000000000000000000000080000000000000000000004000000200000000000000000000000000001000000020000000000000000000800000800000000000000000080000000000000000004000000000000000000000000000000000000000000000000000000020000000000000000000000000020000000000000000000000000000008000000000000001040000001000008000000000000000000000000001100000020000000000001000000000000000000000000000000000000008000000004000000",
      "transactionHash": "0x25bf832d4de55d6451e823d74288a40db53167aa2924f8c1576fc633d6df2778",
      "transactionIndex": "0x19",
      "blockHash": "0xfb3cc48214a0ad56f30824e4014411af13a8e55f822520a56ca8f9fe8b2fda0a",
      "blockNumber": "0x28f1a5f",
      "gasUsed": "0x2115e",
      "effectiveGasPrice": "0x5b8d80",
      "blobGasUsed": "0xae38",
      "from": "0xf93e7518f79c2e1978d6862dbf161270040e623e",
      "to": "0xab0ae552ee5933935e39393d32b4034e75fd3ff8",
      "contractAddress": null,
      "l1GasPrice": "0x4158b95d",
      "l1GasUsed": "0x640",
      "l1Fee": "0x16cdca19c",
      "l1BaseFeeScalar": "0x44d",
      "l1BlobBaseFee": "0x3c8ef82",
      "l1BlobBaseFeeScalar": "0xa118b",
      "daFootprintGasScalar": "0x1be"
    },
    {
      "type": "0x2",
      "status": "0x1",
      "cumulativeGasUsed": "0x503837",
      "logs": [
        {
          "address": "0xab0ae552ee5933935e39393d32b4034e75fd3ff8",
          "topics": [
            "0xeb18042c63a6494302e2e34ca89562fb59d5b25ded99d617905bdd7c4f891f03",
            "0x0000000000000000000000000000000000000000000000000000000000000000",
            "0x0000000000000000000000000000000000000000000000000000000000000000"
          ],
          "data": "0x00000000000000000000000000000000000000000000000000002d79883d2000",
          "blockHash": "0xfb3cc48214a0ad56f30824e4014411af13a8e55f822520a56ca8f9fe8b2fda0a",
          "blockNumber": "0x28f1a5f",
          "blockTimestamp": "0x6a31939e",
          "transactionHash": "0xd43bed4f4c1fb4bc62d14f88f9b11c7ac8e3cf35a5d02ee4ec045fa5d21a7604",
          "transactionIndex": "0x1a",
          "logIndex": "0x68",
          "removed": false
        },
        {
          "address": "0x05e73354cfdd6745c338b50bcfdfa3aa6fa03408",
          "topics": [
            "0x40e9cecb9f5f1f1c5b9c97dec2917b7ee92e57ba5563708daca94dd84ad7112f",
            "0xdee57bc03bcf10854c85eff8b22a0c9619f304cf00c6ead952f5a82ec8950b9a",
            "0x00000000000000000000000000000000000044a361ae3cac094c9d1b14eece97"
          ],
          "data": "0x00000000000000000000000000000000000000000000000000000000000086bafffffffffffffffffffffffffffffffffffffffffffffffffffc9ffae376a00000000000000000000000000000000000000287529bc1d12022cc71c3321825ea0000000000000000000000000000000000000000000000000de0b79c7c091000000000000000000000000000000000000000000000000000000000000003aaf40000000000000000000000000000000000000000000000000000000000000bb8",
          "blockHash": "0xfb3cc48214a0ad56f30824e4014411af13a8e55f822520a56ca8f9fe8b2fda0a",
          "blockNumber": "0x28f1a5f",
          "blockTimestamp": "0x6a31939e",
          "transactionHash": "0xd43bed4f4c1fb4bc62d14f88f9b11c7ac8e3cf35a5d02ee4ec045fa5d21a7604",
          "transactionIndex": "0x1a",
          "logIndex": "0x69",
          "removed": false
        },
        {
          "address": "0x05e73354cfdd6745c338b50bcfdfa3aa6fa03408",
          "topics": [
            "0x1b3d7edb2e9c0b0e7c525b20aaaef0f5940d2ed71663c7d39266ecafac728859",
            "0x0000000000000000000000000000000000000000000000000000000000000000",
            "0x000000000000000000000000ab0ae552ee5933935e39393d32b4034e75fd3ff8",
            "0x000000000000000000000000aa46dd2434de4b06da8d4f7f0ace4e152eecbba6"
          ],
          "data": "0x000000000000000000000000ab0ae552ee5933935e39393d32b4034e75fd3ff800000000000000000000000000000000000000000000000000002d79883d2000",
          "blockHash": "0xfb3cc48214a0ad56f30824e4014411af13a8e55f822520a56ca8f9fe8b2fda0a",
          "blockNumber": "0x28f1a5f",
          "blockTimestamp": "0x6a31939e",
          "transactionHash": "0xd43bed4f4c1fb4bc62d14f88f9b11c7ac8e3cf35a5d02ee4ec045fa5d21a7604",
          "transactionIndex": "0x1a",
          "logIndex": "0x6a",
          "removed": false
        },
        {
          "address": "0xaa46dd2434de4b06da8d4f7f0ace4e152eecbba6",
          "topics": [
            "0xddf252ad1be2c89b69c2b068fc378daa952ba7f163c4a11628f55a4df523b3ef",
            "0x000000000000000000000000f93e7518f79c2e1978d6862dbf161270040e623e",
            "0x00000000000000000000000005e73354cfdd6745c338b50bcfdfa3aa6fa03408"
          ],
          "data": "0x00000000000000000000000000000000000000000000000000038d7ea4c68000",
          "blockHash": "0xfb3cc48214a0ad56f30824e4014411af13a8e55f822520a56ca8f9fe8b2fda0a",
          "blockNumber": "0x28f1a5f",
          "blockTimestamp": "0x6a31939e",
          "transactionHash": "0xd43bed4f4c1fb4bc62d14f88f9b11c7ac8e3cf35a5d02ee4ec045fa5d21a7604",
          "transactionIndex": "0x1a",
          "logIndex": "0x6b",
          "removed": false
        }
      ],
      "logsBloom": "0x00000000000000000000000000000000000000000000001000000000800000000000002100000000000000000000000000000000040000200000000040400000000000000010000000000008000004200000000000140020000000000800000000000000020000000000000800000800000000000000000000000090800040000000000004000000000000000000000000000000000000000000000000180000000000000000000000000000000020000000000000000000000000000000000400000002001440000000000008000000000000000000000000000000000020010000000001000000004000000800000000000000000000008000000004001000",
      "transactionHash": "0xd43bed4f4c1fb4bc62d14f88f9b11c7ac8e3cf35a5d02ee4ec045fa5d21a7604",
      "transactionIndex": "0x1a",
      "blockHash": "0xfb3cc48214a0ad56f30824e4014411af13a8e55f822520a56ca8f9fe8b2fda0a",
      "blockNumber": "0x28f1a5f",
      "gasUsed": "0x2b8da",
      "effectiveGasPrice": "0x5b8d80",
      "blobGasUsed": "0x11db8",
      "from": "0xf93e7518f79c2e1978d6862dbf161270040e623e",
      "to": "0x00000000000044a361ae3cac094c9d1b14eece97",
      "contractAddress": null,
      "l1GasPrice": "0x4158b95d",
      "l1GasUsed": "0xa40",
      "l1Fee": "0x2567b85f7",
      "l1BaseFeeScalar": "0x44d",
      "l1BlobBaseFee": "0x3c8ef82",
      "l1BlobBaseFeeScalar": "0xa118b",
      "daFootprintGasScalar": "0x1be"
    },
    {
      "type": "0x2",
      "status": "0x1",
      "cumulativeGasUsed": "0x51c729",
      "logs": [
        {
          "address": "0x05e73354cfdd6745c338b50bcfdfa3aa6fa03408",
          "topics": [
            "0x1b3d7edb2e9c0b0e7c525b20aaaef0f5940d2ed71663c7d39266ecafac728859",
            "0x000000000000000000000000ab0ae552ee5933935e39393d32b4034e75fd3ff8",
            "0x0000000000000000000000000000000000000000000000000000000000000000",
            "0x000000000000000000000000aa46dd2434de4b06da8d4f7f0ace4e152eecbba6"
          ],
          "data": "0x000000000000000000000000ab0ae552ee5933935e39393d32b4034e75fd3ff800000000000000000000000000000000000000000000000000002d79883d2000",
          "blockHash": "0xfb3cc48214a0ad56f30824e4014411af13a8e55f822520a56ca8f9fe8b2fda0a",
          "blockNumber": "0x28f1a5f",
          "blockTimestamp": "0x6a31939e",
          "transactionHash": "0x5bd4c2bf54c2c464f87f3e7f7195526fa97d62cd4a4aa2d3530382995cf2b38b",
          "transactionIndex": "0x1b",
          "logIndex": "0x6c",
          "removed": false
        },
        {
          "address": "0xaa46dd2434de4b06da8d4f7f0ace4e152eecbba6",
          "topics": [
            "0xddf252ad1be2c89b69c2b068fc378daa952ba7f163c4a11628f55a4df523b3ef",
            "0x00000000000000000000000005e73354cfdd6745c338b50bcfdfa3aa6fa03408",
            "0x000000000000000000000000ab0ae552ee5933935e39393d32b4034e75fd3ff8"
          ],
          "data": "0x00000000000000000000000000000000000000000000000000002d79883d2000",
          "blockHash": "0xfb3cc48214a0ad56f30824e4014411af13a8e55f822520a56ca8f9fe8b2fda0a",
          "blockNumber": "0x28f1a5f",
          "blockTimestamp": "0x6a31939e",
          "transactionHash": "0x5bd4c2bf54c2c464f87f3e7f7195526fa97d62cd4a4aa2d3530382995cf2b38b",
          "transactionIndex": "0x1b",
          "logIndex": "0x6d",
          "removed": false
        },
        {
          "address": "0xaa46dd2434de4b06da8d4f7f0ace4e152eecbba6",
          "topics": [
            "0xddf252ad1be2c89b69c2b068fc378daa952ba7f163c4a11628f55a4df523b3ef",
            "0x000000000000000000000000ab0ae552ee5933935e39393d32b4034e75fd3ff8",
            "0x0000000000000000000000000000000000000000000000000000000000000000"
          ],
          "data": "0x00000000000000000000000000000000000000000000000000002d79883d2000",
          "blockHash": "0xfb3cc48214a0ad56f30824e4014411af13a8e55f822520a56ca8f9fe8b2fda0a",
          "blockNumber": "0x28f1a5f",
          "blockTimestamp": "0x6a31939e",
          "transactionHash": "0x5bd4c2bf54c2c464f87f3e7f7195526fa97d62cd4a4aa2d3530382995cf2b38b",
          "transactionIndex": "0x1b",
          "logIndex": "0x6e",
          "removed": false
        },
        {
          "address": "0xab0ae552ee5933935e39393d32b4034e75fd3ff8",
          "topics": [
            "0x6062168399e4fe8eaa1a9b7d0dcf3041cd29463a04b771c059c5a7328f753634"
          ],
          "data": "0x00000000000000000000000000000000000000000000000000002d79883d2000",
          "blockHash": "0xfb3cc48214a0ad56f30824e4014411af13a8e55f822520a56ca8f9fe8b2fda0a",
          "blockNumber": "0x28f1a5f",
          "blockTimestamp": "0x6a31939e",
          "transactionHash": "0x5bd4c2bf54c2c464f87f3e7f7195526fa97d62cd4a4aa2d3530382995cf2b38b",
          "transactionIndex": "0x1b",
          "logIndex": "0x6f",
          "removed": false
        }
      ],
      "logsBloom": "0x00000000000000000000000000000000000000000000000000000000000000000000082100000000000000000000000000000000000000000000000000400000000000000010000000000008000004000000000000140000000000000000000000000000020000000000000800000800000000000000000000000090800000000000000004004000000000000000000000000000000000000000000000000000000000000000000000000000000020000000000000000000000000000000000400000002009040000000000008000000000000000000000000000000000020000000000001000000004000000800000000000000000000008000000004000000",
      "transactionHash": "0x5bd4c2bf54c2c464f87f3e7f7195526fa97d62cd4a4aa2d3530382995cf2b38b",
      "transactionIndex": "0x1b",
      "blockHash": "0xfb3cc48214a0ad56f30824e4014411af13a8e55f822520a56ca8f9fe8b2fda0a",
      "blockNumber": "0x28f1a5f",
      "gasUsed": "0x18ef2",
      "effectiveGasPrice": "0x5b8d80",
      "blobGasUsed": "0xae38",
      "from": "0xf93e7518f79c2e1978d6862dbf161270040e623e",
      "to": "0xab0ae552ee5933935e39393d32b4034e75fd3ff8",
      "contractAddress": null,
      "l1GasPrice": "0x4158b95d",
      "l1GasUsed": "0x640",
      "l1Fee": "0x16cdca19c",
      "l1BaseFeeScalar": "0x44d",
      "l1BlobBaseFee": "0x3c8ef82",
      "l1BlobBaseFeeScalar": "0xa118b",
      "daFootprintGasScalar": "0x1be"
    },
    {
      "type": "0x2",
      "status": "0x1",
      "cumulativeGasUsed": "0x53e274",
      "logs": [
        {
          "address": "0xaa46dd2434de4b06da8d4f7f0ace4e152eecbba6",
          "topics": [
            "0x9e71bc8eea02a63969f509818f2dafb9254532904319f9dbda79b67bd34a5f3d",
            "0x000000000000000000000000f93e7518f79c2e1978d6862dbf161270040e623e"
          ],
          "data": "0x0000000000000000000000000000000000000000000000056bc75e2d63100000",
          "blockHash": "0xfb3cc48214a0ad56f30824e4014411af13a8e55f822520a56ca8f9fe8b2fda0a",
          "blockNumber": "0x28f1a5f",
          "blockTimestamp": "0x6a31939e",
          "transactionHash": "0x4fd36edf1097ae2fd6ca9e16e3f3fa2b87c74e263aaa1c0546ab7e7c6a880ea6",
          "transactionIndex": "0x1c",
          "logIndex": "0x70",
          "removed": false
        },
        {
          "address": "0x61564ee98d9efdc198ae6a48dfcd864c7f06a3b3",
          "topics": [
            "0x1449c6dd7851abc30abf37f57715f492010519147cc2652fbc38202c18a6ee90",
            "0x000000000000000000000000f93e7518f79c2e1978d6862dbf161270040e623e"
          ],
          "data": "0x0000000000000000000000000000000000000000000000056bc75e2d6310000000000000000000000000000000000000000000000000000d02ab486cedc00000",
          "blockHash": "0xfb3cc48214a0ad56f30824e4014411af13a8e55f822520a56ca8f9fe8b2fda0a",
          "blockNumber": "0x28f1a5f",
          "blockTimestamp": "0x6a31939e",
          "transactionHash": "0x4fd36edf1097ae2fd6ca9e16e3f3fa2b87c74e263aaa1c0546ab7e7c6a880ea6",
          "transactionIndex": "0x1c",
          "logIndex": "0x71",
          "removed": false
        }
      ],
      "logsBloom": "0x00000000000000000000000000000000000000000800000000100000800200000000000000000000000000000000000000000000000000200000000000000000000000080000000000000000000000000000000000000000000000000000000040000000000000000008000000000000000000000000000000000000800000000000100000000000000000000000000000000000000000000000000000100000020000000000000000000000000000000000000000000000000000000000000400000000000000000000000000000000000000000000000000001000000000000000000000000000004000000000000000000000000000000000000000000000",
      "transactionHash": "0x4fd36edf1097ae2fd6ca9e16e3f3fa2b87c74e263aaa1c0546ab7e7c6a880ea6",
      "transactionIndex": "0x1c",
      "blockHash": "0xfb3cc48214a0ad56f30824e4014411af13a8e55f822520a56ca8f9fe8b2fda0a",
      "blockNumber": "0x28f1a5f",
      "gasUsed": "0x21b4b",
      "effectiveGasPrice": "0x5b8d80",
      "blobGasUsed": "0xae38",
      "from": "0xf93e7518f79c2e1978d6862dbf161270040e623e",
      "to": "0x61564ee98d9efdc198ae6a48dfcd864c7f06a3b3",
      "contractAddress": null,
      "l1GasPrice": "0x4158b95d",
      "l1GasUsed": "0x640",
      "l1Fee": "0x16cdca19c",
      "l1BaseFeeScalar": "0x44d",
      "l1BlobBaseFee": "0x3c8ef82",
      "l1BlobBaseFeeScalar": "0xa118b",
      "daFootprintGasScalar": "0x1be"
    },
    {
      "type": "0x2",
      "status": "0x1",
      "cumulativeGasUsed": "0x56c840",
      "logs": [
        {
          "address": "0xab0ae552ee5933935e39393d32b4034e75fd3ff8",
          "topics": [
            "0xeb18042c63a6494302e2e34ca89562fb59d5b25ded99d617905bdd7c4f891f03",
            "0x0000000000000000000000000000000000000000000000000000000000000001",
            "0x0000000000000000000000000000000000000000000000000000000000000001"
          ],
          "data": "0x0000000000000000000000000000000000000000000000000000000ba43b7400",
          "blockHash": "0xfb3cc48214a0ad56f30824e4014411af13a8e55f822520a56ca8f9fe8b2fda0a",
          "blockNumber": "0x28f1a5f",
          "blockTimestamp": "0x6a31939e",
          "transactionHash": "0x66a6e4b470f4b9113e3d48c1dccf270d550c713cc49df5d60f91720ed42041ac",
          "transactionIndex": "0x1d",
          "logIndex": "0x72",
          "removed": false
        },
        {
          "address": "0x05e73354cfdd6745c338b50bcfdfa3aa6fa03408",
          "topics": [
            "0x40e9cecb9f5f1f1c5b9c97dec2917b7ee92e57ba5563708daca94dd84ad7112f",
            "0xdee57bc03bcf10854c85eff8b22a0c9619f304cf00c6ead952f5a82ec8950b9a",
            "0x00000000000000000000000000000000000044a361ae3cac094c9d1b14eece97"
          ],
          "data": "0xffffffffffffffffffffffffffffffffffffffffffffffffffffff22cf9664000000000000000000000000000000000000000000000004c2b8185c1ba97e3cff0000000000000000000000000000000000022f813b2e12f3759531951d3f4c1e0000000000000000000000000000000000000000000000000de0b79c7c0910000000000000000000000000000000000000000000000000000000000000039f900000000000000000000000000000000000000000000000000000000000000bb8",
          "blockHash": "0xfb3cc48214a0ad56f30824e4014411af13a8e55f822520a56ca8f9fe8b2fda0a",
          "blockNumber": "0x28f1a5f",
          "blockTimestamp": "0x6a31939e",
          "transactionHash": "0x66a6e4b470f4b9113e3d48c1dccf270d550c713cc49df5d60f91720ed42041ac",
          "transactionIndex": "0x1d",
          "logIndex": "0x73",
          "removed": false
        },
        {
          "address": "0x05e73354cfdd6745c338b50bcfdfa3aa6fa03408",
          "topics": [
            "0x1b3d7edb2e9c0b0e7c525b20aaaef0f5940d2ed71663c7d39266ecafac728859",
            "0x0000000000000000000000000000000000000000000000000000000000000000",
            "0x000000000000000000000000ab0ae552ee5933935e39393d32b4034e75fd3ff8",
            "0x0000000000000000000000000000000000000000000000000000000000000000"
          ],
          "data": "0x000000000000000000000000ab0ae552ee5933935e39393d32b4034e75fd3ff80000000000000000000000000000000000000000000000000000000ba43b7400",
          "blockHash": "0xfb3cc48214a0ad56f30824e4014411af13a8e55f822520a56ca8f9fe8b2fda0a",
          "blockNumber": "0x28f1a5f",
          "blockTimestamp": "0x6a31939e",
          "transactionHash": "0x66a6e4b470f4b9113e3d48c1dccf270d550c713cc49df5d60f91720ed42041ac",
          "transactionIndex": "0x1d",
          "logIndex": "0x74",
          "removed": false
        },
        {
          "address": "0xaa46dd2434de4b06da8d4f7f0ace4e152eecbba6",
          "topics": [
            "0xddf252ad1be2c89b69c2b068fc378daa952ba7f163c4a11628f55a4df523b3ef",
            "0x00000000000000000000000005e73354cfdd6745c338b50bcfdfa3aa6fa03408",
            "0x000000000000000000000000f93e7518f79c2e1978d6862dbf161270040e623e"
          ],
          "data": "0x0000000000000000000000000000000000000000000004c2b8185c1ba97e3cff",
          "blockHash": "0xfb3cc48214a0ad56f30824e4014411af13a8e55f822520a56ca8f9fe8b2fda0a",
          "blockNumber": "0x28f1a5f",
          "blockTimestamp": "0x6a31939e",
          "transactionHash": "0x66a6e4b470f4b9113e3d48c1dccf270d550c713cc49df5d60f91720ed42041ac",
          "transactionIndex": "0x1d",
          "logIndex": "0x75",
          "removed": false
        }
      ],
      "logsBloom": "0x00000000000000000000000000000000000000000000001000000000800000000000002100000000000000000000000000000000040000200000000040040000000000000010000000000008000004200000000000140020000000000800000000000000020000000000000000000800000000000000000000000090800040000000000004000000000000000000000000000000000000000000000000180000000000000000000000000000000020000000000000000000000000000000000400000002001440000000000008000000000000000000000000000000000060010000000001000000004000000800000000000000000000008000000004001000",
      "transactionHash": "0x66a6e4b470f4b9113e3d48c1dccf270d550c713cc49df5d60f91720ed42041ac",
      "transactionIndex": "0x1d",
      "blockHash": "0xfb3cc48214a0ad56f30824e4014411af13a8e55f822520a56ca8f9fe8b2fda0a",
      "blockNumber": "0x28f1a5f",
      "gasUsed": "0x2e5cc",
      "effectiveGasPrice": "0x5b8d80",
      "blobGasUsed": "0x11f76",
      "from": "0xf93e7518f79c2e1978d6862dbf161270040e623e",
      "to": "0x00000000000044a361ae3cac094c9d1b14eece97",
      "contractAddress": null,
      "l1GasPrice": "0x4158b95d",
      "l1GasUsed": "0xa5b",
      "l1Fee": "0x25c962ecb",
      "l1BaseFeeScalar": "0x44d",
      "l1BlobBaseFee": "0x3c8ef82",
      "l1BlobBaseFeeScalar": "0xa118b",
      "daFootprintGasScalar": "0x1be"
    },
    {
      "type": "0x2",
      "status": "0x1",
      "cumulativeGasUsed": "0x587602",
      "logs": [
        {
          "address": "0x05e73354cfdd6745c338b50bcfdfa3aa6fa03408",
          "topics": [
            "0x1b3d7edb2e9c0b0e7c525b20aaaef0f5940d2ed71663c7d39266ecafac728859",
            "0x000000000000000000000000ab0ae552ee5933935e39393d32b4034e75fd3ff8",
            "0x0000000000000000000000000000000000000000000000000000000000000000",
            "0x0000000000000000000000000000000000000000000000000000000000000000"
          ],
          "data": "0x000000000000000000000000ab0ae552ee5933935e39393d32b4034e75fd3ff80000000000000000000000000000000000000000000000000000000ba43b7400",
          "blockHash": "0xfb3cc48214a0ad56f30824e4014411af13a8e55f822520a56ca8f9fe8b2fda0a",
          "blockNumber": "0x28f1a5f",
          "blockTimestamp": "0x6a31939e",
          "transactionHash": "0x548aba2cc8c6f3169948bd292dc8f09e1bde5d34ce093335a393971a0d648c36",
          "transactionIndex": "0x1e",
          "logIndex": "0x76",
          "removed": false
        },
        {
          "address": "0x61564ee98d9efdc198ae6a48dfcd864c7f06a3b3",
          "topics": [
            "0x6c07ee05dcf262f13abf9d87b846ee789d2f90fe991d495acd7d7fc109ee1f55"
          ],
          "data": "0x00000000000000000000000000000000000000000000000000000009502f90000000000000000000000000000000000000000000000000000000000000093a80",
          "blockHash": "0xfb3cc48214a0ad56f30824e4014411af13a8e55f822520a56ca8f9fe8b2fda0a",
          "blockNumber": "0x28f1a5f",
          "blockTimestamp": "0x6a31939e",
          "transactionHash": "0x548aba2cc8c6f3169948bd292dc8f09e1bde5d34ce093335a393971a0d648c36",
          "transactionIndex": "0x1e",
          "logIndex": "0x77",
          "removed": false
        },
        {
          "address": "0xab0ae552ee5933935e39393d32b4034e75fd3ff8",
          "topics": [
            "0xda378dba4f1dc8c7a566c70096e0389c466cb99cc2ec74173afd50c7b652ca09"
          ],
          "data": "0x00000000000000000000000000000000000000000000000000000009502f900000000000000000000000000000000000000000000000000000000002540be400",
          "blockHash": "0xfb3cc48214a0ad56f30824e4014411af13a8e55f822520a56ca8f9fe8b2fda0a",
          "blockNumber": "0x28f1a5f",
          "blockTimestamp": "0x6a31939e",
          "transactionHash": "0x548aba2cc8c6f3169948bd292dc8f09e1bde5d34ce093335a393971a0d648c36",
          "transactionIndex": "0x1e",
          "logIndex": "0x78",
          "removed": false
        }
      ],
      "logsBloom": "0x00000000000000000000000000000000000000000000000000000000000000000000002100000000000000000000000000000000000000000000000000000000000000080000000000000000000004000000200000000000000000000000000001000000020000000000000000000800000800000000000000000080000000000000000004000000000000000000000000000000000000000000000000000000020000000000000000000000000020000000000000000000000000000008000000000000001040000001000008000000000000000000000000001100000020000000000001000000000000000000000000000000000000008000000004000000",
      "transactionHash": "0x548aba2cc8c6f3169948bd292dc8f09e1bde5d34ce093335a393971a0d648c36",
      "transactionIndex": "0x1e",
      "blockHash": "0xfb3cc48214a0ad56f30824e4014411af13a8e55f822520a56ca8f9fe8b2fda0a",
      "blockNumber": "0x28f1a5f",
      "gasUsed": "0x1adc2",
      "effectiveGasPrice": "0x5b8d80",
      "blobGasUsed": "0xae38",
      "from": "0xf93e7518f79c2e1978d6862dbf161270040e623e",
      "to": "0xab0ae552ee5933935e39393d32b4034e75fd3ff8",
      "contractAddress": null,
      "l1GasPrice": "0x4158b95d",
      "l1GasUsed": "0x640",
      "l1Fee": "0x16cdca19c",
      "l1BaseFeeScalar": "0x44d",
      "l1BlobBaseFee": "0x3c8ef82",
      "l1BlobBaseFeeScalar": "0xa118b",
      "daFootprintGasScalar": "0x1be"
    },
    {
      "type": "0x2",
      "status": "0x1",
      "cumulativeGasUsed": "0x593a21",
      "logs": [
        {
          "address": "0x61564ee98d9efdc198ae6a48dfcd864c7f06a3b3",
          "topics": [
            "0xe2403640ba68fed3a2f88b7557551d1993f84b99bb10ff833f0cf8db0c5e0486",
            "0x000000000000000000000000f93e7518f79c2e1978d6862dbf161270040e623e"
          ],
          "data": "0x000000000000000000000000000000000000000000000000000000002d439b30",
          "blockHash": "0x0000000000000000000000000000000000000000000000000000000000000000",
          "blockNumber": "0x28f1a5f",
          "blockTimestamp": "0x6a31939e",
          "transactionHash": "0xcc0c1b406221430522e7e39c7f91bc48e5d45048c2df557978645dd3340755ff",
          "transactionIndex": "0x1f",
          "logIndex": "0x79",
          "removed": false
        }
      ],
      "logsBloom": "0x00000000000000000000000000000000000000008000000000000000800000000000000000000000000000000000000000000000000000200000000000000000000000080000000000000000000000000000000000000000000000000000000000000000000000000000000000000000000000000000000000000000000000000000000100000000000000000800000000000000000000000000000000100000020000000000000000000000000000000000000000000000000000000000000000000000000000000000000000000000000000000000000000001000000000000000000000000000000000000000000000000000000000000000000000000000",
      "transactionHash": "0xcc0c1b406221430522e7e39c7f91bc48e5d45048c2df557978645dd3340755ff",
      "transactionIndex": "0x1f",
      "blockHash": "0x0000000000000000000000000000000000000000000000000000000000000000",
      "blockNumber": "0x28f1a5f",
      "gasUsed": "0xc41f",
      "effectiveGasPrice": "0x5b8d80",
      "blobGasUsed": "0xae38",
      "from": "0xf93e7518f79c2e1978d6862dbf161270040e623e",
      "to": "0x61564ee98d9efdc198ae6a48dfcd864c7f06a3b3",
      "contractAddress": null,
      "l1GasPrice": "0x4158b95d",
      "l1GasUsed": "0x640",
      "l1Fee": "0x19c4e68bc",
      "l1BaseFeeScalar": "0x44d",
      "l1BlobBaseFee": "0x3c8ef82",
      "l1BlobBaseFeeScalar": "0xa118b",
      "daFootprintGasScalar": "0x1be"
    },
    {
      "type": "0x2",
      "status": "0x1",
      "cumulativeGasUsed": "0x5a102a",
      "logs": [
        {
          "address": "0xaa46dd2434de4b06da8d4f7f0ace4e152eecbba6",
          "topics": [
            "0xddf252ad1be2c89b69c2b068fc378daa952ba7f163c4a11628f55a4df523b3ef",
            "0x000000000000000000000000f93e7518f79c2e1978d6862dbf161270040e623e",
            "0x0000000000000000000000000000000000000000000000000000000000000000"
          ],
          "data": "0x000000000000000000000000000000000000000000000002b5e3af16b1880000",
          "blockHash": "0xfb3cc48214a0ad56f30824e4014411af13a8e55f822520a56ca8f9fe8b2fda0a",
          "blockNumber": "0x28f1a5f",
          "blockTimestamp": "0x6a31939e",
          "transactionHash": "0x0655a3923c4054796d7359e5918f372f3e6dcbb085f2afed6afc1a63de822e46",
          "transactionIndex": "0x20",
          "logIndex": "0x7a",
          "removed": false
        }
      ],
      "logsBloom": "0x00000000000000000000000000000000000000000000000000000000800000000000000000000000000000000000000000000000000000200000000000000000000000000000000000000008000000000000000000000000000000000000000000000000020000000000000000000800000000000000000000000010800000000000000000000000000000000000000000000000000000000000000000100000000000000000000000000000000000000000000000000000000000000000000400000002000000000000000000000000000000000000000000000000000020000000000000000000004000000000000000000000000000000000000000000000",
      "transactionHash": "0x0655a3923c4054796d7359e5918f372f3e6dcbb085f2afed6afc1a63de822e46",
      "transactionIndex": "0x20",
      "blockHash": "0xfb3cc48214a0ad56f30824e4014411af13a8e55f822520a56ca8f9fe8b2fda0a",
      "blockNumber": "0x28f1a5f",
      "gasUsed": "0xd609",
      "effectiveGasPrice": "0x5b8d80",
      "blobGasUsed": "0xae38",
      "from": "0xf93e7518f79c2e1978d6862dbf161270040e623e",
      "to": "0xaa46dd2434de4b06da8d4f7f0ace4e152eecbba6",
      "contractAddress": null,
      "l1GasPrice": "0x4158b95d",
      "l1GasUsed": "0x640",
      "l1Fee": "0x16cdca19c",
      "l1BaseFeeScalar": "0x44d",
      "l1BlobBaseFee": "0x3c8ef82",
      "l1BlobBaseFeeScalar": "0xa118b",
      "daFootprintGasScalar": "0x1be"
    },
    {
      "type": "0x2",
      "status": "0x1",
      "cumulativeGasUsed": "0x5cccb9",
      "logs": [
        {
          "address": "0xab0ae552ee5933935e39393d32b4034e75fd3ff8",
          "topics": [
            "0xeb18042c63a6494302e2e34ca89562fb59d5b25ded99d617905bdd7c4f891f03",
            "0x0000000000000000000000000000000000000000000000000000000000000000",
            "0x0000000000000000000000000000000000000000000000000000000000000000"
          ],
          "data": "0x00000000000000000000000000000000000000000000000000002d79883d2000",
          "blockHash": "0xfb3cc48214a0ad56f30824e4014411af13a8e55f822520a56ca8f9fe8b2fda0a",
          "blockNumber": "0x28f1a5f",
          "blockTimestamp": "0x6a31939e",
          "transactionHash": "0xf470e60cf5ec2449327c04437e0443791d5619216d87c41a8bcb1f9f2f381e6b",
          "transactionIndex": "0x21",
          "logIndex": "0x7b",
          "removed": false
        },
        {
          "address": "0x05e73354cfdd6745c338b50bcfdfa3aa6fa03408",
          "topics": [
            "0x40e9cecb9f5f1f1c5b9c97dec2917b7ee92e57ba5563708daca94dd84ad7112f",
            "0xdee57bc03bcf10854c85eff8b22a0c9619f304cf00c6ead952f5a82ec8950b9a",
            "0x00000000000000000000000000000000000044a361ae3cac094c9d1b14eece97"
          ],
          "data": "0x000000000000000000000000000000000000000000000000000000000000b456fffffffffffffffffffffffffffffffffffffffffffffffffffc9ffae376a0000000000000000000000000000000000000022f813b6c2579aa6def15545b3e810000000000000000000000000000000000000000000000000de0b79c7c0910000000000000000000000000000000000000000000000000000000000000039f900000000000000000000000000000000000000000000000000000000000000bb8",
          "blockHash": "0xfb3cc48214a0ad56f30824e4014411af13a8e55f822520a56ca8f9fe8b2fda0a",
          "blockNumber": "0x28f1a5f",
          "blockTimestamp": "0x6a31939e",
          "transactionHash": "0xf470e60cf5ec2449327c04437e0443791d5619216d87c41a8bcb1f9f2f381e6b",
          "transactionIndex": "0x21",
          "logIndex": "0x7c",
          "removed": false
        },
        {
          "address": "0x05e73354cfdd6745c338b50bcfdfa3aa6fa03408",
          "topics": [
            "0x1b3d7edb2e9c0b0e7c525b20aaaef0f5940d2ed71663c7d39266ecafac728859",
            "0x0000000000000000000000000000000000000000000000000000000000000000",
            "0x000000000000000000000000ab0ae552ee5933935e39393d32b4034e75fd3ff8",
            "0x000000000000000000000000aa46dd2434de4b06da8d4f7f0ace4e152eecbba6"
          ],
          "data": "0x000000000000000000000000ab0ae552ee5933935e39393d32b4034e75fd3ff800000000000000000000000000000000000000000000000000002d79883d2000",
          "blockHash": "0xfb3cc48214a0ad56f30824e4014411af13a8e55f822520a56ca8f9fe8b2fda0a",
          "blockNumber": "0x28f1a5f",
          "blockTimestamp": "0x6a31939e",
          "transactionHash": "0xf470e60cf5ec2449327c04437e0443791d5619216d87c41a8bcb1f9f2f381e6b",
          "transactionIndex": "0x21",
          "logIndex": "0x7d",
          "removed": false
        },
        {
          "address": "0xaa46dd2434de4b06da8d4f7f0ace4e152eecbba6",
          "topics": [
            "0xddf252ad1be2c89b69c2b068fc378daa952ba7f163c4a11628f55a4df523b3ef",
            "0x000000000000000000000000f93e7518f79c2e1978d6862dbf161270040e623e",
            "0x00000000000000000000000005e73354cfdd6745c338b50bcfdfa3aa6fa03408"
          ],
          "data": "0x00000000000000000000000000000000000000000000000000038d7ea4c68000",
          "blockHash": "0xfb3cc48214a0ad56f30824e4014411af13a8e55f822520a56ca8f9fe8b2fda0a",
          "blockNumber": "0x28f1a5f",
          "blockTimestamp": "0x6a31939e",
          "transactionHash": "0xf470e60cf5ec2449327c04437e0443791d5619216d87c41a8bcb1f9f2f381e6b",
          "transactionIndex": "0x21",
          "logIndex": "0x7e",
          "removed": false
        }
      ],
      "logsBloom": "0x00000000000000000000000000000000000000000000001000000000800000000000002100000000000000000000000000000000040000200000000040400000000000000010000000000008000004200000000000140020000000000800000000000000020000000000000800000800000000000000000000000090800040000000000004000000000000000000000000000000000000000000000000180000000000000000000000000000000020000000000000000000000000000000000400000002001440000000000008000000000000000000000000000000000020010000000001000000004000000800000000000000000000008000000004001000",
      "transactionHash": "0xf470e60cf5ec2449327c04437e0443791d5619216d87c41a8bcb1f9f2f381e6b",
      "transactionIndex": "0x21",
      "blockHash": "0xfb3cc48214a0ad56f30824e4014411af13a8e55f822520a56ca8f9fe8b2fda0a",
      "blockNumber": "0x28f1a5f",
      "gasUsed": "0x2bc8f",
      "effectiveGasPrice": "0x5b8d80",
      "blobGasUsed": "0x11db8",
      "from": "0xf93e7518f79c2e1978d6862dbf161270040e623e",
      "to": "0x00000000000044a361ae3cac094c9d1b14eece97",
      "contractAddress": null,
      "l1GasPrice": "0x4158b95d",
      "l1GasUsed": "0xa40",
      "l1Fee": "0x2567b85f7",
      "l1BaseFeeScalar": "0x44d",
      "l1BlobBaseFee": "0x3c8ef82",
      "l1BlobBaseFeeScalar": "0xa118b",
      "daFootprintGasScalar": "0x1be"
    },
    {
      "type": "0x2",
      "status": "0x1",
      "cumulativeGasUsed": "0x5e5bab",
      "logs": [
        {
          "address": "0x05e73354cfdd6745c338b50bcfdfa3aa6fa03408",
          "topics": [
            "0x1b3d7edb2e9c0b0e7c525b20aaaef0f5940d2ed71663c7d39266ecafac728859",
            "0x000000000000000000000000ab0ae552ee5933935e39393d32b4034e75fd3ff8",
            "0x0000000000000000000000000000000000000000000000000000000000000000",
            "0x000000000000000000000000aa46dd2434de4b06da8d4f7f0ace4e152eecbba6"
          ],
          "data": "0x000000000000000000000000ab0ae552ee5933935e39393d32b4034e75fd3ff800000000000000000000000000000000000000000000000000002d79883d2000",
          "blockHash": "0xfb3cc48214a0ad56f30824e4014411af13a8e55f822520a56ca8f9fe8b2fda0a",
          "blockNumber": "0x28f1a5f",
          "blockTimestamp": "0x6a31939e",
          "transactionHash": "0x7fadb9fe7e170755d76dc2acba4e6730bda1ac16901db03e3c0fc6fe1b78756c",
          "transactionIndex": "0x22",
          "logIndex": "0x7f",
          "removed": false
        },
        {
          "address": "0xaa46dd2434de4b06da8d4f7f0ace4e152eecbba6",
          "topics": [
            "0xddf252ad1be2c89b69c2b068fc378daa952ba7f163c4a11628f55a4df523b3ef",
            "0x00000000000000000000000005e73354cfdd6745c338b50bcfdfa3aa6fa03408",
            "0x000000000000000000000000ab0ae552ee5933935e39393d32b4034e75fd3ff8"
          ],
          "data": "0x00000000000000000000000000000000000000000000000000002d79883d2000",
          "blockHash": "0xfb3cc48214a0ad56f30824e4014411af13a8e55f822520a56ca8f9fe8b2fda0a",
          "blockNumber": "0x28f1a5f",
          "blockTimestamp": "0x6a31939e",
          "transactionHash": "0x7fadb9fe7e170755d76dc2acba4e6730bda1ac16901db03e3c0fc6fe1b78756c",
          "transactionIndex": "0x22",
          "logIndex": "0x80",
          "removed": false
        },
        {
          "address": "0xaa46dd2434de4b06da8d4f7f0ace4e152eecbba6",
          "topics": [
            "0xddf252ad1be2c89b69c2b068fc378daa952ba7f163c4a11628f55a4df523b3ef",
            "0x000000000000000000000000ab0ae552ee5933935e39393d32b4034e75fd3ff8",
            "0x0000000000000000000000000000000000000000000000000000000000000000"
          ],
          "data": "0x00000000000000000000000000000000000000000000000000002d79883d2000",
          "blockHash": "0xfb3cc48214a0ad56f30824e4014411af13a8e55f822520a56ca8f9fe8b2fda0a",
          "blockNumber": "0x28f1a5f",
          "blockTimestamp": "0x6a31939e",
          "transactionHash": "0x7fadb9fe7e170755d76dc2acba4e6730bda1ac16901db03e3c0fc6fe1b78756c",
          "transactionIndex": "0x22",
          "logIndex": "0x81",
          "removed": false
        },
        {
          "address": "0xab0ae552ee5933935e39393d32b4034e75fd3ff8",
          "topics": [
            "0x6062168399e4fe8eaa1a9b7d0dcf3041cd29463a04b771c059c5a7328f753634"
          ],
          "data": "0x00000000000000000000000000000000000000000000000000002d79883d2000",
          "blockHash": "0xfb3cc48214a0ad56f30824e4014411af13a8e55f822520a56ca8f9fe8b2fda0a",
          "blockNumber": "0x28f1a5f",
          "blockTimestamp": "0x6a31939e",
          "transactionHash": "0x7fadb9fe7e170755d76dc2acba4e6730bda1ac16901db03e3c0fc6fe1b78756c",
          "transactionIndex": "0x22",
          "logIndex": "0x82",
          "removed": false
        }
      ],
      "logsBloom": "0x00000000000000000000000000000000000000000000000000000000000000000000082100000000000000000000000000000000000000000000000000400000000000000010000000000008000004000000000000140000000000000000000000000000020000000000000800000800000000000000000000000090800000000000000004004000000000000000000000000000000000000000000000000000000000000000000000000000000020000000000000000000000000000000000400000002009040000000000008000000000000000000000000000000000020000000000001000000004000000800000000000000000000008000000004000000",
      "transactionHash": "0x7fadb9fe7e170755d76dc2acba4e6730bda1ac16901db03e3c0fc6fe1b78756c",
      "transactionIndex": "0x22",
      "blockHash": "0xfb3cc48214a0ad56f30824e4014411af13a8e55f822520a56ca8f9fe8b2fda0a",
      "blockNumber": "0x28f1a5f",
      "gasUsed": "0x18ef2",
      "effectiveGasPrice": "0x5b8d80",
      "blobGasUsed": "0xae38",
      "from": "0xf93e7518f79c2e1978d6862dbf161270040e623e",
      "to": "0xab0ae552ee5933935e39393d32b4034e75fd3ff8",
      "contractAddress": null,
      "l1GasPrice": "0x4158b95d",
      "l1GasUsed": "0x640",
      "l1Fee": "0x16cdca19c",
      "l1BaseFeeScalar": "0x44d",
      "l1BlobBaseFee": "0x3c8ef82",
      "l1BlobBaseFeeScalar": "0xa118b",
      "daFootprintGasScalar": "0x1be"
    }
  ],
  "libraries": [],
  "pending": [],
  "returns": {},
  "timestamp": 1781633953037,
  "chain": 84532,
  "commit": "6418441"
}