{
  "transactions": [
    {
      "hash": "0x2ff14ca8b429ec2c76d17d57b29cc95ba7b97a348be7aaa4942d101403cabb55",
      "transactionType": "CALL",
      "contractName": null,
      "contractAddress": "0xaa46dd2434de4b06da8d4f7f0ace4e152eecbba6",
      "function": "approve(address,uint256)",
      "arguments": [
        "0x000000000022D473030F116dDEE9F6B43aC78BA3",
        "115792089237316195423570985008687907853269984665640564039457584007913129639935"
      ],
      "transaction": {
        "from": "0xf93e7518f79c2e1978d6862dbf161270040e623e",
        "to": "0xaa46dd2434de4b06da8d4f7f0ace4e152eecbba6",
        "gas": "0x9681",
        "value": "0x0",
        "input": "0x095ea7b3000000000000000000000000000000000022d473030f116ddee9f6b43ac78ba3ffffffffffffffffffffffffffffffffffffffffffffffffffffffffffffffff",
        "nonce": "0x52",
        "chainId": "0x14a34"
      },
      "additionalContracts": [],
      "isFixedGasLimit": false
    },
    {
      "hash": "0xb331bb46d0025073180b1276129c150caa92dce7caf8250f4155961742aa8438",
      "transactionType": "CALL",
      "contractName": null,
      "contractAddress": "0x000000000022d473030f116ddee9f6b43ac78ba3",
      "function": "approve(address,address,uint160,uint48)",
      "arguments": [
        "0xaA46dd2434dE4b06Da8D4F7f0Ace4e152EecbbA6",
        "0x4B2C77d209D3405F41a037Ec6c77F7F5b8e2ca80",
        "1461501637330902918203684832716283019655932542975",
        "1781720524"
      ],
      "transaction": {
        "from": "0xf93e7518f79c2e1978d6862dbf161270040e623e",
        "to": "0x000000000022d473030f116ddee9f6b43ac78ba3",
        "gas": "0xa59b",
        "value": "0x0",
        "input": "0x87517c45000000000000000000000000aa46dd2434de4b06da8d4f7f0ace4e152eecbba60000000000000000000000004b2c77d209d3405f41a037ec6c77f7f5b8e2ca80000000000000000000000000ffffffffffffffffffffffffffffffffffffffff000000000000000000000000000000000000000000000000000000006a32e5cc",
        "nonce": "0x53",
        "chainId": "0x14a34"
      },
      "additionalContracts": [],
      "isFixedGasLimit": false
    },
    {
      "hash": "0x28bb521aab8174aa735927945337a1ba6639a8fdfe66b7fe0e5d3dd081909d76",
      "transactionType": "CALL",
      "contractName": null,
      "contractAddress": "0x000000000022d473030f116ddee9f6b43ac78ba3",
      "function": "approve(address,address,uint160,uint48)",
      "arguments": [
        "0xaA46dd2434dE4b06Da8D4F7f0Ace4e152EecbbA6",
        "0x00000000000044a361Ae3cAc094c9D1b14Eece97",
        "1461501637330902918203684832716283019655932542975",
        "1781720524"
      ],
      "transaction": {
        "from": "0xf93e7518f79c2e1978d6862dbf161270040e623e",
        "to": "0x000000000022d473030f116ddee9f6b43ac78ba3",
        "gas": "0xa537",
        "value": "0x0",
        "input": "0x87517c45000000000000000000000000aa46dd2434de4b06da8d4f7f0ace4e152eecbba600000000000000000000000000000000000044a361ae3cac094c9d1b14eece97000000000000000000000000ffffffffffffffffffffffffffffffffffffffff000000000000000000000000000000000000000000000000000000006a32e5cc",
        "nonce": "0x54",
        "chainId": "0x14a34"
      },
      "additionalContracts": [],
      "isFixedGasLimit": false
    },
    {
      "hash": "0xf6468a98d5e8d4d748c5c555b88576fb7d55fb26bcdbf4f6018390ca4d456ea7",
      "transactionType": "CALL",
      "contractName": null,
      "contractAddress": "0xaa46dd2434de4b06da8d4f7f0ace4e152eecbba6",
      "function": "approve(address,uint256)",
      "arguments": [
        "0x00000000000044a361Ae3cAc094c9D1b14Eece97",
        "115792089237316195423570985008687907853269984665640564039457584007913129639935"
      ],
      "transaction": {
        "from": "0xf93e7518f79c2e1978d6862dbf161270040e623e",
        "to": "0xaa46dd2434de4b06da8d4f7f0ace4e152eecbba6",
        "gas": "0x8e13",
        "value": "0x0",
        "input": "0x095ea7b300000000000000000000000000000000000044a361ae3cac094c9d1b14eece97ffffffffffffffffffffffffffffffffffffffffffffffffffffffffffffffff",
        "nonce": "0x55",
        "chainId": "0x14a34"
      },
      "additionalContracts": [],
      "isFixedGasLimit": false
    },
    {
      "hash": "0x8d9bfd6a92c323ac5837799e3606701a79e1b5f3acc176e925ad48e7a4386019",
      "transactionType": "CALL",
      "contractName": null,
      "contractAddress": "0xaa46dd2434de4b06da8d4f7f0ace4e152eecbba6",
      "function": "approve(address,uint256)",
      "arguments": [
        "0x61564EE98d9eFDc198AE6a48dFCd864C7F06A3B3",
        "115792089237316195423570985008687907853269984665640564039457584007913129639935"
      ],
      "transaction": {
        "from": "0xf93e7518f79c2e1978d6862dbf161270040e623e",
        "to": "0xaa46dd2434de4b06da8d4f7f0ace4e152eecbba6",
        "gas": "0x8e77",
        "value": "0x0",
        "input": "0x095ea7b300000000000000000000000061564ee98d9efdc198ae6a48dfcd864c7f06a3b3ffffffffffffffffffffffffffffffffffffffffffffffffffffffffffffffff",
        "nonce": "0x56",
        "chainId": "0x14a34"
      },
      "additionalContracts": [],
      "isFixedGasLimit": false
    },
    {
      "hash": "0x90770ba40fa690b11da26bb1208f72e075dd0a29e41bd7a657179a2f85642918",
      "transactionType": "CALL",
      "contractName": null,
      "contractAddress": "0x4b2c77d209d3405f41a037ec6c77f7f5b8e2ca80",
      "function": "modifyLiquidities(bytes,uint256)",
      "arguments": [
        "0x000000000000000000000000000000000000000000000000000000000000004000000000000000000000000000000000000000000000000000000000000000800000000000000000000000000000000000000000000000000000000000000002020d00000000000000000000000000000000000000000000000000000000000000000000000000000000000000000000000000000000000000000000000000020000000000000000000000000000000000000000000000000000000000000040000000000000000000000000000000000000000000000000000000000000020000000000000000000000000000000000000000000000000000000000000001a00000000000000000000000000000000000000000000000000000000000000000000000000000000000000000aa46dd2434de4b06da8d4f7f0ace4e152eecbba60000000000000000000000000000000000000000000000000000000000000bb8000000000000000000000000000000000000000000000000000000000000003c000000000000000000000000ab0ae552ee5933935e39393d32b4034e75fd3ff8fffffffffffffffffffffffffffffffffffffffffffffffffffffffffff2764c00000000000000000000000000000000000000000000000000000000000d89b400000000000000000000000000000000000000000000000006f05b59d3b2000000000000000000000000000000000000ffffffffffffffffffffffffffffffff00000000000000000000000000000000ffffffffffffffffffffffffffffffff000000000000000000000000f93e7518f79c2e1978d6862dbf161270040e623e0000000000000000000000000000000000000000000000000000000000000180000000000000000000000000000000000000000000000000000000000000000000000000000000000000000000000000000000000000000000000000000000400000000000000000000000000000000000000000000000000000000000000000000000000000000000000000aa46dd2434de4b06da8d4f7f0ace4e152eecbba6",
        "1781634424"
      ],
      "transaction": {
        "from": "0xf93e7518f79c2e1978d6862dbf161270040e623e",
        "to": "0x4b2c77d209d3405f41a037ec6c77f7f5b8e2ca80",
        "gas": "0x5ed5f",
        "value": "0x11c37937e08000",
        "input": "0xdd46508f0000000000000000000000000000000000000000000000000000000000000040000000000000000000000000000000000000000000000000000000006a3195780000000000000000000000000000000000000000000000000000000000000300000000000000000000000000000000000000000000000000000000000000004000000000000000000000000000000000000000000000000000000000000000800000000000000000000000000000000000000000000000000000000000000002020d00000000000000000000000000000000000000000000000000000000000000000000000000000000000000000000000000000000000000000000000000020000000000000000000000000000000000000000000000000000000000000040000000000000000000000000000000000000000000000000000000000000020000000000000000000000000000000000000000000000000000000000000001a00000000000000000000000000000000000000000000000000000000000000000000000000000000000000000aa46dd2434de4b06da8d4f7f0ace4e152eecbba60000000000000000000000000000000000000000000000000000000000000bb8000000000000000000000000000000000000000000000000000000000000003c000000000000000000000000ab0ae552ee5933935e39393d32b4034e75fd3ff8fffffffffffffffffffffffffffffffffffffffffffffffffffffffffff2764c00000000000000000000000000000000000000000000000000000000000d89b400000000000000000000000000000000000000000000000006f05b59d3b2000000000000000000000000000000000000ffffffffffffffffffffffffffffffff00000000000000000000000000000000ffffffffffffffffffffffffffffffff000000000000000000000000f93e7518f79c2e1978d6862dbf161270040e623e0000000000000000000000000000000000000000000000000000000000000180000000000000000000000000000000000000000000000000000000000000000000000000000000000000000000000000000000000000000000000000000000400000000000000000000000000000000000000000000000000000000000000000000000000000000000000000aa46dd2434de4b06da8d4f7f0ace4e152eecbba6",
        "nonce": "0x57",
        "chainId": "0x14a34"
      },
      "additionalContracts": [],
      "isFixedGasLimit": false
    },
    {
      "hash": "0x18c93e57bc85dd96bead70668a4a355622e8dd19e4c0f3d975db0b33f71ae269",
      "transactionType": "CALL",
      "contractName": null,
      "contractAddress": "0x00000000000044a361ae3cac094c9d1b14eece97",
      "function": "swapExactTokensForTokens(uint256,uint256,bool,(address,address,uint24,int24,address),bytes,address,uint256)",
      "arguments": [
        "1000000000000",
        "0",
        "true",
        "(0x0000000000000000000000000000000000000000, 0xaA46dd2434dE4b06Da8D4F7f0Ace4e152EecbbA6, 3000, 60, 0xaB0Ae552Ee5933935e39393D32b4034E75fD3Ff8)",
        "0x",
        "0xF93E7518F79C2E1978D6862Dbf161270040e623E",
        "1781634424"
      ],
      "transaction": {
        "from": "0xf93e7518f79c2e1978d6862dbf161270040e623e",
        "to": "0x00000000000044a361ae3cac094c9d1b14eece97",
        "gas": "0x3fb7c",
        "value": "0xe8d4a51000",
        "input": "0xb1a0d571000000000000000000000000000000000000000000000000000000e8d4a51000000000000000000000000000000000000000000000000000000000000000000000000000000000000000000000000000000000000000000000000000000000010000000000000000000000000000000000000000000000000000000000000000000000000000000000000000aa46dd2434de4b06da8d4f7f0ace4e152eecbba60000000000000000000000000000000000000000000000000000000000000bb8000000000000000000000000000000000000000000000000000000000000003c000000000000000000000000ab0ae552ee5933935e39393d32b4034e75fd3ff80000000000000000000000000000000000000000000000000000000000000160000000000000000000000000f93e7518f79c2e1978d6862dbf161270040e623e000000000000000000000000000000000000000000000000000000006a3195780000000000000000000000000000000000000000000000000000000000000000",
        "nonce": "0x58",
        "chainId": "0x14a34"
      },
      "additionalContracts": [],
      "isFixedGasLimit": false
    },
    {
      "hash": "0xd9a67c2b01ef1fbabf92244d9fea088bed298daed243b0bc9f468a735cefd8b0",
      "transactionType": "CALL",
      "contractName": null,
      "contractAddress": "0xab0ae552ee5933935e39393d32b4034e75fd3ff8",
      "function": "claimFees(bool)",
      "arguments": [
        "true"
      ],
      "transaction": {
        "from": "0xf93e7518f79c2e1978d6862dbf161270040e623e",
        "to": "0xab0ae552ee5933935e39393d32b4034e75fd3ff8",
        "gas": "0x2a482",
        "value": "0x0",
        "input": "0x1d4161650000000000000000000000000000000000000000000000000000000000000001",
        "nonce": "0x59",
        "chainId": "0x14a34"
      },
      "additionalContracts": [],
      "isFixedGasLimit": false
    },
    {
      "hash": "0x75d500a26d31129b8bf0f1e8ba9194685e63d182d855994e6e5e6c37978cf59d",
      "transactionType": "CALL",
      "contractName": null,
      "contractAddress": "0x00000000000044a361ae3cac094c9d1b14eece97",
      "function": "swapExactTokensForTokens(uint256,uint256,bool,(address,address,uint24,int24,address),bytes,address,uint256)",
      "arguments": [
        "1000000000000000",
        "0",
        "false",
        "(0x0000000000000000000000000000000000000000, 0xaA46dd2434dE4b06Da8D4F7f0Ace4e152EecbbA6, 3000, 60, 0xaB0Ae552Ee5933935e39393D32b4034E75fD3Ff8)",
        "0x",
        "0xF93E7518F79C2E1978D6862Dbf161270040e623E",
        "1781634424"
      ],
      "transaction": {
        "from": "0xf93e7518f79c2e1978d6862dbf161270040e623e",
        "to": "0x00000000000044a361ae3cac094c9d1b14eece97",
        "gas": "0x3fb24",
        "value": "0x0",
        "input": "0xb1a0d57100000000000000000000000000000000000000000000000000038d7ea4c68000000000000000000000000000000000000000000000000000000000000000000000000000000000000000000000000000000000000000000000000000000000000000000000000000000000000000000000000000000000000000000000000000000000000000000000000000aa46dd2434de4b06da8d4f7f0ace4e152eecbba60000000000000000000000000000000000000000000000000000000000000bb8000000000000000000000000000000000000000000000000000000000000003c000000000000000000000000ab0ae552ee5933935e39393d32b4034e75fd3ff80000000000000000000000000000000000000000000000000000000000000160000000000000000000000000f93e7518f79c2e1978d6862dbf161270040e623e000000000000000000000000000000000000000000000000000000006a3195780000000000000000000000000000000000000000000000000000000000000000",
        "nonce": "0x5a",
        "chainId": "0x14a34"
      },
      "additionalContracts": [],
      "isFixedGasLimit": false
    },
    {
      "hash": "0x3baf1071c975ee824d4b8b115c6d1b52f3c8218c17b703b351b45d6da06037f1",
      "transactionType": "CALL",
      "contractName": null,
      "contractAddress": "0xab0ae552ee5933935e39393d32b4034e75fd3ff8",
      "function": "claimFees(bool)",
      "arguments": [
        "false"
      ],
      "transaction": {
        "from": "0xf93e7518f79c2e1978d6862dbf161270040e623e",
        "to": "0xab0ae552ee5933935e39393d32b4034e75fd3ff8",
        "gas": "0x24774",
        "value": "0x0",
        "input": "0x1d4161650000000000000000000000000000000000000000000000000000000000000000",
        "nonce": "0x5b",
        "chainId": "0x14a34"
      },
      "additionalContracts": [],
      "isFixedGasLimit": false
    },
    {
      "hash": "0xe07e41ae5082fa0de66c1691786149936da8b1122db5379e039ea3a18d5282c2",
      "transactionType": "CALL",
      "contractName": null,
      "contractAddress": "0x61564ee98d9efdc198ae6a48dfcd864c7f06a3b3",
      "function": "stake(uint256)",
      "arguments": [
        "100000000000000000000"
      ],
      "transaction": {
        "from": "0xf93e7518f79c2e1978d6862dbf161270040e623e",
        "to": "0x61564ee98d9efdc198ae6a48dfcd864c7f06a3b3",
        "gas": "0x28ca1",
        "value": "0x0",
        "input": "0xa694fc3a0000000000000000000000000000000000000000000000056bc75e2d63100000",
        "nonce": "0x5c",
        "chainId": "0x14a34"
      },
      "additionalContracts": [],
      "isFixedGasLimit": false
    },
    {
      "hash": "0x4b093cd896ec6b85d435f25907b7c41df6b05e75b58379a09cc1e861d2c79ceb",
      "transactionType": "CALL",
      "contractName": null,
      "contractAddress": "0x00000000000044a361ae3cac094c9d1b14eece97",
      "function": "swapExactTokensForTokens(uint256,uint256,bool,(address,address,uint24,int24,address),bytes,address,uint256)",
      "arguments": [
        "1000000000000",
        "0",
        "true",
        "(0x0000000000000000000000000000000000000000, 0xaA46dd2434dE4b06Da8D4F7f0Ace4e152EecbbA6, 3000, 60, 0xaB0Ae552Ee5933935e39393D32b4034E75fD3Ff8)",
        "0x",
        "0xF93E7518F79C2E1978D6862Dbf161270040e623E",
        "1781634424"
      ],
      "transaction": {
        "from": "0xf93e7518f79c2e1978d6862dbf161270040e623e",
        "to": "0x00000000000044a361ae3cac094c9d1b14eece97",
        "gas": "0x4003c",
        "value": "0xe8d4a51000",
        "input": "0xb1a0d571000000000000000000000000000000000000000000000000000000e8d4a51000000000000000000000000000000000000000000000000000000000000000000000000000000000000000000000000000000000000000000000000000000000010000000000000000000000000000000000000000000000000000000000000000000000000000000000000000aa46dd2434de4b06da8d4f7f0ace4e152eecbba60000000000000000000000000000000000000000000000000000000000000bb8000000000000000000000000000000000000000000000000000000000000003c000000000000000000000000ab0ae552ee5933935e39393d32b4034e75fd3ff80000000000000000000000000000000000000000000000000000000000000160000000000000000000000000f93e7518f79c2e1978d6862dbf161270040e623e000000000000000000000000000000000000000000000000000000006a3195780000000000000000000000000000000000000000000000000000000000000000",
        "nonce": "0x5d",
        "chainId": "0x14a34"
      },
      "additionalContracts": [],
      "isFixedGasLimit": false
    },
    {
      "hash": "0x565b2a152fde070a09d45995de1cc58ee3e73d8060297f2cb5b2766be62f2a0d",
      "transactionType": "CALL",
      "contractName": null,
      "contractAddress": "0xab0ae552ee5933935e39393d32b4034e75fd3ff8",
      "function": "claimFees(bool)",
      "arguments": [
        "true"
      ],
      "transaction": {
        "from": "0xf93e7518f79c2e1978d6862dbf161270040e623e",
        "to": "0xab0ae552ee5933935e39393d32b4034e75fd3ff8",
        "gas": "0x27485",
        "value": "0x0",
        "input": "0x1d4161650000000000000000000000000000000000000000000000000000000000000001",
        "nonce": "0x5e",
        "chainId": "0x14a34"
      },
      "additionalContracts": [],
      "isFixedGasLimit": false
    },
    {
      "hash": "0x484c193904f1eba868628986de39d208eb0237ab94291a839e50e2034b602d91",
      "transactionType": "CALL",
      "contractName": null,
      "contractAddress": "0x61564ee98d9efdc198ae6a48dfcd864c7f06a3b3",
      "function": "claimReward()",
      "arguments": [],
      "transaction": {
        "from": "0xf93e7518f79c2e1978d6862dbf161270040e623e",
        "to": "0x61564ee98d9efdc198ae6a48dfcd864c7f06a3b3",
        "gas": "0x10ee3",
        "value": "0x0",
        "input": "0xb88a802f",
        "nonce": "0x5f",
        "chainId": "0x14a34"
      },
      "additionalContracts": [],
      "isFixedGasLimit": false
    },
    {
      "hash": "0x47bd4874da4a805f6c1521f4ebd595496ccbd36fa2dc77dfadd4ac8cb6197f84",
      "transactionType": "CALL",
      "contractName": null,
      "contractAddress": "0xaa46dd2434de4b06da8d4f7f0ace4e152eecbba6",
      "function": "burn(uint256)",
      "arguments": [
        "10000000000000000000000"
      ],
      "transaction": {
        "from": "0xf93e7518f79c2e1978d6862dbf161270040e623e",
        "to": "0xaa46dd2434de4b06da8d4f7f0ace4e152eecbba6",
        "gas": "0x4816b",
        "value": "0x0",
        "input": "0x42966c6800000000000000000000000000000000000000000000021e19e0c9bab2400000",
        "nonce": "0x60",
        "chainId": "0x14a34"
      },
      "additionalContracts": [],
      "isFixedGasLimit": false
    },
    {
      "hash": "0xd0c8ee85b72960710507014753def8e7fea482f0d27fbd2889435b7983191bb5",
      "transactionType": "CALL",
      "contractName": null,
      "contractAddress": "0x00000000000044a361ae3cac094c9d1b14eece97",
      "function": "swapExactTokensForTokens(uint256,uint256,bool,(address,address,uint24,int24,address),bytes,address,uint256)",
      "arguments": [
        "1000000000000000",
        "0",
        "false",
        "(0x0000000000000000000000000000000000000000, 0xaA46dd2434dE4b06Da8D4F7f0Ace4e152EecbbA6, 3000, 60, 0xaB0Ae552Ee5933935e39393D32b4034E75fD3Ff8)",
        "0x",
        "0xF93E7518F79C2E1978D6862Dbf161270040e623E",
        "1781634424"
      ],
      "transaction": {
        "from": "0xf93e7518f79c2e1978d6862dbf161270040e623e",
        "to": "0x00000000000044a361ae3cac094c9d1b14eece97",
        "gas": "0x4002d",
        "value": "0x0",
        "input": "0xb1a0d57100000000000000000000000000000000000000000000000000038d7ea4c68000000000000000000000000000000000000000000000000000000000000000000000000000000000000000000000000000000000000000000000000000000000000000000000000000000000000000000000000000000000000000000000000000000000000000000000000000aa46dd2434de4b06da8d4f7f0ace4e152eecbba60000000000000000000000000000000000000000000000000000000000000bb8000000000000000000000000000000000000000000000000000000000000003c000000000000000000000000ab0ae552ee5933935e39393d32b4034e75fd3ff80000000000000000000000000000000000000000000000000000000000000160000000000000000000000000f93e7518f79c2e1978d6862dbf161270040e623e000000000000000000000000000000000000000000000000000000006a3195780000000000000000000000000000000000000000000000000000000000000000",
        "nonce": "0x61",
        "chainId": "0x14a34"
      },
      "additionalContracts": [],
      "isFixedGasLimit": false
    },
    {
      "hash": "0xc2739227703ce296d1954996c8c32ad34e0be033d632d5377820941f8f3ac539",
      "transactionType": "CALL",
      "contractName": null,
      "contractAddress": "0xab0ae552ee5933935e39393d32b4034e75fd3ff8",
      "function": "claimFees(bool)",
      "arguments": [
        "false"
      ],
      "transaction": {
        "from": "0xf93e7518f79c2e1978d6862dbf161270040e623e",
        "to": "0xab0ae552ee5933935e39393d32b4034e75fd3ff8",
        "gas": "0x24774",
        "value": "0x0",
        "input": "0x1d4161650000000000000000000000000000000000000000000000000000000000000000",
        "nonce": "0x62",
        "chainId": "0x14a34"
      },
      "additionalContracts": [],
      "isFixedGasLimit": false
    }
  ],
  "receipts": [
    {
      "type": "0x2",
      "status": "0x1",
      "cumulativeGasUsed": "0xf2470",
      "logs": [
        {
          "address": "0xaa46dd2434de4b06da8d4f7f0ace4e152eecbba6",
          "topics": [
            "0x8c5be1e5ebec7d5bd14f71427d1e84f3dd0314c0f7b2291e5b200ac8c7c3b925",
            "0x000000000000000000000000f93e7518f79c2e1978d6862dbf161270040e623e",
            "0x000000000000000000000000000000000022d473030f116ddee9f6b43ac78ba3"
          ],
          "data": "0xffffffffffffffffffffffffffffffffffffffffffffffffffffffffffffffff",
          "blockHash": "0x1e5c6b3b54f86db7ab81a6b1ba82a076e350228b9dabfc82008162f6fcb82f32",
          "blockNumber": "0x28f1adb",
          "blockTimestamp": "0x6a319496",
          "transactionHash": "0xe07e41ae5082fa0de66c1691786149936da8b1122db5379e039ea3a18d5282c2",
          "transactionIndex": "0x9",
          "logIndex": "0x11",
          "removed": false
        }
      ],
      "logsBloom": "0x00000000000000000000000000000000000000000000000000000000800000000000000000000000000000000000000000000000800000200000000000200000000000000000000000004000000000000000000000000800000000000000000000000000000000000000000000000000000000000000000000000000800000000000000000000000000000000000000000000000000000000000000000100000020000000000000000000000000000000000000000000000000000000000000400000000000000000000000000000000000000000000000000000000000000000010000000000000004000000000000000000000000000000000000000000000",
      "transactionHash": "0xe07e41ae5082fa0de66c1691786149936da8b1122db5379e039ea3a18d5282c2",
      "transactionIndex": "0x9",
      "blockHash": "0x1e5c6b3b54f86db7ab81a6b1ba82a076e350228b9dabfc82008162f6fcb82f32",
      "blockNumber": "0x28f1adb",
      "gasUsed": "0x66e9",
      "effectiveGasPrice": "0x5b8d80",
      "blobGasUsed": "0xae38",
      "from": "0xf93e7518f79c2e1978d6862dbf161270040e623e",
      "to": "0xaa46dd2434de4b06da8d4f7f0ace4e152eecbba6",
      "contractAddress": null,
      "l1GasPrice": "0x3e3ed9f2",
      "l1GasUsed": "0x640",
      "l1Fee": "0x14c108b7c",
      "l1BaseFeeScalar": "0x44d",
      "l1BlobBaseFee": "0x35ee32c",
      "l1BlobBaseFeeScalar": "0xa118b",
      "daFootprintGasScalar": "0x1be"
    },
    {
      "type": "0x2",
      "status": "0x1",
      "cumulativeGasUsed": "0xf9c56",
      "logs": [
        {
          "address": "0x000000000022d473030f116ddee9f6b43ac78ba3",
          "topics": [
            "0xda9fa7c1b00402c17d0161b249b1ab8bbec047c5a52207b9c112deffd817036b",
            "0x000000000000000000000000f93e7518f79c2e1978d6862dbf161270040e623e",
            "0x000000000000000000000000aa46dd2434de4b06da8d4f7f0ace4e152eecbba6",
            "0x0000000000000000000000004b2c77d209d3405f41a037ec6c77f7f5b8e2ca80"
          ],
          "data": "0x000000000000000000000000ffffffffffffffffffffffffffffffffffffffff000000000000000000000000000000000000000000000000000000006a32e5cc",
          "blockHash": "0x1e5c6b3b54f86db7ab81a6b1ba82a076e350228b9dabfc82008162f6fcb82f32",
          "blockNumber": "0x28f1adb",
          "blockTimestamp": "0x6a319496",
          "transactionHash": "0x90770ba40fa690b11da26bb1208f72e075dd0a29e41bd7a657179a2f85642918",
          "transactionIndex": "0xa",
          "logIndex": "0x12",
          "removed": false
        }
      ],
      "logsBloom": "0x00010000000000010000000000000000000000000000000000000000800000000000000000000000000000000000000000000000000000200008000010480000000000000000000000000000000000000000000000040000000000000000000000000000000000000000000800000000000000000000000000000000000000000020000000000000000000000000000000000000000000000000000000100000000000000000000000000000000000000000000000000000000000080000000000000000000000000000000000000000000000000000000040000000000000000000000000000000000000000000000000000000000000000000000000000400",
      "transactionHash": "0x90770ba40fa690b11da26bb1208f72e075dd0a29e41bd7a657179a2f85642918",
      "transactionIndex": "0xa",
      "blockHash": "0x1e5c6b3b54f86db7ab81a6b1ba82a076e350228b9dabfc82008162f6fcb82f32",
      "blockNumber": "0x28f1adb",
      "gasUsed": "0x77e6",
      "effectiveGasPrice": "0x5b8d80",
      "blobGasUsed": "0xc4de",
      "from": "0xf93e7518f79c2e1978d6862dbf161270040e623e",
      "to": "0x000000000022d473030f116ddee9f6b43ac78ba3",
      "contractAddress": null,
      "l1GasPrice": "0x3e3ed9f2",
      "l1GasUsed": "0x710",
      "l1Fee": "0x1773e8bc5",
      "l1BaseFeeScalar": "0x44d",
      "l1BlobBaseFee": "0x35ee32c",
      "l1BlobBaseFeeScalar": "0xa118b",
      "daFootprintGasScalar": "0x1be"
    },
    {
      "type": "0x2",
      "status": "0x1",
      "cumulativeGasUsed": "0x1013f4",
      "logs": [
        {
          "address": "0x000000000022d473030f116ddee9f6b43ac78ba3",
          "topics": [
            "0xda9fa7c1b00402c17d0161b249b1ab8bbec047c5a52207b9c112deffd817036b",
            "0x000000000000000000000000f93e7518f79c2e1978d6862dbf161270040e623e",
            "0x000000000000000000000000aa46dd2434de4b06da8d4f7f0ace4e152eecbba6",
            "0x00000000000000000000000000000000000044a361ae3cac094c9d1b14eece97"
          ],
          "data": "0x000000000000000000000000ffffffffffffffffffffffffffffffffffffffff000000000000000000000000000000000000000000000000000000006a32e5cc",
          "blockHash": "0x1e5c6b3b54f86db7ab81a6b1ba82a076e350228b9dabfc82008162f6fcb82f32",
          "blockNumber": "0x28f1adb",
          "blockTimestamp": "0x6a319496",
          "transactionHash": "0xb331bb46d0025073180b1276129c150caa92dce7caf8250f4155961742aa8438",
          "transactionIndex": "0xb",
          "logIndex": "0x13",
          "removed": false
        }
      ],
      "logsBloom": "0x00010000000000000000000000000000000000000000000000000000800000000000000000000000000000000000000000000000000000200000000040480000000000000000000000000000000000000000000000040000000000000000000000000000000000000000000800000000000000000000000000000000000040000020000000000000000000000000000000000000000000000000000000100000000000000000000000000000000000000000000000000000000000080000000000000000000000000000000000000000000000000000000040000000000000010000000000000000000000000000000000000000000000000000000000000400",
      "transactionHash": "0xb331bb46d0025073180b1276129c150caa92dce7caf8250f4155961742aa8438",
      "transactionIndex": "0xb",
      "blockHash": "0x1e5c6b3b54f86db7ab81a6b1ba82a076e350228b9dabfc82008162f6fcb82f32",
      "blockNumber": "0x28f1adb",
      "gasUsed": "0x779e",
      "effectiveGasPrice": "0x5b8d80",
      "blobGasUsed": "0xbde6",
      "from": "0xf93e7518f79c2e1978d6862dbf161270040e623e",
      "to": "0x000000000022d473030f116ddee9f6b43ac78ba3",
      "contractAddress": null,
      "l1GasPrice": "0x3e3ed9f2",
      "l1GasUsed": "0x6da",
      "l1Fee": "0x16c2228fa",
      "l1BaseFeeScalar": "0x44d",
      "l1BlobBaseFee": "0x35ee32c",
      "l1BlobBaseFeeScalar": "0xa118b",
      "daFootprintGasScalar": "0x1be"
    },
    {
      "type": "0x2",
      "status": "0x1",
      "cumulativeGasUsed": "0x107ad1",
      "logs": [
        {
          "address": "0xaa46dd2434de4b06da8d4f7f0ace4e152eecbba6",
          "topics": [
            "0x8c5be1e5ebec7d5bd14f71427d1e84f3dd0314c0f7b2291e5b200ac8c7c3b925",
            "0x000000000000000000000000f93e7518f79c2e1978d6862dbf161270040e623e",
            "0x00000000000000000000000000000000000044a361ae3cac094c9d1b14eece97"
          ],
          "data": "0xffffffffffffffffffffffffffffffffffffffffffffffffffffffffffffffff",
          "blockHash": "0x1e5c6b3b54f86db7ab81a6b1ba82a076e350228b9dabfc82008162f6fcb82f32",
          "blockNumber": "0x28f1adb",
          "blockTimestamp": "0x6a319496",
          "transactionHash": "0xd9a67c2b01ef1fbabf92244d9fea088bed298daed243b0bc9f468a735cefd8b0",
          "transactionIndex": "0xc",
          "logIndex": "0x14",
          "removed": false
        }
      ],
      "logsBloom": "0x00000000000000000000000000000000000000000000000000000000800000000000000000000000000000000000000000000000000000200000000040200000000000000000000000000000000000000000000000000000000000000000000000000000000000000000000000000000000000000000000000000000800040000000000000000000000000000000000000000000000000000000000000100000020000000000000000000000000000000000000000000000000000000000000400000000000000000000000000000000000000000000000000000000000000010010000000000000004000000000000000000000000000000000000000000000",
      "transactionHash": "0xd9a67c2b01ef1fbabf92244d9fea088bed298daed243b0bc9f468a735cefd8b0",
      "transactionIndex": "0xc",
      "blockHash": "0x1e5c6b3b54f86db7ab81a6b1ba82a076e350228b9dabfc82008162f6fcb82f32",
      "blockNumber": "0x28f1adb",
      "gasUsed": "0x66dd",
      "effectiveGasPrice": "0x5b8d80",
      "blobGasUsed": "0xae38",
      "from": "0xf93e7518f79c2e1978d6862dbf161270040e623e",
      "to": "0xaa46dd2434de4b06da8d4f7f0ace4e152eecbba6",
      "contractAddress": null,
      "l1GasPrice": "0x3e3ed9f2",
      "l1GasUsed": "0x640",
      "l1Fee": "0x14c108b7c",
      "l1BaseFeeScalar": "0x44d",
      "l1BlobBaseFee": "0x35ee32c",
      "l1BlobBaseFeeScalar": "0xa118b",
      "daFootprintGasScalar": "0x1be"
    },
    {
      "type": "0x2",
      "status": "0x1",
      "cumulativeGasUsed": "0x10e1f6",
      "logs": [
        {
          "address": "0xaa46dd2434de4b06da8d4f7f0ace4e152eecbba6",
          "topics": [
            "0x8c5be1e5ebec7d5bd14f71427d1e84f3dd0314c0f7b2291e5b200ac8c7c3b925",
            "0x000000000000000000000000f93e7518f79c2e1978d6862dbf161270040e623e",
            "0x00000000000000000000000061564ee98d9efdc198ae6a48dfcd864c7f06a3b3"
          ],
          "data": "0xffffffffffffffffffffffffffffffffffffffffffffffffffffffffffffffff",
          "blockHash": "0x1e5c6b3b54f86db7ab81a6b1ba82a076e350228b9dabfc82008162f6fcb82f32",
          "blockNumber": "0x28f1adb",
          "blockTimestamp": "0x6a319496",
          "transactionHash": "0x2ff14ca8b429ec2c76d17d57b29cc95ba7b97a348be7aaa4942d101403cabb55",
          "transactionIndex": "0xd",
          "logIndex": "0x15",
          "removed": false
        }
      ],
      "logsBloom": "0x00000000000000000000000000000000000000000000000000000000800000000000000000000000000000000000000000000000000000200000000000200000000000000000000000000000000000000000000000000000000000000000000000000000000000000000001000000000000000000000000000000800800000000000000000000000000000000000000000000000000000000002000000100000020000000000000000000000000000000000000000000000000000000000000400000000000000000000000000000000000000000000000000000000000000000010000000000000004000000000000000000000000000000000000000000000",
      "transactionHash": "0x2ff14ca8b429ec2c76d17d57b29cc95ba7b97a348be7aaa4942d101403cabb55",
      "transactionIndex": "0xd",
      "blockHash": "0x1e5c6b3b54f86db7ab81a6b1ba82a076e350228b9dabfc82008162f6fcb82f32",
      "blockNumber": "0x28f1adb",
      "gasUsed": "0x6725",
      "effectiveGasPrice": "0x5b8d80",
      "blobGasUsed": "0xae38",
      "from": "0xf93e7518f79c2e1978d6862dbf161270040e623e",
      "to": "0xaa46dd2434de4b06da8d4f7f0ace4e152eecbba6",
      "contractAddress": null,
      "l1GasPrice": "0x3e3ed9f2",
      "l1GasUsed": "0x640",
      "l1Fee": "0x14c108b7c",
      "l1BaseFeeScalar": "0x44d",
      "l1BlobBaseFee": "0x35ee32c",
      "l1BlobBaseFeeScalar": "0xa118b",
      "daFootprintGasScalar": "0x1be"
    },
    {
      "type": "0x2",
      "status": "0x1",
      "cumulativeGasUsed": "0x24a1c1",
      "logs": [
        {
          "address": "0x4b2c77d209d3405f41a037ec6c77f7f5b8e2ca80",
          "topics": [
            "0xddf252ad1be2c89b69c2b068fc378daa952ba7f163c4a11628f55a4df523b3ef",
            "0x0000000000000000000000000000000000000000000000000000000000000000",
            "0x000000000000000000000000f93e7518f79c2e1978d6862dbf161270040e623e",
            "0x0000000000000000000000000000000000000000000000000000000000006185"
          ],
          "data": "0x",
          "blockHash": "0x1e5c6b3b54f86db7ab81a6b1ba82a076e350228b9dabfc82008162f6fcb82f32",
          "blockNumber": "0x28f1adb",
          "blockTimestamp": "0x6a319496",
          "transactionHash": "0xc2739227703ce296d1954996c8c32ad34e0be033d632d5377820941f8f3ac539",
          "transactionIndex": "0x12",
          "logIndex": "0x52",
          "removed": false
        },
        {
          "address": "0x05e73354cfdd6745c338b50bcfdfa3aa6fa03408",
          "topics": [
            "0xf208f4912782fd25c7f114ca3723a2d5dd6f3bcc3ac8db5af63baa85f711d5ec",
            "0xdee57bc03bcf10854c85eff8b22a0c9619f304cf00c6ead952f5a82ec8950b9a",
            "0x0000000000000000000000004b2c77d209d3405f41a037ec6c77f7f5b8e2ca80"
          ],
          "data": "0xfffffffffffffffffffffffffffffffffffffffffffffffffffffffffff2764c00000000000000000000000000000000000000000000000000000000000d89b400000000000000000000000000000000000000000000000006f05b59d3b200000000000000000000000000000000000000000000000000000000000000006185",
          "blockHash": "0x1e5c6b3b54f86db7ab81a6b1ba82a076e350228b9dabfc82008162f6fcb82f32",
          "blockNumber": "0x28f1adb",
          "blockTimestamp": "0x6a319496",
          "transactionHash": "0xc2739227703ce296d1954996c8c32ad34e0be033d632d5377820941f8f3ac539",
          "transactionIndex": "0x12",
          "logIndex": "0x53",
          "removed": false
        },
        {
          "address": "0xaa46dd2434de4b06da8d4f7f0ace4e152eecbba6",
          "topics": [
            "0xddf252ad1be2c89b69c2b068fc378daa952ba7f163c4a11628f55a4df523b3ef",
            "0x000000000000000000000000f93e7518f79c2e1978d6862dbf161270040e623e",
            "0x00000000000000000000000005e73354cfdd6745c338b50bcfdfa3aa6fa03408"
          ],
          "data": "0x000000000000000000000000000000000000000000000f2a583380fda1cf15a2",
          "blockHash": "0x1e5c6b3b54f86db7ab81a6b1ba82a076e350228b9dabfc82008162f6fcb82f32",
          "blockNumber": "0x28f1adb",
          "blockTimestamp": "0x6a319496",
          "transactionHash": "0xc2739227703ce296d1954996c8c32ad34e0be033d632d5377820941f8f3ac539",
          "transactionIndex": "0x12",
          "logIndex": "0x54",
          "removed": false
        }
      ],
      "logsBloom": "0x00000000000000010000000000000000004000000000000000000000800000000100008100000000000000000000000000000000000000200008000010000800000000000010000000000008000004200000000000100000000000008800000000000000020000000000000000000800000000000000000000000010800000000000000005000000000000000000000000000000000000000000000000100000000004000000000000000000000000000000000000000000000000000000000400000002001400000000000000000000000000000000000000000000000020000000000000000000004000000800000004000000000000000000000000000000",
      "transactionHash": "0xc2739227703ce296d1954996c8c32ad34e0be033d632d5377820941f8f3ac539",
      "transactionIndex": "0x12",
      "blockHash": "0x1e5c6b3b54f86db7ab81a6b1ba82a076e350228b9dabfc82008162f6fcb82f32",
      "blockNumber": "0x28f1adb",
      "gasUsed": "0x44a8e",
      "effectiveGasPrice": "0x5b8d80",
      "blobGasUsed": "0x1b1ce",
      "from": "0xf93e7518f79c2e1978d6862dbf161270040e623e",
      "to": "0x4b2c77d209d3405f41a037ec6c77f7f5b8e2ca80",
      "contractAddress": null,
      "l1GasPrice": "0x3e3ed9f2",
      "l1GasUsed": "0xf95",
      "l1Fee": "0x33c034598",
      "l1BaseFeeScalar": "0x44d",
      "l1BlobBaseFee": "0x35ee32c",
      "l1BlobBaseFeeScalar": "0xa118b",
      "daFootprintGasScalar": "0x1be"
    },
    {
      "type": "0x2",
      "status": "0x1",
      "cumulativeGasUsed": "0x2783d8",
      "logs": [
        {
          "address": "0xab0ae552ee5933935e39393d32b4034e75fd3ff8",
          "topics": [
            "0xeb18042c63a6494302e2e34ca89562fb59d5b25ded99d617905bdd7c4f891f03",
            "0x0000000000000000000000000000000000000000000000000000000000000001",
            "0x0000000000000000000000000000000000000000000000000000000000000001"
          ],
          "data": "0x0000000000000000000000000000000000000000000000000000000ba43b7400",
          "blockHash": "0x1e5c6b3b54f86db7ab81a6b1ba82a076e350228b9dabfc82008162f6fcb82f32",
          "blockNumber": "0x28f1adb",
          "blockTimestamp": "0x6a319496",
          "transactionHash": "0x47bd4874da4a805f6c1521f4ebd595496ccbd36fa2dc77dfadd4ac8cb6197f84",
          "transactionIndex": "0x13",
          "logIndex": "0x55",
          "removed": false
        },
        {
          "address": "0x05e73354cfdd6745c338b50bcfdfa3aa6fa03408",
          "topics": [
            "0x40e9cecb9f5f1f1c5b9c97dec2917b7ee92e57ba5563708daca94dd84ad7112f",
            "0xdee57bc03bcf10854c85eff8b22a0c9619f304cf00c6ead952f5a82ec8950b9a",
            "0x00000000000000000000000000000000000044a361ae3cac094c9d1b14eece97"
          ],
          "data": "0xffffffffffffffffffffffffffffffffffffffffffffffffffffff22cf9664000000000000000000000000000000000000000000000003c603e7ab94694d7b170000000000000000000000000000000000020119596994a2346899636f5f694900000000000000000000000000000000000000000000000014d112f64fbb100000000000000000000000000000000000000000000000000000000000000398cc0000000000000000000000000000000000000000000000000000000000000bb8",
          "blockHash": "0x1e5c6b3b54f86db7ab81a6b1ba82a076e350228b9dabfc82008162f6fcb82f32",
          "blockNumber": "0x28f1adb",
          "blockTimestamp": "0x6a319496",
          "transactionHash": "0x47bd4874da4a805f6c1521f4ebd595496ccbd36fa2dc77dfadd4ac8cb6197f84",
          "transactionIndex": "0x13",
          "logIndex": "0x56",
          "removed": false
        },
        {
          "address": "0x05e73354cfdd6745c338b50bcfdfa3aa6fa03408",
          "topics": [
            "0x1b3d7edb2e9c0b0e7c525b20aaaef0f5940d2ed71663c7d39266ecafac728859",
            "0x0000000000000000000000000000000000000000000000000000000000000000",
            "0x000000000000000000000000ab0ae552ee5933935e39393d32b4034e75fd3ff8",
            "0x0000000000000000000000000000000000000000000000000000000000000000"
          ],
          "data": "0x000000000000000000000000ab0ae552ee5933935e39393d32b4034e75fd3ff80000000000000000000000000000000000000000000000000000000ba43b7400",
          "blockHash": "0x1e5c6b3b54f86db7ab81a6b1ba82a076e350228b9dabfc82008162f6fcb82f32",
          "blockNumber": "0x28f1adb",
          "blockTimestamp": "0x6a319496",
          "transactionHash": "0x47bd4874da4a805f6c1521f4ebd595496ccbd36fa2dc77dfadd4ac8cb6197f84",
          "transactionIndex": "0x13",
          "logIndex": "0x57",
          "removed": false
        },
        {
          "address": "0xaa46dd2434de4b06da8d4f7f0ace4e152eecbba6",
          "topics": [
            "0xddf252ad1be2c89b69c2b068fc378daa952ba7f163c4a11628f55a4df523b3ef",
            "0x00000000000000000000000005e73354cfdd6745c338b50bcfdfa3aa6fa03408",
            "0x000000000000000000000000f93e7518f79c2e1978d6862dbf161270040e623e"
          ],
          "data": "0x0000000000000000000000000000000000000000000003c603e7ab94694d7b17",
          "blockHash": "0x1e5c6b3b54f86db7ab81a6b1ba82a076e350228b9dabfc82008162f6fcb82f32",
          "blockNumber": "0x28f1adb",
          "blockTimestamp": "0x6a319496",
          "transactionHash": "0x47bd4874da4a805f6c1521f4ebd595496ccbd36fa2dc77dfadd4ac8cb6197f84",
          "transactionIndex": "0x13",
          "logIndex": "0x58",
          "removed": false
        }
      ],
      "logsBloom": "0x00000000000000000000000000000000000000000000001000000000800000000000002100000000000000000000000000000000040000200000000040040000000000000010000000000008000004200000000000140020000000000800000000000000020000000000000000000800000000000000000000000090800040000000000004000000000000000000000000000000000000000000000000180000000000000000000000000000000020000000000000000000000000000000000400000002001440000000000008000000000000000000000000000000000060010000000001000000004000000800000000000000000000008000000004001000",
      "transactionHash": "0x47bd4874da4a805f6c1521f4ebd595496ccbd36fa2dc77dfadd4ac8cb6197f84",
      "transactionIndex": "0x13",
      "blockHash": "0x1e5c6b3b54f86db7ab81a6b1ba82a076e350228b9dabfc82008162f6fcb82f32",
      "blockNumber": "0x28f1adb",
      "gasUsed": "0x2e217",
      "effectiveGasPrice": "0x5b8d80",
      "blobGasUsed": "0x11f76",
      "from": "0xf93e7518f79c2e1978d6862dbf161270040e623e",
      "to": "0x00000000000044a361ae3cac094c9d1b14eece97",
      "contractAddress": null,
      "l1GasPrice": "0x3e3ed9f2",
      "l1GasUsed": "0xa5b",
      "l1Fee": "0x2263d9fc4",
      "l1BaseFeeScalar": "0x44d",
      "l1BlobBaseFee": "0x35ee32c",
      "l1BlobBaseFeeScalar": "0xa118b",
      "daFootprintGasScalar": "0x1be"
    },
    {
      "type": "0x2",
      "status": "0x1",
      "cumulativeGasUsed": "0x29526a",
      "logs": [
        {
          "address": "0x05e73354cfdd6745c338b50bcfdfa3aa6fa03408",
          "topics": [
            "0x1b3d7edb2e9c0b0e7c525b20aaaef0f5940d2ed71663c7d39266ecafac728859",
            "0x000000000000000000000000ab0ae552ee5933935e39393d32b4034e75fd3ff8",
            "0x0000000000000000000000000000000000000000000000000000000000000000",
            "0x0000000000000000000000000000000000000000000000000000000000000000"
          ],
          "data": "0x000000000000000000000000ab0ae552ee5933935e39393d32b4034e75fd3ff80000000000000000000000000000000000000000000000000000000ba43b7400",
          "blockHash": "0x1e5c6b3b54f86db7ab81a6b1ba82a076e350228b9dabfc82008162f6fcb82f32",
          "blockNumber": "0x28f1adb",
          "blockTimestamp": "0x6a319496",
          "transactionHash": "0x565b2a152fde070a09d45995de1cc58ee3e73d8060297f2cb5b2766be62f2a0d",
          "transactionIndex": "0x14",
          "logIndex": "0x59",
          "removed": false
        },
        {
          "address": "0x61564ee98d9efdc198ae6a48dfcd864c7f06a3b3",
          "topics": [
            "0x6c07ee05dcf262f13abf9d87b846ee789d2f90fe991d495acd7d7fc109ee1f55"
          ],
          "data": "0x00000000000000000000000000000000000000000000000000000009502f90000000000000000000000000000000000000000000000000000000000000093a80",
          "blockHash": "0x1e5c6b3b54f86db7ab81a6b1ba82a076e350228b9dabfc82008162f6fcb82f32",
          "blockNumber": "0x28f1adb",
          "blockTimestamp": "0x6a319496",
          "transactionHash": "0x565b2a152fde070a09d45995de1cc58ee3e73d8060297f2cb5b2766be62f2a0d",
          "transactionIndex": "0x14",
          "logIndex": "0x5a",
          "removed": false
        },
        {
          "address": "0xab0ae552ee5933935e39393d32b4034e75fd3ff8",
          "topics": [
            "0xda378dba4f1dc8c7a566c70096e0389c466cb99cc2ec74173afd50c7b652ca09"
          ],
          "data": "0x00000000000000000000000000000000000000000000000000000009502f900000000000000000000000000000000000000000000000000000000002540be400",
          "blockHash": "0x1e5c6b3b54f86db7ab81a6b1ba82a076e350228b9dabfc82008162f6fcb82f32",
          "blockNumber": "0x28f1adb",
          "blockTimestamp": "0x6a319496",
          "transactionHash": "0x565b2a152fde070a09d45995de1cc58ee3e73d8060297f2cb5b2766be62f2a0d",
          "transactionIndex": "0x14",
          "logIndex": "0x5b",
          "removed": false
        }
      ],
      "logsBloom": "0x00000000000000000000000000000000000000000000000000000000000000000000002100000000000000000000000000000000000000000000000000000000000000080000000000000000000004000000200000000000000000000000000001000000020000000000000000000800000800000000000000000080000000000000000004000000000000000000000000000000000000000000000000000000020000000000000000000000000020000000000000000000000000000008000000000000001040000001000008000000000000000000000000001100000020000000000001000000000000000000000000000000000000008000000004000000",
      "transactionHash": "0x565b2a152fde070a09d45995de1cc58ee3e73d8060297f2cb5b2766be62f2a0d",
      "transactionIndex": "0x14",
      "blockHash": "0x1e5c6b3b54f86db7ab81a6b1ba82a076e350228b9dabfc82008162f6fcb82f32",
      "blockNumber": "0x28f1adb",
      "gasUsed": "0x1ce92",
      "effectiveGasPrice": "0x5b8d80",
      "blobGasUsed": "0xae38",
      "from": "0xf93e7518f79c2e1978d6862dbf161270040e623e",
      "to": "0xab0ae552ee5933935e39393d32b4034e75fd3ff8",
      "contractAddress": null,
      "l1GasPrice": "0x3e3ed9f2",
      "l1GasUsed": "0x640",
      "l1Fee": "0x14c108b7c",
      "l1BaseFeeScalar": "0x44d",
      "l1BlobBaseFee": "0x35ee32c",
      "l1BlobBaseFeeScalar": "0xa118b",
      "daFootprintGasScalar": "0x1be"
    },
    {
      "type": "0x2",
      "status": "0x1",
      "cumulativeGasUsed": "0x2c0b44",
      "logs": [
        {
          "address": "0xab0ae552ee5933935e39393d32b4034e75fd3ff8",
          "topics": [
            "0xeb18042c63a6494302e2e34ca89562fb59d5b25ded99d617905bdd7c4f891f03",
            "0x0000000000000000000000000000000000000000000000000000000000000000",
            "0x0000000000000000000000000000000000000000000000000000000000000000"
          ],
          "data": "0x00000000000000000000000000000000000000000000000000002d79883d2000",
          "blockHash": "0x1e5c6b3b54f86db7ab81a6b1ba82a076e350228b9dabfc82008162f6fcb82f32",
          "blockNumber": "0x28f1adb",
          "blockTimestamp": "0x6a319496",
          "transactionHash": "0xf6468a98d5e8d4d748c5c555b88576fb7d55fb26bcdbf4f6018390ca4d456ea7",
          "transactionIndex": "0x15",
          "logIndex": "0x5c",
          "removed": false
        },
        {
          "address": "0x05e73354cfdd6745c338b50bcfdfa3aa6fa03408",
          "topics": [
            "0x40e9cecb9f5f1f1c5b9c97dec2917b7ee92e57ba5563708daca94dd84ad7112f",
            "0xdee57bc03bcf10854c85eff8b22a0c9619f304cf00c6ead952f5a82ec8950b9a",
            "0x00000000000000000000000000000000000044a361ae3cac094c9d1b14eece97"
          ],
          "data": "0x000000000000000000000000000000000000000000000000000000000000d66ffffffffffffffffffffffffffffffffffffffffffffffffffffc9ffae376a00000000000000000000000000000000000000201195992f651e9ba8e0b12de511700000000000000000000000000000000000000000000000014d112f64fbb100000000000000000000000000000000000000000000000000000000000000398cc0000000000000000000000000000000000000000000000000000000000000bb8",
          "blockHash": "0x1e5c6b3b54f86db7ab81a6b1ba82a076e350228b9dabfc82008162f6fcb82f32",
          "blockNumber": "0x28f1adb",
          "blockTimestamp": "0x6a319496",
          "transactionHash": "0xf6468a98d5e8d4d748c5c555b88576fb7d55fb26bcdbf4f6018390ca4d456ea7",
          "transactionIndex": "0x15",
          "logIndex": "0x5d",
          "removed": false
        },
        {
          "address": "0x05e73354cfdd6745c338b50bcfdfa3aa6fa03408",
          "topics": [
            "0x1b3d7edb2e9c0b0e7c525b20aaaef0f5940d2ed71663c7d39266ecafac728859",
            "0x0000000000000000000000000000000000000000000000000000000000000000",
            "0x000000000000000000000000ab0ae552ee5933935e39393d32b4034e75fd3ff8",
            "0x000000000000000000000000aa46dd2434de4b06da8d4f7f0ace4e152eecbba6"
          ],
          "data": "0x000000000000000000000000ab0ae552ee5933935e39393d32b4034e75fd3ff800000000000000000000000000000000000000000000000000002d79883d2000",
          "blockHash": "0x1e5c6b3b54f86db7ab81a6b1ba82a076e350228b9dabfc82008162f6fcb82f32",
          "blockNumber": "0x28f1adb",
          "blockTimestamp": "0x6a319496",
          "transactionHash": "0xf6468a98d5e8d4d748c5c555b88576fb7d55fb26bcdbf4f6018390ca4d456ea7",
          "transactionIndex": "0x15",
          "logIndex": "0x5e",
          "removed": false
        },
        {
          "address": "0xaa46dd2434de4b06da8d4f7f0ace4e152eecbba6",
          "topics": [
            "0xddf252ad1be2c89b69c2b068fc378daa952ba7f163c4a11628f55a4df523b3ef",
            "0x000000000000000000000000f93e7518f79c2e1978d6862dbf161270040e623e",
            "0x00000000000000000000000005e73354cfdd6745c338b50bcfdfa3aa6fa03408"
          ],
          "data": "0x00000000000000000000000000000000000000000000000000038d7ea4c68000",
          "blockHash": "0x1e5c6b3b54f86db7ab81a6b1ba82a076e350228b9dabfc82008162f6fcb82f32",
          "blockNumber": "0x28f1adb",
          "blockTimestamp": "0x6a319496",
          "transactionHash": "0xf6468a98d5e8d4d748c5c555b88576fb7d55fb26bcdbf4f6018390ca4d456ea7",
          "transactionIndex": "0x15",
          "logIndex": "0x5f",
          "removed": false
        }
      ],
      "logsBloom": "0x00000000000000000000000000000000000000000000001000000000800000000000002100000000000000000000000000000000040000200000000040400000000000000010000000000008000004200000000000140020000000000800000000000000020000000000000800000800000000000000000000000090800040000000000004000000000000000000000000000000000000000000000000180000000000000000000000000000000020000000000000000000000000000000000400000002001440000000000008000000000000000000000000000000000020010000000001000000004000000800000000000000000000008000000004001000",
      "transactionHash": "0xf6468a98d5e8d4d748c5c555b88576fb7d55fb26bcdbf4f6018390ca4d456ea7",
      "transactionIndex": "0x15",
      "blockHash": "0x1e5c6b3b54f86db7ab81a6b1ba82a076e350228b9dabfc82008162f6fcb82f32",
      "blockNumber": "0x28f1adb",
      "gasUsed": "0x2b8da",
      "effectiveGasPrice": "0x5b8d80",
      "blobGasUsed": "0x11db8",
      "from": "0xf93e7518f79c2e1978d6862dbf161270040e623e",
      "to": "0x00000000000044a361ae3cac094c9d1b14eece97",
      "contractAddress": null,
      "l1GasPrice": "0x3e3ed9f2",
      "l1GasUsed": "0xa40",
      "l1Fee": "0x220af6e5e",
      "l1BaseFeeScalar": "0x44d",
      "l1BlobBaseFee": "0x35ee32c",
      "l1BlobBaseFeeScalar": "0xa118b",
      "daFootprintGasScalar": "0x1be"
    },
    {
      "type": "0x2",
      "status": "0x1",
      "cumulativeGasUsed": "0x2d9a36",
      "logs": [
        {
          "address": "0x05e73354cfdd6745c338b50bcfdfa3aa6fa03408",
          "topics": [
            "0x1b3d7edb2e9c0b0e7c525b20aaaef0f5940d2ed71663c7d39266ecafac728859",
            "0x000000000000000000000000ab0ae552ee5933935e39393d32b4034e75fd3ff8",
            "0x0000000000000000000000000000000000000000000000000000000000000000",
            "0x000000000000000000000000aa46dd2434de4b06da8d4f7f0ace4e152eecbba6"
          ],
          "data": "0x000000000000000000000000ab0ae552ee5933935e39393d32b4034e75fd3ff800000000000000000000000000000000000000000000000000002d79883d2000",
          "blockHash": "0x1e5c6b3b54f86db7ab81a6b1ba82a076e350228b9dabfc82008162f6fcb82f32",
          "blockNumber": "0x28f1adb",
          "blockTimestamp": "0x6a319496",
          "transactionHash": "0x484c193904f1eba868628986de39d208eb0237ab94291a839e50e2034b602d91",
          "transactionIndex": "0x16",
          "logIndex": "0x60",
          "removed": false
        },
        {
          "address": "0xaa46dd2434de4b06da8d4f7f0ace4e152eecbba6",
          "topics": [
            "0xddf252ad1be2c89b69c2b068fc378daa952ba7f163c4a11628f55a4df523b3ef",
            "0x00000000000000000000000005e73354cfdd6745c338b50bcfdfa3aa6fa03408",
            "0x000000000000000000000000ab0ae552ee5933935e39393d32b4034e75fd3ff8"
          ],
          "data": "0x00000000000000000000000000000000000000000000000000002d79883d2000",
          "blockHash": "0x1e5c6b3b54f86db7ab81a6b1ba82a076e350228b9dabfc82008162f6fcb82f32",
          "blockNumber": "0x28f1adb",
          "blockTimestamp": "0x6a319496",
          "transactionHash": "0x484c193904f1eba868628986de39d208eb0237ab94291a839e50e2034b602d91",
          "transactionIndex": "0x16",
          "logIndex": "0x61",
          "removed": false
        },
        {
          "address": "0xaa46dd2434de4b06da8d4f7f0ace4e152eecbba6",
          "topics": [
            "0xddf252ad1be2c89b69c2b068fc378daa952ba7f163c4a11628f55a4df523b3ef",
            "0x000000000000000000000000ab0ae552ee5933935e39393d32b4034e75fd3ff8",
            "0x0000000000000000000000000000000000000000000000000000000000000000"
          ],
          "data": "0x00000000000000000000000000000000000000000000000000002d79883d2000",
          "blockHash": "0x1e5c6b3b54f86db7ab81a6b1ba82a076e350228b9dabfc82008162f6fcb82f32",
          "blockNumber": "0x28f1adb",
          "blockTimestamp": "0x6a319496",
          "transactionHash": "0x484c193904f1eba868628986de39d208eb0237ab94291a839e50e2034b602d91",
          "transactionIndex": "0x16",
          "logIndex": "0x62",
          "removed": false
        },
        {
          "address": "0xab0ae552ee5933935e39393d32b4034e75fd3ff8",
          "topics": [
            "0x6062168399e4fe8eaa1a9b7d0dcf3041cd29463a04b771c059c5a7328f753634"
          ],
          "data": "0x00000000000000000000000000000000000000000000000000002d79883d2000",
          "blockHash": "0x1e5c6b3b54f86db7ab81a6b1ba82a076e350228b9dabfc82008162f6fcb82f32",
          "blockNumber": "0x28f1adb",
          "blockTimestamp": "0x6a319496",
          "transactionHash": "0x484c193904f1eba868628986de39d208eb0237ab94291a839e50e2034b602d91",
          "transactionIndex": "0x16",
          "logIndex": "0x63",
          "removed": false
        }
      ],
      "logsBloom": "0x00000000000000000000000000000000000000000000000000000000000000000000082100000000000000000000000000000000000000000000000000400000000000000010000000000008000004000000000000140000000000000000000000000000020000000000000800000800000000000000000000000090800000000000000004004000000000000000000000000000000000000000000000000000000000000000000000000000000020000000000000000000000000000000000400000002009040000000000008000000000000000000000000000000000020000000000001000000004000000800000000000000000000008000000004000000",
      "transactionHash": "0x484c193904f1eba868628986de39d208eb0237ab94291a839e50e2034b602d91",
      "transactionIndex": "0x16",
      "blockHash": "0x1e5c6b3b54f86db7ab81a6b1ba82a076e350228b9dabfc82008162f6fcb82f32",
      "blockNumber": "0x28f1adb",
      "gasUsed": "0x18ef2",
      "effectiveGasPrice": "0x5b8d80",
      "blobGasUsed": "0xae38",
      "from": "0xf93e7518f79c2e1978d6862dbf161270040e623e",
      "to": "0xab0ae552ee5933935e39393d32b4034e75fd3ff8",
      "contractAddress": null,
      "l1GasPrice": "0x3e3ed9f2",
      "l1GasUsed": "0x640",
      "l1Fee": "0x14c108b7c",
      "l1BaseFeeScalar": "0x44d",
      "l1BlobBaseFee": "0x35ee32c",
      "l1BlobBaseFeeScalar": "0xa118b",
      "daFootprintGasScalar": "0x1be"
    },
    {
      "type": "0x2",
      "status": "0x1",
      "cumulativeGasUsed": "0x2f72b5",
      "logs": [
        {
          "address": "0xaa46dd2434de4b06da8d4f7f0ace4e152eecbba6",
          "topics": [
            "0x9e71bc8eea02a63969f509818f2dafb9254532904319f9dbda79b67bd34a5f3d",
            "0x000000000000000000000000f93e7518f79c2e1978d6862dbf161270040e623e"
          ],
          "data": "0x0000000000000000000000000000000000000000000000056bc75e2d63100000",
          "blockHash": "0x1e5c6b3b54f86db7ab81a6b1ba82a076e350228b9dabfc82008162f6fcb82f32",
          "blockNumber": "0x28f1adb",
          "blockTimestamp": "0x6a319496",
          "transactionHash": "0x4b093cd896ec6b85d435f25907b7c41df6b05e75b58379a09cc1e861d2c79ceb",
          "transactionIndex": "0x17",
          "logIndex": "0x64",
          "removed": false
        },
        {
          "address": "0x61564ee98d9efdc198ae6a48dfcd864c7f06a3b3",
          "topics": [
            "0x1449c6dd7851abc30abf37f57715f492010519147cc2652fbc38202c18a6ee90",
            "0x000000000000000000000000f93e7518f79c2e1978d6862dbf161270040e623e"
          ],
          "data": "0x0000000000000000000000000000000000000000000000056bc75e2d631000000000000000000000000000000000000000000000000000138400eca364a00000",
          "blockHash": "0x1e5c6b3b54f86db7ab81a6b1ba82a076e350228b9dabfc82008162f6fcb82f32",
          "blockNumber": "0x28f1adb",
          "blockTimestamp": "0x6a319496",
          "transactionHash": "0x4b093cd896ec6b85d435f25907b7c41df6b05e75b58379a09cc1e861d2c79ceb",
          "transactionIndex": "0x17",
          "logIndex": "0x65",
          "removed": false
        }
      ],
      "logsBloom": "0x00000000000000000000000000000000000000000800000000100000800200000000000000000000000000000000000000000000000000200000000000000000000000080000000000000000000000000000000000000000000000000000000040000000000000000008000000000000000000000000000000000000800000000000100000000000000000000000000000000000000000000000000000100000020000000000000000000000000000000000000000000000000000000000000400000000000000000000000000000000000000000000000000001000000000000000000000000000004000000000000000000000000000000000000000000000",
      "transactionHash": "0x4b093cd896ec6b85d435f25907b7c41df6b05e75b58379a09cc1e861d2c79ceb",
      "transactionIndex": "0x17",
      "blockHash": "0x1e5c6b3b54f86db7ab81a6b1ba82a076e350228b9dabfc82008162f6fcb82f32",
      "blockNumber": "0x28f1adb",
      "gasUsed": "0x1d87f",
      "effectiveGasPrice": "0x5b8d80",
      "blobGasUsed": "0xae38",
      "from": "0xf93e7518f79c2e1978d6862dbf161270040e623e",
      "to": "0x61564ee98d9efdc198ae6a48dfcd864c7f06a3b3",
      "contractAddress": null,
      "l1GasPrice": "0x3e3ed9f2",
      "l1GasUsed": "0x640",
      "l1Fee": "0x14c108b7c",
      "l1BaseFeeScalar": "0x44d",
      "l1BlobBaseFee": "0x35ee32c",
      "l1BlobBaseFeeScalar": "0xa118b",
      "daFootprintGasScalar": "0x1be"
    },
    {
      "type": "0x2",
      "status": "0x1",
      "cumulativeGasUsed": "0x32583d",
      "logs": [
        {
          "address": "0xab0ae552ee5933935e39393d32b4034e75fd3ff8",
          "topics": [
            "0xeb18042c63a6494302e2e34ca89562fb59d5b25ded99d617905bdd7c4f891f03",
            "0x0000000000000000000000000000000000000000000000000000000000000001",
            "0x0000000000000000000000000000000000000000000000000000000000000001"
          ],
          "data": "0x0000000000000000000000000000000000000000000000000000000ba43b7400",
          "blockHash": "0x1e5c6b3b54f86db7ab81a6b1ba82a076e350228b9dabfc82008162f6fcb82f32",
          "blockNumber": "0x28f1adb",
          "blockTimestamp": "0x6a319496",
          "transactionHash": "0x3baf1071c975ee824d4b8b115c6d1b52f3c8218c17b703b351b45d6da06037f1",
          "transactionIndex": "0x18",
          "logIndex": "0x66",
          "removed": false
        },
        {
          "address": "0x05e73354cfdd6745c338b50bcfdfa3aa6fa03408",
          "topics": [
            "0x40e9cecb9f5f1f1c5b9c97dec2917b7ee92e57ba5563708daca94dd84ad7112f",
            "0xdee57bc03bcf10854c85eff8b22a0c9619f304cf00c6ead952f5a82ec8950b9a",
            "0x00000000000000000000000000000000000044a361ae3cac094c9d1b14eece97"
          ],
          "data": "0xffffffffffffffffffffffffffffffffffffffffffffffffffffff22cf9664000000000000000000000000000000000000000000000003320b3e2a493afd089b000000000000000000000000000000000001d9cd312c598590783554a28bab7e00000000000000000000000000000000000000000000000014d112f64fbb100000000000000000000000000000000000000000000000000000000000000392930000000000000000000000000000000000000000000000000000000000000bb8",
          "blockHash": "0x1e5c6b3b54f86db7ab81a6b1ba82a076e350228b9dabfc82008162f6fcb82f32",
          "blockNumber": "0x28f1adb",
          "blockTimestamp": "0x6a319496",
          "transactionHash": "0x3baf1071c975ee824d4b8b115c6d1b52f3c8218c17b703b351b45d6da06037f1",
          "transactionIndex": "0x18",
          "logIndex": "0x67",
          "removed": false
        },
        {
          "address": "0x05e73354cfdd6745c338b50bcfdfa3aa6fa03408",
          "topics": [
            "0x1b3d7edb2e9c0b0e7c525b20aaaef0f5940d2ed71663c7d39266ecafac728859",
            "0x0000000000000000000000000000000000000000000000000000000000000000",
            "0x000000000000000000000000ab0ae552ee5933935e39393d32b4034e75fd3ff8",
            "0x0000000000000000000000000000000000000000000000000000000000000000"
          ],
          "data": "0x000000000000000000000000ab0ae552ee5933935e39393d32b4034e75fd3ff80000000000000000000000000000000000000000000000000000000ba43b7400",
          "blockHash": "0x1e5c6b3b54f86db7ab81a6b1ba82a076e350228b9dabfc82008162f6fcb82f32",
          "blockNumber": "0x28f1adb",
          "blockTimestamp": "0x6a319496",
          "transactionHash": "0x3baf1071c975ee824d4b8b115c6d1b52f3c8218c17b703b351b45d6da06037f1",
          "transactionIndex": "0x18",
          "logIndex": "0x68",
          "removed": false
        },
        {
          "address": "0xaa46dd2434de4b06da8d4f7f0ace4e152eecbba6",
          "topics": [
            "0xddf252ad1be2c89b69c2b068fc378daa952ba7f163c4a11628f55a4df523b3ef",
            "0x00000000000000000000000005e73354cfdd6745c338b50bcfdfa3aa6fa03408",
            "0x000000000000000000000000f93e7518f79c2e1978d6862dbf161270040e623e"
          ],
          "data": "0x0000000000000000000000000000000000000000000003320b3e2a493afd089b",
          "blockHash": "0x1e5c6b3b54f86db7ab81a6b1ba82a076e350228b9dabfc82008162f6fcb82f32",
          "blockNumber": "0x28f1adb",
          "blockTimestamp": "0x6a319496",
          "transactionHash": "0x3baf1071c975ee824d4b8b115c6d1b52f3c8218c17b703b351b45d6da06037f1",
          "transactionIndex": "0x18",
          "logIndex": "0x69",
          "removed": false
        }
      ],
      "logsBloom": "0x00000000000000000000000000000000000000000000001000000000800000000000002100000000000000000000000000000000040000200000000040040000000000000010000000000008000004200000000000140020000000000800000000000000020000000000000000000800000000000000000000000090800040000000000004000000000000000000000000000000000000000000000000180000000000000000000000000000000020000000000000000000000000000000000400000002001440000000000008000000000000000000000000000000000060010000000001000000004000000800000000000000000000008000000004001000",
      "transactionHash": "0x3baf1071c975ee824d4b8b115c6d1b52f3c8218c17b703b351b45d6da06037f1",
      "transactionIndex": "0x18",
      "blockHash": "0x1e5c6b3b54f86db7ab81a6b1ba82a076e350228b9dabfc82008162f6fcb82f32",
      "blockNumber": "0x28f1adb",
      "gasUsed": "0x2e588",
      "effectiveGasPrice": "0x5b8d80",
      "blobGasUsed": "0x11f76",
      "from": "0xf93e7518f79c2e1978d6862dbf161270040e623e",
      "to": "0x00000000000044a361ae3cac094c9d1b14eece97",
      "contractAddress": null,
      "l1GasPrice": "0x3e3ed9f2",
      "l1GasUsed": "0xa5b",
      "l1Fee": "0x2263d9fc4",
      "l1BaseFeeScalar": "0x44d",
      "l1BlobBaseFee": "0x35ee32c",
      "l1BlobBaseFeeScalar": "0xa118b",
      "daFootprintGasScalar": "0x1be"
    },
    {
      "type": "0x2",
      "status": "0x1",
      "cumulativeGasUsed": "0x3405ff",
      "logs": [
        {
          "address": "0x05e73354cfdd6745c338b50bcfdfa3aa6fa03408",
          "topics": [
            "0x1b3d7edb2e9c0b0e7c525b20aaaef0f5940d2ed71663c7d39266ecafac728859",
            "0x000000000000000000000000ab0ae552ee5933935e39393d32b4034e75fd3ff8",
            "0x0000000000000000000000000000000000000000000000000000000000000000",
            "0x0000000000000000000000000000000000000000000000000000000000000000"
          ],
          "data": "0x000000000000000000000000ab0ae552ee5933935e39393d32b4034e75fd3ff80000000000000000000000000000000000000000000000000000000ba43b7400",
          "blockHash": "0x1e5c6b3b54f86db7ab81a6b1ba82a076e350228b9dabfc82008162f6fcb82f32",
          "blockNumber": "0x28f1adb",
          "blockTimestamp": "0x6a319496",
          "transactionHash": "0x8d9bfd6a92c323ac5837799e3606701a79e1b5f3acc176e925ad48e7a4386019",
          "transactionIndex": "0x19",
          "logIndex": "0x6a",
          "removed": false
        },
        {
          "address": "0x61564ee98d9efdc198ae6a48dfcd864c7f06a3b3",
          "topics": [
            "0x6c07ee05dcf262f13abf9d87b846ee789d2f90fe991d495acd7d7fc109ee1f55"
          ],
          "data": "0x00000000000000000000000000000000000000000000000000000009502f90000000000000000000000000000000000000000000000000000000000000093a80",
          "blockHash": "0x1e5c6b3b54f86db7ab81a6b1ba82a076e350228b9dabfc82008162f6fcb82f32",
          "blockNumber": "0x28f1adb",
          "blockTimestamp": "0x6a319496",
          "transactionHash": "0x8d9bfd6a92c323ac5837799e3606701a79e1b5f3acc176e925ad48e7a4386019",
          "transactionIndex": "0x19",
          "logIndex": "0x6b",
          "removed": false
        },
        {
          "address": "0xab0ae552ee5933935e39393d32b4034e75fd3ff8",
          "topics": [
            "0xda378dba4f1dc8c7a566c70096e0389c466cb99cc2ec74173afd50c7b652ca09"
          ],
          "data": "0x00000000000000000000000000000000000000000000000000000009502f900000000000000000000000000000000000000000000000000000000002540be400",
          "blockHash": "0x1e5c6b3b54f86db7ab81a6b1ba82a076e350228b9dabfc82008162f6fcb82f32",
          "blockNumber": "0x28f1adb",
          "blockTimestamp": "0x6a319496",
          "transactionHash": "0x8d9bfd6a92c323ac5837799e3606701a79e1b5f3acc176e925ad48e7a4386019",
          "transactionIndex": "0x19",
          "logIndex": "0x6c",
          "removed": false
        }
      ],
      "logsBloom": "0x00000000000000000000000000000000000000000000000000000000000000000000002100000000000000000000000000000000000000000000000000000000000000080000000000000000000004000000200000000000000000000000000001000000020000000000000000000800000800000000000000000080000000000000000004000000000000000000000000000000000000000000000000000000020000000000000000000000000020000000000000000000000000000008000000000000001040000001000008000000000000000000000000001100000020000000000001000000000000000000000000000000000000008000000004000000",
      "transactionHash": "0x8d9bfd6a92c323ac5837799e3606701a79e1b5f3acc176e925ad48e7a4386019",
      "transactionIndex": "0x19",
      "blockHash": "0x1e5c6b3b54f86db7ab81a6b1ba82a076e350228b9dabfc82008162f6fcb82f32",
      "blockNumber": "0x28f1adb",
      "gasUsed": "0x1adc2",
      "effectiveGasPrice": "0x5b8d80",
      "blobGasUsed": "0xae38",
      "from": "0xf93e7518f79c2e1978d6862dbf161270040e623e",
      "to": "0xab0ae552ee5933935e39393d32b4034e75fd3ff8",
      "contractAddress": null,
      "l1GasPrice": "0x3e3ed9f2",
      "l1GasUsed": "0x640",
      "l1Fee": "0x14c108b7c",
      "l1BaseFeeScalar": "0x44d",
      "l1BlobBaseFee": "0x35ee32c",
      "l1BlobBaseFeeScalar": "0xa118b",
      "daFootprintGasScalar": "0x1be"
    },
    {
      "type": "0x2",
      "status": "0x1",
      "cumulativeGasUsed": "0x34ca1e",
      "logs": [
        {
          "address": "0x61564ee98d9efdc198ae6a48dfcd864c7f06a3b3",
          "topics": [
            "0xe2403640ba68fed3a2f88b7557551d1993f84b99bb10ff833f0cf8db0c5e0486",
            "0x000000000000000000000000f93e7518f79c2e1978d6862dbf161270040e623e"
          ],
          "data": "0x0000000000000000000000000000000000000000000000000000000014665170",
          "blockHash": "0x1e5c6b3b54f86db7ab81a6b1ba82a076e350228b9dabfc82008162f6fcb82f32",
          "blockNumber": "0x28f1adb",
          "blockTimestamp": "0x6a319496",
          "transactionHash": "0x18c93e57bc85dd96bead70668a4a355622e8dd19e4c0f3d975db0b33f71ae269",
          "transactionIndex": "0x1a",
          "logIndex": "0x6d",
          "removed": false
        }
      ],
      "logsBloom": "0x00000000000000000000000000000000000000008000000000000000800000000000000000000000000000000000000000000000000000200000000000000000000000080000000000000000000000000000000000000000000000000000000000000000000000000000000000000000000000000000000000000000000000000000000100000000000000000800000000000000000000000000000000100000020000000000000000000000000000000000000000000000000000000000000000000000000000000000000000000000000000000000000000001000000000000000000000000000000000000000000000000000000000000000000000000000",
      "transactionHash": "0x18c93e57bc85dd96bead70668a4a355622e8dd19e4c0f3d975db0b33f71ae269",
      "transactionIndex": "0x1a",
      "blockHash": "0x1e5c6b3b54f86db7ab81a6b1ba82a076e350228b9dabfc82008162f6fcb82f32",
      "blockNumber": "0x28f1adb",
      "gasUsed": "0xc41f",
      "effectiveGasPrice": "0x5b8d80",
      "blobGasUsed": "0xae38",
      "from": "0xf93e7518f79c2e1978d6862dbf161270040e623e",
      "to": "0x61564ee98d9efdc198ae6a48dfcd864c7f06a3b3",
      "contractAddress": null,
      "l1GasPrice": "0x3e3ed9f2",
      "l1GasUsed": "0x640",
      "l1Fee": "0x14c108b7c",
      "l1BaseFeeScalar": "0x44d",
      "l1BlobBaseFee": "0x35ee32c",
      "l1BlobBaseFeeScalar": "0xa118b",
      "daFootprintGasScalar": "0x1be"
    },
    {
      "type": "0x2",
      "status": "0x1",
      "cumulativeGasUsed": "0x37dec8",
      "logs": [
        {
          "address": "0xaa46dd2434de4b06da8d4f7f0ace4e152eecbba6",
          "topics": [
            "0xddf252ad1be2c89b69c2b068fc378daa952ba7f163c4a11628f55a4df523b3ef",
            "0x000000000000000000000000f93e7518f79c2e1978d6862dbf161270040e623e",
            "0x0000000000000000000000000000000000000000000000000000000000000000"
          ],
          "data": "0x00000000000000000000000000000000000000000000021e19e0c9bab2400000",
          "blockHash": "0x1e5c6b3b54f86db7ab81a6b1ba82a076e350228b9dabfc82008162f6fcb82f32",
          "blockNumber": "0x28f1adb",
          "blockTimestamp": "0x6a319496",
          "transactionHash": "0x28bb521aab8174aa735927945337a1ba6639a8fdfe66b7fe0e5d3dd081909d76",
          "transactionIndex": "0x1b",
          "logIndex": "0x6e",
          "removed": false
        },
        {
          "address": "0xb14fe355e67a2c6f08a8b0291aa188b62718264a",
          "topics": [
            "0xddf252ad1be2c89b69c2b068fc378daa952ba7f163c4a11628f55a4df523b3ef",
            "0x0000000000000000000000000000000000000000000000000000000000000000",
            "0x000000000000000000000000f93e7518f79c2e1978d6862dbf161270040e623e",
            "0x0000000000000000000000000000000000000000000000000000000000000001"
          ],
          "data": "0x",
          "blockHash": "0x1e5c6b3b54f86db7ab81a6b1ba82a076e350228b9dabfc82008162f6fcb82f32",
          "blockNumber": "0x28f1adb",
          "blockTimestamp": "0x6a319496",
          "transactionHash": "0x28bb521aab8174aa735927945337a1ba6639a8fdfe66b7fe0e5d3dd081909d76",
          "transactionIndex": "0x1b",
          "logIndex": "0x6f",
          "removed": false
        },
        {
          "address": "0xb14fe355e67a2c6f08a8b0291aa188b62718264a",
          "topics": [
            "0xb777c4047eece94c0532443cd79bae696825d7bcc0de9d0acffe551bb875c3ec",
            "0x000000000000000000000000f93e7518f79c2e1978d6862dbf161270040e623e",
            "0x0000000000000000000000000000000000000000000000000000000000000001"
          ],
          "data": "0x000000000000000000000000000000000000000000000000000000000000000000000000000000000000000000000000000000000000022385a827e815500000",
          "blockHash": "0x1e5c6b3b54f86db7ab81a6b1ba82a076e350228b9dabfc82008162f6fcb82f32",
          "blockNumber": "0x28f1adb",
          "blockTimestamp": "0x6a319496",
          "transactionHash": "0x28bb521aab8174aa735927945337a1ba6639a8fdfe66b7fe0e5d3dd081909d76",
          "transactionIndex": "0x1b",
          "logIndex": "0x70",
          "removed": false
        }
      ],
      "logsBloom": "0x00000000000000000000000000000000000000000000000000000000800000000000000000000000000000000080000000000000000000200000000000040000000000000000000000000008000000000000000000040000000000000000000000000000020000000000000000000800000200000000000000000010800000000000000000000000000000000000000000000000000000000000000000100000000000000000000000000000000000020000800000000000000000000000000400000002000000000000000000000000000000000000000000000000000060000000000000000000004000000000000000200000000000000000100000000000",
      "transactionHash": "0x28bb521aab8174aa735927945337a1ba6639a8fdfe66b7fe0e5d3dd081909d76",
      "transactionIndex": "0x1b",
      "blockHash": "0x1e5c6b3b54f86db7ab81a6b1ba82a076e350228b9dabfc82008162f6fcb82f32",
      "blockNumber": "0x28f1adb",
      "gasUsed": "0x314aa",
      "effectiveGasPrice": "0x5b8d80",
      "blobGasUsed": "0xae38",
      "from": "0xf93e7518f79c2e1978d6862dbf161270040e623e",
      "to": "0xaa46dd2434de4b06da8d4f7f0ace4e152eecbba6",
      "contractAddress": null,
      "l1GasPrice": "0x3e3ed9f2",
      "l1GasUsed": "0x640",
      "l1Fee": "0x14c108b7c",
      "l1BaseFeeScalar": "0x44d",
      "l1BlobBaseFee": "0x35ee32c",
      "l1BlobBaseFeeScalar": "0xa118b",
      "daFootprintGasScalar": "0x1be"
    },
    {
      "type": "0x2",
      "status": "0x1",
      "cumulativeGasUsed": "0x3a9b13",
      "logs": [
        {
          "address": "0xab0ae552ee5933935e39393d32b4034e75fd3ff8",
          "topics": [
            "0xeb18042c63a6494302e2e34ca89562fb59d5b25ded99d617905bdd7c4f891f03",
            "0x0000000000000000000000000000000000000000000000000000000000000000",
            "0x0000000000000000000000000000000000000000000000000000000000000000"
          ],
          "data": "0x00000000000000000000000000000000000000000000000000002d79883d2000",
          "blockHash": "0x1e5c6b3b54f86db7ab81a6b1ba82a076e350228b9dabfc82008162f6fcb82f32",
          "blockNumber": "0x28f1adb",
          "blockTimestamp": "0x6a319496",
          "transactionHash": "0x75d500a26d31129b8bf0f1e8ba9194685e63d182d855994e6e5e6c37978cf59d",
          "transactionIndex": "0x1c",
          "logIndex": "0x71",
          "removed": false
        },
        {
          "address": "0x05e73354cfdd6745c338b50bcfdfa3aa6fa03408",
          "topics": [
            "0x40e9cecb9f5f1f1c5b9c97dec2917b7ee92e57ba5563708daca94dd84ad7112f",
            "0xdee57bc03bcf10854c85eff8b22a0c9619f304cf00c6ead952f5a82ec8950b9a",
            "0x00000000000000000000000000000000000044a361ae3cac094c9d1b14eece97"
          ],
          "data": "0x000000000000000000000000000000000000000000000000000000000000fb7bfffffffffffffffffffffffffffffffffffffffffffffffffffc9ffae376a000000000000000000000000000000000000001d9cd3155bb3545ca29fc460a934c00000000000000000000000000000000000000000000000014d112f64fbb100000000000000000000000000000000000000000000000000000000000000392930000000000000000000000000000000000000000000000000000000000000bb8",
          "blockHash": "0x1e5c6b3b54f86db7ab81a6b1ba82a076e350228b9dabfc82008162f6fcb82f32",
          "blockNumber": "0x28f1adb",
          "blockTimestamp": "0x6a319496",
          "transactionHash": "0x75d500a26d31129b8bf0f1e8ba9194685e63d182d855994e6e5e6c37978cf59d",
          "transactionIndex": "0x1c",
          "logIndex": "0x72",
          "removed": false
        },
        {
          "address": "0x05e73354cfdd6745c338b50bcfdfa3aa6fa03408",
          "topics": [
            "0x1b3d7edb2e9c0b0e7c525b20aaaef0f5940d2ed71663c7d39266ecafac728859",
            "0x0000000000000000000000000000000000000000000000000000000000000000",
            "0x000000000000000000000000ab0ae552ee5933935e39393d32b4034e75fd3ff8",
            "0x000000000000000000000000aa46dd2434de4b06da8d4f7f0ace4e152eecbba6"
          ],
          "data": "0x000000000000000000000000ab0ae552ee5933935e39393d32b4034e75fd3ff800000000000000000000000000000000000000000000000000002d79883d2000",
          "blockHash": "0x1e5c6b3b54f86db7ab81a6b1ba82a076e350228b9dabfc82008162f6fcb82f32",
          "blockNumber": "0x28f1adb",
          "blockTimestamp": "0x6a319496",
          "transactionHash": "0x75d500a26d31129b8bf0f1e8ba9194685e63d182d855994e6e5e6c37978cf59d",
          "transactionIndex": "0x1c",
          "logIndex": "0x73",
          "removed": false
        },
        {
          "address": "0xaa46dd2434de4b06da8d4f7f0ace4e152eecbba6",
          "topics": [
            "0xddf252ad1be2c89b69c2b068fc378daa952ba7f163c4a11628f55a4df523b3ef",
            "0x000000000000000000000000f93e7518f79c2e1978d6862dbf161270040e623e",
            "0x00000000000000000000000005e73354cfdd6745c338b50bcfdfa3aa6fa03408"
          ],
          "data": "0x00000000000000000000000000000000000000000000000000038d7ea4c68000",
          "blockHash": "0x1e5c6b3b54f86db7ab81a6b1ba82a076e350228b9dabfc82008162f6fcb82f32",
          "blockNumber": "0x28f1adb",
          "blockTimestamp": "0x6a319496",
          "transactionHash": "0x75d500a26d31129b8bf0f1e8ba9194685e63d182d855994e6e5e6c37978cf59d",
          "transactionIndex": "0x1c",
          "logIndex": "0x74",
          "removed": false
        }
      ],
      "logsBloom": "0x00000000000000000000000000000000000000000000001000000000800000000000002100000000000000000000000000000000040000200000000040400000000000000010000000000008000004200000000000140020000000000800000000000000020000000000000800000800000000000000000000000090800040000000000004000000000000000000000000000000000000000000000000180000000000000000000000000000000020000000000000000000000000000000000400000002001440000000000008000000000000000000000000000000000020010000000001000000004000000800000000000000000000008000000004001000",
      "transactionHash": "0x75d500a26d31129b8bf0f1e8ba9194685e63d182d855994e6e5e6c37978cf59d",
      "transactionIndex": "0x1c",
      "blockHash": "0x1e5c6b3b54f86db7ab81a6b1ba82a076e350228b9dabfc82008162f6fcb82f32",
      "blockNumber": "0x28f1adb",
      "gasUsed": "0x2bc4b",
      "effectiveGasPrice": "0x5b8d80",
      "blobGasUsed": "0x11db8",
      "from": "0xf93e7518f79c2e1978d6862dbf161270040e623e",
      "to": "0x00000000000044a361ae3cac094c9d1b14eece97",
      "contractAddress": null,
      "l1GasPrice": "0x3e3ed9f2",
      "l1GasUsed": "0xa40",
      "l1Fee": "0x220af6e5e",
      "l1BaseFeeScalar": "0x44d",
      "l1BlobBaseFee": "0x35ee32c",
      "l1BlobBaseFeeScalar": "0xa118b",
      "daFootprintGasScalar": "0x1be"
    },
    {
      "type": "0x2",
      "status": "0x1",
      "cumulativeGasUsed": "0x3c2a05",
      "logs": [
        {
          "address": "0x05e73354cfdd6745c338b50bcfdfa3aa6fa03408",
          "topics": [
            "0x1b3d7edb2e9c0b0e7c525b20aaaef0f5940d2ed71663c7d39266ecafac728859",
            "0x000000000000000000000000ab0ae552ee5933935e39393d32b4034e75fd3ff8",
            "0x0000000000000000000000000000000000000000000000000000000000000000",
            "0x000000000000000000000000aa46dd2434de4b06da8d4f7f0ace4e152eecbba6"
          ],
          "data": "0x000000000000000000000000ab0ae552ee5933935e39393d32b4034e75fd3ff800000000000000000000000000000000000000000000000000002d79883d2000",
          "blockHash": "0x1e5c6b3b54f86db7ab81a6b1ba82a076e350228b9dabfc82008162f6fcb82f32",
          "blockNumber": "0x28f1adb",
          "blockTimestamp": "0x6a319496",
          "transactionHash": "0xd0c8ee85b72960710507014753def8e7fea482f0d27fbd2889435b7983191bb5",
          "transactionIndex": "0x1d",
          "logIndex": "0x75",
          "removed": false
        },
        {
          "address": "0xaa46dd2434de4b06da8d4f7f0ace4e152eecbba6",
          "topics": [
            "0xddf252ad1be2c89b69c2b068fc378daa952ba7f163c4a11628f55a4df523b3ef",
            "0x00000000000000000000000005e73354cfdd6745c338b50bcfdfa3aa6fa03408",
            "0x000000000000000000000000ab0ae552ee5933935e39393d32b4034e75fd3ff8"
          ],
          "data": "0x00000000000000000000000000000000000000000000000000002d79883d2000",
          "blockHash": "0x1e5c6b3b54f86db7ab81a6b1ba82a076e350228b9dabfc82008162f6fcb82f32",
          "blockNumber": "0x28f1adb",
          "blockTimestamp": "0x6a319496",
          "transactionHash": "0xd0c8ee85b72960710507014753def8e7fea482f0d27fbd2889435b7983191bb5",
          "transactionIndex": "0x1d",
          "logIndex": "0x76",
          "removed": false
        },
        {
          "address": "0xaa46dd2434de4b06da8d4f7f0ace4e152eecbba6",
          "topics": [
            "0xddf252ad1be2c89b69c2b068fc378daa952ba7f163c4a11628f55a4df523b3ef",
            "0x000000000000000000000000ab0ae552ee5933935e39393d32b4034e75fd3ff8",
            "0x0000000000000000000000000000000000000000000000000000000000000000"
          ],
          "data": "0x00000000000000000000000000000000000000000000000000002d79883d2000",
          "blockHash": "0x1e5c6b3b54f86db7ab81a6b1ba82a076e350228b9dabfc82008162f6fcb82f32",
          "blockNumber": "0x28f1adb",
          "blockTimestamp": "0x6a319496",
          "transactionHash": "0xd0c8ee85b72960710507014753def8e7fea482f0d27fbd2889435b7983191bb5",
          "transactionIndex": "0x1d",
          "logIndex": "0x77",
          "removed": false
        },
        {
          "address": "0xab0ae552ee5933935e39393d32b4034e75fd3ff8",
          "topics": [
            "0x6062168399e4fe8eaa1a9b7d0dcf3041cd29463a04b771c059c5a7328f753634"
          ],
          "data": "0x00000000000000000000000000000000000000000000000000002d79883d2000",
          "blockHash": "0x1e5c6b3b54f86db7ab81a6b1ba82a076e350228b9dabfc82008162f6fcb82f32",
          "blockNumber": "0x28f1adb",
          "blockTimestamp": "0x6a319496",
          "transactionHash": "0xd0c8ee85b72960710507014753def8e7fea482f0d27fbd2889435b7983191bb5",
          "transactionIndex": "0x1d",
          "logIndex": "0x78",
          "removed": false
        }
      ],
      "logsBloom": "0x00000000000000000000000000000000000000000000000000000000000000000000082100000000000000000000000000000000000000000000000000400000000000000010000000000008000004000000000000140000000000000000000000000000020000000000000800000800000000000000000000000090800000000000000004004000000000000000000000000000000000000000000000000000000000000000000000000000000020000000000000000000000000000000000400000002009040000000000008000000000000000000000000000000000020000000000001000000004000000800000000000000000000008000000004000000",
      "transactionHash": "0xd0c8ee85b72960710507014753def8e7fea482f0d27fbd2889435b7983191bb5",
      "transactionIndex": "0x1d",
      "blockHash": "0x1e5c6b3b54f86db7ab81a6b1ba82a076e350228b9dabfc82008162f6fcb82f32",
      "blockNumber": "0x28f1adb",
      "gasUsed": "0x18ef2",
      "effectiveGasPrice": "0x5b8d80",
      "blobGasUsed": "0xae38",
      "from": "0xf93e7518f79c2e1978d6862dbf161270040e623e",
      "to": "0xab0ae552ee5933935e39393d32b4034e75fd3ff8",
      "contractAddress": null,
      "l1GasPrice": "0x3e3ed9f2",
      "l1GasUsed": "0x640",
      "l1Fee": "0x14c108b7c",
      "l1BaseFeeScalar": "0x44d",
      "l1BlobBaseFee": "0x35ee32c",
      "l1BlobBaseFeeScalar": "0xa118b",
      "daFootprintGasScalar": "0x1be"
    }
  ],
  "libraries": [],
  "pending": [],
  "returns": {},
  "timestamp": 1781634204517,
  "chain": 84532,
  "commit": "6418441"
}