{
  "transactions": [
    {
      "hash": "0x8e7ef921d90b83465a0659cd89e7d03efc30b3f6649ce85c80db85c59337666c",
      "transactionType": "CALL",
      "contractName": null,
      "contractAddress": "0x05e73354cfdd6745c338b50bcfdfa3aa6fa03408",
      "function": "initialize((address,address,uint24,int24,address),uint160)",
      "arguments": [
        "(0x0000000000000000000000000000000000000000, 0xaA46dd2434dE4b06Da8D4F7f0Ace4e152EecbbA6, 3000, 60, 0xaB0Ae552Ee5933935e39393D32b4034E75fD3Ff8)",
        "79228162514264337593543950336"
      ],
      "transaction": {
        "from": "0xf93e7518f79c2e1978d6862dbf161270040e623e",
        "to": "0x05e73354cfdd6745c338b50bcfdfa3aa6fa03408",
        "gas": "0x16ca2",
        "value": "0x0",
        "input": "0x6276cbbe0000000000000000000000000000000000000000000000000000000000000000000000000000000000000000aa46dd2434de4b06da8d4f7f0ace4e152eecbba60000000000000000000000000000000000000000000000000000000000000bb8000000000000000000000000000000000000000000000000000000000000003c000000000000000000000000ab0ae552ee5933935e39393d32b4034e75fd3ff80000000000000000000000000000000000000001000000000000000000000000",
        "nonce": "0x26",
        "chainId": "0x14a34"
      },
      "additionalContracts": [],
      "isFixedGasLimit": false
    },
    {
      "hash": "0x366d09c439b7f6ab8d7c74e46a304bd74a2560709afaa02d38f39379d2fc7ffd",
      "transactionType": "CALL",
      "contractName": null,
      "contractAddress": "0xaa46dd2434de4b06da8d4f7f0ace4e152eecbba6",
      "function": "approve(address,uint256)",
      "arguments": [
        "0x000000000022D473030F116dDEE9F6B43aC78BA3",
        "115792089237316195423570985008687907853269984665640564039457584007913129639935"
      ],
      "transaction": {
        "from": "0xf93e7518f79c2e1978d6862dbf161270040e623e",
        "to": "0xaa46dd2434de4b06da8d4f7f0ace4e152eecbba6",
        "gas": "0xf983",
        "value": "0x0",
        "input": "0x095ea7b3000000000000000000000000000000000022d473030f116ddee9f6b43ac78ba3ffffffffffffffffffffffffffffffffffffffffffffffffffffffffffffffff",
        "nonce": "0x27",
        "chainId": "0x14a34"
      },
      "additionalContracts": [],
      "isFixedGasLimit": false
    },
    {
      "hash": "0x394f513b79ea50e2823d63e23b5d3946f5dbbff9bd215120b31adcd345d5efcd",
      "transactionType": "CALL",
      "contractName": null,
      "contractAddress": "0x000000000022d473030f116ddee9f6b43ac78ba3",
      "function": "approve(address,address,uint160,uint48)",
      "arguments": [
        "0xaA46dd2434dE4b06Da8D4F7f0Ace4e152EecbbA6",
        "0x4B2C77d209D3405F41a037Ec6c77F7F5b8e2ca80",
        "1461501637330902918203684832716283019655932542975",
        "1781543074"
      ],
      "transaction": {
        "from": "0xf93e7518f79c2e1978d6862dbf161270040e623e",
        "to": "0x000000000022d473030f116ddee9f6b43ac78ba3",
        "gas": "0x1110a",
        "value": "0x0",
        "input": "0x87517c45000000000000000000000000aa46dd2434de4b06da8d4f7f0ace4e152eecbba60000000000000000000000004b2c77d209d3405f41a037ec6c77f7f5b8e2ca80000000000000000000000000ffffffffffffffffffffffffffffffffffffffff000000000000000000000000000000000000000000000000000000006a3030a2",
        "nonce": "0x28",
        "chainId": "0x14a34"
      },
      "additionalContracts": [],
      "isFixedGasLimit": false
    },
    {
      "hash": "0x8b1eaae7fd69163f5127919c687a6c0c8e70d225081d67ac7a4a7b787a9ddcd9",
      "transactionType": "CALL",
      "contractName": null,
      "contractAddress": "0x000000000022d473030f116ddee9f6b43ac78ba3",
      "function": "approve(address,address,uint160,uint48)",
      "arguments": [
        "0xaA46dd2434dE4b06Da8D4F7f0Ace4e152EecbbA6",
        "0x00000000000044a361Ae3cAc094c9D1b14Eece97",
        "1461501637330902918203684832716283019655932542975",
        "1781543074"
      ],
      "transaction": {
        "from": "0xf93e7518f79c2e1978d6862dbf161270040e623e",
        "to": "0x000000000022d473030f116ddee9f6b43ac78ba3",
        "gas": "0x110a1",
        "value": "0x0",
        "input": "0x87517c45000000000000000000000000aa46dd2434de4b06da8d4f7f0ace4e152eecbba600000000000000000000000000000000000044a361ae3cac094c9d1b14eece97000000000000000000000000ffffffffffffffffffffffffffffffffffffffff000000000000000000000000000000000000000000000000000000006a3030a2",
        "nonce": "0x29",
        "chainId": "0x14a34"
      },
      "additionalContracts": [],
      "isFixedGasLimit": false
    },
    {
      "hash": "0xfdfcfb5a7e5e868b967d0e6a6f678e296dbbc7a2177ae75a70a906c9ca14f1c6",
      "transactionType": "CALL",
      "contractName": null,
      "contractAddress": "0x4b2c77d209d3405f41a037ec6c77f7f5b8e2ca80",
      "function": "modifyLiquidities(bytes,uint256)",
      "arguments": [
        "0x000000000000000000000000000000000000000000000000000000000000004000000000000000000000000000000000000000000000000000000000000000800000000000000000000000000000000000000000000000000000000000000002020d00000000000000000000000000000000000000000000000000000000000000000000000000000000000000000000000000000000000000000000000000020000000000000000000000000000000000000000000000000000000000000040000000000000000000000000000000000000000000000000000000000000020000000000000000000000000000000000000000000000000000000000000001a00000000000000000000000000000000000000000000000000000000000000000000000000000000000000000aa46dd2434de4b06da8d4f7f0ace4e152eecbba60000000000000000000000000000000000000000000000000000000000000bb8000000000000000000000000000000000000000000000000000000000000003c000000000000000000000000ab0ae552ee5933935e39393d32b4034e75fd3ff8fffffffffffffffffffffffffffffffffffffffffffffffffffffffffff2764c00000000000000000000000000000000000000000000000000000000000d89b4000000000000000000000000000000000000000000000000000000e8d4a5100000000000000000000000000000000000ffffffffffffffffffffffffffffffff00000000000000000000000000000000ffffffffffffffffffffffffffffffff000000000000000000000000f93e7518f79c2e1978d6862dbf161270040e623e0000000000000000000000000000000000000000000000000000000000000180000000000000000000000000000000000000000000000000000000000000000000000000000000000000000000000000000000000000000000000000000000400000000000000000000000000000000000000000000000000000000000000000000000000000000000000000aa46dd2434de4b06da8d4f7f0ace4e152eecbba6",
        "1781542374"
      ],
      "transaction": {
        "from": "0xf93e7518f79c2e1978d6862dbf161270040e623e",
        "to": "0x4b2c77d209d3405f41a037ec6c77f7f5b8e2ca80",
        "gas": "0xa5c12",
        "value": "0x5af3107a4000",
        "input": "0xdd46508f0000000000000000000000000000000000000000000000000000000000000040000000000000000000000000000000000000000000000000000000006a302de60000000000000000000000000000000000000000000000000000000000000300000000000000000000000000000000000000000000000000000000000000004000000000000000000000000000000000000000000000000000000000000000800000000000000000000000000000000000000000000000000000000000000002020d00000000000000000000000000000000000000000000000000000000000000000000000000000000000000000000000000000000000000000000000000020000000000000000000000000000000000000000000000000000000000000040000000000000000000000000000000000000000000000000000000000000020000000000000000000000000000000000000000000000000000000000000001a00000000000000000000000000000000000000000000000000000000000000000000000000000000000000000aa46dd2434de4b06da8d4f7f0ace4e152eecbba60000000000000000000000000000000000000000000000000000000000000bb8000000000000000000000000000000000000000000000000000000000000003c000000000000000000000000ab0ae552ee5933935e39393d32b4034e75fd3ff8fffffffffffffffffffffffffffffffffffffffffffffffffffffffffff2764c00000000000000000000000000000000000000000000000000000000000d89b4000000000000000000000000000000000000000000000000000000e8d4a5100000000000000000000000000000000000ffffffffffffffffffffffffffffffff00000000000000000000000000000000ffffffffffffffffffffffffffffffff000000000000000000000000f93e7518f79c2e1978d6862dbf161270040e623e0000000000000000000000000000000000000000000000000000000000000180000000000000000000000000000000000000000000000000000000000000000000000000000000000000000000000000000000000000000000000000000000400000000000000000000000000000000000000000000000000000000000000000000000000000000000000000aa46dd2434de4b06da8d4f7f0ace4e152eecbba6",
        "nonce": "0x2a",
        "chainId": "0x14a34"
      },
      "additionalContracts": [],
      "isFixedGasLimit": false
    },
    {
      "hash": "0x6a61225a02ed3d3957549879f73583a8ca67dec1aa8fb8289e1a8c79a33691d2",
      "transactionType": "CALL",
      "contractName": null,
      "contractAddress": "0xaa46dd2434de4b06da8d4f7f0ace4e152eecbba6",
      "function": "approve(address,uint256)",
      "arguments": [
        "0x00000000000044a361Ae3cAc094c9D1b14Eece97",
        "115792089237316195423570985008687907853269984665640564039457584007913129639935"
      ],
      "transaction": {
        "from": "0xf93e7518f79c2e1978d6862dbf161270040e623e",
        "to": "0xaa46dd2434de4b06da8d4f7f0ace4e152eecbba6",
        "gas": "0x1081f",
        "value": "0x0",
        "input": "0x095ea7b300000000000000000000000000000000000044a361ae3cac094c9d1b14eece97ffffffffffffffffffffffffffffffffffffffffffffffffffffffffffffffff",
        "nonce": "0x2b",
        "chainId": "0x14a34"
      },
      "additionalContracts": [],
      "isFixedGasLimit": false
    },
    {
      "hash": "0x83283c74daa146805a7c23c495c202b455091ba3f65bf7eeb815061f7930ea20",
      "transactionType": "CALL",
      "contractName": null,
      "contractAddress": "0x00000000000044a361ae3cac094c9d1b14eece97",
      "function": "swapExactTokensForTokens(uint256,uint256,bool,(address,address,uint24,int24,address),bytes,address,uint256)",
      "arguments": [
        "10000000000000",
        "0",
        "true",
        "(0x0000000000000000000000000000000000000000, 0xaA46dd2434dE4b06Da8D4F7f0Ace4e152EecbbA6, 3000, 60, 0xaB0Ae552Ee5933935e39393D32b4034E75fD3Ff8)",
        "0x",
        "0xF93E7518F79C2E1978D6862Dbf161270040e623E",
        "1781542374"
      ],
      "transaction": {
        "from": "0xf93e7518f79c2e1978d6862dbf161270040e623e",
        "to": "0x00000000000044a361ae3cac094c9d1b14eece97",
        "gas": "0x4f8fa",
        "value": "0x9184e72a000",
        "input": "0xb1a0d571000000000000000000000000000000000000000000000000000009184e72a000000000000000000000000000000000000000000000000000000000000000000000000000000000000000000000000000000000000000000000000000000000010000000000000000000000000000000000000000000000000000000000000000000000000000000000000000aa46dd2434de4b06da8d4f7f0ace4e152eecbba60000000000000000000000000000000000000000000000000000000000000bb8000000000000000000000000000000000000000000000000000000000000003c000000000000000000000000ab0ae552ee5933935e39393d32b4034e75fd3ff80000000000000000000000000000000000000000000000000000000000000160000000000000000000000000f93e7518f79c2e1978d6862dbf161270040e623e000000000000000000000000000000000000000000000000000000006a302de60000000000000000000000000000000000000000000000000000000000000000",
        "nonce": "0x2c",
        "chainId": "0x14a34"
      },
      "additionalContracts": [],
      "isFixedGasLimit": false
    },
    {
      "hash": "0xc7135de316def322d989b2c9980fad9859a4ef61bd6a9d2b10e25c6b879cc4f0",
      "transactionType": "CALL",
      "contractName": null,
      "contractAddress": "0xab0ae552ee5933935e39393d32b4034e75fd3ff8",
      "function": "claimFees(bool)",
      "arguments": [
        "true"
      ],
      "transaction": {
        "from": "0xf93e7518f79c2e1978d6862dbf161270040e623e",
        "to": "0xab0ae552ee5933935e39393d32b4034e75fd3ff8",
        "gas": "0x3dc87",
        "value": "0x0",
        "input": "0x1d4161650000000000000000000000000000000000000000000000000000000000000001",
        "nonce": "0x2d",
        "chainId": "0x14a34"
      },
      "additionalContracts": [],
      "isFixedGasLimit": false
    },
    {
      "hash": "0x4f2b9676eb8007f2dbf6b6a4beec7aec88855e672aeede45bb771cf08e56b9ab",
      "transactionType": "CALL",
      "contractName": null,
      "contractAddress": "0x00000000000044a361ae3cac094c9d1b14eece97",
      "function": "swapExactTokensForTokens(uint256,uint256,bool,(address,address,uint24,int24,address),bytes,address,uint256)",
      "arguments": [
        "1000000000000000000",
        "0",
        "false",
        "(0x0000000000000000000000000000000000000000, 0xaA46dd2434dE4b06Da8D4F7f0Ace4e152EecbbA6, 3000, 60, 0xaB0Ae552Ee5933935e39393D32b4034E75fD3Ff8)",
        "0x",
        "0xF93E7518F79C2E1978D6862Dbf161270040e623E",
        "1781542374"
      ],
      "transaction": {
        "from": "0xf93e7518f79c2e1978d6862dbf161270040e623e",
        "to": "0x00000000000044a361ae3cac094c9d1b14eece97",
        "gas": "0x6853d",
        "value": "0x0",
        "input": "0xb1a0d5710000000000000000000000000000000000000000000000000de0b6b3a7640000000000000000000000000000000000000000000000000000000000000000000000000000000000000000000000000000000000000000000000000000000000000000000000000000000000000000000000000000000000000000000000000000000000000000000000000000aa46dd2434de4b06da8d4f7f0ace4e152eecbba60000000000000000000000000000000000000000000000000000000000000bb8000000000000000000000000000000000000000000000000000000000000003c000000000000000000000000ab0ae552ee5933935e39393d32b4034e75fd3ff80000000000000000000000000000000000000000000000000000000000000160000000000000000000000000f93e7518f79c2e1978d6862dbf161270040e623e000000000000000000000000000000000000000000000000000000006a302de60000000000000000000000000000000000000000000000000000000000000000",
        "nonce": "0x2e",
        "chainId": "0x14a34"
      },
      "additionalContracts": [],
      "isFixedGasLimit": false
    },
    {
      "hash": "0x61cbcba6a17def8268b223448676b10b1cf7590884d5fe958b9229b389e4e510",
      "transactionType": "CALL",
      "contractName": null,
      "contractAddress": "0xab0ae552ee5933935e39393d32b4034e75fd3ff8",
      "function": "claimFees(bool)",
      "arguments": [
        "false"
      ],
      "transaction": {
        "from": "0xf93e7518f79c2e1978d6862dbf161270040e623e",
        "to": "0xab0ae552ee5933935e39393d32b4034e75fd3ff8",
        "gas": "0x34af0",
        "value": "0x0",
        "input": "0x1d4161650000000000000000000000000000000000000000000000000000000000000000",
        "nonce": "0x2f",
        "chainId": "0x14a34"
      },
      "additionalContracts": [],
      "isFixedGasLimit": false
    }
  ],
  "receipts": [
    {
      "type": "0x2",
      "status": "0x1",
      "cumulativeGasUsed": "0x2a9ed6",
      "logs": [
        {
          "address": "0x05e73354cfdd6745c338b50bcfdfa3aa6fa03408",
          "topics": [
            "0xdd466e674ea557f56295e2d0218a125ea4b4f0f6f3307b95f85e6110838d6438",
            "0xdee57bc03bcf10854c85eff8b22a0c9619f304cf00c6ead952f5a82ec8950b9a",
            "0x0000000000000000000000000000000000000000000000000000000000000000",
            "0x000000000000000000000000aa46dd2434de4b06da8d4f7f0ace4e152eecbba6"
          ],
          "data": "0x0000000000000000000000000000000000000000000000000000000000000bb8000000000000000000000000000000000000000000000000000000000000003c000000000000000000000000ab0ae552ee5933935e39393d32b4034e75fd3ff800000000000000000000000000000000000000010000000000000000000000000000000000000000000000000000000000000000000000000000000000000000",
          "blockHash": "0xf605b79f9c4fca1c98c69ed6026141091895bd994cc2dc21fd4874dd2faa9090",
          "blockNumber": "0x28e6739",
          "blockTimestamp": "0x6a302d52",
          "transactionHash": "0x394f513b79ea50e2823d63e23b5d3946f5dbbff9bd215120b31adcd345d5efcd",
          "transactionIndex": "0xe",
          "logIndex": "0x57",
          "removed": false
        }
      ],
      "logsBloom": "0x00000000000000000000000000000000000000000000000000000000000000000000000100000000000000000000000000000000000000000000000000400000000000000000000000000000000000200000000000040000000000000800000000000000020000000000000800000800000000000000000000000000000000000000000004000008000000000000000000000001000000000000000000200000000000000000000000000000000000000000000000000000000000000000000000000000001400000000000000000000000000000000000000000000000020000000000000000000000000000000000000000000000000000000000000000000",
      "transactionHash": "0x394f513b79ea50e2823d63e23b5d3946f5dbbff9bd215120b31adcd345d5efcd",
      "transactionIndex": "0xe",
      "blockHash": "0xf605b79f9c4fca1c98c69ed6026141091895bd994cc2dc21fd4874dd2faa9090",
      "blockNumber": "0x28e6739",
      "gasUsed": "0xf953",
      "effectiveGasPrice": "0x5b8d80",
      "blobGasUsed": "0xd64a",
      "from": "0xf93e7518f79c2e1978d6862dbf161270040e623e",
      "to": "0x05e73354cfdd6745c338b50bcfdfa3aa6fa03408",
      "contractAddress": null,
      "l1GasPrice": "0x41e7b465",
      "l1GasUsed": "0x7b0",
      "l1Fee": "0x1987cab95",
      "l1BaseFeeScalar": "0x44d",
      "l1BlobBaseFee": "0x34597b3",
      "l1BlobBaseFeeScalar": "0xa118b",
      "daFootprintGasScalar": "0x1be"
    },
    {
      "type": "0x2",
      "status": "0x1",
      "cumulativeGasUsed": "0x542852",
      "logs": [
        {
          "address": "0xaa46dd2434de4b06da8d4f7f0ace4e152eecbba6",
          "topics": [
            "0x8c5be1e5ebec7d5bd14f71427d1e84f3dd0314c0f7b2291e5b200ac8c7c3b925",
            "0x000000000000000000000000f93e7518f79c2e1978d6862dbf161270040e623e",
            "0x000000000000000000000000000000000022d473030f116ddee9f6b43ac78ba3"
          ],
          "data": "0xffffffffffffffffffffffffffffffffffffffffffffffffffffffffffffffff",
          "blockHash": "0xcfdb896e97f3dc2105243e40f235c3463201af2c3012a0b1e588974a85333039",
          "blockNumber": "0x28e673d",
          "blockTimestamp": "0x6a302d5a",
          "transactionHash": "0x61cbcba6a17def8268b223448676b10b1cf7590884d5fe958b9229b389e4e510",
          "transactionIndex": "0x19",
          "logIndex": "0xcf",
          "removed": false
        }
      ],
      "logsBloom": "0x00000000000000000000000000000000000000000000000000000000800000000000000000000000000000000000000000000000800000200000000000200000000000000000000000004000000000000000000000000800000000000000000000000000000000000000000000000000000000000000000000000000800000000000000000000000000000000000000000000000000000000000000000100000020000000000000000000000000000000000000000000000000000000000000400000000000000000000000000000000000000000000000000000000000000000010000000000000004000000000000000000000000000000000000000000000",
      "transactionHash": "0x61cbcba6a17def8268b223448676b10b1cf7590884d5fe958b9229b389e4e510",
      "transactionIndex": "0x19",
      "blockHash": "0xcfdb896e97f3dc2105243e40f235c3463201af2c3012a0b1e588974a85333039",
      "blockNumber": "0x28e673d",
      "gasUsed": "0xb4a5",
      "effectiveGasPrice": "0x5b8d80",
      "blobGasUsed": "0xae38",
      "from": "0xf93e7518f79c2e1978d6862dbf161270040e623e",
      "to": "0xaa46dd2434de4b06da8d4f7f0ace4e152eecbba6",
      "contractAddress": null,
      "l1GasPrice": "0x3eeaf758",
      "l1GasUsed": "0x640",
      "l1Fee": "0x1492a1fb1",
      "l1BaseFeeScalar": "0x44d",
      "l1BlobBaseFee": "0x34f0a86",
      "l1BlobBaseFeeScalar": "0xa118b",
      "daFootprintGasScalar": "0x1be"
    },
    {
      "type": "0x2",
      "status": "0x1",
      "cumulativeGasUsed": "0x54e304",
      "logs": [
        {
          "address": "0x000000000022d473030f116ddee9f6b43ac78ba3",
          "topics": [
            "0xda9fa7c1b00402c17d0161b249b1ab8bbec047c5a52207b9c112deffd817036b",
            "0x000000000000000000000000f93e7518f79c2e1978d6862dbf161270040e623e",
            "0x000000000000000000000000aa46dd2434de4b06da8d4f7f0ace4e152eecbba6",
            "0x0000000000000000000000004b2c77d209d3405f41a037ec6c77f7f5b8e2ca80"
          ],
          "data": "0x000000000000000000000000ffffffffffffffffffffffffffffffffffffffff000000000000000000000000000000000000000000000000000000006a3030a2",
          "blockHash": "0xcfdb896e97f3dc2105243e40f235c3463201af2c3012a0b1e588974a85333039",
          "blockNumber": "0x28e673d",
          "blockTimestamp": "0x6a302d5a",
          "transactionHash": "0x6a61225a02ed3d3957549879f73583a8ca67dec1aa8fb8289e1a8c79a33691d2",
          "transactionIndex": "0x1a",
          "logIndex": "0xd0",
          "removed": false
        }
      ],
      "logsBloom": "0x00010000000000010000000000000000000000000000000000000000800000000000000000000000000000000000000000000000000000200008000010480000000000000000000000000000000000000000000000040000000000000000000000000000000000000000000800000000000000000000000000000000000000000020000000000000000000000000000000000000000000000000000000100000000000000000000000000000000000000000000000000000000000080000000000000000000000000000000000000000000000000000000040000000000000000000000000000000000000000000000000000000000000000000000000000400",
      "transactionHash": "0x6a61225a02ed3d3957549879f73583a8ca67dec1aa8fb8289e1a8c79a33691d2",
      "transactionIndex": "0x1a",
      "blockHash": "0xcfdb896e97f3dc2105243e40f235c3463201af2c3012a0b1e588974a85333039",
      "blockNumber": "0x28e673d",
      "gasUsed": "0xbab2",
      "effectiveGasPrice": "0x5b8d80",
      "blobGasUsed": "0xc4de",
      "from": "0xf93e7518f79c2e1978d6862dbf161270040e623e",
      "to": "0x000000000022d473030f116ddee9f6b43ac78ba3",
      "contractAddress": null,
      "l1GasPrice": "0x3eeaf758",
      "l1GasUsed": "0x71d",
      "l1Fee": "0x176b87897",
      "l1BaseFeeScalar": "0x44d",
      "l1BlobBaseFee": "0x34f0a86",
      "l1BlobBaseFeeScalar": "0xa118b",
      "daFootprintGasScalar": "0x1be"
    },
    {
      "type": "0x2",
      "status": "0x1",
      "cumulativeGasUsed": "0x559d6e",
      "logs": [
        {
          "address": "0x000000000022d473030f116ddee9f6b43ac78ba3",
          "topics": [
            "0xda9fa7c1b00402c17d0161b249b1ab8bbec047c5a52207b9c112deffd817036b",
            "0x000000000000000000000000f93e7518f79c2e1978d6862dbf161270040e623e",
            "0x000000000000000000000000aa46dd2434de4b06da8d4f7f0ace4e152eecbba6",
            "0x00000000000000000000000000000000000044a361ae3cac094c9d1b14eece97"
          ],
          "data": "0x000000000000000000000000ffffffffffffffffffffffffffffffffffffffff000000000000000000000000000000000000000000000000000000006a3030a2",
          "blockHash": "0xcfdb896e97f3dc2105243e40f235c3463201af2c3012a0b1e588974a85333039",
          "blockNumber": "0x28e673d",
          "blockTimestamp": "0x6a302d5a",
          "transactionHash": "0x366d09c439b7f6ab8d7c74e46a304bd74a2560709afaa02d38f39379d2fc7ffd",
          "transactionIndex": "0x1b",
          "logIndex": "0xd1",
          "removed": false
        }
      ],
      "logsBloom": "0x00010000000000000000000000000000000000000000000000000000800000000000000000000000000000000000000000000000000000200000000040480000000000000000000000000000000000000000000000040000000000000000000000000000000000000000000800000000000000000000000000000000000040000020000000000000000000000000000000000000000000000000000000100000000000000000000000000000000000000000000000000000000000080000000000000000000000000000000000000000000000000000000040000000000000010000000000000000000000000000000000000000000000000000000000000400",
      "transactionHash": "0x366d09c439b7f6ab8d7c74e46a304bd74a2560709afaa02d38f39379d2fc7ffd",
      "transactionIndex": "0x1b",
      "blockHash": "0xcfdb896e97f3dc2105243e40f235c3463201af2c3012a0b1e588974a85333039",
      "blockNumber": "0x28e673d",
      "gasUsed": "0xba6a",
      "effectiveGasPrice": "0x5b8d80",
      "blobGasUsed": "0xbfa4",
      "from": "0xf93e7518f79c2e1978d6862dbf161270040e623e",
      "to": "0x000000000022d473030f116ddee9f6b43ac78ba3",
      "contractAddress": null,
      "l1GasPrice": "0x3eeaf758",
      "l1GasUsed": "0x6e7",
      "l1Fee": "0x16bb4ed33",
      "l1BaseFeeScalar": "0x44d",
      "l1BlobBaseFee": "0x34f0a86",
      "l1BlobBaseFeeScalar": "0xa118b",
      "daFootprintGasScalar": "0x1be"
    },
    {
      "type": "0x2",
      "status": "0x1",
      "cumulativeGasUsed": "0x5cb2d0",
      "logs": [
        {
          "address": "0x4b2c77d209d3405f41a037ec6c77f7f5b8e2ca80",
          "topics": [
            "0xddf252ad1be2c89b69c2b068fc378daa952ba7f163c4a11628f55a4df523b3ef",
            "0x0000000000000000000000000000000000000000000000000000000000000000",
            "0x000000000000000000000000f93e7518f79c2e1978d6862dbf161270040e623e",
            "0x0000000000000000000000000000000000000000000000000000000000006154"
          ],
          "data": "0x",
          "blockHash": "0xcfdb896e97f3dc2105243e40f235c3463201af2c3012a0b1e588974a85333039",
          "blockNumber": "0x28e673d",
          "blockTimestamp": "0x6a302d5a",
          "transactionHash": "0x4f2b9676eb8007f2dbf6b6a4beec7aec88855e672aeede45bb771cf08e56b9ab",
          "transactionIndex": "0x1c",
          "logIndex": "0xd2",
          "removed": false
        },
        {
          "address": "0x05e73354cfdd6745c338b50bcfdfa3aa6fa03408",
          "topics": [
            "0xf208f4912782fd25c7f114ca3723a2d5dd6f3bcc3ac8db5af63baa85f711d5ec",
            "0xdee57bc03bcf10854c85eff8b22a0c9619f304cf00c6ead952f5a82ec8950b9a",
            "0x0000000000000000000000004b2c77d209d3405f41a037ec6c77f7f5b8e2ca80"
          ],
          "data": "0xfffffffffffffffffffffffffffffffffffffffffffffffffffffffffff2764c00000000000000000000000000000000000000000000000000000000000d89b4000000000000000000000000000000000000000000000000000000e8d4a510000000000000000000000000000000000000000000000000000000000000006154",
          "blockHash": "0xcfdb896e97f3dc2105243e40f235c3463201af2c3012a0b1e588974a85333039",
          "blockNumber": "0x28e673d",
          "blockTimestamp": "0x6a302d5a",
          "transactionHash": "0x4f2b9676eb8007f2dbf6b6a4beec7aec88855e672aeede45bb771cf08e56b9ab",
          "transactionIndex": "0x1c",
          "logIndex": "0xd3",
          "removed": false
        },
        {
          "address": "0xaa46dd2434de4b06da8d4f7f0ace4e152eecbba6",
          "topics": [
            "0xddf252ad1be2c89b69c2b068fc378daa952ba7f163c4a11628f55a4df523b3ef",
            "0x000000000000000000000000f93e7518f79c2e1978d6862dbf161270040e623e",
            "0x00000000000000000000000005e73354cfdd6745c338b50bcfdfa3aa6fa03408"
          ],
          "data": "0x000000000000000000000000000000000000000000000000000000e8d4a51000",
          "blockHash": "0xcfdb896e97f3dc2105243e40f235c3463201af2c3012a0b1e588974a85333039",
          "blockNumber": "0x28e673d",
          "blockTimestamp": "0x6a302d5a",
          "transactionHash": "0x4f2b9676eb8007f2dbf6b6a4beec7aec88855e672aeede45bb771cf08e56b9ab",
          "transactionIndex": "0x1c",
          "logIndex": "0xd4",
          "removed": false
        }
      ],
      "logsBloom": "0x00000000000000010000000000000000000000000000000000000000800000000100000100000000000000000000000000000000000000200008000010000800000000000010000000000008000000200000000000100000000000008800000080000000020000000000000000000800000000000000000000000010800000000000000005000000000000000000000000000000000000000000000000100000000004000000000000000000000000000000000000000000000000000000010400000002001400000000000000000000000000000000000000000000000020000000000000000000004000000800000004000000020000000000000000000000",
      "transactionHash": "0x4f2b9676eb8007f2dbf6b6a4beec7aec88855e672aeede45bb771cf08e56b9ab",
      "transactionIndex": "0x1c",
      "blockHash": "0xcfdb896e97f3dc2105243e40f235c3463201af2c3012a0b1e588974a85333039",
      "blockNumber": "0x28e673d",
      "gasUsed": "0x71562",
      "effectiveGasPrice": "0x5b8d80",
      "blobGasUsed": "0x1b010",
      "from": "0xf93e7518f79c2e1978d6862dbf161270040e623e",
      "to": "0x4b2c77d209d3405f41a037ec6c77f7f5b8e2ca80",
      "contractAddress": null,
      "l1GasPrice": "0x3eeaf758",
      "l1GasUsed": "0xf88",
      "l1Fee": "0x332072324",
      "l1BaseFeeScalar": "0x44d",
      "l1BlobBaseFee": "0x34f0a86",
      "l1BlobBaseFeeScalar": "0xa118b",
      "daFootprintGasScalar": "0x1be"
    },
    {
      "type": "0x2",
      "status": "0x1",
      "cumulativeGasUsed": "0x5d6769",
      "logs": [
        {
          "address": "0xaa46dd2434de4b06da8d4f7f0ace4e152eecbba6",
          "topics": [
            "0x8c5be1e5ebec7d5bd14f71427d1e84f3dd0314c0f7b2291e5b200ac8c7c3b925",
            "0x000000000000000000000000f93e7518f79c2e1978d6862dbf161270040e623e",
            "0x00000000000000000000000000000000000044a361ae3cac094c9d1b14eece97"
          ],
          "data": "0xffffffffffffffffffffffffffffffffffffffffffffffffffffffffffffffff",
          "blockHash": "0xcfdb896e97f3dc2105243e40f235c3463201af2c3012a0b1e588974a85333039",
          "blockNumber": "0x28e673d",
          "blockTimestamp": "0x6a302d5a",
          "transactionHash": "0x83283c74daa146805a7c23c495c202b455091ba3f65bf7eeb815061f7930ea20",
          "transactionIndex": "0x1d",
          "logIndex": "0xd5",
          "removed": false
        }
      ],
      "logsBloom": "0x00000000000000000000000000000000000000000000000000000000800000000000000000000000000000000000000000000000000000200000000040200000000000000000000000000000000000000000000000000000000000000000000000000000000000000000000000000000000000000000000000000000800040000000000000000000000000000000000000000000000000000000000000100000020000000000000000000000000000000000000000000000000000000000000400000000000000000000000000000000000000000000000000000000000000010010000000000000004000000000000000000000000000000000000000000000",
      "transactionHash": "0x83283c74daa146805a7c23c495c202b455091ba3f65bf7eeb815061f7930ea20",
      "transactionIndex": "0x1d",
      "blockHash": "0xcfdb896e97f3dc2105243e40f235c3463201af2c3012a0b1e588974a85333039",
      "blockNumber": "0x28e673d",
      "gasUsed": "0xb499",
      "effectiveGasPrice": "0x5b8d80",
      "blobGasUsed": "0xae38",
      "from": "0xf93e7518f79c2e1978d6862dbf161270040e623e",
      "to": "0xaa46dd2434de4b06da8d4f7f0ace4e152eecbba6",
      "contractAddress": null,
      "l1GasPrice": "0x3eeaf758",
      "l1GasUsed": "0x640",
      "l1Fee": "0x1492a1fb1",
      "l1BaseFeeScalar": "0x44d",
      "l1BlobBaseFee": "0x34f0a86",
      "l1BlobBaseFeeScalar": "0xa118b",
      "daFootprintGasScalar": "0x1be"
    },
    {
      "type": "0x2",
      "status": "0x1",
      "cumulativeGasUsed": "0x60cdd3",
      "logs": [
        {
          "address": "0xab0ae552ee5933935e39393d32b4034e75fd3ff8",
          "topics": [
            "0xeb18042c63a6494302e2e34ca89562fb59d5b25ded99d617905bdd7c4f891f03",
            "0x0000000000000000000000000000000000000000000000000000000000000001",
            "0x0000000000000000000000000000000000000000000000000000000000000001"
          ],
          "data": "0x000000000000000000000000000000000000000000000000000000e76f045400",
          "blockHash": "0xcfdb896e97f3dc2105243e40f235c3463201af2c3012a0b1e588974a85333039",
          "blockNumber": "0x28e673d",
          "blockTimestamp": "0x6a302d5a",
          "transactionHash": "0xc7135de316def322d989b2c9980fad9859a4ef61bd6a9d2b10e25c6b879cc4f0",
          "transactionIndex": "0x1e",
          "logIndex": "0xd6",
          "removed": false
        },
        {
          "address": "0x05e73354cfdd6745c338b50bcfdfa3aa6fa03408",
          "topics": [
            "0x40e9cecb9f5f1f1c5b9c97dec2917b7ee92e57ba5563708daca94dd84ad7112f",
            "0xdee57bc03bcf10854c85eff8b22a0c9619f304cf00c6ead952f5a82ec8950b9a",
            "0x00000000000000000000000000000000000044a361ae3cac094c9d1b14eece97"
          ],
          "data": "0xfffffffffffffffffffffffffffffffffffffffffffffffffffff7cf2091b400000000000000000000000000000000000000000000000000000000d17fa04f20000000000000000000000000000000000000000019a7674326cbdab6e9d269ea000000000000000000000000000000000000000000000000000000e8d4a51000ffffffffffffffffffffffffffffffffffffffffffffffffffffffffffff4c440000000000000000000000000000000000000000000000000000000000000bb8",
          "blockHash": "0xcfdb896e97f3dc2105243e40f235c3463201af2c3012a0b1e588974a85333039",
          "blockNumber": "0x28e673d",
          "blockTimestamp": "0x6a302d5a",
          "transactionHash": "0xc7135de316def322d989b2c9980fad9859a4ef61bd6a9d2b10e25c6b879cc4f0",
          "transactionIndex": "0x1e",
          "logIndex": "0xd7",
          "removed": false
        },
        {
          "address": "0x05e73354cfdd6745c338b50bcfdfa3aa6fa03408",
          "topics": [
            "0x1b3d7edb2e9c0b0e7c525b20aaaef0f5940d2ed71663c7d39266ecafac728859",
            "0x0000000000000000000000000000000000000000000000000000000000000000",
            "0x000000000000000000000000ab0ae552ee5933935e39393d32b4034e75fd3ff8",
            "0x0000000000000000000000000000000000000000000000000000000000000000"
          ],
          "data": "0x000000000000000000000000ab0ae552ee5933935e39393d32b4034e75fd3ff8000000000000000000000000000000000000000000000000000000e76f045400",
          "blockHash": "0xcfdb896e97f3dc2105243e40f235c3463201af2c3012a0b1e588974a85333039",
          "blockNumber": "0x28e673d",
          "blockTimestamp": "0x6a302d5a",
          "transactionHash": "0xc7135de316def322d989b2c9980fad9859a4ef61bd6a9d2b10e25c6b879cc4f0",
          "transactionIndex": "0x1e",
          "logIndex": "0xd8",
          "removed": false
        },
        {
          "address": "0xaa46dd2434de4b06da8d4f7f0ace4e152eecbba6",
          "topics": [
            "0xddf252ad1be2c89b69c2b068fc378daa952ba7f163c4a11628f55a4df523b3ef",
            "0x00000000000000000000000005e73354cfdd6745c338b50bcfdfa3aa6fa03408",
            "0x000000000000000000000000f93e7518f79c2e1978d6862dbf161270040e623e"
          ],
          "data": "0x000000000000000000000000000000000000000000000000000000d17fa04f20",
          "blockHash": "0xcfdb896e97f3dc2105243e40f235c3463201af2c3012a0b1e588974a85333039",
          "blockNumber": "0x28e673d",
          "blockTimestamp": "0x6a302d5a",
          "transactionHash": "0xc7135de316def322d989b2c9980fad9859a4ef61bd6a9d2b10e25c6b879cc4f0",
          "transactionIndex": "0x1e",
          "logIndex": "0xd9",
          "removed": false
        }
      ],
      "logsBloom": "0x00000000000000000000000000000000000000000000001000000000800000000000002100000000000000000000000000000000040000200000000040040000000000000010000000000008000004200000000000140020000000000800000000000000020000000000000000000800000000000000000000000090800040000000000004000000000000000000000000000000000000000000000000180000000000000000000000000000000020000000000000000000000000000000000400000002001440000000000008000000000000000000000000000000000060010000000001000000004000000800000000000000000000008000000004001000",
      "transactionHash": "0xc7135de316def322d989b2c9980fad9859a4ef61bd6a9d2b10e25c6b879cc4f0",
      "transactionIndex": "0x1e",
      "blockHash": "0xcfdb896e97f3dc2105243e40f235c3463201af2c3012a0b1e588974a85333039",
      "blockNumber": "0x28e673d",
      "gasUsed": "0x3666a",
      "effectiveGasPrice": "0x5b8d80",
      "blobGasUsed": "0x12134",
      "from": "0xf93e7518f79c2e1978d6862dbf161270040e623e",
      "to": "0x00000000000044a361ae3cac094c9d1b14eece97",
      "contractAddress": null,
      "l1GasPrice": "0x3eeaf758",
      "l1GasUsed": "0xa68",
      "l1Fee": "0x224304c06",
      "l1BaseFeeScalar": "0x44d",
      "l1BlobBaseFee": "0x34f0a86",
      "l1BlobBaseFeeScalar": "0xa118b",
      "daFootprintGasScalar": "0x1be"
    },
    {
      "type": "0x2",
      "status": "0x1",
      "cumulativeGasUsed": "0x639981",
      "logs": [
        {
          "address": "0x05e73354cfdd6745c338b50bcfdfa3aa6fa03408",
          "topics": [
            "0x1b3d7edb2e9c0b0e7c525b20aaaef0f5940d2ed71663c7d39266ecafac728859",
            "0x000000000000000000000000ab0ae552ee5933935e39393d32b4034e75fd3ff8",
            "0x0000000000000000000000000000000000000000000000000000000000000000",
            "0x0000000000000000000000000000000000000000000000000000000000000000"
          ],
          "data": "0x000000000000000000000000ab0ae552ee5933935e39393d32b4034e75fd3ff8000000000000000000000000000000000000000000000000000000e76f045400",
          "blockHash": "0xcfdb896e97f3dc2105243e40f235c3463201af2c3012a0b1e588974a85333039",
          "blockNumber": "0x28e673d",
          "blockTimestamp": "0x6a302d5a",
          "transactionHash": "0x8b1eaae7fd69163f5127919c687a6c0c8e70d225081d67ac7a4a7b787a9ddcd9",
          "transactionIndex": "0x1f",
          "logIndex": "0xda",
          "removed": false
        },
        {
          "address": "0x61564ee98d9efdc198ae6a48dfcd864c7f06a3b3",
          "topics": [
            "0x6c07ee05dcf262f13abf9d87b846ee789d2f90fe991d495acd7d7fc109ee1f55"
          ],
          "data": "0x000000000000000000000000000000000000000000000000000000b9259d10000000000000000000000000000000000000000000000000000000000000093a80",
          "blockHash": "0xcfdb896e97f3dc2105243e40f235c3463201af2c3012a0b1e588974a85333039",
          "blockNumber": "0x28e673d",
          "blockTimestamp": "0x6a302d5a",
          "transactionHash": "0x8b1eaae7fd69163f5127919c687a6c0c8e70d225081d67ac7a4a7b787a9ddcd9",
          "transactionIndex": "0x1f",
          "logIndex": "0xdb",
          "removed": false
        },
        {
          "address": "0xab0ae552ee5933935e39393d32b4034e75fd3ff8",
          "topics": [
            "0xda378dba4f1dc8c7a566c70096e0389c466cb99cc2ec74173afd50c7b652ca09"
          ],
          "data": "0x000000000000000000000000000000000000000000000000000000b9259d10000000000000000000000000000000000000000000000000000000002e49674400",
          "blockHash": "0xcfdb896e97f3dc2105243e40f235c3463201af2c3012a0b1e588974a85333039",
          "blockNumber": "0x28e673d",
          "blockTimestamp": "0x6a302d5a",
          "transactionHash": "0x8b1eaae7fd69163f5127919c687a6c0c8e70d225081d67ac7a4a7b787a9ddcd9",
          "transactionIndex": "0x1f",
          "logIndex": "0xdc",
          "removed": false
        }
      ],
      "logsBloom": "0x00000000000000000000000000000000000000000000000000000000000000000000002100000000000000000000000000000000000000000000000000000000000000080000000000000000000004000000200000000000000000000000000001000000020000000000000000000800000800000000000000000080000000000000000004000000000000000000000000000000000000000000000000000000020000000000000000000000000020000000000000000000000000000008000000000000001040000001000008000000000000000000000000001100000020000000000001000000000000000000000000000000000000008000000004000000",
      "transactionHash": "0x8b1eaae7fd69163f5127919c687a6c0c8e70d225081d67ac7a4a7b787a9ddcd9",
      "transactionIndex": "0x1f",
      "blockHash": "0xcfdb896e97f3dc2105243e40f235c3463201af2c3012a0b1e588974a85333039",
      "blockNumber": "0x28e673d",
      "gasUsed": "0x2cbae",
      "effectiveGasPrice": "0x5b8d80",
      "blobGasUsed": "0xae38",
      "from": "0xf93e7518f79c2e1978d6862dbf161270040e623e",
      "to": "0xab0ae552ee5933935e39393d32b4034e75fd3ff8",
      "contractAddress": null,
      "l1GasPrice": "0x3eeaf758",
      "l1GasUsed": "0x640",
      "l1Fee": "0x1492a1fb1",
      "l1BaseFeeScalar": "0x44d",
      "l1BlobBaseFee": "0x34f0a86",
      "l1BlobBaseFeeScalar": "0xa118b",
      "daFootprintGasScalar": "0x1be"
    },
    {
      "type": "0x2",
      "status": "0x1",
      "cumulativeGasUsed": "0x685201",
      "logs": [
        {
          "address": "0xab0ae552ee5933935e39393d32b4034e75fd3ff8",
          "topics": [
            "0xeb18042c63a6494302e2e34ca89562fb59d5b25ded99d617905bdd7c4f891f03",
            "0x0000000000000000000000000000000000000000000000000000000000000000",
            "0x0000000000000000000000000000000000000000000000000000000000000000"
          ],
          "data": "0x0000000000000000000000000000000000000000000000000328f3f18f5b4000",
          "blockHash": "0xcfdb896e97f3dc2105243e40f235c3463201af2c3012a0b1e588974a85333039",
          "blockNumber": "0x28e673d",
          "blockTimestamp": "0x6a302d5a",
          "transactionHash": "0x8e7ef921d90b83465a0659cd89e7d03efc30b3f6649ce85c80db85c59337666c",
          "transactionIndex": "0x20",
          "logIndex": "0xdd",
          "removed": false
        },
        {
          "address": "0x05e73354cfdd6745c338b50bcfdfa3aa6fa03408",
          "topics": [
            "0x40e9cecb9f5f1f1c5b9c97dec2917b7ee92e57ba5563708daca94dd84ad7112f",
            "0xdee57bc03bcf10854c85eff8b22a0c9619f304cf00c6ead952f5a82ec8950b9a",
            "0x00000000000000000000000000000000000044a361ae3cac094c9d1b14eece97"
          ],
          "data": "0x0000000000000000000000000000000000000000000000000000091369999448fffffffffffffffffffffffffffffffffffffffffffffffff5483d3de7f7400000000000000000000000000000000000000bbfbf334100dca8eb90533f89033f000000000000000000000000000000000000000000000000000000e8d4a5100000000000000000000000000000000000000000000000000000000000000422f80000000000000000000000000000000000000000000000000000000000000bb8",
          "blockHash": "0xcfdb896e97f3dc2105243e40f235c3463201af2c3012a0b1e588974a85333039",
          "blockNumber": "0x28e673d",
          "blockTimestamp": "0x6a302d5a",
          "transactionHash": "0x8e7ef921d90b83465a0659cd89e7d03efc30b3f6649ce85c80db85c59337666c",
          "transactionIndex": "0x20",
          "logIndex": "0xde",
          "removed": false
        },
        {
          "address": "0x05e73354cfdd6745c338b50bcfdfa3aa6fa03408",
          "topics": [
            "0x1b3d7edb2e9c0b0e7c525b20aaaef0f5940d2ed71663c7d39266ecafac728859",
            "0x0000000000000000000000000000000000000000000000000000000000000000",
            "0x000000000000000000000000ab0ae552ee5933935e39393d32b4034e75fd3ff8",
            "0x000000000000000000000000aa46dd2434de4b06da8d4f7f0ace4e152eecbba6"
          ],
          "data": "0x000000000000000000000000ab0ae552ee5933935e39393d32b4034e75fd3ff80000000000000000000000000000000000000000000000000328f3f18f5b4000",
          "blockHash": "0xcfdb896e97f3dc2105243e40f235c3463201af2c3012a0b1e588974a85333039",
          "blockNumber": "0x28e673d",
          "blockTimestamp": "0x6a302d5a",
          "transactionHash": "0x8e7ef921d90b83465a0659cd89e7d03efc30b3f6649ce85c80db85c59337666c",
          "transactionIndex": "0x20",
          "logIndex": "0xdf",
          "removed": false
        },
        {
          "address": "0xaa46dd2434de4b06da8d4f7f0ace4e152eecbba6",
          "topics": [
            "0xddf252ad1be2c89b69c2b068fc378daa952ba7f163c4a11628f55a4df523b3ef",
            "0x000000000000000000000000f93e7518f79c2e1978d6862dbf161270040e623e",
            "0x00000000000000000000000005e73354cfdd6745c338b50bcfdfa3aa6fa03408"
          ],
          "data": "0x0000000000000000000000000000000000000000000000000de0b6b3a7640000",
          "blockHash": "0xcfdb896e97f3dc2105243e40f235c3463201af2c3012a0b1e588974a85333039",
          "blockNumber": "0x28e673d",
          "blockTimestamp": "0x6a302d5a",
          "transactionHash": "0x8e7ef921d90b83465a0659cd89e7d03efc30b3f6649ce85c80db85c59337666c",
          "transactionIndex": "0x20",
          "logIndex": "0xe0",
          "removed": false
        }
      ],
      "logsBloom": "0x00000000000000000000000000000000000000000000001000000000800000000000002100000000000000000000000000000000040000200000000040400000000000000010000000000008000004200000000000140020000000000800000000000000020000000000000800000800000000000000000000000090800040000000000004000000000000000000000000000000000000000000000000180000000000000000000000000000000020000000000000000000000000000000000400000002001440000000000008000000000000000000000000000000000020010000000001000000004000000800000000000000000000008000000004001000",
      "transactionHash": "0x8e7ef921d90b83465a0659cd89e7d03efc30b3f6649ce85c80db85c59337666c",
      "transactionIndex": "0x20",
      "blockHash": "0xcfdb896e97f3dc2105243e40f235c3463201af2c3012a0b1e588974a85333039",
      "blockNumber": "0x28e673d",
      "gasUsed": "0x4b880",
      "effectiveGasPrice": "0x5b8d80",
      "blobGasUsed": "0x11db8",
      "from": "0xf93e7518f79c2e1978d6862dbf161270040e623e",
      "to": "0x00000000000044a361ae3cac094c9d1b14eece97",
      "contractAddress": null,
      "l1GasPrice": "0x3eeaf758",
      "l1GasUsed": "0xa40",
      "l1Fee": "0x21beda37a",
      "l1BaseFeeScalar": "0x44d",
      "l1BlobBaseFee": "0x34f0a86",
      "l1BlobBaseFeeScalar": "0xa118b",
      "daFootprintGasScalar": "0x1be"
    },
    {
      "type": "0x2",
      "status": "0x1",
      "cumulativeGasUsed": "0x6ab447",
      "logs": [
        {
          "address": "0x05e73354cfdd6745c338b50bcfdfa3aa6fa03408",
          "topics": [
            "0x1b3d7edb2e9c0b0e7c525b20aaaef0f5940d2ed71663c7d39266ecafac728859",
            "0x000000000000000000000000ab0ae552ee5933935e39393d32b4034e75fd3ff8",
            "0x0000000000000000000000000000000000000000000000000000000000000000",
            "0x000000000000000000000000aa46dd2434de4b06da8d4f7f0ace4e152eecbba6"
          ],
          "data": "0x000000000000000000000000ab0ae552ee5933935e39393d32b4034e75fd3ff80000000000000000000000000000000000000000000000000328f3f18f5b4000",
          "blockHash": "0xcfdb896e97f3dc2105243e40f235c3463201af2c3012a0b1e588974a85333039",
          "blockNumber": "0x28e673d",
          "blockTimestamp": "0x6a302d5a",
          "transactionHash": "0xfdfcfb5a7e5e868b967d0e6a6f678e296dbbc7a2177ae75a70a906c9ca14f1c6",
          "transactionIndex": "0x21",
          "logIndex": "0xe1",
          "removed": false
        },
        {
          "address": "0xaa46dd2434de4b06da8d4f7f0ace4e152eecbba6",
          "topics": [
            "0xddf252ad1be2c89b69c2b068fc378daa952ba7f163c4a11628f55a4df523b3ef",
            "0x00000000000000000000000005e73354cfdd6745c338b50bcfdfa3aa6fa03408",
            "0x000000000000000000000000ab0ae552ee5933935e39393d32b4034e75fd3ff8"
          ],
          "data": "0x0000000000000000000000000000000000000000000000000328f3f18f5b4000",
          "blockHash": "0xcfdb896e97f3dc2105243e40f235c3463201af2c3012a0b1e588974a85333039",
          "blockNumber": "0x28e673d",
          "blockTimestamp": "0x6a302d5a",
          "transactionHash": "0xfdfcfb5a7e5e868b967d0e6a6f678e296dbbc7a2177ae75a70a906c9ca14f1c6",
          "transactionIndex": "0x21",
          "logIndex": "0xe2",
          "removed": false
        },
        {
          "address": "0xaa46dd2434de4b06da8d4f7f0ace4e152eecbba6",
          "topics": [
            "0xddf252ad1be2c89b69c2b068fc378daa952ba7f163c4a11628f55a4df523b3ef",
            "0x000000000000000000000000ab0ae552ee5933935e39393d32b4034e75fd3ff8",
            "0x0000000000000000000000000000000000000000000000000000000000000000"
          ],
          "data": "0x0000000000000000000000000000000000000000000000000328f3f18f5b4000",
          "blockHash": "0xcfdb896e97f3dc2105243e40f235c3463201af2c3012a0b1e588974a85333039",
          "blockNumber": "0x28e673d",
          "blockTimestamp": "0x6a302d5a",
          "transactionHash": "0xfdfcfb5a7e5e868b967d0e6a6f678e296dbbc7a2177ae75a70a906c9ca14f1c6",
          "transactionIndex": "0x21",
          "logIndex": "0xe3",
          "removed": false
        },
        {
          "address": "0xab0ae552ee5933935e39393d32b4034e75fd3ff8",
          "topics": [
            "0x6062168399e4fe8eaa1a9b7d0dcf3041cd29463a04b771c059c5a7328f753634"
          ],
          "data": "0x0000000000000000000000000000000000000000000000000328f3f18f5b4000",
          "blockHash": "0xcfdb896e97f3dc2105243e40f235c3463201af2c3012a0b1e588974a85333039",
          "blockNumber": "0x28e673d",
          "blockTimestamp": "0x6a302d5a",
          "transactionHash": "0xfdfcfb5a7e5e868b967d0e6a6f678e296dbbc7a2177ae75a70a906c9ca14f1c6",
          "transactionIndex": "0x21",
          "logIndex": "0xe4",
          "removed": false
        }
      ],
      "logsBloom": "0x00000000000000000000000000000000000000000000000000000000000000000000082100000000000000000000000000000000000000000000000000400000000000000010000000000008000004000000000000140000000000000000000000000000020000000000000800000800000000000000000000000090800000000000000004004000000000000000000000000000000000000000000000000000000000000000000000000000000020000000000000000000000000000000000400000002009040000000000008000000000000000000000000000000000020000000000001000000004000000800000000000000000000008000000004000000",
      "transactionHash": "0xfdfcfb5a7e5e868b967d0e6a6f678e296dbbc7a2177ae75a70a906c9ca14f1c6",
      "transactionIndex": "0x21",
      "blockHash": "0xcfdb896e97f3dc2105243e40f235c3463201af2c3012a0b1e588974a85333039",
      "blockNumber": "0x28e673d",
      "gasUsed": "0x26246",
      "effectiveGasPrice": "0x5b8d80",
      "blobGasUsed": "0xae38",
      "from": "0xf93e7518f79c2e1978d6862dbf161270040e623e",
      "to": "0xab0ae552ee5933935e39393d32b4034e75fd3ff8",
      "contractAddress": null,
      "l1GasPrice": "0x3eeaf758",
      "l1GasUsed": "0x640",
      "l1Fee": "0x1492a1fb1",
      "l1BaseFeeScalar": "0x44d",
      "l1BlobBaseFee": "0x34f0a86",
      "l1BlobBaseFeeScalar": "0xa118b",
      "daFootprintGasScalar": "0x1be"
    }
  ],
  "libraries": [],
  "pending": [],
  "returns": {},
  "timestamp": 1781542261671,
  "chain": 84532,
  "commit": "db0d465"
}